{
  "_format": "hh-sol-artifact-1",
  "contractName": "AcceptNone",
  "sourceName": "contracts/protocol/auctions/AcceptNone.sol",
  "abi": [
    {
      "inputs": [
        {
          "internalType": "uint256",
          "name": "x",
          "type": "uint256"
        },
        {
          "internalType": "uint256",
          "name": "y",
          "type": "uint256"
        }
      ],
      "name": "PRBMath_MulDiv18_Overflow",
      "type": "error"
    },
    {
      "inputs": [
        {
          "internalType": "uint256",
          "name": "x",
          "type": "uint256"
        },
        {
          "internalType": "uint256",
          "name": "y",
          "type": "uint256"
        },
        {
          "internalType": "uint256",
          "name": "denominator",
          "type": "uint256"
        }
      ],
      "name": "PRBMath_MulDiv_Overflow",
      "type": "error"
    },
    {
      "inputs": [
        {
          "internalType": "int256",
          "name": "x",
          "type": "int256"
        }
      ],
      "name": "PRBMath_SD59x18_Convert_Overflow",
      "type": "error"
    },
    {
      "inputs": [
        {
          "internalType": "int256",
          "name": "x",
          "type": "int256"
        }
      ],
      "name": "PRBMath_SD59x18_Convert_Underflow",
      "type": "error"
    },
    {
      "inputs": [
        {
          "internalType": "SD59x18",
          "name": "x",
          "type": "int256"
        }
      ],
      "name": "PRBMath_SD59x18_Exp2_InputTooBig",
      "type": "error"
    },
    {
      "inputs": [
        {
          "internalType": "SD59x18",
          "name": "x",
          "type": "int256"
        }
      ],
      "name": "PRBMath_SD59x18_IntoUD60x18_Underflow",
      "type": "error"
    },
    {
      "inputs": [
        {
          "internalType": "SD59x18",
          "name": "x",
          "type": "int256"
        }
      ],
      "name": "PRBMath_SD59x18_Log_InputTooSmall",
      "type": "error"
    },
    {
      "inputs": [],
      "name": "PRBMath_SD59x18_Mul_InputTooSmall",
      "type": "error"
    },
    {
      "inputs": [
        {
          "internalType": "SD59x18",
          "name": "x",
          "type": "int256"
        },
        {
          "internalType": "SD59x18",
          "name": "y",
          "type": "int256"
        }
      ],
      "name": "PRBMath_SD59x18_Mul_Overflow",
      "type": "error"
    },
    {
      "inputs": [
        {
          "internalType": "uint256",
          "name": "x",
          "type": "uint256"
        }
      ],
      "name": "PRBMath_UD60x18_Convert_Overflow",
      "type": "error"
    },
    {
      "inputs": [
        {
          "internalType": "UD60x18",
          "name": "x",
          "type": "uint256"
        }
      ],
      "name": "PRBMath_UD60x18_IntoSD59x18_Overflow",
      "type": "error"
    },
    {
      "anonymous": false,
      "inputs": [
        {
          "indexed": false,
          "internalType": "uint8",
          "name": "version",
          "type": "uint8"
        }
      ],
      "name": "Initialized",
      "type": "event"
    },
    {
      "anonymous": false,
      "inputs": [
        {
          "indexed": true,
          "internalType": "address",
          "name": "previousOwner",
          "type": "address"
        },
        {
          "indexed": true,
          "internalType": "address",
          "name": "newOwner",
          "type": "address"
        }
      ],
      "name": "OwnershipTransferred",
      "type": "event"
    },
    {
      "inputs": [
        {
          "internalType": "uint256",
          "name": "",
          "type": "uint256"
        }
      ],
      "name": "_loans",
      "outputs": [
        {
          "internalType": "address",
          "name": "borrower",
          "type": "address"
        },
        {
          "internalType": "UD60x18",
          "name": "ratePerSecond",
          "type": "uint256"
        },
        {
          "internalType": "UD60x18",
          "name": "paymentPerSecond",
          "type": "uint256"
        },
        {
          "internalType": "uint256",
          "name": "startTime",
          "type": "uint256"
        },
        {
          "internalType": "uint256",
          "name": "unpaidPrincipal",
          "type": "uint256"
        },
        {
          "internalType": "uint256",
          "name": "maxDurationSeconds",
          "type": "uint256"
        },
        {
          "internalType": "uint256",
          "name": "lastPaymentTime",
          "type": "uint256"
        }
      ],
      "stateMutability": "view",
      "type": "function"
    },
    {
      "inputs": [
        {
          "internalType": "uint256",
          "name": "tokenId",
          "type": "uint256"
        },
        {
          "internalType": "uint256",
          "name": "bidIdx",
          "type": "uint256"
        }
      ],
      "name": "acceptNoneBid",
      "outputs": [],
      "stateMutability": "nonpayable",
      "type": "function"
    },
    {
      "inputs": [
        {
          "internalType": "uint256",
          "name": "tokenId",
          "type": "uint256"
        }
      ],
      "name": "accruedInterest",
      "outputs": [
        {
          "internalType": "uint256",
          "name": "",
          "type": "uint256"
        }
      ],
      "stateMutability": "view",
      "type": "function"
    },
    {
      "inputs": [],
      "name": "availableLiquidity",
      "outputs": [
        {
          "internalType": "uint256",
          "name": "",
          "type": "uint256"
        }
      ],
      "stateMutability": "view",
      "type": "function"
    },
    {
      "inputs": [
        {
          "components": [
            {
              "internalType": "address",
              "name": "bidder",
              "type": "address"
            },
            {
              "internalType": "uint256",
              "name": "propertyValue",
              "type": "uint256"
            },
            {
              "internalType": "uint256",
              "name": "downPayment",
              "type": "uint256"
            },
            {
              "internalType": "uint256",
              "name": "maxDurationMonths",
              "type": "uint256"
            }
          ],
          "internalType": "struct IState.Bid",
          "name": "bid",
          "type": "tuple"
        }
      ],
      "name": "bidActionable",
      "outputs": [
        {
          "internalType": "bool",
          "name": "",
          "type": "bool"
        }
      ],
      "stateMutability": "view",
      "type": "function"
    },
    {
      "inputs": [
        {
          "internalType": "uint256",
          "name": "tokenId",
          "type": "uint256"
        }
      ],
      "name": "bids",
      "outputs": [
        {
          "components": [
            {
              "internalType": "address",
              "name": "bidder",
              "type": "address"
            },
            {
              "internalType": "uint256",
              "name": "propertyValue",
              "type": "uint256"
            },
            {
              "internalType": "uint256",
              "name": "downPayment",
              "type": "uint256"
            },
            {
              "internalType": "uint256",
              "name": "maxDurationMonths",
              "type": "uint256"
            }
          ],
          "internalType": "struct IState.Bid[]",
          "name": "",
          "type": "tuple[]"
        }
      ],
      "stateMutability": "view",
      "type": "function"
    },
    {
      "inputs": [],
      "name": "defaultFeeSpread",
      "outputs": [
        {
          "internalType": "UD60x18",
          "name": "",
          "type": "uint256"
        }
      ],
      "stateMutability": "view",
      "type": "function"
    },
    {
      "inputs": [
        {
          "internalType": "contract tUsdc",
          "name": "_tUSDC",
          "type": "address"
        },
        {
          "internalType": "contract TangibleNft",
          "name": "_prosperaNftContract",
          "type": "address"
        }
      ],
      "name": "initialize",
      "outputs": [],
      "stateMutability": "nonpayable",
      "type": "function"
    },
    {
      "inputs": [
        {
          "components": [
            {
              "internalType": "address",
              "name": "bidder",
              "type": "address"
            },
            {
              "internalType": "uint256",
              "name": "propertyValue",
              "type": "uint256"
            },
            {
              "internalType": "uint256",
              "name": "downPayment",
              "type": "uint256"
            },
            {
              "internalType": "uint256",
              "name": "maxDurationMonths",
              "type": "uint256"
            }
          ],
          "internalType": "struct IState.Bid",
          "name": "_bid",
          "type": "tuple"
        }
      ],
      "name": "loanBidActionable",
      "outputs": [
        {
          "internalType": "bool",
          "name": "",
          "type": "bool"
        }
      ],
      "stateMutability": "view",
      "type": "function"
    },
    {
      "inputs": [
        {
          "internalType": "uint256",
          "name": "tokenId",
          "type": "uint256"
        }
      ],
      "name": "loans",
      "outputs": [
        {
          "components": [
            {
              "internalType": "address",
              "name": "borrower",
              "type": "address"
            },
            {
              "internalType": "UD60x18",
              "name": "ratePerSecond",
              "type": "uint256"
            },
            {
              "internalType": "UD60x18",
              "name": "paymentPerSecond",
              "type": "uint256"
            },
            {
              "internalType": "uint256",
              "name": "startTime",
              "type": "uint256"
            },
            {
              "internalType": "uint256",
              "name": "unpaidPrincipal",
              "type": "uint256"
            },
            {
              "internalType": "uint256",
              "name": "maxDurationSeconds",
              "type": "uint256"
            },
            {
              "internalType": "uint256",
              "name": "lastPaymentTime",
              "type": "uint256"
            }
          ],
          "internalType": "struct IState.Loan",
          "name": "",
          "type": "tuple"
        }
      ],
      "stateMutability": "view",
      "type": "function"
    },
    {
      "inputs": [
        {
          "internalType": "uint256",
          "name": "idx",
          "type": "uint256"
        }
      ],
      "name": "loansTokenIdsAt",
      "outputs": [
        {
          "internalType": "uint256",
          "name": "tokenId",
          "type": "uint256"
        }
      ],
      "stateMutability": "view",
      "type": "function"
    },
    {
      "inputs": [],
      "name": "loansTokenIdsLength",
      "outputs": [
        {
          "internalType": "uint256",
          "name": "",
          "type": "uint256"
        }
      ],
      "stateMutability": "view",
      "type": "function"
    },
    {
      "inputs": [
        {
          "internalType": "bytes4",
          "name": "",
          "type": "bytes4"
        }
      ],
      "name": "logicTargets",
      "outputs": [
        {
          "internalType": "address",
          "name": "",
          "type": "address"
        }
      ],
      "stateMutability": "view",
      "type": "function"
    },
    {
      "inputs": [],
      "name": "maxDurationMonthsCap",
      "outputs": [
        {
          "internalType": "uint256",
          "name": "",
          "type": "uint256"
        }
      ],
      "stateMutability": "view",
      "type": "function"
    },
    {
      "inputs": [],
      "name": "maxLtv",
      "outputs": [
        {
          "internalType": "UD60x18",
          "name": "",
          "type": "uint256"
        }
      ],
      "stateMutability": "view",
      "type": "function"
    },
    {
      "inputs": [],
      "name": "monthSeconds",
      "outputs": [
        {
          "internalType": "uint256",
          "name": "",
          "type": "uint256"
        }
      ],
      "stateMutability": "view",
      "type": "function"
    },
    {
      "inputs": [],
      "name": "optimalUtilization",
      "outputs": [
        {
          "internalType": "UD60x18",
          "name": "",
          "type": "uint256"
        }
      ],
      "stateMutability": "view",
      "type": "function"
    },
    {
      "inputs": [],
      "name": "owner",
      "outputs": [
        {
          "internalType": "address",
          "name": "",
          "type": "address"
        }
      ],
      "stateMutability": "view",
      "type": "function"
    },
    {
      "inputs": [
        {
          "components": [
            {
              "internalType": "address",
              "name": "borrower",
              "type": "address"
            },
            {
              "internalType": "UD60x18",
              "name": "ratePerSecond",
              "type": "uint256"
            },
            {
              "internalType": "UD60x18",
              "name": "paymentPerSecond",
              "type": "uint256"
            },
            {
              "internalType": "uint256",
              "name": "startTime",
              "type": "uint256"
            },
            {
              "internalType": "uint256",
              "name": "unpaidPrincipal",
              "type": "uint256"
            },
            {
              "internalType": "uint256",
              "name": "maxDurationSeconds",
              "type": "uint256"
            },
            {
              "internalType": "uint256",
              "name": "lastPaymentTime",
              "type": "uint256"
            }
          ],
          "internalType": "struct IState.Loan",
          "name": "loan",
          "type": "tuple"
        },
        {
          "internalType": "uint256",
          "name": "month",
          "type": "uint256"
        }
      ],
      "name": "principalCap",
      "outputs": [
        {
          "internalType": "uint256",
          "name": "cap",
          "type": "uint256"
        }
      ],
      "stateMutability": "pure",
      "type": "function"
    },
    {
      "inputs": [],
      "name": "redemptionFeeSpread",
      "outputs": [
        {
          "internalType": "UD60x18",
          "name": "",
          "type": "uint256"
        }
      ],
      "stateMutability": "view",
      "type": "function"
    },
    {
      "inputs": [],
      "name": "renounceOwnership",
      "outputs": [],
      "stateMutability": "nonpayable",
      "type": "function"
    },
    {
      "inputs": [
        {
          "internalType": "bytes4[]",
          "name": "selectorsArr",
          "type": "bytes4[]"
        },
        {
          "internalType": "address",
          "name": "target",
          "type": "address"
        }
      ],
      "name": "setSelectorsTarget",
      "outputs": [],
      "stateMutability": "nonpayable",
      "type": "function"
    },
    {
      "inputs": [
        {
          "internalType": "uint256",
          "name": "tokenId",
          "type": "uint256"
        }
      ],
      "name": "status",
      "outputs": [
        {
          "internalType": "enum IState.Status",
          "name": "",
          "type": "uint8"
        }
      ],
      "stateMutability": "view",
      "type": "function"
    },
    {
      "inputs": [
        {
          "internalType": "uint256",
          "name": "tokenId",
          "type": "uint256"
        }
      ],
      "name": "tokenIdBidsLength",
      "outputs": [
        {
          "internalType": "uint256",
          "name": "",
          "type": "uint256"
        }
      ],
      "stateMutability": "view",
      "type": "function"
    },
    {
      "inputs": [],
      "name": "totalDeposits",
      "outputs": [
        {
          "internalType": "uint256",
          "name": "",
          "type": "uint256"
        }
      ],
      "stateMutability": "view",
      "type": "function"
    },
    {
      "inputs": [],
      "name": "totalPrincipal",
      "outputs": [
        {
          "internalType": "uint256",
          "name": "",
          "type": "uint256"
        }
      ],
      "stateMutability": "view",
      "type": "function"
    },
    {
      "inputs": [
        {
          "internalType": "address",
          "name": "newOwner",
          "type": "address"
        }
      ],
      "name": "transferOwnership",
      "outputs": [],
      "stateMutability": "nonpayable",
      "type": "function"
    },
    {
      "inputs": [],
      "name": "yearMonths",
      "outputs": [
        {
          "internalType": "uint256",
          "name": "",
          "type": "uint256"
        }
      ],
      "stateMutability": "view",
      "type": "function"
    },
    {
      "inputs": [],
      "name": "yearSeconds",
      "outputs": [
        {
          "internalType": "uint256",
          "name": "",
          "type": "uint256"
        }
      ],
      "stateMutability": "view",
      "type": "function"
    }
  ],
  "bytecode": "0x608060405273a0b86991c6218b36c1d19d4a2e9eb0ce3606eb486002806101000a81548173ffffffffffffffffffffffffffffffffffffffff021916908373ffffffffffffffffffffffffffffffffffffffff1602179055506200008f6200006e60646200027d60201b60201c565b62000080605a6200027d60201b60201c565b6200030e60201b90919060201c565b600755620000c9620000a860646200027d60201b60201c565b620000ba60046200027d60201b60201c565b6200030e60201b90919060201c565b60085562000103620000e260646200027d60201b60201c565b620000f460036200027d60201b60201c565b6200030e60201b90919060201c565b6009556200011860096200027d60201b60201c565b600a55620001526200013160646200027d60201b60201c565b6200014360016200027d60201b60201c565b6200030e60201b90919060201c565b600b556200018c6200016b60646200027d60201b60201c565b6200017d60026200027d60201b60201c565b6200030e60201b90919060201c565b600c55620001c6620001a560646200027d60201b60201c565b620001b760036200027d60201b60201c565b6200030e60201b90919060201c565b600d5562000200620001df60646200027d60201b60201c565b620001f160046200027d60201b60201c565b6200030e60201b90919060201c565b600e55623b5380601455620002416200022060646200027d60201b60201c565b6200023260326200027d60201b60201c565b6200030e60201b90919060201c565b60155560786016553480156200025657600080fd5b50620002776200026b6200036360201b60201c565b6200036b60201b60201c565b62000641565b6000670de0b6b3a76400007fffffffffffffffffffffffffffffffffffffffffffffffffffffffffffffffff620002b591906200059e565b821115620002fc57816040517f1cd951a7000000000000000000000000000000000000000000000000000000008152600401620002f39190620005e7565b60405180910390fd5b670de0b6b3a764000082029050919050565b60006200035b6200034f62000329856200042f60201b60201c565b670de0b6b3a764000062000343866200042f60201b60201c565b6200043960201b60201c565b6200055b60201b60201c565b905092915050565b600033905090565b60008060009054906101000a900473ffffffffffffffffffffffffffffffffffffffff169050816000806101000a81548173ffffffffffffffffffffffffffffffffffffffff021916908373ffffffffffffffffffffffffffffffffffffffff1602179055508173ffffffffffffffffffffffffffffffffffffffff168173ffffffffffffffffffffffffffffffffffffffff167f8be0079c531659141344cd1fd0a4f28419497f9722a3daafe3b4186f6b6457e060405160405180910390a35050565b6000819050919050565b600080600080198587098587029250828110838203039150506000810362000479578382816200046e576200046d6200056f565b5b049250505062000554565b838110620004c4578585856040517f63a05778000000000000000000000000000000000000000000000000000000008152600401620004bb9392919062000604565b60405180910390fd5b60008486880990508281118203915080830392506000600186190186169050600081870496508185049450600182836000030401905080840285179450600060028860030218905080880260020381029050808802600203810290508088026002038102905080880260020381029050808802600203810290508088026002038102905080860296505050505050505b9392505050565b6000819050919050565b6000819050919050565b7f4e487b7100000000000000000000000000000000000000000000000000000000600052601260045260246000fd5b6000620005ab8262000565565b9150620005b88362000565565b925082620005cb57620005ca6200056f565b5b828204905092915050565b620005e18162000565565b82525050565b6000602082019050620005fe6000830184620005d6565b92915050565b60006060820190506200061b6000830186620005d6565b6200062a6020830185620005d6565b620006396040830184620005d6565b949350505050565b61481980620006516000396000f3fe608060405234801561001057600080fd5b50600436106101cf5760003560e01c806374bdf96a11610104578063a54cab1c116100a2578063e1ec3c6811610071578063e1ec3c6814610564578063e343504414610594578063f2fde38b146105b0578063ff9ad6df146105cc576101cf565b8063a54cab1c146104c2578063ab01f7e1146104e0578063bcff3e3b146104fe578063bd5c569b1461052e576101cf565b806383bd0c7a116100de57806383bd0c7a1461043a57806387ae0dbe146104565780638da5cb5b14610474578063a0024c2f14610492576101cf565b806374bdf96a146103ce5780637d882097146103fe578063812cf0181461041c576101cf565b80634423c5f1116101715780634b1533b21161014b5780634b1533b21461036a5780636290cd1c14610388578063715018a6146103a657806374375359146103b0576101cf565b80634423c5f114610300578063485cc955146103305780634abb30031461034c576101cf565b80632da10923116101ad5780632da10923146102645780633a12c6da146102945780633ca36db6146102b257806342d21ef7146102d0576101cf565b80630a9cc0b6146101d457806317548b79146102045780631cc03c8714610234575b600080fd5b6101ee60048036038101906101e9919061345f565b6105ea565b6040516101fb91906134a7565b60405180910390f35b61021e6004803603810190610219919061351a565b61065f565b60405161022b9190613556565b60405180910390f35b61024e60048036038101906102499190613651565b610692565b60405161025b91906136a1565b60405180910390f35b61027e600480360381019061027991906136bc565b6107f4565b60405161028b91906136a1565b60405180910390f35b61029c610814565b6040516102a99190613724565b60405180910390f35b6102ba61081a565b6040516102c79190613724565b60405180910390f35b6102ea60048036038101906102e591906136bc565b610824565b6040516102f791906137b6565b60405180910390f35b61031a600480360381019061031591906136bc565b61096b565b60405161032791906138f3565b60405180910390f35b61034a60048036038101906103459190613991565b610a51565b005b610354610c12565b6040516103619190613724565b60405180910390f35b610372610c1c565b60405161037f91906136a1565b60405180910390f35b610390610c22565b60405161039d9190613724565b60405180910390f35b6103ae610c28565b005b6103b8610c3c565b6040516103c591906136a1565b60405180910390f35b6103e860048036038101906103e391906136bc565b610c53565b6040516103f591906136a1565b60405180910390f35b610406610c70565b60405161041391906136a1565b60405180910390f35b610424610c76565b60405161043191906136a1565b60405180910390f35b610454600480360381019061044f91906139d1565b610c7b565b005b61045e61127d565b60405161046b91906136a1565b60405180910390f35b61047c611285565b6040516104899190613556565b60405180910390f35b6104ac60048036038101906104a7919061345f565b6112ae565b6040516104b991906134a7565b60405180910390f35b6104ca6112d2565b6040516104d791906136a1565b60405180910390f35b6104e86112d8565b6040516104f591906136a1565b60405180910390f35b610518600480360381019061051391906136bc565b6112e9565b60405161052591906136a1565b60405180910390f35b610548600480360381019061054391906136bc565b6113aa565b60405161055b9796959493929190613a11565b60405180910390f35b61057e600480360381019061057991906136bc565b61140c565b60405161058b9190613b1d565b60405180910390f35b6105ae60048036038101906105a99190613b9d565b6114cb565b005b6105ca60048036038101906105c59190613bfd565b6115b1565b005b6105d4611634565b6040516105e191906136a1565b60405180910390f35b600080826040015183602001516106019190613c59565b9050600061062c6106158560200151611648565b61061e84611648565b6116d490919063ffffffff16565b90506106436015548261170990919063ffffffff16565b80156106565750610652610c3c565b8211155b92505050919050565b60016020528060005260406000206000915054906101000a900473ffffffffffffffffffffffffffffffffffffffff1681565b600061069d83611727565b8211156106df576040517f08c379a00000000000000000000000000000000000000000000000000000000081526004016106d690613d10565b60405180910390fd5b6000600c6301e133806106f29190613d5f565b836106fd9190613d90565b9050600061074361070e6001611750565b61073561071e8860a00151611750565b61072786611750565b61185490919063ffffffff16565b61185490919063ffffffff16565b9050600061079c610784836107766107718a602001516107636001611648565b61188290919063ffffffff16565b6118b0565b61192490919063ffffffff16565b61078e6001611750565b61185490919063ffffffff16565b905060006107c76107c2836107b48a604001516118b0565b6119e290919063ffffffff16565b611b72565b90506107e86107e38860200151836116d490919063ffffffff16565b611bc7565b94505050505092915050565b6000600f6000838152602001908152602001600020805490509050919050565b60155481565b6000600d54905090565b600080601060008481526020019081526020016000206040518060e00160405290816000820160009054906101000a900473ffffffffffffffffffffffffffffffffffffffff1673ffffffffffffffffffffffffffffffffffffffff1673ffffffffffffffffffffffffffffffffffffffff16815260200160018201548152602001600282015481526020016003820154815260200160048201548152602001600582015481526020016006820154815250509050600073ffffffffffffffffffffffffffffffffffffffff16816000015173ffffffffffffffffffffffffffffffffffffffff160361091b576000915050610966565b61092483611be4565b1561096057600061093482611cf9565b4261093f9190613c59565b9050601454811161095557600292505050610966565b600392505050610966565b60019150505b919050565b6060600f6000838152602001908152602001600020805480602002602001604051908101604052809291908181526020016000905b82821015610a4657838290600052602060002090600402016040518060800160405290816000820160009054906101000a900473ffffffffffffffffffffffffffffffffffffffff1673ffffffffffffffffffffffffffffffffffffffff1673ffffffffffffffffffffffffffffffffffffffff1681526020016001820154815260200160028201548152602001600382015481525050815260200190600101906109a0565b505050509050919050565b6000600260019054906101000a900460ff16159050808015610a8557506001600260009054906101000a900460ff1660ff16105b80610ab45750610a9430611da4565b158015610ab357506001600260009054906101000a900460ff1660ff16145b5b610af3576040517f08c379a0000000000000000000000000000000000000000000000000000000008152600401610aea90613e44565b60405180910390fd5b6001600260006101000a81548160ff021916908360ff1602179055508015610b31576001600260016101000a81548160ff0219169083151502179055505b82600360006101000a81548173ffffffffffffffffffffffffffffffffffffffff021916908373ffffffffffffffffffffffffffffffffffffffff16021790555081600460006101000a81548173ffffffffffffffffffffffffffffffffffffffff021916908373ffffffffffffffffffffffffffffffffffffffff1602179055508015610c0d576000600260016101000a81548160ff0219169083151502179055507f7f26b83ff96e1f2b6a682f133852f6798a09c465da95921460cefb38474024986001604051610c049190613eac565b60405180910390a15b505050565b6000600e54905090565b60055481565b60075481565b610c30611dc7565b610c3a6000611e45565b565b6000600554600654610c4e9190613c59565b905090565b6000610c69826011611f0990919063ffffffff16565b9050919050565b60065481565b600c81565b6000600460009054906101000a900473ffffffffffffffffffffffffffffffffffffffff1673ffffffffffffffffffffffffffffffffffffffff16636352211e846040518263ffffffff1660e01b8152600401610cd891906136a1565b602060405180830381865afa158015610cf5573d6000803e3d6000fd5b505050506040513d601f19601f82011682018060405250810190610d199190613edc565b905060006003811115610d2f57610d2e61373f565b5b610d3884610824565b6003811115610d4a57610d4961373f565b5b14610d8a576040517f08c379a0000000000000000000000000000000000000000000000000000000008152600401610d8190613f55565b60405180910390fd5b8073ffffffffffffffffffffffffffffffffffffffff163373ffffffffffffffffffffffffffffffffffffffff1614610df8576040517f08c379a0000000000000000000000000000000000000000000000000000000008152600401610def90613fc1565b60405180910390fd5b6000600f60008581526020019081526020016000208381548110610e1f57610e1e613fe1565b5b90600052602060002090600402016040518060800160405290816000820160009054906101000a900473ffffffffffffffffffffffffffffffffffffffff1673ffffffffffffffffffffffffffffffffffffffff1673ffffffffffffffffffffffffffffffffffffffff168152602001600182015481526020016002820154815260200160038201548152505090506000610ed9610ed4600b54610ec68560200151611648565b611f2390919063ffffffff16565b611bc7565b90508060136000828254610eed9190614010565b925050819055508082602001511015610f3b576040517f08c379a0000000000000000000000000000000000000000000000000000000008152600401610f32906140b6565b60405180910390fd5b6000818360200151610f4d9190613c59565b9050610f9a848260028054906101000a900473ffffffffffffffffffffffffffffffffffffffff1673ffffffffffffffffffffffffffffffffffffffff16611f4f9092919063ffffffff16565b826040015183602001510361104357600460009054906101000a900473ffffffffffffffffffffffffffffffffffffffff1673ffffffffffffffffffffffffffffffffffffffff166342842e0e858560000151896040518463ffffffff1660e01b815260040161100c939291906140d6565b600060405180830381600087803b15801561102657600080fd5b505af115801561103a573d6000803e3d6000fd5b50505050611275565b600460009054906101000a900473ffffffffffffffffffffffffffffffffffffffff1673ffffffffffffffffffffffffffffffffffffffff166342842e0e8530896040518463ffffffff1660e01b81526004016110a2939291906140d6565b600060405180830381600087803b1580156110bc57600080fd5b505af11580156110d0573d6000803e3d6000fd5b505050506000836040015184602001516110ea9190613c59565b9050600060016000630feee81e60e01b7bffffffffffffffffffffffffffffffffffffffffffffffffffffffff19167bffffffffffffffffffffffffffffffffffffffffffffffffffffffff1916815260200190815260200160002060009054906101000a900473ffffffffffffffffffffffffffffffffffffffff1673ffffffffffffffffffffffffffffffffffffffff1685600001518984886060015160405160240161119c949392919061410d565b604051602081830303815290604052630feee81e60e01b6020820180517bffffffffffffffffffffffffffffffffffffffffffffffffffffffff83818316178352505050506040516111ee91906141c3565b600060405180830381855af49150503d8060008114611229576040519150601f19603f3d011682016040523d82523d6000602084013e61122e565b606091505b5050905080611272576040517f08c379a000000000000000000000000000000000000000000000000000000000815260040161126990614226565b60405180910390fd5b50505b505050505050565b6301e1338081565b60008060009054906101000a900473ffffffffffffffffffffffffffffffffffffffff16905090565b60008160400151826020015114806112cb57506112ca826105ea565b5b9050919050565b60165481565b60006112e46011611fd5565b905090565b60006113a3601060008481526020019081526020016000206040518060e00160405290816000820160009054906101000a900473ffffffffffffffffffffffffffffffffffffffff1673ffffffffffffffffffffffffffffffffffffffff1673ffffffffffffffffffffffffffffffffffffffff1681526020016001820154815260200160028201548152602001600382015481526020016004820154815260200160058201548152602001600682015481525050611fea565b9050919050565b60106020528060005260406000206000915090508060000160009054906101000a900473ffffffffffffffffffffffffffffffffffffffff16908060010154908060020154908060030154908060040154908060050154908060060154905087565b61141461325b565b601060008381526020019081526020016000206040518060e00160405290816000820160009054906101000a900473ffffffffffffffffffffffffffffffffffffffff1673ffffffffffffffffffffffffffffffffffffffff1673ffffffffffffffffffffffffffffffffffffffff16815260200160018201548152602001600282015481526020016003820154815260200160048201548152602001600582015481526020016006820154815250509050919050565b6114d3611dc7565b60005b838390508110156115ab5781600160008686858181106114f9576114f8613fe1565b5b905060200201602081019061150e919061351a565b7bffffffffffffffffffffffffffffffffffffffffffffffffffffffff19167bffffffffffffffffffffffffffffffffffffffffffffffffffffffff1916815260200190815260200160002060006101000a81548173ffffffffffffffffffffffffffffffffffffffff021916908373ffffffffffffffffffffffffffffffffffffffff16021790555080806115a390614246565b9150506114d6565b50505050565b6115b9611dc7565b600073ffffffffffffffffffffffffffffffffffffffff168173ffffffffffffffffffffffffffffffffffffffff1603611628576040517f08c379a000000000000000000000000000000000000000000000000000000000815260040161161f90614300565b60405180910390fd5b61163181611e45565b50565b600c6301e133806116459190613d5f565b81565b6000670de0b6b3a76400007fffffffffffffffffffffffffffffffffffffffffffffffffffffffffffffffff61167e9190613d5f565b8211156116c257816040517f1cd951a70000000000000000000000000000000000000000000000000000000081526004016116b991906136a1565b60405180910390fd5b670de0b6b3a764000082029050919050565b60006117016116fc6116e585612022565b670de0b6b3a76400006116f786612022565b61202c565b612146565b905092915050565b600061171482612022565b61171d84612022565b1115905092915050565b60006301e133808260a00151600c61173f9190613d90565b6117499190613d5f565b9050919050565b6000670de0b6b3a76400007f8000000000000000000000000000000000000000000000000000000000000000611786919061432a565b8212156117ca57816040517f99474eeb0000000000000000000000000000000000000000000000000000000081526004016117c191906143a3565b60405180910390fd5b670de0b6b3a76400007f7fffffffffffffffffffffffffffffffffffffffffffffffffffffffffffffff6117fe919061432a565b82131561184257816040517f9d58109100000000000000000000000000000000000000000000000000000000815260040161183991906143a3565b60405180910390fd5b670de0b6b3a764000082029050919050565b600061187a61186283612150565b61186b85612150565b61187591906143be565b61215a565b905092915050565b60006118a861189083612022565b61189985612022565b6118a39190614010565b612146565b905092915050565b6000808290507f7fffffffffffffffffffffffffffffffffffffffffffffffffffffffffffffff81111561191b57826040517ff46186840000000000000000000000000000000000000000000000000000000081526004016119129190613724565b60405180910390fd5b80915050919050565b60008061193084612150565b9050600061193d84612150565b9050600082036119695760008114611956576000611960565b670de0b6b3a76400005b925050506119dc565b670de0b6b3a7640000820361198a57670de0b6b3a7640000925050506119dc565b600081036119a457670de0b6b3a7640000925050506119dc565b670de0b6b3a764000081036119bd5784925050506119dc565b6119d76119d26119cc87612164565b866119e2565b6122f7565b925050505b92915050565b6000806119ee84612150565b905060006119fb84612150565b90507f8000000000000000000000000000000000000000000000000000000000000000821480611a4a57507f800000000000000000000000000000000000000000000000000000000000000081145b15611a81576040517fa6070c2500000000000000000000000000000000000000000000000000000000815260040160405180910390fd5b60008060008412611a925783611a97565b836000035b915060008312611aa75782611aac565b826000035b90506000611aba8383612415565b90507f7fffffffffffffffffffffffffffffffffffffffffffffffffffffffffffffff811115611b235787876040517f120b5b43000000000000000000000000000000000000000000000000000000008152600401611b1a929190614432565b60405180910390fd5b60007fffffffffffffffffffffffffffffffffffffffffffffffffffffffffffffffff858718139050611b6481611b5d5782600003611b5f565b825b61215a565b965050505050505092915050565b6000808290506000811215611bbe57826040517fbba41a15000000000000000000000000000000000000000000000000000000008152600401611bb5919061445b565b60405180910390fd5b80915050919050565b6000670de0b6b3a764000082611bdd9190613d5f565b9050919050565b600080601060008481526020019081526020016000206040518060e00160405290816000820160009054906101000a900473ffffffffffffffffffffffffffffffffffffffff1673ffffffffffffffffffffffffffffffffffffffff1673ffffffffffffffffffffffffffffffffffffffff168152602001600182015481526020016002820154815260200160038201548152602001600482015481526020016005820154815260200160068201548152505090506000611ca4826124ff565b90506000600c6301e133808460a00151611cbe9190613d5f565b611cc89190613d90565b905080821115611cde5760019350505050611cf4565b611ce88383610692565b83608001511193505050505b919050565b600080611d05836124ff565b905060008190505b6000811115611d9d576000611d228583610692565b90506000611d3c86600185611d379190613c59565b610692565b9050818660800151118015611d55575080866080015111155b15611d8857600c6301e13380611d6b9190613d5f565b83611d769190613d90565b8660600151611d859190614010565b94505b50508080611d9590614476565b915050611d0d565b5050919050565b6000808273ffffffffffffffffffffffffffffffffffffffff163b119050919050565b611dcf612554565b73ffffffffffffffffffffffffffffffffffffffff16611ded611285565b73ffffffffffffffffffffffffffffffffffffffff1614611e43576040517f08c379a0000000000000000000000000000000000000000000000000000000008152600401611e3a906144eb565b60405180910390fd5b565b60008060009054906101000a900473ffffffffffffffffffffffffffffffffffffffff169050816000806101000a81548173ffffffffffffffffffffffffffffffffffffffff021916908373ffffffffffffffffffffffffffffffffffffffff1602179055508173ffffffffffffffffffffffffffffffffffffffff168173ffffffffffffffffffffffffffffffffffffffff167f8be0079c531659141344cd1fd0a4f28419497f9722a3daafe3b4186f6b6457e060405160405180910390a35050565b6000611f18836000018361255c565b60001c905092915050565b6000611f47611f42611f3485612022565b611f3d85612022565b612415565b612146565b905092915050565b611fd08363a9059cbb60e01b8484604051602401611f6e92919061450b565b604051602081830303815290604052907bffffffffffffffffffffffffffffffffffffffffffffffffffffffff19166020820180517bffffffffffffffffffffffffffffffffffffffffffffffffffffffff8381831617835250505050612587565b505050565b6000611fe38260000161264e565b9050919050565b600061201b612016611ffb8461265f565b6120088560800151611648565b611f2390919063ffffffff16565b611bc7565b9050919050565b6000819050919050565b60008060008019858709858702925082811083820303915050600081036120675783828161205d5761205c613d30565b5b049250505061213f565b8381106120af578585856040517f63a057780000000000000000000000000000000000000000000000000000000081526004016120a693929190614534565b60405180910390fd5b60008486880990508281118203915080830392506000600186190186169050600081870496508185049450600182836000030401905080840285179450600060028860030218905080880260020381029050808802600203810290508088026002038102905080880260020381029050808802600203810290508088026002038102905080860296505050505050505b9392505050565b6000819050919050565b6000819050919050565b6000819050919050565b60008061217083612150565b9050600081136121b757826040517f059b101b0000000000000000000000000000000000000000000000000000000081526004016121ae919061445b565b60405180910390fd5b6000670de0b6b3a764000082126121d15760019050612217565b7fffffffffffffffffffffffffffffffffffffffffffffffffffffffffffffffff9050816ec097ce7bc90715b34b9f10000000008161221357612212613d30565b5b0591505b600061223a670de0b6b3a7640000848161223457612233613d30565b5b0561268f565b90506000670de0b6b3a76400008202905060008285901d9050670de0b6b3a764000081036122795761226d84830261215a565b955050505050506122f2565b6000671bc16d674ec80000905060006706f05b59d3b2000090505b60008113156122da57670de0b6b3a7640000838402816122b7576122b6613d30565b5b0592508183126122ce578084019350600183901d92505b600181901d9050612294565b5084830292506122e98361215a565b96505050505050505b919050565b60008061230383612150565b9050600081121561238a577ffffffffffffffffffffffffffffffffffffffffffffffffcc22e87f6eb468eeb811215612340576000915050612410565b61238361235f61235a6123558460000361215a565b6122f7565b612150565b6ec097ce7bc90715b34b9f10000000008161237d5761237c613d30565b5b0561215a565b915061240e565b680a688906bd8affffff8113156123d857826040517f0360d0280000000000000000000000000000000000000000000000000000000081526004016123cf919061445b565b60405180910390fd5b6000670de0b6b3a7640000604083901b816123f6576123f5613d30565b5b05905061240a61240582612738565b61215a565b9250505b505b919050565b600080600080198486098486029250828110838203039150506000810361245857670de0b6b3a7640000828161244e5761244d613d30565b5b04925050506124f9565b670de0b6b3a764000081106124a65784846040517f5173648d00000000000000000000000000000000000000000000000000000000815260040161249d92919061456b565b60405180910390fd5b6000670de0b6b3a764000085870990507faccb18165bd6fe31ae1cf318dc5b51eee0e1ba569b88cd74c1773b91fac106696001620400008060000304018483118403026204000083860304170293505050505b92915050565b600080600c6301e133806125139190613d5f565b8360600151426125239190613c59565b61252d9190613d5f565b9050600061253a84611727565b9050808211612549578161254b565b805b92505050919050565b600033905090565b600082600001828154811061257457612573613fe1565b5b9060005260206000200154905092915050565b60006125e9826040518060400160405280602081526020017f5361666545524332303a206c6f772d6c6576656c2063616c6c206661696c65648152508573ffffffffffffffffffffffffffffffffffffffff166130989092919063ffffffff16565b9050600081511115612649578080602001905181019061260991906145c0565b612648576040517f08c379a000000000000000000000000000000000000000000000000000000000815260040161263f9061465f565b60405180910390fd5b5b505050565b600081600001805490509050919050565b6000612688612675612670846130b0565b611648565b8360200151611f2390919063ffffffff16565b9050919050565b60006fffffffffffffffffffffffffffffffff821160071b82811c925080821791505067ffffffffffffffff821160061b82811c925080821791505063ffffffff821160051b82811c925080821791505061ffff821160041b82811c925080821791505060ff821160031b82811c9250808217915050600f821160021b82811c92508082179150506003821160011b82811c925080821791505060018211808217915050919050565b6000778000000000000000000000000000000000000000000000009050600067ff00000000000000831611156128995760006780000000000000008316111561278e57604068016a09e667f3bcc9098202901c90505b6000674000000000000000831611156127b45760406801306fe0a31b7152df8202901c90505b6000672000000000000000831611156127da5760406801172b83c7d517adce8202901c90505b60006710000000000000008316111561280057604068010b5586cf9890f62a8202901c90505b6000670800000000000000831611156128265760406801059b0d31585743ae8202901c90505b60006704000000000000008316111561284c576040680102c9a3e778060ee78202901c90505b60006702000000000000008316111561287257604068010163da9fb33356d88202901c90505b600067010000000000000083161115612898576040680100b1afa5abcbed618202901c90505b5b600066ff000000000000831611156129d45760006680000000000000831611156128d057604068010058c86da1c09ea28202901c90505b60006640000000000000831611156128f55760406801002c605e2e8cec508202901c90505b600066200000000000008316111561291a576040680100162f3904051fa18202901c90505b600066100000000000008316111561293f5760406801000b175effdc76ba8202901c90505b6000660800000000000083161115612964576040680100058ba01fb9f96d8202901c90505b600066040000000000008316111561298957604068010002c5cc37da94928202901c90505b60006602000000000000831611156129ae5760406801000162e525ee05478202901c90505b60006601000000000000831611156129d357604068010000b17255775c048202901c90505b5b600065ff000000000083161115612b065760006580000000000083161115612a095760406801000058b91b5bc9ae8202901c90505b60006540000000000083161115612a2d576040680100002c5c89d5ec6d8202901c90505b60006520000000000083161115612a5157604068010000162e43f4f8318202901c90505b60006510000000000083161115612a75576040680100000b1721bcfc9a8202901c90505b60006508000000000083161115612a9957604068010000058b90cf1e6e8202901c90505b60006504000000000083161115612abd5760406801000002c5c863b73f8202901c90505b60006502000000000083161115612ae1576040680100000162e430e5a28202901c90505b60006501000000000083161115612b055760406801000000b1721835518202901c90505b5b600064ff0000000083161115612c2f57600064800000000083161115612b39576040680100000058b90c0b498202901c90505b600064400000000083161115612b5c57604068010000002c5c8601cc8202901c90505b600064200000000083161115612b7f5760406801000000162e42fff08202901c90505b600064100000000083161115612ba257604068010000000b17217fbb8202901c90505b600064080000000083161115612bc55760406801000000058b90bfce8202901c90505b600064040000000083161115612be8576040680100000002c5c85fe38202901c90505b600064020000000083161115612c0b57604068010000000162e42ff18202901c90505b600064010000000083161115612c2e576040680100000000b17217f88202901c90505b5b600063ff00000083161115612d4f576000638000000083161115612c6057604068010000000058b90bfc8202901c90505b6000634000000083161115612c825760406801000000002c5c85fe8202901c90505b6000632000000083161115612ca4576040680100000000162e42ff8202901c90505b6000631000000083161115612cc65760406801000000000b17217f8202901c90505b6000630800000083161115612ce8576040680100000000058b90c08202901c90505b6000630400000083161115612d0a57604068010000000002c5c8608202901c90505b6000630200000083161115612d2c5760406801000000000162e4308202901c90505b6000630100000083161115612d4e57604068010000000000b172188202901c90505b5b600062ff000083161115612e665760006280000083161115612d7e5760406801000000000058b90c8202901c90505b60006240000083161115612d9f576040680100000000002c5c868202901c90505b60006220000083161115612dc057604068010000000000162e438202901c90505b60006210000083161115612de1576040680100000000000b17218202901c90505b60006208000083161115612e0257604068010000000000058b918202901c90505b60006204000083161115612e235760406801000000000002c5c88202901c90505b60006202000083161115612e44576040680100000000000162e48202901c90505b60006201000083161115612e655760406801000000000000b1728202901c90505b5b600061ff0083161115612f7457600061800083161115612e93576040680100000000000058b98202901c90505b600061400083161115612eb357604068010000000000002c5d8202901c90505b600061200083161115612ed35760406801000000000000162e8202901c90505b600061100083161115612ef357604068010000000000000b178202901c90505b600061080083161115612f135760406801000000000000058c8202901c90505b600061040083161115612f33576040680100000000000002c68202901c90505b600061020083161115612f53576040680100000000000001638202901c90505b600061010083161115612f73576040680100000000000000b18202901c90505b5b600060ff83161115613079576000608083161115612f9f576040680100000000000000598202901c90505b6000604083161115612fbe5760406801000000000000002c8202901c90505b6000602083161115612fdd576040680100000000000000168202901c90505b6000601083161115612ffc5760406801000000000000000b8202901c90505b600060088316111561301b576040680100000000000000068202901c90505b600060048316111561303a576040680100000000000000038202901c90505b6000600283161115613059576040680100000000000000018202901c90505b6000600183161115613078576040680100000000000000018202901c90505b5b670de0b6b3a764000081029050604082901c60bf0381901c9050919050565b60606130a784846000856130c9565b90509392505050565b60008160c00151426130c29190613c59565b9050919050565b60608247101561310e576040517f08c379a0000000000000000000000000000000000000000000000000000000008152600401613105906146f1565b60405180910390fd5b6000808673ffffffffffffffffffffffffffffffffffffffff16858760405161313791906141c3565b60006040518083038185875af1925050503d8060008114613174576040519150601f19603f3d011682016040523d82523d6000602084013e613179565b606091505b509150915061318a87838387613196565b92505050949350505050565b606083156131f85760008351036131f0576131b085611da4565b6131ef576040517f08c379a00000000000000000000000000000000000000000000000000000000081526004016131e69061475d565b60405180910390fd5b5b829050613203565b613202838361320b565b5b949350505050565b60008251111561321e5781518083602001fd5b806040517f08c379a000000000000000000000000000000000000000000000000000000000815260040161325291906147c1565b60405180910390fd5b6040518060e00160405280600073ffffffffffffffffffffffffffffffffffffffff1681526020016000815260200160008152602001600081526020016000815260200160008152602001600081525090565b6000604051905090565b600080fd5b600080fd5b600080fd5b6000601f19601f8301169050919050565b7f4e487b7100000000000000000000000000000000000000000000000000000000600052604160045260246000fd5b613310826132c7565b810181811067ffffffffffffffff8211171561332f5761332e6132d8565b5b80604052505050565b60006133426132ae565b905061334e8282613307565b919050565b600073ffffffffffffffffffffffffffffffffffffffff82169050919050565b600061337e82613353565b9050919050565b61338e81613373565b811461339957600080fd5b50565b6000813590506133ab81613385565b92915050565b6000819050919050565b6133c4816133b1565b81146133cf57600080fd5b50565b6000813590506133e1816133bb565b92915050565b6000608082840312156133fd576133fc6132c2565b5b6134076080613338565b905060006134178482850161339c565b600083015250602061342b848285016133d2565b602083015250604061343f848285016133d2565b6040830152506060613453848285016133d2565b60608301525092915050565b600060808284031215613475576134746132b8565b5b6000613483848285016133e7565b91505092915050565b60008115159050919050565b6134a18161348c565b82525050565b60006020820190506134bc6000830184613498565b92915050565b60007fffffffff0000000000000000000000000000000000000000000000000000000082169050919050565b6134f7816134c2565b811461350257600080fd5b50565b600081359050613514816134ee565b92915050565b6000602082840312156135305761352f6132b8565b5b600061353e84828501613505565b91505092915050565b61355081613373565b82525050565b600060208201905061356b6000830184613547565b92915050565b61357a816133b1565b811461358557600080fd5b50565b60008135905061359781613571565b92915050565b600060e082840312156135b3576135b26132c2565b5b6135bd60e0613338565b905060006135cd8482850161339c565b60008301525060206135e184828501613588565b60208301525060406135f584828501613588565b6040830152506060613609848285016133d2565b606083015250608061361d848285016133d2565b60808301525060a0613631848285016133d2565b60a08301525060c0613645848285016133d2565b60c08301525092915050565b6000806101008385031215613669576136686132b8565b5b60006136778582860161359d565b92505060e0613688858286016133d2565b9150509250929050565b61369b816133b1565b82525050565b60006020820190506136b66000830184613692565b92915050565b6000602082840312156136d2576136d16132b8565b5b60006136e0848285016133d2565b91505092915050565b6000819050919050565b600061370e613709613704846133b1565b6136e9565b6133b1565b9050919050565b61371e816136f3565b82525050565b60006020820190506137396000830184613715565b92915050565b7f4e487b7100000000000000000000000000000000000000000000000000000000600052602160045260246000fd5b6004811061377f5761377e61373f565b5b50565b60008190506137908261376e565b919050565b60006137a082613782565b9050919050565b6137b081613795565b82525050565b60006020820190506137cb60008301846137a7565b92915050565b600081519050919050565b600082825260208201905092915050565b6000819050602082019050919050565b61380681613373565b82525050565b613815816133b1565b82525050565b60808201600082015161383160008501826137fd565b506020820151613844602085018261380c565b506040820151613857604085018261380c565b50606082015161386a606085018261380c565b50505050565b600061387c838361381b565b60808301905092915050565b6000602082019050919050565b60006138a0826137d1565b6138aa81856137dc565b93506138b5836137ed565b8060005b838110156138e65781516138cd8882613870565b97506138d883613888565b9250506001810190506138b9565b5085935050505092915050565b6000602082019050818103600083015261390d8184613895565b905092915050565b600061392082613373565b9050919050565b61393081613915565b811461393b57600080fd5b50565b60008135905061394d81613927565b92915050565b600061395e82613373565b9050919050565b61396e81613953565b811461397957600080fd5b50565b60008135905061398b81613965565b92915050565b600080604083850312156139a8576139a76132b8565b5b60006139b68582860161393e565b92505060206139c78582860161397c565b9150509250929050565b600080604083850312156139e8576139e76132b8565b5b60006139f6858286016133d2565b9250506020613a07858286016133d2565b9150509250929050565b600060e082019050613a26600083018a613547565b613a336020830189613715565b613a406040830188613715565b613a4d6060830187613692565b613a5a6080830186613692565b613a6760a0830185613692565b613a7460c0830184613692565b98975050505050505050565b613a89816136f3565b82525050565b60e082016000820151613aa560008501826137fd565b506020820151613ab86020850182613a80565b506040820151613acb6040850182613a80565b506060820151613ade606085018261380c565b506080820151613af1608085018261380c565b5060a0820151613b0460a085018261380c565b5060c0820151613b1760c085018261380c565b50505050565b600060e082019050613b326000830184613a8f565b92915050565b600080fd5b600080fd5b600080fd5b60008083601f840112613b5d57613b5c613b38565b5b8235905067ffffffffffffffff811115613b7a57613b79613b3d565b5b602083019150836020820283011115613b9657613b95613b42565b5b9250929050565b600080600060408486031215613bb657613bb56132b8565b5b600084013567ffffffffffffffff811115613bd457613bd36132bd565b5b613be086828701613b47565b93509350506020613bf38682870161339c565b9150509250925092565b600060208284031215613c1357613c126132b8565b5b6000613c218482850161339c565b91505092915050565b7f4e487b7100000000000000000000000000000000000000000000000000000000600052601160045260246000fd5b6000613c64826133b1565b9150613c6f836133b1565b9250828203905081811115613c8757613c86613c2a565b5b92915050565b600082825260208201905092915050565b7f6d6f6e7468206d757374206265203c3d206c6f616e4d61784475726174696f6e60008201527f4d6f6e7468730000000000000000000000000000000000000000000000000000602082015250565b6000613cfa602683613c8d565b9150613d0582613c9e565b604082019050919050565b60006020820190508181036000830152613d2981613ced565b9050919050565b7f4e487b7100000000000000000000000000000000000000000000000000000000600052601260045260246000fd5b6000613d6a826133b1565b9150613d75836133b1565b925082613d8557613d84613d30565b5b828204905092915050565b6000613d9b826133b1565b9150613da6836133b1565b9250828202613db4816133b1565b91508282048414831517613dcb57613dca613c2a565b5b5092915050565b7f496e697469616c697a61626c653a20636f6e747261637420697320616c72656160008201527f647920696e697469616c697a6564000000000000000000000000000000000000602082015250565b6000613e2e602e83613c8d565b9150613e3982613dd2565b604082019050919050565b60006020820190508181036000830152613e5d81613e21565b9050919050565b6000819050919050565b600060ff82169050919050565b6000613e96613e91613e8c84613e64565b6136e9565b613e6e565b9050919050565b613ea681613e7b565b82525050565b6000602082019050613ec16000830184613e9d565b92915050565b600081519050613ed681613385565b92915050565b600060208284031215613ef257613ef16132b8565b5b6000613f0084828501613ec7565b91505092915050565b7f737461747573206e6f74206e6f6e650000000000000000000000000000000000600082015250565b6000613f3f600f83613c8d565b9150613f4a82613f09565b602082019050919050565b60006020820190508181036000830152613f6e81613f32565b9050919050565b7f63616c6c6572206e6f74206e66744f776e657200000000000000000000000000600082015250565b6000613fab601383613c8d565b9150613fb682613f75565b602082019050919050565b60006020820190508181036000830152613fda81613f9e565b9050919050565b7f4e487b7100000000000000000000000000000000000000000000000000000000600052603260045260246000fd5b600061401b826133b1565b9150614026836133b1565b925082820190508082111561403e5761403d613c2a565b5b92915050565b7f70726f706572747956616c756520646f65736e277420636f7665722073616c6560008201527f4665650000000000000000000000000000000000000000000000000000000000602082015250565b60006140a0602383613c8d565b91506140ab82614044565b604082019050919050565b600060208201905081810360008301526140cf81614093565b9050919050565b60006060820190506140eb6000830186613547565b6140f86020830185613547565b6141056040830184613692565b949350505050565b60006080820190506141226000830187613547565b61412f6020830186613692565b61413c6040830185613692565b6141496060830184613692565b95945050505050565b600081519050919050565b600081905092915050565b60005b8381101561418657808201518184015260208101905061416b565b60008484015250505050565b600061419d82614152565b6141a7818561415d565b93506141b7818560208601614168565b80840191505092915050565b60006141cf8284614192565b915081905092915050565b7f73746172744c6f616e2064656c656761746543616c6c206661696c6564000000600082015250565b6000614210601d83613c8d565b915061421b826141da565b602082019050919050565b6000602082019050818103600083015261423f81614203565b9050919050565b6000614251826133b1565b91507fffffffffffffffffffffffffffffffffffffffffffffffffffffffffffffffff820361428357614282613c2a565b5b600182019050919050565b7f4f776e61626c653a206e6577206f776e657220697320746865207a65726f206160008201527f6464726573730000000000000000000000000000000000000000000000000000602082015250565b60006142ea602683613c8d565b91506142f58261428e565b604082019050919050565b60006020820190508181036000830152614319816142dd565b9050919050565b6000819050919050565b600061433582614320565b915061434083614320565b9250826143505761434f613d30565b5b600160000383147f80000000000000000000000000000000000000000000000000000000000000008314161561438957614388613c2a565b5b828205905092915050565b61439d81614320565b82525050565b60006020820190506143b86000830184614394565b92915050565b60006143c982614320565b91506143d483614320565b92508282039050818112600084121682821360008512151617156143fb576143fa613c2a565b5b92915050565b600061441c61441761441284614320565b6136e9565b614320565b9050919050565b61442c81614401565b82525050565b60006040820190506144476000830185614423565b6144546020830184614423565b9392505050565b60006020820190506144706000830184614423565b92915050565b6000614481826133b1565b91506000820361449457614493613c2a565b5b600182039050919050565b7f4f776e61626c653a2063616c6c6572206973206e6f7420746865206f776e6572600082015250565b60006144d5602083613c8d565b91506144e08261449f565b602082019050919050565b60006020820190508181036000830152614504816144c8565b9050919050565b60006040820190506145206000830185613547565b61452d6020830184613692565b9392505050565b60006060820190506145496000830186613692565b6145566020830185613692565b6145636040830184613692565b949350505050565b60006040820190506145806000830185613692565b61458d6020830184613692565b9392505050565b61459d8161348c565b81146145a857600080fd5b50565b6000815190506145ba81614594565b92915050565b6000602082840312156145d6576145d56132b8565b5b60006145e4848285016145ab565b91505092915050565b7f5361666545524332303a204552433230206f7065726174696f6e20646964206e60008201527f6f74207375636365656400000000000000000000000000000000000000000000602082015250565b6000614649602a83613c8d565b9150614654826145ed565b604082019050919050565b600060208201905081810360008301526146788161463c565b9050919050565b7f416464726573733a20696e73756666696369656e742062616c616e636520666f60008201527f722063616c6c0000000000000000000000000000000000000000000000000000602082015250565b60006146db602683613c8d565b91506146e68261467f565b604082019050919050565b6000602082019050818103600083015261470a816146ce565b9050919050565b7f416464726573733a2063616c6c20746f206e6f6e2d636f6e7472616374000000600082015250565b6000614747601d83613c8d565b915061475282614711565b602082019050919050565b600060208201905081810360008301526147768161473a565b9050919050565b600081519050919050565b60006147938261477d565b61479d8185613c8d565b93506147ad818560208601614168565b6147b6816132c7565b840191505092915050565b600060208201905081810360008301526147db8184614788565b90509291505056fea26469706673582212204a4ff70d2da3e74c80f83a959709cc73a4d75da48f73864c13ef7d9f806256de64736f6c63430008130033",
  "linkReferences": {},
  "deployedLinkReferences": {}
}