{
  "_format": "hh-sol-artifact-1",
  "contractName": "AcceptNone",
  "sourceName": "contracts/protocol/auctions/AcceptNone.sol",
  "abi": [
    {
      "inputs": [
        {
          "internalType": "uint256",
          "name": "x",
          "type": "uint256"
        },
        {
          "internalType": "uint256",
          "name": "y",
          "type": "uint256"
        }
      ],
      "name": "PRBMath_MulDiv18_Overflow",
      "type": "error"
    },
    {
      "inputs": [
        {
          "internalType": "uint256",
          "name": "x",
          "type": "uint256"
        },
        {
          "internalType": "uint256",
          "name": "y",
          "type": "uint256"
        },
        {
          "internalType": "uint256",
          "name": "denominator",
          "type": "uint256"
        }
      ],
      "name": "PRBMath_MulDiv_Overflow",
      "type": "error"
    },
    {
      "inputs": [
        {
          "internalType": "int256",
          "name": "x",
          "type": "int256"
        }
      ],
      "name": "PRBMath_SD59x18_Convert_Overflow",
      "type": "error"
    },
    {
      "inputs": [
        {
          "internalType": "int256",
          "name": "x",
          "type": "int256"
        }
      ],
      "name": "PRBMath_SD59x18_Convert_Underflow",
      "type": "error"
    },
    {
      "inputs": [
        {
          "internalType": "SD59x18",
          "name": "x",
          "type": "int256"
        }
      ],
      "name": "PRBMath_SD59x18_Exp2_InputTooBig",
      "type": "error"
    },
    {
      "inputs": [
        {
          "internalType": "SD59x18",
          "name": "x",
          "type": "int256"
        }
      ],
      "name": "PRBMath_SD59x18_IntoUD60x18_Underflow",
      "type": "error"
    },
    {
      "inputs": [
        {
          "internalType": "SD59x18",
          "name": "x",
          "type": "int256"
        }
      ],
      "name": "PRBMath_SD59x18_Log_InputTooSmall",
      "type": "error"
    },
    {
      "inputs": [],
      "name": "PRBMath_SD59x18_Mul_InputTooSmall",
      "type": "error"
    },
    {
      "inputs": [
        {
          "internalType": "SD59x18",
          "name": "x",
          "type": "int256"
        },
        {
          "internalType": "SD59x18",
          "name": "y",
          "type": "int256"
        }
      ],
      "name": "PRBMath_SD59x18_Mul_Overflow",
      "type": "error"
    },
    {
      "inputs": [
        {
          "internalType": "uint256",
          "name": "x",
          "type": "uint256"
        }
      ],
      "name": "PRBMath_UD60x18_Convert_Overflow",
      "type": "error"
    },
    {
      "inputs": [
        {
          "internalType": "UD60x18",
          "name": "x",
          "type": "uint256"
        }
      ],
      "name": "PRBMath_UD60x18_IntoSD59x18_Overflow",
      "type": "error"
    },
    {
      "anonymous": false,
      "inputs": [
        {
          "indexed": false,
          "internalType": "uint8",
          "name": "version",
          "type": "uint8"
        }
      ],
      "name": "Initialized",
      "type": "event"
    },
    {
      "anonymous": false,
      "inputs": [
        {
          "indexed": true,
          "internalType": "address",
          "name": "previousOwner",
          "type": "address"
        },
        {
          "indexed": true,
          "internalType": "address",
          "name": "newOwner",
          "type": "address"
        }
      ],
      "name": "OwnershipTransferred",
      "type": "event"
    },
    {
      "inputs": [
        {
          "internalType": "uint256",
          "name": "",
          "type": "uint256"
        }
      ],
      "name": "_loans",
      "outputs": [
        {
          "internalType": "address",
          "name": "borrower",
          "type": "address"
        },
        {
          "internalType": "UD60x18",
          "name": "ratePerSecond",
          "type": "uint256"
        },
        {
          "internalType": "UD60x18",
          "name": "paymentPerSecond",
          "type": "uint256"
        },
        {
          "internalType": "uint256",
          "name": "startTime",
          "type": "uint256"
        },
        {
          "internalType": "uint256",
          "name": "unpaidPrincipal",
          "type": "uint256"
        },
        {
          "internalType": "uint256",
          "name": "maxDurationSeconds",
          "type": "uint256"
        },
        {
          "internalType": "uint256",
          "name": "lastPaymentTime",
          "type": "uint256"
        }
      ],
      "stateMutability": "view",
      "type": "function"
    },
    {
      "inputs": [
        {
          "internalType": "uint256",
          "name": "tokenId",
          "type": "uint256"
        },
        {
          "internalType": "uint256",
          "name": "bidIdx",
          "type": "uint256"
        }
      ],
      "name": "acceptNoneBid",
      "outputs": [],
      "stateMutability": "nonpayable",
      "type": "function"
    },
    {
      "inputs": [
        {
          "internalType": "uint256",
          "name": "tokenId",
          "type": "uint256"
        }
      ],
      "name": "accruedInterest",
      "outputs": [
        {
          "internalType": "uint256",
          "name": "",
          "type": "uint256"
        }
      ],
      "stateMutability": "view",
      "type": "function"
    },
    {
      "inputs": [],
      "name": "availableLiquidity",
      "outputs": [
        {
          "internalType": "uint256",
          "name": "",
          "type": "uint256"
        }
      ],
      "stateMutability": "view",
      "type": "function"
    },
    {
      "inputs": [
        {
          "components": [
            {
              "internalType": "address",
              "name": "bidder",
              "type": "address"
            },
            {
              "internalType": "uint256",
              "name": "propertyValue",
              "type": "uint256"
            },
            {
              "internalType": "uint256",
              "name": "downPayment",
              "type": "uint256"
            },
            {
              "internalType": "uint256",
              "name": "maxDurationMonths",
              "type": "uint256"
            }
          ],
          "internalType": "struct IState.Bid",
          "name": "bid",
          "type": "tuple"
        }
      ],
      "name": "bidActionable",
      "outputs": [
        {
          "internalType": "bool",
          "name": "",
          "type": "bool"
        }
      ],
      "stateMutability": "view",
      "type": "function"
    },
    {
      "inputs": [
        {
          "internalType": "uint256",
          "name": "tokenId",
          "type": "uint256"
        }
      ],
      "name": "bids",
      "outputs": [
        {
          "components": [
            {
              "internalType": "address",
              "name": "bidder",
              "type": "address"
            },
            {
              "internalType": "uint256",
              "name": "propertyValue",
              "type": "uint256"
            },
            {
              "internalType": "uint256",
              "name": "downPayment",
              "type": "uint256"
            },
            {
              "internalType": "uint256",
              "name": "maxDurationMonths",
              "type": "uint256"
            }
          ],
          "internalType": "struct IState.Bid[]",
          "name": "",
          "type": "tuple[]"
        }
      ],
      "stateMutability": "view",
      "type": "function"
    },
    {
      "inputs": [],
      "name": "defaultFeeSpread",
      "outputs": [
        {
          "internalType": "UD60x18",
          "name": "",
          "type": "uint256"
        }
      ],
      "stateMutability": "view",
      "type": "function"
    },
    {
      "inputs": [
        {
          "internalType": "contract IERC20",
          "name": "_USDC",
          "type": "address"
        },
        {
          "internalType": "contract tUsdc",
          "name": "_tUSDC",
          "type": "address"
        },
        {
          "internalType": "contract TangibleNft",
          "name": "_prosperaNftContract",
          "type": "address"
        }
      ],
      "name": "initialize",
      "outputs": [],
      "stateMutability": "nonpayable",
      "type": "function"
    },
    {
      "inputs": [
        {
          "components": [
            {
              "internalType": "address",
              "name": "bidder",
              "type": "address"
            },
            {
              "internalType": "uint256",
              "name": "propertyValue",
              "type": "uint256"
            },
            {
              "internalType": "uint256",
              "name": "downPayment",
              "type": "uint256"
            },
            {
              "internalType": "uint256",
              "name": "maxDurationMonths",
              "type": "uint256"
            }
          ],
          "internalType": "struct IState.Bid",
          "name": "_bid",
          "type": "tuple"
        }
      ],
      "name": "loanBidActionable",
      "outputs": [
        {
          "internalType": "bool",
          "name": "",
          "type": "bool"
        }
      ],
      "stateMutability": "view",
      "type": "function"
    },
    {
      "inputs": [
        {
          "internalType": "uint256",
          "name": "tokenId",
          "type": "uint256"
        }
      ],
      "name": "loans",
      "outputs": [
        {
          "components": [
            {
              "internalType": "address",
              "name": "borrower",
              "type": "address"
            },
            {
              "internalType": "UD60x18",
              "name": "ratePerSecond",
              "type": "uint256"
            },
            {
              "internalType": "UD60x18",
              "name": "paymentPerSecond",
              "type": "uint256"
            },
            {
              "internalType": "uint256",
              "name": "startTime",
              "type": "uint256"
            },
            {
              "internalType": "uint256",
              "name": "unpaidPrincipal",
              "type": "uint256"
            },
            {
              "internalType": "uint256",
              "name": "maxDurationSeconds",
              "type": "uint256"
            },
            {
              "internalType": "uint256",
              "name": "lastPaymentTime",
              "type": "uint256"
            }
          ],
          "internalType": "struct IState.Loan",
          "name": "",
          "type": "tuple"
        }
      ],
      "stateMutability": "view",
      "type": "function"
    },
    {
      "inputs": [
        {
          "internalType": "uint256",
          "name": "idx",
          "type": "uint256"
        }
      ],
      "name": "loansTokenIdsAt",
      "outputs": [
        {
          "internalType": "uint256",
          "name": "tokenId",
          "type": "uint256"
        }
      ],
      "stateMutability": "view",
      "type": "function"
    },
    {
      "inputs": [],
      "name": "loansTokenIdsLength",
      "outputs": [
        {
          "internalType": "uint256",
          "name": "",
          "type": "uint256"
        }
      ],
      "stateMutability": "view",
      "type": "function"
    },
    {
      "inputs": [
        {
          "internalType": "bytes4",
          "name": "",
          "type": "bytes4"
        }
      ],
      "name": "logicTargets",
      "outputs": [
        {
          "internalType": "address",
          "name": "",
          "type": "address"
        }
      ],
      "stateMutability": "view",
      "type": "function"
    },
    {
      "inputs": [],
      "name": "maxDurationMonthsCap",
      "outputs": [
        {
          "internalType": "uint256",
          "name": "",
          "type": "uint256"
        }
      ],
      "stateMutability": "view",
      "type": "function"
    },
    {
      "inputs": [],
      "name": "maxLtv",
      "outputs": [
        {
          "internalType": "UD60x18",
          "name": "",
          "type": "uint256"
        }
      ],
      "stateMutability": "view",
      "type": "function"
    },
    {
      "inputs": [],
      "name": "monthSeconds",
      "outputs": [
        {
          "internalType": "uint256",
          "name": "",
          "type": "uint256"
        }
      ],
      "stateMutability": "view",
      "type": "function"
    },
    {
      "inputs": [],
      "name": "optimalUtilization",
      "outputs": [
        {
          "internalType": "UD60x18",
          "name": "",
          "type": "uint256"
        }
      ],
      "stateMutability": "view",
      "type": "function"
    },
    {
      "inputs": [],
      "name": "owner",
      "outputs": [
        {
          "internalType": "address",
          "name": "",
          "type": "address"
        }
      ],
      "stateMutability": "view",
      "type": "function"
    },
    {
      "inputs": [
        {
          "components": [
            {
              "internalType": "address",
              "name": "borrower",
              "type": "address"
            },
            {
              "internalType": "UD60x18",
              "name": "ratePerSecond",
              "type": "uint256"
            },
            {
              "internalType": "UD60x18",
              "name": "paymentPerSecond",
              "type": "uint256"
            },
            {
              "internalType": "uint256",
              "name": "startTime",
              "type": "uint256"
            },
            {
              "internalType": "uint256",
              "name": "unpaidPrincipal",
              "type": "uint256"
            },
            {
              "internalType": "uint256",
              "name": "maxDurationSeconds",
              "type": "uint256"
            },
            {
              "internalType": "uint256",
              "name": "lastPaymentTime",
              "type": "uint256"
            }
          ],
          "internalType": "struct IState.Loan",
          "name": "loan",
          "type": "tuple"
        },
        {
          "internalType": "uint256",
          "name": "month",
          "type": "uint256"
        }
      ],
      "name": "principalCap",
      "outputs": [
        {
          "internalType": "uint256",
          "name": "cap",
          "type": "uint256"
        }
      ],
      "stateMutability": "pure",
      "type": "function"
    },
    {
      "inputs": [],
      "name": "redemptionFeeSpread",
      "outputs": [
        {
          "internalType": "UD60x18",
          "name": "",
          "type": "uint256"
        }
      ],
      "stateMutability": "view",
      "type": "function"
    },
    {
      "inputs": [],
      "name": "renounceOwnership",
      "outputs": [],
      "stateMutability": "nonpayable",
      "type": "function"
    },
    {
      "inputs": [
        {
          "internalType": "bytes4[]",
          "name": "selectorsArr",
          "type": "bytes4[]"
        },
        {
          "internalType": "address",
          "name": "target",
          "type": "address"
        }
      ],
      "name": "setSelectorsTarget",
      "outputs": [],
      "stateMutability": "nonpayable",
      "type": "function"
    },
    {
      "inputs": [
        {
          "internalType": "uint256",
          "name": "tokenId",
          "type": "uint256"
        }
      ],
      "name": "status",
      "outputs": [
        {
          "internalType": "enum IState.Status",
          "name": "",
          "type": "uint8"
        }
      ],
      "stateMutability": "view",
      "type": "function"
    },
    {
      "inputs": [
        {
          "internalType": "uint256",
          "name": "tokenId",
          "type": "uint256"
        }
      ],
      "name": "tokenIdBidsLength",
      "outputs": [
        {
          "internalType": "uint256",
          "name": "",
          "type": "uint256"
        }
      ],
      "stateMutability": "view",
      "type": "function"
    },
    {
      "inputs": [],
      "name": "totalDeposits",
      "outputs": [
        {
          "internalType": "uint256",
          "name": "",
          "type": "uint256"
        }
      ],
      "stateMutability": "view",
      "type": "function"
    },
    {
      "inputs": [],
      "name": "totalPrincipal",
      "outputs": [
        {
          "internalType": "uint256",
          "name": "",
          "type": "uint256"
        }
      ],
      "stateMutability": "view",
      "type": "function"
    },
    {
      "inputs": [
        {
          "internalType": "address",
          "name": "newOwner",
          "type": "address"
        }
      ],
      "name": "transferOwnership",
      "outputs": [],
      "stateMutability": "nonpayable",
      "type": "function"
    },
    {
      "inputs": [],
      "name": "yearMonths",
      "outputs": [
        {
          "internalType": "uint256",
          "name": "",
          "type": "uint256"
        }
      ],
      "stateMutability": "view",
      "type": "function"
    },
    {
      "inputs": [],
      "name": "yearSeconds",
      "outputs": [
        {
          "internalType": "uint256",
          "name": "",
          "type": "uint256"
        }
      ],
      "stateMutability": "view",
      "type": "function"
    }
  ],
  "bytecode": "0x60806040526200003b6200001a60646200022960201b60201c565b6200002c605a6200022960201b60201c565b620002ba60201b90919060201c565b600755620000756200005460646200022960201b60201c565b6200006660046200022960201b60201c565b620002ba60201b90919060201c565b600855620000af6200008e60646200022960201b60201c565b620000a060036200022960201b60201c565b620002ba60201b90919060201c565b600955620000c460096200022960201b60201c565b600a55620000fe620000dd60646200022960201b60201c565b620000ef60016200022960201b60201c565b620002ba60201b90919060201c565b600b55620001386200011760646200022960201b60201c565b6200012960026200022960201b60201c565b620002ba60201b90919060201c565b600c55620001726200015160646200022960201b60201c565b6200016360036200022960201b60201c565b620002ba60201b90919060201c565b600d55620001ac6200018b60646200022960201b60201c565b6200019d60046200022960201b60201c565b620002ba60201b90919060201c565b600e55623b5380601455620001ed620001cc60646200022960201b60201c565b620001de60326200022960201b60201c565b620002ba60201b90919060201c565b60155560786016553480156200020257600080fd5b5062000223620002176200030f60201b60201c565b6200031760201b60201c565b620005ed565b6000670de0b6b3a76400007fffffffffffffffffffffffffffffffffffffffffffffffffffffffffffffffff6200026191906200054a565b821115620002a857816040517f1cd951a70000000000000000000000000000000000000000000000000000000081526004016200029f919062000593565b60405180910390fd5b670de0b6b3a764000082029050919050565b600062000307620002fb620002d585620003db60201b60201c565b670de0b6b3a7640000620002ef86620003db60201b60201c565b620003e560201b60201c565b6200050760201b60201c565b905092915050565b600033905090565b60008060009054906101000a900473ffffffffffffffffffffffffffffffffffffffff169050816000806101000a81548173ffffffffffffffffffffffffffffffffffffffff021916908373ffffffffffffffffffffffffffffffffffffffff1602179055508173ffffffffffffffffffffffffffffffffffffffff168173ffffffffffffffffffffffffffffffffffffffff167f8be0079c531659141344cd1fd0a4f28419497f9722a3daafe3b4186f6b6457e060405160405180910390a35050565b6000819050919050565b600080600080198587098587029250828110838203039150506000810362000425578382816200041a57620004196200051b565b5b049250505062000500565b83811062000470578585856040517f63a057780000000000000000000000000000000000000000000000000000000081526004016200046793929190620005b0565b60405180910390fd5b60008486880990508281118203915080830392506000600186190186169050600081870496508185049450600182836000030401905080840285179450600060028860030218905080880260020381029050808802600203810290508088026002038102905080880260020381029050808802600203810290508088026002038102905080860296505050505050505b9392505050565b6000819050919050565b6000819050919050565b7f4e487b7100000000000000000000000000000000000000000000000000000000600052601260045260246000fd5b6000620005578262000511565b9150620005648362000511565b9250826200057757620005766200051b565b5b828204905092915050565b6200058d8162000511565b82525050565b6000602082019050620005aa600083018462000582565b92915050565b6000606082019050620005c7600083018662000582565b620005d6602083018562000582565b620005e5604083018462000582565b949350505050565b6148ab80620005fd6000396000f3fe608060405234801561001057600080fd5b50600436106101cf5760003560e01c80637d88209711610104578063ab01f7e1116100a2578063e1ec3c6811610071578063e1ec3c6814610564578063e343504414610594578063f2fde38b146105b0578063ff9ad6df146105cc576101cf565b8063ab01f7e1146104c4578063bcff3e3b146104e2578063bd5c569b14610512578063c0c53b8b14610548576101cf565b806387ae0dbe116100de57806387ae0dbe1461043a5780638da5cb5b14610458578063a0024c2f14610476578063a54cab1c146104a6576101cf565b80637d882097146103e2578063812cf0181461040057806383bd0c7a1461041e576101cf565b80634423c5f1116101715780636290cd1c1161014b5780636290cd1c1461036c578063715018a61461038a578063743753591461039457806374bdf96a146103b2576101cf565b80634423c5f1146103005780634abb3003146103305780634b1533b21461034e576101cf565b80632da10923116101ad5780632da10923146102645780633a12c6da146102945780633ca36db6146102b257806342d21ef7146102d0576101cf565b80630a9cc0b6146101d457806317548b79146102045780631cc03c8714610234575b600080fd5b6101ee60048036038101906101e991906134a0565b6105ea565b6040516101fb91906134e8565b60405180910390f35b61021e6004803603810190610219919061355b565b61065f565b60405161022b9190613597565b60405180910390f35b61024e60048036038101906102499190613692565b610692565b60405161025b91906136e2565b60405180910390f35b61027e600480360381019061027991906136fd565b6107f4565b60405161028b91906136e2565b60405180910390f35b61029c610814565b6040516102a99190613765565b60405180910390f35b6102ba61081a565b6040516102c79190613765565b60405180910390f35b6102ea60048036038101906102e591906136fd565b610824565b6040516102f791906137f7565b60405180910390f35b61031a600480360381019061031591906136fd565b61096b565b6040516103279190613934565b60405180910390f35b610338610a51565b6040516103459190613765565b60405180910390f35b610356610a5b565b60405161036391906136e2565b60405180910390f35b610374610a61565b6040516103819190613765565b60405180910390f35b610392610a67565b005b61039c610a7b565b6040516103a991906136e2565b60405180910390f35b6103cc60048036038101906103c791906136fd565b610a92565b6040516103d991906136e2565b60405180910390f35b6103ea610aaf565b6040516103f791906136e2565b60405180910390f35b610408610ab5565b60405161041591906136e2565b60405180910390f35b61043860048036038101906104339190613956565b610aba565b005b6104426110bc565b60405161044f91906136e2565b60405180910390f35b6104606110c4565b60405161046d9190613597565b60405180910390f35b610490600480360381019061048b91906134a0565b6110ed565b60405161049d91906134e8565b60405180910390f35b6104ae611111565b6040516104bb91906136e2565b60405180910390f35b6104cc611117565b6040516104d991906136e2565b60405180910390f35b6104fc60048036038101906104f791906136fd565b611128565b60405161050991906136e2565b60405180910390f35b61052c600480360381019061052791906136fd565b6111e9565b60405161053f9796959493929190613996565b60405180910390f35b610562600480360381019061055d9190613abf565b61124b565b005b61057e600480360381019061057991906136fd565b61144d565b60405161058b9190613baf565b60405180910390f35b6105ae60048036038101906105a99190613c2f565b61150c565b005b6105ca60048036038101906105c59190613c8f565b6115f2565b005b6105d4611675565b6040516105e191906136e2565b60405180910390f35b600080826040015183602001516106019190613ceb565b9050600061062c6106158560200151611689565b61061e84611689565b61171590919063ffffffff16565b90506106436015548261174a90919063ffffffff16565b80156106565750610652610a7b565b8211155b92505050919050565b60016020528060005260406000206000915054906101000a900473ffffffffffffffffffffffffffffffffffffffff1681565b600061069d83611768565b8211156106df576040517f08c379a00000000000000000000000000000000000000000000000000000000081526004016106d690613da2565b60405180910390fd5b6000600c6301e133806106f29190613df1565b836106fd9190613e22565b9050600061074361070e6001611791565b61073561071e8860a00151611791565b61072786611791565b61189590919063ffffffff16565b61189590919063ffffffff16565b9050600061079c610784836107766107718a602001516107636001611689565b6118c390919063ffffffff16565b6118f1565b61196590919063ffffffff16565b61078e6001611791565b61189590919063ffffffff16565b905060006107c76107c2836107b48a604001516118f1565b611a2390919063ffffffff16565b611bb3565b90506107e86107e388602001518361171590919063ffffffff16565b611c08565b94505050505092915050565b6000600f6000838152602001908152602001600020805490509050919050565b60155481565b6000600d54905090565b600080601060008481526020019081526020016000206040518060e00160405290816000820160009054906101000a900473ffffffffffffffffffffffffffffffffffffffff1673ffffffffffffffffffffffffffffffffffffffff1673ffffffffffffffffffffffffffffffffffffffff16815260200160018201548152602001600282015481526020016003820154815260200160048201548152602001600582015481526020016006820154815250509050600073ffffffffffffffffffffffffffffffffffffffff16816000015173ffffffffffffffffffffffffffffffffffffffff160361091b576000915050610966565b61092483611c25565b1561096057600061093482611d3a565b4261093f9190613ceb565b9050601454811161095557600292505050610966565b600392505050610966565b60019150505b919050565b6060600f6000838152602001908152602001600020805480602002602001604051908101604052809291908181526020016000905b82821015610a4657838290600052602060002090600402016040518060800160405290816000820160009054906101000a900473ffffffffffffffffffffffffffffffffffffffff1673ffffffffffffffffffffffffffffffffffffffff1673ffffffffffffffffffffffffffffffffffffffff1681526020016001820154815260200160028201548152602001600382015481525050815260200190600101906109a0565b505050509050919050565b6000600e54905090565b60055481565b60075481565b610a6f611de5565b610a796000611e63565b565b6000600554600654610a8d9190613ceb565b905090565b6000610aa8826011611f2790919063ffffffff16565b9050919050565b60065481565b600c81565b6000600460009054906101000a900473ffffffffffffffffffffffffffffffffffffffff1673ffffffffffffffffffffffffffffffffffffffff16636352211e846040518263ffffffff1660e01b8152600401610b1791906136e2565b602060405180830381865afa158015610b34573d6000803e3d6000fd5b505050506040513d601f19601f82011682018060405250810190610b589190613e79565b905060006003811115610b6e57610b6d613780565b5b610b7784610824565b6003811115610b8957610b88613780565b5b14610bc9576040517f08c379a0000000000000000000000000000000000000000000000000000000008152600401610bc090613ef2565b60405180910390fd5b8073ffffffffffffffffffffffffffffffffffffffff163373ffffffffffffffffffffffffffffffffffffffff1614610c37576040517f08c379a0000000000000000000000000000000000000000000000000000000008152600401610c2e90613f5e565b60405180910390fd5b6000600f60008581526020019081526020016000208381548110610c5e57610c5d613f7e565b5b90600052602060002090600402016040518060800160405290816000820160009054906101000a900473ffffffffffffffffffffffffffffffffffffffff1673ffffffffffffffffffffffffffffffffffffffff1673ffffffffffffffffffffffffffffffffffffffff168152602001600182015481526020016002820154815260200160038201548152505090506000610d18610d13600b54610d058560200151611689565b611f4190919063ffffffff16565b611c08565b90508060136000828254610d2c9190613fad565b925050819055508082602001511015610d7a576040517f08c379a0000000000000000000000000000000000000000000000000000000008152600401610d7190614053565b60405180910390fd5b6000818360200151610d8c9190613ceb565b9050610dd9848260028054906101000a900473ffffffffffffffffffffffffffffffffffffffff1673ffffffffffffffffffffffffffffffffffffffff16611f6d9092919063ffffffff16565b8260400151836020015103610e8257600460009054906101000a900473ffffffffffffffffffffffffffffffffffffffff1673ffffffffffffffffffffffffffffffffffffffff166342842e0e858560000151896040518463ffffffff1660e01b8152600401610e4b93929190614073565b600060405180830381600087803b158015610e6557600080fd5b505af1158015610e79573d6000803e3d6000fd5b505050506110b4565b600460009054906101000a900473ffffffffffffffffffffffffffffffffffffffff1673ffffffffffffffffffffffffffffffffffffffff166342842e0e8530896040518463ffffffff1660e01b8152600401610ee193929190614073565b600060405180830381600087803b158015610efb57600080fd5b505af1158015610f0f573d6000803e3d6000fd5b50505050600083604001518460200151610f299190613ceb565b9050600060016000630feee81e60e01b7bffffffffffffffffffffffffffffffffffffffffffffffffffffffff19167bffffffffffffffffffffffffffffffffffffffffffffffffffffffff1916815260200190815260200160002060009054906101000a900473ffffffffffffffffffffffffffffffffffffffff1673ffffffffffffffffffffffffffffffffffffffff16856000015189848860600151604051602401610fdb94939291906140aa565b604051602081830303815290604052630feee81e60e01b6020820180517bffffffffffffffffffffffffffffffffffffffffffffffffffffffff838183161783525050505060405161102d9190614160565b600060405180830381855af49150503d8060008114611068576040519150601f19603f3d011682016040523d82523d6000602084013e61106d565b606091505b50509050806110b1576040517f08c379a00000000000000000000000000000000000000000000000000000000081526004016110a8906141c3565b60405180910390fd5b50505b505050505050565b6301e1338081565b60008060009054906101000a900473ffffffffffffffffffffffffffffffffffffffff16905090565b600081604001518260200151148061110a5750611109826105ea565b5b9050919050565b60165481565b60006111236011611ff3565b905090565b60006111e2601060008481526020019081526020016000206040518060e00160405290816000820160009054906101000a900473ffffffffffffffffffffffffffffffffffffffff1673ffffffffffffffffffffffffffffffffffffffff1673ffffffffffffffffffffffffffffffffffffffff1681526020016001820154815260200160028201548152602001600382015481526020016004820154815260200160058201548152602001600682015481525050612008565b9050919050565b60106020528060005260406000206000915090508060000160009054906101000a900473ffffffffffffffffffffffffffffffffffffffff16908060010154908060020154908060030154908060040154908060050154908060060154905087565b6000600260019054906101000a900460ff1615905080801561127f57506001600260009054906101000a900460ff1660ff16105b806112ae575061128e30612040565b1580156112ad57506001600260009054906101000a900460ff1660ff16145b5b6112ed576040517f08c379a00000000000000000000000000000000000000000000000000000000081526004016112e490614255565b60405180910390fd5b6001600260006101000a81548160ff021916908360ff160217905550801561132b576001600260016101000a81548160ff0219169083151502179055505b836002806101000a81548173ffffffffffffffffffffffffffffffffffffffff021916908373ffffffffffffffffffffffffffffffffffffffff16021790555082600360006101000a81548173ffffffffffffffffffffffffffffffffffffffff021916908373ffffffffffffffffffffffffffffffffffffffff16021790555081600460006101000a81548173ffffffffffffffffffffffffffffffffffffffff021916908373ffffffffffffffffffffffffffffffffffffffff1602179055508015611447576000600260016101000a81548160ff0219169083151502179055507f7f26b83ff96e1f2b6a682f133852f6798a09c465da95921460cefb3847402498600160405161143e91906142bd565b60405180910390a15b50505050565b61145561329c565b601060008381526020019081526020016000206040518060e00160405290816000820160009054906101000a900473ffffffffffffffffffffffffffffffffffffffff1673ffffffffffffffffffffffffffffffffffffffff1673ffffffffffffffffffffffffffffffffffffffff16815260200160018201548152602001600282015481526020016003820154815260200160048201548152602001600582015481526020016006820154815250509050919050565b611514611de5565b60005b838390508110156115ec57816001600086868581811061153a57611539613f7e565b5b905060200201602081019061154f919061355b565b7bffffffffffffffffffffffffffffffffffffffffffffffffffffffff19167bffffffffffffffffffffffffffffffffffffffffffffffffffffffff1916815260200190815260200160002060006101000a81548173ffffffffffffffffffffffffffffffffffffffff021916908373ffffffffffffffffffffffffffffffffffffffff16021790555080806115e4906142d8565b915050611517565b50505050565b6115fa611de5565b600073ffffffffffffffffffffffffffffffffffffffff168173ffffffffffffffffffffffffffffffffffffffff1603611669576040517f08c379a000000000000000000000000000000000000000000000000000000000815260040161166090614392565b60405180910390fd5b61167281611e63565b50565b600c6301e133806116869190613df1565b81565b6000670de0b6b3a76400007fffffffffffffffffffffffffffffffffffffffffffffffffffffffffffffffff6116bf9190613df1565b82111561170357816040517f1cd951a70000000000000000000000000000000000000000000000000000000081526004016116fa91906136e2565b60405180910390fd5b670de0b6b3a764000082029050919050565b600061174261173d61172685612063565b670de0b6b3a764000061173886612063565b61206d565b612187565b905092915050565b600061175582612063565b61175e84612063565b1115905092915050565b60006301e133808260a00151600c6117809190613e22565b61178a9190613df1565b9050919050565b6000670de0b6b3a76400007f80000000000000000000000000000000000000000000000000000000000000006117c791906143bc565b82121561180b57816040517f99474eeb0000000000000000000000000000000000000000000000000000000081526004016118029190614435565b60405180910390fd5b670de0b6b3a76400007f7fffffffffffffffffffffffffffffffffffffffffffffffffffffffffffffff61183f91906143bc565b82131561188357816040517f9d58109100000000000000000000000000000000000000000000000000000000815260040161187a9190614435565b60405180910390fd5b670de0b6b3a764000082029050919050565b60006118bb6118a383612191565b6118ac85612191565b6118b69190614450565b61219b565b905092915050565b60006118e96118d183612063565b6118da85612063565b6118e49190613fad565b612187565b905092915050565b6000808290507f7fffffffffffffffffffffffffffffffffffffffffffffffffffffffffffffff81111561195c57826040517ff46186840000000000000000000000000000000000000000000000000000000081526004016119539190613765565b60405180910390fd5b80915050919050565b60008061197184612191565b9050600061197e84612191565b9050600082036119aa57600081146119975760006119a1565b670de0b6b3a76400005b92505050611a1d565b670de0b6b3a764000082036119cb57670de0b6b3a764000092505050611a1d565b600081036119e557670de0b6b3a764000092505050611a1d565b670de0b6b3a764000081036119fe578492505050611a1d565b611a18611a13611a0d876121a5565b86611a23565b612338565b925050505b92915050565b600080611a2f84612191565b90506000611a3c84612191565b90507f8000000000000000000000000000000000000000000000000000000000000000821480611a8b57507f800000000000000000000000000000000000000000000000000000000000000081145b15611ac2576040517fa6070c2500000000000000000000000000000000000000000000000000000000815260040160405180910390fd5b60008060008412611ad35783611ad8565b836000035b915060008312611ae85782611aed565b826000035b90506000611afb8383612456565b90507f7fffffffffffffffffffffffffffffffffffffffffffffffffffffffffffffff811115611b645787876040517f120b5b43000000000000000000000000000000000000000000000000000000008152600401611b5b9291906144c4565b60405180910390fd5b60007fffffffffffffffffffffffffffffffffffffffffffffffffffffffffffffffff858718139050611ba581611b9e5782600003611ba0565b825b61219b565b965050505050505092915050565b6000808290506000811215611bff57826040517fbba41a15000000000000000000000000000000000000000000000000000000008152600401611bf691906144ed565b60405180910390fd5b80915050919050565b6000670de0b6b3a764000082611c1e9190613df1565b9050919050565b600080601060008481526020019081526020016000206040518060e00160405290816000820160009054906101000a900473ffffffffffffffffffffffffffffffffffffffff1673ffffffffffffffffffffffffffffffffffffffff1673ffffffffffffffffffffffffffffffffffffffff168152602001600182015481526020016002820154815260200160038201548152602001600482015481526020016005820154815260200160068201548152505090506000611ce582612540565b90506000600c6301e133808460a00151611cff9190613df1565b611d099190613e22565b905080821115611d1f5760019350505050611d35565b611d298383610692565b83608001511193505050505b919050565b600080611d4683612540565b905060008190505b6000811115611dde576000611d638583610692565b90506000611d7d86600185611d789190613ceb565b610692565b9050818660800151118015611d96575080866080015111155b15611dc957600c6301e13380611dac9190613df1565b83611db79190613e22565b8660600151611dc69190613fad565b94505b50508080611dd690614508565b915050611d4e565b5050919050565b611ded612595565b73ffffffffffffffffffffffffffffffffffffffff16611e0b6110c4565b73ffffffffffffffffffffffffffffffffffffffff1614611e61576040517f08c379a0000000000000000000000000000000000000000000000000000000008152600401611e589061457d565b60405180910390fd5b565b60008060009054906101000a900473ffffffffffffffffffffffffffffffffffffffff169050816000806101000a81548173ffffffffffffffffffffffffffffffffffffffff021916908373ffffffffffffffffffffffffffffffffffffffff1602179055508173ffffffffffffffffffffffffffffffffffffffff168173ffffffffffffffffffffffffffffffffffffffff167f8be0079c531659141344cd1fd0a4f28419497f9722a3daafe3b4186f6b6457e060405160405180910390a35050565b6000611f36836000018361259d565b60001c905092915050565b6000611f65611f60611f5285612063565b611f5b85612063565b612456565b612187565b905092915050565b611fee8363a9059cbb60e01b8484604051602401611f8c92919061459d565b604051602081830303815290604052907bffffffffffffffffffffffffffffffffffffffffffffffffffffffff19166020820180517bffffffffffffffffffffffffffffffffffffffffffffffffffffffff83818316178352505050506125c8565b505050565b60006120018260000161268f565b9050919050565b6000612039612034612019846126a0565b6120268560800151611689565b611f4190919063ffffffff16565b611c08565b9050919050565b6000808273ffffffffffffffffffffffffffffffffffffffff163b119050919050565b6000819050919050565b60008060008019858709858702925082811083820303915050600081036120a85783828161209e5761209d613dc2565b5b0492505050612180565b8381106120f0578585856040517f63a057780000000000000000000000000000000000000000000000000000000081526004016120e7939291906145c6565b60405180910390fd5b60008486880990508281118203915080830392506000600186190186169050600081870496508185049450600182836000030401905080840285179450600060028860030218905080880260020381029050808802600203810290508088026002038102905080880260020381029050808802600203810290508088026002038102905080860296505050505050505b9392505050565b6000819050919050565b6000819050919050565b6000819050919050565b6000806121b183612191565b9050600081136121f857826040517f059b101b0000000000000000000000000000000000000000000000000000000081526004016121ef91906144ed565b60405180910390fd5b6000670de0b6b3a764000082126122125760019050612258565b7fffffffffffffffffffffffffffffffffffffffffffffffffffffffffffffffff9050816ec097ce7bc90715b34b9f10000000008161225457612253613dc2565b5b0591505b600061227b670de0b6b3a7640000848161227557612274613dc2565b5b056126d0565b90506000670de0b6b3a76400008202905060008285901d9050670de0b6b3a764000081036122ba576122ae84830261219b565b95505050505050612333565b6000671bc16d674ec80000905060006706f05b59d3b2000090505b600081131561231b57670de0b6b3a7640000838402816122f8576122f7613dc2565b5b05925081831261230f578084019350600183901d92505b600181901d90506122d5565b50848302925061232a8361219b565b96505050505050505b919050565b60008061234483612191565b905060008112156123cb577ffffffffffffffffffffffffffffffffffffffffffffffffcc22e87f6eb468eeb811215612381576000915050612451565b6123c46123a061239b6123968460000361219b565b612338565b612191565b6ec097ce7bc90715b34b9f1000000000816123be576123bd613dc2565b5b0561219b565b915061244f565b680a688906bd8affffff81131561241957826040517f0360d02800000000000000000000000000000000000000000000000000000000815260040161241091906144ed565b60405180910390fd5b6000670de0b6b3a7640000604083901b8161243757612436613dc2565b5b05905061244b61244682612779565b61219b565b9250505b505b919050565b600080600080198486098486029250828110838203039150506000810361249957670de0b6b3a7640000828161248f5761248e613dc2565b5b049250505061253a565b670de0b6b3a764000081106124e75784846040517f5173648d0000000000000000000000000000000000000000000000000000000081526004016124de9291906145fd565b60405180910390fd5b6000670de0b6b3a764000085870990507faccb18165bd6fe31ae1cf318dc5b51eee0e1ba569b88cd74c1773b91fac106696001620400008060000304018483118403026204000083860304170293505050505b92915050565b600080600c6301e133806125549190613df1565b8360600151426125649190613ceb565b61256e9190613df1565b9050600061257b84611768565b905080821161258a578161258c565b805b92505050919050565b600033905090565b60008260000182815481106125b5576125b4613f7e565b5b9060005260206000200154905092915050565b600061262a826040518060400160405280602081526020017f5361666545524332303a206c6f772d6c6576656c2063616c6c206661696c65648152508573ffffffffffffffffffffffffffffffffffffffff166130d99092919063ffffffff16565b905060008151111561268a578080602001905181019061264a9190614652565b612689576040517f08c379a0000000000000000000000000000000000000000000000000000000008152600401612680906146f1565b60405180910390fd5b5b505050565b600081600001805490509050919050565b60006126c96126b66126b1846130f1565b611689565b8360200151611f4190919063ffffffff16565b9050919050565b60006fffffffffffffffffffffffffffffffff821160071b82811c925080821791505067ffffffffffffffff821160061b82811c925080821791505063ffffffff821160051b82811c925080821791505061ffff821160041b82811c925080821791505060ff821160031b82811c9250808217915050600f821160021b82811c92508082179150506003821160011b82811c925080821791505060018211808217915050919050565b6000778000000000000000000000000000000000000000000000009050600067ff00000000000000831611156128da576000678000000000000000831611156127cf57604068016a09e667f3bcc9098202901c90505b6000674000000000000000831611156127f55760406801306fe0a31b7152df8202901c90505b60006720000000000000008316111561281b5760406801172b83c7d517adce8202901c90505b60006710000000000000008316111561284157604068010b5586cf9890f62a8202901c90505b6000670800000000000000831611156128675760406801059b0d31585743ae8202901c90505b60006704000000000000008316111561288d576040680102c9a3e778060ee78202901c90505b6000670200000000000000831611156128b357604068010163da9fb33356d88202901c90505b6000670100000000000000831611156128d9576040680100b1afa5abcbed618202901c90505b5b600066ff00000000000083161115612a1557600066800000000000008316111561291157604068010058c86da1c09ea28202901c90505b60006640000000000000831611156129365760406801002c605e2e8cec508202901c90505b600066200000000000008316111561295b576040680100162f3904051fa18202901c90505b60006610000000000000831611156129805760406801000b175effdc76ba8202901c90505b60006608000000000000831611156129a5576040680100058ba01fb9f96d8202901c90505b60006604000000000000831611156129ca57604068010002c5cc37da94928202901c90505b60006602000000000000831611156129ef5760406801000162e525ee05478202901c90505b6000660100000000000083161115612a1457604068010000b17255775c048202901c90505b5b600065ff000000000083161115612b475760006580000000000083161115612a4a5760406801000058b91b5bc9ae8202901c90505b60006540000000000083161115612a6e576040680100002c5c89d5ec6d8202901c90505b60006520000000000083161115612a9257604068010000162e43f4f8318202901c90505b60006510000000000083161115612ab6576040680100000b1721bcfc9a8202901c90505b60006508000000000083161115612ada57604068010000058b90cf1e6e8202901c90505b60006504000000000083161115612afe5760406801000002c5c863b73f8202901c90505b60006502000000000083161115612b22576040680100000162e430e5a28202901c90505b60006501000000000083161115612b465760406801000000b1721835518202901c90505b5b600064ff0000000083161115612c7057600064800000000083161115612b7a576040680100000058b90c0b498202901c90505b600064400000000083161115612b9d57604068010000002c5c8601cc8202901c90505b600064200000000083161115612bc05760406801000000162e42fff08202901c90505b600064100000000083161115612be357604068010000000b17217fbb8202901c90505b600064080000000083161115612c065760406801000000058b90bfce8202901c90505b600064040000000083161115612c29576040680100000002c5c85fe38202901c90505b600064020000000083161115612c4c57604068010000000162e42ff18202901c90505b600064010000000083161115612c6f576040680100000000b17217f88202901c90505b5b600063ff00000083161115612d90576000638000000083161115612ca157604068010000000058b90bfc8202901c90505b6000634000000083161115612cc35760406801000000002c5c85fe8202901c90505b6000632000000083161115612ce5576040680100000000162e42ff8202901c90505b6000631000000083161115612d075760406801000000000b17217f8202901c90505b6000630800000083161115612d29576040680100000000058b90c08202901c90505b6000630400000083161115612d4b57604068010000000002c5c8608202901c90505b6000630200000083161115612d6d5760406801000000000162e4308202901c90505b6000630100000083161115612d8f57604068010000000000b172188202901c90505b5b600062ff000083161115612ea75760006280000083161115612dbf5760406801000000000058b90c8202901c90505b60006240000083161115612de0576040680100000000002c5c868202901c90505b60006220000083161115612e0157604068010000000000162e438202901c90505b60006210000083161115612e22576040680100000000000b17218202901c90505b60006208000083161115612e4357604068010000000000058b918202901c90505b60006204000083161115612e645760406801000000000002c5c88202901c90505b60006202000083161115612e85576040680100000000000162e48202901c90505b60006201000083161115612ea65760406801000000000000b1728202901c90505b5b600061ff0083161115612fb557600061800083161115612ed4576040680100000000000058b98202901c90505b600061400083161115612ef457604068010000000000002c5d8202901c90505b600061200083161115612f145760406801000000000000162e8202901c90505b600061100083161115612f3457604068010000000000000b178202901c90505b600061080083161115612f545760406801000000000000058c8202901c90505b600061040083161115612f74576040680100000000000002c68202901c90505b600061020083161115612f94576040680100000000000001638202901c90505b600061010083161115612fb4576040680100000000000000b18202901c90505b5b600060ff831611156130ba576000608083161115612fe0576040680100000000000000598202901c90505b6000604083161115612fff5760406801000000000000002c8202901c90505b600060208316111561301e576040680100000000000000168202901c90505b600060108316111561303d5760406801000000000000000b8202901c90505b600060088316111561305c576040680100000000000000068202901c90505b600060048316111561307b576040680100000000000000038202901c90505b600060028316111561309a576040680100000000000000018202901c90505b60006001831611156130b9576040680100000000000000018202901c90505b5b670de0b6b3a764000081029050604082901c60bf0381901c9050919050565b60606130e8848460008561310a565b90509392505050565b60008160c00151426131039190613ceb565b9050919050565b60608247101561314f576040517f08c379a000000000000000000000000000000000000000000000000000000000815260040161314690614783565b60405180910390fd5b6000808673ffffffffffffffffffffffffffffffffffffffff1685876040516131789190614160565b60006040518083038185875af1925050503d80600081146131b5576040519150601f19603f3d011682016040523d82523d6000602084013e6131ba565b606091505b50915091506131cb878383876131d7565b92505050949350505050565b60608315613239576000835103613231576131f185612040565b613230576040517f08c379a0000000000000000000000000000000000000000000000000000000008152600401613227906147ef565b60405180910390fd5b5b829050613244565b613243838361324c565b5b949350505050565b60008251111561325f5781518083602001fd5b806040517f08c379a00000000000000000000000000000000000000000000000000000000081526004016132939190614853565b60405180910390fd5b6040518060e00160405280600073ffffffffffffffffffffffffffffffffffffffff1681526020016000815260200160008152602001600081526020016000815260200160008152602001600081525090565b6000604051905090565b600080fd5b600080fd5b600080fd5b6000601f19601f8301169050919050565b7f4e487b7100000000000000000000000000000000000000000000000000000000600052604160045260246000fd5b61335182613308565b810181811067ffffffffffffffff821117156133705761336f613319565b5b80604052505050565b60006133836132ef565b905061338f8282613348565b919050565b600073ffffffffffffffffffffffffffffffffffffffff82169050919050565b60006133bf82613394565b9050919050565b6133cf816133b4565b81146133da57600080fd5b50565b6000813590506133ec816133c6565b92915050565b6000819050919050565b613405816133f2565b811461341057600080fd5b50565b600081359050613422816133fc565b92915050565b60006080828403121561343e5761343d613303565b5b6134486080613379565b90506000613458848285016133dd565b600083015250602061346c84828501613413565b602083015250604061348084828501613413565b604083015250606061349484828501613413565b60608301525092915050565b6000608082840312156134b6576134b56132f9565b5b60006134c484828501613428565b91505092915050565b60008115159050919050565b6134e2816134cd565b82525050565b60006020820190506134fd60008301846134d9565b92915050565b60007fffffffff0000000000000000000000000000000000000000000000000000000082169050919050565b61353881613503565b811461354357600080fd5b50565b6000813590506135558161352f565b92915050565b600060208284031215613571576135706132f9565b5b600061357f84828501613546565b91505092915050565b613591816133b4565b82525050565b60006020820190506135ac6000830184613588565b92915050565b6135bb816133f2565b81146135c657600080fd5b50565b6000813590506135d8816135b2565b92915050565b600060e082840312156135f4576135f3613303565b5b6135fe60e0613379565b9050600061360e848285016133dd565b6000830152506020613622848285016135c9565b6020830152506040613636848285016135c9565b604083015250606061364a84828501613413565b606083015250608061365e84828501613413565b60808301525060a061367284828501613413565b60a08301525060c061368684828501613413565b60c08301525092915050565b60008061010083850312156136aa576136a96132f9565b5b60006136b8858286016135de565b92505060e06136c985828601613413565b9150509250929050565b6136dc816133f2565b82525050565b60006020820190506136f760008301846136d3565b92915050565b600060208284031215613713576137126132f9565b5b600061372184828501613413565b91505092915050565b6000819050919050565b600061374f61374a613745846133f2565b61372a565b6133f2565b9050919050565b61375f81613734565b82525050565b600060208201905061377a6000830184613756565b92915050565b7f4e487b7100000000000000000000000000000000000000000000000000000000600052602160045260246000fd5b600481106137c0576137bf613780565b5b50565b60008190506137d1826137af565b919050565b60006137e1826137c3565b9050919050565b6137f1816137d6565b82525050565b600060208201905061380c60008301846137e8565b92915050565b600081519050919050565b600082825260208201905092915050565b6000819050602082019050919050565b613847816133b4565b82525050565b613856816133f2565b82525050565b608082016000820151613872600085018261383e565b506020820151613885602085018261384d565b506040820151613898604085018261384d565b5060608201516138ab606085018261384d565b50505050565b60006138bd838361385c565b60808301905092915050565b6000602082019050919050565b60006138e182613812565b6138eb818561381d565b93506138f68361382e565b8060005b8381101561392757815161390e88826138b1565b9750613919836138c9565b9250506001810190506138fa565b5085935050505092915050565b6000602082019050818103600083015261394e81846138d6565b905092915050565b6000806040838503121561396d5761396c6132f9565b5b600061397b85828601613413565b925050602061398c85828601613413565b9150509250929050565b600060e0820190506139ab600083018a613588565b6139b86020830189613756565b6139c56040830188613756565b6139d260608301876136d3565b6139df60808301866136d3565b6139ec60a08301856136d3565b6139f960c08301846136d3565b98975050505050505050565b6000613a10826133b4565b9050919050565b613a2081613a05565b8114613a2b57600080fd5b50565b600081359050613a3d81613a17565b92915050565b6000613a4e826133b4565b9050919050565b613a5e81613a43565b8114613a6957600080fd5b50565b600081359050613a7b81613a55565b92915050565b6000613a8c826133b4565b9050919050565b613a9c81613a81565b8114613aa757600080fd5b50565b600081359050613ab981613a93565b92915050565b600080600060608486031215613ad857613ad76132f9565b5b6000613ae686828701613a2e565b9350506020613af786828701613a6c565b9250506040613b0886828701613aaa565b9150509250925092565b613b1b81613734565b82525050565b60e082016000820151613b37600085018261383e565b506020820151613b4a6020850182613b12565b506040820151613b5d6040850182613b12565b506060820151613b70606085018261384d565b506080820151613b83608085018261384d565b5060a0820151613b9660a085018261384d565b5060c0820151613ba960c085018261384d565b50505050565b600060e082019050613bc46000830184613b21565b92915050565b600080fd5b600080fd5b600080fd5b60008083601f840112613bef57613bee613bca565b5b8235905067ffffffffffffffff811115613c0c57613c0b613bcf565b5b602083019150836020820283011115613c2857613c27613bd4565b5b9250929050565b600080600060408486031215613c4857613c476132f9565b5b600084013567ffffffffffffffff811115613c6657613c656132fe565b5b613c7286828701613bd9565b93509350506020613c85868287016133dd565b9150509250925092565b600060208284031215613ca557613ca46132f9565b5b6000613cb3848285016133dd565b91505092915050565b7f4e487b7100000000000000000000000000000000000000000000000000000000600052601160045260246000fd5b6000613cf6826133f2565b9150613d01836133f2565b9250828203905081811115613d1957613d18613cbc565b5b92915050565b600082825260208201905092915050565b7f6d6f6e7468206d757374206265203c3d206c6f616e4d61784475726174696f6e60008201527f4d6f6e7468730000000000000000000000000000000000000000000000000000602082015250565b6000613d8c602683613d1f565b9150613d9782613d30565b604082019050919050565b60006020820190508181036000830152613dbb81613d7f565b9050919050565b7f4e487b7100000000000000000000000000000000000000000000000000000000600052601260045260246000fd5b6000613dfc826133f2565b9150613e07836133f2565b925082613e1757613e16613dc2565b5b828204905092915050565b6000613e2d826133f2565b9150613e38836133f2565b9250828202613e46816133f2565b91508282048414831517613e5d57613e5c613cbc565b5b5092915050565b600081519050613e73816133c6565b92915050565b600060208284031215613e8f57613e8e6132f9565b5b6000613e9d84828501613e64565b91505092915050565b7f737461747573206e6f74206e6f6e650000000000000000000000000000000000600082015250565b6000613edc600f83613d1f565b9150613ee782613ea6565b602082019050919050565b60006020820190508181036000830152613f0b81613ecf565b9050919050565b7f63616c6c6572206e6f74206e66744f776e657200000000000000000000000000600082015250565b6000613f48601383613d1f565b9150613f5382613f12565b602082019050919050565b60006020820190508181036000830152613f7781613f3b565b9050919050565b7f4e487b7100000000000000000000000000000000000000000000000000000000600052603260045260246000fd5b6000613fb8826133f2565b9150613fc3836133f2565b9250828201905080821115613fdb57613fda613cbc565b5b92915050565b7f70726f706572747956616c756520646f65736e277420636f7665722073616c6560008201527f4665650000000000000000000000000000000000000000000000000000000000602082015250565b600061403d602383613d1f565b915061404882613fe1565b604082019050919050565b6000602082019050818103600083015261406c81614030565b9050919050565b60006060820190506140886000830186613588565b6140956020830185613588565b6140a260408301846136d3565b949350505050565b60006080820190506140bf6000830187613588565b6140cc60208301866136d3565b6140d960408301856136d3565b6140e660608301846136d3565b95945050505050565b600081519050919050565b600081905092915050565b60005b83811015614123578082015181840152602081019050614108565b60008484015250505050565b600061413a826140ef565b61414481856140fa565b9350614154818560208601614105565b80840191505092915050565b600061416c828461412f565b915081905092915050565b7f73746172744c6f616e2064656c656761746543616c6c206661696c6564000000600082015250565b60006141ad601d83613d1f565b91506141b882614177565b602082019050919050565b600060208201905081810360008301526141dc816141a0565b9050919050565b7f496e697469616c697a61626c653a20636f6e747261637420697320616c72656160008201527f647920696e697469616c697a6564000000000000000000000000000000000000602082015250565b600061423f602e83613d1f565b915061424a826141e3565b604082019050919050565b6000602082019050818103600083015261426e81614232565b9050919050565b6000819050919050565b600060ff82169050919050565b60006142a76142a261429d84614275565b61372a565b61427f565b9050919050565b6142b78161428c565b82525050565b60006020820190506142d260008301846142ae565b92915050565b60006142e3826133f2565b91507fffffffffffffffffffffffffffffffffffffffffffffffffffffffffffffffff820361431557614314613cbc565b5b600182019050919050565b7f4f776e61626c653a206e6577206f776e657220697320746865207a65726f206160008201527f6464726573730000000000000000000000000000000000000000000000000000602082015250565b600061437c602683613d1f565b915061438782614320565b604082019050919050565b600060208201905081810360008301526143ab8161436f565b9050919050565b6000819050919050565b60006143c7826143b2565b91506143d2836143b2565b9250826143e2576143e1613dc2565b5b600160000383147f80000000000000000000000000000000000000000000000000000000000000008314161561441b5761441a613cbc565b5b828205905092915050565b61442f816143b2565b82525050565b600060208201905061444a6000830184614426565b92915050565b600061445b826143b2565b9150614466836143b2565b925082820390508181126000841216828213600085121516171561448d5761448c613cbc565b5b92915050565b60006144ae6144a96144a4846143b2565b61372a565b6143b2565b9050919050565b6144be81614493565b82525050565b60006040820190506144d960008301856144b5565b6144e660208301846144b5565b9392505050565b600060208201905061450260008301846144b5565b92915050565b6000614513826133f2565b91506000820361452657614525613cbc565b5b600182039050919050565b7f4f776e61626c653a2063616c6c6572206973206e6f7420746865206f776e6572600082015250565b6000614567602083613d1f565b915061457282614531565b602082019050919050565b600060208201905081810360008301526145968161455a565b9050919050565b60006040820190506145b26000830185613588565b6145bf60208301846136d3565b9392505050565b60006060820190506145db60008301866136d3565b6145e860208301856136d3565b6145f560408301846136d3565b949350505050565b600060408201905061461260008301856136d3565b61461f60208301846136d3565b9392505050565b61462f816134cd565b811461463a57600080fd5b50565b60008151905061464c81614626565b92915050565b600060208284031215614668576146676132f9565b5b60006146768482850161463d565b91505092915050565b7f5361666545524332303a204552433230206f7065726174696f6e20646964206e60008201527f6f74207375636365656400000000000000000000000000000000000000000000602082015250565b60006146db602a83613d1f565b91506146e68261467f565b604082019050919050565b6000602082019050818103600083015261470a816146ce565b9050919050565b7f416464726573733a20696e73756666696369656e742062616c616e636520666f60008201527f722063616c6c0000000000000000000000000000000000000000000000000000602082015250565b600061476d602683613d1f565b915061477882614711565b604082019050919050565b6000602082019050818103600083015261479c81614760565b9050919050565b7f416464726573733a2063616c6c20746f206e6f6e2d636f6e7472616374000000600082015250565b60006147d9601d83613d1f565b91506147e4826147a3565b602082019050919050565b60006020820190508181036000830152614808816147cc565b9050919050565b600081519050919050565b60006148258261480f565b61482f8185613d1f565b935061483f818560208601614105565b61484881613308565b840191505092915050565b6000602082019050818103600083015261486d818461481a565b90509291505056fea2646970667358221220f4006d1775eeb4ea827b3a42661e442ed62c2d1fa3d26c9ba39b2eba5da1a90764736f6c63430008130033",
  "linkReferences": {},
  "deployedLinkReferences": {}
}