{
  "_format": "hh-sol-artifact-1",
  "contractName": "AcceptNone",
  "sourceName": "contracts/protocol/auctions/AcceptNone.sol",
  "abi": [
    {
      "inputs": [
        {
          "internalType": "uint256",
          "name": "x",
          "type": "uint256"
        },
        {
          "internalType": "uint256",
          "name": "y",
          "type": "uint256"
        }
      ],
      "name": "PRBMath_MulDiv18_Overflow",
      "type": "error"
    },
    {
      "inputs": [
        {
          "internalType": "uint256",
          "name": "x",
          "type": "uint256"
        },
        {
          "internalType": "uint256",
          "name": "y",
          "type": "uint256"
        },
        {
          "internalType": "uint256",
          "name": "denominator",
          "type": "uint256"
        }
      ],
      "name": "PRBMath_MulDiv_Overflow",
      "type": "error"
    },
    {
      "inputs": [
        {
          "internalType": "int256",
          "name": "x",
          "type": "int256"
        }
      ],
      "name": "PRBMath_SD59x18_Convert_Overflow",
      "type": "error"
    },
    {
      "inputs": [
        {
          "internalType": "int256",
          "name": "x",
          "type": "int256"
        }
      ],
      "name": "PRBMath_SD59x18_Convert_Underflow",
      "type": "error"
    },
    {
      "inputs": [
        {
          "internalType": "SD59x18",
          "name": "x",
          "type": "int256"
        }
      ],
      "name": "PRBMath_SD59x18_Exp2_InputTooBig",
      "type": "error"
    },
    {
      "inputs": [
        {
          "internalType": "SD59x18",
          "name": "x",
          "type": "int256"
        }
      ],
      "name": "PRBMath_SD59x18_IntoUD60x18_Underflow",
      "type": "error"
    },
    {
      "inputs": [
        {
          "internalType": "SD59x18",
          "name": "x",
          "type": "int256"
        }
      ],
      "name": "PRBMath_SD59x18_Log_InputTooSmall",
      "type": "error"
    },
    {
      "inputs": [],
      "name": "PRBMath_SD59x18_Mul_InputTooSmall",
      "type": "error"
    },
    {
      "inputs": [
        {
          "internalType": "SD59x18",
          "name": "x",
          "type": "int256"
        },
        {
          "internalType": "SD59x18",
          "name": "y",
          "type": "int256"
        }
      ],
      "name": "PRBMath_SD59x18_Mul_Overflow",
      "type": "error"
    },
    {
      "inputs": [
        {
          "internalType": "uint256",
          "name": "x",
          "type": "uint256"
        }
      ],
      "name": "PRBMath_UD60x18_Convert_Overflow",
      "type": "error"
    },
    {
      "inputs": [
        {
          "internalType": "UD60x18",
          "name": "x",
          "type": "uint256"
        }
      ],
      "name": "PRBMath_UD60x18_IntoSD59x18_Overflow",
      "type": "error"
    },
    {
      "anonymous": false,
      "inputs": [
        {
          "indexed": false,
          "internalType": "uint8",
          "name": "version",
          "type": "uint8"
        }
      ],
      "name": "Initialized",
      "type": "event"
    },
    {
      "anonymous": false,
      "inputs": [
        {
          "indexed": true,
          "internalType": "address",
          "name": "previousOwner",
          "type": "address"
        },
        {
          "indexed": true,
          "internalType": "address",
          "name": "newOwner",
          "type": "address"
        }
      ],
      "name": "OwnershipTransferred",
      "type": "event"
    },
    {
      "inputs": [
        {
          "internalType": "uint256",
          "name": "",
          "type": "uint256"
        }
      ],
      "name": "_loans",
      "outputs": [
        {
          "internalType": "address",
          "name": "borrower",
          "type": "address"
        },
        {
          "internalType": "UD60x18",
          "name": "ratePerSecond",
          "type": "uint256"
        },
        {
          "internalType": "UD60x18",
          "name": "paymentPerSecond",
          "type": "uint256"
        },
        {
          "internalType": "uint256",
          "name": "startTime",
          "type": "uint256"
        },
        {
          "internalType": "uint256",
          "name": "unpaidPrincipal",
          "type": "uint256"
        },
        {
          "internalType": "uint256",
          "name": "maxDurationSeconds",
          "type": "uint256"
        },
        {
          "internalType": "uint256",
          "name": "lastPaymentTime",
          "type": "uint256"
        }
      ],
      "stateMutability": "view",
      "type": "function"
    },
    {
      "inputs": [
        {
          "internalType": "uint256",
          "name": "tokenId",
          "type": "uint256"
        },
        {
          "internalType": "uint256",
          "name": "bidIdx",
          "type": "uint256"
        }
      ],
      "name": "acceptNoneBid",
      "outputs": [],
      "stateMutability": "nonpayable",
      "type": "function"
    },
    {
      "inputs": [
        {
          "internalType": "uint256",
          "name": "tokenId",
          "type": "uint256"
        }
      ],
      "name": "accruedInterest",
      "outputs": [
        {
          "internalType": "uint256",
          "name": "",
          "type": "uint256"
        }
      ],
      "stateMutability": "view",
      "type": "function"
    },
    {
      "inputs": [],
      "name": "availableLiquidity",
      "outputs": [
        {
          "internalType": "uint256",
          "name": "",
          "type": "uint256"
        }
      ],
      "stateMutability": "view",
      "type": "function"
    },
    {
      "inputs": [
        {
          "components": [
            {
              "internalType": "address",
              "name": "bidder",
              "type": "address"
            },
            {
              "internalType": "uint256",
              "name": "propertyValue",
              "type": "uint256"
            },
            {
              "internalType": "uint256",
              "name": "downPayment",
              "type": "uint256"
            },
            {
              "internalType": "uint256",
              "name": "maxDurationMonths",
              "type": "uint256"
            }
          ],
          "internalType": "struct IState.Bid",
          "name": "bid",
          "type": "tuple"
        }
      ],
      "name": "bidActionable",
      "outputs": [
        {
          "internalType": "bool",
          "name": "",
          "type": "bool"
        }
      ],
      "stateMutability": "view",
      "type": "function"
    },
    {
      "inputs": [
        {
          "internalType": "uint256",
          "name": "tokenId",
          "type": "uint256"
        }
      ],
      "name": "bids",
      "outputs": [
        {
          "components": [
            {
              "internalType": "address",
              "name": "bidder",
              "type": "address"
            },
            {
              "internalType": "uint256",
              "name": "propertyValue",
              "type": "uint256"
            },
            {
              "internalType": "uint256",
              "name": "downPayment",
              "type": "uint256"
            },
            {
              "internalType": "uint256",
              "name": "maxDurationMonths",
              "type": "uint256"
            }
          ],
          "internalType": "struct IState.Bid[]",
          "name": "",
          "type": "tuple[]"
        }
      ],
      "stateMutability": "view",
      "type": "function"
    },
    {
      "inputs": [],
      "name": "defaultFeeSpread",
      "outputs": [
        {
          "internalType": "UD60x18",
          "name": "",
          "type": "uint256"
        }
      ],
      "stateMutability": "view",
      "type": "function"
    },
    {
      "inputs": [
        {
          "internalType": "contract tUsdc",
          "name": "_tUSDC",
          "type": "address"
        },
        {
          "internalType": "contract TangibleNft",
          "name": "_prosperaNftContract",
          "type": "address"
        }
      ],
      "name": "initialize",
      "outputs": [],
      "stateMutability": "nonpayable",
      "type": "function"
    },
    {
      "inputs": [
        {
          "components": [
            {
              "internalType": "address",
              "name": "bidder",
              "type": "address"
            },
            {
              "internalType": "uint256",
              "name": "propertyValue",
              "type": "uint256"
            },
            {
              "internalType": "uint256",
              "name": "downPayment",
              "type": "uint256"
            },
            {
              "internalType": "uint256",
              "name": "maxDurationMonths",
              "type": "uint256"
            }
          ],
          "internalType": "struct IState.Bid",
          "name": "_bid",
          "type": "tuple"
        }
      ],
      "name": "loanBidActionable",
      "outputs": [
        {
          "internalType": "bool",
          "name": "",
          "type": "bool"
        }
      ],
      "stateMutability": "view",
      "type": "function"
    },
    {
      "inputs": [
        {
          "internalType": "uint256",
          "name": "tokenId",
          "type": "uint256"
        }
      ],
      "name": "loans",
      "outputs": [
        {
          "components": [
            {
              "internalType": "address",
              "name": "borrower",
              "type": "address"
            },
            {
              "internalType": "UD60x18",
              "name": "ratePerSecond",
              "type": "uint256"
            },
            {
              "internalType": "UD60x18",
              "name": "paymentPerSecond",
              "type": "uint256"
            },
            {
              "internalType": "uint256",
              "name": "startTime",
              "type": "uint256"
            },
            {
              "internalType": "uint256",
              "name": "unpaidPrincipal",
              "type": "uint256"
            },
            {
              "internalType": "uint256",
              "name": "maxDurationSeconds",
              "type": "uint256"
            },
            {
              "internalType": "uint256",
              "name": "lastPaymentTime",
              "type": "uint256"
            }
          ],
          "internalType": "struct IState.Loan",
          "name": "",
          "type": "tuple"
        }
      ],
      "stateMutability": "view",
      "type": "function"
    },
    {
      "inputs": [
        {
          "internalType": "uint256",
          "name": "idx",
          "type": "uint256"
        }
      ],
      "name": "loansTokenIdsAt",
      "outputs": [
        {
          "internalType": "uint256",
          "name": "tokenId",
          "type": "uint256"
        }
      ],
      "stateMutability": "view",
      "type": "function"
    },
    {
      "inputs": [],
      "name": "loansTokenIdsLength",
      "outputs": [
        {
          "internalType": "uint256",
          "name": "",
          "type": "uint256"
        }
      ],
      "stateMutability": "view",
      "type": "function"
    },
    {
      "inputs": [
        {
          "internalType": "bytes4",
          "name": "",
          "type": "bytes4"
        }
      ],
      "name": "logicTargets",
      "outputs": [
        {
          "internalType": "address",
          "name": "",
          "type": "address"
        }
      ],
      "stateMutability": "view",
      "type": "function"
    },
    {
      "inputs": [],
      "name": "maxDurationMonthsCap",
      "outputs": [
        {
          "internalType": "uint256",
          "name": "",
          "type": "uint256"
        }
      ],
      "stateMutability": "view",
      "type": "function"
    },
    {
      "inputs": [],
      "name": "maxLtv",
      "outputs": [
        {
          "internalType": "UD60x18",
          "name": "",
          "type": "uint256"
        }
      ],
      "stateMutability": "view",
      "type": "function"
    },
    {
      "inputs": [],
      "name": "monthSeconds",
      "outputs": [
        {
          "internalType": "uint256",
          "name": "",
          "type": "uint256"
        }
      ],
      "stateMutability": "view",
      "type": "function"
    },
    {
      "inputs": [],
      "name": "optimalUtilization",
      "outputs": [
        {
          "internalType": "UD60x18",
          "name": "",
          "type": "uint256"
        }
      ],
      "stateMutability": "view",
      "type": "function"
    },
    {
      "inputs": [],
      "name": "owner",
      "outputs": [
        {
          "internalType": "address",
          "name": "",
          "type": "address"
        }
      ],
      "stateMutability": "view",
      "type": "function"
    },
    {
      "inputs": [
        {
          "components": [
            {
              "internalType": "address",
              "name": "borrower",
              "type": "address"
            },
            {
              "internalType": "UD60x18",
              "name": "ratePerSecond",
              "type": "uint256"
            },
            {
              "internalType": "UD60x18",
              "name": "paymentPerSecond",
              "type": "uint256"
            },
            {
              "internalType": "uint256",
              "name": "startTime",
              "type": "uint256"
            },
            {
              "internalType": "uint256",
              "name": "unpaidPrincipal",
              "type": "uint256"
            },
            {
              "internalType": "uint256",
              "name": "maxDurationSeconds",
              "type": "uint256"
            },
            {
              "internalType": "uint256",
              "name": "lastPaymentTime",
              "type": "uint256"
            }
          ],
          "internalType": "struct IState.Loan",
          "name": "loan",
          "type": "tuple"
        },
        {
          "internalType": "uint256",
          "name": "month",
          "type": "uint256"
        }
      ],
      "name": "principalCap",
      "outputs": [
        {
          "internalType": "uint256",
          "name": "cap",
          "type": "uint256"
        }
      ],
      "stateMutability": "pure",
      "type": "function"
    },
    {
      "inputs": [],
      "name": "redemptionFeeSpread",
      "outputs": [
        {
          "internalType": "UD60x18",
          "name": "",
          "type": "uint256"
        }
      ],
      "stateMutability": "view",
      "type": "function"
    },
    {
      "inputs": [],
      "name": "renounceOwnership",
      "outputs": [],
      "stateMutability": "nonpayable",
      "type": "function"
    },
    {
      "inputs": [
        {
          "internalType": "bytes4[]",
          "name": "selectorsArr",
          "type": "bytes4[]"
        },
        {
          "internalType": "address",
          "name": "target",
          "type": "address"
        }
      ],
      "name": "setSelectorsTarget",
      "outputs": [],
      "stateMutability": "nonpayable",
      "type": "function"
    },
    {
      "inputs": [
        {
          "internalType": "uint256",
          "name": "tokenId",
          "type": "uint256"
        }
      ],
      "name": "status",
      "outputs": [
        {
          "internalType": "enum IState.Status",
          "name": "",
          "type": "uint8"
        }
      ],
      "stateMutability": "view",
      "type": "function"
    },
    {
      "inputs": [
        {
          "internalType": "uint256",
          "name": "tokenId",
          "type": "uint256"
        }
      ],
      "name": "tokenIdBidsLength",
      "outputs": [
        {
          "internalType": "uint256",
          "name": "",
          "type": "uint256"
        }
      ],
      "stateMutability": "view",
      "type": "function"
    },
    {
      "inputs": [],
      "name": "totalDeposits",
      "outputs": [
        {
          "internalType": "uint256",
          "name": "",
          "type": "uint256"
        }
      ],
      "stateMutability": "view",
      "type": "function"
    },
    {
      "inputs": [],
      "name": "totalPrincipal",
      "outputs": [
        {
          "internalType": "uint256",
          "name": "",
          "type": "uint256"
        }
      ],
      "stateMutability": "view",
      "type": "function"
    },
    {
      "inputs": [
        {
          "internalType": "address",
          "name": "newOwner",
          "type": "address"
        }
      ],
      "name": "transferOwnership",
      "outputs": [],
      "stateMutability": "nonpayable",
      "type": "function"
    },
    {
      "inputs": [],
      "name": "yearMonths",
      "outputs": [
        {
          "internalType": "uint256",
          "name": "",
          "type": "uint256"
        }
      ],
      "stateMutability": "view",
      "type": "function"
    },
    {
      "inputs": [],
      "name": "yearSeconds",
      "outputs": [
        {
          "internalType": "uint256",
          "name": "",
          "type": "uint256"
        }
      ],
      "stateMutability": "view",
      "type": "function"
    }
  ],
  "bytecode": "0x608060405273a0b86991c6218b36c1d19d4a2e9eb0ce3606eb486002806101000a81548173ffffffffffffffffffffffffffffffffffffffff021916908373ffffffffffffffffffffffffffffffffffffffff1602179055506200008f6200006e60646200027d60201b60201c565b62000080605a6200027d60201b60201c565b6200030e60201b90919060201c565b600755620000c9620000a860646200027d60201b60201c565b620000ba60046200027d60201b60201c565b6200030e60201b90919060201c565b60085562000103620000e260646200027d60201b60201c565b620000f460036200027d60201b60201c565b6200030e60201b90919060201c565b6009556200011860096200027d60201b60201c565b600a55620001526200013160646200027d60201b60201c565b6200014360016200027d60201b60201c565b6200030e60201b90919060201c565b600b556200018c6200016b60646200027d60201b60201c565b6200017d60026200027d60201b60201c565b6200030e60201b90919060201c565b600c55620001c6620001a560646200027d60201b60201c565b620001b760036200027d60201b60201c565b6200030e60201b90919060201c565b600d5562000200620001df60646200027d60201b60201c565b620001f160046200027d60201b60201c565b6200030e60201b90919060201c565b600e55623b5380601455620002416200022060646200027d60201b60201c565b6200023260326200027d60201b60201c565b6200030e60201b90919060201c565b60155560786016553480156200025657600080fd5b50620002776200026b6200036360201b60201c565b6200036b60201b60201c565b62000641565b6000670de0b6b3a76400007fffffffffffffffffffffffffffffffffffffffffffffffffffffffffffffffff620002b591906200059e565b821115620002fc57816040517f1cd951a7000000000000000000000000000000000000000000000000000000008152600401620002f39190620005e7565b60405180910390fd5b670de0b6b3a764000082029050919050565b60006200035b6200034f62000329856200042f60201b60201c565b670de0b6b3a764000062000343866200042f60201b60201c565b6200043960201b60201c565b6200055b60201b60201c565b905092915050565b600033905090565b60008060009054906101000a900473ffffffffffffffffffffffffffffffffffffffff169050816000806101000a81548173ffffffffffffffffffffffffffffffffffffffff021916908373ffffffffffffffffffffffffffffffffffffffff1602179055508173ffffffffffffffffffffffffffffffffffffffff168173ffffffffffffffffffffffffffffffffffffffff167f8be0079c531659141344cd1fd0a4f28419497f9722a3daafe3b4186f6b6457e060405160405180910390a35050565b6000819050919050565b600080600080198587098587029250828110838203039150506000810362000479578382816200046e576200046d6200056f565b5b049250505062000554565b838110620004c4578585856040517f63a05778000000000000000000000000000000000000000000000000000000008152600401620004bb9392919062000604565b60405180910390fd5b60008486880990508281118203915080830392506000600186190186169050600081870496508185049450600182836000030401905080840285179450600060028860030218905080880260020381029050808802600203810290508088026002038102905080880260020381029050808802600203810290508088026002038102905080860296505050505050505b9392505050565b6000819050919050565b6000819050919050565b7f4e487b7100000000000000000000000000000000000000000000000000000000600052601260045260246000fd5b6000620005ab8262000565565b9150620005b88362000565565b925082620005cb57620005ca6200056f565b5b828204905092915050565b620005e18162000565565b82525050565b6000602082019050620005fe6000830184620005d6565b92915050565b60006060820190506200061b6000830186620005d6565b6200062a6020830185620005d6565b620006396040830184620005d6565b949350505050565b614c4980620006516000396000f3fe608060405234801561001057600080fd5b50600436106101cf5760003560e01c806374bdf96a11610104578063a54cab1c116100a2578063e1ec3c6811610071578063e1ec3c6814610564578063e343504414610594578063f2fde38b146105b0578063ff9ad6df146105cc576101cf565b8063a54cab1c146104c2578063ab01f7e1146104e0578063bcff3e3b146104fe578063bd5c569b1461052e576101cf565b806383bd0c7a116100de57806383bd0c7a1461043a57806387ae0dbe146104565780638da5cb5b14610474578063a0024c2f14610492576101cf565b806374bdf96a146103ce5780637d882097146103fe578063812cf0181461041c576101cf565b80634423c5f1116101715780634b1533b21161014b5780634b1533b21461036a5780636290cd1c14610388578063715018a6146103a657806374375359146103b0576101cf565b80634423c5f114610300578063485cc955146103305780634abb30031461034c576101cf565b80632da10923116101ad5780632da10923146102645780633a12c6da146102945780633ca36db6146102b257806342d21ef7146102d0576101cf565b80630a9cc0b6146101d457806317548b79146102045780631cc03c8714610234575b600080fd5b6101ee60048036038101906101e9919061382f565b6105ea565b6040516101fb9190613877565b60405180910390f35b61021e600480360381019061021991906138ea565b61065f565b60405161022b9190613926565b60405180910390f35b61024e60048036038101906102499190613a21565b610692565b60405161025b9190613a71565b60405180910390f35b61027e60048036038101906102799190613a8c565b6107f4565b60405161028b9190613a71565b60405180910390f35b61029c610814565b6040516102a99190613af4565b60405180910390f35b6102ba61081a565b6040516102c79190613af4565b60405180910390f35b6102ea60048036038101906102e59190613a8c565b610824565b6040516102f79190613b86565b60405180910390f35b61031a60048036038101906103159190613a8c565b61096b565b6040516103279190613cc3565b60405180910390f35b61034a60048036038101906103459190613d61565b610a51565b005b610354610c12565b6040516103619190613af4565b60405180910390f35b610372610c1c565b60405161037f9190613a71565b60405180910390f35b610390610c22565b60405161039d9190613af4565b60405180910390f35b6103ae610c28565b005b6103b8610c3c565b6040516103c59190613a71565b60405180910390f35b6103e860048036038101906103e39190613a8c565b610c53565b6040516103f59190613a71565b60405180910390f35b610406610c70565b6040516104139190613a71565b60405180910390f35b610424610c76565b6040516104319190613a71565b60405180910390f35b610454600480360381019061044f9190613da1565b610c7b565b005b61045e611453565b60405161046b9190613a71565b60405180910390f35b61047c61145b565b6040516104899190613926565b60405180910390f35b6104ac60048036038101906104a7919061382f565b611484565b6040516104b99190613877565b60405180910390f35b6104ca6114a8565b6040516104d79190613a71565b60405180910390f35b6104e86114ae565b6040516104f59190613a71565b60405180910390f35b61051860048036038101906105139190613a8c565b6114bf565b6040516105259190613a71565b60405180910390f35b61054860048036038101906105439190613a8c565b611580565b60405161055b9796959493929190613de1565b60405180910390f35b61057e60048036038101906105799190613a8c565b6115e2565b60405161058b9190613eed565b60405180910390f35b6105ae60048036038101906105a99190613f6d565b6116a1565b005b6105ca60048036038101906105c59190613fcd565b611787565b005b6105d461180a565b6040516105e19190613a71565b60405180910390f35b600080826040015183602001516106019190614029565b9050600061062c610615856020015161181e565b61061e8461181e565b6118aa90919063ffffffff16565b9050610643601554826118df90919063ffffffff16565b80156106565750610652610c3c565b8211155b92505050919050565b60016020528060005260406000206000915054906101000a900473ffffffffffffffffffffffffffffffffffffffff1681565b600061069d836118fd565b8211156106df576040517f08c379a00000000000000000000000000000000000000000000000000000000081526004016106d6906140e0565b60405180910390fd5b6000600c6301e133806106f2919061412f565b836106fd9190614160565b9050600061074361070e6001611926565b61073561071e8860a00151611926565b61072786611926565b611a2a90919063ffffffff16565b611a2a90919063ffffffff16565b9050600061079c610784836107766107718a60200151610763600161181e565b611a5890919063ffffffff16565b611a86565b611afa90919063ffffffff16565b61078e6001611926565b611a2a90919063ffffffff16565b905060006107c76107c2836107b48a60400151611a86565b611bb890919063ffffffff16565b611d48565b90506107e86107e38860200151836118aa90919063ffffffff16565b611d9d565b94505050505092915050565b6000600f6000838152602001908152602001600020805490509050919050565b60155481565b6000600d54905090565b600080601060008481526020019081526020016000206040518060e00160405290816000820160009054906101000a900473ffffffffffffffffffffffffffffffffffffffff1673ffffffffffffffffffffffffffffffffffffffff1673ffffffffffffffffffffffffffffffffffffffff16815260200160018201548152602001600282015481526020016003820154815260200160048201548152602001600582015481526020016006820154815250509050600073ffffffffffffffffffffffffffffffffffffffff16816000015173ffffffffffffffffffffffffffffffffffffffff160361091b576000915050610966565b61092483611dba565b1561096057600061093482611ecf565b4261093f9190614029565b9050601454811161095557600292505050610966565b600392505050610966565b60019150505b919050565b6060600f6000838152602001908152602001600020805480602002602001604051908101604052809291908181526020016000905b82821015610a4657838290600052602060002090600402016040518060800160405290816000820160009054906101000a900473ffffffffffffffffffffffffffffffffffffffff1673ffffffffffffffffffffffffffffffffffffffff1673ffffffffffffffffffffffffffffffffffffffff1681526020016001820154815260200160028201548152602001600382015481525050815260200190600101906109a0565b505050509050919050565b6000600260019054906101000a900460ff16159050808015610a8557506001600260009054906101000a900460ff1660ff16105b80610ab45750610a9430611f7a565b158015610ab357506001600260009054906101000a900460ff1660ff16145b5b610af3576040517f08c379a0000000000000000000000000000000000000000000000000000000008152600401610aea90614214565b60405180910390fd5b6001600260006101000a81548160ff021916908360ff1602179055508015610b31576001600260016101000a81548160ff0219169083151502179055505b82600360006101000a81548173ffffffffffffffffffffffffffffffffffffffff021916908373ffffffffffffffffffffffffffffffffffffffff16021790555081600460006101000a81548173ffffffffffffffffffffffffffffffffffffffff021916908373ffffffffffffffffffffffffffffffffffffffff1602179055508015610c0d576000600260016101000a81548160ff0219169083151502179055507f7f26b83ff96e1f2b6a682f133852f6798a09c465da95921460cefb38474024986001604051610c04919061427c565b60405180910390a15b505050565b6000600e54905090565b60055481565b60075481565b610c30611f9d565b610c3a600061201b565b565b6000600554600654610c4e9190614029565b905090565b6000610c698260116120df90919063ffffffff16565b9050919050565b60065481565b600c81565b610cb96040518060400160405280600481526020017f616e6230000000000000000000000000000000000000000000000000000000008152506120f9565b610cf86040518060400160405280600881526020017f746f6b656e49643a00000000000000000000000000000000000000000000000081525083612192565b610d596040518060400160405280601d81526020017f616464726573732870726f73706572614e6674436f6e7472616374293a000000815250600460009054906101000a900473ffffffffffffffffffffffffffffffffffffffff1661222e565b6000600460009054906101000a900473ffffffffffffffffffffffffffffffffffffffff1673ffffffffffffffffffffffffffffffffffffffff16636352211e846040518263ffffffff1660e01b8152600401610db69190613a71565b602060405180830381865afa158015610dd3573d6000803e3d6000fd5b505050506040513d601f19601f82011682018060405250810190610df791906142ac565b9050610e376040518060400160405280600481526020017f616e6231000000000000000000000000000000000000000000000000000000008152506120f9565b60006003811115610e4b57610e4a613b0f565b5b610e5484610824565b6003811115610e6657610e65613b0f565b5b14610ea6576040517f08c379a0000000000000000000000000000000000000000000000000000000008152600401610e9d90614325565b60405180910390fd5b8073ffffffffffffffffffffffffffffffffffffffff163373ffffffffffffffffffffffffffffffffffffffff1614610f14576040517f08c379a0000000000000000000000000000000000000000000000000000000008152600401610f0b90614391565b60405180910390fd5b610f526040518060400160405280600481526020017f616e6232000000000000000000000000000000000000000000000000000000008152506120f9565b6000600f60008581526020019081526020016000208381548110610f7957610f786143b1565b5b90600052602060002090600402016040518060800160405290816000820160009054906101000a900473ffffffffffffffffffffffffffffffffffffffff1673ffffffffffffffffffffffffffffffffffffffff1673ffffffffffffffffffffffffffffffffffffffff168152602001600182015481526020016002820154815260200160038201548152505090506110466040518060400160405280600481526020017f616e6233000000000000000000000000000000000000000000000000000000008152506120f9565b600061107161106c600b5461105e856020015161181e565b6122ca90919063ffffffff16565b611d9d565b90506110b16040518060400160405280600481526020017f616e6234000000000000000000000000000000000000000000000000000000008152506120f9565b80601360008282546110c391906143e0565b925050819055508082602001511015611111576040517f08c379a000000000000000000000000000000000000000000000000000000000815260040161110890614486565b60405180910390fd5b60008183602001516111239190614029565b9050611170848260028054906101000a900473ffffffffffffffffffffffffffffffffffffffff1673ffffffffffffffffffffffffffffffffffffffff166122f69092919063ffffffff16565b826040015183602001510361121957600460009054906101000a900473ffffffffffffffffffffffffffffffffffffffff1673ffffffffffffffffffffffffffffffffffffffff166342842e0e858560000151896040518463ffffffff1660e01b81526004016111e2939291906144a6565b600060405180830381600087803b1580156111fc57600080fd5b505af1158015611210573d6000803e3d6000fd5b5050505061144b565b600460009054906101000a900473ffffffffffffffffffffffffffffffffffffffff1673ffffffffffffffffffffffffffffffffffffffff166342842e0e8530896040518463ffffffff1660e01b8152600401611278939291906144a6565b600060405180830381600087803b15801561129257600080fd5b505af11580156112a6573d6000803e3d6000fd5b505050506000836040015184602001516112c09190614029565b9050600060016000630feee81e60e01b7bffffffffffffffffffffffffffffffffffffffffffffffffffffffff19167bffffffffffffffffffffffffffffffffffffffffffffffffffffffff1916815260200190815260200160002060009054906101000a900473ffffffffffffffffffffffffffffffffffffffff1673ffffffffffffffffffffffffffffffffffffffff1685600001518984886060015160405160240161137294939291906144dd565b604051602081830303815290604052630feee81e60e01b6020820180517bffffffffffffffffffffffffffffffffffffffffffffffffffffffff83818316178352505050506040516113c49190614593565b600060405180830381855af49150503d80600081146113ff576040519150601f19603f3d011682016040523d82523d6000602084013e611404565b606091505b5050905080611448576040517f08c379a000000000000000000000000000000000000000000000000000000000815260040161143f906145f6565b60405180910390fd5b50505b505050505050565b6301e1338081565b60008060009054906101000a900473ffffffffffffffffffffffffffffffffffffffff16905090565b60008160400151826020015114806114a157506114a0826105ea565b5b9050919050565b60165481565b60006114ba601161237c565b905090565b6000611579601060008481526020019081526020016000206040518060e00160405290816000820160009054906101000a900473ffffffffffffffffffffffffffffffffffffffff1673ffffffffffffffffffffffffffffffffffffffff1673ffffffffffffffffffffffffffffffffffffffff1681526020016001820154815260200160028201548152602001600382015481526020016004820154815260200160058201548152602001600682015481525050612391565b9050919050565b60106020528060005260406000206000915090508060000160009054906101000a900473ffffffffffffffffffffffffffffffffffffffff16908060010154908060020154908060030154908060040154908060050154908060060154905087565b6115ea61362b565b601060008381526020019081526020016000206040518060e00160405290816000820160009054906101000a900473ffffffffffffffffffffffffffffffffffffffff1673ffffffffffffffffffffffffffffffffffffffff1673ffffffffffffffffffffffffffffffffffffffff16815260200160018201548152602001600282015481526020016003820154815260200160048201548152602001600582015481526020016006820154815250509050919050565b6116a9611f9d565b60005b838390508110156117815781600160008686858181106116cf576116ce6143b1565b5b90506020020160208101906116e491906138ea565b7bffffffffffffffffffffffffffffffffffffffffffffffffffffffff19167bffffffffffffffffffffffffffffffffffffffffffffffffffffffff1916815260200190815260200160002060006101000a81548173ffffffffffffffffffffffffffffffffffffffff021916908373ffffffffffffffffffffffffffffffffffffffff160217905550808061177990614616565b9150506116ac565b50505050565b61178f611f9d565b600073ffffffffffffffffffffffffffffffffffffffff168173ffffffffffffffffffffffffffffffffffffffff16036117fe576040517f08c379a00000000000000000000000000000000000000000000000000000000081526004016117f5906146d0565b60405180910390fd5b6118078161201b565b50565b600c6301e1338061181b919061412f565b81565b6000670de0b6b3a76400007fffffffffffffffffffffffffffffffffffffffffffffffffffffffffffffffff611854919061412f565b82111561189857816040517f1cd951a700000000000000000000000000000000000000000000000000000000815260040161188f9190613a71565b60405180910390fd5b670de0b6b3a764000082029050919050565b60006118d76118d26118bb856123c9565b670de0b6b3a76400006118cd866123c9565b6123d3565b6124ed565b905092915050565b60006118ea826123c9565b6118f3846123c9565b1115905092915050565b60006301e133808260a00151600c6119159190614160565b61191f919061412f565b9050919050565b6000670de0b6b3a76400007f800000000000000000000000000000000000000000000000000000000000000061195c91906146fa565b8212156119a057816040517f99474eeb0000000000000000000000000000000000000000000000000000000081526004016119979190614773565b60405180910390fd5b670de0b6b3a76400007f7fffffffffffffffffffffffffffffffffffffffffffffffffffffffffffffff6119d491906146fa565b821315611a1857816040517f9d581091000000000000000000000000000000000000000000000000000000008152600401611a0f9190614773565b60405180910390fd5b670de0b6b3a764000082029050919050565b6000611a50611a38836124f7565b611a41856124f7565b611a4b919061478e565b612501565b905092915050565b6000611a7e611a66836123c9565b611a6f856123c9565b611a7991906143e0565b6124ed565b905092915050565b6000808290507f7fffffffffffffffffffffffffffffffffffffffffffffffffffffffffffffff811115611af157826040517ff4618684000000000000000000000000000000000000000000000000000000008152600401611ae89190613af4565b60405180910390fd5b80915050919050565b600080611b06846124f7565b90506000611b13846124f7565b905060008203611b3f5760008114611b2c576000611b36565b670de0b6b3a76400005b92505050611bb2565b670de0b6b3a76400008203611b6057670de0b6b3a764000092505050611bb2565b60008103611b7a57670de0b6b3a764000092505050611bb2565b670de0b6b3a76400008103611b93578492505050611bb2565b611bad611ba8611ba28761250b565b86611bb8565b61269e565b925050505b92915050565b600080611bc4846124f7565b90506000611bd1846124f7565b90507f8000000000000000000000000000000000000000000000000000000000000000821480611c2057507f800000000000000000000000000000000000000000000000000000000000000081145b15611c57576040517fa6070c2500000000000000000000000000000000000000000000000000000000815260040160405180910390fd5b60008060008412611c685783611c6d565b836000035b915060008312611c7d5782611c82565b826000035b90506000611c9083836127bc565b90507f7fffffffffffffffffffffffffffffffffffffffffffffffffffffffffffffff811115611cf95787876040517f120b5b43000000000000000000000000000000000000000000000000000000008152600401611cf0929190614802565b60405180910390fd5b60007fffffffffffffffffffffffffffffffffffffffffffffffffffffffffffffffff858718139050611d3a81611d335782600003611d35565b825b612501565b965050505050505092915050565b6000808290506000811215611d9457826040517fbba41a15000000000000000000000000000000000000000000000000000000008152600401611d8b919061482b565b60405180910390fd5b80915050919050565b6000670de0b6b3a764000082611db3919061412f565b9050919050565b600080601060008481526020019081526020016000206040518060e00160405290816000820160009054906101000a900473ffffffffffffffffffffffffffffffffffffffff1673ffffffffffffffffffffffffffffffffffffffff1673ffffffffffffffffffffffffffffffffffffffff168152602001600182015481526020016002820154815260200160038201548152602001600482015481526020016005820154815260200160068201548152505090506000611e7a826128a6565b90506000600c6301e133808460a00151611e94919061412f565b611e9e9190614160565b905080821115611eb45760019350505050611eca565b611ebe8383610692565b83608001511193505050505b919050565b600080611edb836128a6565b905060008190505b6000811115611f73576000611ef88583610692565b90506000611f1286600185611f0d9190614029565b610692565b9050818660800151118015611f2b575080866080015111155b15611f5e57600c6301e13380611f41919061412f565b83611f4c9190614160565b8660600151611f5b91906143e0565b94505b50508080611f6b90614846565b915050611ee3565b5050919050565b6000808273ffffffffffffffffffffffffffffffffffffffff163b119050919050565b611fa56128fb565b73ffffffffffffffffffffffffffffffffffffffff16611fc361145b565b73ffffffffffffffffffffffffffffffffffffffff1614612019576040517f08c379a0000000000000000000000000000000000000000000000000000000008152600401612010906148bb565b60405180910390fd5b565b60008060009054906101000a900473ffffffffffffffffffffffffffffffffffffffff169050816000806101000a81548173ffffffffffffffffffffffffffffffffffffffff021916908373ffffffffffffffffffffffffffffffffffffffff1602179055508173ffffffffffffffffffffffffffffffffffffffff168173ffffffffffffffffffffffffffffffffffffffff167f8be0079c531659141344cd1fd0a4f28419497f9722a3daafe3b4186f6b6457e060405160405180910390a35050565b60006120ee8360000183612903565b60001c905092915050565b61218f8160405160240161210d919061491f565b6040516020818303038152906040527f41304fac000000000000000000000000000000000000000000000000000000007bffffffffffffffffffffffffffffffffffffffffffffffffffffffff19166020820180517bffffffffffffffffffffffffffffffffffffffffffffffffffffffff838183161783525050505061292e565b50565b61222a82826040516024016121a8929190614941565b6040516020818303038152906040527fb60e72cc000000000000000000000000000000000000000000000000000000007bffffffffffffffffffffffffffffffffffffffffffffffffffffffff19166020820180517bffffffffffffffffffffffffffffffffffffffffffffffffffffffff838183161783525050505061292e565b5050565b6122c68282604051602401612244929190614971565b6040516020818303038152906040527f319af333000000000000000000000000000000000000000000000000000000007bffffffffffffffffffffffffffffffffffffffffffffffffffffffff19166020820180517bffffffffffffffffffffffffffffffffffffffffffffffffffffffff838183161783525050505061292e565b5050565b60006122ee6122e96122db856123c9565b6122e4856123c9565b6127bc565b6124ed565b905092915050565b6123778363a9059cbb60e01b84846040516024016123159291906149a1565b604051602081830303815290604052907bffffffffffffffffffffffffffffffffffffffffffffffffffffffff19166020820180517bffffffffffffffffffffffffffffffffffffffffffffffffffffffff8381831617835250505050612957565b505050565b600061238a82600001612a1e565b9050919050565b60006123c26123bd6123a284612a2f565b6123af856080015161181e565b6122ca90919063ffffffff16565b611d9d565b9050919050565b6000819050919050565b600080600080198587098587029250828110838203039150506000810361240e5783828161240457612403614100565b5b04925050506124e6565b838110612456578585856040517f63a0577800000000000000000000000000000000000000000000000000000000815260040161244d939291906149ca565b60405180910390fd5b60008486880990508281118203915080830392506000600186190186169050600081870496508185049450600182836000030401905080840285179450600060028860030218905080880260020381029050808802600203810290508088026002038102905080880260020381029050808802600203810290508088026002038102905080860296505050505050505b9392505050565b6000819050919050565b6000819050919050565b6000819050919050565b600080612517836124f7565b90506000811361255e57826040517f059b101b000000000000000000000000000000000000000000000000000000008152600401612555919061482b565b60405180910390fd5b6000670de0b6b3a7640000821261257857600190506125be565b7fffffffffffffffffffffffffffffffffffffffffffffffffffffffffffffffff9050816ec097ce7bc90715b34b9f1000000000816125ba576125b9614100565b5b0591505b60006125e1670de0b6b3a764000084816125db576125da614100565b5b05612a5f565b90506000670de0b6b3a76400008202905060008285901d9050670de0b6b3a7640000810361262057612614848302612501565b95505050505050612699565b6000671bc16d674ec80000905060006706f05b59d3b2000090505b600081131561268157670de0b6b3a76400008384028161265e5761265d614100565b5b059250818312612675578084019350600183901d92505b600181901d905061263b565b50848302925061269083612501565b96505050505050505b919050565b6000806126aa836124f7565b90506000811215612731577ffffffffffffffffffffffffffffffffffffffffffffffffcc22e87f6eb468eeb8112156126e75760009150506127b7565b61272a6127066127016126fc84600003612501565b61269e565b6124f7565b6ec097ce7bc90715b34b9f10000000008161272457612723614100565b5b05612501565b91506127b5565b680a688906bd8affffff81131561277f57826040517f0360d028000000000000000000000000000000000000000000000000000000008152600401612776919061482b565b60405180910390fd5b6000670de0b6b3a7640000604083901b8161279d5761279c614100565b5b0590506127b16127ac82612b08565b612501565b9250505b505b919050565b60008060008019848609848602925082811083820303915050600081036127ff57670de0b6b3a764000082816127f5576127f4614100565b5b04925050506128a0565b670de0b6b3a7640000811061284d5784846040517f5173648d000000000000000000000000000000000000000000000000000000008152600401612844929190614a01565b60405180910390fd5b6000670de0b6b3a764000085870990507faccb18165bd6fe31ae1cf318dc5b51eee0e1ba569b88cd74c1773b91fac106696001620400008060000304018483118403026204000083860304170293505050505b92915050565b600080600c6301e133806128ba919061412f565b8360600151426128ca9190614029565b6128d4919061412f565b905060006128e1846118fd565b90508082116128f057816128f2565b805b92505050919050565b600033905090565b600082600001828154811061291b5761291a6143b1565b5b9060005260206000200154905092915050565b60008151905060006a636f6e736f6c652e6c6f679050602083016000808483855afa5050505050565b60006129b9826040518060400160405280602081526020017f5361666545524332303a206c6f772d6c6576656c2063616c6c206661696c65648152508573ffffffffffffffffffffffffffffffffffffffff166134689092919063ffffffff16565b9050600081511115612a1957808060200190518101906129d99190614a56565b612a18576040517f08c379a0000000000000000000000000000000000000000000000000000000008152600401612a0f90614af5565b60405180910390fd5b5b505050565b600081600001805490509050919050565b6000612a58612a45612a4084613480565b61181e565b83602001516122ca90919063ffffffff16565b9050919050565b60006fffffffffffffffffffffffffffffffff821160071b82811c925080821791505067ffffffffffffffff821160061b82811c925080821791505063ffffffff821160051b82811c925080821791505061ffff821160041b82811c925080821791505060ff821160031b82811c9250808217915050600f821160021b82811c92508082179150506003821160011b82811c925080821791505060018211808217915050919050565b6000778000000000000000000000000000000000000000000000009050600067ff0000000000000083161115612c6957600067800000000000000083161115612b5e57604068016a09e667f3bcc9098202901c90505b600067400000000000000083161115612b845760406801306fe0a31b7152df8202901c90505b600067200000000000000083161115612baa5760406801172b83c7d517adce8202901c90505b600067100000000000000083161115612bd057604068010b5586cf9890f62a8202901c90505b600067080000000000000083161115612bf65760406801059b0d31585743ae8202901c90505b600067040000000000000083161115612c1c576040680102c9a3e778060ee78202901c90505b600067020000000000000083161115612c4257604068010163da9fb33356d88202901c90505b600067010000000000000083161115612c68576040680100b1afa5abcbed618202901c90505b5b600066ff00000000000083161115612da4576000668000000000000083161115612ca057604068010058c86da1c09ea28202901c90505b6000664000000000000083161115612cc55760406801002c605e2e8cec508202901c90505b6000662000000000000083161115612cea576040680100162f3904051fa18202901c90505b6000661000000000000083161115612d0f5760406801000b175effdc76ba8202901c90505b6000660800000000000083161115612d34576040680100058ba01fb9f96d8202901c90505b6000660400000000000083161115612d5957604068010002c5cc37da94928202901c90505b6000660200000000000083161115612d7e5760406801000162e525ee05478202901c90505b6000660100000000000083161115612da357604068010000b17255775c048202901c90505b5b600065ff000000000083161115612ed65760006580000000000083161115612dd95760406801000058b91b5bc9ae8202901c90505b60006540000000000083161115612dfd576040680100002c5c89d5ec6d8202901c90505b60006520000000000083161115612e2157604068010000162e43f4f8318202901c90505b60006510000000000083161115612e45576040680100000b1721bcfc9a8202901c90505b60006508000000000083161115612e6957604068010000058b90cf1e6e8202901c90505b60006504000000000083161115612e8d5760406801000002c5c863b73f8202901c90505b60006502000000000083161115612eb1576040680100000162e430e5a28202901c90505b60006501000000000083161115612ed55760406801000000b1721835518202901c90505b5b600064ff0000000083161115612fff57600064800000000083161115612f09576040680100000058b90c0b498202901c90505b600064400000000083161115612f2c57604068010000002c5c8601cc8202901c90505b600064200000000083161115612f4f5760406801000000162e42fff08202901c90505b600064100000000083161115612f7257604068010000000b17217fbb8202901c90505b600064080000000083161115612f955760406801000000058b90bfce8202901c90505b600064040000000083161115612fb8576040680100000002c5c85fe38202901c90505b600064020000000083161115612fdb57604068010000000162e42ff18202901c90505b600064010000000083161115612ffe576040680100000000b17217f88202901c90505b5b600063ff0000008316111561311f57600063800000008316111561303057604068010000000058b90bfc8202901c90505b60006340000000831611156130525760406801000000002c5c85fe8202901c90505b6000632000000083161115613074576040680100000000162e42ff8202901c90505b60006310000000831611156130965760406801000000000b17217f8202901c90505b60006308000000831611156130b8576040680100000000058b90c08202901c90505b60006304000000831611156130da57604068010000000002c5c8608202901c90505b60006302000000831611156130fc5760406801000000000162e4308202901c90505b600063010000008316111561311e57604068010000000000b172188202901c90505b5b600062ff000083161115613236576000628000008316111561314e5760406801000000000058b90c8202901c90505b6000624000008316111561316f576040680100000000002c5c868202901c90505b6000622000008316111561319057604068010000000000162e438202901c90505b600062100000831611156131b1576040680100000000000b17218202901c90505b600062080000831611156131d257604068010000000000058b918202901c90505b600062040000831611156131f35760406801000000000002c5c88202901c90505b60006202000083161115613214576040680100000000000162e48202901c90505b600062010000831611156132355760406801000000000000b1728202901c90505b5b600061ff008316111561334457600061800083161115613263576040680100000000000058b98202901c90505b60006140008316111561328357604068010000000000002c5d8202901c90505b6000612000831611156132a35760406801000000000000162e8202901c90505b6000611000831611156132c357604068010000000000000b178202901c90505b6000610800831611156132e35760406801000000000000058c8202901c90505b600061040083161115613303576040680100000000000002c68202901c90505b600061020083161115613323576040680100000000000001638202901c90505b600061010083161115613343576040680100000000000000b18202901c90505b5b600060ff8316111561344957600060808316111561336f576040680100000000000000598202901c90505b600060408316111561338e5760406801000000000000002c8202901c90505b60006020831611156133ad576040680100000000000000168202901c90505b60006010831611156133cc5760406801000000000000000b8202901c90505b60006008831611156133eb576040680100000000000000068202901c90505b600060048316111561340a576040680100000000000000038202901c90505b6000600283161115613429576040680100000000000000018202901c90505b6000600183161115613448576040680100000000000000018202901c90505b5b670de0b6b3a764000081029050604082901c60bf0381901c9050919050565b60606134778484600085613499565b90509392505050565b60008160c00151426134929190614029565b9050919050565b6060824710156134de576040517f08c379a00000000000000000000000000000000000000000000000000000000081526004016134d590614b87565b60405180910390fd5b6000808673ffffffffffffffffffffffffffffffffffffffff1685876040516135079190614593565b60006040518083038185875af1925050503d8060008114613544576040519150601f19603f3d011682016040523d82523d6000602084013e613549565b606091505b509150915061355a87838387613566565b92505050949350505050565b606083156135c85760008351036135c05761358085611f7a565b6135bf576040517f08c379a00000000000000000000000000000000000000000000000000000000081526004016135b690614bf3565b60405180910390fd5b5b8290506135d3565b6135d283836135db565b5b949350505050565b6000825111156135ee5781518083602001fd5b806040517f08c379a0000000000000000000000000000000000000000000000000000000008152600401613622919061491f565b60405180910390fd5b6040518060e00160405280600073ffffffffffffffffffffffffffffffffffffffff1681526020016000815260200160008152602001600081526020016000815260200160008152602001600081525090565b6000604051905090565b600080fd5b600080fd5b600080fd5b6000601f19601f8301169050919050565b7f4e487b7100000000000000000000000000000000000000000000000000000000600052604160045260246000fd5b6136e082613697565b810181811067ffffffffffffffff821117156136ff576136fe6136a8565b5b80604052505050565b600061371261367e565b905061371e82826136d7565b919050565b600073ffffffffffffffffffffffffffffffffffffffff82169050919050565b600061374e82613723565b9050919050565b61375e81613743565b811461376957600080fd5b50565b60008135905061377b81613755565b92915050565b6000819050919050565b61379481613781565b811461379f57600080fd5b50565b6000813590506137b18161378b565b92915050565b6000608082840312156137cd576137cc613692565b5b6137d76080613708565b905060006137e78482850161376c565b60008301525060206137fb848285016137a2565b602083015250604061380f848285016137a2565b6040830152506060613823848285016137a2565b60608301525092915050565b60006080828403121561384557613844613688565b5b6000613853848285016137b7565b91505092915050565b60008115159050919050565b6138718161385c565b82525050565b600060208201905061388c6000830184613868565b92915050565b60007fffffffff0000000000000000000000000000000000000000000000000000000082169050919050565b6138c781613892565b81146138d257600080fd5b50565b6000813590506138e4816138be565b92915050565b600060208284031215613900576138ff613688565b5b600061390e848285016138d5565b91505092915050565b61392081613743565b82525050565b600060208201905061393b6000830184613917565b92915050565b61394a81613781565b811461395557600080fd5b50565b60008135905061396781613941565b92915050565b600060e0828403121561398357613982613692565b5b61398d60e0613708565b9050600061399d8482850161376c565b60008301525060206139b184828501613958565b60208301525060406139c584828501613958565b60408301525060606139d9848285016137a2565b60608301525060806139ed848285016137a2565b60808301525060a0613a01848285016137a2565b60a08301525060c0613a15848285016137a2565b60c08301525092915050565b6000806101008385031215613a3957613a38613688565b5b6000613a478582860161396d565b92505060e0613a58858286016137a2565b9150509250929050565b613a6b81613781565b82525050565b6000602082019050613a866000830184613a62565b92915050565b600060208284031215613aa257613aa1613688565b5b6000613ab0848285016137a2565b91505092915050565b6000819050919050565b6000613ade613ad9613ad484613781565b613ab9565b613781565b9050919050565b613aee81613ac3565b82525050565b6000602082019050613b096000830184613ae5565b92915050565b7f4e487b7100000000000000000000000000000000000000000000000000000000600052602160045260246000fd5b60048110613b4f57613b4e613b0f565b5b50565b6000819050613b6082613b3e565b919050565b6000613b7082613b52565b9050919050565b613b8081613b65565b82525050565b6000602082019050613b9b6000830184613b77565b92915050565b600081519050919050565b600082825260208201905092915050565b6000819050602082019050919050565b613bd681613743565b82525050565b613be581613781565b82525050565b608082016000820151613c016000850182613bcd565b506020820151613c146020850182613bdc565b506040820151613c276040850182613bdc565b506060820151613c3a6060850182613bdc565b50505050565b6000613c4c8383613beb565b60808301905092915050565b6000602082019050919050565b6000613c7082613ba1565b613c7a8185613bac565b9350613c8583613bbd565b8060005b83811015613cb6578151613c9d8882613c40565b9750613ca883613c58565b925050600181019050613c89565b5085935050505092915050565b60006020820190508181036000830152613cdd8184613c65565b905092915050565b6000613cf082613743565b9050919050565b613d0081613ce5565b8114613d0b57600080fd5b50565b600081359050613d1d81613cf7565b92915050565b6000613d2e82613743565b9050919050565b613d3e81613d23565b8114613d4957600080fd5b50565b600081359050613d5b81613d35565b92915050565b60008060408385031215613d7857613d77613688565b5b6000613d8685828601613d0e565b9250506020613d9785828601613d4c565b9150509250929050565b60008060408385031215613db857613db7613688565b5b6000613dc6858286016137a2565b9250506020613dd7858286016137a2565b9150509250929050565b600060e082019050613df6600083018a613917565b613e036020830189613ae5565b613e106040830188613ae5565b613e1d6060830187613a62565b613e2a6080830186613a62565b613e3760a0830185613a62565b613e4460c0830184613a62565b98975050505050505050565b613e5981613ac3565b82525050565b60e082016000820151613e756000850182613bcd565b506020820151613e886020850182613e50565b506040820151613e9b6040850182613e50565b506060820151613eae6060850182613bdc565b506080820151613ec16080850182613bdc565b5060a0820151613ed460a0850182613bdc565b5060c0820151613ee760c0850182613bdc565b50505050565b600060e082019050613f026000830184613e5f565b92915050565b600080fd5b600080fd5b600080fd5b60008083601f840112613f2d57613f2c613f08565b5b8235905067ffffffffffffffff811115613f4a57613f49613f0d565b5b602083019150836020820283011115613f6657613f65613f12565b5b9250929050565b600080600060408486031215613f8657613f85613688565b5b600084013567ffffffffffffffff811115613fa457613fa361368d565b5b613fb086828701613f17565b93509350506020613fc38682870161376c565b9150509250925092565b600060208284031215613fe357613fe2613688565b5b6000613ff18482850161376c565b91505092915050565b7f4e487b7100000000000000000000000000000000000000000000000000000000600052601160045260246000fd5b600061403482613781565b915061403f83613781565b925082820390508181111561405757614056613ffa565b5b92915050565b600082825260208201905092915050565b7f6d6f6e7468206d757374206265203c3d206c6f616e4d61784475726174696f6e60008201527f4d6f6e7468730000000000000000000000000000000000000000000000000000602082015250565b60006140ca60268361405d565b91506140d58261406e565b604082019050919050565b600060208201905081810360008301526140f9816140bd565b9050919050565b7f4e487b7100000000000000000000000000000000000000000000000000000000600052601260045260246000fd5b600061413a82613781565b915061414583613781565b92508261415557614154614100565b5b828204905092915050565b600061416b82613781565b915061417683613781565b925082820261418481613781565b9150828204841483151761419b5761419a613ffa565b5b5092915050565b7f496e697469616c697a61626c653a20636f6e747261637420697320616c72656160008201527f647920696e697469616c697a6564000000000000000000000000000000000000602082015250565b60006141fe602e8361405d565b9150614209826141a2565b604082019050919050565b6000602082019050818103600083015261422d816141f1565b9050919050565b6000819050919050565b600060ff82169050919050565b600061426661426161425c84614234565b613ab9565b61423e565b9050919050565b6142768161424b565b82525050565b6000602082019050614291600083018461426d565b92915050565b6000815190506142a681613755565b92915050565b6000602082840312156142c2576142c1613688565b5b60006142d084828501614297565b91505092915050565b7f737461747573206e6f74206e6f6e650000000000000000000000000000000000600082015250565b600061430f600f8361405d565b915061431a826142d9565b602082019050919050565b6000602082019050818103600083015261433e81614302565b9050919050565b7f63616c6c6572206e6f74206e66744f776e657200000000000000000000000000600082015250565b600061437b60138361405d565b915061438682614345565b602082019050919050565b600060208201905081810360008301526143aa8161436e565b9050919050565b7f4e487b7100000000000000000000000000000000000000000000000000000000600052603260045260246000fd5b60006143eb82613781565b91506143f683613781565b925082820190508082111561440e5761440d613ffa565b5b92915050565b7f70726f706572747956616c756520646f65736e277420636f7665722073616c6560008201527f4665650000000000000000000000000000000000000000000000000000000000602082015250565b600061447060238361405d565b915061447b82614414565b604082019050919050565b6000602082019050818103600083015261449f81614463565b9050919050565b60006060820190506144bb6000830186613917565b6144c86020830185613917565b6144d56040830184613a62565b949350505050565b60006080820190506144f26000830187613917565b6144ff6020830186613a62565b61450c6040830185613a62565b6145196060830184613a62565b95945050505050565b600081519050919050565b600081905092915050565b60005b8381101561455657808201518184015260208101905061453b565b60008484015250505050565b600061456d82614522565b614577818561452d565b9350614587818560208601614538565b80840191505092915050565b600061459f8284614562565b915081905092915050565b7f73746172744c6f616e2064656c656761746543616c6c206661696c6564000000600082015250565b60006145e0601d8361405d565b91506145eb826145aa565b602082019050919050565b6000602082019050818103600083015261460f816145d3565b9050919050565b600061462182613781565b91507fffffffffffffffffffffffffffffffffffffffffffffffffffffffffffffffff820361465357614652613ffa565b5b600182019050919050565b7f4f776e61626c653a206e6577206f776e657220697320746865207a65726f206160008201527f6464726573730000000000000000000000000000000000000000000000000000602082015250565b60006146ba60268361405d565b91506146c58261465e565b604082019050919050565b600060208201905081810360008301526146e9816146ad565b9050919050565b6000819050919050565b6000614705826146f0565b9150614710836146f0565b9250826147205761471f614100565b5b600160000383147f80000000000000000000000000000000000000000000000000000000000000008314161561475957614758613ffa565b5b828205905092915050565b61476d816146f0565b82525050565b60006020820190506147886000830184614764565b92915050565b6000614799826146f0565b91506147a4836146f0565b92508282039050818112600084121682821360008512151617156147cb576147ca613ffa565b5b92915050565b60006147ec6147e76147e2846146f0565b613ab9565b6146f0565b9050919050565b6147fc816147d1565b82525050565b600060408201905061481760008301856147f3565b61482460208301846147f3565b9392505050565b600060208201905061484060008301846147f3565b92915050565b600061485182613781565b91506000820361486457614863613ffa565b5b600182039050919050565b7f4f776e61626c653a2063616c6c6572206973206e6f7420746865206f776e6572600082015250565b60006148a560208361405d565b91506148b08261486f565b602082019050919050565b600060208201905081810360008301526148d481614898565b9050919050565b600081519050919050565b60006148f1826148db565b6148fb818561405d565b935061490b818560208601614538565b61491481613697565b840191505092915050565b6000602082019050818103600083015261493981846148e6565b905092915050565b6000604082019050818103600083015261495b81856148e6565b905061496a6020830184613a62565b9392505050565b6000604082019050818103600083015261498b81856148e6565b905061499a6020830184613917565b9392505050565b60006040820190506149b66000830185613917565b6149c36020830184613a62565b9392505050565b60006060820190506149df6000830186613a62565b6149ec6020830185613a62565b6149f96040830184613a62565b949350505050565b6000604082019050614a166000830185613a62565b614a236020830184613a62565b9392505050565b614a338161385c565b8114614a3e57600080fd5b50565b600081519050614a5081614a2a565b92915050565b600060208284031215614a6c57614a6b613688565b5b6000614a7a84828501614a41565b91505092915050565b7f5361666545524332303a204552433230206f7065726174696f6e20646964206e60008201527f6f74207375636365656400000000000000000000000000000000000000000000602082015250565b6000614adf602a8361405d565b9150614aea82614a83565b604082019050919050565b60006020820190508181036000830152614b0e81614ad2565b9050919050565b7f416464726573733a20696e73756666696369656e742062616c616e636520666f60008201527f722063616c6c0000000000000000000000000000000000000000000000000000602082015250565b6000614b7160268361405d565b9150614b7c82614b15565b604082019050919050565b60006020820190508181036000830152614ba081614b64565b9050919050565b7f416464726573733a2063616c6c20746f206e6f6e2d636f6e7472616374000000600082015250565b6000614bdd601d8361405d565b9150614be882614ba7565b602082019050919050565b60006020820190508181036000830152614c0c81614bd0565b905091905056fea2646970667358221220b26cb87bcb7fe60e097290ed9cf5e18a258eca2d79322329bd20793ab1f0e9e364736f6c63430008130033",
  "linkReferences": {},
  "deployedLinkReferences": {}
}