{
  "_format": "hh-sol-artifact-1",
  "contractName": "tUsdc",
  "sourceName": "contracts/tokens/tUsdc.sol",
  "abi": [
    {
      "inputs": [
        {
          "internalType": "address[]",
          "name": "defaultOperators_",
          "type": "address[]"
        }
      ],
      "stateMutability": "nonpayable",
      "type": "constructor"
    },
    {
      "anonymous": false,
      "inputs": [
        {
          "indexed": true,
          "internalType": "address",
          "name": "owner",
          "type": "address"
        },
        {
          "indexed": true,
          "internalType": "address",
          "name": "spender",
          "type": "address"
        },
        {
          "indexed": false,
          "internalType": "uint256",
          "name": "value",
          "type": "uint256"
        }
      ],
      "name": "Approval",
      "type": "event"
    },
    {
      "anonymous": false,
      "inputs": [
        {
          "indexed": true,
          "internalType": "address",
          "name": "operator",
          "type": "address"
        },
        {
          "indexed": true,
          "internalType": "address",
          "name": "tokenHolder",
          "type": "address"
        }
      ],
      "name": "AuthorizedOperator",
      "type": "event"
    },
    {
      "anonymous": false,
      "inputs": [
        {
          "indexed": true,
          "internalType": "address",
          "name": "operator",
          "type": "address"
        },
        {
          "indexed": true,
          "internalType": "address",
          "name": "from",
          "type": "address"
        },
        {
          "indexed": false,
          "internalType": "uint256",
          "name": "amount",
          "type": "uint256"
        },
        {
          "indexed": false,
          "internalType": "bytes",
          "name": "data",
          "type": "bytes"
        },
        {
          "indexed": false,
          "internalType": "bytes",
          "name": "operatorData",
          "type": "bytes"
        }
      ],
      "name": "Burned",
      "type": "event"
    },
    {
      "anonymous": false,
      "inputs": [
        {
          "indexed": true,
          "internalType": "address",
          "name": "operator",
          "type": "address"
        },
        {
          "indexed": true,
          "internalType": "address",
          "name": "to",
          "type": "address"
        },
        {
          "indexed": false,
          "internalType": "uint256",
          "name": "amount",
          "type": "uint256"
        },
        {
          "indexed": false,
          "internalType": "bytes",
          "name": "data",
          "type": "bytes"
        },
        {
          "indexed": false,
          "internalType": "bytes",
          "name": "operatorData",
          "type": "bytes"
        }
      ],
      "name": "Minted",
      "type": "event"
    },
    {
      "anonymous": false,
      "inputs": [
        {
          "indexed": true,
          "internalType": "address",
          "name": "operator",
          "type": "address"
        },
        {
          "indexed": true,
          "internalType": "address",
          "name": "tokenHolder",
          "type": "address"
        }
      ],
      "name": "RevokedOperator",
      "type": "event"
    },
    {
      "anonymous": false,
      "inputs": [
        {
          "indexed": true,
          "internalType": "address",
          "name": "operator",
          "type": "address"
        },
        {
          "indexed": true,
          "internalType": "address",
          "name": "from",
          "type": "address"
        },
        {
          "indexed": true,
          "internalType": "address",
          "name": "to",
          "type": "address"
        },
        {
          "indexed": false,
          "internalType": "uint256",
          "name": "amount",
          "type": "uint256"
        },
        {
          "indexed": false,
          "internalType": "bytes",
          "name": "data",
          "type": "bytes"
        },
        {
          "indexed": false,
          "internalType": "bytes",
          "name": "operatorData",
          "type": "bytes"
        }
      ],
      "name": "Sent",
      "type": "event"
    },
    {
      "anonymous": false,
      "inputs": [
        {
          "indexed": true,
          "internalType": "address",
          "name": "from",
          "type": "address"
        },
        {
          "indexed": true,
          "internalType": "address",
          "name": "to",
          "type": "address"
        },
        {
          "indexed": false,
          "internalType": "uint256",
          "name": "value",
          "type": "uint256"
        }
      ],
      "name": "Transfer",
      "type": "event"
    },
    {
      "inputs": [
        {
          "internalType": "address",
          "name": "holder",
          "type": "address"
        },
        {
          "internalType": "address",
          "name": "spender",
          "type": "address"
        }
      ],
      "name": "allowance",
      "outputs": [
        {
          "internalType": "uint256",
          "name": "",
          "type": "uint256"
        }
      ],
      "stateMutability": "view",
      "type": "function"
    },
    {
      "inputs": [
        {
          "internalType": "address",
          "name": "spender",
          "type": "address"
        },
        {
          "internalType": "uint256",
          "name": "value",
          "type": "uint256"
        }
      ],
      "name": "approve",
      "outputs": [
        {
          "internalType": "bool",
          "name": "",
          "type": "bool"
        }
      ],
      "stateMutability": "nonpayable",
      "type": "function"
    },
    {
      "inputs": [
        {
          "internalType": "address",
          "name": "operator",
          "type": "address"
        }
      ],
      "name": "authorizeOperator",
      "outputs": [],
      "stateMutability": "nonpayable",
      "type": "function"
    },
    {
      "inputs": [
        {
          "internalType": "address",
          "name": "tokenHolder",
          "type": "address"
        }
      ],
      "name": "balanceOf",
      "outputs": [
        {
          "internalType": "uint256",
          "name": "",
          "type": "uint256"
        }
      ],
      "stateMutability": "view",
      "type": "function"
    },
    {
      "inputs": [
        {
          "internalType": "uint256",
          "name": "amount",
          "type": "uint256"
        },
        {
          "internalType": "bytes",
          "name": "data",
          "type": "bytes"
        }
      ],
      "name": "burn",
      "outputs": [],
      "stateMutability": "nonpayable",
      "type": "function"
    },
    {
      "inputs": [],
      "name": "decimals",
      "outputs": [
        {
          "internalType": "uint8",
          "name": "",
          "type": "uint8"
        }
      ],
      "stateMutability": "pure",
      "type": "function"
    },
    {
      "inputs": [
        {
          "internalType": "address",
          "name": "account",
          "type": "address"
        },
        {
          "internalType": "uint256",
          "name": "amount",
          "type": "uint256"
        }
      ],
      "name": "defaultOperatorMint",
      "outputs": [],
      "stateMutability": "nonpayable",
      "type": "function"
    },
    {
      "inputs": [],
      "name": "defaultOperators",
      "outputs": [
        {
          "internalType": "address[]",
          "name": "",
          "type": "address[]"
        }
      ],
      "stateMutability": "view",
      "type": "function"
    },
    {
      "inputs": [],
      "name": "granularity",
      "outputs": [
        {
          "internalType": "uint256",
          "name": "",
          "type": "uint256"
        }
      ],
      "stateMutability": "view",
      "type": "function"
    },
    {
      "inputs": [
        {
          "internalType": "address",
          "name": "operator",
          "type": "address"
        },
        {
          "internalType": "address",
          "name": "tokenHolder",
          "type": "address"
        }
      ],
      "name": "isOperatorFor",
      "outputs": [
        {
          "internalType": "bool",
          "name": "",
          "type": "bool"
        }
      ],
      "stateMutability": "view",
      "type": "function"
    },
    {
      "inputs": [],
      "name": "name",
      "outputs": [
        {
          "internalType": "string",
          "name": "",
          "type": "string"
        }
      ],
      "stateMutability": "view",
      "type": "function"
    },
    {
      "inputs": [
        {
          "internalType": "address",
          "name": "account",
          "type": "address"
        },
        {
          "internalType": "uint256",
          "name": "amount",
          "type": "uint256"
        },
        {
          "internalType": "bytes",
          "name": "data",
          "type": "bytes"
        },
        {
          "internalType": "bytes",
          "name": "operatorData",
          "type": "bytes"
        }
      ],
      "name": "operatorBurn",
      "outputs": [],
      "stateMutability": "nonpayable",
      "type": "function"
    },
    {
      "inputs": [
        {
          "internalType": "address",
          "name": "sender",
          "type": "address"
        },
        {
          "internalType": "address",
          "name": "recipient",
          "type": "address"
        },
        {
          "internalType": "uint256",
          "name": "amount",
          "type": "uint256"
        },
        {
          "internalType": "bytes",
          "name": "data",
          "type": "bytes"
        },
        {
          "internalType": "bytes",
          "name": "operatorData",
          "type": "bytes"
        }
      ],
      "name": "operatorSend",
      "outputs": [],
      "stateMutability": "nonpayable",
      "type": "function"
    },
    {
      "inputs": [
        {
          "internalType": "address",
          "name": "operator",
          "type": "address"
        }
      ],
      "name": "revokeOperator",
      "outputs": [],
      "stateMutability": "nonpayable",
      "type": "function"
    },
    {
      "inputs": [
        {
          "internalType": "address",
          "name": "recipient",
          "type": "address"
        },
        {
          "internalType": "uint256",
          "name": "amount",
          "type": "uint256"
        },
        {
          "internalType": "bytes",
          "name": "data",
          "type": "bytes"
        }
      ],
      "name": "send",
      "outputs": [],
      "stateMutability": "nonpayable",
      "type": "function"
    },
    {
      "inputs": [],
      "name": "symbol",
      "outputs": [
        {
          "internalType": "string",
          "name": "",
          "type": "string"
        }
      ],
      "stateMutability": "view",
      "type": "function"
    },
    {
      "inputs": [],
      "name": "totalSupply",
      "outputs": [
        {
          "internalType": "uint256",
          "name": "",
          "type": "uint256"
        }
      ],
      "stateMutability": "view",
      "type": "function"
    },
    {
      "inputs": [
        {
          "internalType": "address",
          "name": "recipient",
          "type": "address"
        },
        {
          "internalType": "uint256",
          "name": "amount",
          "type": "uint256"
        }
      ],
      "name": "transfer",
      "outputs": [
        {
          "internalType": "bool",
          "name": "",
          "type": "bool"
        }
      ],
      "stateMutability": "nonpayable",
      "type": "function"
    },
    {
      "inputs": [
        {
          "internalType": "address",
          "name": "holder",
          "type": "address"
        },
        {
          "internalType": "address",
          "name": "recipient",
          "type": "address"
        },
        {
          "internalType": "uint256",
          "name": "amount",
          "type": "uint256"
        }
      ],
      "name": "transferFrom",
      "outputs": [
        {
          "internalType": "bool",
          "name": "",
          "type": "bool"
        }
      ],
      "stateMutability": "nonpayable",
      "type": "function"
    }
  ],
  "bytecode": "0x60806040523480156200001157600080fd5b506040516200380c3803806200380c83398181016040528101906200003791906200056e565b6040518060400160405280600d81526020017f54616e6769626c652055534443000000000000000000000000000000000000008152506040518060400160405280600581526020017f7455534443000000000000000000000000000000000000000000000000000000815250828260029081620000b591906200080a565b508160039081620000c791906200080a565b508060049080519060200190620000e0929190620002d2565b5060005b815181101562000179576001600560008484815181106200010a5762000109620008f1565b5b602002602001015173ffffffffffffffffffffffffffffffffffffffff1673ffffffffffffffffffffffffffffffffffffffff16815260200190815260200160002060006101000a81548160ff021916908315150217905550808062000170906200094f565b915050620000e4565b50731820a4b7618bde71dce8cdc73aab6c95905fad2473ffffffffffffffffffffffffffffffffffffffff166329965a1d307fac7fbab5f54a3ca8194167523c6753bfeb96a445279294b6125b68cce2177054306040518463ffffffff1660e01b8152600401620001ed93929190620009c8565b600060405180830381600087803b1580156200020857600080fd5b505af11580156200021d573d6000803e3d6000fd5b50505050731820a4b7618bde71dce8cdc73aab6c95905fad2473ffffffffffffffffffffffffffffffffffffffff166329965a1d307faea199e31a596269b42cdafd93407f14436db6e4cad65417994c2eb37381e05a306040518463ffffffff1660e01b81526004016200029493929190620009c8565b600060405180830381600087803b158015620002af57600080fd5b505af1158015620002c4573d6000803e3d6000fd5b505050505050505062000a05565b8280548282559060005260206000209081019282156200034e579160200282015b828111156200034d5782518260006101000a81548173ffffffffffffffffffffffffffffffffffffffff021916908373ffffffffffffffffffffffffffffffffffffffff16021790555091602001919060010190620002f3565b5b5090506200035d919062000361565b5090565b5b808211156200037c57600081600090555060010162000362565b5090565b6000604051905090565b600080fd5b600080fd5b600080fd5b6000601f19601f8301169050919050565b7f4e487b7100000000000000000000000000000000000000000000000000000000600052604160045260246000fd5b620003e48262000399565b810181811067ffffffffffffffff82111715620004065762000405620003aa565b5b80604052505050565b60006200041b62000380565b9050620004298282620003d9565b919050565b600067ffffffffffffffff8211156200044c576200044b620003aa565b5b602082029050602081019050919050565b600080fd5b600073ffffffffffffffffffffffffffffffffffffffff82169050919050565b60006200048f8262000462565b9050919050565b620004a18162000482565b8114620004ad57600080fd5b50565b600081519050620004c18162000496565b92915050565b6000620004de620004d8846200042e565b6200040f565b905080838252602082019050602084028301858111156200050457620005036200045d565b5b835b818110156200053157806200051c8882620004b0565b84526020840193505060208101905062000506565b5050509392505050565b600082601f83011262000553576200055262000394565b5b815162000565848260208601620004c7565b91505092915050565b6000602082840312156200058757620005866200038a565b5b600082015167ffffffffffffffff811115620005a857620005a76200038f565b5b620005b6848285016200053b565b91505092915050565b600081519050919050565b7f4e487b7100000000000000000000000000000000000000000000000000000000600052602260045260246000fd5b600060028204905060018216806200061257607f821691505b602082108103620006285762000627620005ca565b5b50919050565b60008190508160005260206000209050919050565b60006020601f8301049050919050565b600082821b905092915050565b600060088302620006927fffffffffffffffffffffffffffffffffffffffffffffffffffffffffffffffff8262000653565b6200069e868362000653565b95508019841693508086168417925050509392505050565b6000819050919050565b6000819050919050565b6000620006eb620006e5620006df84620006b6565b620006c0565b620006b6565b9050919050565b6000819050919050565b6200070783620006ca565b6200071f6200071682620006f2565b84845462000660565b825550505050565b600090565b6200073662000727565b62000743818484620006fc565b505050565b5b818110156200076b576200075f6000826200072c565b60018101905062000749565b5050565b601f821115620007ba5762000784816200062e565b6200078f8462000643565b810160208510156200079f578190505b620007b7620007ae8562000643565b83018262000748565b50505b505050565b600082821c905092915050565b6000620007df60001984600802620007bf565b1980831691505092915050565b6000620007fa8383620007cc565b9150826002028217905092915050565b6200081582620005bf565b67ffffffffffffffff811115620008315762000830620003aa565b5b6200083d8254620005f9565b6200084a8282856200076f565b600060209050601f8311600181146200088257600084156200086d578287015190505b620008798582620007ec565b865550620008e9565b601f19841662000892866200062e565b60005b82811015620008bc5784890151825560018201915060208501945060208101905062000895565b86831015620008dc5784890151620008d8601f891682620007cc565b8355505b6001600288020188555050505b505050505050565b7f4e487b7100000000000000000000000000000000000000000000000000000000600052603260045260246000fd5b7f4e487b7100000000000000000000000000000000000000000000000000000000600052601160045260246000fd5b60006200095c82620006b6565b91507fffffffffffffffffffffffffffffffffffffffffffffffffffffffffffffffff820362000991576200099062000920565b5b600182019050919050565b620009a78162000482565b82525050565b6000819050919050565b620009c281620009ad565b82525050565b6000606082019050620009df60008301866200099c565b620009ee6020830185620009b7565b620009fd60408301846200099c565b949350505050565b612df78062000a156000396000f3fe608060405234801561001057600080fd5b50600436106101215760003560e01c806370a08231116100ad578063d95b637111610071578063d95b63711461030a578063dd62ed3e1461033a578063fad8b32a1461036a578063fc673c4f14610386578063fe9d9303146103a257610121565b806370a0823114610254578063959b8c3f1461028457806395d89b41146102a05780639bd9bbc6146102be578063a9059cbb146102da57610121565b806319c08fb8116100f457806319c08fb8146101b057806323b872dd146101cc578063313ce567146101fc578063556f0dc71461021a57806362ad1b831461023857610121565b806306e485381461012657806306fdde0314610144578063095ea7b31461016257806318160ddd14610192575b600080fd5b61012e6103be565b60405161013b9190611d4b565b60405180910390f35b61014c61044c565b6040516101599190611dfd565b60405180910390f35b61017c60048036038101906101779190611e95565b6104de565b6040516101899190611ef0565b60405180910390f35b61019a610501565b6040516101a79190611f1a565b60405180910390f35b6101ca60048036038101906101c59190611e95565b61050b565b005b6101e660048036038101906101e19190611f35565b610581565b6040516101f39190611ef0565b60405180910390f35b6102046105d2565b6040516102119190611fa4565b60405180910390f35b6102226105db565b60405161022f9190611f1a565b60405180910390f35b610252600480360381019061024d91906120f4565b6105e4565b005b61026e600480360381019061026991906121a7565b61064a565b60405161027b9190611f1a565b60405180910390f35b61029e600480360381019061029991906121a7565b610692565b005b6102a86108f2565b6040516102b59190611dfd565b60405180910390f35b6102d860048036038101906102d391906121d4565b610984565b005b6102f460048036038101906102ef9190611e95565b6109ae565b6040516103019190611ef0565b60405180910390f35b610324600480360381019061031f9190612243565b6109ee565b6040516103319190611ef0565b60405180910390f35b610354600480360381019061034f9190612243565b610b9f565b6040516103619190611f1a565b60405180910390f35b610384600480360381019061037f91906121a7565b610c26565b005b6103a0600480360381019061039b9190612283565b610e86565b005b6103bc60048036038101906103b79190612322565b610ee8565b005b6060600480548060200260200160405190810160405280929190818152602001828054801561044257602002820191906000526020600020905b8160009054906101000a900473ffffffffffffffffffffffffffffffffffffffff1673ffffffffffffffffffffffffffffffffffffffff16815260200190600101908083116103f8575b5050505050905090565b60606002805461045b906123ad565b80601f0160208091040260200160405190810160405280929190818152602001828054610487906123ad565b80156104d45780601f106104a9576101008083540402835291602001916104d4565b820191906000526020600020905b8154815290600101906020018083116104b757829003601f168201915b5050505050905090565b6000806104e9610f0e565b90506104f6818585610f16565b600191505092915050565b6000600154905090565b610514336110df565b610553576040517f08c379a000000000000000000000000000000000000000000000000000000000815260040161054a9061242a565b60405180910390fd5b61057d828260405180602001604052806000815250604051806020016040528060008152506110f2565b5050565b60008061058c610f0e565b9050610599858285611106565b6105c685858560405180602001604052806000815250604051806020016040528060008152506000611192565b60019150509392505050565b60006012905090565b60006001905090565b6105f56105ef610f0e565b866109ee565b610634576040517f08c379a000000000000000000000000000000000000000000000000000000000815260040161062b906124bc565b60405180910390fd5b61064385858585856001611192565b5050505050565b60008060008373ffffffffffffffffffffffffffffffffffffffff1673ffffffffffffffffffffffffffffffffffffffff168152602001908152602001600020549050919050565b8073ffffffffffffffffffffffffffffffffffffffff166106b1610f0e565b73ffffffffffffffffffffffffffffffffffffffff1603610707576040517f08c379a00000000000000000000000000000000000000000000000000000000081526004016106fe9061254e565b60405180910390fd5b600560008273ffffffffffffffffffffffffffffffffffffffff1673ffffffffffffffffffffffffffffffffffffffff16815260200190815260200160002060009054906101000a900460ff16156107f15760076000610765610f0e565b73ffffffffffffffffffffffffffffffffffffffff1673ffffffffffffffffffffffffffffffffffffffff16815260200190815260200160002060008273ffffffffffffffffffffffffffffffffffffffff1673ffffffffffffffffffffffffffffffffffffffff16815260200190815260200160002060006101000a81549060ff021916905561088e565b6001600660006107ff610f0e565b73ffffffffffffffffffffffffffffffffffffffff1673ffffffffffffffffffffffffffffffffffffffff16815260200190815260200160002060008373ffffffffffffffffffffffffffffffffffffffff1673ffffffffffffffffffffffffffffffffffffffff16815260200190815260200160002060006101000a81548160ff0219169083151502179055505b610896610f0e565b73ffffffffffffffffffffffffffffffffffffffff168173ffffffffffffffffffffffffffffffffffffffff167ff4caeb2d6ca8932a215a353d0703c326ec2d81fc68170f320eb2ab49e9df61f960405160405180910390a350565b606060038054610901906123ad565b80601f016020809104026020016040519081016040528092919081815260200182805461092d906123ad565b801561097a5780601f1061094f5761010080835404028352916020019161097a565b820191906000526020600020905b81548152906001019060200180831161095d57829003601f168201915b5050505050905090565b6109a961098f610f0e565b848484604051806020016040528060008152506001611192565b505050565b60006109e46109bb610f0e565b848460405180602001604052806000815250604051806020016040528060008152506000611192565b6001905092915050565b60008173ffffffffffffffffffffffffffffffffffffffff168373ffffffffffffffffffffffffffffffffffffffff161480610b065750600560008473ffffffffffffffffffffffffffffffffffffffff1673ffffffffffffffffffffffffffffffffffffffff16815260200190815260200160002060009054906101000a900460ff168015610b055750600760008373ffffffffffffffffffffffffffffffffffffffff1673ffffffffffffffffffffffffffffffffffffffff16815260200190815260200160002060008473ffffffffffffffffffffffffffffffffffffffff1673ffffffffffffffffffffffffffffffffffffffff16815260200190815260200160002060009054906101000a900460ff16155b5b80610b975750600660008373ffffffffffffffffffffffffffffffffffffffff1673ffffffffffffffffffffffffffffffffffffffff16815260200190815260200160002060008473ffffffffffffffffffffffffffffffffffffffff1673ffffffffffffffffffffffffffffffffffffffff16815260200190815260200160002060009054906101000a900460ff165b905092915050565b6000600860008473ffffffffffffffffffffffffffffffffffffffff1673ffffffffffffffffffffffffffffffffffffffff16815260200190815260200160002060008373ffffffffffffffffffffffffffffffffffffffff1673ffffffffffffffffffffffffffffffffffffffff16815260200190815260200160002054905092915050565b610c2e610f0e565b73ffffffffffffffffffffffffffffffffffffffff168173ffffffffffffffffffffffffffffffffffffffff1603610c9b576040517f08c379a0000000000000000000000000000000000000000000000000000000008152600401610c92906125e0565b60405180910390fd5b600560008273ffffffffffffffffffffffffffffffffffffffff1673ffffffffffffffffffffffffffffffffffffffff16815260200190815260200160002060009054906101000a900460ff1615610d8e57600160076000610cfb610f0e565b73ffffffffffffffffffffffffffffffffffffffff1673ffffffffffffffffffffffffffffffffffffffff16815260200190815260200160002060008373ffffffffffffffffffffffffffffffffffffffff1673ffffffffffffffffffffffffffffffffffffffff16815260200190815260200160002060006101000a81548160ff021916908315150217905550610e22565b60066000610d9a610f0e565b73ffffffffffffffffffffffffffffffffffffffff1673ffffffffffffffffffffffffffffffffffffffff16815260200190815260200160002060008273ffffffffffffffffffffffffffffffffffffffff1673ffffffffffffffffffffffffffffffffffffffff16815260200190815260200160002060006101000a81549060ff02191690555b610e2a610f0e565b73ffffffffffffffffffffffffffffffffffffffff168173ffffffffffffffffffffffffffffffffffffffff167f50546e66e5f44d728365dc3908c63bc5cfeeab470722c1677e3073a6ac294aa160405160405180910390a350565b610e97610e91610f0e565b856109ee565b610ed6576040517f08c379a0000000000000000000000000000000000000000000000000000000008152600401610ecd906124bc565b60405180910390fd5b610ee2848484846112b0565b50505050565b610f0a610ef3610f0e565b8383604051806020016040528060008152506112b0565b5050565b600033905090565b600073ffffffffffffffffffffffffffffffffffffffff168373ffffffffffffffffffffffffffffffffffffffff1603610f85576040517f08c379a0000000000000000000000000000000000000000000000000000000008152600401610f7c90612672565b60405180910390fd5b600073ffffffffffffffffffffffffffffffffffffffff168273ffffffffffffffffffffffffffffffffffffffff1603610ff4576040517f08c379a0000000000000000000000000000000000000000000000000000000008152600401610feb90612704565b60405180910390fd5b80600860008573ffffffffffffffffffffffffffffffffffffffff1673ffffffffffffffffffffffffffffffffffffffff16815260200190815260200160002060008473ffffffffffffffffffffffffffffffffffffffff1673ffffffffffffffffffffffffffffffffffffffff168152602001908152602001600020819055508173ffffffffffffffffffffffffffffffffffffffff168373ffffffffffffffffffffffffffffffffffffffff167f8c5be1e5ebec7d5bd14f71427d1e84f3dd0314c0f7b2291e5b200ac8c7c3b925836040516110d29190611f1a565b60405180910390a3505050565b60006110eb82306109ee565b9050919050565b611100848484846001611502565b50505050565b60006111128484610b9f565b90507fffffffffffffffffffffffffffffffffffffffffffffffffffffffffffffffff811461118c578181101561117e576040517f08c379a000000000000000000000000000000000000000000000000000000000815260040161117590612770565b60405180910390fd5b61118b8484848403610f16565b5b50505050565b600073ffffffffffffffffffffffffffffffffffffffff168673ffffffffffffffffffffffffffffffffffffffff1603611201576040517f08c379a00000000000000000000000000000000000000000000000000000000081526004016111f890612802565b60405180910390fd5b600073ffffffffffffffffffffffffffffffffffffffff168573ffffffffffffffffffffffffffffffffffffffff1603611270576040517f08c379a000000000000000000000000000000000000000000000000000000000815260040161126790612894565b60405180910390fd5b600061127a610f0e565b905061128a8188888888886116df565b611298818888888888611846565b6112a781888888888888611a60565b50505050505050565b600073ffffffffffffffffffffffffffffffffffffffff168473ffffffffffffffffffffffffffffffffffffffff160361131f576040517f08c379a000000000000000000000000000000000000000000000000000000000815260040161131690612926565b60405180910390fd5b6000611329610f0e565b905061133a818660008787876116df565b6113478186600087611c32565b60008060008773ffffffffffffffffffffffffffffffffffffffff1673ffffffffffffffffffffffffffffffffffffffff168152602001908152602001600020549050848110156113cd576040517f08c379a00000000000000000000000000000000000000000000000000000000081526004016113c4906129b8565b60405180910390fd5b8481036000808873ffffffffffffffffffffffffffffffffffffffff1673ffffffffffffffffffffffffffffffffffffffff1681526020019081526020016000208190555084600160008282546114249190612a07565b925050819055508573ffffffffffffffffffffffffffffffffffffffff168273ffffffffffffffffffffffffffffffffffffffff167fa78a9be3a7b862d26933ad85fb11d80ef66b8f972d7cbba06621d583943a409887878760405161148c93929190612a90565b60405180910390a3600073ffffffffffffffffffffffffffffffffffffffff168673ffffffffffffffffffffffffffffffffffffffff167fddf252ad1be2c89b69c2b068fc378daa952ba7f163c4a11628f55a4df523b3ef876040516114f29190611f1a565b60405180910390a3505050505050565b600073ffffffffffffffffffffffffffffffffffffffff168573ffffffffffffffffffffffffffffffffffffffff1603611571576040517f08c379a000000000000000000000000000000000000000000000000000000000815260040161156890612b21565b60405180910390fd5b600061157b610f0e565b905061158a8160008888611c32565b846001600082825461159c9190612b41565b92505081905550846000808873ffffffffffffffffffffffffffffffffffffffff1673ffffffffffffffffffffffffffffffffffffffff16815260200190815260200160002060008282546115f19190612b41565b925050819055506116088160008888888888611a60565b8573ffffffffffffffffffffffffffffffffffffffff168173ffffffffffffffffffffffffffffffffffffffff167f2fe5be0146f74c5bce36c0b80911af6c7d86ff27e89d5cfa61fc681327954e5d87878760405161166993929190612a90565b60405180910390a38573ffffffffffffffffffffffffffffffffffffffff16600073ffffffffffffffffffffffffffffffffffffffff167fddf252ad1be2c89b69c2b068fc378daa952ba7f163c4a11628f55a4df523b3ef876040516116cf9190611f1a565b60405180910390a3505050505050565b6000731820a4b7618bde71dce8cdc73aab6c95905fad2473ffffffffffffffffffffffffffffffffffffffff1663aabbb8ca877f29ddb589b1fb5fc7cf394961c1adf5f8c6454761adf795e67fe149f658abe8956040518363ffffffff1660e01b8152600401611750929190612b9d565b602060405180830381865afa15801561176d573d6000803e3d6000fd5b505050506040513d601f19601f820116820180604052508101906117919190612bdb565b9050600073ffffffffffffffffffffffffffffffffffffffff168173ffffffffffffffffffffffffffffffffffffffff161461183d578073ffffffffffffffffffffffffffffffffffffffff166375ab97828888888888886040518763ffffffff1660e01b815260040161180a96959493929190612c08565b600060405180830381600087803b15801561182457600080fd5b505af1158015611838573d6000803e3d6000fd5b505050505b50505050505050565b61185286868686611c32565b60008060008773ffffffffffffffffffffffffffffffffffffffff1673ffffffffffffffffffffffffffffffffffffffff168152602001908152602001600020549050838110156118d8576040517f08c379a00000000000000000000000000000000000000000000000000000000081526004016118cf90612ce9565b60405180910390fd5b8381036000808873ffffffffffffffffffffffffffffffffffffffff1673ffffffffffffffffffffffffffffffffffffffff16815260200190815260200160002081905550836000808773ffffffffffffffffffffffffffffffffffffffff1673ffffffffffffffffffffffffffffffffffffffff168152602001908152602001600020600082825461196b9190612b41565b925050819055508473ffffffffffffffffffffffffffffffffffffffff168673ffffffffffffffffffffffffffffffffffffffff168873ffffffffffffffffffffffffffffffffffffffff167f06b541ddaa720db2b10a4d0cdac39b8d360425fc073085fac19bc826146779878787876040516119ea93929190612a90565b60405180910390a48473ffffffffffffffffffffffffffffffffffffffff168673ffffffffffffffffffffffffffffffffffffffff167fddf252ad1be2c89b69c2b068fc378daa952ba7f163c4a11628f55a4df523b3ef86604051611a4f9190611f1a565b60405180910390a350505050505050565b6000731820a4b7618bde71dce8cdc73aab6c95905fad2473ffffffffffffffffffffffffffffffffffffffff1663aabbb8ca877fb281fc8c12954d22544db45de3159a39272895b169a852b314f9cc762e44c53b6040518363ffffffff1660e01b8152600401611ad1929190612b9d565b602060405180830381865afa158015611aee573d6000803e3d6000fd5b505050506040513d601f19601f82011682018060405250810190611b129190612bdb565b9050600073ffffffffffffffffffffffffffffffffffffffff168173ffffffffffffffffffffffffffffffffffffffff1614611bc1578073ffffffffffffffffffffffffffffffffffffffff166223de298989898989896040518763ffffffff1660e01b8152600401611b8a96959493929190612c08565b600060405180830381600087803b158015611ba457600080fd5b505af1158015611bb8573d6000803e3d6000fd5b50505050611c28565b8115611c2757611be68673ffffffffffffffffffffffffffffffffffffffff16611c38565b15611c26576040517f08c379a0000000000000000000000000000000000000000000000000000000008152600401611c1d90612da1565b60405180910390fd5b5b5b5050505050505050565b50505050565b6000808273ffffffffffffffffffffffffffffffffffffffff163b119050919050565b600081519050919050565b600082825260208201905092915050565b6000819050602082019050919050565b600073ffffffffffffffffffffffffffffffffffffffff82169050919050565b6000611cb282611c87565b9050919050565b611cc281611ca7565b82525050565b6000611cd48383611cb9565b60208301905092915050565b6000602082019050919050565b6000611cf882611c5b565b611d028185611c66565b9350611d0d83611c77565b8060005b83811015611d3e578151611d258882611cc8565b9750611d3083611ce0565b925050600181019050611d11565b5085935050505092915050565b60006020820190508181036000830152611d658184611ced565b905092915050565b600081519050919050565b600082825260208201905092915050565b60005b83811015611da7578082015181840152602081019050611d8c565b60008484015250505050565b6000601f19601f8301169050919050565b6000611dcf82611d6d565b611dd98185611d78565b9350611de9818560208601611d89565b611df281611db3565b840191505092915050565b60006020820190508181036000830152611e178184611dc4565b905092915050565b6000604051905090565b600080fd5b600080fd5b611e3c81611ca7565b8114611e4757600080fd5b50565b600081359050611e5981611e33565b92915050565b6000819050919050565b611e7281611e5f565b8114611e7d57600080fd5b50565b600081359050611e8f81611e69565b92915050565b60008060408385031215611eac57611eab611e29565b5b6000611eba85828601611e4a565b9250506020611ecb85828601611e80565b9150509250929050565b60008115159050919050565b611eea81611ed5565b82525050565b6000602082019050611f056000830184611ee1565b92915050565b611f1481611e5f565b82525050565b6000602082019050611f2f6000830184611f0b565b92915050565b600080600060608486031215611f4e57611f4d611e29565b5b6000611f5c86828701611e4a565b9350506020611f6d86828701611e4a565b9250506040611f7e86828701611e80565b9150509250925092565b600060ff82169050919050565b611f9e81611f88565b82525050565b6000602082019050611fb96000830184611f95565b92915050565b600080fd5b600080fd5b7f4e487b7100000000000000000000000000000000000000000000000000000000600052604160045260246000fd5b61200182611db3565b810181811067ffffffffffffffff821117156120205761201f611fc9565b5b80604052505050565b6000612033611e1f565b905061203f8282611ff8565b919050565b600067ffffffffffffffff82111561205f5761205e611fc9565b5b61206882611db3565b9050602081019050919050565b82818337600083830152505050565b600061209761209284612044565b612029565b9050828152602081018484840111156120b3576120b2611fc4565b5b6120be848285612075565b509392505050565b600082601f8301126120db576120da611fbf565b5b81356120eb848260208601612084565b91505092915050565b600080600080600060a086880312156121105761210f611e29565b5b600061211e88828901611e4a565b955050602061212f88828901611e4a565b945050604061214088828901611e80565b935050606086013567ffffffffffffffff81111561216157612160611e2e565b5b61216d888289016120c6565b925050608086013567ffffffffffffffff81111561218e5761218d611e2e565b5b61219a888289016120c6565b9150509295509295909350565b6000602082840312156121bd576121bc611e29565b5b60006121cb84828501611e4a565b91505092915050565b6000806000606084860312156121ed576121ec611e29565b5b60006121fb86828701611e4a565b935050602061220c86828701611e80565b925050604084013567ffffffffffffffff81111561222d5761222c611e2e565b5b612239868287016120c6565b9150509250925092565b6000806040838503121561225a57612259611e29565b5b600061226885828601611e4a565b925050602061227985828601611e4a565b9150509250929050565b6000806000806080858703121561229d5761229c611e29565b5b60006122ab87828801611e4a565b94505060206122bc87828801611e80565b935050604085013567ffffffffffffffff8111156122dd576122dc611e2e565b5b6122e9878288016120c6565b925050606085013567ffffffffffffffff81111561230a57612309611e2e565b5b612316878288016120c6565b91505092959194509250565b6000806040838503121561233957612338611e29565b5b600061234785828601611e80565b925050602083013567ffffffffffffffff81111561236857612367611e2e565b5b612374858286016120c6565b9150509250929050565b7f4e487b7100000000000000000000000000000000000000000000000000000000600052602260045260246000fd5b600060028204905060018216806123c557607f821691505b6020821081036123d8576123d761237e565b5b50919050565b7f63616c6c6572206e6f742064656661756c74206f70657261746f720000000000600082015250565b6000612414601b83611d78565b915061241f826123de565b602082019050919050565b6000602082019050818103600083015261244381612407565b9050919050565b7f4552433737373a2063616c6c6572206973206e6f7420616e206f70657261746f60008201527f7220666f7220686f6c6465720000000000000000000000000000000000000000602082015250565b60006124a6602c83611d78565b91506124b18261244a565b604082019050919050565b600060208201905081810360008301526124d581612499565b9050919050565b7f4552433737373a20617574686f72697a696e672073656c66206173206f70657260008201527f61746f7200000000000000000000000000000000000000000000000000000000602082015250565b6000612538602483611d78565b9150612543826124dc565b604082019050919050565b600060208201905081810360008301526125678161252b565b9050919050565b7f4552433737373a207265766f6b696e672073656c66206173206f70657261746f60008201527f7200000000000000000000000000000000000000000000000000000000000000602082015250565b60006125ca602183611d78565b91506125d58261256e565b604082019050919050565b600060208201905081810360008301526125f9816125bd565b9050919050565b7f4552433737373a20617070726f76652066726f6d20746865207a65726f20616460008201527f6472657373000000000000000000000000000000000000000000000000000000602082015250565b600061265c602583611d78565b915061266782612600565b604082019050919050565b6000602082019050818103600083015261268b8161264f565b9050919050565b7f4552433737373a20617070726f766520746f20746865207a65726f206164647260008201527f6573730000000000000000000000000000000000000000000000000000000000602082015250565b60006126ee602383611d78565b91506126f982612692565b604082019050919050565b6000602082019050818103600083015261271d816126e1565b9050919050565b7f4552433737373a20696e73756666696369656e7420616c6c6f77616e63650000600082015250565b600061275a601e83611d78565b915061276582612724565b602082019050919050565b600060208201905081810360008301526127898161274d565b9050919050565b7f4552433737373a207472616e736665722066726f6d20746865207a65726f206160008201527f6464726573730000000000000000000000000000000000000000000000000000602082015250565b60006127ec602683611d78565b91506127f782612790565b604082019050919050565b6000602082019050818103600083015261281b816127df565b9050919050565b7f4552433737373a207472616e7366657220746f20746865207a65726f2061646460008201527f7265737300000000000000000000000000000000000000000000000000000000602082015250565b600061287e602483611d78565b915061288982612822565b604082019050919050565b600060208201905081810360008301526128ad81612871565b9050919050565b7f4552433737373a206275726e2066726f6d20746865207a65726f20616464726560008201527f7373000000000000000000000000000000000000000000000000000000000000602082015250565b6000612910602283611d78565b915061291b826128b4565b604082019050919050565b6000602082019050818103600083015261293f81612903565b9050919050565b7f4552433737373a206275726e20616d6f756e7420657863656564732062616c6160008201527f6e63650000000000000000000000000000000000000000000000000000000000602082015250565b60006129a2602383611d78565b91506129ad82612946565b604082019050919050565b600060208201905081810360008301526129d181612995565b9050919050565b7f4e487b7100000000000000000000000000000000000000000000000000000000600052601160045260246000fd5b6000612a1282611e5f565b9150612a1d83611e5f565b9250828203905081811115612a3557612a346129d8565b5b92915050565b600081519050919050565b600082825260208201905092915050565b6000612a6282612a3b565b612a6c8185612a46565b9350612a7c818560208601611d89565b612a8581611db3565b840191505092915050565b6000606082019050612aa56000830186611f0b565b8181036020830152612ab78185612a57565b90508181036040830152612acb8184612a57565b9050949350505050565b7f4552433737373a206d696e7420746f20746865207a65726f2061646472657373600082015250565b6000612b0b602083611d78565b9150612b1682612ad5565b602082019050919050565b60006020820190508181036000830152612b3a81612afe565b9050919050565b6000612b4c82611e5f565b9150612b5783611e5f565b9250828201905080821115612b6f57612b6e6129d8565b5b92915050565b612b7e81611ca7565b82525050565b6000819050919050565b612b9781612b84565b82525050565b6000604082019050612bb26000830185612b75565b612bbf6020830184612b8e565b9392505050565b600081519050612bd581611e33565b92915050565b600060208284031215612bf157612bf0611e29565b5b6000612bff84828501612bc6565b91505092915050565b600060c082019050612c1d6000830189612b75565b612c2a6020830188612b75565b612c376040830187612b75565b612c446060830186611f0b565b8181036080830152612c568185612a57565b905081810360a0830152612c6a8184612a57565b9050979650505050505050565b7f4552433737373a207472616e7366657220616d6f756e7420657863656564732060008201527f62616c616e636500000000000000000000000000000000000000000000000000602082015250565b6000612cd3602783611d78565b9150612cde82612c77565b604082019050919050565b60006020820190508181036000830152612d0281612cc6565b9050919050565b7f4552433737373a20746f6b656e20726563697069656e7420636f6e747261637460008201527f20686173206e6f20696d706c656d656e74657220666f7220455243373737546f60208201527f6b656e73526563697069656e7400000000000000000000000000000000000000604082015250565b6000612d8b604d83611d78565b9150612d9682612d09565b606082019050919050565b60006020820190508181036000830152612dba81612d7e565b905091905056fea2646970667358221220ea01d2f8bee6d1a01a4d89a977549969871f9d898a66501cd4d58f3f6b078d1864736f6c63430008130033",
  "linkReferences": {},
  "deployedLinkReferences": {}
}