{
  "_format": "hh-sol-artifact-1",
  "contractName": "AcceptDefault",
  "sourceName": "contracts/protocol/auctions/AcceptDefault.sol",
  "abi": [
    {
      "inputs": [
        {
          "internalType": "uint256",
          "name": "x",
          "type": "uint256"
        },
        {
          "internalType": "uint256",
          "name": "y",
          "type": "uint256"
        }
      ],
      "name": "PRBMath_MulDiv18_Overflow",
      "type": "error"
    },
    {
      "inputs": [
        {
          "internalType": "uint256",
          "name": "x",
          "type": "uint256"
        },
        {
          "internalType": "uint256",
          "name": "y",
          "type": "uint256"
        },
        {
          "internalType": "uint256",
          "name": "denominator",
          "type": "uint256"
        }
      ],
      "name": "PRBMath_MulDiv_Overflow",
      "type": "error"
    },
    {
      "inputs": [
        {
          "internalType": "int256",
          "name": "x",
          "type": "int256"
        }
      ],
      "name": "PRBMath_SD59x18_Convert_Overflow",
      "type": "error"
    },
    {
      "inputs": [
        {
          "internalType": "int256",
          "name": "x",
          "type": "int256"
        }
      ],
      "name": "PRBMath_SD59x18_Convert_Underflow",
      "type": "error"
    },
    {
      "inputs": [
        {
          "internalType": "SD59x18",
          "name": "x",
          "type": "int256"
        }
      ],
      "name": "PRBMath_SD59x18_Exp2_InputTooBig",
      "type": "error"
    },
    {
      "inputs": [
        {
          "internalType": "SD59x18",
          "name": "x",
          "type": "int256"
        }
      ],
      "name": "PRBMath_SD59x18_IntoUD60x18_Underflow",
      "type": "error"
    },
    {
      "inputs": [
        {
          "internalType": "SD59x18",
          "name": "x",
          "type": "int256"
        }
      ],
      "name": "PRBMath_SD59x18_Log_InputTooSmall",
      "type": "error"
    },
    {
      "inputs": [],
      "name": "PRBMath_SD59x18_Mul_InputTooSmall",
      "type": "error"
    },
    {
      "inputs": [
        {
          "internalType": "SD59x18",
          "name": "x",
          "type": "int256"
        },
        {
          "internalType": "SD59x18",
          "name": "y",
          "type": "int256"
        }
      ],
      "name": "PRBMath_SD59x18_Mul_Overflow",
      "type": "error"
    },
    {
      "inputs": [
        {
          "internalType": "uint256",
          "name": "x",
          "type": "uint256"
        }
      ],
      "name": "PRBMath_UD60x18_Convert_Overflow",
      "type": "error"
    },
    {
      "inputs": [
        {
          "internalType": "UD60x18",
          "name": "x",
          "type": "uint256"
        }
      ],
      "name": "PRBMath_UD60x18_IntoSD59x18_Overflow",
      "type": "error"
    },
    {
      "anonymous": false,
      "inputs": [
        {
          "indexed": false,
          "internalType": "uint8",
          "name": "version",
          "type": "uint8"
        }
      ],
      "name": "Initialized",
      "type": "event"
    },
    {
      "anonymous": false,
      "inputs": [
        {
          "indexed": true,
          "internalType": "address",
          "name": "previousOwner",
          "type": "address"
        },
        {
          "indexed": true,
          "internalType": "address",
          "name": "newOwner",
          "type": "address"
        }
      ],
      "name": "OwnershipTransferred",
      "type": "event"
    },
    {
      "inputs": [
        {
          "internalType": "uint256",
          "name": "",
          "type": "uint256"
        }
      ],
      "name": "_loans",
      "outputs": [
        {
          "internalType": "address",
          "name": "borrower",
          "type": "address"
        },
        {
          "internalType": "UD60x18",
          "name": "ratePerSecond",
          "type": "uint256"
        },
        {
          "internalType": "UD60x18",
          "name": "paymentPerSecond",
          "type": "uint256"
        },
        {
          "internalType": "uint256",
          "name": "startTime",
          "type": "uint256"
        },
        {
          "internalType": "uint256",
          "name": "unpaidPrincipal",
          "type": "uint256"
        },
        {
          "internalType": "uint256",
          "name": "maxDurationSeconds",
          "type": "uint256"
        },
        {
          "internalType": "uint256",
          "name": "lastPaymentTime",
          "type": "uint256"
        }
      ],
      "stateMutability": "view",
      "type": "function"
    },
    {
      "inputs": [
        {
          "internalType": "uint256",
          "name": "tokenId",
          "type": "uint256"
        },
        {
          "internalType": "uint256",
          "name": "bidIdx",
          "type": "uint256"
        }
      ],
      "name": "acceptDefaultBid",
      "outputs": [],
      "stateMutability": "nonpayable",
      "type": "function"
    },
    {
      "inputs": [
        {
          "internalType": "uint256",
          "name": "tokenId",
          "type": "uint256"
        }
      ],
      "name": "accruedInterest",
      "outputs": [
        {
          "internalType": "uint256",
          "name": "",
          "type": "uint256"
        }
      ],
      "stateMutability": "view",
      "type": "function"
    },
    {
      "inputs": [],
      "name": "availableLiquidity",
      "outputs": [
        {
          "internalType": "uint256",
          "name": "",
          "type": "uint256"
        }
      ],
      "stateMutability": "view",
      "type": "function"
    },
    {
      "inputs": [
        {
          "components": [
            {
              "internalType": "address",
              "name": "bidder",
              "type": "address"
            },
            {
              "internalType": "uint256",
              "name": "propertyValue",
              "type": "uint256"
            },
            {
              "internalType": "uint256",
              "name": "downPayment",
              "type": "uint256"
            },
            {
              "internalType": "uint256",
              "name": "maxDurationMonths",
              "type": "uint256"
            }
          ],
          "internalType": "struct IState.Bid",
          "name": "bid",
          "type": "tuple"
        }
      ],
      "name": "bidActionable",
      "outputs": [
        {
          "internalType": "bool",
          "name": "",
          "type": "bool"
        }
      ],
      "stateMutability": "view",
      "type": "function"
    },
    {
      "inputs": [
        {
          "internalType": "uint256",
          "name": "tokenId",
          "type": "uint256"
        }
      ],
      "name": "bids",
      "outputs": [
        {
          "components": [
            {
              "internalType": "address",
              "name": "bidder",
              "type": "address"
            },
            {
              "internalType": "uint256",
              "name": "propertyValue",
              "type": "uint256"
            },
            {
              "internalType": "uint256",
              "name": "downPayment",
              "type": "uint256"
            },
            {
              "internalType": "uint256",
              "name": "maxDurationMonths",
              "type": "uint256"
            }
          ],
          "internalType": "struct IState.Bid[]",
          "name": "",
          "type": "tuple[]"
        }
      ],
      "stateMutability": "view",
      "type": "function"
    },
    {
      "inputs": [],
      "name": "defaultFeeSpread",
      "outputs": [
        {
          "internalType": "UD60x18",
          "name": "",
          "type": "uint256"
        }
      ],
      "stateMutability": "view",
      "type": "function"
    },
    {
      "inputs": [
        {
          "internalType": "contract IERC20",
          "name": "_USDC",
          "type": "address"
        },
        {
          "internalType": "contract tUsdc",
          "name": "_tUSDC",
          "type": "address"
        },
        {
          "internalType": "contract TangibleNft",
          "name": "_prosperaNftContract",
          "type": "address"
        }
      ],
      "name": "initialize",
      "outputs": [],
      "stateMutability": "nonpayable",
      "type": "function"
    },
    {
      "inputs": [
        {
          "components": [
            {
              "internalType": "address",
              "name": "bidder",
              "type": "address"
            },
            {
              "internalType": "uint256",
              "name": "propertyValue",
              "type": "uint256"
            },
            {
              "internalType": "uint256",
              "name": "downPayment",
              "type": "uint256"
            },
            {
              "internalType": "uint256",
              "name": "maxDurationMonths",
              "type": "uint256"
            }
          ],
          "internalType": "struct IState.Bid",
          "name": "_bid",
          "type": "tuple"
        }
      ],
      "name": "loanBidActionable",
      "outputs": [
        {
          "internalType": "bool",
          "name": "",
          "type": "bool"
        }
      ],
      "stateMutability": "view",
      "type": "function"
    },
    {
      "inputs": [
        {
          "internalType": "uint256",
          "name": "tokenId",
          "type": "uint256"
        }
      ],
      "name": "loans",
      "outputs": [
        {
          "components": [
            {
              "internalType": "address",
              "name": "borrower",
              "type": "address"
            },
            {
              "internalType": "UD60x18",
              "name": "ratePerSecond",
              "type": "uint256"
            },
            {
              "internalType": "UD60x18",
              "name": "paymentPerSecond",
              "type": "uint256"
            },
            {
              "internalType": "uint256",
              "name": "startTime",
              "type": "uint256"
            },
            {
              "internalType": "uint256",
              "name": "unpaidPrincipal",
              "type": "uint256"
            },
            {
              "internalType": "uint256",
              "name": "maxDurationSeconds",
              "type": "uint256"
            },
            {
              "internalType": "uint256",
              "name": "lastPaymentTime",
              "type": "uint256"
            }
          ],
          "internalType": "struct IState.Loan",
          "name": "",
          "type": "tuple"
        }
      ],
      "stateMutability": "view",
      "type": "function"
    },
    {
      "inputs": [
        {
          "internalType": "uint256",
          "name": "idx",
          "type": "uint256"
        }
      ],
      "name": "loansTokenIdsAt",
      "outputs": [
        {
          "internalType": "uint256",
          "name": "tokenId",
          "type": "uint256"
        }
      ],
      "stateMutability": "view",
      "type": "function"
    },
    {
      "inputs": [],
      "name": "loansTokenIdsLength",
      "outputs": [
        {
          "internalType": "uint256",
          "name": "",
          "type": "uint256"
        }
      ],
      "stateMutability": "view",
      "type": "function"
    },
    {
      "inputs": [
        {
          "internalType": "bytes4",
          "name": "",
          "type": "bytes4"
        }
      ],
      "name": "logicTargets",
      "outputs": [
        {
          "internalType": "address",
          "name": "",
          "type": "address"
        }
      ],
      "stateMutability": "view",
      "type": "function"
    },
    {
      "inputs": [],
      "name": "maxDurationMonthsCap",
      "outputs": [
        {
          "internalType": "uint256",
          "name": "",
          "type": "uint256"
        }
      ],
      "stateMutability": "view",
      "type": "function"
    },
    {
      "inputs": [],
      "name": "maxLtv",
      "outputs": [
        {
          "internalType": "UD60x18",
          "name": "",
          "type": "uint256"
        }
      ],
      "stateMutability": "view",
      "type": "function"
    },
    {
      "inputs": [],
      "name": "monthSeconds",
      "outputs": [
        {
          "internalType": "uint256",
          "name": "",
          "type": "uint256"
        }
      ],
      "stateMutability": "view",
      "type": "function"
    },
    {
      "inputs": [],
      "name": "optimalUtilization",
      "outputs": [
        {
          "internalType": "UD60x18",
          "name": "",
          "type": "uint256"
        }
      ],
      "stateMutability": "view",
      "type": "function"
    },
    {
      "inputs": [],
      "name": "owner",
      "outputs": [
        {
          "internalType": "address",
          "name": "",
          "type": "address"
        }
      ],
      "stateMutability": "view",
      "type": "function"
    },
    {
      "inputs": [
        {
          "components": [
            {
              "internalType": "address",
              "name": "borrower",
              "type": "address"
            },
            {
              "internalType": "UD60x18",
              "name": "ratePerSecond",
              "type": "uint256"
            },
            {
              "internalType": "UD60x18",
              "name": "paymentPerSecond",
              "type": "uint256"
            },
            {
              "internalType": "uint256",
              "name": "startTime",
              "type": "uint256"
            },
            {
              "internalType": "uint256",
              "name": "unpaidPrincipal",
              "type": "uint256"
            },
            {
              "internalType": "uint256",
              "name": "maxDurationSeconds",
              "type": "uint256"
            },
            {
              "internalType": "uint256",
              "name": "lastPaymentTime",
              "type": "uint256"
            }
          ],
          "internalType": "struct IState.Loan",
          "name": "loan",
          "type": "tuple"
        },
        {
          "internalType": "uint256",
          "name": "month",
          "type": "uint256"
        }
      ],
      "name": "principalCap",
      "outputs": [
        {
          "internalType": "uint256",
          "name": "cap",
          "type": "uint256"
        }
      ],
      "stateMutability": "pure",
      "type": "function"
    },
    {
      "inputs": [],
      "name": "redemptionFeeSpread",
      "outputs": [
        {
          "internalType": "UD60x18",
          "name": "",
          "type": "uint256"
        }
      ],
      "stateMutability": "view",
      "type": "function"
    },
    {
      "inputs": [],
      "name": "renounceOwnership",
      "outputs": [],
      "stateMutability": "nonpayable",
      "type": "function"
    },
    {
      "inputs": [
        {
          "internalType": "bytes4[]",
          "name": "selectorsArr",
          "type": "bytes4[]"
        },
        {
          "internalType": "address",
          "name": "target",
          "type": "address"
        }
      ],
      "name": "setSelectorsTarget",
      "outputs": [],
      "stateMutability": "nonpayable",
      "type": "function"
    },
    {
      "inputs": [
        {
          "internalType": "uint256",
          "name": "tokenId",
          "type": "uint256"
        }
      ],
      "name": "status",
      "outputs": [
        {
          "internalType": "enum IState.Status",
          "name": "",
          "type": "uint8"
        }
      ],
      "stateMutability": "view",
      "type": "function"
    },
    {
      "inputs": [
        {
          "internalType": "uint256",
          "name": "tokenId",
          "type": "uint256"
        }
      ],
      "name": "tokenIdBidsLength",
      "outputs": [
        {
          "internalType": "uint256",
          "name": "",
          "type": "uint256"
        }
      ],
      "stateMutability": "view",
      "type": "function"
    },
    {
      "inputs": [],
      "name": "totalDeposits",
      "outputs": [
        {
          "internalType": "uint256",
          "name": "",
          "type": "uint256"
        }
      ],
      "stateMutability": "view",
      "type": "function"
    },
    {
      "inputs": [],
      "name": "totalPrincipal",
      "outputs": [
        {
          "internalType": "uint256",
          "name": "",
          "type": "uint256"
        }
      ],
      "stateMutability": "view",
      "type": "function"
    },
    {
      "inputs": [
        {
          "internalType": "address",
          "name": "newOwner",
          "type": "address"
        }
      ],
      "name": "transferOwnership",
      "outputs": [],
      "stateMutability": "nonpayable",
      "type": "function"
    },
    {
      "inputs": [],
      "name": "yearMonths",
      "outputs": [
        {
          "internalType": "uint256",
          "name": "",
          "type": "uint256"
        }
      ],
      "stateMutability": "view",
      "type": "function"
    },
    {
      "inputs": [],
      "name": "yearSeconds",
      "outputs": [
        {
          "internalType": "uint256",
          "name": "",
          "type": "uint256"
        }
      ],
      "stateMutability": "view",
      "type": "function"
    }
  ],
  "bytecode": "0x60806040526200003b6200001a60646200022960201b60201c565b6200002c605a6200022960201b60201c565b620002ba60201b90919060201c565b600755620000756200005460646200022960201b60201c565b6200006660046200022960201b60201c565b620002ba60201b90919060201c565b600855620000af6200008e60646200022960201b60201c565b620000a060036200022960201b60201c565b620002ba60201b90919060201c565b600955620000c460096200022960201b60201c565b600a55620000fe620000dd60646200022960201b60201c565b620000ef60016200022960201b60201c565b620002ba60201b90919060201c565b600b55620001386200011760646200022960201b60201c565b6200012960026200022960201b60201c565b620002ba60201b90919060201c565b600c55620001726200015160646200022960201b60201c565b6200016360036200022960201b60201c565b620002ba60201b90919060201c565b600d55620001ac6200018b60646200022960201b60201c565b6200019d60046200022960201b60201c565b620002ba60201b90919060201c565b600e55623b5380601455620001ed620001cc60646200022960201b60201c565b620001de60326200022960201b60201c565b620002ba60201b90919060201c565b60155560786016553480156200020257600080fd5b5062000223620002176200030f60201b60201c565b6200031760201b60201c565b620005ed565b6000670de0b6b3a76400007fffffffffffffffffffffffffffffffffffffffffffffffffffffffffffffffff6200026191906200054a565b821115620002a857816040517f1cd951a70000000000000000000000000000000000000000000000000000000081526004016200029f919062000593565b60405180910390fd5b670de0b6b3a764000082029050919050565b600062000307620002fb620002d585620003db60201b60201c565b670de0b6b3a7640000620002ef86620003db60201b60201c565b620003e560201b60201c565b6200050760201b60201c565b905092915050565b600033905090565b60008060009054906101000a900473ffffffffffffffffffffffffffffffffffffffff169050816000806101000a81548173ffffffffffffffffffffffffffffffffffffffff021916908373ffffffffffffffffffffffffffffffffffffffff1602179055508173ffffffffffffffffffffffffffffffffffffffff168173ffffffffffffffffffffffffffffffffffffffff167f8be0079c531659141344cd1fd0a4f28419497f9722a3daafe3b4186f6b6457e060405160405180910390a35050565b6000819050919050565b600080600080198587098587029250828110838203039150506000810362000425578382816200041a57620004196200051b565b5b049250505062000500565b83811062000470578585856040517f63a057780000000000000000000000000000000000000000000000000000000081526004016200046793929190620005b0565b60405180910390fd5b60008486880990508281118203915080830392506000600186190186169050600081870496508185049450600182836000030401905080840285179450600060028860030218905080880260020381029050808802600203810290508088026002038102905080880260020381029050808802600203810290508088026002038102905080860296505050505050505b9392505050565b6000819050919050565b6000819050919050565b7f4e487b7100000000000000000000000000000000000000000000000000000000600052601260045260246000fd5b6000620005578262000511565b9150620005648362000511565b9250826200057757620005766200051b565b5b828204905092915050565b6200058d8162000511565b82525050565b6000602082019050620005aa600083018462000582565b92915050565b6000606082019050620005c7600083018662000582565b620005d6602083018562000582565b620005e5604083018462000582565b949350505050565b61487680620005fd6000396000f3fe608060405234801561001057600080fd5b50600436106101cf5760003560e01c80637d88209711610104578063bcff3e3b116100a2578063e1ec3c6811610071578063e1ec3c6814610564578063e343504414610594578063f2fde38b146105b0578063ff9ad6df146105cc576101cf565b8063bcff3e3b146104c6578063bd5c569b146104f6578063c0c53b8b1461052c578063ca03eb7314610548576101cf565b80638da5cb5b116100de5780638da5cb5b1461043c578063a0024c2f1461045a578063a54cab1c1461048a578063ab01f7e1146104a8576101cf565b80637d882097146103e2578063812cf0181461040057806387ae0dbe1461041e576101cf565b80634423c5f1116101715780636290cd1c1161014b5780636290cd1c1461036c578063715018a61461038a578063743753591461039457806374bdf96a146103b2576101cf565b80634423c5f1146103005780634abb3003146103305780634b1533b21461034e576101cf565b80632da10923116101ad5780632da10923146102645780633a12c6da146102945780633ca36db6146102b257806342d21ef7146102d0576101cf565b80630a9cc0b6146101d457806317548b79146102045780631cc03c8714610234575b600080fd5b6101ee60048036038101906101e991906134d3565b6105ea565b6040516101fb919061351b565b60405180910390f35b61021e6004803603810190610219919061358e565b61065f565b60405161022b91906135ca565b60405180910390f35b61024e600480360381019061024991906136c5565b610692565b60405161025b9190613715565b60405180910390f35b61027e60048036038101906102799190613730565b6107f4565b60405161028b9190613715565b60405180910390f35b61029c610814565b6040516102a99190613798565b60405180910390f35b6102ba61081a565b6040516102c79190613798565b60405180910390f35b6102ea60048036038101906102e59190613730565b610824565b6040516102f7919061382a565b60405180910390f35b61031a60048036038101906103159190613730565b61096b565b6040516103279190613967565b60405180910390f35b610338610a51565b6040516103459190613798565b60405180910390f35b610356610a5b565b6040516103639190613715565b60405180910390f35b610374610a61565b6040516103819190613798565b60405180910390f35b610392610a67565b005b61039c610a7b565b6040516103a99190613715565b60405180910390f35b6103cc60048036038101906103c79190613730565b610a92565b6040516103d99190613715565b60405180910390f35b6103ea610aaf565b6040516103f79190613715565b60405180910390f35b610408610ab5565b6040516104159190613715565b60405180910390f35b610426610aba565b6040516104339190613715565b60405180910390f35b610444610ac2565b60405161045191906135ca565b60405180910390f35b610474600480360381019061046f91906134d3565b610aeb565b604051610481919061351b565b60405180910390f35b610492610b0f565b60405161049f9190613715565b60405180910390f35b6104b0610b15565b6040516104bd9190613715565b60405180910390f35b6104e060048036038101906104db9190613730565b610b26565b6040516104ed9190613715565b60405180910390f35b610510600480360381019061050b9190613730565b610be7565b6040516105239796959493929190613989565b60405180910390f35b61054660048036038101906105419190613ab2565b610c49565b005b610562600480360381019061055d9190613b05565b610e4b565b005b61057e60048036038101906105799190613730565b611480565b60405161058b9190613be2565b60405180910390f35b6105ae60048036038101906105a99190613c62565b61153f565b005b6105ca60048036038101906105c59190613cc2565b611625565b005b6105d46116a8565b6040516105e19190613715565b60405180910390f35b600080826040015183602001516106019190613d1e565b9050600061062c61061585602001516116bc565b61061e846116bc565b61174890919063ffffffff16565b90506106436015548261177d90919063ffffffff16565b80156106565750610652610a7b565b8211155b92505050919050565b60016020528060005260406000206000915054906101000a900473ffffffffffffffffffffffffffffffffffffffff1681565b600061069d8361179b565b8211156106df576040517f08c379a00000000000000000000000000000000000000000000000000000000081526004016106d690613dd5565b60405180910390fd5b6000600c6301e133806106f29190613e24565b836106fd9190613e55565b9050600061074361070e60016117c4565b61073561071e8860a001516117c4565b610727866117c4565b6118c890919063ffffffff16565b6118c890919063ffffffff16565b9050600061079c610784836107766107718a6020015161076360016116bc565b6118f690919063ffffffff16565b611924565b61199890919063ffffffff16565b61078e60016117c4565b6118c890919063ffffffff16565b905060006107c76107c2836107b48a60400151611924565b611a5690919063ffffffff16565b611be6565b90506107e86107e388602001518361174890919063ffffffff16565b611c3b565b94505050505092915050565b6000600f6000838152602001908152602001600020805490509050919050565b60155481565b6000600d54905090565b600080601060008481526020019081526020016000206040518060e00160405290816000820160009054906101000a900473ffffffffffffffffffffffffffffffffffffffff1673ffffffffffffffffffffffffffffffffffffffff1673ffffffffffffffffffffffffffffffffffffffff16815260200160018201548152602001600282015481526020016003820154815260200160048201548152602001600582015481526020016006820154815250509050600073ffffffffffffffffffffffffffffffffffffffff16816000015173ffffffffffffffffffffffffffffffffffffffff160361091b576000915050610966565b61092483611c58565b1561096057600061093482611d6d565b4261093f9190613d1e565b9050601454811161095557600292505050610966565b600392505050610966565b60019150505b919050565b6060600f6000838152602001908152602001600020805480602002602001604051908101604052809291908181526020016000905b82821015610a4657838290600052602060002090600402016040518060800160405290816000820160009054906101000a900473ffffffffffffffffffffffffffffffffffffffff1673ffffffffffffffffffffffffffffffffffffffff1673ffffffffffffffffffffffffffffffffffffffff1681526020016001820154815260200160028201548152602001600382015481525050815260200190600101906109a0565b505050509050919050565b6000600e54905090565b60055481565b60075481565b610a6f611e18565b610a796000611e96565b565b6000600554600654610a8d9190613d1e565b905090565b6000610aa8826011611f5a90919063ffffffff16565b9050919050565b60065481565b600c81565b6301e1338081565b60008060009054906101000a900473ffffffffffffffffffffffffffffffffffffffff16905090565b6000816040015182602001511480610b085750610b07826105ea565b5b9050919050565b60165481565b6000610b216011611f74565b905090565b6000610be0601060008481526020019081526020016000206040518060e00160405290816000820160009054906101000a900473ffffffffffffffffffffffffffffffffffffffff1673ffffffffffffffffffffffffffffffffffffffff1673ffffffffffffffffffffffffffffffffffffffff1681526020016001820154815260200160028201548152602001600382015481526020016004820154815260200160058201548152602001600682015481525050611f89565b9050919050565b60106020528060005260406000206000915090508060000160009054906101000a900473ffffffffffffffffffffffffffffffffffffffff16908060010154908060020154908060030154908060040154908060050154908060060154905087565b6000600260019054906101000a900460ff16159050808015610c7d57506001600260009054906101000a900460ff1660ff16105b80610cac5750610c8c30611fc1565b158015610cab57506001600260009054906101000a900460ff1660ff16145b5b610ceb576040517f08c379a0000000000000000000000000000000000000000000000000000000008152600401610ce290613f09565b60405180910390fd5b6001600260006101000a81548160ff021916908360ff1602179055508015610d29576001600260016101000a81548160ff0219169083151502179055505b836002806101000a81548173ffffffffffffffffffffffffffffffffffffffff021916908373ffffffffffffffffffffffffffffffffffffffff16021790555082600360006101000a81548173ffffffffffffffffffffffffffffffffffffffff021916908373ffffffffffffffffffffffffffffffffffffffff16021790555081600460006101000a81548173ffffffffffffffffffffffffffffffffffffffff021916908373ffffffffffffffffffffffffffffffffffffffff1602179055508015610e45576000600260016101000a81548160ff0219169083151502179055507f7f26b83ff96e1f2b6a682f133852f6798a09c465da95921460cefb38474024986001604051610e3c9190613f71565b60405180910390a15b50505050565b6000601060008481526020019081526020016000206040518060e00160405290816000820160009054906101000a900473ffffffffffffffffffffffffffffffffffffffff1673ffffffffffffffffffffffffffffffffffffffff1673ffffffffffffffffffffffffffffffffffffffff1681526020016001820154815260200160028201548152602001600382015481526020016004820154815260200160058201548152602001600682015481525050905060026003811115610f1357610f126137b3565b5b610f1c84610824565b6003811115610f2e57610f2d6137b3565b5b14610f6e576040517f08c379a0000000000000000000000000000000000000000000000000000000008152600401610f6590613fd8565b60405180910390fd5b806000015173ffffffffffffffffffffffffffffffffffffffff163373ffffffffffffffffffffffffffffffffffffffff1614610fe0576040517f08c379a0000000000000000000000000000000000000000000000000000000008152600401610fd790614044565b60405180910390fd5b6000600f6000858152602001908152602001600020838154811061100757611006614064565b5b90600052602060002090600402016040518060800160405290816000820160009054906101000a900473ffffffffffffffffffffffffffffffffffffffff1673ffffffffffffffffffffffffffffffffffffffff1673ffffffffffffffffffffffffffffffffffffffff1681526020016001820154815260200160028201548152602001600382015481525050905060006110c16110bc600b546110ae85602001516116bc565b611fe490919063ffffffff16565b611c3b565b905060006110ee6110e9600e546110db86602001516116bc565b611fe490919063ffffffff16565b611c3b565b905080826110fc9190614093565b6013600082825461110d9190614093565b92505081905550600061111f87610b26565b90508460800151600560008282546111379190613d1e565b9250508190555080600660008282546111509190614093565b925050819055506000828483886080015161116b9190614093565b6111759190614093565b61117f9190614093565b905080856020015110156111c8576040517f08c379a00000000000000000000000000000000000000000000000000000000081526004016111bf90614113565b60405180910390fd5b60008186602001516111da9190613d1e565b905061122b87600001518260028054906101000a900473ffffffffffffffffffffffffffffffffffffffff1673ffffffffffffffffffffffffffffffffffffffff166120109092919063ffffffff16565b85604001518660200151036112d457600460009054906101000a900473ffffffffffffffffffffffffffffffffffffffff1673ffffffffffffffffffffffffffffffffffffffff166342842e0e3088600001518c6040518463ffffffff1660e01b815260040161129d93929190614133565b600060405180830381600087803b1580156112b757600080fd5b505af11580156112cb573d6000803e3d6000fd5b50505050611475565b6000866040015187602001516112ea9190613d1e565b9050600060016000630feee81e60e01b7bffffffffffffffffffffffffffffffffffffffffffffffffffffffff19167bffffffffffffffffffffffffffffffffffffffffffffffffffffffff1916815260200190815260200160002060009054906101000a900473ffffffffffffffffffffffffffffffffffffffff1673ffffffffffffffffffffffffffffffffffffffff1688600001518c848b6060015160405160240161139c949392919061416a565b604051602081830303815290604052630feee81e60e01b6020820180517bffffffffffffffffffffffffffffffffffffffffffffffffffffffff83818316178352505050506040516113ee9190614220565b600060405180830381855af49150503d8060008114611429576040519150601f19603f3d011682016040523d82523d6000602084013e61142e565b606091505b5050905080611472576040517f08c379a000000000000000000000000000000000000000000000000000000000815260040161146990614283565b60405180910390fd5b50505b505050505050505050565b6114886132cf565b601060008381526020019081526020016000206040518060e00160405290816000820160009054906101000a900473ffffffffffffffffffffffffffffffffffffffff1673ffffffffffffffffffffffffffffffffffffffff1673ffffffffffffffffffffffffffffffffffffffff16815260200160018201548152602001600282015481526020016003820154815260200160048201548152602001600582015481526020016006820154815250509050919050565b611547611e18565b60005b8383905081101561161f57816001600086868581811061156d5761156c614064565b5b9050602002016020810190611582919061358e565b7bffffffffffffffffffffffffffffffffffffffffffffffffffffffff19167bffffffffffffffffffffffffffffffffffffffffffffffffffffffff1916815260200190815260200160002060006101000a81548173ffffffffffffffffffffffffffffffffffffffff021916908373ffffffffffffffffffffffffffffffffffffffff1602179055508080611617906142a3565b91505061154a565b50505050565b61162d611e18565b600073ffffffffffffffffffffffffffffffffffffffff168173ffffffffffffffffffffffffffffffffffffffff160361169c576040517f08c379a00000000000000000000000000000000000000000000000000000000081526004016116939061435d565b60405180910390fd5b6116a581611e96565b50565b600c6301e133806116b99190613e24565b81565b6000670de0b6b3a76400007fffffffffffffffffffffffffffffffffffffffffffffffffffffffffffffffff6116f29190613e24565b82111561173657816040517f1cd951a700000000000000000000000000000000000000000000000000000000815260040161172d9190613715565b60405180910390fd5b670de0b6b3a764000082029050919050565b600061177561177061175985612096565b670de0b6b3a764000061176b86612096565b6120a0565b6121ba565b905092915050565b600061178882612096565b61179184612096565b1115905092915050565b60006301e133808260a00151600c6117b39190613e55565b6117bd9190613e24565b9050919050565b6000670de0b6b3a76400007f80000000000000000000000000000000000000000000000000000000000000006117fa9190614387565b82121561183e57816040517f99474eeb0000000000000000000000000000000000000000000000000000000081526004016118359190614400565b60405180910390fd5b670de0b6b3a76400007f7fffffffffffffffffffffffffffffffffffffffffffffffffffffffffffffff6118729190614387565b8213156118b657816040517f9d5810910000000000000000000000000000000000000000000000000000000081526004016118ad9190614400565b60405180910390fd5b670de0b6b3a764000082029050919050565b60006118ee6118d6836121c4565b6118df856121c4565b6118e9919061441b565b6121ce565b905092915050565b600061191c61190483612096565b61190d85612096565b6119179190614093565b6121ba565b905092915050565b6000808290507f7fffffffffffffffffffffffffffffffffffffffffffffffffffffffffffffff81111561198f57826040517ff46186840000000000000000000000000000000000000000000000000000000081526004016119869190613798565b60405180910390fd5b80915050919050565b6000806119a4846121c4565b905060006119b1846121c4565b9050600082036119dd57600081146119ca5760006119d4565b670de0b6b3a76400005b92505050611a50565b670de0b6b3a764000082036119fe57670de0b6b3a764000092505050611a50565b60008103611a1857670de0b6b3a764000092505050611a50565b670de0b6b3a76400008103611a31578492505050611a50565b611a4b611a46611a40876121d8565b86611a56565b61236b565b925050505b92915050565b600080611a62846121c4565b90506000611a6f846121c4565b90507f8000000000000000000000000000000000000000000000000000000000000000821480611abe57507f800000000000000000000000000000000000000000000000000000000000000081145b15611af5576040517fa6070c2500000000000000000000000000000000000000000000000000000000815260040160405180910390fd5b60008060008412611b065783611b0b565b836000035b915060008312611b1b5782611b20565b826000035b90506000611b2e8383612489565b90507f7fffffffffffffffffffffffffffffffffffffffffffffffffffffffffffffff811115611b975787876040517f120b5b43000000000000000000000000000000000000000000000000000000008152600401611b8e92919061448f565b60405180910390fd5b60007fffffffffffffffffffffffffffffffffffffffffffffffffffffffffffffffff858718139050611bd881611bd15782600003611bd3565b825b6121ce565b965050505050505092915050565b6000808290506000811215611c3257826040517fbba41a15000000000000000000000000000000000000000000000000000000008152600401611c2991906144b8565b60405180910390fd5b80915050919050565b6000670de0b6b3a764000082611c519190613e24565b9050919050565b600080601060008481526020019081526020016000206040518060e00160405290816000820160009054906101000a900473ffffffffffffffffffffffffffffffffffffffff1673ffffffffffffffffffffffffffffffffffffffff1673ffffffffffffffffffffffffffffffffffffffff168152602001600182015481526020016002820154815260200160038201548152602001600482015481526020016005820154815260200160068201548152505090506000611d1882612573565b90506000600c6301e133808460a00151611d329190613e24565b611d3c9190613e55565b905080821115611d525760019350505050611d68565b611d5c8383610692565b83608001511193505050505b919050565b600080611d7983612573565b905060008190505b6000811115611e11576000611d968583610692565b90506000611db086600185611dab9190613d1e565b610692565b9050818660800151118015611dc9575080866080015111155b15611dfc57600c6301e13380611ddf9190613e24565b83611dea9190613e55565b8660600151611df99190614093565b94505b50508080611e09906144d3565b915050611d81565b5050919050565b611e206125c8565b73ffffffffffffffffffffffffffffffffffffffff16611e3e610ac2565b73ffffffffffffffffffffffffffffffffffffffff1614611e94576040517f08c379a0000000000000000000000000000000000000000000000000000000008152600401611e8b90614548565b60405180910390fd5b565b60008060009054906101000a900473ffffffffffffffffffffffffffffffffffffffff169050816000806101000a81548173ffffffffffffffffffffffffffffffffffffffff021916908373ffffffffffffffffffffffffffffffffffffffff1602179055508173ffffffffffffffffffffffffffffffffffffffff168173ffffffffffffffffffffffffffffffffffffffff167f8be0079c531659141344cd1fd0a4f28419497f9722a3daafe3b4186f6b6457e060405160405180910390a35050565b6000611f6983600001836125d0565b60001c905092915050565b6000611f82826000016125fb565b9050919050565b6000611fba611fb5611f9a8461260c565b611fa785608001516116bc565b611fe490919063ffffffff16565b611c3b565b9050919050565b6000808273ffffffffffffffffffffffffffffffffffffffff163b119050919050565b6000612008612003611ff585612096565b611ffe85612096565b612489565b6121ba565b905092915050565b6120918363a9059cbb60e01b848460405160240161202f929190614568565b604051602081830303815290604052907bffffffffffffffffffffffffffffffffffffffffffffffffffffffff19166020820180517bffffffffffffffffffffffffffffffffffffffffffffffffffffffff838183161783525050505061263c565b505050565b6000819050919050565b60008060008019858709858702925082811083820303915050600081036120db578382816120d1576120d0613df5565b5b04925050506121b3565b838110612123578585856040517f63a0577800000000000000000000000000000000000000000000000000000000815260040161211a93929190614591565b60405180910390fd5b60008486880990508281118203915080830392506000600186190186169050600081870496508185049450600182836000030401905080840285179450600060028860030218905080880260020381029050808802600203810290508088026002038102905080880260020381029050808802600203810290508088026002038102905080860296505050505050505b9392505050565b6000819050919050565b6000819050919050565b6000819050919050565b6000806121e4836121c4565b90506000811361222b57826040517f059b101b00000000000000000000000000000000000000000000000000000000815260040161222291906144b8565b60405180910390fd5b6000670de0b6b3a76400008212612245576001905061228b565b7fffffffffffffffffffffffffffffffffffffffffffffffffffffffffffffffff9050816ec097ce7bc90715b34b9f10000000008161228757612286613df5565b5b0591505b60006122ae670de0b6b3a764000084816122a8576122a7613df5565b5b05612703565b90506000670de0b6b3a76400008202905060008285901d9050670de0b6b3a764000081036122ed576122e18483026121ce565b95505050505050612366565b6000671bc16d674ec80000905060006706f05b59d3b2000090505b600081131561234e57670de0b6b3a76400008384028161232b5761232a613df5565b5b059250818312612342578084019350600183901d92505b600181901d9050612308565b50848302925061235d836121ce565b96505050505050505b919050565b600080612377836121c4565b905060008112156123fe577ffffffffffffffffffffffffffffffffffffffffffffffffcc22e87f6eb468eeb8112156123b4576000915050612484565b6123f76123d36123ce6123c9846000036121ce565b61236b565b6121c4565b6ec097ce7bc90715b34b9f1000000000816123f1576123f0613df5565b5b056121ce565b9150612482565b680a688906bd8affffff81131561244c57826040517f0360d02800000000000000000000000000000000000000000000000000000000815260040161244391906144b8565b60405180910390fd5b6000670de0b6b3a7640000604083901b8161246a57612469613df5565b5b05905061247e612479826127ac565b6121ce565b9250505b505b919050565b60008060008019848609848602925082811083820303915050600081036124cc57670de0b6b3a764000082816124c2576124c1613df5565b5b049250505061256d565b670de0b6b3a7640000811061251a5784846040517f5173648d0000000000000000000000000000000000000000000000000000000081526004016125119291906145c8565b60405180910390fd5b6000670de0b6b3a764000085870990507faccb18165bd6fe31ae1cf318dc5b51eee0e1ba569b88cd74c1773b91fac106696001620400008060000304018483118403026204000083860304170293505050505b92915050565b600080600c6301e133806125879190613e24565b8360600151426125979190613d1e565b6125a19190613e24565b905060006125ae8461179b565b90508082116125bd57816125bf565b805b92505050919050565b600033905090565b60008260000182815481106125e8576125e7614064565b5b9060005260206000200154905092915050565b600081600001805490509050919050565b600061263561262261261d8461310c565b6116bc565b8360200151611fe490919063ffffffff16565b9050919050565b600061269e826040518060400160405280602081526020017f5361666545524332303a206c6f772d6c6576656c2063616c6c206661696c65648152508573ffffffffffffffffffffffffffffffffffffffff166131259092919063ffffffff16565b90506000815111156126fe57808060200190518101906126be919061461d565b6126fd576040517f08c379a00000000000000000000000000000000000000000000000000000000081526004016126f4906146bc565b60405180910390fd5b5b505050565b60006fffffffffffffffffffffffffffffffff821160071b82811c925080821791505067ffffffffffffffff821160061b82811c925080821791505063ffffffff821160051b82811c925080821791505061ffff821160041b82811c925080821791505060ff821160031b82811c9250808217915050600f821160021b82811c92508082179150506003821160011b82811c925080821791505060018211808217915050919050565b6000778000000000000000000000000000000000000000000000009050600067ff000000000000008316111561290d5760006780000000000000008316111561280257604068016a09e667f3bcc9098202901c90505b6000674000000000000000831611156128285760406801306fe0a31b7152df8202901c90505b60006720000000000000008316111561284e5760406801172b83c7d517adce8202901c90505b60006710000000000000008316111561287457604068010b5586cf9890f62a8202901c90505b60006708000000000000008316111561289a5760406801059b0d31585743ae8202901c90505b6000670400000000000000831611156128c0576040680102c9a3e778060ee78202901c90505b6000670200000000000000831611156128e657604068010163da9fb33356d88202901c90505b60006701000000000000008316111561290c576040680100b1afa5abcbed618202901c90505b5b600066ff00000000000083161115612a4857600066800000000000008316111561294457604068010058c86da1c09ea28202901c90505b60006640000000000000831611156129695760406801002c605e2e8cec508202901c90505b600066200000000000008316111561298e576040680100162f3904051fa18202901c90505b60006610000000000000831611156129b35760406801000b175effdc76ba8202901c90505b60006608000000000000831611156129d8576040680100058ba01fb9f96d8202901c90505b60006604000000000000831611156129fd57604068010002c5cc37da94928202901c90505b6000660200000000000083161115612a225760406801000162e525ee05478202901c90505b6000660100000000000083161115612a4757604068010000b17255775c048202901c90505b5b600065ff000000000083161115612b7a5760006580000000000083161115612a7d5760406801000058b91b5bc9ae8202901c90505b60006540000000000083161115612aa1576040680100002c5c89d5ec6d8202901c90505b60006520000000000083161115612ac557604068010000162e43f4f8318202901c90505b60006510000000000083161115612ae9576040680100000b1721bcfc9a8202901c90505b60006508000000000083161115612b0d57604068010000058b90cf1e6e8202901c90505b60006504000000000083161115612b315760406801000002c5c863b73f8202901c90505b60006502000000000083161115612b55576040680100000162e430e5a28202901c90505b60006501000000000083161115612b795760406801000000b1721835518202901c90505b5b600064ff0000000083161115612ca357600064800000000083161115612bad576040680100000058b90c0b498202901c90505b600064400000000083161115612bd057604068010000002c5c8601cc8202901c90505b600064200000000083161115612bf35760406801000000162e42fff08202901c90505b600064100000000083161115612c1657604068010000000b17217fbb8202901c90505b600064080000000083161115612c395760406801000000058b90bfce8202901c90505b600064040000000083161115612c5c576040680100000002c5c85fe38202901c90505b600064020000000083161115612c7f57604068010000000162e42ff18202901c90505b600064010000000083161115612ca2576040680100000000b17217f88202901c90505b5b600063ff00000083161115612dc3576000638000000083161115612cd457604068010000000058b90bfc8202901c90505b6000634000000083161115612cf65760406801000000002c5c85fe8202901c90505b6000632000000083161115612d18576040680100000000162e42ff8202901c90505b6000631000000083161115612d3a5760406801000000000b17217f8202901c90505b6000630800000083161115612d5c576040680100000000058b90c08202901c90505b6000630400000083161115612d7e57604068010000000002c5c8608202901c90505b6000630200000083161115612da05760406801000000000162e4308202901c90505b6000630100000083161115612dc257604068010000000000b172188202901c90505b5b600062ff000083161115612eda5760006280000083161115612df25760406801000000000058b90c8202901c90505b60006240000083161115612e13576040680100000000002c5c868202901c90505b60006220000083161115612e3457604068010000000000162e438202901c90505b60006210000083161115612e55576040680100000000000b17218202901c90505b60006208000083161115612e7657604068010000000000058b918202901c90505b60006204000083161115612e975760406801000000000002c5c88202901c90505b60006202000083161115612eb8576040680100000000000162e48202901c90505b60006201000083161115612ed95760406801000000000000b1728202901c90505b5b600061ff0083161115612fe857600061800083161115612f07576040680100000000000058b98202901c90505b600061400083161115612f2757604068010000000000002c5d8202901c90505b600061200083161115612f475760406801000000000000162e8202901c90505b600061100083161115612f6757604068010000000000000b178202901c90505b600061080083161115612f875760406801000000000000058c8202901c90505b600061040083161115612fa7576040680100000000000002c68202901c90505b600061020083161115612fc7576040680100000000000001638202901c90505b600061010083161115612fe7576040680100000000000000b18202901c90505b5b600060ff831611156130ed576000608083161115613013576040680100000000000000598202901c90505b60006040831611156130325760406801000000000000002c8202901c90505b6000602083161115613051576040680100000000000000168202901c90505b60006010831611156130705760406801000000000000000b8202901c90505b600060088316111561308f576040680100000000000000068202901c90505b60006004831611156130ae576040680100000000000000038202901c90505b60006002831611156130cd576040680100000000000000018202901c90505b60006001831611156130ec576040680100000000000000018202901c90505b5b670de0b6b3a764000081029050604082901c60bf0381901c9050919050565b60008160c001514261311e9190613d1e565b9050919050565b6060613134848460008561313d565b90509392505050565b606082471015613182576040517f08c379a00000000000000000000000000000000000000000000000000000000081526004016131799061474e565b60405180910390fd5b6000808673ffffffffffffffffffffffffffffffffffffffff1685876040516131ab9190614220565b60006040518083038185875af1925050503d80600081146131e8576040519150601f19603f3d011682016040523d82523d6000602084013e6131ed565b606091505b50915091506131fe8783838761320a565b92505050949350505050565b6060831561326c5760008351036132645761322485611fc1565b613263576040517f08c379a000000000000000000000000000000000000000000000000000000000815260040161325a906147ba565b60405180910390fd5b5b829050613277565b613276838361327f565b5b949350505050565b6000825111156132925781518083602001fd5b806040517f08c379a00000000000000000000000000000000000000000000000000000000081526004016132c6919061481e565b60405180910390fd5b6040518060e00160405280600073ffffffffffffffffffffffffffffffffffffffff1681526020016000815260200160008152602001600081526020016000815260200160008152602001600081525090565b6000604051905090565b600080fd5b600080fd5b600080fd5b6000601f19601f8301169050919050565b7f4e487b7100000000000000000000000000000000000000000000000000000000600052604160045260246000fd5b6133848261333b565b810181811067ffffffffffffffff821117156133a3576133a261334c565b5b80604052505050565b60006133b6613322565b90506133c2828261337b565b919050565b600073ffffffffffffffffffffffffffffffffffffffff82169050919050565b60006133f2826133c7565b9050919050565b613402816133e7565b811461340d57600080fd5b50565b60008135905061341f816133f9565b92915050565b6000819050919050565b61343881613425565b811461344357600080fd5b50565b6000813590506134558161342f565b92915050565b60006080828403121561347157613470613336565b5b61347b60806133ac565b9050600061348b84828501613410565b600083015250602061349f84828501613446565b60208301525060406134b384828501613446565b60408301525060606134c784828501613446565b60608301525092915050565b6000608082840312156134e9576134e861332c565b5b60006134f78482850161345b565b91505092915050565b60008115159050919050565b61351581613500565b82525050565b6000602082019050613530600083018461350c565b92915050565b60007fffffffff0000000000000000000000000000000000000000000000000000000082169050919050565b61356b81613536565b811461357657600080fd5b50565b60008135905061358881613562565b92915050565b6000602082840312156135a4576135a361332c565b5b60006135b284828501613579565b91505092915050565b6135c4816133e7565b82525050565b60006020820190506135df60008301846135bb565b92915050565b6135ee81613425565b81146135f957600080fd5b50565b60008135905061360b816135e5565b92915050565b600060e0828403121561362757613626613336565b5b61363160e06133ac565b9050600061364184828501613410565b6000830152506020613655848285016135fc565b6020830152506040613669848285016135fc565b604083015250606061367d84828501613446565b606083015250608061369184828501613446565b60808301525060a06136a584828501613446565b60a08301525060c06136b984828501613446565b60c08301525092915050565b60008061010083850312156136dd576136dc61332c565b5b60006136eb85828601613611565b92505060e06136fc85828601613446565b9150509250929050565b61370f81613425565b82525050565b600060208201905061372a6000830184613706565b92915050565b6000602082840312156137465761374561332c565b5b600061375484828501613446565b91505092915050565b6000819050919050565b600061378261377d61377884613425565b61375d565b613425565b9050919050565b61379281613767565b82525050565b60006020820190506137ad6000830184613789565b92915050565b7f4e487b7100000000000000000000000000000000000000000000000000000000600052602160045260246000fd5b600481106137f3576137f26137b3565b5b50565b6000819050613804826137e2565b919050565b6000613814826137f6565b9050919050565b61382481613809565b82525050565b600060208201905061383f600083018461381b565b92915050565b600081519050919050565b600082825260208201905092915050565b6000819050602082019050919050565b61387a816133e7565b82525050565b61388981613425565b82525050565b6080820160008201516138a56000850182613871565b5060208201516138b86020850182613880565b5060408201516138cb6040850182613880565b5060608201516138de6060850182613880565b50505050565b60006138f0838361388f565b60808301905092915050565b6000602082019050919050565b600061391482613845565b61391e8185613850565b935061392983613861565b8060005b8381101561395a57815161394188826138e4565b975061394c836138fc565b92505060018101905061392d565b5085935050505092915050565b600060208201905081810360008301526139818184613909565b905092915050565b600060e08201905061399e600083018a6135bb565b6139ab6020830189613789565b6139b86040830188613789565b6139c56060830187613706565b6139d26080830186613706565b6139df60a0830185613706565b6139ec60c0830184613706565b98975050505050505050565b6000613a03826133e7565b9050919050565b613a13816139f8565b8114613a1e57600080fd5b50565b600081359050613a3081613a0a565b92915050565b6000613a41826133e7565b9050919050565b613a5181613a36565b8114613a5c57600080fd5b50565b600081359050613a6e81613a48565b92915050565b6000613a7f826133e7565b9050919050565b613a8f81613a74565b8114613a9a57600080fd5b50565b600081359050613aac81613a86565b92915050565b600080600060608486031215613acb57613aca61332c565b5b6000613ad986828701613a21565b9350506020613aea86828701613a5f565b9250506040613afb86828701613a9d565b9150509250925092565b60008060408385031215613b1c57613b1b61332c565b5b6000613b2a85828601613446565b9250506020613b3b85828601613446565b9150509250929050565b613b4e81613767565b82525050565b60e082016000820151613b6a6000850182613871565b506020820151613b7d6020850182613b45565b506040820151613b906040850182613b45565b506060820151613ba36060850182613880565b506080820151613bb66080850182613880565b5060a0820151613bc960a0850182613880565b5060c0820151613bdc60c0850182613880565b50505050565b600060e082019050613bf76000830184613b54565b92915050565b600080fd5b600080fd5b600080fd5b60008083601f840112613c2257613c21613bfd565b5b8235905067ffffffffffffffff811115613c3f57613c3e613c02565b5b602083019150836020820283011115613c5b57613c5a613c07565b5b9250929050565b600080600060408486031215613c7b57613c7a61332c565b5b600084013567ffffffffffffffff811115613c9957613c98613331565b5b613ca586828701613c0c565b93509350506020613cb886828701613410565b9150509250925092565b600060208284031215613cd857613cd761332c565b5b6000613ce684828501613410565b91505092915050565b7f4e487b7100000000000000000000000000000000000000000000000000000000600052601160045260246000fd5b6000613d2982613425565b9150613d3483613425565b9250828203905081811115613d4c57613d4b613cef565b5b92915050565b600082825260208201905092915050565b7f6d6f6e7468206d757374206265203c3d206c6f616e4d61784475726174696f6e60008201527f4d6f6e7468730000000000000000000000000000000000000000000000000000602082015250565b6000613dbf602683613d52565b9150613dca82613d63565b604082019050919050565b60006020820190508181036000830152613dee81613db2565b9050919050565b7f4e487b7100000000000000000000000000000000000000000000000000000000600052601260045260246000fd5b6000613e2f82613425565b9150613e3a83613425565b925082613e4a57613e49613df5565b5b828204905092915050565b6000613e6082613425565b9150613e6b83613425565b9250828202613e7981613425565b91508282048414831517613e9057613e8f613cef565b5b5092915050565b7f496e697469616c697a61626c653a20636f6e747261637420697320616c72656160008201527f647920696e697469616c697a6564000000000000000000000000000000000000602082015250565b6000613ef3602e83613d52565b9150613efe82613e97565b604082019050919050565b60006020820190508181036000830152613f2281613ee6565b9050919050565b6000819050919050565b600060ff82169050919050565b6000613f5b613f56613f5184613f29565b61375d565b613f33565b9050919050565b613f6b81613f40565b82525050565b6000602082019050613f866000830184613f62565b92915050565b7f737461747573206e6f742064656661756c740000000000000000000000000000600082015250565b6000613fc2601283613d52565b9150613fcd82613f8c565b602082019050919050565b60006020820190508181036000830152613ff181613fb5565b9050919050565b7f63616c6c6572206e6f7420626f72726f77657200000000000000000000000000600082015250565b600061402e601383613d52565b915061403982613ff8565b602082019050919050565b6000602082019050818103600083015261405d81614021565b9050919050565b7f4e487b7100000000000000000000000000000000000000000000000000000000600052603260045260246000fd5b600061409e82613425565b91506140a983613425565b92508282019050808211156140c1576140c0613cef565b5b92915050565b7f70726f706572747956616c756520646f65736e277420636f7665722064656274600082015250565b60006140fd602083613d52565b9150614108826140c7565b602082019050919050565b6000602082019050818103600083015261412c816140f0565b9050919050565b600060608201905061414860008301866135bb565b61415560208301856135bb565b6141626040830184613706565b949350505050565b600060808201905061417f60008301876135bb565b61418c6020830186613706565b6141996040830185613706565b6141a66060830184613706565b95945050505050565b600081519050919050565b600081905092915050565b60005b838110156141e35780820151818401526020810190506141c8565b60008484015250505050565b60006141fa826141af565b61420481856141ba565b93506142148185602086016141c5565b80840191505092915050565b600061422c82846141ef565b915081905092915050565b7f73746172744c6f616e2064656c656761746543616c6c206661696c6564000000600082015250565b600061426d601d83613d52565b915061427882614237565b602082019050919050565b6000602082019050818103600083015261429c81614260565b9050919050565b60006142ae82613425565b91507fffffffffffffffffffffffffffffffffffffffffffffffffffffffffffffffff82036142e0576142df613cef565b5b600182019050919050565b7f4f776e61626c653a206e6577206f776e657220697320746865207a65726f206160008201527f6464726573730000000000000000000000000000000000000000000000000000602082015250565b6000614347602683613d52565b9150614352826142eb565b604082019050919050565b600060208201905081810360008301526143768161433a565b9050919050565b6000819050919050565b60006143928261437d565b915061439d8361437d565b9250826143ad576143ac613df5565b5b600160000383147f8000000000000000000000000000000000000000000000000000000000000000831416156143e6576143e5613cef565b5b828205905092915050565b6143fa8161437d565b82525050565b600060208201905061441560008301846143f1565b92915050565b60006144268261437d565b91506144318361437d565b925082820390508181126000841216828213600085121516171561445857614457613cef565b5b92915050565b600061447961447461446f8461437d565b61375d565b61437d565b9050919050565b6144898161445e565b82525050565b60006040820190506144a46000830185614480565b6144b16020830184614480565b9392505050565b60006020820190506144cd6000830184614480565b92915050565b60006144de82613425565b9150600082036144f1576144f0613cef565b5b600182039050919050565b7f4f776e61626c653a2063616c6c6572206973206e6f7420746865206f776e6572600082015250565b6000614532602083613d52565b915061453d826144fc565b602082019050919050565b6000602082019050818103600083015261456181614525565b9050919050565b600060408201905061457d60008301856135bb565b61458a6020830184613706565b9392505050565b60006060820190506145a66000830186613706565b6145b36020830185613706565b6145c06040830184613706565b949350505050565b60006040820190506145dd6000830185613706565b6145ea6020830184613706565b9392505050565b6145fa81613500565b811461460557600080fd5b50565b600081519050614617816145f1565b92915050565b6000602082840312156146335761463261332c565b5b600061464184828501614608565b91505092915050565b7f5361666545524332303a204552433230206f7065726174696f6e20646964206e60008201527f6f74207375636365656400000000000000000000000000000000000000000000602082015250565b60006146a6602a83613d52565b91506146b18261464a565b604082019050919050565b600060208201905081810360008301526146d581614699565b9050919050565b7f416464726573733a20696e73756666696369656e742062616c616e636520666f60008201527f722063616c6c0000000000000000000000000000000000000000000000000000602082015250565b6000614738602683613d52565b9150614743826146dc565b604082019050919050565b600060208201905081810360008301526147678161472b565b9050919050565b7f416464726573733a2063616c6c20746f206e6f6e2d636f6e7472616374000000600082015250565b60006147a4601d83613d52565b91506147af8261476e565b602082019050919050565b600060208201905081810360008301526147d381614797565b9050919050565b600081519050919050565b60006147f0826147da565b6147fa8185613d52565b935061480a8185602086016141c5565b6148138161333b565b840191505092915050565b6000602082019050818103600083015261483881846147e5565b90509291505056fea264697066735822122017b82bdc10f84606bb1fb17494c59b0927e0d21e07a55c32e23ed66b3169e73764736f6c63430008130033",
  "linkReferences": {},
  "deployedLinkReferences": {}
}