{
  "_format": "hh-sol-artifact-1",
  "contractName": "AcceptDefault",
  "sourceName": "contracts/protocol/auctions/AcceptDefault.sol",
  "abi": [
    {
      "inputs": [
        {
          "internalType": "uint256",
          "name": "x",
          "type": "uint256"
        },
        {
          "internalType": "uint256",
          "name": "y",
          "type": "uint256"
        }
      ],
      "name": "PRBMath_MulDiv18_Overflow",
      "type": "error"
    },
    {
      "inputs": [
        {
          "internalType": "uint256",
          "name": "x",
          "type": "uint256"
        },
        {
          "internalType": "uint256",
          "name": "y",
          "type": "uint256"
        },
        {
          "internalType": "uint256",
          "name": "denominator",
          "type": "uint256"
        }
      ],
      "name": "PRBMath_MulDiv_Overflow",
      "type": "error"
    },
    {
      "inputs": [
        {
          "internalType": "int256",
          "name": "x",
          "type": "int256"
        }
      ],
      "name": "PRBMath_SD59x18_Convert_Overflow",
      "type": "error"
    },
    {
      "inputs": [
        {
          "internalType": "int256",
          "name": "x",
          "type": "int256"
        }
      ],
      "name": "PRBMath_SD59x18_Convert_Underflow",
      "type": "error"
    },
    {
      "inputs": [
        {
          "internalType": "SD59x18",
          "name": "x",
          "type": "int256"
        }
      ],
      "name": "PRBMath_SD59x18_Exp2_InputTooBig",
      "type": "error"
    },
    {
      "inputs": [
        {
          "internalType": "SD59x18",
          "name": "x",
          "type": "int256"
        }
      ],
      "name": "PRBMath_SD59x18_IntoUD60x18_Underflow",
      "type": "error"
    },
    {
      "inputs": [
        {
          "internalType": "SD59x18",
          "name": "x",
          "type": "int256"
        }
      ],
      "name": "PRBMath_SD59x18_Log_InputTooSmall",
      "type": "error"
    },
    {
      "inputs": [],
      "name": "PRBMath_SD59x18_Mul_InputTooSmall",
      "type": "error"
    },
    {
      "inputs": [
        {
          "internalType": "SD59x18",
          "name": "x",
          "type": "int256"
        },
        {
          "internalType": "SD59x18",
          "name": "y",
          "type": "int256"
        }
      ],
      "name": "PRBMath_SD59x18_Mul_Overflow",
      "type": "error"
    },
    {
      "inputs": [
        {
          "internalType": "uint256",
          "name": "x",
          "type": "uint256"
        }
      ],
      "name": "PRBMath_UD60x18_Convert_Overflow",
      "type": "error"
    },
    {
      "inputs": [
        {
          "internalType": "UD60x18",
          "name": "x",
          "type": "uint256"
        }
      ],
      "name": "PRBMath_UD60x18_IntoSD59x18_Overflow",
      "type": "error"
    },
    {
      "anonymous": false,
      "inputs": [
        {
          "indexed": false,
          "internalType": "uint8",
          "name": "version",
          "type": "uint8"
        }
      ],
      "name": "Initialized",
      "type": "event"
    },
    {
      "anonymous": false,
      "inputs": [
        {
          "indexed": true,
          "internalType": "address",
          "name": "previousOwner",
          "type": "address"
        },
        {
          "indexed": true,
          "internalType": "address",
          "name": "newOwner",
          "type": "address"
        }
      ],
      "name": "OwnershipTransferred",
      "type": "event"
    },
    {
      "inputs": [
        {
          "internalType": "uint256",
          "name": "",
          "type": "uint256"
        }
      ],
      "name": "_loans",
      "outputs": [
        {
          "internalType": "address",
          "name": "borrower",
          "type": "address"
        },
        {
          "internalType": "UD60x18",
          "name": "ratePerSecond",
          "type": "uint256"
        },
        {
          "internalType": "UD60x18",
          "name": "paymentPerSecond",
          "type": "uint256"
        },
        {
          "internalType": "uint256",
          "name": "startTime",
          "type": "uint256"
        },
        {
          "internalType": "uint256",
          "name": "unpaidPrincipal",
          "type": "uint256"
        },
        {
          "internalType": "uint256",
          "name": "maxDurationSeconds",
          "type": "uint256"
        },
        {
          "internalType": "uint256",
          "name": "lastPaymentTime",
          "type": "uint256"
        }
      ],
      "stateMutability": "view",
      "type": "function"
    },
    {
      "inputs": [
        {
          "internalType": "uint256",
          "name": "tokenId",
          "type": "uint256"
        },
        {
          "internalType": "uint256",
          "name": "bidIdx",
          "type": "uint256"
        }
      ],
      "name": "acceptDefaultBid",
      "outputs": [],
      "stateMutability": "nonpayable",
      "type": "function"
    },
    {
      "inputs": [
        {
          "internalType": "uint256",
          "name": "tokenId",
          "type": "uint256"
        }
      ],
      "name": "accruedInterest",
      "outputs": [
        {
          "internalType": "uint256",
          "name": "",
          "type": "uint256"
        }
      ],
      "stateMutability": "view",
      "type": "function"
    },
    {
      "inputs": [],
      "name": "availableLiquidity",
      "outputs": [
        {
          "internalType": "uint256",
          "name": "",
          "type": "uint256"
        }
      ],
      "stateMutability": "view",
      "type": "function"
    },
    {
      "inputs": [
        {
          "components": [
            {
              "internalType": "address",
              "name": "bidder",
              "type": "address"
            },
            {
              "internalType": "uint256",
              "name": "propertyValue",
              "type": "uint256"
            },
            {
              "internalType": "uint256",
              "name": "downPayment",
              "type": "uint256"
            },
            {
              "internalType": "uint256",
              "name": "maxDurationMonths",
              "type": "uint256"
            }
          ],
          "internalType": "struct IState.Bid",
          "name": "bid",
          "type": "tuple"
        }
      ],
      "name": "bidActionable",
      "outputs": [
        {
          "internalType": "bool",
          "name": "",
          "type": "bool"
        }
      ],
      "stateMutability": "view",
      "type": "function"
    },
    {
      "inputs": [
        {
          "internalType": "uint256",
          "name": "tokenId",
          "type": "uint256"
        }
      ],
      "name": "bids",
      "outputs": [
        {
          "components": [
            {
              "internalType": "address",
              "name": "bidder",
              "type": "address"
            },
            {
              "internalType": "uint256",
              "name": "propertyValue",
              "type": "uint256"
            },
            {
              "internalType": "uint256",
              "name": "downPayment",
              "type": "uint256"
            },
            {
              "internalType": "uint256",
              "name": "maxDurationMonths",
              "type": "uint256"
            }
          ],
          "internalType": "struct IState.Bid[]",
          "name": "",
          "type": "tuple[]"
        }
      ],
      "stateMutability": "view",
      "type": "function"
    },
    {
      "inputs": [],
      "name": "defaultFeeSpread",
      "outputs": [
        {
          "internalType": "UD60x18",
          "name": "",
          "type": "uint256"
        }
      ],
      "stateMutability": "view",
      "type": "function"
    },
    {
      "inputs": [
        {
          "internalType": "contract tUsdc",
          "name": "_tUSDC",
          "type": "address"
        },
        {
          "internalType": "contract TangibleNft",
          "name": "_prosperaNftContract",
          "type": "address"
        }
      ],
      "name": "initialize",
      "outputs": [],
      "stateMutability": "nonpayable",
      "type": "function"
    },
    {
      "inputs": [
        {
          "components": [
            {
              "internalType": "address",
              "name": "bidder",
              "type": "address"
            },
            {
              "internalType": "uint256",
              "name": "propertyValue",
              "type": "uint256"
            },
            {
              "internalType": "uint256",
              "name": "downPayment",
              "type": "uint256"
            },
            {
              "internalType": "uint256",
              "name": "maxDurationMonths",
              "type": "uint256"
            }
          ],
          "internalType": "struct IState.Bid",
          "name": "_bid",
          "type": "tuple"
        }
      ],
      "name": "loanBidActionable",
      "outputs": [
        {
          "internalType": "bool",
          "name": "",
          "type": "bool"
        }
      ],
      "stateMutability": "view",
      "type": "function"
    },
    {
      "inputs": [
        {
          "internalType": "uint256",
          "name": "tokenId",
          "type": "uint256"
        }
      ],
      "name": "loans",
      "outputs": [
        {
          "components": [
            {
              "internalType": "address",
              "name": "borrower",
              "type": "address"
            },
            {
              "internalType": "UD60x18",
              "name": "ratePerSecond",
              "type": "uint256"
            },
            {
              "internalType": "UD60x18",
              "name": "paymentPerSecond",
              "type": "uint256"
            },
            {
              "internalType": "uint256",
              "name": "startTime",
              "type": "uint256"
            },
            {
              "internalType": "uint256",
              "name": "unpaidPrincipal",
              "type": "uint256"
            },
            {
              "internalType": "uint256",
              "name": "maxDurationSeconds",
              "type": "uint256"
            },
            {
              "internalType": "uint256",
              "name": "lastPaymentTime",
              "type": "uint256"
            }
          ],
          "internalType": "struct IState.Loan",
          "name": "",
          "type": "tuple"
        }
      ],
      "stateMutability": "view",
      "type": "function"
    },
    {
      "inputs": [
        {
          "internalType": "uint256",
          "name": "idx",
          "type": "uint256"
        }
      ],
      "name": "loansTokenIdsAt",
      "outputs": [
        {
          "internalType": "uint256",
          "name": "tokenId",
          "type": "uint256"
        }
      ],
      "stateMutability": "view",
      "type": "function"
    },
    {
      "inputs": [],
      "name": "loansTokenIdsLength",
      "outputs": [
        {
          "internalType": "uint256",
          "name": "",
          "type": "uint256"
        }
      ],
      "stateMutability": "view",
      "type": "function"
    },
    {
      "inputs": [
        {
          "internalType": "bytes4",
          "name": "",
          "type": "bytes4"
        }
      ],
      "name": "logicTargets",
      "outputs": [
        {
          "internalType": "address",
          "name": "",
          "type": "address"
        }
      ],
      "stateMutability": "view",
      "type": "function"
    },
    {
      "inputs": [],
      "name": "maxDurationMonthsCap",
      "outputs": [
        {
          "internalType": "uint256",
          "name": "",
          "type": "uint256"
        }
      ],
      "stateMutability": "view",
      "type": "function"
    },
    {
      "inputs": [],
      "name": "maxLtv",
      "outputs": [
        {
          "internalType": "UD60x18",
          "name": "",
          "type": "uint256"
        }
      ],
      "stateMutability": "view",
      "type": "function"
    },
    {
      "inputs": [],
      "name": "monthSeconds",
      "outputs": [
        {
          "internalType": "uint256",
          "name": "",
          "type": "uint256"
        }
      ],
      "stateMutability": "view",
      "type": "function"
    },
    {
      "inputs": [],
      "name": "optimalUtilization",
      "outputs": [
        {
          "internalType": "UD60x18",
          "name": "",
          "type": "uint256"
        }
      ],
      "stateMutability": "view",
      "type": "function"
    },
    {
      "inputs": [],
      "name": "owner",
      "outputs": [
        {
          "internalType": "address",
          "name": "",
          "type": "address"
        }
      ],
      "stateMutability": "view",
      "type": "function"
    },
    {
      "inputs": [
        {
          "components": [
            {
              "internalType": "address",
              "name": "borrower",
              "type": "address"
            },
            {
              "internalType": "UD60x18",
              "name": "ratePerSecond",
              "type": "uint256"
            },
            {
              "internalType": "UD60x18",
              "name": "paymentPerSecond",
              "type": "uint256"
            },
            {
              "internalType": "uint256",
              "name": "startTime",
              "type": "uint256"
            },
            {
              "internalType": "uint256",
              "name": "unpaidPrincipal",
              "type": "uint256"
            },
            {
              "internalType": "uint256",
              "name": "maxDurationSeconds",
              "type": "uint256"
            },
            {
              "internalType": "uint256",
              "name": "lastPaymentTime",
              "type": "uint256"
            }
          ],
          "internalType": "struct IState.Loan",
          "name": "loan",
          "type": "tuple"
        },
        {
          "internalType": "uint256",
          "name": "month",
          "type": "uint256"
        }
      ],
      "name": "principalCap",
      "outputs": [
        {
          "internalType": "uint256",
          "name": "cap",
          "type": "uint256"
        }
      ],
      "stateMutability": "pure",
      "type": "function"
    },
    {
      "inputs": [],
      "name": "redemptionFeeSpread",
      "outputs": [
        {
          "internalType": "UD60x18",
          "name": "",
          "type": "uint256"
        }
      ],
      "stateMutability": "view",
      "type": "function"
    },
    {
      "inputs": [],
      "name": "renounceOwnership",
      "outputs": [],
      "stateMutability": "nonpayable",
      "type": "function"
    },
    {
      "inputs": [
        {
          "internalType": "bytes4[]",
          "name": "selectorsArr",
          "type": "bytes4[]"
        },
        {
          "internalType": "address",
          "name": "target",
          "type": "address"
        }
      ],
      "name": "setSelectorsTarget",
      "outputs": [],
      "stateMutability": "nonpayable",
      "type": "function"
    },
    {
      "inputs": [
        {
          "internalType": "uint256",
          "name": "tokenId",
          "type": "uint256"
        }
      ],
      "name": "status",
      "outputs": [
        {
          "internalType": "enum IState.Status",
          "name": "",
          "type": "uint8"
        }
      ],
      "stateMutability": "view",
      "type": "function"
    },
    {
      "inputs": [
        {
          "internalType": "uint256",
          "name": "tokenId",
          "type": "uint256"
        }
      ],
      "name": "tokenIdBidsLength",
      "outputs": [
        {
          "internalType": "uint256",
          "name": "",
          "type": "uint256"
        }
      ],
      "stateMutability": "view",
      "type": "function"
    },
    {
      "inputs": [],
      "name": "totalDeposits",
      "outputs": [
        {
          "internalType": "uint256",
          "name": "",
          "type": "uint256"
        }
      ],
      "stateMutability": "view",
      "type": "function"
    },
    {
      "inputs": [],
      "name": "totalPrincipal",
      "outputs": [
        {
          "internalType": "uint256",
          "name": "",
          "type": "uint256"
        }
      ],
      "stateMutability": "view",
      "type": "function"
    },
    {
      "inputs": [
        {
          "internalType": "address",
          "name": "newOwner",
          "type": "address"
        }
      ],
      "name": "transferOwnership",
      "outputs": [],
      "stateMutability": "nonpayable",
      "type": "function"
    },
    {
      "inputs": [],
      "name": "yearMonths",
      "outputs": [
        {
          "internalType": "uint256",
          "name": "",
          "type": "uint256"
        }
      ],
      "stateMutability": "view",
      "type": "function"
    },
    {
      "inputs": [],
      "name": "yearSeconds",
      "outputs": [
        {
          "internalType": "uint256",
          "name": "",
          "type": "uint256"
        }
      ],
      "stateMutability": "view",
      "type": "function"
    }
  ],
  "bytecode": "0x608060405273a0b86991c6218b36c1d19d4a2e9eb0ce3606eb486002806101000a81548173ffffffffffffffffffffffffffffffffffffffff021916908373ffffffffffffffffffffffffffffffffffffffff1602179055506200008f6200006e60646200027d60201b60201c565b62000080605a6200027d60201b60201c565b6200030e60201b90919060201c565b600755620000c9620000a860646200027d60201b60201c565b620000ba60046200027d60201b60201c565b6200030e60201b90919060201c565b60085562000103620000e260646200027d60201b60201c565b620000f460036200027d60201b60201c565b6200030e60201b90919060201c565b6009556200011860096200027d60201b60201c565b600a55620001526200013160646200027d60201b60201c565b6200014360016200027d60201b60201c565b6200030e60201b90919060201c565b600b556200018c6200016b60646200027d60201b60201c565b6200017d60026200027d60201b60201c565b6200030e60201b90919060201c565b600c55620001c6620001a560646200027d60201b60201c565b620001b760036200027d60201b60201c565b6200030e60201b90919060201c565b600d5562000200620001df60646200027d60201b60201c565b620001f160046200027d60201b60201c565b6200030e60201b90919060201c565b600e55623b5380601455620002416200022060646200027d60201b60201c565b6200023260326200027d60201b60201c565b6200030e60201b90919060201c565b60155560786016553480156200025657600080fd5b50620002776200026b6200036360201b60201c565b6200036b60201b60201c565b62000641565b6000670de0b6b3a76400007fffffffffffffffffffffffffffffffffffffffffffffffffffffffffffffffff620002b591906200059e565b821115620002fc57816040517f1cd951a7000000000000000000000000000000000000000000000000000000008152600401620002f39190620005e7565b60405180910390fd5b670de0b6b3a764000082029050919050565b60006200035b6200034f62000329856200042f60201b60201c565b670de0b6b3a764000062000343866200042f60201b60201c565b6200043960201b60201c565b6200055b60201b60201c565b905092915050565b600033905090565b60008060009054906101000a900473ffffffffffffffffffffffffffffffffffffffff169050816000806101000a81548173ffffffffffffffffffffffffffffffffffffffff021916908373ffffffffffffffffffffffffffffffffffffffff1602179055508173ffffffffffffffffffffffffffffffffffffffff168173ffffffffffffffffffffffffffffffffffffffff167f8be0079c531659141344cd1fd0a4f28419497f9722a3daafe3b4186f6b6457e060405160405180910390a35050565b6000819050919050565b600080600080198587098587029250828110838203039150506000810362000479578382816200046e576200046d6200056f565b5b049250505062000554565b838110620004c4578585856040517f63a05778000000000000000000000000000000000000000000000000000000008152600401620004bb9392919062000604565b60405180910390fd5b60008486880990508281118203915080830392506000600186190186169050600081870496508185049450600182836000030401905080840285179450600060028860030218905080880260020381029050808802600203810290508088026002038102905080880260020381029050808802600203810290508088026002038102905080860296505050505050505b9392505050565b6000819050919050565b6000819050919050565b7f4e487b7100000000000000000000000000000000000000000000000000000000600052601260045260246000fd5b6000620005ab8262000565565b9150620005b88362000565565b925082620005cb57620005ca6200056f565b5b828204905092915050565b620005e18162000565565b82525050565b6000602082019050620005fe6000830184620005d6565b92915050565b60006060820190506200061b6000830186620005d6565b6200062a6020830185620005d6565b620006396040830184620005d6565b949350505050565b6147e480620006516000396000f3fe608060405234801561001057600080fd5b50600436106101cf5760003560e01c806374bdf96a11610104578063ab01f7e1116100a2578063e1ec3c6811610071578063e1ec3c6814610564578063e343504414610594578063f2fde38b146105b0578063ff9ad6df146105cc576101cf565b8063ab01f7e1146104c4578063bcff3e3b146104e2578063bd5c569b14610512578063ca03eb7314610548576101cf565b806387ae0dbe116100de57806387ae0dbe1461043a5780638da5cb5b14610458578063a0024c2f14610476578063a54cab1c146104a6576101cf565b806374bdf96a146103ce5780637d882097146103fe578063812cf0181461041c576101cf565b80634423c5f1116101715780634b1533b21161014b5780634b1533b21461036a5780636290cd1c14610388578063715018a6146103a657806374375359146103b0576101cf565b80634423c5f114610300578063485cc955146103305780634abb30031461034c576101cf565b80632da10923116101ad5780632da10923146102645780633a12c6da146102945780633ca36db6146102b257806342d21ef7146102d0576101cf565b80630a9cc0b6146101d457806317548b79146102045780631cc03c8714610234575b600080fd5b6101ee60048036038101906101e99190613492565b6105ea565b6040516101fb91906134da565b60405180910390f35b61021e6004803603810190610219919061354d565b61065f565b60405161022b9190613589565b60405180910390f35b61024e60048036038101906102499190613684565b610692565b60405161025b91906136d4565b60405180910390f35b61027e600480360381019061027991906136ef565b6107f4565b60405161028b91906136d4565b60405180910390f35b61029c610814565b6040516102a99190613757565b60405180910390f35b6102ba61081a565b6040516102c79190613757565b60405180910390f35b6102ea60048036038101906102e591906136ef565b610824565b6040516102f791906137e9565b60405180910390f35b61031a600480360381019061031591906136ef565b61096b565b6040516103279190613926565b60405180910390f35b61034a600480360381019061034591906139c4565b610a51565b005b610354610c12565b6040516103619190613757565b60405180910390f35b610372610c1c565b60405161037f91906136d4565b60405180910390f35b610390610c22565b60405161039d9190613757565b60405180910390f35b6103ae610c28565b005b6103b8610c3c565b6040516103c591906136d4565b60405180910390f35b6103e860048036038101906103e391906136ef565b610c53565b6040516103f591906136d4565b60405180910390f35b610406610c70565b60405161041391906136d4565b60405180910390f35b610424610c76565b60405161043191906136d4565b60405180910390f35b610442610c7b565b60405161044f91906136d4565b60405180910390f35b610460610c83565b60405161046d9190613589565b60405180910390f35b610490600480360381019061048b9190613492565b610cac565b60405161049d91906134da565b60405180910390f35b6104ae610cd0565b6040516104bb91906136d4565b60405180910390f35b6104cc610cd6565b6040516104d991906136d4565b60405180910390f35b6104fc60048036038101906104f791906136ef565b610ce7565b60405161050991906136d4565b60405180910390f35b61052c600480360381019061052791906136ef565b610da8565b60405161053f9796959493929190613a04565b60405180910390f35b610562600480360381019061055d9190613a73565b610e0a565b005b61057e600480360381019061057991906136ef565b61143f565b60405161058b9190613b50565b60405180910390f35b6105ae60048036038101906105a99190613bd0565b6114fe565b005b6105ca60048036038101906105c59190613c30565b6115e4565b005b6105d4611667565b6040516105e191906136d4565b60405180910390f35b600080826040015183602001516106019190613c8c565b9050600061062c610615856020015161167b565b61061e8461167b565b61170790919063ffffffff16565b90506106436015548261173c90919063ffffffff16565b80156106565750610652610c3c565b8211155b92505050919050565b60016020528060005260406000206000915054906101000a900473ffffffffffffffffffffffffffffffffffffffff1681565b600061069d8361175a565b8211156106df576040517f08c379a00000000000000000000000000000000000000000000000000000000081526004016106d690613d43565b60405180910390fd5b6000600c6301e133806106f29190613d92565b836106fd9190613dc3565b9050600061074361070e6001611783565b61073561071e8860a00151611783565b61072786611783565b61188790919063ffffffff16565b61188790919063ffffffff16565b9050600061079c610784836107766107718a60200151610763600161167b565b6118b590919063ffffffff16565b6118e3565b61195790919063ffffffff16565b61078e6001611783565b61188790919063ffffffff16565b905060006107c76107c2836107b48a604001516118e3565b611a1590919063ffffffff16565b611ba5565b90506107e86107e388602001518361170790919063ffffffff16565b611bfa565b94505050505092915050565b6000600f6000838152602001908152602001600020805490509050919050565b60155481565b6000600d54905090565b600080601060008481526020019081526020016000206040518060e00160405290816000820160009054906101000a900473ffffffffffffffffffffffffffffffffffffffff1673ffffffffffffffffffffffffffffffffffffffff1673ffffffffffffffffffffffffffffffffffffffff16815260200160018201548152602001600282015481526020016003820154815260200160048201548152602001600582015481526020016006820154815250509050600073ffffffffffffffffffffffffffffffffffffffff16816000015173ffffffffffffffffffffffffffffffffffffffff160361091b576000915050610966565b61092483611c17565b1561096057600061093482611d2c565b4261093f9190613c8c565b9050601454811161095557600292505050610966565b600392505050610966565b60019150505b919050565b6060600f6000838152602001908152602001600020805480602002602001604051908101604052809291908181526020016000905b82821015610a4657838290600052602060002090600402016040518060800160405290816000820160009054906101000a900473ffffffffffffffffffffffffffffffffffffffff1673ffffffffffffffffffffffffffffffffffffffff1673ffffffffffffffffffffffffffffffffffffffff1681526020016001820154815260200160028201548152602001600382015481525050815260200190600101906109a0565b505050509050919050565b6000600260019054906101000a900460ff16159050808015610a8557506001600260009054906101000a900460ff1660ff16105b80610ab45750610a9430611dd7565b158015610ab357506001600260009054906101000a900460ff1660ff16145b5b610af3576040517f08c379a0000000000000000000000000000000000000000000000000000000008152600401610aea90613e77565b60405180910390fd5b6001600260006101000a81548160ff021916908360ff1602179055508015610b31576001600260016101000a81548160ff0219169083151502179055505b82600360006101000a81548173ffffffffffffffffffffffffffffffffffffffff021916908373ffffffffffffffffffffffffffffffffffffffff16021790555081600460006101000a81548173ffffffffffffffffffffffffffffffffffffffff021916908373ffffffffffffffffffffffffffffffffffffffff1602179055508015610c0d576000600260016101000a81548160ff0219169083151502179055507f7f26b83ff96e1f2b6a682f133852f6798a09c465da95921460cefb38474024986001604051610c049190613edf565b60405180910390a15b505050565b6000600e54905090565b60055481565b60075481565b610c30611dfa565b610c3a6000611e78565b565b6000600554600654610c4e9190613c8c565b905090565b6000610c69826011611f3c90919063ffffffff16565b9050919050565b60065481565b600c81565b6301e1338081565b60008060009054906101000a900473ffffffffffffffffffffffffffffffffffffffff16905090565b6000816040015182602001511480610cc95750610cc8826105ea565b5b9050919050565b60165481565b6000610ce26011611f56565b905090565b6000610da1601060008481526020019081526020016000206040518060e00160405290816000820160009054906101000a900473ffffffffffffffffffffffffffffffffffffffff1673ffffffffffffffffffffffffffffffffffffffff1673ffffffffffffffffffffffffffffffffffffffff1681526020016001820154815260200160028201548152602001600382015481526020016004820154815260200160058201548152602001600682015481525050611f6b565b9050919050565b60106020528060005260406000206000915090508060000160009054906101000a900473ffffffffffffffffffffffffffffffffffffffff16908060010154908060020154908060030154908060040154908060050154908060060154905087565b6000601060008481526020019081526020016000206040518060e00160405290816000820160009054906101000a900473ffffffffffffffffffffffffffffffffffffffff1673ffffffffffffffffffffffffffffffffffffffff1673ffffffffffffffffffffffffffffffffffffffff1681526020016001820154815260200160028201548152602001600382015481526020016004820154815260200160058201548152602001600682015481525050905060026003811115610ed257610ed1613772565b5b610edb84610824565b6003811115610eed57610eec613772565b5b14610f2d576040517f08c379a0000000000000000000000000000000000000000000000000000000008152600401610f2490613f46565b60405180910390fd5b806000015173ffffffffffffffffffffffffffffffffffffffff163373ffffffffffffffffffffffffffffffffffffffff1614610f9f576040517f08c379a0000000000000000000000000000000000000000000000000000000008152600401610f9690613fb2565b60405180910390fd5b6000600f60008581526020019081526020016000208381548110610fc657610fc5613fd2565b5b90600052602060002090600402016040518060800160405290816000820160009054906101000a900473ffffffffffffffffffffffffffffffffffffffff1673ffffffffffffffffffffffffffffffffffffffff1673ffffffffffffffffffffffffffffffffffffffff16815260200160018201548152602001600282015481526020016003820154815250509050600061108061107b600b5461106d856020015161167b565b611fa390919063ffffffff16565b611bfa565b905060006110ad6110a8600e5461109a866020015161167b565b611fa390919063ffffffff16565b611bfa565b905080826110bb9190614001565b601360008282546110cc9190614001565b9250508190555060006110de87610ce7565b90508460800151600560008282546110f69190613c8c565b92505081905550806006600082825461110f9190614001565b925050819055506000828483886080015161112a9190614001565b6111349190614001565b61113e9190614001565b90508085602001511015611187576040517f08c379a000000000000000000000000000000000000000000000000000000000815260040161117e90614081565b60405180910390fd5b60008186602001516111999190613c8c565b90506111ea87600001518260028054906101000a900473ffffffffffffffffffffffffffffffffffffffff1673ffffffffffffffffffffffffffffffffffffffff16611fcf9092919063ffffffff16565b856040015186602001510361129357600460009054906101000a900473ffffffffffffffffffffffffffffffffffffffff1673ffffffffffffffffffffffffffffffffffffffff166342842e0e3088600001518c6040518463ffffffff1660e01b815260040161125c939291906140a1565b600060405180830381600087803b15801561127657600080fd5b505af115801561128a573d6000803e3d6000fd5b50505050611434565b6000866040015187602001516112a99190613c8c565b9050600060016000630feee81e60e01b7bffffffffffffffffffffffffffffffffffffffffffffffffffffffff19167bffffffffffffffffffffffffffffffffffffffffffffffffffffffff1916815260200190815260200160002060009054906101000a900473ffffffffffffffffffffffffffffffffffffffff1673ffffffffffffffffffffffffffffffffffffffff1688600001518c848b6060015160405160240161135b94939291906140d8565b604051602081830303815290604052630feee81e60e01b6020820180517bffffffffffffffffffffffffffffffffffffffffffffffffffffffff83818316178352505050506040516113ad919061418e565b600060405180830381855af49150503d80600081146113e8576040519150601f19603f3d011682016040523d82523d6000602084013e6113ed565b606091505b5050905080611431576040517f08c379a0000000000000000000000000000000000000000000000000000000008152600401611428906141f1565b60405180910390fd5b50505b505050505050505050565b61144761328e565b601060008381526020019081526020016000206040518060e00160405290816000820160009054906101000a900473ffffffffffffffffffffffffffffffffffffffff1673ffffffffffffffffffffffffffffffffffffffff1673ffffffffffffffffffffffffffffffffffffffff16815260200160018201548152602001600282015481526020016003820154815260200160048201548152602001600582015481526020016006820154815250509050919050565b611506611dfa565b60005b838390508110156115de57816001600086868581811061152c5761152b613fd2565b5b9050602002016020810190611541919061354d565b7bffffffffffffffffffffffffffffffffffffffffffffffffffffffff19167bffffffffffffffffffffffffffffffffffffffffffffffffffffffff1916815260200190815260200160002060006101000a81548173ffffffffffffffffffffffffffffffffffffffff021916908373ffffffffffffffffffffffffffffffffffffffff16021790555080806115d690614211565b915050611509565b50505050565b6115ec611dfa565b600073ffffffffffffffffffffffffffffffffffffffff168173ffffffffffffffffffffffffffffffffffffffff160361165b576040517f08c379a0000000000000000000000000000000000000000000000000000000008152600401611652906142cb565b60405180910390fd5b61166481611e78565b50565b600c6301e133806116789190613d92565b81565b6000670de0b6b3a76400007fffffffffffffffffffffffffffffffffffffffffffffffffffffffffffffffff6116b19190613d92565b8211156116f557816040517f1cd951a70000000000000000000000000000000000000000000000000000000081526004016116ec91906136d4565b60405180910390fd5b670de0b6b3a764000082029050919050565b600061173461172f61171885612055565b670de0b6b3a764000061172a86612055565b61205f565b612179565b905092915050565b600061174782612055565b61175084612055565b1115905092915050565b60006301e133808260a00151600c6117729190613dc3565b61177c9190613d92565b9050919050565b6000670de0b6b3a76400007f80000000000000000000000000000000000000000000000000000000000000006117b991906142f5565b8212156117fd57816040517f99474eeb0000000000000000000000000000000000000000000000000000000081526004016117f4919061436e565b60405180910390fd5b670de0b6b3a76400007f7fffffffffffffffffffffffffffffffffffffffffffffffffffffffffffffff61183191906142f5565b82131561187557816040517f9d58109100000000000000000000000000000000000000000000000000000000815260040161186c919061436e565b60405180910390fd5b670de0b6b3a764000082029050919050565b60006118ad61189583612183565b61189e85612183565b6118a89190614389565b61218d565b905092915050565b60006118db6118c383612055565b6118cc85612055565b6118d69190614001565b612179565b905092915050565b6000808290507f7fffffffffffffffffffffffffffffffffffffffffffffffffffffffffffffff81111561194e57826040517ff46186840000000000000000000000000000000000000000000000000000000081526004016119459190613757565b60405180910390fd5b80915050919050565b60008061196384612183565b9050600061197084612183565b90506000820361199c5760008114611989576000611993565b670de0b6b3a76400005b92505050611a0f565b670de0b6b3a764000082036119bd57670de0b6b3a764000092505050611a0f565b600081036119d757670de0b6b3a764000092505050611a0f565b670de0b6b3a764000081036119f0578492505050611a0f565b611a0a611a056119ff87612197565b86611a15565b61232a565b925050505b92915050565b600080611a2184612183565b90506000611a2e84612183565b90507f8000000000000000000000000000000000000000000000000000000000000000821480611a7d57507f800000000000000000000000000000000000000000000000000000000000000081145b15611ab4576040517fa6070c2500000000000000000000000000000000000000000000000000000000815260040160405180910390fd5b60008060008412611ac55783611aca565b836000035b915060008312611ada5782611adf565b826000035b90506000611aed8383612448565b90507f7fffffffffffffffffffffffffffffffffffffffffffffffffffffffffffffff811115611b565787876040517f120b5b43000000000000000000000000000000000000000000000000000000008152600401611b4d9291906143fd565b60405180910390fd5b60007fffffffffffffffffffffffffffffffffffffffffffffffffffffffffffffffff858718139050611b9781611b905782600003611b92565b825b61218d565b965050505050505092915050565b6000808290506000811215611bf157826040517fbba41a15000000000000000000000000000000000000000000000000000000008152600401611be89190614426565b60405180910390fd5b80915050919050565b6000670de0b6b3a764000082611c109190613d92565b9050919050565b600080601060008481526020019081526020016000206040518060e00160405290816000820160009054906101000a900473ffffffffffffffffffffffffffffffffffffffff1673ffffffffffffffffffffffffffffffffffffffff1673ffffffffffffffffffffffffffffffffffffffff168152602001600182015481526020016002820154815260200160038201548152602001600482015481526020016005820154815260200160068201548152505090506000611cd782612532565b90506000600c6301e133808460a00151611cf19190613d92565b611cfb9190613dc3565b905080821115611d115760019350505050611d27565b611d1b8383610692565b83608001511193505050505b919050565b600080611d3883612532565b905060008190505b6000811115611dd0576000611d558583610692565b90506000611d6f86600185611d6a9190613c8c565b610692565b9050818660800151118015611d88575080866080015111155b15611dbb57600c6301e13380611d9e9190613d92565b83611da99190613dc3565b8660600151611db89190614001565b94505b50508080611dc890614441565b915050611d40565b5050919050565b6000808273ffffffffffffffffffffffffffffffffffffffff163b119050919050565b611e02612587565b73ffffffffffffffffffffffffffffffffffffffff16611e20610c83565b73ffffffffffffffffffffffffffffffffffffffff1614611e76576040517f08c379a0000000000000000000000000000000000000000000000000000000008152600401611e6d906144b6565b60405180910390fd5b565b60008060009054906101000a900473ffffffffffffffffffffffffffffffffffffffff169050816000806101000a81548173ffffffffffffffffffffffffffffffffffffffff021916908373ffffffffffffffffffffffffffffffffffffffff1602179055508173ffffffffffffffffffffffffffffffffffffffff168173ffffffffffffffffffffffffffffffffffffffff167f8be0079c531659141344cd1fd0a4f28419497f9722a3daafe3b4186f6b6457e060405160405180910390a35050565b6000611f4b836000018361258f565b60001c905092915050565b6000611f64826000016125ba565b9050919050565b6000611f9c611f97611f7c846125cb565b611f89856080015161167b565b611fa390919063ffffffff16565b611bfa565b9050919050565b6000611fc7611fc2611fb485612055565b611fbd85612055565b612448565b612179565b905092915050565b6120508363a9059cbb60e01b8484604051602401611fee9291906144d6565b604051602081830303815290604052907bffffffffffffffffffffffffffffffffffffffffffffffffffffffff19166020820180517bffffffffffffffffffffffffffffffffffffffffffffffffffffffff83818316178352505050506125fb565b505050565b6000819050919050565b600080600080198587098587029250828110838203039150506000810361209a578382816120905761208f613d63565b5b0492505050612172565b8381106120e2578585856040517f63a057780000000000000000000000000000000000000000000000000000000081526004016120d9939291906144ff565b60405180910390fd5b60008486880990508281118203915080830392506000600186190186169050600081870496508185049450600182836000030401905080840285179450600060028860030218905080880260020381029050808802600203810290508088026002038102905080880260020381029050808802600203810290508088026002038102905080860296505050505050505b9392505050565b6000819050919050565b6000819050919050565b6000819050919050565b6000806121a383612183565b9050600081136121ea57826040517f059b101b0000000000000000000000000000000000000000000000000000000081526004016121e19190614426565b60405180910390fd5b6000670de0b6b3a76400008212612204576001905061224a565b7fffffffffffffffffffffffffffffffffffffffffffffffffffffffffffffffff9050816ec097ce7bc90715b34b9f10000000008161224657612245613d63565b5b0591505b600061226d670de0b6b3a7640000848161226757612266613d63565b5b056126c2565b90506000670de0b6b3a76400008202905060008285901d9050670de0b6b3a764000081036122ac576122a084830261218d565b95505050505050612325565b6000671bc16d674ec80000905060006706f05b59d3b2000090505b600081131561230d57670de0b6b3a7640000838402816122ea576122e9613d63565b5b059250818312612301578084019350600183901d92505b600181901d90506122c7565b50848302925061231c8361218d565b96505050505050505b919050565b60008061233683612183565b905060008112156123bd577ffffffffffffffffffffffffffffffffffffffffffffffffcc22e87f6eb468eeb811215612373576000915050612443565b6123b661239261238d6123888460000361218d565b61232a565b612183565b6ec097ce7bc90715b34b9f1000000000816123b0576123af613d63565b5b0561218d565b9150612441565b680a688906bd8affffff81131561240b57826040517f0360d0280000000000000000000000000000000000000000000000000000000081526004016124029190614426565b60405180910390fd5b6000670de0b6b3a7640000604083901b8161242957612428613d63565b5b05905061243d6124388261276b565b61218d565b9250505b505b919050565b600080600080198486098486029250828110838203039150506000810361248b57670de0b6b3a7640000828161248157612480613d63565b5b049250505061252c565b670de0b6b3a764000081106124d95784846040517f5173648d0000000000000000000000000000000000000000000000000000000081526004016124d0929190614536565b60405180910390fd5b6000670de0b6b3a764000085870990507faccb18165bd6fe31ae1cf318dc5b51eee0e1ba569b88cd74c1773b91fac106696001620400008060000304018483118403026204000083860304170293505050505b92915050565b600080600c6301e133806125469190613d92565b8360600151426125569190613c8c565b6125609190613d92565b9050600061256d8461175a565b905080821161257c578161257e565b805b92505050919050565b600033905090565b60008260000182815481106125a7576125a6613fd2565b5b9060005260206000200154905092915050565b600081600001805490509050919050565b60006125f46125e16125dc846130cb565b61167b565b8360200151611fa390919063ffffffff16565b9050919050565b600061265d826040518060400160405280602081526020017f5361666545524332303a206c6f772d6c6576656c2063616c6c206661696c65648152508573ffffffffffffffffffffffffffffffffffffffff166130e49092919063ffffffff16565b90506000815111156126bd578080602001905181019061267d919061458b565b6126bc576040517f08c379a00000000000000000000000000000000000000000000000000000000081526004016126b39061462a565b60405180910390fd5b5b505050565b60006fffffffffffffffffffffffffffffffff821160071b82811c925080821791505067ffffffffffffffff821160061b82811c925080821791505063ffffffff821160051b82811c925080821791505061ffff821160041b82811c925080821791505060ff821160031b82811c9250808217915050600f821160021b82811c92508082179150506003821160011b82811c925080821791505060018211808217915050919050565b6000778000000000000000000000000000000000000000000000009050600067ff00000000000000831611156128cc576000678000000000000000831611156127c157604068016a09e667f3bcc9098202901c90505b6000674000000000000000831611156127e75760406801306fe0a31b7152df8202901c90505b60006720000000000000008316111561280d5760406801172b83c7d517adce8202901c90505b60006710000000000000008316111561283357604068010b5586cf9890f62a8202901c90505b6000670800000000000000831611156128595760406801059b0d31585743ae8202901c90505b60006704000000000000008316111561287f576040680102c9a3e778060ee78202901c90505b6000670200000000000000831611156128a557604068010163da9fb33356d88202901c90505b6000670100000000000000831611156128cb576040680100b1afa5abcbed618202901c90505b5b600066ff00000000000083161115612a0757600066800000000000008316111561290357604068010058c86da1c09ea28202901c90505b60006640000000000000831611156129285760406801002c605e2e8cec508202901c90505b600066200000000000008316111561294d576040680100162f3904051fa18202901c90505b60006610000000000000831611156129725760406801000b175effdc76ba8202901c90505b6000660800000000000083161115612997576040680100058ba01fb9f96d8202901c90505b60006604000000000000831611156129bc57604068010002c5cc37da94928202901c90505b60006602000000000000831611156129e15760406801000162e525ee05478202901c90505b6000660100000000000083161115612a0657604068010000b17255775c048202901c90505b5b600065ff000000000083161115612b395760006580000000000083161115612a3c5760406801000058b91b5bc9ae8202901c90505b60006540000000000083161115612a60576040680100002c5c89d5ec6d8202901c90505b60006520000000000083161115612a8457604068010000162e43f4f8318202901c90505b60006510000000000083161115612aa8576040680100000b1721bcfc9a8202901c90505b60006508000000000083161115612acc57604068010000058b90cf1e6e8202901c90505b60006504000000000083161115612af05760406801000002c5c863b73f8202901c90505b60006502000000000083161115612b14576040680100000162e430e5a28202901c90505b60006501000000000083161115612b385760406801000000b1721835518202901c90505b5b600064ff0000000083161115612c6257600064800000000083161115612b6c576040680100000058b90c0b498202901c90505b600064400000000083161115612b8f57604068010000002c5c8601cc8202901c90505b600064200000000083161115612bb25760406801000000162e42fff08202901c90505b600064100000000083161115612bd557604068010000000b17217fbb8202901c90505b600064080000000083161115612bf85760406801000000058b90bfce8202901c90505b600064040000000083161115612c1b576040680100000002c5c85fe38202901c90505b600064020000000083161115612c3e57604068010000000162e42ff18202901c90505b600064010000000083161115612c61576040680100000000b17217f88202901c90505b5b600063ff00000083161115612d82576000638000000083161115612c9357604068010000000058b90bfc8202901c90505b6000634000000083161115612cb55760406801000000002c5c85fe8202901c90505b6000632000000083161115612cd7576040680100000000162e42ff8202901c90505b6000631000000083161115612cf95760406801000000000b17217f8202901c90505b6000630800000083161115612d1b576040680100000000058b90c08202901c90505b6000630400000083161115612d3d57604068010000000002c5c8608202901c90505b6000630200000083161115612d5f5760406801000000000162e4308202901c90505b6000630100000083161115612d8157604068010000000000b172188202901c90505b5b600062ff000083161115612e995760006280000083161115612db15760406801000000000058b90c8202901c90505b60006240000083161115612dd2576040680100000000002c5c868202901c90505b60006220000083161115612df357604068010000000000162e438202901c90505b60006210000083161115612e14576040680100000000000b17218202901c90505b60006208000083161115612e3557604068010000000000058b918202901c90505b60006204000083161115612e565760406801000000000002c5c88202901c90505b60006202000083161115612e77576040680100000000000162e48202901c90505b60006201000083161115612e985760406801000000000000b1728202901c90505b5b600061ff0083161115612fa757600061800083161115612ec6576040680100000000000058b98202901c90505b600061400083161115612ee657604068010000000000002c5d8202901c90505b600061200083161115612f065760406801000000000000162e8202901c90505b600061100083161115612f2657604068010000000000000b178202901c90505b600061080083161115612f465760406801000000000000058c8202901c90505b600061040083161115612f66576040680100000000000002c68202901c90505b600061020083161115612f86576040680100000000000001638202901c90505b600061010083161115612fa6576040680100000000000000b18202901c90505b5b600060ff831611156130ac576000608083161115612fd2576040680100000000000000598202901c90505b6000604083161115612ff15760406801000000000000002c8202901c90505b6000602083161115613010576040680100000000000000168202901c90505b600060108316111561302f5760406801000000000000000b8202901c90505b600060088316111561304e576040680100000000000000068202901c90505b600060048316111561306d576040680100000000000000038202901c90505b600060028316111561308c576040680100000000000000018202901c90505b60006001831611156130ab576040680100000000000000018202901c90505b5b670de0b6b3a764000081029050604082901c60bf0381901c9050919050565b60008160c00151426130dd9190613c8c565b9050919050565b60606130f384846000856130fc565b90509392505050565b606082471015613141576040517f08c379a0000000000000000000000000000000000000000000000000000000008152600401613138906146bc565b60405180910390fd5b6000808673ffffffffffffffffffffffffffffffffffffffff16858760405161316a919061418e565b60006040518083038185875af1925050503d80600081146131a7576040519150601f19603f3d011682016040523d82523d6000602084013e6131ac565b606091505b50915091506131bd878383876131c9565b92505050949350505050565b6060831561322b576000835103613223576131e385611dd7565b613222576040517f08c379a000000000000000000000000000000000000000000000000000000000815260040161321990614728565b60405180910390fd5b5b829050613236565b613235838361323e565b5b949350505050565b6000825111156132515781518083602001fd5b806040517f08c379a0000000000000000000000000000000000000000000000000000000008152600401613285919061478c565b60405180910390fd5b6040518060e00160405280600073ffffffffffffffffffffffffffffffffffffffff1681526020016000815260200160008152602001600081526020016000815260200160008152602001600081525090565b6000604051905090565b600080fd5b600080fd5b600080fd5b6000601f19601f8301169050919050565b7f4e487b7100000000000000000000000000000000000000000000000000000000600052604160045260246000fd5b613343826132fa565b810181811067ffffffffffffffff821117156133625761336161330b565b5b80604052505050565b60006133756132e1565b9050613381828261333a565b919050565b600073ffffffffffffffffffffffffffffffffffffffff82169050919050565b60006133b182613386565b9050919050565b6133c1816133a6565b81146133cc57600080fd5b50565b6000813590506133de816133b8565b92915050565b6000819050919050565b6133f7816133e4565b811461340257600080fd5b50565b600081359050613414816133ee565b92915050565b6000608082840312156134305761342f6132f5565b5b61343a608061336b565b9050600061344a848285016133cf565b600083015250602061345e84828501613405565b602083015250604061347284828501613405565b604083015250606061348684828501613405565b60608301525092915050565b6000608082840312156134a8576134a76132eb565b5b60006134b68482850161341a565b91505092915050565b60008115159050919050565b6134d4816134bf565b82525050565b60006020820190506134ef60008301846134cb565b92915050565b60007fffffffff0000000000000000000000000000000000000000000000000000000082169050919050565b61352a816134f5565b811461353557600080fd5b50565b60008135905061354781613521565b92915050565b600060208284031215613563576135626132eb565b5b600061357184828501613538565b91505092915050565b613583816133a6565b82525050565b600060208201905061359e600083018461357a565b92915050565b6135ad816133e4565b81146135b857600080fd5b50565b6000813590506135ca816135a4565b92915050565b600060e082840312156135e6576135e56132f5565b5b6135f060e061336b565b90506000613600848285016133cf565b6000830152506020613614848285016135bb565b6020830152506040613628848285016135bb565b604083015250606061363c84828501613405565b606083015250608061365084828501613405565b60808301525060a061366484828501613405565b60a08301525060c061367884828501613405565b60c08301525092915050565b600080610100838503121561369c5761369b6132eb565b5b60006136aa858286016135d0565b92505060e06136bb85828601613405565b9150509250929050565b6136ce816133e4565b82525050565b60006020820190506136e960008301846136c5565b92915050565b600060208284031215613705576137046132eb565b5b600061371384828501613405565b91505092915050565b6000819050919050565b600061374161373c613737846133e4565b61371c565b6133e4565b9050919050565b61375181613726565b82525050565b600060208201905061376c6000830184613748565b92915050565b7f4e487b7100000000000000000000000000000000000000000000000000000000600052602160045260246000fd5b600481106137b2576137b1613772565b5b50565b60008190506137c3826137a1565b919050565b60006137d3826137b5565b9050919050565b6137e3816137c8565b82525050565b60006020820190506137fe60008301846137da565b92915050565b600081519050919050565b600082825260208201905092915050565b6000819050602082019050919050565b613839816133a6565b82525050565b613848816133e4565b82525050565b6080820160008201516138646000850182613830565b506020820151613877602085018261383f565b50604082015161388a604085018261383f565b50606082015161389d606085018261383f565b50505050565b60006138af838361384e565b60808301905092915050565b6000602082019050919050565b60006138d382613804565b6138dd818561380f565b93506138e883613820565b8060005b8381101561391957815161390088826138a3565b975061390b836138bb565b9250506001810190506138ec565b5085935050505092915050565b6000602082019050818103600083015261394081846138c8565b905092915050565b6000613953826133a6565b9050919050565b61396381613948565b811461396e57600080fd5b50565b6000813590506139808161395a565b92915050565b6000613991826133a6565b9050919050565b6139a181613986565b81146139ac57600080fd5b50565b6000813590506139be81613998565b92915050565b600080604083850312156139db576139da6132eb565b5b60006139e985828601613971565b92505060206139fa858286016139af565b9150509250929050565b600060e082019050613a19600083018a61357a565b613a266020830189613748565b613a336040830188613748565b613a4060608301876136c5565b613a4d60808301866136c5565b613a5a60a08301856136c5565b613a6760c08301846136c5565b98975050505050505050565b60008060408385031215613a8a57613a896132eb565b5b6000613a9885828601613405565b9250506020613aa985828601613405565b9150509250929050565b613abc81613726565b82525050565b60e082016000820151613ad86000850182613830565b506020820151613aeb6020850182613ab3565b506040820151613afe6040850182613ab3565b506060820151613b11606085018261383f565b506080820151613b24608085018261383f565b5060a0820151613b3760a085018261383f565b5060c0820151613b4a60c085018261383f565b50505050565b600060e082019050613b656000830184613ac2565b92915050565b600080fd5b600080fd5b600080fd5b60008083601f840112613b9057613b8f613b6b565b5b8235905067ffffffffffffffff811115613bad57613bac613b70565b5b602083019150836020820283011115613bc957613bc8613b75565b5b9250929050565b600080600060408486031215613be957613be86132eb565b5b600084013567ffffffffffffffff811115613c0757613c066132f0565b5b613c1386828701613b7a565b93509350506020613c26868287016133cf565b9150509250925092565b600060208284031215613c4657613c456132eb565b5b6000613c54848285016133cf565b91505092915050565b7f4e487b7100000000000000000000000000000000000000000000000000000000600052601160045260246000fd5b6000613c97826133e4565b9150613ca2836133e4565b9250828203905081811115613cba57613cb9613c5d565b5b92915050565b600082825260208201905092915050565b7f6d6f6e7468206d757374206265203c3d206c6f616e4d61784475726174696f6e60008201527f4d6f6e7468730000000000000000000000000000000000000000000000000000602082015250565b6000613d2d602683613cc0565b9150613d3882613cd1565b604082019050919050565b60006020820190508181036000830152613d5c81613d20565b9050919050565b7f4e487b7100000000000000000000000000000000000000000000000000000000600052601260045260246000fd5b6000613d9d826133e4565b9150613da8836133e4565b925082613db857613db7613d63565b5b828204905092915050565b6000613dce826133e4565b9150613dd9836133e4565b9250828202613de7816133e4565b91508282048414831517613dfe57613dfd613c5d565b5b5092915050565b7f496e697469616c697a61626c653a20636f6e747261637420697320616c72656160008201527f647920696e697469616c697a6564000000000000000000000000000000000000602082015250565b6000613e61602e83613cc0565b9150613e6c82613e05565b604082019050919050565b60006020820190508181036000830152613e9081613e54565b9050919050565b6000819050919050565b600060ff82169050919050565b6000613ec9613ec4613ebf84613e97565b61371c565b613ea1565b9050919050565b613ed981613eae565b82525050565b6000602082019050613ef46000830184613ed0565b92915050565b7f737461747573206e6f742064656661756c740000000000000000000000000000600082015250565b6000613f30601283613cc0565b9150613f3b82613efa565b602082019050919050565b60006020820190508181036000830152613f5f81613f23565b9050919050565b7f63616c6c6572206e6f7420626f72726f77657200000000000000000000000000600082015250565b6000613f9c601383613cc0565b9150613fa782613f66565b602082019050919050565b60006020820190508181036000830152613fcb81613f8f565b9050919050565b7f4e487b7100000000000000000000000000000000000000000000000000000000600052603260045260246000fd5b600061400c826133e4565b9150614017836133e4565b925082820190508082111561402f5761402e613c5d565b5b92915050565b7f70726f706572747956616c756520646f65736e277420636f7665722064656274600082015250565b600061406b602083613cc0565b915061407682614035565b602082019050919050565b6000602082019050818103600083015261409a8161405e565b9050919050565b60006060820190506140b6600083018661357a565b6140c3602083018561357a565b6140d060408301846136c5565b949350505050565b60006080820190506140ed600083018761357a565b6140fa60208301866136c5565b61410760408301856136c5565b61411460608301846136c5565b95945050505050565b600081519050919050565b600081905092915050565b60005b83811015614151578082015181840152602081019050614136565b60008484015250505050565b60006141688261411d565b6141728185614128565b9350614182818560208601614133565b80840191505092915050565b600061419a828461415d565b915081905092915050565b7f73746172744c6f616e2064656c656761746543616c6c206661696c6564000000600082015250565b60006141db601d83613cc0565b91506141e6826141a5565b602082019050919050565b6000602082019050818103600083015261420a816141ce565b9050919050565b600061421c826133e4565b91507fffffffffffffffffffffffffffffffffffffffffffffffffffffffffffffffff820361424e5761424d613c5d565b5b600182019050919050565b7f4f776e61626c653a206e6577206f776e657220697320746865207a65726f206160008201527f6464726573730000000000000000000000000000000000000000000000000000602082015250565b60006142b5602683613cc0565b91506142c082614259565b604082019050919050565b600060208201905081810360008301526142e4816142a8565b9050919050565b6000819050919050565b6000614300826142eb565b915061430b836142eb565b92508261431b5761431a613d63565b5b600160000383147f80000000000000000000000000000000000000000000000000000000000000008314161561435457614353613c5d565b5b828205905092915050565b614368816142eb565b82525050565b6000602082019050614383600083018461435f565b92915050565b6000614394826142eb565b915061439f836142eb565b92508282039050818112600084121682821360008512151617156143c6576143c5613c5d565b5b92915050565b60006143e76143e26143dd846142eb565b61371c565b6142eb565b9050919050565b6143f7816143cc565b82525050565b600060408201905061441260008301856143ee565b61441f60208301846143ee565b9392505050565b600060208201905061443b60008301846143ee565b92915050565b600061444c826133e4565b91506000820361445f5761445e613c5d565b5b600182039050919050565b7f4f776e61626c653a2063616c6c6572206973206e6f7420746865206f776e6572600082015250565b60006144a0602083613cc0565b91506144ab8261446a565b602082019050919050565b600060208201905081810360008301526144cf81614493565b9050919050565b60006040820190506144eb600083018561357a565b6144f860208301846136c5565b9392505050565b600060608201905061451460008301866136c5565b61452160208301856136c5565b61452e60408301846136c5565b949350505050565b600060408201905061454b60008301856136c5565b61455860208301846136c5565b9392505050565b614568816134bf565b811461457357600080fd5b50565b6000815190506145858161455f565b92915050565b6000602082840312156145a1576145a06132eb565b5b60006145af84828501614576565b91505092915050565b7f5361666545524332303a204552433230206f7065726174696f6e20646964206e60008201527f6f74207375636365656400000000000000000000000000000000000000000000602082015250565b6000614614602a83613cc0565b915061461f826145b8565b604082019050919050565b6000602082019050818103600083015261464381614607565b9050919050565b7f416464726573733a20696e73756666696369656e742062616c616e636520666f60008201527f722063616c6c0000000000000000000000000000000000000000000000000000602082015250565b60006146a6602683613cc0565b91506146b18261464a565b604082019050919050565b600060208201905081810360008301526146d581614699565b9050919050565b7f416464726573733a2063616c6c20746f206e6f6e2d636f6e7472616374000000600082015250565b6000614712601d83613cc0565b915061471d826146dc565b602082019050919050565b6000602082019050818103600083015261474181614705565b9050919050565b600081519050919050565b600061475e82614748565b6147688185613cc0565b9350614778818560208601614133565b614781816132fa565b840191505092915050565b600060208201905081810360008301526147a68184614753565b90509291505056fea26469706673582212200adc15b2deb63337c95343c648c8befbdc196949fe42a89c489815e8d94bcbef64736f6c63430008130033",
  "linkReferences": {},
  "deployedLinkReferences": {}
}