{
  "_format": "hh-sol-artifact-1",
  "contractName": "ProtocolProxy",
  "sourceName": "contracts/protocol/protocolProxy/ProtocolProxy.sol",
  "abi": [
    {
      "inputs": [
        {
          "internalType": "uint256",
          "name": "x",
          "type": "uint256"
        },
        {
          "internalType": "uint256",
          "name": "y",
          "type": "uint256"
        }
      ],
      "name": "PRBMath_MulDiv18_Overflow",
      "type": "error"
    },
    {
      "inputs": [
        {
          "internalType": "uint256",
          "name": "x",
          "type": "uint256"
        },
        {
          "internalType": "uint256",
          "name": "y",
          "type": "uint256"
        },
        {
          "internalType": "uint256",
          "name": "denominator",
          "type": "uint256"
        }
      ],
      "name": "PRBMath_MulDiv_Overflow",
      "type": "error"
    },
    {
      "inputs": [
        {
          "internalType": "int256",
          "name": "x",
          "type": "int256"
        }
      ],
      "name": "PRBMath_SD59x18_Convert_Overflow",
      "type": "error"
    },
    {
      "inputs": [
        {
          "internalType": "int256",
          "name": "x",
          "type": "int256"
        }
      ],
      "name": "PRBMath_SD59x18_Convert_Underflow",
      "type": "error"
    },
    {
      "inputs": [
        {
          "internalType": "SD59x18",
          "name": "x",
          "type": "int256"
        }
      ],
      "name": "PRBMath_SD59x18_Exp2_InputTooBig",
      "type": "error"
    },
    {
      "inputs": [
        {
          "internalType": "SD59x18",
          "name": "x",
          "type": "int256"
        }
      ],
      "name": "PRBMath_SD59x18_IntoUD60x18_Underflow",
      "type": "error"
    },
    {
      "inputs": [
        {
          "internalType": "SD59x18",
          "name": "x",
          "type": "int256"
        }
      ],
      "name": "PRBMath_SD59x18_Log_InputTooSmall",
      "type": "error"
    },
    {
      "inputs": [],
      "name": "PRBMath_SD59x18_Mul_InputTooSmall",
      "type": "error"
    },
    {
      "inputs": [
        {
          "internalType": "SD59x18",
          "name": "x",
          "type": "int256"
        },
        {
          "internalType": "SD59x18",
          "name": "y",
          "type": "int256"
        }
      ],
      "name": "PRBMath_SD59x18_Mul_Overflow",
      "type": "error"
    },
    {
      "inputs": [
        {
          "internalType": "uint256",
          "name": "x",
          "type": "uint256"
        }
      ],
      "name": "PRBMath_UD60x18_Convert_Overflow",
      "type": "error"
    },
    {
      "inputs": [
        {
          "internalType": "UD60x18",
          "name": "x",
          "type": "uint256"
        }
      ],
      "name": "PRBMath_UD60x18_IntoSD59x18_Overflow",
      "type": "error"
    },
    {
      "anonymous": false,
      "inputs": [
        {
          "indexed": false,
          "internalType": "uint8",
          "name": "version",
          "type": "uint8"
        }
      ],
      "name": "Initialized",
      "type": "event"
    },
    {
      "anonymous": false,
      "inputs": [
        {
          "indexed": true,
          "internalType": "address",
          "name": "previousOwner",
          "type": "address"
        },
        {
          "indexed": true,
          "internalType": "address",
          "name": "newOwner",
          "type": "address"
        }
      ],
      "name": "OwnershipTransferred",
      "type": "event"
    },
    {
      "stateMutability": "payable",
      "type": "fallback"
    },
    {
      "inputs": [
        {
          "internalType": "uint256",
          "name": "",
          "type": "uint256"
        }
      ],
      "name": "_loans",
      "outputs": [
        {
          "internalType": "address",
          "name": "borrower",
          "type": "address"
        },
        {
          "internalType": "UD60x18",
          "name": "ratePerSecond",
          "type": "uint256"
        },
        {
          "internalType": "UD60x18",
          "name": "paymentPerSecond",
          "type": "uint256"
        },
        {
          "internalType": "uint256",
          "name": "startTime",
          "type": "uint256"
        },
        {
          "internalType": "uint256",
          "name": "unpaidPrincipal",
          "type": "uint256"
        },
        {
          "internalType": "uint256",
          "name": "maxDurationSeconds",
          "type": "uint256"
        },
        {
          "internalType": "uint256",
          "name": "lastPaymentTime",
          "type": "uint256"
        }
      ],
      "stateMutability": "view",
      "type": "function"
    },
    {
      "inputs": [
        {
          "internalType": "uint256",
          "name": "tokenId",
          "type": "uint256"
        }
      ],
      "name": "accruedInterest",
      "outputs": [
        {
          "internalType": "uint256",
          "name": "",
          "type": "uint256"
        }
      ],
      "stateMutability": "view",
      "type": "function"
    },
    {
      "inputs": [],
      "name": "availableLiquidity",
      "outputs": [
        {
          "internalType": "uint256",
          "name": "",
          "type": "uint256"
        }
      ],
      "stateMutability": "view",
      "type": "function"
    },
    {
      "inputs": [
        {
          "components": [
            {
              "internalType": "address",
              "name": "bidder",
              "type": "address"
            },
            {
              "internalType": "uint256",
              "name": "propertyValue",
              "type": "uint256"
            },
            {
              "internalType": "uint256",
              "name": "downPayment",
              "type": "uint256"
            },
            {
              "internalType": "uint256",
              "name": "maxDurationMonths",
              "type": "uint256"
            }
          ],
          "internalType": "struct IState.Bid",
          "name": "bid",
          "type": "tuple"
        }
      ],
      "name": "bidActionable",
      "outputs": [
        {
          "internalType": "bool",
          "name": "",
          "type": "bool"
        }
      ],
      "stateMutability": "view",
      "type": "function"
    },
    {
      "inputs": [
        {
          "internalType": "uint256",
          "name": "tokenId",
          "type": "uint256"
        }
      ],
      "name": "bids",
      "outputs": [
        {
          "components": [
            {
              "internalType": "address",
              "name": "bidder",
              "type": "address"
            },
            {
              "internalType": "uint256",
              "name": "propertyValue",
              "type": "uint256"
            },
            {
              "internalType": "uint256",
              "name": "downPayment",
              "type": "uint256"
            },
            {
              "internalType": "uint256",
              "name": "maxDurationMonths",
              "type": "uint256"
            }
          ],
          "internalType": "struct IState.Bid[]",
          "name": "",
          "type": "tuple[]"
        }
      ],
      "stateMutability": "view",
      "type": "function"
    },
    {
      "inputs": [],
      "name": "defaultFeeSpread",
      "outputs": [
        {
          "internalType": "UD60x18",
          "name": "",
          "type": "uint256"
        }
      ],
      "stateMutability": "view",
      "type": "function"
    },
    {
      "inputs": [
        {
          "internalType": "contract tUsdc",
          "name": "_tUSDC",
          "type": "address"
        },
        {
          "internalType": "contract TangibleNft",
          "name": "_prosperaNftContract",
          "type": "address"
        }
      ],
      "name": "initialize",
      "outputs": [],
      "stateMutability": "nonpayable",
      "type": "function"
    },
    {
      "inputs": [
        {
          "components": [
            {
              "internalType": "address",
              "name": "bidder",
              "type": "address"
            },
            {
              "internalType": "uint256",
              "name": "propertyValue",
              "type": "uint256"
            },
            {
              "internalType": "uint256",
              "name": "downPayment",
              "type": "uint256"
            },
            {
              "internalType": "uint256",
              "name": "maxDurationMonths",
              "type": "uint256"
            }
          ],
          "internalType": "struct IState.Bid",
          "name": "_bid",
          "type": "tuple"
        }
      ],
      "name": "loanBidActionable",
      "outputs": [
        {
          "internalType": "bool",
          "name": "",
          "type": "bool"
        }
      ],
      "stateMutability": "view",
      "type": "function"
    },
    {
      "inputs": [
        {
          "internalType": "uint256",
          "name": "tokenId",
          "type": "uint256"
        }
      ],
      "name": "loans",
      "outputs": [
        {
          "components": [
            {
              "internalType": "address",
              "name": "borrower",
              "type": "address"
            },
            {
              "internalType": "UD60x18",
              "name": "ratePerSecond",
              "type": "uint256"
            },
            {
              "internalType": "UD60x18",
              "name": "paymentPerSecond",
              "type": "uint256"
            },
            {
              "internalType": "uint256",
              "name": "startTime",
              "type": "uint256"
            },
            {
              "internalType": "uint256",
              "name": "unpaidPrincipal",
              "type": "uint256"
            },
            {
              "internalType": "uint256",
              "name": "maxDurationSeconds",
              "type": "uint256"
            },
            {
              "internalType": "uint256",
              "name": "lastPaymentTime",
              "type": "uint256"
            }
          ],
          "internalType": "struct IState.Loan",
          "name": "",
          "type": "tuple"
        }
      ],
      "stateMutability": "view",
      "type": "function"
    },
    {
      "inputs": [
        {
          "internalType": "uint256",
          "name": "idx",
          "type": "uint256"
        }
      ],
      "name": "loansTokenIdsAt",
      "outputs": [
        {
          "internalType": "uint256",
          "name": "tokenId",
          "type": "uint256"
        }
      ],
      "stateMutability": "view",
      "type": "function"
    },
    {
      "inputs": [],
      "name": "loansTokenIdsLength",
      "outputs": [
        {
          "internalType": "uint256",
          "name": "",
          "type": "uint256"
        }
      ],
      "stateMutability": "view",
      "type": "function"
    },
    {
      "inputs": [
        {
          "internalType": "bytes4",
          "name": "",
          "type": "bytes4"
        }
      ],
      "name": "logicTargets",
      "outputs": [
        {
          "internalType": "address",
          "name": "",
          "type": "address"
        }
      ],
      "stateMutability": "view",
      "type": "function"
    },
    {
      "inputs": [],
      "name": "maxDurationMonthsCap",
      "outputs": [
        {
          "internalType": "uint256",
          "name": "",
          "type": "uint256"
        }
      ],
      "stateMutability": "view",
      "type": "function"
    },
    {
      "inputs": [],
      "name": "maxLtv",
      "outputs": [
        {
          "internalType": "UD60x18",
          "name": "",
          "type": "uint256"
        }
      ],
      "stateMutability": "view",
      "type": "function"
    },
    {
      "inputs": [],
      "name": "monthSeconds",
      "outputs": [
        {
          "internalType": "uint256",
          "name": "",
          "type": "uint256"
        }
      ],
      "stateMutability": "view",
      "type": "function"
    },
    {
      "inputs": [
        {
          "internalType": "address",
          "name": "",
          "type": "address"
        },
        {
          "internalType": "address",
          "name": "",
          "type": "address"
        },
        {
          "internalType": "uint256",
          "name": "",
          "type": "uint256"
        },
        {
          "internalType": "bytes",
          "name": "",
          "type": "bytes"
        }
      ],
      "name": "onERC721Received",
      "outputs": [
        {
          "internalType": "bytes4",
          "name": "",
          "type": "bytes4"
        }
      ],
      "stateMutability": "nonpayable",
      "type": "function"
    },
    {
      "inputs": [],
      "name": "optimalUtilization",
      "outputs": [
        {
          "internalType": "UD60x18",
          "name": "",
          "type": "uint256"
        }
      ],
      "stateMutability": "view",
      "type": "function"
    },
    {
      "inputs": [],
      "name": "owner",
      "outputs": [
        {
          "internalType": "address",
          "name": "",
          "type": "address"
        }
      ],
      "stateMutability": "view",
      "type": "function"
    },
    {
      "inputs": [
        {
          "components": [
            {
              "internalType": "address",
              "name": "borrower",
              "type": "address"
            },
            {
              "internalType": "UD60x18",
              "name": "ratePerSecond",
              "type": "uint256"
            },
            {
              "internalType": "UD60x18",
              "name": "paymentPerSecond",
              "type": "uint256"
            },
            {
              "internalType": "uint256",
              "name": "startTime",
              "type": "uint256"
            },
            {
              "internalType": "uint256",
              "name": "unpaidPrincipal",
              "type": "uint256"
            },
            {
              "internalType": "uint256",
              "name": "maxDurationSeconds",
              "type": "uint256"
            },
            {
              "internalType": "uint256",
              "name": "lastPaymentTime",
              "type": "uint256"
            }
          ],
          "internalType": "struct IState.Loan",
          "name": "loan",
          "type": "tuple"
        },
        {
          "internalType": "uint256",
          "name": "month",
          "type": "uint256"
        }
      ],
      "name": "principalCap",
      "outputs": [
        {
          "internalType": "uint256",
          "name": "cap",
          "type": "uint256"
        }
      ],
      "stateMutability": "pure",
      "type": "function"
    },
    {
      "inputs": [],
      "name": "redemptionFeeSpread",
      "outputs": [
        {
          "internalType": "UD60x18",
          "name": "",
          "type": "uint256"
        }
      ],
      "stateMutability": "view",
      "type": "function"
    },
    {
      "inputs": [],
      "name": "renounceOwnership",
      "outputs": [],
      "stateMutability": "nonpayable",
      "type": "function"
    },
    {
      "inputs": [
        {
          "internalType": "bytes4[]",
          "name": "selectorsArr",
          "type": "bytes4[]"
        },
        {
          "internalType": "address",
          "name": "target",
          "type": "address"
        }
      ],
      "name": "setSelectorsTarget",
      "outputs": [],
      "stateMutability": "nonpayable",
      "type": "function"
    },
    {
      "inputs": [
        {
          "internalType": "uint256",
          "name": "tokenId",
          "type": "uint256"
        }
      ],
      "name": "status",
      "outputs": [
        {
          "internalType": "enum IState.Status",
          "name": "",
          "type": "uint8"
        }
      ],
      "stateMutability": "view",
      "type": "function"
    },
    {
      "inputs": [
        {
          "internalType": "uint256",
          "name": "tokenId",
          "type": "uint256"
        }
      ],
      "name": "tokenIdBidsLength",
      "outputs": [
        {
          "internalType": "uint256",
          "name": "",
          "type": "uint256"
        }
      ],
      "stateMutability": "view",
      "type": "function"
    },
    {
      "inputs": [],
      "name": "totalDeposits",
      "outputs": [
        {
          "internalType": "uint256",
          "name": "",
          "type": "uint256"
        }
      ],
      "stateMutability": "view",
      "type": "function"
    },
    {
      "inputs": [],
      "name": "totalPrincipal",
      "outputs": [
        {
          "internalType": "uint256",
          "name": "",
          "type": "uint256"
        }
      ],
      "stateMutability": "view",
      "type": "function"
    },
    {
      "inputs": [
        {
          "internalType": "address",
          "name": "newOwner",
          "type": "address"
        }
      ],
      "name": "transferOwnership",
      "outputs": [],
      "stateMutability": "nonpayable",
      "type": "function"
    },
    {
      "inputs": [],
      "name": "yearMonths",
      "outputs": [
        {
          "internalType": "uint256",
          "name": "",
          "type": "uint256"
        }
      ],
      "stateMutability": "view",
      "type": "function"
    },
    {
      "inputs": [],
      "name": "yearSeconds",
      "outputs": [
        {
          "internalType": "uint256",
          "name": "",
          "type": "uint256"
        }
      ],
      "stateMutability": "view",
      "type": "function"
    },
    {
      "stateMutability": "payable",
      "type": "receive"
    }
  ],
  "bytecode": "0x608060405273a0b86991c6218b36c1d19d4a2e9eb0ce3606eb486002806101000a81548173ffffffffffffffffffffffffffffffffffffffff021916908373ffffffffffffffffffffffffffffffffffffffff1602179055506200008f6200006e60646200027d60201b60201c565b62000080605a6200027d60201b60201c565b6200030e60201b90919060201c565b600755620000c9620000a860646200027d60201b60201c565b620000ba60046200027d60201b60201c565b6200030e60201b90919060201c565b60085562000103620000e260646200027d60201b60201c565b620000f460036200027d60201b60201c565b6200030e60201b90919060201c565b6009556200011860096200027d60201b60201c565b600a55620001526200013160646200027d60201b60201c565b6200014360016200027d60201b60201c565b6200030e60201b90919060201c565b600b556200018c6200016b60646200027d60201b60201c565b6200017d60026200027d60201b60201c565b6200030e60201b90919060201c565b600c55620001c6620001a560646200027d60201b60201c565b620001b760036200027d60201b60201c565b6200030e60201b90919060201c565b600d5562000200620001df60646200027d60201b60201c565b620001f160046200027d60201b60201c565b6200030e60201b90919060201c565b600e55623b5380601455620002416200022060646200027d60201b60201c565b6200023260326200027d60201b60201c565b6200030e60201b90919060201c565b60155560786016553480156200025657600080fd5b50620002776200026b6200036360201b60201c565b6200036b60201b60201c565b62000641565b6000670de0b6b3a76400007fffffffffffffffffffffffffffffffffffffffffffffffffffffffffffffffff620002b591906200059e565b821115620002fc57816040517f1cd951a7000000000000000000000000000000000000000000000000000000008152600401620002f39190620005e7565b60405180910390fd5b670de0b6b3a764000082029050919050565b60006200035b6200034f62000329856200042f60201b60201c565b670de0b6b3a764000062000343866200042f60201b60201c565b6200043960201b60201c565b6200055b60201b60201c565b905092915050565b600033905090565b60008060009054906101000a900473ffffffffffffffffffffffffffffffffffffffff169050816000806101000a81548173ffffffffffffffffffffffffffffffffffffffff021916908373ffffffffffffffffffffffffffffffffffffffff1602179055508173ffffffffffffffffffffffffffffffffffffffff168173ffffffffffffffffffffffffffffffffffffffff167f8be0079c531659141344cd1fd0a4f28419497f9722a3daafe3b4186f6b6457e060405160405180910390a35050565b6000819050919050565b600080600080198587098587029250828110838203039150506000810362000479578382816200046e576200046d6200056f565b5b049250505062000554565b838110620004c4578585856040517f63a05778000000000000000000000000000000000000000000000000000000008152600401620004bb9392919062000604565b60405180910390fd5b60008486880990508281118203915080830392506000600186190186169050600081870496508185049450600182836000030401905080840285179450600060028860030218905080880260020381029050808802600203810290508088026002038102905080880260020381029050808802600203810290508088026002038102905080860296505050505050505b9392505050565b6000819050919050565b6000819050919050565b7f4e487b7100000000000000000000000000000000000000000000000000000000600052601260045260246000fd5b6000620005ab8262000565565b9150620005b88362000565565b925082620005cb57620005ca6200056f565b5b828204905092915050565b620005e18162000565565b82525050565b6000602082019050620005fe6000830184620005d6565b92915050565b60006060820190506200061b6000830186620005d6565b6200062a6020830185620005d6565b620006396040830184620005d6565b949350505050565b613e1380620006516000396000f3fe6080604052600436106101c65760003560e01c806374375359116100f7578063a54cab1c11610095578063e1ec3c6811610064578063e1ec3c68146106c8578063e343504414610705578063f2fde38b1461072e578063ff9ad6df14610757576101d5565b8063a54cab1c146105f2578063ab01f7e11461061d578063bcff3e3b14610648578063bd5c569b14610685576101d5565b8063812cf018116100d1578063812cf0181461053457806387ae0dbe1461055f5780638da5cb5b1461058a578063a0024c2f146105b5576101d5565b806374375359146104a157806374bdf96a146104cc5780637d88209714610509576101d5565b806342d21ef7116101645780634abb30031161013e5780634abb3003146104095780634b1533b2146104345780636290cd1c1461045f578063715018a61461048a576101d5565b806342d21ef7146103665780634423c5f1146103a3578063485cc955146103e0576101d5565b80631cc03c87116101a05780631cc03c87146102965780632da10923146102d35780633a12c6da146103105780633ca36db61461033b576101d5565b80630a9cc0b6146101df578063150b7a021461021c57806317548b7914610259576101d5565b366101d5576101d3610782565b005b6101dd610782565b005b3480156101eb57600080fd5b5061020660048036038101906102019190612e5f565b61079c565b6040516102139190612ea7565b60405180910390f35b34801561022857600080fd5b50610243600480360381019061023e9190612f7c565b610811565b604051610250919061303a565b60405180910390f35b34801561026557600080fd5b50610280600480360381019061027b9190613081565b610825565b60405161028d91906130bd565b60405180910390f35b3480156102a257600080fd5b506102bd60048036038101906102b891906131b8565b610858565b6040516102ca9190613208565b60405180910390f35b3480156102df57600080fd5b506102fa60048036038101906102f59190613223565b6109ba565b6040516103079190613208565b60405180910390f35b34801561031c57600080fd5b506103256109da565b604051610332919061328b565b60405180910390f35b34801561034757600080fd5b506103506109e0565b60405161035d919061328b565b60405180910390f35b34801561037257600080fd5b5061038d60048036038101906103889190613223565b6109ea565b60405161039a919061331d565b60405180910390f35b3480156103af57600080fd5b506103ca60048036038101906103c59190613223565b610b31565b6040516103d7919061345a565b60405180910390f35b3480156103ec57600080fd5b50610407600480360381019061040291906134f8565b610c17565b005b34801561041557600080fd5b5061041e610dd8565b60405161042b919061328b565b60405180910390f35b34801561044057600080fd5b50610449610de2565b6040516104569190613208565b60405180910390f35b34801561046b57600080fd5b50610474610de8565b604051610481919061328b565b60405180910390f35b34801561049657600080fd5b5061049f610dee565b005b3480156104ad57600080fd5b506104b6610e02565b6040516104c39190613208565b60405180910390f35b3480156104d857600080fd5b506104f360048036038101906104ee9190613223565b610e19565b6040516105009190613208565b60405180910390f35b34801561051557600080fd5b5061051e610e36565b60405161052b9190613208565b60405180910390f35b34801561054057600080fd5b50610549610e3c565b6040516105569190613208565b60405180910390f35b34801561056b57600080fd5b50610574610e41565b6040516105819190613208565b60405180910390f35b34801561059657600080fd5b5061059f610e49565b6040516105ac91906130bd565b60405180910390f35b3480156105c157600080fd5b506105dc60048036038101906105d79190612e5f565b610e72565b6040516105e99190612ea7565b60405180910390f35b3480156105fe57600080fd5b50610607610e96565b6040516106149190613208565b60405180910390f35b34801561062957600080fd5b50610632610e9c565b60405161063f9190613208565b60405180910390f35b34801561065457600080fd5b5061066f600480360381019061066a9190613223565b610ead565b60405161067c9190613208565b60405180910390f35b34801561069157600080fd5b506106ac60048036038101906106a79190613223565b610f6e565b6040516106bf9796959493929190613538565b60405180910390f35b3480156106d457600080fd5b506106ef60048036038101906106ea9190613223565b610fd0565b6040516106fc9190613644565b60405180910390f35b34801561071157600080fd5b5061072c600480360381019061072791906136bf565b61108f565b005b34801561073a57600080fd5b506107556004803603810190610750919061371f565b611175565b005b34801561076357600080fd5b5061076c6111f8565b6040516107799190613208565b60405180910390f35b61078a61120c565b61079a61079561120e565b611319565b565b600080826040015183602001516107b3919061377b565b905060006107de6107c7856020015161133f565b6107d08461133f565b6113cb90919063ffffffff16565b90506107f56015548261140090919063ffffffff16565b80156108085750610804610e02565b8211155b92505050919050565b600063150b7a0260e01b9050949350505050565b60016020528060005260406000206000915054906101000a900473ffffffffffffffffffffffffffffffffffffffff1681565b60006108638361141e565b8211156108a5576040517f08c379a000000000000000000000000000000000000000000000000000000000815260040161089c90613832565b60405180910390fd5b6000600c6301e133806108b89190613881565b836108c391906138b2565b905060006109096108d46001611447565b6108fb6108e48860a00151611447565b6108ed86611447565b61154b90919063ffffffff16565b61154b90919063ffffffff16565b9050600061096261094a8361093c6109378a60200151610929600161133f565b61157990919063ffffffff16565b6115a7565b61161b90919063ffffffff16565b6109546001611447565b61154b90919063ffffffff16565b9050600061098d6109888361097a8a604001516115a7565b6116d990919063ffffffff16565b611869565b90506109ae6109a98860200151836113cb90919063ffffffff16565b6118be565b94505050505092915050565b6000600f6000838152602001908152602001600020805490509050919050565b60155481565b6000600d54905090565b600080601060008481526020019081526020016000206040518060e00160405290816000820160009054906101000a900473ffffffffffffffffffffffffffffffffffffffff1673ffffffffffffffffffffffffffffffffffffffff1673ffffffffffffffffffffffffffffffffffffffff16815260200160018201548152602001600282015481526020016003820154815260200160048201548152602001600582015481526020016006820154815250509050600073ffffffffffffffffffffffffffffffffffffffff16816000015173ffffffffffffffffffffffffffffffffffffffff1603610ae1576000915050610b2c565b610aea836118db565b15610b26576000610afa826119f0565b42610b05919061377b565b90506014548111610b1b57600292505050610b2c565b600392505050610b2c565b60019150505b919050565b6060600f6000838152602001908152602001600020805480602002602001604051908101604052809291908181526020016000905b82821015610c0c57838290600052602060002090600402016040518060800160405290816000820160009054906101000a900473ffffffffffffffffffffffffffffffffffffffff1673ffffffffffffffffffffffffffffffffffffffff1673ffffffffffffffffffffffffffffffffffffffff168152602001600182015481526020016002820154815260200160038201548152505081526020019060010190610b66565b505050509050919050565b6000600260019054906101000a900460ff16159050808015610c4b57506001600260009054906101000a900460ff1660ff16105b80610c7a5750610c5a30611a9b565b158015610c7957506001600260009054906101000a900460ff1660ff16145b5b610cb9576040517f08c379a0000000000000000000000000000000000000000000000000000000008152600401610cb090613966565b60405180910390fd5b6001600260006101000a81548160ff021916908360ff1602179055508015610cf7576001600260016101000a81548160ff0219169083151502179055505b82600360006101000a81548173ffffffffffffffffffffffffffffffffffffffff021916908373ffffffffffffffffffffffffffffffffffffffff16021790555081600460006101000a81548173ffffffffffffffffffffffffffffffffffffffff021916908373ffffffffffffffffffffffffffffffffffffffff1602179055508015610dd3576000600260016101000a81548160ff0219169083151502179055507f7f26b83ff96e1f2b6a682f133852f6798a09c465da95921460cefb38474024986001604051610dca91906139ce565b60405180910390a15b505050565b6000600e54905090565b60055481565b60075481565b610df6611abe565b610e006000611b3c565b565b6000600554600654610e14919061377b565b905090565b6000610e2f826011611c0090919063ffffffff16565b9050919050565b60065481565b600c81565b6301e1338081565b60008060009054906101000a900473ffffffffffffffffffffffffffffffffffffffff16905090565b6000816040015182602001511480610e8f5750610e8e8261079c565b5b9050919050565b60165481565b6000610ea86011611c1a565b905090565b6000610f67601060008481526020019081526020016000206040518060e00160405290816000820160009054906101000a900473ffffffffffffffffffffffffffffffffffffffff1673ffffffffffffffffffffffffffffffffffffffff1673ffffffffffffffffffffffffffffffffffffffff1681526020016001820154815260200160028201548152602001600382015481526020016004820154815260200160058201548152602001600682015481525050611c2f565b9050919050565b60106020528060005260406000206000915090508060000160009054906101000a900473ffffffffffffffffffffffffffffffffffffffff16908060010154908060020154908060030154908060040154908060050154908060060154905087565b610fd8612c5b565b601060008381526020019081526020016000206040518060e00160405290816000820160009054906101000a900473ffffffffffffffffffffffffffffffffffffffff1673ffffffffffffffffffffffffffffffffffffffff1673ffffffffffffffffffffffffffffffffffffffff16815260200160018201548152602001600282015481526020016003820154815260200160048201548152602001600582015481526020016006820154815250509050919050565b611097611abe565b60005b8383905081101561116f5781600160008686858181106110bd576110bc6139e9565b5b90506020020160208101906110d29190613081565b7bffffffffffffffffffffffffffffffffffffffffffffffffffffffff19167bffffffffffffffffffffffffffffffffffffffffffffffffffffffff1916815260200190815260200160002060006101000a81548173ffffffffffffffffffffffffffffffffffffffff021916908373ffffffffffffffffffffffffffffffffffffffff160217905550808061116790613a18565b91505061109a565b50505050565b61117d611abe565b600073ffffffffffffffffffffffffffffffffffffffff168173ffffffffffffffffffffffffffffffffffffffff16036111ec576040517f08c379a00000000000000000000000000000000000000000000000000000000081526004016111e390613ad2565b60405180910390fd5b6111f581611b3c565b50565b600c6301e133806112099190613881565b81565b565b60006001600080357fffffffff00000000000000000000000000000000000000000000000000000000167bffffffffffffffffffffffffffffffffffffffffffffffffffffffff19167bffffffffffffffffffffffffffffffffffffffffffffffffffffffff1916815260200190815260200160002060009054906101000a900473ffffffffffffffffffffffffffffffffffffffff169050600073ffffffffffffffffffffffffffffffffffffffff168173ffffffffffffffffffffffffffffffffffffffff1603611316576040517f08c379a000000000000000000000000000000000000000000000000000000000815260040161130d90613b3e565b60405180910390fd5b90565b3660008037600080366000845af43d6000803e806000811461133a573d6000f35b3d6000fd5b6000670de0b6b3a76400007fffffffffffffffffffffffffffffffffffffffffffffffffffffffffffffffff6113759190613881565b8211156113b957816040517f1cd951a70000000000000000000000000000000000000000000000000000000081526004016113b09190613208565b60405180910390fd5b670de0b6b3a764000082029050919050565b60006113f86113f36113dc85611c67565b670de0b6b3a76400006113ee86611c67565b611c71565b611d8b565b905092915050565b600061140b82611c67565b61141484611c67565b1115905092915050565b60006301e133808260a00151600c61143691906138b2565b6114409190613881565b9050919050565b6000670de0b6b3a76400007f800000000000000000000000000000000000000000000000000000000000000061147d9190613b68565b8212156114c157816040517f99474eeb0000000000000000000000000000000000000000000000000000000081526004016114b89190613be1565b60405180910390fd5b670de0b6b3a76400007f7fffffffffffffffffffffffffffffffffffffffffffffffffffffffffffffff6114f59190613b68565b82131561153957816040517f9d5810910000000000000000000000000000000000000000000000000000000081526004016115309190613be1565b60405180910390fd5b670de0b6b3a764000082029050919050565b600061157161155983611d95565b61156285611d95565b61156c9190613bfc565b611d9f565b905092915050565b600061159f61158783611c67565b61159085611c67565b61159a9190613c3f565b611d8b565b905092915050565b6000808290507f7fffffffffffffffffffffffffffffffffffffffffffffffffffffffffffffff81111561161257826040517ff4618684000000000000000000000000000000000000000000000000000000008152600401611609919061328b565b60405180910390fd5b80915050919050565b60008061162784611d95565b9050600061163484611d95565b905060008203611660576000811461164d576000611657565b670de0b6b3a76400005b925050506116d3565b670de0b6b3a7640000820361168157670de0b6b3a7640000925050506116d3565b6000810361169b57670de0b6b3a7640000925050506116d3565b670de0b6b3a764000081036116b45784925050506116d3565b6116ce6116c96116c387611da9565b866116d9565b611f3c565b925050505b92915050565b6000806116e584611d95565b905060006116f284611d95565b90507f800000000000000000000000000000000000000000000000000000000000000082148061174157507f800000000000000000000000000000000000000000000000000000000000000081145b15611778576040517fa6070c2500000000000000000000000000000000000000000000000000000000815260040160405180910390fd5b60008060008412611789578361178e565b836000035b91506000831261179e57826117a3565b826000035b905060006117b1838361205a565b90507f7fffffffffffffffffffffffffffffffffffffffffffffffffffffffffffffff81111561181a5787876040517f120b5b43000000000000000000000000000000000000000000000000000000008152600401611811929190613ca4565b60405180910390fd5b60007fffffffffffffffffffffffffffffffffffffffffffffffffffffffffffffffff85871813905061185b816118545782600003611856565b825b611d9f565b965050505050505092915050565b60008082905060008112156118b557826040517fbba41a150000000000000000000000000000000000000000000000000000000081526004016118ac9190613ccd565b60405180910390fd5b80915050919050565b6000670de0b6b3a7640000826118d49190613881565b9050919050565b600080601060008481526020019081526020016000206040518060e00160405290816000820160009054906101000a900473ffffffffffffffffffffffffffffffffffffffff1673ffffffffffffffffffffffffffffffffffffffff1673ffffffffffffffffffffffffffffffffffffffff16815260200160018201548152602001600282015481526020016003820154815260200160048201548152602001600582015481526020016006820154815250509050600061199b82612144565b90506000600c6301e133808460a001516119b59190613881565b6119bf91906138b2565b9050808211156119d557600193505050506119eb565b6119df8383610858565b83608001511193505050505b919050565b6000806119fc83612144565b905060008190505b6000811115611a94576000611a198583610858565b90506000611a3386600185611a2e919061377b565b610858565b9050818660800151118015611a4c575080866080015111155b15611a7f57600c6301e13380611a629190613881565b83611a6d91906138b2565b8660600151611a7c9190613c3f565b94505b50508080611a8c90613ce8565b915050611a04565b5050919050565b6000808273ffffffffffffffffffffffffffffffffffffffff163b119050919050565b611ac6612199565b73ffffffffffffffffffffffffffffffffffffffff16611ae4610e49565b73ffffffffffffffffffffffffffffffffffffffff1614611b3a576040517f08c379a0000000000000000000000000000000000000000000000000000000008152600401611b3190613d5d565b60405180910390fd5b565b60008060009054906101000a900473ffffffffffffffffffffffffffffffffffffffff169050816000806101000a81548173ffffffffffffffffffffffffffffffffffffffff021916908373ffffffffffffffffffffffffffffffffffffffff1602179055508173ffffffffffffffffffffffffffffffffffffffff168173ffffffffffffffffffffffffffffffffffffffff167f8be0079c531659141344cd1fd0a4f28419497f9722a3daafe3b4186f6b6457e060405160405180910390a35050565b6000611c0f83600001836121a1565b60001c905092915050565b6000611c28826000016121cc565b9050919050565b6000611c60611c5b611c40846121dd565b611c4d856080015161133f565b61220d90919063ffffffff16565b6118be565b9050919050565b6000819050919050565b6000806000801985870985870292508281108382030391505060008103611cac57838281611ca257611ca1613852565b5b0492505050611d84565b838110611cf4578585856040517f63a05778000000000000000000000000000000000000000000000000000000008152600401611ceb93929190613d7d565b60405180910390fd5b60008486880990508281118203915080830392506000600186190186169050600081870496508185049450600182836000030401905080840285179450600060028860030218905080880260020381029050808802600203810290508088026002038102905080880260020381029050808802600203810290508088026002038102905080860296505050505050505b9392505050565b6000819050919050565b6000819050919050565b6000819050919050565b600080611db583611d95565b905060008113611dfc57826040517f059b101b000000000000000000000000000000000000000000000000000000008152600401611df39190613ccd565b60405180910390fd5b6000670de0b6b3a76400008212611e165760019050611e5c565b7fffffffffffffffffffffffffffffffffffffffffffffffffffffffffffffffff9050816ec097ce7bc90715b34b9f100000000081611e5857611e57613852565b5b0591505b6000611e7f670de0b6b3a76400008481611e7957611e78613852565b5b05612239565b90506000670de0b6b3a76400008202905060008285901d9050670de0b6b3a76400008103611ebe57611eb2848302611d9f565b95505050505050611f37565b6000671bc16d674ec80000905060006706f05b59d3b2000090505b6000811315611f1f57670de0b6b3a764000083840281611efc57611efb613852565b5b059250818312611f13578084019350600183901d92505b600181901d9050611ed9565b508483029250611f2e83611d9f565b96505050505050505b919050565b600080611f4883611d95565b90506000811215611fcf577ffffffffffffffffffffffffffffffffffffffffffffffffcc22e87f6eb468eeb811215611f85576000915050612055565b611fc8611fa4611f9f611f9a84600003611d9f565b611f3c565b611d95565b6ec097ce7bc90715b34b9f100000000081611fc257611fc1613852565b5b05611d9f565b9150612053565b680a688906bd8affffff81131561201d57826040517f0360d0280000000000000000000000000000000000000000000000000000000081526004016120149190613ccd565b60405180910390fd5b6000670de0b6b3a7640000604083901b8161203b5761203a613852565b5b05905061204f61204a826122e2565b611d9f565b9250505b505b919050565b600080600080198486098486029250828110838203039150506000810361209d57670de0b6b3a7640000828161209357612092613852565b5b049250505061213e565b670de0b6b3a764000081106120eb5784846040517f5173648d0000000000000000000000000000000000000000000000000000000081526004016120e2929190613db4565b60405180910390fd5b6000670de0b6b3a764000085870990507faccb18165bd6fe31ae1cf318dc5b51eee0e1ba569b88cd74c1773b91fac106696001620400008060000304018483118403026204000083860304170293505050505b92915050565b600080600c6301e133806121589190613881565b836060015142612168919061377b565b6121729190613881565b9050600061217f8461141e565b905080821161218e5781612190565b805b92505050919050565b600033905090565b60008260000182815481106121b9576121b86139e9565b5b9060005260206000200154905092915050565b600081600001805490509050919050565b60006122066121f36121ee84612c42565b61133f565b836020015161220d90919063ffffffff16565b9050919050565b600061223161222c61221e85611c67565b61222785611c67565b61205a565b611d8b565b905092915050565b60006fffffffffffffffffffffffffffffffff821160071b82811c925080821791505067ffffffffffffffff821160061b82811c925080821791505063ffffffff821160051b82811c925080821791505061ffff821160041b82811c925080821791505060ff821160031b82811c9250808217915050600f821160021b82811c92508082179150506003821160011b82811c925080821791505060018211808217915050919050565b6000778000000000000000000000000000000000000000000000009050600067ff00000000000000831611156124435760006780000000000000008316111561233857604068016a09e667f3bcc9098202901c90505b60006740000000000000008316111561235e5760406801306fe0a31b7152df8202901c90505b6000672000000000000000831611156123845760406801172b83c7d517adce8202901c90505b6000671000000000000000831611156123aa57604068010b5586cf9890f62a8202901c90505b6000670800000000000000831611156123d05760406801059b0d31585743ae8202901c90505b6000670400000000000000831611156123f6576040680102c9a3e778060ee78202901c90505b60006702000000000000008316111561241c57604068010163da9fb33356d88202901c90505b600067010000000000000083161115612442576040680100b1afa5abcbed618202901c90505b5b600066ff0000000000008316111561257e57600066800000000000008316111561247a57604068010058c86da1c09ea28202901c90505b600066400000000000008316111561249f5760406801002c605e2e8cec508202901c90505b60006620000000000000831611156124c4576040680100162f3904051fa18202901c90505b60006610000000000000831611156124e95760406801000b175effdc76ba8202901c90505b600066080000000000008316111561250e576040680100058ba01fb9f96d8202901c90505b600066040000000000008316111561253357604068010002c5cc37da94928202901c90505b60006602000000000000831611156125585760406801000162e525ee05478202901c90505b600066010000000000008316111561257d57604068010000b17255775c048202901c90505b5b600065ff0000000000831611156126b057600065800000000000831611156125b35760406801000058b91b5bc9ae8202901c90505b600065400000000000831611156125d7576040680100002c5c89d5ec6d8202901c90505b600065200000000000831611156125fb57604068010000162e43f4f8318202901c90505b6000651000000000008316111561261f576040680100000b1721bcfc9a8202901c90505b6000650800000000008316111561264357604068010000058b90cf1e6e8202901c90505b600065040000000000831611156126675760406801000002c5c863b73f8202901c90505b6000650200000000008316111561268b576040680100000162e430e5a28202901c90505b600065010000000000831611156126af5760406801000000b1721835518202901c90505b5b600064ff00000000831611156127d9576000648000000000831611156126e3576040680100000058b90c0b498202901c90505b60006440000000008316111561270657604068010000002c5c8601cc8202901c90505b6000642000000000831611156127295760406801000000162e42fff08202901c90505b60006410000000008316111561274c57604068010000000b17217fbb8202901c90505b60006408000000008316111561276f5760406801000000058b90bfce8202901c90505b600064040000000083161115612792576040680100000002c5c85fe38202901c90505b6000640200000000831611156127b557604068010000000162e42ff18202901c90505b6000640100000000831611156127d8576040680100000000b17217f88202901c90505b5b600063ff000000831611156128f957600063800000008316111561280a57604068010000000058b90bfc8202901c90505b600063400000008316111561282c5760406801000000002c5c85fe8202901c90505b600063200000008316111561284e576040680100000000162e42ff8202901c90505b60006310000000831611156128705760406801000000000b17217f8202901c90505b6000630800000083161115612892576040680100000000058b90c08202901c90505b60006304000000831611156128b457604068010000000002c5c8608202901c90505b60006302000000831611156128d65760406801000000000162e4308202901c90505b60006301000000831611156128f857604068010000000000b172188202901c90505b5b600062ff000083161115612a1057600062800000831611156129285760406801000000000058b90c8202901c90505b60006240000083161115612949576040680100000000002c5c868202901c90505b6000622000008316111561296a57604068010000000000162e438202901c90505b6000621000008316111561298b576040680100000000000b17218202901c90505b600062080000831611156129ac57604068010000000000058b918202901c90505b600062040000831611156129cd5760406801000000000002c5c88202901c90505b600062020000831611156129ee576040680100000000000162e48202901c90505b60006201000083161115612a0f5760406801000000000000b1728202901c90505b5b600061ff0083161115612b1e57600061800083161115612a3d576040680100000000000058b98202901c90505b600061400083161115612a5d57604068010000000000002c5d8202901c90505b600061200083161115612a7d5760406801000000000000162e8202901c90505b600061100083161115612a9d57604068010000000000000b178202901c90505b600061080083161115612abd5760406801000000000000058c8202901c90505b600061040083161115612add576040680100000000000002c68202901c90505b600061020083161115612afd576040680100000000000001638202901c90505b600061010083161115612b1d576040680100000000000000b18202901c90505b5b600060ff83161115612c23576000608083161115612b49576040680100000000000000598202901c90505b6000604083161115612b685760406801000000000000002c8202901c90505b6000602083161115612b87576040680100000000000000168202901c90505b6000601083161115612ba65760406801000000000000000b8202901c90505b6000600883161115612bc5576040680100000000000000068202901c90505b6000600483161115612be4576040680100000000000000038202901c90505b6000600283161115612c03576040680100000000000000018202901c90505b6000600183161115612c22576040680100000000000000018202901c90505b5b670de0b6b3a764000081029050604082901c60bf0381901c9050919050565b60008160c0015142612c54919061377b565b9050919050565b6040518060e00160405280600073ffffffffffffffffffffffffffffffffffffffff1681526020016000815260200160008152602001600081526020016000815260200160008152602001600081525090565b6000604051905090565b600080fd5b600080fd5b600080fd5b6000601f19601f8301169050919050565b7f4e487b7100000000000000000000000000000000000000000000000000000000600052604160045260246000fd5b612d1082612cc7565b810181811067ffffffffffffffff82111715612d2f57612d2e612cd8565b5b80604052505050565b6000612d42612cae565b9050612d4e8282612d07565b919050565b600073ffffffffffffffffffffffffffffffffffffffff82169050919050565b6000612d7e82612d53565b9050919050565b612d8e81612d73565b8114612d9957600080fd5b50565b600081359050612dab81612d85565b92915050565b6000819050919050565b612dc481612db1565b8114612dcf57600080fd5b50565b600081359050612de181612dbb565b92915050565b600060808284031215612dfd57612dfc612cc2565b5b612e076080612d38565b90506000612e1784828501612d9c565b6000830152506020612e2b84828501612dd2565b6020830152506040612e3f84828501612dd2565b6040830152506060612e5384828501612dd2565b60608301525092915050565b600060808284031215612e7557612e74612cb8565b5b6000612e8384828501612de7565b91505092915050565b60008115159050919050565b612ea181612e8c565b82525050565b6000602082019050612ebc6000830184612e98565b92915050565b600080fd5b600080fd5b600067ffffffffffffffff821115612ee757612ee6612cd8565b5b612ef082612cc7565b9050602081019050919050565b82818337600083830152505050565b6000612f1f612f1a84612ecc565b612d38565b905082815260208101848484011115612f3b57612f3a612ec7565b5b612f46848285612efd565b509392505050565b600082601f830112612f6357612f62612ec2565b5b8135612f73848260208601612f0c565b91505092915050565b60008060008060808587031215612f9657612f95612cb8565b5b6000612fa487828801612d9c565b9450506020612fb587828801612d9c565b9350506040612fc687828801612dd2565b925050606085013567ffffffffffffffff811115612fe757612fe6612cbd565b5b612ff387828801612f4e565b91505092959194509250565b60007fffffffff0000000000000000000000000000000000000000000000000000000082169050919050565b61303481612fff565b82525050565b600060208201905061304f600083018461302b565b92915050565b61305e81612fff565b811461306957600080fd5b50565b60008135905061307b81613055565b92915050565b60006020828403121561309757613096612cb8565b5b60006130a58482850161306c565b91505092915050565b6130b781612d73565b82525050565b60006020820190506130d260008301846130ae565b92915050565b6130e181612db1565b81146130ec57600080fd5b50565b6000813590506130fe816130d8565b92915050565b600060e0828403121561311a57613119612cc2565b5b61312460e0612d38565b9050600061313484828501612d9c565b6000830152506020613148848285016130ef565b602083015250604061315c848285016130ef565b604083015250606061317084828501612dd2565b606083015250608061318484828501612dd2565b60808301525060a061319884828501612dd2565b60a08301525060c06131ac84828501612dd2565b60c08301525092915050565b60008061010083850312156131d0576131cf612cb8565b5b60006131de85828601613104565b92505060e06131ef85828601612dd2565b9150509250929050565b61320281612db1565b82525050565b600060208201905061321d60008301846131f9565b92915050565b60006020828403121561323957613238612cb8565b5b600061324784828501612dd2565b91505092915050565b6000819050919050565b600061327561327061326b84612db1565b613250565b612db1565b9050919050565b6132858161325a565b82525050565b60006020820190506132a0600083018461327c565b92915050565b7f4e487b7100000000000000000000000000000000000000000000000000000000600052602160045260246000fd5b600481106132e6576132e56132a6565b5b50565b60008190506132f7826132d5565b919050565b6000613307826132e9565b9050919050565b613317816132fc565b82525050565b6000602082019050613332600083018461330e565b92915050565b600081519050919050565b600082825260208201905092915050565b6000819050602082019050919050565b61336d81612d73565b82525050565b61337c81612db1565b82525050565b6080820160008201516133986000850182613364565b5060208201516133ab6020850182613373565b5060408201516133be6040850182613373565b5060608201516133d16060850182613373565b50505050565b60006133e38383613382565b60808301905092915050565b6000602082019050919050565b600061340782613338565b6134118185613343565b935061341c83613354565b8060005b8381101561344d57815161343488826133d7565b975061343f836133ef565b925050600181019050613420565b5085935050505092915050565b6000602082019050818103600083015261347481846133fc565b905092915050565b600061348782612d73565b9050919050565b6134978161347c565b81146134a257600080fd5b50565b6000813590506134b48161348e565b92915050565b60006134c582612d73565b9050919050565b6134d5816134ba565b81146134e057600080fd5b50565b6000813590506134f2816134cc565b92915050565b6000806040838503121561350f5761350e612cb8565b5b600061351d858286016134a5565b925050602061352e858286016134e3565b9150509250929050565b600060e08201905061354d600083018a6130ae565b61355a602083018961327c565b613567604083018861327c565b61357460608301876131f9565b61358160808301866131f9565b61358e60a08301856131f9565b61359b60c08301846131f9565b98975050505050505050565b6135b08161325a565b82525050565b60e0820160008201516135cc6000850182613364565b5060208201516135df60208501826135a7565b5060408201516135f260408501826135a7565b5060608201516136056060850182613373565b5060808201516136186080850182613373565b5060a082015161362b60a0850182613373565b5060c082015161363e60c0850182613373565b50505050565b600060e08201905061365960008301846135b6565b92915050565b600080fd5b600080fd5b60008083601f84011261367f5761367e612ec2565b5b8235905067ffffffffffffffff81111561369c5761369b61365f565b5b6020830191508360208202830111156136b8576136b7613664565b5b9250929050565b6000806000604084860312156136d8576136d7612cb8565b5b600084013567ffffffffffffffff8111156136f6576136f5612cbd565b5b61370286828701613669565b9350935050602061371586828701612d9c565b9150509250925092565b60006020828403121561373557613734612cb8565b5b600061374384828501612d9c565b91505092915050565b7f4e487b7100000000000000000000000000000000000000000000000000000000600052601160045260246000fd5b600061378682612db1565b915061379183612db1565b92508282039050818111156137a9576137a861374c565b5b92915050565b600082825260208201905092915050565b7f6d6f6e7468206d757374206265203c3d206c6f616e4d61784475726174696f6e60008201527f4d6f6e7468730000000000000000000000000000000000000000000000000000602082015250565b600061381c6026836137af565b9150613827826137c0565b604082019050919050565b6000602082019050818103600083015261384b8161380f565b9050919050565b7f4e487b7100000000000000000000000000000000000000000000000000000000600052601260045260246000fd5b600061388c82612db1565b915061389783612db1565b9250826138a7576138a6613852565b5b828204905092915050565b60006138bd82612db1565b91506138c883612db1565b92508282026138d681612db1565b915082820484148315176138ed576138ec61374c565b5b5092915050565b7f496e697469616c697a61626c653a20636f6e747261637420697320616c72656160008201527f647920696e697469616c697a6564000000000000000000000000000000000000602082015250565b6000613950602e836137af565b915061395b826138f4565b604082019050919050565b6000602082019050818103600083015261397f81613943565b9050919050565b6000819050919050565b600060ff82169050919050565b60006139b86139b36139ae84613986565b613250565b613990565b9050919050565b6139c88161399d565b82525050565b60006020820190506139e360008301846139bf565b92915050565b7f4e487b7100000000000000000000000000000000000000000000000000000000600052603260045260246000fd5b6000613a2382612db1565b91507fffffffffffffffffffffffffffffffffffffffffffffffffffffffffffffffff8203613a5557613a5461374c565b5b600182019050919050565b7f4f776e61626c653a206e6577206f776e657220697320746865207a65726f206160008201527f6464726573730000000000000000000000000000000000000000000000000000602082015250565b6000613abc6026836137af565b9150613ac782613a60565b604082019050919050565b60006020820190508181036000830152613aeb81613aaf565b9050919050565b7f73696720686173206e6f20746172676574000000000000000000000000000000600082015250565b6000613b286011836137af565b9150613b3382613af2565b602082019050919050565b60006020820190508181036000830152613b5781613b1b565b9050919050565b6000819050919050565b6000613b7382613b5e565b9150613b7e83613b5e565b925082613b8e57613b8d613852565b5b600160000383147f800000000000000000000000000000000000000000000000000000000000000083141615613bc757613bc661374c565b5b828205905092915050565b613bdb81613b5e565b82525050565b6000602082019050613bf66000830184613bd2565b92915050565b6000613c0782613b5e565b9150613c1283613b5e565b9250828203905081811260008412168282136000851215161715613c3957613c3861374c565b5b92915050565b6000613c4a82612db1565b9150613c5583612db1565b9250828201905080821115613c6d57613c6c61374c565b5b92915050565b6000613c8e613c89613c8484613b5e565b613250565b613b5e565b9050919050565b613c9e81613c73565b82525050565b6000604082019050613cb96000830185613c95565b613cc66020830184613c95565b9392505050565b6000602082019050613ce26000830184613c95565b92915050565b6000613cf382612db1565b915060008203613d0657613d0561374c565b5b600182039050919050565b7f4f776e61626c653a2063616c6c6572206973206e6f7420746865206f776e6572600082015250565b6000613d476020836137af565b9150613d5282613d11565b602082019050919050565b60006020820190508181036000830152613d7681613d3a565b9050919050565b6000606082019050613d9260008301866131f9565b613d9f60208301856131f9565b613dac60408301846131f9565b949350505050565b6000604082019050613dc960008301856131f9565b613dd660208301846131f9565b939250505056fea2646970667358221220a7197be875d9c354eb6e6622d4335bb1377525dc1011709da4d43c9a19f7d20964736f6c63430008130033",
  "linkReferences": {},
  "deployedLinkReferences": {}
}