{
  "_format": "hh-sol-artifact-1",
  "contractName": "ProtocolProxy",
  "sourceName": "contracts/protocol/protocolProxy/ProtocolProxy.sol",
  "abi": [
    {
      "inputs": [
        {
          "internalType": "uint256",
          "name": "x",
          "type": "uint256"
        },
        {
          "internalType": "uint256",
          "name": "y",
          "type": "uint256"
        }
      ],
      "name": "PRBMath_MulDiv18_Overflow",
      "type": "error"
    },
    {
      "inputs": [
        {
          "internalType": "uint256",
          "name": "x",
          "type": "uint256"
        },
        {
          "internalType": "uint256",
          "name": "y",
          "type": "uint256"
        },
        {
          "internalType": "uint256",
          "name": "denominator",
          "type": "uint256"
        }
      ],
      "name": "PRBMath_MulDiv_Overflow",
      "type": "error"
    },
    {
      "inputs": [
        {
          "internalType": "int256",
          "name": "x",
          "type": "int256"
        }
      ],
      "name": "PRBMath_SD59x18_Convert_Overflow",
      "type": "error"
    },
    {
      "inputs": [
        {
          "internalType": "int256",
          "name": "x",
          "type": "int256"
        }
      ],
      "name": "PRBMath_SD59x18_Convert_Underflow",
      "type": "error"
    },
    {
      "inputs": [
        {
          "internalType": "SD59x18",
          "name": "x",
          "type": "int256"
        }
      ],
      "name": "PRBMath_SD59x18_Exp2_InputTooBig",
      "type": "error"
    },
    {
      "inputs": [
        {
          "internalType": "SD59x18",
          "name": "x",
          "type": "int256"
        }
      ],
      "name": "PRBMath_SD59x18_IntoUD60x18_Underflow",
      "type": "error"
    },
    {
      "inputs": [
        {
          "internalType": "SD59x18",
          "name": "x",
          "type": "int256"
        }
      ],
      "name": "PRBMath_SD59x18_Log_InputTooSmall",
      "type": "error"
    },
    {
      "inputs": [],
      "name": "PRBMath_SD59x18_Mul_InputTooSmall",
      "type": "error"
    },
    {
      "inputs": [
        {
          "internalType": "SD59x18",
          "name": "x",
          "type": "int256"
        },
        {
          "internalType": "SD59x18",
          "name": "y",
          "type": "int256"
        }
      ],
      "name": "PRBMath_SD59x18_Mul_Overflow",
      "type": "error"
    },
    {
      "inputs": [
        {
          "internalType": "uint256",
          "name": "x",
          "type": "uint256"
        }
      ],
      "name": "PRBMath_UD60x18_Convert_Overflow",
      "type": "error"
    },
    {
      "inputs": [
        {
          "internalType": "UD60x18",
          "name": "x",
          "type": "uint256"
        }
      ],
      "name": "PRBMath_UD60x18_IntoSD59x18_Overflow",
      "type": "error"
    },
    {
      "anonymous": false,
      "inputs": [
        {
          "indexed": false,
          "internalType": "uint8",
          "name": "version",
          "type": "uint8"
        }
      ],
      "name": "Initialized",
      "type": "event"
    },
    {
      "anonymous": false,
      "inputs": [
        {
          "indexed": true,
          "internalType": "address",
          "name": "previousOwner",
          "type": "address"
        },
        {
          "indexed": true,
          "internalType": "address",
          "name": "newOwner",
          "type": "address"
        }
      ],
      "name": "OwnershipTransferred",
      "type": "event"
    },
    {
      "stateMutability": "payable",
      "type": "fallback"
    },
    {
      "inputs": [
        {
          "internalType": "uint256",
          "name": "",
          "type": "uint256"
        }
      ],
      "name": "_loans",
      "outputs": [
        {
          "internalType": "address",
          "name": "borrower",
          "type": "address"
        },
        {
          "internalType": "UD60x18",
          "name": "ratePerSecond",
          "type": "uint256"
        },
        {
          "internalType": "UD60x18",
          "name": "paymentPerSecond",
          "type": "uint256"
        },
        {
          "internalType": "uint256",
          "name": "startTime",
          "type": "uint256"
        },
        {
          "internalType": "uint256",
          "name": "unpaidPrincipal",
          "type": "uint256"
        },
        {
          "internalType": "uint256",
          "name": "maxDurationSeconds",
          "type": "uint256"
        },
        {
          "internalType": "uint256",
          "name": "lastPaymentTime",
          "type": "uint256"
        }
      ],
      "stateMutability": "view",
      "type": "function"
    },
    {
      "inputs": [
        {
          "internalType": "uint256",
          "name": "tokenId",
          "type": "uint256"
        }
      ],
      "name": "accruedInterest",
      "outputs": [
        {
          "internalType": "uint256",
          "name": "",
          "type": "uint256"
        }
      ],
      "stateMutability": "view",
      "type": "function"
    },
    {
      "inputs": [],
      "name": "availableLiquidity",
      "outputs": [
        {
          "internalType": "uint256",
          "name": "",
          "type": "uint256"
        }
      ],
      "stateMutability": "view",
      "type": "function"
    },
    {
      "inputs": [
        {
          "components": [
            {
              "internalType": "address",
              "name": "bidder",
              "type": "address"
            },
            {
              "internalType": "uint256",
              "name": "propertyValue",
              "type": "uint256"
            },
            {
              "internalType": "uint256",
              "name": "downPayment",
              "type": "uint256"
            },
            {
              "internalType": "uint256",
              "name": "maxDurationMonths",
              "type": "uint256"
            }
          ],
          "internalType": "struct IState.Bid",
          "name": "bid",
          "type": "tuple"
        }
      ],
      "name": "bidActionable",
      "outputs": [
        {
          "internalType": "bool",
          "name": "",
          "type": "bool"
        }
      ],
      "stateMutability": "view",
      "type": "function"
    },
    {
      "inputs": [
        {
          "internalType": "uint256",
          "name": "tokenId",
          "type": "uint256"
        }
      ],
      "name": "bids",
      "outputs": [
        {
          "components": [
            {
              "internalType": "address",
              "name": "bidder",
              "type": "address"
            },
            {
              "internalType": "uint256",
              "name": "propertyValue",
              "type": "uint256"
            },
            {
              "internalType": "uint256",
              "name": "downPayment",
              "type": "uint256"
            },
            {
              "internalType": "uint256",
              "name": "maxDurationMonths",
              "type": "uint256"
            }
          ],
          "internalType": "struct IState.Bid[]",
          "name": "",
          "type": "tuple[]"
        }
      ],
      "stateMutability": "view",
      "type": "function"
    },
    {
      "inputs": [],
      "name": "defaultFeeSpread",
      "outputs": [
        {
          "internalType": "UD60x18",
          "name": "",
          "type": "uint256"
        }
      ],
      "stateMutability": "view",
      "type": "function"
    },
    {
      "inputs": [
        {
          "internalType": "contract IERC20",
          "name": "_USDC",
          "type": "address"
        },
        {
          "internalType": "contract tUsdc",
          "name": "_tUSDC",
          "type": "address"
        },
        {
          "internalType": "contract TangibleNft",
          "name": "_prosperaNftContract",
          "type": "address"
        }
      ],
      "name": "initialize",
      "outputs": [],
      "stateMutability": "nonpayable",
      "type": "function"
    },
    {
      "inputs": [
        {
          "components": [
            {
              "internalType": "address",
              "name": "bidder",
              "type": "address"
            },
            {
              "internalType": "uint256",
              "name": "propertyValue",
              "type": "uint256"
            },
            {
              "internalType": "uint256",
              "name": "downPayment",
              "type": "uint256"
            },
            {
              "internalType": "uint256",
              "name": "maxDurationMonths",
              "type": "uint256"
            }
          ],
          "internalType": "struct IState.Bid",
          "name": "_bid",
          "type": "tuple"
        }
      ],
      "name": "loanBidActionable",
      "outputs": [
        {
          "internalType": "bool",
          "name": "",
          "type": "bool"
        }
      ],
      "stateMutability": "view",
      "type": "function"
    },
    {
      "inputs": [
        {
          "internalType": "uint256",
          "name": "tokenId",
          "type": "uint256"
        }
      ],
      "name": "loans",
      "outputs": [
        {
          "components": [
            {
              "internalType": "address",
              "name": "borrower",
              "type": "address"
            },
            {
              "internalType": "UD60x18",
              "name": "ratePerSecond",
              "type": "uint256"
            },
            {
              "internalType": "UD60x18",
              "name": "paymentPerSecond",
              "type": "uint256"
            },
            {
              "internalType": "uint256",
              "name": "startTime",
              "type": "uint256"
            },
            {
              "internalType": "uint256",
              "name": "unpaidPrincipal",
              "type": "uint256"
            },
            {
              "internalType": "uint256",
              "name": "maxDurationSeconds",
              "type": "uint256"
            },
            {
              "internalType": "uint256",
              "name": "lastPaymentTime",
              "type": "uint256"
            }
          ],
          "internalType": "struct IState.Loan",
          "name": "",
          "type": "tuple"
        }
      ],
      "stateMutability": "view",
      "type": "function"
    },
    {
      "inputs": [
        {
          "internalType": "uint256",
          "name": "idx",
          "type": "uint256"
        }
      ],
      "name": "loansTokenIdsAt",
      "outputs": [
        {
          "internalType": "uint256",
          "name": "tokenId",
          "type": "uint256"
        }
      ],
      "stateMutability": "view",
      "type": "function"
    },
    {
      "inputs": [],
      "name": "loansTokenIdsLength",
      "outputs": [
        {
          "internalType": "uint256",
          "name": "",
          "type": "uint256"
        }
      ],
      "stateMutability": "view",
      "type": "function"
    },
    {
      "inputs": [
        {
          "internalType": "bytes4",
          "name": "",
          "type": "bytes4"
        }
      ],
      "name": "logicTargets",
      "outputs": [
        {
          "internalType": "address",
          "name": "",
          "type": "address"
        }
      ],
      "stateMutability": "view",
      "type": "function"
    },
    {
      "inputs": [],
      "name": "maxDurationMonthsCap",
      "outputs": [
        {
          "internalType": "uint256",
          "name": "",
          "type": "uint256"
        }
      ],
      "stateMutability": "view",
      "type": "function"
    },
    {
      "inputs": [],
      "name": "maxLtv",
      "outputs": [
        {
          "internalType": "UD60x18",
          "name": "",
          "type": "uint256"
        }
      ],
      "stateMutability": "view",
      "type": "function"
    },
    {
      "inputs": [],
      "name": "monthSeconds",
      "outputs": [
        {
          "internalType": "uint256",
          "name": "",
          "type": "uint256"
        }
      ],
      "stateMutability": "view",
      "type": "function"
    },
    {
      "inputs": [
        {
          "internalType": "address",
          "name": "",
          "type": "address"
        },
        {
          "internalType": "address",
          "name": "",
          "type": "address"
        },
        {
          "internalType": "uint256",
          "name": "",
          "type": "uint256"
        },
        {
          "internalType": "bytes",
          "name": "",
          "type": "bytes"
        }
      ],
      "name": "onERC721Received",
      "outputs": [
        {
          "internalType": "bytes4",
          "name": "",
          "type": "bytes4"
        }
      ],
      "stateMutability": "nonpayable",
      "type": "function"
    },
    {
      "inputs": [],
      "name": "optimalUtilization",
      "outputs": [
        {
          "internalType": "UD60x18",
          "name": "",
          "type": "uint256"
        }
      ],
      "stateMutability": "view",
      "type": "function"
    },
    {
      "inputs": [],
      "name": "owner",
      "outputs": [
        {
          "internalType": "address",
          "name": "",
          "type": "address"
        }
      ],
      "stateMutability": "view",
      "type": "function"
    },
    {
      "inputs": [
        {
          "components": [
            {
              "internalType": "address",
              "name": "borrower",
              "type": "address"
            },
            {
              "internalType": "UD60x18",
              "name": "ratePerSecond",
              "type": "uint256"
            },
            {
              "internalType": "UD60x18",
              "name": "paymentPerSecond",
              "type": "uint256"
            },
            {
              "internalType": "uint256",
              "name": "startTime",
              "type": "uint256"
            },
            {
              "internalType": "uint256",
              "name": "unpaidPrincipal",
              "type": "uint256"
            },
            {
              "internalType": "uint256",
              "name": "maxDurationSeconds",
              "type": "uint256"
            },
            {
              "internalType": "uint256",
              "name": "lastPaymentTime",
              "type": "uint256"
            }
          ],
          "internalType": "struct IState.Loan",
          "name": "loan",
          "type": "tuple"
        },
        {
          "internalType": "uint256",
          "name": "month",
          "type": "uint256"
        }
      ],
      "name": "principalCap",
      "outputs": [
        {
          "internalType": "uint256",
          "name": "cap",
          "type": "uint256"
        }
      ],
      "stateMutability": "pure",
      "type": "function"
    },
    {
      "inputs": [],
      "name": "redemptionFeeSpread",
      "outputs": [
        {
          "internalType": "UD60x18",
          "name": "",
          "type": "uint256"
        }
      ],
      "stateMutability": "view",
      "type": "function"
    },
    {
      "inputs": [],
      "name": "renounceOwnership",
      "outputs": [],
      "stateMutability": "nonpayable",
      "type": "function"
    },
    {
      "inputs": [
        {
          "internalType": "bytes4[]",
          "name": "selectorsArr",
          "type": "bytes4[]"
        },
        {
          "internalType": "address",
          "name": "target",
          "type": "address"
        }
      ],
      "name": "setSelectorsTarget",
      "outputs": [],
      "stateMutability": "nonpayable",
      "type": "function"
    },
    {
      "inputs": [
        {
          "internalType": "uint256",
          "name": "tokenId",
          "type": "uint256"
        }
      ],
      "name": "status",
      "outputs": [
        {
          "internalType": "enum IState.Status",
          "name": "",
          "type": "uint8"
        }
      ],
      "stateMutability": "view",
      "type": "function"
    },
    {
      "inputs": [
        {
          "internalType": "uint256",
          "name": "tokenId",
          "type": "uint256"
        }
      ],
      "name": "tokenIdBidsLength",
      "outputs": [
        {
          "internalType": "uint256",
          "name": "",
          "type": "uint256"
        }
      ],
      "stateMutability": "view",
      "type": "function"
    },
    {
      "inputs": [],
      "name": "totalDeposits",
      "outputs": [
        {
          "internalType": "uint256",
          "name": "",
          "type": "uint256"
        }
      ],
      "stateMutability": "view",
      "type": "function"
    },
    {
      "inputs": [],
      "name": "totalPrincipal",
      "outputs": [
        {
          "internalType": "uint256",
          "name": "",
          "type": "uint256"
        }
      ],
      "stateMutability": "view",
      "type": "function"
    },
    {
      "inputs": [
        {
          "internalType": "address",
          "name": "newOwner",
          "type": "address"
        }
      ],
      "name": "transferOwnership",
      "outputs": [],
      "stateMutability": "nonpayable",
      "type": "function"
    },
    {
      "inputs": [],
      "name": "yearMonths",
      "outputs": [
        {
          "internalType": "uint256",
          "name": "",
          "type": "uint256"
        }
      ],
      "stateMutability": "view",
      "type": "function"
    },
    {
      "inputs": [],
      "name": "yearSeconds",
      "outputs": [
        {
          "internalType": "uint256",
          "name": "",
          "type": "uint256"
        }
      ],
      "stateMutability": "view",
      "type": "function"
    },
    {
      "stateMutability": "payable",
      "type": "receive"
    }
  ],
  "bytecode": "0x60806040526200003b6200001a60646200022960201b60201c565b6200002c605a6200022960201b60201c565b620002ba60201b90919060201c565b600755620000756200005460646200022960201b60201c565b6200006660046200022960201b60201c565b620002ba60201b90919060201c565b600855620000af6200008e60646200022960201b60201c565b620000a060036200022960201b60201c565b620002ba60201b90919060201c565b600955620000c460096200022960201b60201c565b600a55620000fe620000dd60646200022960201b60201c565b620000ef60016200022960201b60201c565b620002ba60201b90919060201c565b600b55620001386200011760646200022960201b60201c565b6200012960026200022960201b60201c565b620002ba60201b90919060201c565b600c55620001726200015160646200022960201b60201c565b6200016360036200022960201b60201c565b620002ba60201b90919060201c565b600d55620001ac6200018b60646200022960201b60201c565b6200019d60046200022960201b60201c565b620002ba60201b90919060201c565b600e55623b5380601455620001ed620001cc60646200022960201b60201c565b620001de60326200022960201b60201c565b620002ba60201b90919060201c565b60155560786016553480156200020257600080fd5b5062000223620002176200030f60201b60201c565b6200031760201b60201c565b620005ed565b6000670de0b6b3a76400007fffffffffffffffffffffffffffffffffffffffffffffffffffffffffffffffff6200026191906200054a565b821115620002a857816040517f1cd951a70000000000000000000000000000000000000000000000000000000081526004016200029f919062000593565b60405180910390fd5b670de0b6b3a764000082029050919050565b600062000307620002fb620002d585620003db60201b60201c565b670de0b6b3a7640000620002ef86620003db60201b60201c565b620003e560201b60201c565b6200050760201b60201c565b905092915050565b600033905090565b60008060009054906101000a900473ffffffffffffffffffffffffffffffffffffffff169050816000806101000a81548173ffffffffffffffffffffffffffffffffffffffff021916908373ffffffffffffffffffffffffffffffffffffffff1602179055508173ffffffffffffffffffffffffffffffffffffffff168173ffffffffffffffffffffffffffffffffffffffff167f8be0079c531659141344cd1fd0a4f28419497f9722a3daafe3b4186f6b6457e060405160405180910390a35050565b6000819050919050565b600080600080198587098587029250828110838203039150506000810362000425578382816200041a57620004196200051b565b5b049250505062000500565b83811062000470578585856040517f63a057780000000000000000000000000000000000000000000000000000000081526004016200046793929190620005b0565b60405180910390fd5b60008486880990508281118203915080830392506000600186190186169050600081870496508185049450600182836000030401905080840285179450600060028860030218905080880260020381029050808802600203810290508088026002038102905080880260020381029050808802600203810290508088026002038102905080860296505050505050505b9392505050565b6000819050919050565b6000819050919050565b7f4e487b7100000000000000000000000000000000000000000000000000000000600052601260045260246000fd5b6000620005578262000511565b9150620005648362000511565b9250826200057757620005766200051b565b5b828204905092915050565b6200058d8162000511565b82525050565b6000602082019050620005aa600083018462000582565b92915050565b6000606082019050620005c7600083018662000582565b620005d6602083018562000582565b620005e5604083018462000582565b949350505050565b613ea580620005fd6000396000f3fe6080604052600436106101c65760003560e01c806374bdf96a116100f7578063ab01f7e111610095578063e1ec3c6811610064578063e1ec3c68146106c8578063e343504414610705578063f2fde38b1461072e578063ff9ad6df14610757576101d5565b8063ab01f7e1146105f4578063bcff3e3b1461061f578063bd5c569b1461065c578063c0c53b8b1461069f576101d5565b806387ae0dbe116100d157806387ae0dbe146105365780638da5cb5b14610561578063a0024c2f1461058c578063a54cab1c146105c9576101d5565b806374bdf96a146104a35780637d882097146104e0578063812cf0181461050b576101d5565b806342d21ef7116101645780634b1533b21161013e5780634b1533b21461040b5780636290cd1c14610436578063715018a6146104615780637437535914610478576101d5565b806342d21ef7146103665780634423c5f1146103a35780634abb3003146103e0576101d5565b80631cc03c87116101a05780631cc03c87146102965780632da10923146102d35780633a12c6da146103105780633ca36db61461033b576101d5565b80630a9cc0b6146101df578063150b7a021461021c57806317548b7914610259576101d5565b366101d5576101d3610782565b005b6101dd610782565b005b3480156101eb57600080fd5b5061020660048036038101906102019190612ea0565b61079c565b6040516102139190612ee8565b60405180910390f35b34801561022857600080fd5b50610243600480360381019061023e9190612fbd565b610811565b604051610250919061307b565b60405180910390f35b34801561026557600080fd5b50610280600480360381019061027b91906130c2565b610825565b60405161028d91906130fe565b60405180910390f35b3480156102a257600080fd5b506102bd60048036038101906102b891906131f9565b610858565b6040516102ca9190613249565b60405180910390f35b3480156102df57600080fd5b506102fa60048036038101906102f59190613264565b6109ba565b6040516103079190613249565b60405180910390f35b34801561031c57600080fd5b506103256109da565b60405161033291906132cc565b60405180910390f35b34801561034757600080fd5b506103506109e0565b60405161035d91906132cc565b60405180910390f35b34801561037257600080fd5b5061038d60048036038101906103889190613264565b6109ea565b60405161039a919061335e565b60405180910390f35b3480156103af57600080fd5b506103ca60048036038101906103c59190613264565b610b31565b6040516103d7919061349b565b60405180910390f35b3480156103ec57600080fd5b506103f5610c17565b60405161040291906132cc565b60405180910390f35b34801561041757600080fd5b50610420610c21565b60405161042d9190613249565b60405180910390f35b34801561044257600080fd5b5061044b610c27565b60405161045891906132cc565b60405180910390f35b34801561046d57600080fd5b50610476610c2d565b005b34801561048457600080fd5b5061048d610c41565b60405161049a9190613249565b60405180910390f35b3480156104af57600080fd5b506104ca60048036038101906104c59190613264565b610c58565b6040516104d79190613249565b60405180910390f35b3480156104ec57600080fd5b506104f5610c75565b6040516105029190613249565b60405180910390f35b34801561051757600080fd5b50610520610c7b565b60405161052d9190613249565b60405180910390f35b34801561054257600080fd5b5061054b610c80565b6040516105589190613249565b60405180910390f35b34801561056d57600080fd5b50610576610c88565b60405161058391906130fe565b60405180910390f35b34801561059857600080fd5b506105b360048036038101906105ae9190612ea0565b610cb1565b6040516105c09190612ee8565b60405180910390f35b3480156105d557600080fd5b506105de610cd5565b6040516105eb9190613249565b60405180910390f35b34801561060057600080fd5b50610609610cdb565b6040516106169190613249565b60405180910390f35b34801561062b57600080fd5b5061064660048036038101906106419190613264565b610cec565b6040516106539190613249565b60405180910390f35b34801561066857600080fd5b50610683600480360381019061067e9190613264565b610dad565b60405161069697969594939291906134bd565b60405180910390f35b3480156106ab57600080fd5b506106c660048036038101906106c191906135e6565b610e0f565b005b3480156106d457600080fd5b506106ef60048036038101906106ea9190613264565b611011565b6040516106fc91906136d6565b60405180910390f35b34801561071157600080fd5b5061072c60048036038101906107279190613751565b6110d0565b005b34801561073a57600080fd5b50610755600480360381019061075091906137b1565b6111b6565b005b34801561076357600080fd5b5061076c611239565b6040516107799190613249565b60405180910390f35b61078a61124d565b61079a61079561124f565b61135a565b565b600080826040015183602001516107b3919061380d565b905060006107de6107c78560200151611380565b6107d084611380565b61140c90919063ffffffff16565b90506107f56015548261144190919063ffffffff16565b80156108085750610804610c41565b8211155b92505050919050565b600063150b7a0260e01b9050949350505050565b60016020528060005260406000206000915054906101000a900473ffffffffffffffffffffffffffffffffffffffff1681565b60006108638361145f565b8211156108a5576040517f08c379a000000000000000000000000000000000000000000000000000000000815260040161089c906138c4565b60405180910390fd5b6000600c6301e133806108b89190613913565b836108c39190613944565b905060006109096108d46001611488565b6108fb6108e48860a00151611488565b6108ed86611488565b61158c90919063ffffffff16565b61158c90919063ffffffff16565b9050600061096261094a8361093c6109378a602001516109296001611380565b6115ba90919063ffffffff16565b6115e8565b61165c90919063ffffffff16565b6109546001611488565b61158c90919063ffffffff16565b9050600061098d6109888361097a8a604001516115e8565b61171a90919063ffffffff16565b6118aa565b90506109ae6109a988602001518361140c90919063ffffffff16565b6118ff565b94505050505092915050565b6000600f6000838152602001908152602001600020805490509050919050565b60155481565b6000600d54905090565b600080601060008481526020019081526020016000206040518060e00160405290816000820160009054906101000a900473ffffffffffffffffffffffffffffffffffffffff1673ffffffffffffffffffffffffffffffffffffffff1673ffffffffffffffffffffffffffffffffffffffff16815260200160018201548152602001600282015481526020016003820154815260200160048201548152602001600582015481526020016006820154815250509050600073ffffffffffffffffffffffffffffffffffffffff16816000015173ffffffffffffffffffffffffffffffffffffffff1603610ae1576000915050610b2c565b610aea8361191c565b15610b26576000610afa82611a31565b42610b05919061380d565b90506014548111610b1b57600292505050610b2c565b600392505050610b2c565b60019150505b919050565b6060600f6000838152602001908152602001600020805480602002602001604051908101604052809291908181526020016000905b82821015610c0c57838290600052602060002090600402016040518060800160405290816000820160009054906101000a900473ffffffffffffffffffffffffffffffffffffffff1673ffffffffffffffffffffffffffffffffffffffff1673ffffffffffffffffffffffffffffffffffffffff168152602001600182015481526020016002820154815260200160038201548152505081526020019060010190610b66565b505050509050919050565b6000600e54905090565b60055481565b60075481565b610c35611adc565b610c3f6000611b5a565b565b6000600554600654610c53919061380d565b905090565b6000610c6e826011611c1e90919063ffffffff16565b9050919050565b60065481565b600c81565b6301e1338081565b60008060009054906101000a900473ffffffffffffffffffffffffffffffffffffffff16905090565b6000816040015182602001511480610cce5750610ccd8261079c565b5b9050919050565b60165481565b6000610ce76011611c38565b905090565b6000610da6601060008481526020019081526020016000206040518060e00160405290816000820160009054906101000a900473ffffffffffffffffffffffffffffffffffffffff1673ffffffffffffffffffffffffffffffffffffffff1673ffffffffffffffffffffffffffffffffffffffff1681526020016001820154815260200160028201548152602001600382015481526020016004820154815260200160058201548152602001600682015481525050611c4d565b9050919050565b60106020528060005260406000206000915090508060000160009054906101000a900473ffffffffffffffffffffffffffffffffffffffff16908060010154908060020154908060030154908060040154908060050154908060060154905087565b6000600260019054906101000a900460ff16159050808015610e4357506001600260009054906101000a900460ff1660ff16105b80610e725750610e5230611c85565b158015610e7157506001600260009054906101000a900460ff1660ff16145b5b610eb1576040517f08c379a0000000000000000000000000000000000000000000000000000000008152600401610ea8906139f8565b60405180910390fd5b6001600260006101000a81548160ff021916908360ff1602179055508015610eef576001600260016101000a81548160ff0219169083151502179055505b836002806101000a81548173ffffffffffffffffffffffffffffffffffffffff021916908373ffffffffffffffffffffffffffffffffffffffff16021790555082600360006101000a81548173ffffffffffffffffffffffffffffffffffffffff021916908373ffffffffffffffffffffffffffffffffffffffff16021790555081600460006101000a81548173ffffffffffffffffffffffffffffffffffffffff021916908373ffffffffffffffffffffffffffffffffffffffff160217905550801561100b576000600260016101000a81548160ff0219169083151502179055507f7f26b83ff96e1f2b6a682f133852f6798a09c465da95921460cefb384740249860016040516110029190613a60565b60405180910390a15b50505050565b611019612c9c565b601060008381526020019081526020016000206040518060e00160405290816000820160009054906101000a900473ffffffffffffffffffffffffffffffffffffffff1673ffffffffffffffffffffffffffffffffffffffff1673ffffffffffffffffffffffffffffffffffffffff16815260200160018201548152602001600282015481526020016003820154815260200160048201548152602001600582015481526020016006820154815250509050919050565b6110d8611adc565b60005b838390508110156111b05781600160008686858181106110fe576110fd613a7b565b5b905060200201602081019061111391906130c2565b7bffffffffffffffffffffffffffffffffffffffffffffffffffffffff19167bffffffffffffffffffffffffffffffffffffffffffffffffffffffff1916815260200190815260200160002060006101000a81548173ffffffffffffffffffffffffffffffffffffffff021916908373ffffffffffffffffffffffffffffffffffffffff16021790555080806111a890613aaa565b9150506110db565b50505050565b6111be611adc565b600073ffffffffffffffffffffffffffffffffffffffff168173ffffffffffffffffffffffffffffffffffffffff160361122d576040517f08c379a000000000000000000000000000000000000000000000000000000000815260040161122490613b64565b60405180910390fd5b61123681611b5a565b50565b600c6301e1338061124a9190613913565b81565b565b60006001600080357fffffffff00000000000000000000000000000000000000000000000000000000167bffffffffffffffffffffffffffffffffffffffffffffffffffffffff19167bffffffffffffffffffffffffffffffffffffffffffffffffffffffff1916815260200190815260200160002060009054906101000a900473ffffffffffffffffffffffffffffffffffffffff169050600073ffffffffffffffffffffffffffffffffffffffff168173ffffffffffffffffffffffffffffffffffffffff1603611357576040517f08c379a000000000000000000000000000000000000000000000000000000000815260040161134e90613bd0565b60405180910390fd5b90565b3660008037600080366000845af43d6000803e806000811461137b573d6000f35b3d6000fd5b6000670de0b6b3a76400007fffffffffffffffffffffffffffffffffffffffffffffffffffffffffffffffff6113b69190613913565b8211156113fa57816040517f1cd951a70000000000000000000000000000000000000000000000000000000081526004016113f19190613249565b60405180910390fd5b670de0b6b3a764000082029050919050565b600061143961143461141d85611ca8565b670de0b6b3a764000061142f86611ca8565b611cb2565b611dcc565b905092915050565b600061144c82611ca8565b61145584611ca8565b1115905092915050565b60006301e133808260a00151600c6114779190613944565b6114819190613913565b9050919050565b6000670de0b6b3a76400007f80000000000000000000000000000000000000000000000000000000000000006114be9190613bfa565b82121561150257816040517f99474eeb0000000000000000000000000000000000000000000000000000000081526004016114f99190613c73565b60405180910390fd5b670de0b6b3a76400007f7fffffffffffffffffffffffffffffffffffffffffffffffffffffffffffffff6115369190613bfa565b82131561157a57816040517f9d5810910000000000000000000000000000000000000000000000000000000081526004016115719190613c73565b60405180910390fd5b670de0b6b3a764000082029050919050565b60006115b261159a83611dd6565b6115a385611dd6565b6115ad9190613c8e565b611de0565b905092915050565b60006115e06115c883611ca8565b6115d185611ca8565b6115db9190613cd1565b611dcc565b905092915050565b6000808290507f7fffffffffffffffffffffffffffffffffffffffffffffffffffffffffffffff81111561165357826040517ff461868400000000000000000000000000000000000000000000000000000000815260040161164a91906132cc565b60405180910390fd5b80915050919050565b60008061166884611dd6565b9050600061167584611dd6565b9050600082036116a1576000811461168e576000611698565b670de0b6b3a76400005b92505050611714565b670de0b6b3a764000082036116c257670de0b6b3a764000092505050611714565b600081036116dc57670de0b6b3a764000092505050611714565b670de0b6b3a764000081036116f5578492505050611714565b61170f61170a61170487611dea565b8661171a565b611f7d565b925050505b92915050565b60008061172684611dd6565b9050600061173384611dd6565b90507f800000000000000000000000000000000000000000000000000000000000000082148061178257507f800000000000000000000000000000000000000000000000000000000000000081145b156117b9576040517fa6070c2500000000000000000000000000000000000000000000000000000000815260040160405180910390fd5b600080600084126117ca57836117cf565b836000035b9150600083126117df57826117e4565b826000035b905060006117f2838361209b565b90507f7fffffffffffffffffffffffffffffffffffffffffffffffffffffffffffffff81111561185b5787876040517f120b5b43000000000000000000000000000000000000000000000000000000008152600401611852929190613d36565b60405180910390fd5b60007fffffffffffffffffffffffffffffffffffffffffffffffffffffffffffffffff85871813905061189c816118955782600003611897565b825b611de0565b965050505050505092915050565b60008082905060008112156118f657826040517fbba41a150000000000000000000000000000000000000000000000000000000081526004016118ed9190613d5f565b60405180910390fd5b80915050919050565b6000670de0b6b3a7640000826119159190613913565b9050919050565b600080601060008481526020019081526020016000206040518060e00160405290816000820160009054906101000a900473ffffffffffffffffffffffffffffffffffffffff1673ffffffffffffffffffffffffffffffffffffffff1673ffffffffffffffffffffffffffffffffffffffff1681526020016001820154815260200160028201548152602001600382015481526020016004820154815260200160058201548152602001600682015481525050905060006119dc82612185565b90506000600c6301e133808460a001516119f69190613913565b611a009190613944565b905080821115611a165760019350505050611a2c565b611a208383610858565b83608001511193505050505b919050565b600080611a3d83612185565b905060008190505b6000811115611ad5576000611a5a8583610858565b90506000611a7486600185611a6f919061380d565b610858565b9050818660800151118015611a8d575080866080015111155b15611ac057600c6301e13380611aa39190613913565b83611aae9190613944565b8660600151611abd9190613cd1565b94505b50508080611acd90613d7a565b915050611a45565b5050919050565b611ae46121da565b73ffffffffffffffffffffffffffffffffffffffff16611b02610c88565b73ffffffffffffffffffffffffffffffffffffffff1614611b58576040517f08c379a0000000000000000000000000000000000000000000000000000000008152600401611b4f90613def565b60405180910390fd5b565b60008060009054906101000a900473ffffffffffffffffffffffffffffffffffffffff169050816000806101000a81548173ffffffffffffffffffffffffffffffffffffffff021916908373ffffffffffffffffffffffffffffffffffffffff1602179055508173ffffffffffffffffffffffffffffffffffffffff168173ffffffffffffffffffffffffffffffffffffffff167f8be0079c531659141344cd1fd0a4f28419497f9722a3daafe3b4186f6b6457e060405160405180910390a35050565b6000611c2d83600001836121e2565b60001c905092915050565b6000611c468260000161220d565b9050919050565b6000611c7e611c79611c5e8461221e565b611c6b8560800151611380565b61224e90919063ffffffff16565b6118ff565b9050919050565b6000808273ffffffffffffffffffffffffffffffffffffffff163b119050919050565b6000819050919050565b6000806000801985870985870292508281108382030391505060008103611ced57838281611ce357611ce26138e4565b5b0492505050611dc5565b838110611d35578585856040517f63a05778000000000000000000000000000000000000000000000000000000008152600401611d2c93929190613e0f565b60405180910390fd5b60008486880990508281118203915080830392506000600186190186169050600081870496508185049450600182836000030401905080840285179450600060028860030218905080880260020381029050808802600203810290508088026002038102905080880260020381029050808802600203810290508088026002038102905080860296505050505050505b9392505050565b6000819050919050565b6000819050919050565b6000819050919050565b600080611df683611dd6565b905060008113611e3d57826040517f059b101b000000000000000000000000000000000000000000000000000000008152600401611e349190613d5f565b60405180910390fd5b6000670de0b6b3a76400008212611e575760019050611e9d565b7fffffffffffffffffffffffffffffffffffffffffffffffffffffffffffffffff9050816ec097ce7bc90715b34b9f100000000081611e9957611e986138e4565b5b0591505b6000611ec0670de0b6b3a76400008481611eba57611eb96138e4565b5b0561227a565b90506000670de0b6b3a76400008202905060008285901d9050670de0b6b3a76400008103611eff57611ef3848302611de0565b95505050505050611f78565b6000671bc16d674ec80000905060006706f05b59d3b2000090505b6000811315611f6057670de0b6b3a764000083840281611f3d57611f3c6138e4565b5b059250818312611f54578084019350600183901d92505b600181901d9050611f1a565b508483029250611f6f83611de0565b96505050505050505b919050565b600080611f8983611dd6565b90506000811215612010577ffffffffffffffffffffffffffffffffffffffffffffffffcc22e87f6eb468eeb811215611fc6576000915050612096565b612009611fe5611fe0611fdb84600003611de0565b611f7d565b611dd6565b6ec097ce7bc90715b34b9f100000000081612003576120026138e4565b5b05611de0565b9150612094565b680a688906bd8affffff81131561205e57826040517f0360d0280000000000000000000000000000000000000000000000000000000081526004016120559190613d5f565b60405180910390fd5b6000670de0b6b3a7640000604083901b8161207c5761207b6138e4565b5b05905061209061208b82612323565b611de0565b9250505b505b919050565b60008060008019848609848602925082811083820303915050600081036120de57670de0b6b3a764000082816120d4576120d36138e4565b5b049250505061217f565b670de0b6b3a7640000811061212c5784846040517f5173648d000000000000000000000000000000000000000000000000000000008152600401612123929190613e46565b60405180910390fd5b6000670de0b6b3a764000085870990507faccb18165bd6fe31ae1cf318dc5b51eee0e1ba569b88cd74c1773b91fac106696001620400008060000304018483118403026204000083860304170293505050505b92915050565b600080600c6301e133806121999190613913565b8360600151426121a9919061380d565b6121b39190613913565b905060006121c08461145f565b90508082116121cf57816121d1565b805b92505050919050565b600033905090565b60008260000182815481106121fa576121f9613a7b565b5b9060005260206000200154905092915050565b600081600001805490509050919050565b600061224761223461222f84612c83565b611380565b836020015161224e90919063ffffffff16565b9050919050565b600061227261226d61225f85611ca8565b61226885611ca8565b61209b565b611dcc565b905092915050565b60006fffffffffffffffffffffffffffffffff821160071b82811c925080821791505067ffffffffffffffff821160061b82811c925080821791505063ffffffff821160051b82811c925080821791505061ffff821160041b82811c925080821791505060ff821160031b82811c9250808217915050600f821160021b82811c92508082179150506003821160011b82811c925080821791505060018211808217915050919050565b6000778000000000000000000000000000000000000000000000009050600067ff00000000000000831611156124845760006780000000000000008316111561237957604068016a09e667f3bcc9098202901c90505b60006740000000000000008316111561239f5760406801306fe0a31b7152df8202901c90505b6000672000000000000000831611156123c55760406801172b83c7d517adce8202901c90505b6000671000000000000000831611156123eb57604068010b5586cf9890f62a8202901c90505b6000670800000000000000831611156124115760406801059b0d31585743ae8202901c90505b600067040000000000000083161115612437576040680102c9a3e778060ee78202901c90505b60006702000000000000008316111561245d57604068010163da9fb33356d88202901c90505b600067010000000000000083161115612483576040680100b1afa5abcbed618202901c90505b5b600066ff000000000000831611156125bf5760006680000000000000831611156124bb57604068010058c86da1c09ea28202901c90505b60006640000000000000831611156124e05760406801002c605e2e8cec508202901c90505b6000662000000000000083161115612505576040680100162f3904051fa18202901c90505b600066100000000000008316111561252a5760406801000b175effdc76ba8202901c90505b600066080000000000008316111561254f576040680100058ba01fb9f96d8202901c90505b600066040000000000008316111561257457604068010002c5cc37da94928202901c90505b60006602000000000000831611156125995760406801000162e525ee05478202901c90505b60006601000000000000831611156125be57604068010000b17255775c048202901c90505b5b600065ff0000000000831611156126f157600065800000000000831611156125f45760406801000058b91b5bc9ae8202901c90505b60006540000000000083161115612618576040680100002c5c89d5ec6d8202901c90505b6000652000000000008316111561263c57604068010000162e43f4f8318202901c90505b60006510000000000083161115612660576040680100000b1721bcfc9a8202901c90505b6000650800000000008316111561268457604068010000058b90cf1e6e8202901c90505b600065040000000000831611156126a85760406801000002c5c863b73f8202901c90505b600065020000000000831611156126cc576040680100000162e430e5a28202901c90505b600065010000000000831611156126f05760406801000000b1721835518202901c90505b5b600064ff000000008316111561281a57600064800000000083161115612724576040680100000058b90c0b498202901c90505b60006440000000008316111561274757604068010000002c5c8601cc8202901c90505b60006420000000008316111561276a5760406801000000162e42fff08202901c90505b60006410000000008316111561278d57604068010000000b17217fbb8202901c90505b6000640800000000831611156127b05760406801000000058b90bfce8202901c90505b6000640400000000831611156127d3576040680100000002c5c85fe38202901c90505b6000640200000000831611156127f657604068010000000162e42ff18202901c90505b600064010000000083161115612819576040680100000000b17217f88202901c90505b5b600063ff0000008316111561293a57600063800000008316111561284b57604068010000000058b90bfc8202901c90505b600063400000008316111561286d5760406801000000002c5c85fe8202901c90505b600063200000008316111561288f576040680100000000162e42ff8202901c90505b60006310000000831611156128b15760406801000000000b17217f8202901c90505b60006308000000831611156128d3576040680100000000058b90c08202901c90505b60006304000000831611156128f557604068010000000002c5c8608202901c90505b60006302000000831611156129175760406801000000000162e4308202901c90505b600063010000008316111561293957604068010000000000b172188202901c90505b5b600062ff000083161115612a5157600062800000831611156129695760406801000000000058b90c8202901c90505b6000624000008316111561298a576040680100000000002c5c868202901c90505b600062200000831611156129ab57604068010000000000162e438202901c90505b600062100000831611156129cc576040680100000000000b17218202901c90505b600062080000831611156129ed57604068010000000000058b918202901c90505b60006204000083161115612a0e5760406801000000000002c5c88202901c90505b60006202000083161115612a2f576040680100000000000162e48202901c90505b60006201000083161115612a505760406801000000000000b1728202901c90505b5b600061ff0083161115612b5f57600061800083161115612a7e576040680100000000000058b98202901c90505b600061400083161115612a9e57604068010000000000002c5d8202901c90505b600061200083161115612abe5760406801000000000000162e8202901c90505b600061100083161115612ade57604068010000000000000b178202901c90505b600061080083161115612afe5760406801000000000000058c8202901c90505b600061040083161115612b1e576040680100000000000002c68202901c90505b600061020083161115612b3e576040680100000000000001638202901c90505b600061010083161115612b5e576040680100000000000000b18202901c90505b5b600060ff83161115612c64576000608083161115612b8a576040680100000000000000598202901c90505b6000604083161115612ba95760406801000000000000002c8202901c90505b6000602083161115612bc8576040680100000000000000168202901c90505b6000601083161115612be75760406801000000000000000b8202901c90505b6000600883161115612c06576040680100000000000000068202901c90505b6000600483161115612c25576040680100000000000000038202901c90505b6000600283161115612c44576040680100000000000000018202901c90505b6000600183161115612c63576040680100000000000000018202901c90505b5b670de0b6b3a764000081029050604082901c60bf0381901c9050919050565b60008160c0015142612c95919061380d565b9050919050565b6040518060e00160405280600073ffffffffffffffffffffffffffffffffffffffff1681526020016000815260200160008152602001600081526020016000815260200160008152602001600081525090565b6000604051905090565b600080fd5b600080fd5b600080fd5b6000601f19601f8301169050919050565b7f4e487b7100000000000000000000000000000000000000000000000000000000600052604160045260246000fd5b612d5182612d08565b810181811067ffffffffffffffff82111715612d7057612d6f612d19565b5b80604052505050565b6000612d83612cef565b9050612d8f8282612d48565b919050565b600073ffffffffffffffffffffffffffffffffffffffff82169050919050565b6000612dbf82612d94565b9050919050565b612dcf81612db4565b8114612dda57600080fd5b50565b600081359050612dec81612dc6565b92915050565b6000819050919050565b612e0581612df2565b8114612e1057600080fd5b50565b600081359050612e2281612dfc565b92915050565b600060808284031215612e3e57612e3d612d03565b5b612e486080612d79565b90506000612e5884828501612ddd565b6000830152506020612e6c84828501612e13565b6020830152506040612e8084828501612e13565b6040830152506060612e9484828501612e13565b60608301525092915050565b600060808284031215612eb657612eb5612cf9565b5b6000612ec484828501612e28565b91505092915050565b60008115159050919050565b612ee281612ecd565b82525050565b6000602082019050612efd6000830184612ed9565b92915050565b600080fd5b600080fd5b600067ffffffffffffffff821115612f2857612f27612d19565b5b612f3182612d08565b9050602081019050919050565b82818337600083830152505050565b6000612f60612f5b84612f0d565b612d79565b905082815260208101848484011115612f7c57612f7b612f08565b5b612f87848285612f3e565b509392505050565b600082601f830112612fa457612fa3612f03565b5b8135612fb4848260208601612f4d565b91505092915050565b60008060008060808587031215612fd757612fd6612cf9565b5b6000612fe587828801612ddd565b9450506020612ff687828801612ddd565b935050604061300787828801612e13565b925050606085013567ffffffffffffffff81111561302857613027612cfe565b5b61303487828801612f8f565b91505092959194509250565b60007fffffffff0000000000000000000000000000000000000000000000000000000082169050919050565b61307581613040565b82525050565b6000602082019050613090600083018461306c565b92915050565b61309f81613040565b81146130aa57600080fd5b50565b6000813590506130bc81613096565b92915050565b6000602082840312156130d8576130d7612cf9565b5b60006130e6848285016130ad565b91505092915050565b6130f881612db4565b82525050565b600060208201905061311360008301846130ef565b92915050565b61312281612df2565b811461312d57600080fd5b50565b60008135905061313f81613119565b92915050565b600060e0828403121561315b5761315a612d03565b5b61316560e0612d79565b9050600061317584828501612ddd565b600083015250602061318984828501613130565b602083015250604061319d84828501613130565b60408301525060606131b184828501612e13565b60608301525060806131c584828501612e13565b60808301525060a06131d984828501612e13565b60a08301525060c06131ed84828501612e13565b60c08301525092915050565b600080610100838503121561321157613210612cf9565b5b600061321f85828601613145565b92505060e061323085828601612e13565b9150509250929050565b61324381612df2565b82525050565b600060208201905061325e600083018461323a565b92915050565b60006020828403121561327a57613279612cf9565b5b600061328884828501612e13565b91505092915050565b6000819050919050565b60006132b66132b16132ac84612df2565b613291565b612df2565b9050919050565b6132c68161329b565b82525050565b60006020820190506132e160008301846132bd565b92915050565b7f4e487b7100000000000000000000000000000000000000000000000000000000600052602160045260246000fd5b60048110613327576133266132e7565b5b50565b600081905061333882613316565b919050565b60006133488261332a565b9050919050565b6133588161333d565b82525050565b6000602082019050613373600083018461334f565b92915050565b600081519050919050565b600082825260208201905092915050565b6000819050602082019050919050565b6133ae81612db4565b82525050565b6133bd81612df2565b82525050565b6080820160008201516133d960008501826133a5565b5060208201516133ec60208501826133b4565b5060408201516133ff60408501826133b4565b50606082015161341260608501826133b4565b50505050565b600061342483836133c3565b60808301905092915050565b6000602082019050919050565b600061344882613379565b6134528185613384565b935061345d83613395565b8060005b8381101561348e5781516134758882613418565b975061348083613430565b925050600181019050613461565b5085935050505092915050565b600060208201905081810360008301526134b5818461343d565b905092915050565b600060e0820190506134d2600083018a6130ef565b6134df60208301896132bd565b6134ec60408301886132bd565b6134f9606083018761323a565b613506608083018661323a565b61351360a083018561323a565b61352060c083018461323a565b98975050505050505050565b600061353782612db4565b9050919050565b6135478161352c565b811461355257600080fd5b50565b6000813590506135648161353e565b92915050565b600061357582612db4565b9050919050565b6135858161356a565b811461359057600080fd5b50565b6000813590506135a28161357c565b92915050565b60006135b382612db4565b9050919050565b6135c3816135a8565b81146135ce57600080fd5b50565b6000813590506135e0816135ba565b92915050565b6000806000606084860312156135ff576135fe612cf9565b5b600061360d86828701613555565b935050602061361e86828701613593565b925050604061362f868287016135d1565b9150509250925092565b6136428161329b565b82525050565b60e08201600082015161365e60008501826133a5565b5060208201516136716020850182613639565b5060408201516136846040850182613639565b50606082015161369760608501826133b4565b5060808201516136aa60808501826133b4565b5060a08201516136bd60a08501826133b4565b5060c08201516136d060c08501826133b4565b50505050565b600060e0820190506136eb6000830184613648565b92915050565b600080fd5b600080fd5b60008083601f84011261371157613710612f03565b5b8235905067ffffffffffffffff81111561372e5761372d6136f1565b5b60208301915083602082028301111561374a576137496136f6565b5b9250929050565b60008060006040848603121561376a57613769612cf9565b5b600084013567ffffffffffffffff81111561378857613787612cfe565b5b613794868287016136fb565b935093505060206137a786828701612ddd565b9150509250925092565b6000602082840312156137c7576137c6612cf9565b5b60006137d584828501612ddd565b91505092915050565b7f4e487b7100000000000000000000000000000000000000000000000000000000600052601160045260246000fd5b600061381882612df2565b915061382383612df2565b925082820390508181111561383b5761383a6137de565b5b92915050565b600082825260208201905092915050565b7f6d6f6e7468206d757374206265203c3d206c6f616e4d61784475726174696f6e60008201527f4d6f6e7468730000000000000000000000000000000000000000000000000000602082015250565b60006138ae602683613841565b91506138b982613852565b604082019050919050565b600060208201905081810360008301526138dd816138a1565b9050919050565b7f4e487b7100000000000000000000000000000000000000000000000000000000600052601260045260246000fd5b600061391e82612df2565b915061392983612df2565b925082613939576139386138e4565b5b828204905092915050565b600061394f82612df2565b915061395a83612df2565b925082820261396881612df2565b9150828204841483151761397f5761397e6137de565b5b5092915050565b7f496e697469616c697a61626c653a20636f6e747261637420697320616c72656160008201527f647920696e697469616c697a6564000000000000000000000000000000000000602082015250565b60006139e2602e83613841565b91506139ed82613986565b604082019050919050565b60006020820190508181036000830152613a11816139d5565b9050919050565b6000819050919050565b600060ff82169050919050565b6000613a4a613a45613a4084613a18565b613291565b613a22565b9050919050565b613a5a81613a2f565b82525050565b6000602082019050613a756000830184613a51565b92915050565b7f4e487b7100000000000000000000000000000000000000000000000000000000600052603260045260246000fd5b6000613ab582612df2565b91507fffffffffffffffffffffffffffffffffffffffffffffffffffffffffffffffff8203613ae757613ae66137de565b5b600182019050919050565b7f4f776e61626c653a206e6577206f776e657220697320746865207a65726f206160008201527f6464726573730000000000000000000000000000000000000000000000000000602082015250565b6000613b4e602683613841565b9150613b5982613af2565b604082019050919050565b60006020820190508181036000830152613b7d81613b41565b9050919050565b7f73696720686173206e6f20746172676574000000000000000000000000000000600082015250565b6000613bba601183613841565b9150613bc582613b84565b602082019050919050565b60006020820190508181036000830152613be981613bad565b9050919050565b6000819050919050565b6000613c0582613bf0565b9150613c1083613bf0565b925082613c2057613c1f6138e4565b5b600160000383147f800000000000000000000000000000000000000000000000000000000000000083141615613c5957613c586137de565b5b828205905092915050565b613c6d81613bf0565b82525050565b6000602082019050613c886000830184613c64565b92915050565b6000613c9982613bf0565b9150613ca483613bf0565b9250828203905081811260008412168282136000851215161715613ccb57613cca6137de565b5b92915050565b6000613cdc82612df2565b9150613ce783612df2565b9250828201905080821115613cff57613cfe6137de565b5b92915050565b6000613d20613d1b613d1684613bf0565b613291565b613bf0565b9050919050565b613d3081613d05565b82525050565b6000604082019050613d4b6000830185613d27565b613d586020830184613d27565b9392505050565b6000602082019050613d746000830184613d27565b92915050565b6000613d8582612df2565b915060008203613d9857613d976137de565b5b600182039050919050565b7f4f776e61626c653a2063616c6c6572206973206e6f7420746865206f776e6572600082015250565b6000613dd9602083613841565b9150613de482613da3565b602082019050919050565b60006020820190508181036000830152613e0881613dcc565b9050919050565b6000606082019050613e24600083018661323a565b613e31602083018561323a565b613e3e604083018461323a565b949350505050565b6000604082019050613e5b600083018561323a565b613e68602083018461323a565b939250505056fea2646970667358221220d154aec296948dba0fe3db2889b24f36eda95853fb3f89ac07afbba265955a9964736f6c63430008130033",
  "linkReferences": {},
  "deployedLinkReferences": {}
}