{
  "_format": "hh-sol-artifact-1",
  "contractName": "AcceptForeclosurable",
  "sourceName": "contracts/protocol/auctions/AcceptForeclosurable.sol",
  "abi": [
    {
      "inputs": [
        {
          "internalType": "uint256",
          "name": "x",
          "type": "uint256"
        },
        {
          "internalType": "uint256",
          "name": "y",
          "type": "uint256"
        }
      ],
      "name": "PRBMath_MulDiv18_Overflow",
      "type": "error"
    },
    {
      "inputs": [
        {
          "internalType": "uint256",
          "name": "x",
          "type": "uint256"
        },
        {
          "internalType": "uint256",
          "name": "y",
          "type": "uint256"
        },
        {
          "internalType": "uint256",
          "name": "denominator",
          "type": "uint256"
        }
      ],
      "name": "PRBMath_MulDiv_Overflow",
      "type": "error"
    },
    {
      "inputs": [
        {
          "internalType": "int256",
          "name": "x",
          "type": "int256"
        }
      ],
      "name": "PRBMath_SD59x18_Convert_Overflow",
      "type": "error"
    },
    {
      "inputs": [
        {
          "internalType": "int256",
          "name": "x",
          "type": "int256"
        }
      ],
      "name": "PRBMath_SD59x18_Convert_Underflow",
      "type": "error"
    },
    {
      "inputs": [
        {
          "internalType": "SD59x18",
          "name": "x",
          "type": "int256"
        }
      ],
      "name": "PRBMath_SD59x18_Exp2_InputTooBig",
      "type": "error"
    },
    {
      "inputs": [
        {
          "internalType": "SD59x18",
          "name": "x",
          "type": "int256"
        }
      ],
      "name": "PRBMath_SD59x18_IntoUD60x18_Underflow",
      "type": "error"
    },
    {
      "inputs": [
        {
          "internalType": "SD59x18",
          "name": "x",
          "type": "int256"
        }
      ],
      "name": "PRBMath_SD59x18_Log_InputTooSmall",
      "type": "error"
    },
    {
      "inputs": [],
      "name": "PRBMath_SD59x18_Mul_InputTooSmall",
      "type": "error"
    },
    {
      "inputs": [
        {
          "internalType": "SD59x18",
          "name": "x",
          "type": "int256"
        },
        {
          "internalType": "SD59x18",
          "name": "y",
          "type": "int256"
        }
      ],
      "name": "PRBMath_SD59x18_Mul_Overflow",
      "type": "error"
    },
    {
      "inputs": [
        {
          "internalType": "uint256",
          "name": "x",
          "type": "uint256"
        }
      ],
      "name": "PRBMath_UD60x18_Convert_Overflow",
      "type": "error"
    },
    {
      "inputs": [
        {
          "internalType": "UD60x18",
          "name": "x",
          "type": "uint256"
        }
      ],
      "name": "PRBMath_UD60x18_IntoSD59x18_Overflow",
      "type": "error"
    },
    {
      "anonymous": false,
      "inputs": [
        {
          "indexed": false,
          "internalType": "uint8",
          "name": "version",
          "type": "uint8"
        }
      ],
      "name": "Initialized",
      "type": "event"
    },
    {
      "anonymous": false,
      "inputs": [
        {
          "indexed": true,
          "internalType": "address",
          "name": "previousOwner",
          "type": "address"
        },
        {
          "indexed": true,
          "internalType": "address",
          "name": "newOwner",
          "type": "address"
        }
      ],
      "name": "OwnershipTransferred",
      "type": "event"
    },
    {
      "inputs": [
        {
          "internalType": "uint256",
          "name": "",
          "type": "uint256"
        }
      ],
      "name": "_loans",
      "outputs": [
        {
          "internalType": "address",
          "name": "borrower",
          "type": "address"
        },
        {
          "internalType": "UD60x18",
          "name": "ratePerSecond",
          "type": "uint256"
        },
        {
          "internalType": "UD60x18",
          "name": "paymentPerSecond",
          "type": "uint256"
        },
        {
          "internalType": "uint256",
          "name": "startTime",
          "type": "uint256"
        },
        {
          "internalType": "uint256",
          "name": "unpaidPrincipal",
          "type": "uint256"
        },
        {
          "internalType": "uint256",
          "name": "maxDurationSeconds",
          "type": "uint256"
        },
        {
          "internalType": "uint256",
          "name": "lastPaymentTime",
          "type": "uint256"
        }
      ],
      "stateMutability": "view",
      "type": "function"
    },
    {
      "inputs": [
        {
          "internalType": "uint256",
          "name": "tokenId",
          "type": "uint256"
        },
        {
          "internalType": "uint256",
          "name": "bidIdx",
          "type": "uint256"
        }
      ],
      "name": "acceptForeclosurableBid",
      "outputs": [],
      "stateMutability": "nonpayable",
      "type": "function"
    },
    {
      "inputs": [
        {
          "internalType": "uint256",
          "name": "tokenId",
          "type": "uint256"
        }
      ],
      "name": "accruedInterest",
      "outputs": [
        {
          "internalType": "uint256",
          "name": "",
          "type": "uint256"
        }
      ],
      "stateMutability": "view",
      "type": "function"
    },
    {
      "inputs": [],
      "name": "availableLiquidity",
      "outputs": [
        {
          "internalType": "uint256",
          "name": "",
          "type": "uint256"
        }
      ],
      "stateMutability": "view",
      "type": "function"
    },
    {
      "inputs": [
        {
          "components": [
            {
              "internalType": "address",
              "name": "bidder",
              "type": "address"
            },
            {
              "internalType": "uint256",
              "name": "propertyValue",
              "type": "uint256"
            },
            {
              "internalType": "uint256",
              "name": "downPayment",
              "type": "uint256"
            },
            {
              "internalType": "uint256",
              "name": "maxDurationMonths",
              "type": "uint256"
            }
          ],
          "internalType": "struct IState.Bid",
          "name": "bid",
          "type": "tuple"
        }
      ],
      "name": "bidActionable",
      "outputs": [
        {
          "internalType": "bool",
          "name": "",
          "type": "bool"
        }
      ],
      "stateMutability": "view",
      "type": "function"
    },
    {
      "inputs": [
        {
          "internalType": "uint256",
          "name": "tokenId",
          "type": "uint256"
        }
      ],
      "name": "bids",
      "outputs": [
        {
          "components": [
            {
              "internalType": "address",
              "name": "bidder",
              "type": "address"
            },
            {
              "internalType": "uint256",
              "name": "propertyValue",
              "type": "uint256"
            },
            {
              "internalType": "uint256",
              "name": "downPayment",
              "type": "uint256"
            },
            {
              "internalType": "uint256",
              "name": "maxDurationMonths",
              "type": "uint256"
            }
          ],
          "internalType": "struct IState.Bid[]",
          "name": "",
          "type": "tuple[]"
        }
      ],
      "stateMutability": "view",
      "type": "function"
    },
    {
      "inputs": [],
      "name": "defaultFeeSpread",
      "outputs": [
        {
          "internalType": "UD60x18",
          "name": "",
          "type": "uint256"
        }
      ],
      "stateMutability": "view",
      "type": "function"
    },
    {
      "inputs": [
        {
          "internalType": "contract tUsdc",
          "name": "_tUSDC",
          "type": "address"
        },
        {
          "internalType": "contract TangibleNft",
          "name": "_prosperaNftContract",
          "type": "address"
        }
      ],
      "name": "initialize",
      "outputs": [],
      "stateMutability": "nonpayable",
      "type": "function"
    },
    {
      "inputs": [
        {
          "components": [
            {
              "internalType": "address",
              "name": "bidder",
              "type": "address"
            },
            {
              "internalType": "uint256",
              "name": "propertyValue",
              "type": "uint256"
            },
            {
              "internalType": "uint256",
              "name": "downPayment",
              "type": "uint256"
            },
            {
              "internalType": "uint256",
              "name": "maxDurationMonths",
              "type": "uint256"
            }
          ],
          "internalType": "struct IState.Bid",
          "name": "_bid",
          "type": "tuple"
        }
      ],
      "name": "loanBidActionable",
      "outputs": [
        {
          "internalType": "bool",
          "name": "",
          "type": "bool"
        }
      ],
      "stateMutability": "view",
      "type": "function"
    },
    {
      "inputs": [
        {
          "internalType": "uint256",
          "name": "tokenId",
          "type": "uint256"
        }
      ],
      "name": "loans",
      "outputs": [
        {
          "components": [
            {
              "internalType": "address",
              "name": "borrower",
              "type": "address"
            },
            {
              "internalType": "UD60x18",
              "name": "ratePerSecond",
              "type": "uint256"
            },
            {
              "internalType": "UD60x18",
              "name": "paymentPerSecond",
              "type": "uint256"
            },
            {
              "internalType": "uint256",
              "name": "startTime",
              "type": "uint256"
            },
            {
              "internalType": "uint256",
              "name": "unpaidPrincipal",
              "type": "uint256"
            },
            {
              "internalType": "uint256",
              "name": "maxDurationSeconds",
              "type": "uint256"
            },
            {
              "internalType": "uint256",
              "name": "lastPaymentTime",
              "type": "uint256"
            }
          ],
          "internalType": "struct IState.Loan",
          "name": "",
          "type": "tuple"
        }
      ],
      "stateMutability": "view",
      "type": "function"
    },
    {
      "inputs": [
        {
          "internalType": "uint256",
          "name": "idx",
          "type": "uint256"
        }
      ],
      "name": "loansTokenIdsAt",
      "outputs": [
        {
          "internalType": "uint256",
          "name": "tokenId",
          "type": "uint256"
        }
      ],
      "stateMutability": "view",
      "type": "function"
    },
    {
      "inputs": [],
      "name": "loansTokenIdsLength",
      "outputs": [
        {
          "internalType": "uint256",
          "name": "",
          "type": "uint256"
        }
      ],
      "stateMutability": "view",
      "type": "function"
    },
    {
      "inputs": [
        {
          "internalType": "bytes4",
          "name": "",
          "type": "bytes4"
        }
      ],
      "name": "logicTargets",
      "outputs": [
        {
          "internalType": "address",
          "name": "",
          "type": "address"
        }
      ],
      "stateMutability": "view",
      "type": "function"
    },
    {
      "inputs": [],
      "name": "maxDurationMonthsCap",
      "outputs": [
        {
          "internalType": "uint256",
          "name": "",
          "type": "uint256"
        }
      ],
      "stateMutability": "view",
      "type": "function"
    },
    {
      "inputs": [],
      "name": "maxLtv",
      "outputs": [
        {
          "internalType": "UD60x18",
          "name": "",
          "type": "uint256"
        }
      ],
      "stateMutability": "view",
      "type": "function"
    },
    {
      "inputs": [],
      "name": "monthSeconds",
      "outputs": [
        {
          "internalType": "uint256",
          "name": "",
          "type": "uint256"
        }
      ],
      "stateMutability": "view",
      "type": "function"
    },
    {
      "inputs": [],
      "name": "optimalUtilization",
      "outputs": [
        {
          "internalType": "UD60x18",
          "name": "",
          "type": "uint256"
        }
      ],
      "stateMutability": "view",
      "type": "function"
    },
    {
      "inputs": [],
      "name": "owner",
      "outputs": [
        {
          "internalType": "address",
          "name": "",
          "type": "address"
        }
      ],
      "stateMutability": "view",
      "type": "function"
    },
    {
      "inputs": [
        {
          "components": [
            {
              "internalType": "address",
              "name": "borrower",
              "type": "address"
            },
            {
              "internalType": "UD60x18",
              "name": "ratePerSecond",
              "type": "uint256"
            },
            {
              "internalType": "UD60x18",
              "name": "paymentPerSecond",
              "type": "uint256"
            },
            {
              "internalType": "uint256",
              "name": "startTime",
              "type": "uint256"
            },
            {
              "internalType": "uint256",
              "name": "unpaidPrincipal",
              "type": "uint256"
            },
            {
              "internalType": "uint256",
              "name": "maxDurationSeconds",
              "type": "uint256"
            },
            {
              "internalType": "uint256",
              "name": "lastPaymentTime",
              "type": "uint256"
            }
          ],
          "internalType": "struct IState.Loan",
          "name": "loan",
          "type": "tuple"
        },
        {
          "internalType": "uint256",
          "name": "month",
          "type": "uint256"
        }
      ],
      "name": "principalCap",
      "outputs": [
        {
          "internalType": "uint256",
          "name": "cap",
          "type": "uint256"
        }
      ],
      "stateMutability": "pure",
      "type": "function"
    },
    {
      "inputs": [],
      "name": "redemptionFeeSpread",
      "outputs": [
        {
          "internalType": "UD60x18",
          "name": "",
          "type": "uint256"
        }
      ],
      "stateMutability": "view",
      "type": "function"
    },
    {
      "inputs": [],
      "name": "renounceOwnership",
      "outputs": [],
      "stateMutability": "nonpayable",
      "type": "function"
    },
    {
      "inputs": [
        {
          "internalType": "bytes4[]",
          "name": "selectorsArr",
          "type": "bytes4[]"
        },
        {
          "internalType": "address",
          "name": "target",
          "type": "address"
        }
      ],
      "name": "setSelectorsTarget",
      "outputs": [],
      "stateMutability": "nonpayable",
      "type": "function"
    },
    {
      "inputs": [
        {
          "internalType": "uint256",
          "name": "tokenId",
          "type": "uint256"
        }
      ],
      "name": "status",
      "outputs": [
        {
          "internalType": "enum IState.Status",
          "name": "",
          "type": "uint8"
        }
      ],
      "stateMutability": "view",
      "type": "function"
    },
    {
      "inputs": [
        {
          "internalType": "uint256",
          "name": "tokenId",
          "type": "uint256"
        }
      ],
      "name": "tokenIdBidsLength",
      "outputs": [
        {
          "internalType": "uint256",
          "name": "",
          "type": "uint256"
        }
      ],
      "stateMutability": "view",
      "type": "function"
    },
    {
      "inputs": [],
      "name": "totalDeposits",
      "outputs": [
        {
          "internalType": "uint256",
          "name": "",
          "type": "uint256"
        }
      ],
      "stateMutability": "view",
      "type": "function"
    },
    {
      "inputs": [],
      "name": "totalPrincipal",
      "outputs": [
        {
          "internalType": "uint256",
          "name": "",
          "type": "uint256"
        }
      ],
      "stateMutability": "view",
      "type": "function"
    },
    {
      "inputs": [
        {
          "internalType": "address",
          "name": "newOwner",
          "type": "address"
        }
      ],
      "name": "transferOwnership",
      "outputs": [],
      "stateMutability": "nonpayable",
      "type": "function"
    },
    {
      "inputs": [],
      "name": "yearMonths",
      "outputs": [
        {
          "internalType": "uint256",
          "name": "",
          "type": "uint256"
        }
      ],
      "stateMutability": "view",
      "type": "function"
    },
    {
      "inputs": [],
      "name": "yearSeconds",
      "outputs": [
        {
          "internalType": "uint256",
          "name": "",
          "type": "uint256"
        }
      ],
      "stateMutability": "view",
      "type": "function"
    }
  ],
  "bytecode": "0x608060405273a0b86991c6218b36c1d19d4a2e9eb0ce3606eb486002806101000a81548173ffffffffffffffffffffffffffffffffffffffff021916908373ffffffffffffffffffffffffffffffffffffffff1602179055506200008f6200006e60646200027d60201b60201c565b62000080605a6200027d60201b60201c565b6200030e60201b90919060201c565b600755620000c9620000a860646200027d60201b60201c565b620000ba60046200027d60201b60201c565b6200030e60201b90919060201c565b60085562000103620000e260646200027d60201b60201c565b620000f460036200027d60201b60201c565b6200030e60201b90919060201c565b6009556200011860096200027d60201b60201c565b600a55620001526200013160646200027d60201b60201c565b6200014360016200027d60201b60201c565b6200030e60201b90919060201c565b600b556200018c6200016b60646200027d60201b60201c565b6200017d60026200027d60201b60201c565b6200030e60201b90919060201c565b600c55620001c6620001a560646200027d60201b60201c565b620001b760036200027d60201b60201c565b6200030e60201b90919060201c565b600d5562000200620001df60646200027d60201b60201c565b620001f160046200027d60201b60201c565b6200030e60201b90919060201c565b600e55623b5380601455620002416200022060646200027d60201b60201c565b6200023260326200027d60201b60201c565b6200030e60201b90919060201c565b60155560786016553480156200025657600080fd5b50620002776200026b6200036360201b60201c565b6200036b60201b60201c565b62000641565b6000670de0b6b3a76400007fffffffffffffffffffffffffffffffffffffffffffffffffffffffffffffffff620002b591906200059e565b821115620002fc57816040517f1cd951a7000000000000000000000000000000000000000000000000000000008152600401620002f39190620005e7565b60405180910390fd5b670de0b6b3a764000082029050919050565b60006200035b6200034f62000329856200042f60201b60201c565b670de0b6b3a764000062000343866200042f60201b60201c565b6200043960201b60201c565b6200055b60201b60201c565b905092915050565b600033905090565b60008060009054906101000a900473ffffffffffffffffffffffffffffffffffffffff169050816000806101000a81548173ffffffffffffffffffffffffffffffffffffffff021916908373ffffffffffffffffffffffffffffffffffffffff1602179055508173ffffffffffffffffffffffffffffffffffffffff168173ffffffffffffffffffffffffffffffffffffffff167f8be0079c531659141344cd1fd0a4f28419497f9722a3daafe3b4186f6b6457e060405160405180910390a35050565b6000819050919050565b600080600080198587098587029250828110838203039150506000810362000479578382816200046e576200046d6200056f565b5b049250505062000554565b838110620004c4578585856040517f63a05778000000000000000000000000000000000000000000000000000000008152600401620004bb9392919062000604565b60405180910390fd5b60008486880990508281118203915080830392506000600186190186169050600081870496508185049450600182836000030401905080840285179450600060028860030218905080880260020381029050808802600203810290508088026002038102905080880260020381029050808802600203810290508088026002038102905080860296505050505050505b9392505050565b6000819050919050565b6000819050919050565b7f4e487b7100000000000000000000000000000000000000000000000000000000600052601260045260246000fd5b6000620005ab8262000565565b9150620005b88362000565565b925082620005cb57620005ca6200056f565b5b828204905092915050565b620005e18162000565565b82525050565b6000602082019050620005fe6000830184620005d6565b92915050565b60006060820190506200061b6000830186620005d6565b6200062a6020830185620005d6565b620006396040830184620005d6565b949350505050565b61470580620006516000396000f3fe608060405234801561001057600080fd5b50600436106101cf5760003560e01c806374bdf96a11610104578063ab01f7e1116100a2578063e343504411610071578063e343504414610578578063e77afe5e14610594578063f2fde38b146105b0578063ff9ad6df146105cc576101cf565b8063ab01f7e1146104c4578063bcff3e3b146104e2578063bd5c569b14610512578063e1ec3c6814610548576101cf565b806387ae0dbe116100de57806387ae0dbe1461043a5780638da5cb5b14610458578063a0024c2f14610476578063a54cab1c146104a6576101cf565b806374bdf96a146103ce5780637d882097146103fe578063812cf0181461041c576101cf565b80634423c5f1116101715780634b1533b21161014b5780634b1533b21461036a5780636290cd1c14610388578063715018a6146103a657806374375359146103b0576101cf565b80634423c5f114610300578063485cc955146103305780634abb30031461034c576101cf565b80632da10923116101ad5780632da10923146102645780633a12c6da146102945780633ca36db6146102b257806342d21ef7146102d0576101cf565b80630a9cc0b6146101d457806317548b79146102045780631cc03c8714610234575b600080fd5b6101ee60048036038101906101e9919061341f565b6105ea565b6040516101fb9190613467565b60405180910390f35b61021e600480360381019061021991906134da565b61065f565b60405161022b9190613516565b60405180910390f35b61024e60048036038101906102499190613611565b610692565b60405161025b9190613661565b60405180910390f35b61027e6004803603810190610279919061367c565b6107f4565b60405161028b9190613661565b60405180910390f35b61029c610814565b6040516102a991906136e4565b60405180910390f35b6102ba61081a565b6040516102c791906136e4565b60405180910390f35b6102ea60048036038101906102e5919061367c565b610824565b6040516102f79190613776565b60405180910390f35b61031a6004803603810190610315919061367c565b61096b565b60405161032791906138b3565b60405180910390f35b61034a60048036038101906103459190613951565b610a51565b005b610354610c12565b60405161036191906136e4565b60405180910390f35b610372610c1c565b60405161037f9190613661565b60405180910390f35b610390610c22565b60405161039d91906136e4565b60405180910390f35b6103ae610c28565b005b6103b8610c3c565b6040516103c59190613661565b60405180910390f35b6103e860048036038101906103e3919061367c565b610c53565b6040516103f59190613661565b60405180910390f35b610406610c70565b6040516104139190613661565b60405180910390f35b610424610c76565b6040516104319190613661565b60405180910390f35b610442610c7b565b60405161044f9190613661565b60405180910390f35b610460610c83565b60405161046d9190613516565b60405180910390f35b610490600480360381019061048b919061341f565b610cac565b60405161049d9190613467565b60405180910390f35b6104ae610cd0565b6040516104bb9190613661565b60405180910390f35b6104cc610cd6565b6040516104d99190613661565b60405180910390f35b6104fc60048036038101906104f7919061367c565b610ce7565b6040516105099190613661565b60405180910390f35b61052c6004803603810190610527919061367c565b610da8565b60405161053f9796959493929190613991565b60405180910390f35b610562600480360381019061055d919061367c565b610e0a565b60405161056f9190613a9d565b60405180910390f35b610592600480360381019061058d9190613b1d565b610ec9565b005b6105ae60048036038101906105a99190613b7d565b610faf565b005b6105ca60048036038101906105c59190613bbd565b611571565b005b6105d46115f4565b6040516105e19190613661565b60405180910390f35b600080826040015183602001516106019190613c19565b9050600061062c6106158560200151611608565b61061e84611608565b61169490919063ffffffff16565b9050610643601554826116c990919063ffffffff16565b80156106565750610652610c3c565b8211155b92505050919050565b60016020528060005260406000206000915054906101000a900473ffffffffffffffffffffffffffffffffffffffff1681565b600061069d836116e7565b8211156106df576040517f08c379a00000000000000000000000000000000000000000000000000000000081526004016106d690613cd0565b60405180910390fd5b6000600c6301e133806106f29190613d1f565b836106fd9190613d50565b9050600061074361070e6001611710565b61073561071e8860a00151611710565b61072786611710565b61181490919063ffffffff16565b61181490919063ffffffff16565b9050600061079c610784836107766107718a602001516107636001611608565b61184290919063ffffffff16565b611870565b6118e490919063ffffffff16565b61078e6001611710565b61181490919063ffffffff16565b905060006107c76107c2836107b48a60400151611870565b6119a290919063ffffffff16565b611b32565b90506107e86107e388602001518361169490919063ffffffff16565b611b87565b94505050505092915050565b6000600f6000838152602001908152602001600020805490509050919050565b60155481565b6000600d54905090565b600080601060008481526020019081526020016000206040518060e00160405290816000820160009054906101000a900473ffffffffffffffffffffffffffffffffffffffff1673ffffffffffffffffffffffffffffffffffffffff1673ffffffffffffffffffffffffffffffffffffffff16815260200160018201548152602001600282015481526020016003820154815260200160048201548152602001600582015481526020016006820154815250509050600073ffffffffffffffffffffffffffffffffffffffff16816000015173ffffffffffffffffffffffffffffffffffffffff160361091b576000915050610966565b61092483611ba4565b1561096057600061093482611cb9565b4261093f9190613c19565b9050601454811161095557600292505050610966565b600392505050610966565b60019150505b919050565b6060600f6000838152602001908152602001600020805480602002602001604051908101604052809291908181526020016000905b82821015610a4657838290600052602060002090600402016040518060800160405290816000820160009054906101000a900473ffffffffffffffffffffffffffffffffffffffff1673ffffffffffffffffffffffffffffffffffffffff1673ffffffffffffffffffffffffffffffffffffffff1681526020016001820154815260200160028201548152602001600382015481525050815260200190600101906109a0565b505050509050919050565b6000600260019054906101000a900460ff16159050808015610a8557506001600260009054906101000a900460ff1660ff16105b80610ab45750610a9430611d64565b158015610ab357506001600260009054906101000a900460ff1660ff16145b5b610af3576040517f08c379a0000000000000000000000000000000000000000000000000000000008152600401610aea90613e04565b60405180910390fd5b6001600260006101000a81548160ff021916908360ff1602179055508015610b31576001600260016101000a81548160ff0219169083151502179055505b82600360006101000a81548173ffffffffffffffffffffffffffffffffffffffff021916908373ffffffffffffffffffffffffffffffffffffffff16021790555081600460006101000a81548173ffffffffffffffffffffffffffffffffffffffff021916908373ffffffffffffffffffffffffffffffffffffffff1602179055508015610c0d576000600260016101000a81548160ff0219169083151502179055507f7f26b83ff96e1f2b6a682f133852f6798a09c465da95921460cefb38474024986001604051610c049190613e6c565b60405180910390a15b505050565b6000600e54905090565b60055481565b60075481565b610c30611d87565b610c3a6000611e05565b565b6000600554600654610c4e9190613c19565b905090565b6000610c69826011611ec990919063ffffffff16565b9050919050565b60065481565b600c81565b6301e1338081565b60008060009054906101000a900473ffffffffffffffffffffffffffffffffffffffff16905090565b6000816040015182602001511480610cc95750610cc8826105ea565b5b9050919050565b60165481565b6000610ce26011611ee3565b905090565b6000610da1601060008481526020019081526020016000206040518060e00160405290816000820160009054906101000a900473ffffffffffffffffffffffffffffffffffffffff1673ffffffffffffffffffffffffffffffffffffffff1673ffffffffffffffffffffffffffffffffffffffff1681526020016001820154815260200160028201548152602001600382015481526020016004820154815260200160058201548152602001600682015481525050611ef8565b9050919050565b60106020528060005260406000206000915090508060000160009054906101000a900473ffffffffffffffffffffffffffffffffffffffff16908060010154908060020154908060030154908060040154908060050154908060060154905087565b610e1261321b565b601060008381526020019081526020016000206040518060e00160405290816000820160009054906101000a900473ffffffffffffffffffffffffffffffffffffffff1673ffffffffffffffffffffffffffffffffffffffff1673ffffffffffffffffffffffffffffffffffffffff16815260200160018201548152602001600282015481526020016003820154815260200160048201548152602001600582015481526020016006820154815250509050919050565b610ed1611d87565b60005b83839050811015610fa9578160016000868685818110610ef757610ef6613e87565b5b9050602002016020810190610f0c91906134da565b7bffffffffffffffffffffffffffffffffffffffffffffffffffffffff19167bffffffffffffffffffffffffffffffffffffffffffffffffffffffff1916815260200190815260200160002060006101000a81548173ffffffffffffffffffffffffffffffffffffffff021916908373ffffffffffffffffffffffffffffffffffffffff1602179055508080610fa190613eb6565b915050610ed4565b50505050565b6000601060008481526020019081526020016000206040518060e00160405290816000820160009054906101000a900473ffffffffffffffffffffffffffffffffffffffff1673ffffffffffffffffffffffffffffffffffffffff1673ffffffffffffffffffffffffffffffffffffffff16815260200160018201548152602001600282015481526020016003820154815260200160048201548152602001600582015481526020016006820154815250509050600380811115611076576110756136ff565b5b61107f84610824565b6003811115611091576110906136ff565b5b146110d1576040517f08c379a00000000000000000000000000000000000000000000000000000000081526004016110c890613f4a565b60405180910390fd5b6000600f600085815260200190815260200160002083815481106110f8576110f7613e87565b5b90600052602060002090600402016040518060800160405290816000820160009054906101000a900473ffffffffffffffffffffffffffffffffffffffff1673ffffffffffffffffffffffffffffffffffffffff1673ffffffffffffffffffffffffffffffffffffffff1681526020016001820154815260200160028201548152602001600382015481525050905060006111b26111ad600b5461119f8560200151611608565b611f3090919063ffffffff16565b611b87565b905060006111df6111da600e546111cc8660200151611608565b611f3090919063ffffffff16565b611b87565b905080826111ed9190613f6a565b601360008282546111fe9190613f6a565b92505081905550600061121087610ce7565b90508460800151600560008282546112289190613c19565b9250508190555080600660008282546112419190613f6a565b925050819055506000828483886080015161125c9190613f6a565b6112669190613f6a565b6112709190613f6a565b905080856020015110156112b9576040517f08c379a00000000000000000000000000000000000000000000000000000000081526004016112b090613fea565b60405180910390fd5b60008186602001516112cb9190613c19565b905061131c87600001518260028054906101000a900473ffffffffffffffffffffffffffffffffffffffff1673ffffffffffffffffffffffffffffffffffffffff16611f5c9092919063ffffffff16565b85604001518660200151036113c557600460009054906101000a900473ffffffffffffffffffffffffffffffffffffffff1673ffffffffffffffffffffffffffffffffffffffff166342842e0e3088600001518c6040518463ffffffff1660e01b815260040161138e9392919061400a565b600060405180830381600087803b1580156113a857600080fd5b505af11580156113bc573d6000803e3d6000fd5b50505050611566565b6000866040015187602001516113db9190613c19565b9050600060016000630feee81e60e01b7bffffffffffffffffffffffffffffffffffffffffffffffffffffffff19167bffffffffffffffffffffffffffffffffffffffffffffffffffffffff1916815260200190815260200160002060009054906101000a900473ffffffffffffffffffffffffffffffffffffffff1673ffffffffffffffffffffffffffffffffffffffff1688600001518c848b6060015160405160240161148d9493929190614041565b604051602081830303815290604052630feee81e60e01b6020820180517bffffffffffffffffffffffffffffffffffffffffffffffffffffffff83818316178352505050506040516114df91906140f7565b600060405180830381855af49150503d806000811461151a576040519150601f19603f3d011682016040523d82523d6000602084013e61151f565b606091505b5050905080611563576040517f08c379a000000000000000000000000000000000000000000000000000000000815260040161155a9061415a565b60405180910390fd5b50505b505050505050505050565b611579611d87565b600073ffffffffffffffffffffffffffffffffffffffff168173ffffffffffffffffffffffffffffffffffffffff16036115e8576040517f08c379a00000000000000000000000000000000000000000000000000000000081526004016115df906141ec565b60405180910390fd5b6115f181611e05565b50565b600c6301e133806116059190613d1f565b81565b6000670de0b6b3a76400007fffffffffffffffffffffffffffffffffffffffffffffffffffffffffffffffff61163e9190613d1f565b82111561168257816040517f1cd951a70000000000000000000000000000000000000000000000000000000081526004016116799190613661565b60405180910390fd5b670de0b6b3a764000082029050919050565b60006116c16116bc6116a585611fe2565b670de0b6b3a76400006116b786611fe2565b611fec565b612106565b905092915050565b60006116d482611fe2565b6116dd84611fe2565b1115905092915050565b60006301e133808260a00151600c6116ff9190613d50565b6117099190613d1f565b9050919050565b6000670de0b6b3a76400007f80000000000000000000000000000000000000000000000000000000000000006117469190614216565b82121561178a57816040517f99474eeb000000000000000000000000000000000000000000000000000000008152600401611781919061428f565b60405180910390fd5b670de0b6b3a76400007f7fffffffffffffffffffffffffffffffffffffffffffffffffffffffffffffff6117be9190614216565b82131561180257816040517f9d5810910000000000000000000000000000000000000000000000000000000081526004016117f9919061428f565b60405180910390fd5b670de0b6b3a764000082029050919050565b600061183a61182283612110565b61182b85612110565b61183591906142aa565b61211a565b905092915050565b600061186861185083611fe2565b61185985611fe2565b6118639190613f6a565b612106565b905092915050565b6000808290507f7fffffffffffffffffffffffffffffffffffffffffffffffffffffffffffffff8111156118db57826040517ff46186840000000000000000000000000000000000000000000000000000000081526004016118d291906136e4565b60405180910390fd5b80915050919050565b6000806118f084612110565b905060006118fd84612110565b9050600082036119295760008114611916576000611920565b670de0b6b3a76400005b9250505061199c565b670de0b6b3a7640000820361194a57670de0b6b3a76400009250505061199c565b6000810361196457670de0b6b3a76400009250505061199c565b670de0b6b3a7640000810361197d57849250505061199c565b61199761199261198c87612124565b866119a2565b6122b7565b925050505b92915050565b6000806119ae84612110565b905060006119bb84612110565b90507f8000000000000000000000000000000000000000000000000000000000000000821480611a0a57507f800000000000000000000000000000000000000000000000000000000000000081145b15611a41576040517fa6070c2500000000000000000000000000000000000000000000000000000000815260040160405180910390fd5b60008060008412611a525783611a57565b836000035b915060008312611a675782611a6c565b826000035b90506000611a7a83836123d5565b90507f7fffffffffffffffffffffffffffffffffffffffffffffffffffffffffffffff811115611ae35787876040517f120b5b43000000000000000000000000000000000000000000000000000000008152600401611ada92919061431e565b60405180910390fd5b60007fffffffffffffffffffffffffffffffffffffffffffffffffffffffffffffffff858718139050611b2481611b1d5782600003611b1f565b825b61211a565b965050505050505092915050565b6000808290506000811215611b7e57826040517fbba41a15000000000000000000000000000000000000000000000000000000008152600401611b759190614347565b60405180910390fd5b80915050919050565b6000670de0b6b3a764000082611b9d9190613d1f565b9050919050565b600080601060008481526020019081526020016000206040518060e00160405290816000820160009054906101000a900473ffffffffffffffffffffffffffffffffffffffff1673ffffffffffffffffffffffffffffffffffffffff1673ffffffffffffffffffffffffffffffffffffffff168152602001600182015481526020016002820154815260200160038201548152602001600482015481526020016005820154815260200160068201548152505090506000611c64826124bf565b90506000600c6301e133808460a00151611c7e9190613d1f565b611c889190613d50565b905080821115611c9e5760019350505050611cb4565b611ca88383610692565b83608001511193505050505b919050565b600080611cc5836124bf565b905060008190505b6000811115611d5d576000611ce28583610692565b90506000611cfc86600185611cf79190613c19565b610692565b9050818660800151118015611d15575080866080015111155b15611d4857600c6301e13380611d2b9190613d1f565b83611d369190613d50565b8660600151611d459190613f6a565b94505b50508080611d5590614362565b915050611ccd565b5050919050565b6000808273ffffffffffffffffffffffffffffffffffffffff163b119050919050565b611d8f612514565b73ffffffffffffffffffffffffffffffffffffffff16611dad610c83565b73ffffffffffffffffffffffffffffffffffffffff1614611e03576040517f08c379a0000000000000000000000000000000000000000000000000000000008152600401611dfa906143d7565b60405180910390fd5b565b60008060009054906101000a900473ffffffffffffffffffffffffffffffffffffffff169050816000806101000a81548173ffffffffffffffffffffffffffffffffffffffff021916908373ffffffffffffffffffffffffffffffffffffffff1602179055508173ffffffffffffffffffffffffffffffffffffffff168173ffffffffffffffffffffffffffffffffffffffff167f8be0079c531659141344cd1fd0a4f28419497f9722a3daafe3b4186f6b6457e060405160405180910390a35050565b6000611ed8836000018361251c565b60001c905092915050565b6000611ef182600001612547565b9050919050565b6000611f29611f24611f0984612558565b611f168560800151611608565b611f3090919063ffffffff16565b611b87565b9050919050565b6000611f54611f4f611f4185611fe2565b611f4a85611fe2565b6123d5565b612106565b905092915050565b611fdd8363a9059cbb60e01b8484604051602401611f7b9291906143f7565b604051602081830303815290604052907bffffffffffffffffffffffffffffffffffffffffffffffffffffffff19166020820180517bffffffffffffffffffffffffffffffffffffffffffffffffffffffff8381831617835250505050612588565b505050565b6000819050919050565b60008060008019858709858702925082811083820303915050600081036120275783828161201d5761201c613cf0565b5b04925050506120ff565b83811061206f578585856040517f63a0577800000000000000000000000000000000000000000000000000000000815260040161206693929190614420565b60405180910390fd5b60008486880990508281118203915080830392506000600186190186169050600081870496508185049450600182836000030401905080840285179450600060028860030218905080880260020381029050808802600203810290508088026002038102905080880260020381029050808802600203810290508088026002038102905080860296505050505050505b9392505050565b6000819050919050565b6000819050919050565b6000819050919050565b60008061213083612110565b90506000811361217757826040517f059b101b00000000000000000000000000000000000000000000000000000000815260040161216e9190614347565b60405180910390fd5b6000670de0b6b3a7640000821261219157600190506121d7565b7fffffffffffffffffffffffffffffffffffffffffffffffffffffffffffffffff9050816ec097ce7bc90715b34b9f1000000000816121d3576121d2613cf0565b5b0591505b60006121fa670de0b6b3a764000084816121f4576121f3613cf0565b5b0561264f565b90506000670de0b6b3a76400008202905060008285901d9050670de0b6b3a764000081036122395761222d84830261211a565b955050505050506122b2565b6000671bc16d674ec80000905060006706f05b59d3b2000090505b600081131561229a57670de0b6b3a76400008384028161227757612276613cf0565b5b05925081831261228e578084019350600183901d92505b600181901d9050612254565b5084830292506122a98361211a565b96505050505050505b919050565b6000806122c383612110565b9050600081121561234a577ffffffffffffffffffffffffffffffffffffffffffffffffcc22e87f6eb468eeb8112156123005760009150506123d0565b61234361231f61231a6123158460000361211a565b6122b7565b612110565b6ec097ce7bc90715b34b9f10000000008161233d5761233c613cf0565b5b0561211a565b91506123ce565b680a688906bd8affffff81131561239857826040517f0360d02800000000000000000000000000000000000000000000000000000000815260040161238f9190614347565b60405180910390fd5b6000670de0b6b3a7640000604083901b816123b6576123b5613cf0565b5b0590506123ca6123c5826126f8565b61211a565b9250505b505b919050565b600080600080198486098486029250828110838203039150506000810361241857670de0b6b3a7640000828161240e5761240d613cf0565b5b04925050506124b9565b670de0b6b3a764000081106124665784846040517f5173648d00000000000000000000000000000000000000000000000000000000815260040161245d929190614457565b60405180910390fd5b6000670de0b6b3a764000085870990507faccb18165bd6fe31ae1cf318dc5b51eee0e1ba569b88cd74c1773b91fac106696001620400008060000304018483118403026204000083860304170293505050505b92915050565b600080600c6301e133806124d39190613d1f565b8360600151426124e39190613c19565b6124ed9190613d1f565b905060006124fa846116e7565b9050808211612509578161250b565b805b92505050919050565b600033905090565b600082600001828154811061253457612533613e87565b5b9060005260206000200154905092915050565b600081600001805490509050919050565b600061258161256e61256984613058565b611608565b8360200151611f3090919063ffffffff16565b9050919050565b60006125ea826040518060400160405280602081526020017f5361666545524332303a206c6f772d6c6576656c2063616c6c206661696c65648152508573ffffffffffffffffffffffffffffffffffffffff166130719092919063ffffffff16565b905060008151111561264a578080602001905181019061260a91906144ac565b612649576040517f08c379a00000000000000000000000000000000000000000000000000000000081526004016126409061454b565b60405180910390fd5b5b505050565b60006fffffffffffffffffffffffffffffffff821160071b82811c925080821791505067ffffffffffffffff821160061b82811c925080821791505063ffffffff821160051b82811c925080821791505061ffff821160041b82811c925080821791505060ff821160031b82811c9250808217915050600f821160021b82811c92508082179150506003821160011b82811c925080821791505060018211808217915050919050565b6000778000000000000000000000000000000000000000000000009050600067ff00000000000000831611156128595760006780000000000000008316111561274e57604068016a09e667f3bcc9098202901c90505b6000674000000000000000831611156127745760406801306fe0a31b7152df8202901c90505b60006720000000000000008316111561279a5760406801172b83c7d517adce8202901c90505b6000671000000000000000831611156127c057604068010b5586cf9890f62a8202901c90505b6000670800000000000000831611156127e65760406801059b0d31585743ae8202901c90505b60006704000000000000008316111561280c576040680102c9a3e778060ee78202901c90505b60006702000000000000008316111561283257604068010163da9fb33356d88202901c90505b600067010000000000000083161115612858576040680100b1afa5abcbed618202901c90505b5b600066ff0000000000008316111561299457600066800000000000008316111561289057604068010058c86da1c09ea28202901c90505b60006640000000000000831611156128b55760406801002c605e2e8cec508202901c90505b60006620000000000000831611156128da576040680100162f3904051fa18202901c90505b60006610000000000000831611156128ff5760406801000b175effdc76ba8202901c90505b6000660800000000000083161115612924576040680100058ba01fb9f96d8202901c90505b600066040000000000008316111561294957604068010002c5cc37da94928202901c90505b600066020000000000008316111561296e5760406801000162e525ee05478202901c90505b600066010000000000008316111561299357604068010000b17255775c048202901c90505b5b600065ff000000000083161115612ac657600065800000000000831611156129c95760406801000058b91b5bc9ae8202901c90505b600065400000000000831611156129ed576040680100002c5c89d5ec6d8202901c90505b60006520000000000083161115612a1157604068010000162e43f4f8318202901c90505b60006510000000000083161115612a35576040680100000b1721bcfc9a8202901c90505b60006508000000000083161115612a5957604068010000058b90cf1e6e8202901c90505b60006504000000000083161115612a7d5760406801000002c5c863b73f8202901c90505b60006502000000000083161115612aa1576040680100000162e430e5a28202901c90505b60006501000000000083161115612ac55760406801000000b1721835518202901c90505b5b600064ff0000000083161115612bef57600064800000000083161115612af9576040680100000058b90c0b498202901c90505b600064400000000083161115612b1c57604068010000002c5c8601cc8202901c90505b600064200000000083161115612b3f5760406801000000162e42fff08202901c90505b600064100000000083161115612b6257604068010000000b17217fbb8202901c90505b600064080000000083161115612b855760406801000000058b90bfce8202901c90505b600064040000000083161115612ba8576040680100000002c5c85fe38202901c90505b600064020000000083161115612bcb57604068010000000162e42ff18202901c90505b600064010000000083161115612bee576040680100000000b17217f88202901c90505b5b600063ff00000083161115612d0f576000638000000083161115612c2057604068010000000058b90bfc8202901c90505b6000634000000083161115612c425760406801000000002c5c85fe8202901c90505b6000632000000083161115612c64576040680100000000162e42ff8202901c90505b6000631000000083161115612c865760406801000000000b17217f8202901c90505b6000630800000083161115612ca8576040680100000000058b90c08202901c90505b6000630400000083161115612cca57604068010000000002c5c8608202901c90505b6000630200000083161115612cec5760406801000000000162e4308202901c90505b6000630100000083161115612d0e57604068010000000000b172188202901c90505b5b600062ff000083161115612e265760006280000083161115612d3e5760406801000000000058b90c8202901c90505b60006240000083161115612d5f576040680100000000002c5c868202901c90505b60006220000083161115612d8057604068010000000000162e438202901c90505b60006210000083161115612da1576040680100000000000b17218202901c90505b60006208000083161115612dc257604068010000000000058b918202901c90505b60006204000083161115612de35760406801000000000002c5c88202901c90505b60006202000083161115612e04576040680100000000000162e48202901c90505b60006201000083161115612e255760406801000000000000b1728202901c90505b5b600061ff0083161115612f3457600061800083161115612e53576040680100000000000058b98202901c90505b600061400083161115612e7357604068010000000000002c5d8202901c90505b600061200083161115612e935760406801000000000000162e8202901c90505b600061100083161115612eb357604068010000000000000b178202901c90505b600061080083161115612ed35760406801000000000000058c8202901c90505b600061040083161115612ef3576040680100000000000002c68202901c90505b600061020083161115612f13576040680100000000000001638202901c90505b600061010083161115612f33576040680100000000000000b18202901c90505b5b600060ff83161115613039576000608083161115612f5f576040680100000000000000598202901c90505b6000604083161115612f7e5760406801000000000000002c8202901c90505b6000602083161115612f9d576040680100000000000000168202901c90505b6000601083161115612fbc5760406801000000000000000b8202901c90505b6000600883161115612fdb576040680100000000000000068202901c90505b6000600483161115612ffa576040680100000000000000038202901c90505b6000600283161115613019576040680100000000000000018202901c90505b6000600183161115613038576040680100000000000000018202901c90505b5b670de0b6b3a764000081029050604082901c60bf0381901c9050919050565b60008160c001514261306a9190613c19565b9050919050565b60606130808484600085613089565b90509392505050565b6060824710156130ce576040517f08c379a00000000000000000000000000000000000000000000000000000000081526004016130c5906145dd565b60405180910390fd5b6000808673ffffffffffffffffffffffffffffffffffffffff1685876040516130f791906140f7565b60006040518083038185875af1925050503d8060008114613134576040519150601f19603f3d011682016040523d82523d6000602084013e613139565b606091505b509150915061314a87838387613156565b92505050949350505050565b606083156131b85760008351036131b05761317085611d64565b6131af576040517f08c379a00000000000000000000000000000000000000000000000000000000081526004016131a690614649565b60405180910390fd5b5b8290506131c3565b6131c283836131cb565b5b949350505050565b6000825111156131de5781518083602001fd5b806040517f08c379a000000000000000000000000000000000000000000000000000000000815260040161321291906146ad565b60405180910390fd5b6040518060e00160405280600073ffffffffffffffffffffffffffffffffffffffff1681526020016000815260200160008152602001600081526020016000815260200160008152602001600081525090565b6000604051905090565b600080fd5b600080fd5b600080fd5b6000601f19601f8301169050919050565b7f4e487b7100000000000000000000000000000000000000000000000000000000600052604160045260246000fd5b6132d082613287565b810181811067ffffffffffffffff821117156132ef576132ee613298565b5b80604052505050565b600061330261326e565b905061330e82826132c7565b919050565b600073ffffffffffffffffffffffffffffffffffffffff82169050919050565b600061333e82613313565b9050919050565b61334e81613333565b811461335957600080fd5b50565b60008135905061336b81613345565b92915050565b6000819050919050565b61338481613371565b811461338f57600080fd5b50565b6000813590506133a18161337b565b92915050565b6000608082840312156133bd576133bc613282565b5b6133c760806132f8565b905060006133d78482850161335c565b60008301525060206133eb84828501613392565b60208301525060406133ff84828501613392565b604083015250606061341384828501613392565b60608301525092915050565b60006080828403121561343557613434613278565b5b6000613443848285016133a7565b91505092915050565b60008115159050919050565b6134618161344c565b82525050565b600060208201905061347c6000830184613458565b92915050565b60007fffffffff0000000000000000000000000000000000000000000000000000000082169050919050565b6134b781613482565b81146134c257600080fd5b50565b6000813590506134d4816134ae565b92915050565b6000602082840312156134f0576134ef613278565b5b60006134fe848285016134c5565b91505092915050565b61351081613333565b82525050565b600060208201905061352b6000830184613507565b92915050565b61353a81613371565b811461354557600080fd5b50565b60008135905061355781613531565b92915050565b600060e0828403121561357357613572613282565b5b61357d60e06132f8565b9050600061358d8482850161335c565b60008301525060206135a184828501613548565b60208301525060406135b584828501613548565b60408301525060606135c984828501613392565b60608301525060806135dd84828501613392565b60808301525060a06135f184828501613392565b60a08301525060c061360584828501613392565b60c08301525092915050565b600080610100838503121561362957613628613278565b5b60006136378582860161355d565b92505060e061364885828601613392565b9150509250929050565b61365b81613371565b82525050565b60006020820190506136766000830184613652565b92915050565b60006020828403121561369257613691613278565b5b60006136a084828501613392565b91505092915050565b6000819050919050565b60006136ce6136c96136c484613371565b6136a9565b613371565b9050919050565b6136de816136b3565b82525050565b60006020820190506136f960008301846136d5565b92915050565b7f4e487b7100000000000000000000000000000000000000000000000000000000600052602160045260246000fd5b6004811061373f5761373e6136ff565b5b50565b60008190506137508261372e565b919050565b600061376082613742565b9050919050565b61377081613755565b82525050565b600060208201905061378b6000830184613767565b92915050565b600081519050919050565b600082825260208201905092915050565b6000819050602082019050919050565b6137c681613333565b82525050565b6137d581613371565b82525050565b6080820160008201516137f160008501826137bd565b50602082015161380460208501826137cc565b50604082015161381760408501826137cc565b50606082015161382a60608501826137cc565b50505050565b600061383c83836137db565b60808301905092915050565b6000602082019050919050565b600061386082613791565b61386a818561379c565b9350613875836137ad565b8060005b838110156138a657815161388d8882613830565b975061389883613848565b925050600181019050613879565b5085935050505092915050565b600060208201905081810360008301526138cd8184613855565b905092915050565b60006138e082613333565b9050919050565b6138f0816138d5565b81146138fb57600080fd5b50565b60008135905061390d816138e7565b92915050565b600061391e82613333565b9050919050565b61392e81613913565b811461393957600080fd5b50565b60008135905061394b81613925565b92915050565b6000806040838503121561396857613967613278565b5b6000613976858286016138fe565b92505060206139878582860161393c565b9150509250929050565b600060e0820190506139a6600083018a613507565b6139b360208301896136d5565b6139c060408301886136d5565b6139cd6060830187613652565b6139da6080830186613652565b6139e760a0830185613652565b6139f460c0830184613652565b98975050505050505050565b613a09816136b3565b82525050565b60e082016000820151613a2560008501826137bd565b506020820151613a386020850182613a00565b506040820151613a4b6040850182613a00565b506060820151613a5e60608501826137cc565b506080820151613a7160808501826137cc565b5060a0820151613a8460a08501826137cc565b5060c0820151613a9760c08501826137cc565b50505050565b600060e082019050613ab26000830184613a0f565b92915050565b600080fd5b600080fd5b600080fd5b60008083601f840112613add57613adc613ab8565b5b8235905067ffffffffffffffff811115613afa57613af9613abd565b5b602083019150836020820283011115613b1657613b15613ac2565b5b9250929050565b600080600060408486031215613b3657613b35613278565b5b600084013567ffffffffffffffff811115613b5457613b5361327d565b5b613b6086828701613ac7565b93509350506020613b738682870161335c565b9150509250925092565b60008060408385031215613b9457613b93613278565b5b6000613ba285828601613392565b9250506020613bb385828601613392565b9150509250929050565b600060208284031215613bd357613bd2613278565b5b6000613be18482850161335c565b91505092915050565b7f4e487b7100000000000000000000000000000000000000000000000000000000600052601160045260246000fd5b6000613c2482613371565b9150613c2f83613371565b9250828203905081811115613c4757613c46613bea565b5b92915050565b600082825260208201905092915050565b7f6d6f6e7468206d757374206265203c3d206c6f616e4d61784475726174696f6e60008201527f4d6f6e7468730000000000000000000000000000000000000000000000000000602082015250565b6000613cba602683613c4d565b9150613cc582613c5e565b604082019050919050565b60006020820190508181036000830152613ce981613cad565b9050919050565b7f4e487b7100000000000000000000000000000000000000000000000000000000600052601260045260246000fd5b6000613d2a82613371565b9150613d3583613371565b925082613d4557613d44613cf0565b5b828204905092915050565b6000613d5b82613371565b9150613d6683613371565b9250828202613d7481613371565b91508282048414831517613d8b57613d8a613bea565b5b5092915050565b7f496e697469616c697a61626c653a20636f6e747261637420697320616c72656160008201527f647920696e697469616c697a6564000000000000000000000000000000000000602082015250565b6000613dee602e83613c4d565b9150613df982613d92565b604082019050919050565b60006020820190508181036000830152613e1d81613de1565b9050919050565b6000819050919050565b600060ff82169050919050565b6000613e56613e51613e4c84613e24565b6136a9565b613e2e565b9050919050565b613e6681613e3b565b82525050565b6000602082019050613e816000830184613e5d565b92915050565b7f4e487b7100000000000000000000000000000000000000000000000000000000600052603260045260246000fd5b6000613ec182613371565b91507fffffffffffffffffffffffffffffffffffffffffffffffffffffffffffffffff8203613ef357613ef2613bea565b5b600182019050919050565b7f737461747573206e6f7420666f7265636c6f73757261626c6500000000000000600082015250565b6000613f34601983613c4d565b9150613f3f82613efe565b602082019050919050565b60006020820190508181036000830152613f6381613f27565b9050919050565b6000613f7582613371565b9150613f8083613371565b9250828201905080821115613f9857613f97613bea565b5b92915050565b7f70726f706572747956616c756520646f65736e277420636f7665722064656274600082015250565b6000613fd4602083613c4d565b9150613fdf82613f9e565b602082019050919050565b6000602082019050818103600083015261400381613fc7565b9050919050565b600060608201905061401f6000830186613507565b61402c6020830185613507565b6140396040830184613652565b949350505050565b60006080820190506140566000830187613507565b6140636020830186613652565b6140706040830185613652565b61407d6060830184613652565b95945050505050565b600081519050919050565b600081905092915050565b60005b838110156140ba57808201518184015260208101905061409f565b60008484015250505050565b60006140d182614086565b6140db8185614091565b93506140eb81856020860161409c565b80840191505092915050565b600061410382846140c6565b915081905092915050565b7f73746172744c6f616e2064656c656761746543616c6c206661696c6564000000600082015250565b6000614144601d83613c4d565b915061414f8261410e565b602082019050919050565b6000602082019050818103600083015261417381614137565b9050919050565b7f4f776e61626c653a206e6577206f776e657220697320746865207a65726f206160008201527f6464726573730000000000000000000000000000000000000000000000000000602082015250565b60006141d6602683613c4d565b91506141e18261417a565b604082019050919050565b60006020820190508181036000830152614205816141c9565b9050919050565b6000819050919050565b60006142218261420c565b915061422c8361420c565b92508261423c5761423b613cf0565b5b600160000383147f80000000000000000000000000000000000000000000000000000000000000008314161561427557614274613bea565b5b828205905092915050565b6142898161420c565b82525050565b60006020820190506142a46000830184614280565b92915050565b60006142b58261420c565b91506142c08361420c565b92508282039050818112600084121682821360008512151617156142e7576142e6613bea565b5b92915050565b60006143086143036142fe8461420c565b6136a9565b61420c565b9050919050565b614318816142ed565b82525050565b6000604082019050614333600083018561430f565b614340602083018461430f565b9392505050565b600060208201905061435c600083018461430f565b92915050565b600061436d82613371565b9150600082036143805761437f613bea565b5b600182039050919050565b7f4f776e61626c653a2063616c6c6572206973206e6f7420746865206f776e6572600082015250565b60006143c1602083613c4d565b91506143cc8261438b565b602082019050919050565b600060208201905081810360008301526143f0816143b4565b9050919050565b600060408201905061440c6000830185613507565b6144196020830184613652565b9392505050565b60006060820190506144356000830186613652565b6144426020830185613652565b61444f6040830184613652565b949350505050565b600060408201905061446c6000830185613652565b6144796020830184613652565b9392505050565b6144898161344c565b811461449457600080fd5b50565b6000815190506144a681614480565b92915050565b6000602082840312156144c2576144c1613278565b5b60006144d084828501614497565b91505092915050565b7f5361666545524332303a204552433230206f7065726174696f6e20646964206e60008201527f6f74207375636365656400000000000000000000000000000000000000000000602082015250565b6000614535602a83613c4d565b9150614540826144d9565b604082019050919050565b6000602082019050818103600083015261456481614528565b9050919050565b7f416464726573733a20696e73756666696369656e742062616c616e636520666f60008201527f722063616c6c0000000000000000000000000000000000000000000000000000602082015250565b60006145c7602683613c4d565b91506145d28261456b565b604082019050919050565b600060208201905081810360008301526145f6816145ba565b9050919050565b7f416464726573733a2063616c6c20746f206e6f6e2d636f6e7472616374000000600082015250565b6000614633601d83613c4d565b915061463e826145fd565b602082019050919050565b6000602082019050818103600083015261466281614626565b9050919050565b600081519050919050565b600061467f82614669565b6146898185613c4d565b935061469981856020860161409c565b6146a281613287565b840191505092915050565b600060208201905081810360008301526146c78184614674565b90509291505056fea264697066735822122098a1396d44ce3b5a074f7d7b4d956aba2d1eb6b073af1f4db109b531d1106b8b64736f6c63430008130033",
  "linkReferences": {},
  "deployedLinkReferences": {}
}