{
  "_format": "hh-sol-artifact-1",
  "contractName": "AcceptForeclosurable",
  "sourceName": "contracts/protocol/auctions/AcceptForeclosurable.sol",
  "abi": [
    {
      "inputs": [
        {
          "internalType": "uint256",
          "name": "x",
          "type": "uint256"
        },
        {
          "internalType": "uint256",
          "name": "y",
          "type": "uint256"
        }
      ],
      "name": "PRBMath_MulDiv18_Overflow",
      "type": "error"
    },
    {
      "inputs": [
        {
          "internalType": "uint256",
          "name": "x",
          "type": "uint256"
        },
        {
          "internalType": "uint256",
          "name": "y",
          "type": "uint256"
        },
        {
          "internalType": "uint256",
          "name": "denominator",
          "type": "uint256"
        }
      ],
      "name": "PRBMath_MulDiv_Overflow",
      "type": "error"
    },
    {
      "inputs": [
        {
          "internalType": "int256",
          "name": "x",
          "type": "int256"
        }
      ],
      "name": "PRBMath_SD59x18_Convert_Overflow",
      "type": "error"
    },
    {
      "inputs": [
        {
          "internalType": "int256",
          "name": "x",
          "type": "int256"
        }
      ],
      "name": "PRBMath_SD59x18_Convert_Underflow",
      "type": "error"
    },
    {
      "inputs": [
        {
          "internalType": "SD59x18",
          "name": "x",
          "type": "int256"
        }
      ],
      "name": "PRBMath_SD59x18_Exp2_InputTooBig",
      "type": "error"
    },
    {
      "inputs": [
        {
          "internalType": "SD59x18",
          "name": "x",
          "type": "int256"
        }
      ],
      "name": "PRBMath_SD59x18_IntoUD60x18_Underflow",
      "type": "error"
    },
    {
      "inputs": [
        {
          "internalType": "SD59x18",
          "name": "x",
          "type": "int256"
        }
      ],
      "name": "PRBMath_SD59x18_Log_InputTooSmall",
      "type": "error"
    },
    {
      "inputs": [],
      "name": "PRBMath_SD59x18_Mul_InputTooSmall",
      "type": "error"
    },
    {
      "inputs": [
        {
          "internalType": "SD59x18",
          "name": "x",
          "type": "int256"
        },
        {
          "internalType": "SD59x18",
          "name": "y",
          "type": "int256"
        }
      ],
      "name": "PRBMath_SD59x18_Mul_Overflow",
      "type": "error"
    },
    {
      "inputs": [
        {
          "internalType": "uint256",
          "name": "x",
          "type": "uint256"
        }
      ],
      "name": "PRBMath_UD60x18_Convert_Overflow",
      "type": "error"
    },
    {
      "inputs": [
        {
          "internalType": "UD60x18",
          "name": "x",
          "type": "uint256"
        }
      ],
      "name": "PRBMath_UD60x18_IntoSD59x18_Overflow",
      "type": "error"
    },
    {
      "anonymous": false,
      "inputs": [
        {
          "indexed": false,
          "internalType": "uint8",
          "name": "version",
          "type": "uint8"
        }
      ],
      "name": "Initialized",
      "type": "event"
    },
    {
      "anonymous": false,
      "inputs": [
        {
          "indexed": true,
          "internalType": "address",
          "name": "previousOwner",
          "type": "address"
        },
        {
          "indexed": true,
          "internalType": "address",
          "name": "newOwner",
          "type": "address"
        }
      ],
      "name": "OwnershipTransferred",
      "type": "event"
    },
    {
      "inputs": [
        {
          "internalType": "uint256",
          "name": "",
          "type": "uint256"
        }
      ],
      "name": "_loans",
      "outputs": [
        {
          "internalType": "address",
          "name": "borrower",
          "type": "address"
        },
        {
          "internalType": "UD60x18",
          "name": "ratePerSecond",
          "type": "uint256"
        },
        {
          "internalType": "UD60x18",
          "name": "paymentPerSecond",
          "type": "uint256"
        },
        {
          "internalType": "uint256",
          "name": "startTime",
          "type": "uint256"
        },
        {
          "internalType": "uint256",
          "name": "unpaidPrincipal",
          "type": "uint256"
        },
        {
          "internalType": "uint256",
          "name": "maxDurationSeconds",
          "type": "uint256"
        },
        {
          "internalType": "uint256",
          "name": "lastPaymentTime",
          "type": "uint256"
        }
      ],
      "stateMutability": "view",
      "type": "function"
    },
    {
      "inputs": [
        {
          "internalType": "uint256",
          "name": "tokenId",
          "type": "uint256"
        },
        {
          "internalType": "uint256",
          "name": "bidIdx",
          "type": "uint256"
        }
      ],
      "name": "acceptForeclosurableBid",
      "outputs": [],
      "stateMutability": "nonpayable",
      "type": "function"
    },
    {
      "inputs": [
        {
          "internalType": "uint256",
          "name": "tokenId",
          "type": "uint256"
        }
      ],
      "name": "accruedInterest",
      "outputs": [
        {
          "internalType": "uint256",
          "name": "",
          "type": "uint256"
        }
      ],
      "stateMutability": "view",
      "type": "function"
    },
    {
      "inputs": [],
      "name": "availableLiquidity",
      "outputs": [
        {
          "internalType": "uint256",
          "name": "",
          "type": "uint256"
        }
      ],
      "stateMutability": "view",
      "type": "function"
    },
    {
      "inputs": [
        {
          "components": [
            {
              "internalType": "address",
              "name": "bidder",
              "type": "address"
            },
            {
              "internalType": "uint256",
              "name": "propertyValue",
              "type": "uint256"
            },
            {
              "internalType": "uint256",
              "name": "downPayment",
              "type": "uint256"
            },
            {
              "internalType": "uint256",
              "name": "maxDurationMonths",
              "type": "uint256"
            }
          ],
          "internalType": "struct IState.Bid",
          "name": "bid",
          "type": "tuple"
        }
      ],
      "name": "bidActionable",
      "outputs": [
        {
          "internalType": "bool",
          "name": "",
          "type": "bool"
        }
      ],
      "stateMutability": "view",
      "type": "function"
    },
    {
      "inputs": [
        {
          "internalType": "uint256",
          "name": "tokenId",
          "type": "uint256"
        }
      ],
      "name": "bids",
      "outputs": [
        {
          "components": [
            {
              "internalType": "address",
              "name": "bidder",
              "type": "address"
            },
            {
              "internalType": "uint256",
              "name": "propertyValue",
              "type": "uint256"
            },
            {
              "internalType": "uint256",
              "name": "downPayment",
              "type": "uint256"
            },
            {
              "internalType": "uint256",
              "name": "maxDurationMonths",
              "type": "uint256"
            }
          ],
          "internalType": "struct IState.Bid[]",
          "name": "",
          "type": "tuple[]"
        }
      ],
      "stateMutability": "view",
      "type": "function"
    },
    {
      "inputs": [],
      "name": "defaultFeeSpread",
      "outputs": [
        {
          "internalType": "UD60x18",
          "name": "",
          "type": "uint256"
        }
      ],
      "stateMutability": "view",
      "type": "function"
    },
    {
      "inputs": [
        {
          "internalType": "contract tUsdc",
          "name": "_tUSDC",
          "type": "address"
        },
        {
          "internalType": "contract TangibleNft",
          "name": "_prosperaNftContract",
          "type": "address"
        }
      ],
      "name": "initialize",
      "outputs": [],
      "stateMutability": "nonpayable",
      "type": "function"
    },
    {
      "inputs": [
        {
          "components": [
            {
              "internalType": "address",
              "name": "bidder",
              "type": "address"
            },
            {
              "internalType": "uint256",
              "name": "propertyValue",
              "type": "uint256"
            },
            {
              "internalType": "uint256",
              "name": "downPayment",
              "type": "uint256"
            },
            {
              "internalType": "uint256",
              "name": "maxDurationMonths",
              "type": "uint256"
            }
          ],
          "internalType": "struct IState.Bid",
          "name": "_bid",
          "type": "tuple"
        }
      ],
      "name": "loanBidActionable",
      "outputs": [
        {
          "internalType": "bool",
          "name": "",
          "type": "bool"
        }
      ],
      "stateMutability": "view",
      "type": "function"
    },
    {
      "inputs": [
        {
          "internalType": "uint256",
          "name": "tokenId",
          "type": "uint256"
        }
      ],
      "name": "loans",
      "outputs": [
        {
          "components": [
            {
              "internalType": "address",
              "name": "borrower",
              "type": "address"
            },
            {
              "internalType": "UD60x18",
              "name": "ratePerSecond",
              "type": "uint256"
            },
            {
              "internalType": "UD60x18",
              "name": "paymentPerSecond",
              "type": "uint256"
            },
            {
              "internalType": "uint256",
              "name": "startTime",
              "type": "uint256"
            },
            {
              "internalType": "uint256",
              "name": "unpaidPrincipal",
              "type": "uint256"
            },
            {
              "internalType": "uint256",
              "name": "maxDurationSeconds",
              "type": "uint256"
            },
            {
              "internalType": "uint256",
              "name": "lastPaymentTime",
              "type": "uint256"
            }
          ],
          "internalType": "struct IState.Loan",
          "name": "",
          "type": "tuple"
        }
      ],
      "stateMutability": "view",
      "type": "function"
    },
    {
      "inputs": [
        {
          "internalType": "uint256",
          "name": "idx",
          "type": "uint256"
        }
      ],
      "name": "loansTokenIdsAt",
      "outputs": [
        {
          "internalType": "uint256",
          "name": "tokenId",
          "type": "uint256"
        }
      ],
      "stateMutability": "view",
      "type": "function"
    },
    {
      "inputs": [],
      "name": "loansTokenIdsLength",
      "outputs": [
        {
          "internalType": "uint256",
          "name": "",
          "type": "uint256"
        }
      ],
      "stateMutability": "view",
      "type": "function"
    },
    {
      "inputs": [
        {
          "internalType": "bytes4",
          "name": "",
          "type": "bytes4"
        }
      ],
      "name": "logicTargets",
      "outputs": [
        {
          "internalType": "address",
          "name": "",
          "type": "address"
        }
      ],
      "stateMutability": "view",
      "type": "function"
    },
    {
      "inputs": [],
      "name": "maxDurationMonthsCap",
      "outputs": [
        {
          "internalType": "uint256",
          "name": "",
          "type": "uint256"
        }
      ],
      "stateMutability": "view",
      "type": "function"
    },
    {
      "inputs": [],
      "name": "maxLtv",
      "outputs": [
        {
          "internalType": "UD60x18",
          "name": "",
          "type": "uint256"
        }
      ],
      "stateMutability": "view",
      "type": "function"
    },
    {
      "inputs": [],
      "name": "monthSeconds",
      "outputs": [
        {
          "internalType": "uint256",
          "name": "",
          "type": "uint256"
        }
      ],
      "stateMutability": "view",
      "type": "function"
    },
    {
      "inputs": [],
      "name": "optimalUtilization",
      "outputs": [
        {
          "internalType": "UD60x18",
          "name": "",
          "type": "uint256"
        }
      ],
      "stateMutability": "view",
      "type": "function"
    },
    {
      "inputs": [],
      "name": "owner",
      "outputs": [
        {
          "internalType": "address",
          "name": "",
          "type": "address"
        }
      ],
      "stateMutability": "view",
      "type": "function"
    },
    {
      "inputs": [
        {
          "components": [
            {
              "internalType": "address",
              "name": "borrower",
              "type": "address"
            },
            {
              "internalType": "UD60x18",
              "name": "ratePerSecond",
              "type": "uint256"
            },
            {
              "internalType": "UD60x18",
              "name": "paymentPerSecond",
              "type": "uint256"
            },
            {
              "internalType": "uint256",
              "name": "startTime",
              "type": "uint256"
            },
            {
              "internalType": "uint256",
              "name": "unpaidPrincipal",
              "type": "uint256"
            },
            {
              "internalType": "uint256",
              "name": "maxDurationSeconds",
              "type": "uint256"
            },
            {
              "internalType": "uint256",
              "name": "lastPaymentTime",
              "type": "uint256"
            }
          ],
          "internalType": "struct IState.Loan",
          "name": "loan",
          "type": "tuple"
        },
        {
          "internalType": "uint256",
          "name": "month",
          "type": "uint256"
        }
      ],
      "name": "principalCap",
      "outputs": [
        {
          "internalType": "uint256",
          "name": "cap",
          "type": "uint256"
        }
      ],
      "stateMutability": "pure",
      "type": "function"
    },
    {
      "inputs": [],
      "name": "redemptionFeeSpread",
      "outputs": [
        {
          "internalType": "UD60x18",
          "name": "",
          "type": "uint256"
        }
      ],
      "stateMutability": "view",
      "type": "function"
    },
    {
      "inputs": [],
      "name": "renounceOwnership",
      "outputs": [],
      "stateMutability": "nonpayable",
      "type": "function"
    },
    {
      "inputs": [
        {
          "internalType": "bytes4[]",
          "name": "selectorsArr",
          "type": "bytes4[]"
        },
        {
          "internalType": "address",
          "name": "target",
          "type": "address"
        }
      ],
      "name": "setSelectorsTarget",
      "outputs": [],
      "stateMutability": "nonpayable",
      "type": "function"
    },
    {
      "inputs": [
        {
          "internalType": "uint256",
          "name": "tokenId",
          "type": "uint256"
        }
      ],
      "name": "status",
      "outputs": [
        {
          "internalType": "enum IState.Status",
          "name": "",
          "type": "uint8"
        }
      ],
      "stateMutability": "view",
      "type": "function"
    },
    {
      "inputs": [
        {
          "internalType": "uint256",
          "name": "tokenId",
          "type": "uint256"
        }
      ],
      "name": "tokenIdBidsLength",
      "outputs": [
        {
          "internalType": "uint256",
          "name": "",
          "type": "uint256"
        }
      ],
      "stateMutability": "view",
      "type": "function"
    },
    {
      "inputs": [],
      "name": "totalDeposits",
      "outputs": [
        {
          "internalType": "uint256",
          "name": "",
          "type": "uint256"
        }
      ],
      "stateMutability": "view",
      "type": "function"
    },
    {
      "inputs": [],
      "name": "totalPrincipal",
      "outputs": [
        {
          "internalType": "uint256",
          "name": "",
          "type": "uint256"
        }
      ],
      "stateMutability": "view",
      "type": "function"
    },
    {
      "inputs": [
        {
          "internalType": "address",
          "name": "newOwner",
          "type": "address"
        }
      ],
      "name": "transferOwnership",
      "outputs": [],
      "stateMutability": "nonpayable",
      "type": "function"
    },
    {
      "inputs": [],
      "name": "yearMonths",
      "outputs": [
        {
          "internalType": "uint256",
          "name": "",
          "type": "uint256"
        }
      ],
      "stateMutability": "view",
      "type": "function"
    },
    {
      "inputs": [],
      "name": "yearSeconds",
      "outputs": [
        {
          "internalType": "uint256",
          "name": "",
          "type": "uint256"
        }
      ],
      "stateMutability": "view",
      "type": "function"
    }
  ],
  "bytecode": "0x608060405273a0b86991c6218b36c1d19d4a2e9eb0ce3606eb486002806101000a81548173ffffffffffffffffffffffffffffffffffffffff021916908373ffffffffffffffffffffffffffffffffffffffff1602179055506200008f6200006e60646200027d60201b60201c565b62000080605a6200027d60201b60201c565b6200030e60201b90919060201c565b600755620000c9620000a860646200027d60201b60201c565b620000ba60046200027d60201b60201c565b6200030e60201b90919060201c565b60085562000103620000e260646200027d60201b60201c565b620000f460036200027d60201b60201c565b6200030e60201b90919060201c565b6009556200011860096200027d60201b60201c565b600a55620001526200013160646200027d60201b60201c565b6200014360016200027d60201b60201c565b6200030e60201b90919060201c565b600b556200018c6200016b60646200027d60201b60201c565b6200017d60026200027d60201b60201c565b6200030e60201b90919060201c565b600c55620001c6620001a560646200027d60201b60201c565b620001b760036200027d60201b60201c565b6200030e60201b90919060201c565b600d5562000200620001df60646200027d60201b60201c565b620001f160046200027d60201b60201c565b6200030e60201b90919060201c565b600e55623b5380601455620002416200022060646200027d60201b60201c565b6200023260326200027d60201b60201c565b6200030e60201b90919060201c565b60155560786016553480156200025657600080fd5b50620002776200026b6200036360201b60201c565b6200036b60201b60201c565b62000641565b6000670de0b6b3a76400007fffffffffffffffffffffffffffffffffffffffffffffffffffffffffffffffff620002b591906200059e565b821115620002fc57816040517f1cd951a7000000000000000000000000000000000000000000000000000000008152600401620002f39190620005e7565b60405180910390fd5b670de0b6b3a764000082029050919050565b60006200035b6200034f62000329856200042f60201b60201c565b670de0b6b3a764000062000343866200042f60201b60201c565b6200043960201b60201c565b6200055b60201b60201c565b905092915050565b600033905090565b60008060009054906101000a900473ffffffffffffffffffffffffffffffffffffffff169050816000806101000a81548173ffffffffffffffffffffffffffffffffffffffff021916908373ffffffffffffffffffffffffffffffffffffffff1602179055508173ffffffffffffffffffffffffffffffffffffffff168173ffffffffffffffffffffffffffffffffffffffff167f8be0079c531659141344cd1fd0a4f28419497f9722a3daafe3b4186f6b6457e060405160405180910390a35050565b6000819050919050565b600080600080198587098587029250828110838203039150506000810362000479578382816200046e576200046d6200056f565b5b049250505062000554565b838110620004c4578585856040517f63a05778000000000000000000000000000000000000000000000000000000008152600401620004bb9392919062000604565b60405180910390fd5b60008486880990508281118203915080830392506000600186190186169050600081870496508185049450600182836000030401905080840285179450600060028860030218905080880260020381029050808802600203810290508088026002038102905080880260020381029050808802600203810290508088026002038102905080860296505050505050505b9392505050565b6000819050919050565b6000819050919050565b7f4e487b7100000000000000000000000000000000000000000000000000000000600052601260045260246000fd5b6000620005ab8262000565565b9150620005b88362000565565b925082620005cb57620005ca6200056f565b5b828204905092915050565b620005e18162000565565b82525050565b6000602082019050620005fe6000830184620005d6565b92915050565b60006060820190506200061b6000830186620005d6565b6200062a6020830185620005d6565b620006396040830184620005d6565b949350505050565b614aed80620006516000396000f3fe608060405234801561001057600080fd5b50600436106101cf5760003560e01c806374bdf96a11610104578063ab01f7e1116100a2578063e343504411610071578063e343504414610578578063e77afe5e14610594578063f2fde38b146105b0578063ff9ad6df146105cc576101cf565b8063ab01f7e1146104c4578063bcff3e3b146104e2578063bd5c569b14610512578063e1ec3c6814610548576101cf565b806387ae0dbe116100de57806387ae0dbe1461043a5780638da5cb5b14610458578063a0024c2f14610476578063a54cab1c146104a6576101cf565b806374bdf96a146103ce5780637d882097146103fe578063812cf0181461041c576101cf565b80634423c5f1116101715780634b1533b21161014b5780634b1533b21461036a5780636290cd1c14610388578063715018a6146103a657806374375359146103b0576101cf565b80634423c5f114610300578063485cc955146103305780634abb30031461034c576101cf565b80632da10923116101ad5780632da10923146102645780633a12c6da146102945780633ca36db6146102b257806342d21ef7146102d0576101cf565b80630a9cc0b6146101d457806317548b79146102045780631cc03c8714610234575b600080fd5b6101ee60048036038101906101e99190613807565b6105ea565b6040516101fb919061384f565b60405180910390f35b61021e600480360381019061021991906138c2565b61065f565b60405161022b91906138fe565b60405180910390f35b61024e600480360381019061024991906139f9565b610692565b60405161025b9190613a49565b60405180910390f35b61027e60048036038101906102799190613a64565b6107f4565b60405161028b9190613a49565b60405180910390f35b61029c610814565b6040516102a99190613acc565b60405180910390f35b6102ba61081a565b6040516102c79190613acc565b60405180910390f35b6102ea60048036038101906102e59190613a64565b610824565b6040516102f79190613b5e565b60405180910390f35b61031a60048036038101906103159190613a64565b61096b565b6040516103279190613c9b565b60405180910390f35b61034a60048036038101906103459190613d39565b610a51565b005b610354610c12565b6040516103619190613acc565b60405180910390f35b610372610c1c565b60405161037f9190613a49565b60405180910390f35b610390610c22565b60405161039d9190613acc565b60405180910390f35b6103ae610c28565b005b6103b8610c3c565b6040516103c59190613a49565b60405180910390f35b6103e860048036038101906103e39190613a64565b610c53565b6040516103f59190613a49565b60405180910390f35b610406610c70565b6040516104139190613a49565b60405180910390f35b610424610c76565b6040516104319190613a49565b60405180910390f35b610442610c7b565b60405161044f9190613a49565b60405180910390f35b610460610c83565b60405161046d91906138fe565b60405180910390f35b610490600480360381019061048b9190613807565b610cac565b60405161049d919061384f565b60405180910390f35b6104ae610cd0565b6040516104bb9190613a49565b60405180910390f35b6104cc610cd6565b6040516104d99190613a49565b60405180910390f35b6104fc60048036038101906104f79190613a64565b610ce7565b6040516105099190613a49565b60405180910390f35b61052c60048036038101906105279190613a64565b610da8565b60405161053f9796959493929190613d79565b60405180910390f35b610562600480360381019061055d9190613a64565b610e0a565b60405161056f9190613e85565b60405180910390f35b610592600480360381019061058d9190613f05565b610ec9565b005b6105ae60048036038101906105a99190613f65565b610faf565b005b6105ca60048036038101906105c59190613fa5565b611897565b005b6105d461191a565b6040516105e19190613a49565b60405180910390f35b600080826040015183602001516106019190614001565b9050600061062c610615856020015161192e565b61061e8461192e565b6119ba90919063ffffffff16565b9050610643601554826119ef90919063ffffffff16565b80156106565750610652610c3c565b8211155b92505050919050565b60016020528060005260406000206000915054906101000a900473ffffffffffffffffffffffffffffffffffffffff1681565b600061069d83611a0d565b8211156106df576040517f08c379a00000000000000000000000000000000000000000000000000000000081526004016106d6906140b8565b60405180910390fd5b6000600c6301e133806106f29190614107565b836106fd9190614138565b9050600061074361070e6001611a36565b61073561071e8860a00151611a36565b61072786611a36565b611b3a90919063ffffffff16565b611b3a90919063ffffffff16565b9050600061079c610784836107766107718a60200151610763600161192e565b611b6890919063ffffffff16565b611b96565b611c0a90919063ffffffff16565b61078e6001611a36565b611b3a90919063ffffffff16565b905060006107c76107c2836107b48a60400151611b96565b611cc890919063ffffffff16565b611e58565b90506107e86107e38860200151836119ba90919063ffffffff16565b611ead565b94505050505092915050565b6000600f6000838152602001908152602001600020805490509050919050565b60155481565b6000600d54905090565b600080601060008481526020019081526020016000206040518060e00160405290816000820160009054906101000a900473ffffffffffffffffffffffffffffffffffffffff1673ffffffffffffffffffffffffffffffffffffffff1673ffffffffffffffffffffffffffffffffffffffff16815260200160018201548152602001600282015481526020016003820154815260200160048201548152602001600582015481526020016006820154815250509050600073ffffffffffffffffffffffffffffffffffffffff16816000015173ffffffffffffffffffffffffffffffffffffffff160361091b576000915050610966565b61092483611eca565b1561096057600061093482611fdf565b4261093f9190614001565b9050601454811161095557600292505050610966565b600392505050610966565b60019150505b919050565b6060600f6000838152602001908152602001600020805480602002602001604051908101604052809291908181526020016000905b82821015610a4657838290600052602060002090600402016040518060800160405290816000820160009054906101000a900473ffffffffffffffffffffffffffffffffffffffff1673ffffffffffffffffffffffffffffffffffffffff1673ffffffffffffffffffffffffffffffffffffffff1681526020016001820154815260200160028201548152602001600382015481525050815260200190600101906109a0565b505050509050919050565b6000600260019054906101000a900460ff16159050808015610a8557506001600260009054906101000a900460ff1660ff16105b80610ab45750610a943061208a565b158015610ab357506001600260009054906101000a900460ff1660ff16145b5b610af3576040517f08c379a0000000000000000000000000000000000000000000000000000000008152600401610aea906141ec565b60405180910390fd5b6001600260006101000a81548160ff021916908360ff1602179055508015610b31576001600260016101000a81548160ff0219169083151502179055505b82600360006101000a81548173ffffffffffffffffffffffffffffffffffffffff021916908373ffffffffffffffffffffffffffffffffffffffff16021790555081600460006101000a81548173ffffffffffffffffffffffffffffffffffffffff021916908373ffffffffffffffffffffffffffffffffffffffff1602179055508015610c0d576000600260016101000a81548160ff0219169083151502179055507f7f26b83ff96e1f2b6a682f133852f6798a09c465da95921460cefb38474024986001604051610c049190614254565b60405180910390a15b505050565b6000600e54905090565b60055481565b60075481565b610c306120ad565b610c3a600061212b565b565b6000600554600654610c4e9190614001565b905090565b6000610c698260116121ef90919063ffffffff16565b9050919050565b60065481565b600c81565b6301e1338081565b60008060009054906101000a900473ffffffffffffffffffffffffffffffffffffffff16905090565b6000816040015182602001511480610cc95750610cc8826105ea565b5b9050919050565b60165481565b6000610ce26011612209565b905090565b6000610da1601060008481526020019081526020016000206040518060e00160405290816000820160009054906101000a900473ffffffffffffffffffffffffffffffffffffffff1673ffffffffffffffffffffffffffffffffffffffff1673ffffffffffffffffffffffffffffffffffffffff168152602001600182015481526020016002820154815260200160038201548152602001600482015481526020016005820154815260200160068201548152505061221e565b9050919050565b60106020528060005260406000206000915090508060000160009054906101000a900473ffffffffffffffffffffffffffffffffffffffff16908060010154908060020154908060030154908060040154908060050154908060060154905087565b610e12613603565b601060008381526020019081526020016000206040518060e00160405290816000820160009054906101000a900473ffffffffffffffffffffffffffffffffffffffff1673ffffffffffffffffffffffffffffffffffffffff1673ffffffffffffffffffffffffffffffffffffffff16815260200160018201548152602001600282015481526020016003820154815260200160048201548152602001600582015481526020016006820154815250509050919050565b610ed16120ad565b60005b83839050811015610fa9578160016000868685818110610ef757610ef661426f565b5b9050602002016020810190610f0c91906138c2565b7bffffffffffffffffffffffffffffffffffffffffffffffffffffffff19167bffffffffffffffffffffffffffffffffffffffffffffffffffffffff1916815260200190815260200160002060006101000a81548173ffffffffffffffffffffffffffffffffffffffff021916908373ffffffffffffffffffffffffffffffffffffffff1602179055508080610fa19061429e565b915050610ed4565b50505050565b610fed6040518060400160405280600481526020017f6166623100000000000000000000000000000000000000000000000000000000815250612256565b6000601060008481526020019081526020016000206040518060e00160405290816000820160009054906101000a900473ffffffffffffffffffffffffffffffffffffffff1673ffffffffffffffffffffffffffffffffffffffff1673ffffffffffffffffffffffffffffffffffffffff168152602001600182015481526020016002820154815260200160038201548152602001600482015481526020016005820154815260200160068201548152505090506110df6040518060400160405280600481526020017f6166623200000000000000000000000000000000000000000000000000000000815250612256565b6003808111156110f2576110f1613ae7565b5b6110fb84610824565b600381111561110d5761110c613ae7565b5b1461114d576040517f08c379a000000000000000000000000000000000000000000000000000000000815260040161114490614332565b60405180910390fd5b61118b6040518060400160405280600481526020017f6166623300000000000000000000000000000000000000000000000000000000815250612256565b6000600f600085815260200190815260200160002083815481106111b2576111b161426f565b5b90600052602060002090600402016040518060800160405290816000820160009054906101000a900473ffffffffffffffffffffffffffffffffffffffff1673ffffffffffffffffffffffffffffffffffffffff1673ffffffffffffffffffffffffffffffffffffffff1681526020016001820154815260200160028201548152602001600382015481525050905061127f6040518060400160405280600481526020017f6166623400000000000000000000000000000000000000000000000000000000815250612256565b60006112aa6112a5600b54611297856020015161192e565b6122ef90919063ffffffff16565b611ead565b905060006112d76112d2600e546112c4866020015161192e565b6122ef90919063ffffffff16565b611ead565b90506113176040518060400160405280600481526020017f6166623500000000000000000000000000000000000000000000000000000000815250612256565b80826113239190614352565b601360008282546113349190614352565b925050819055506113796040518060400160405280600481526020017f6166623600000000000000000000000000000000000000000000000000000000815250612256565b6113b76040518060400160405280600481526020017f6166623700000000000000000000000000000000000000000000000000000000815250612256565b60006113c287610ce7565b90506114026040518060400160405280600481526020017f6166623800000000000000000000000000000000000000000000000000000000815250612256565b8460800151600560008282546114189190614001565b9250508190555080600660008282546114319190614352565b925050819055506114766040518060400160405280600481526020017f6166623900000000000000000000000000000000000000000000000000000000815250612256565b6000828483886080015161148a9190614352565b6114949190614352565b61149e9190614352565b90506114de6040518060400160405280600581526020017f6166623130000000000000000000000000000000000000000000000000000000815250612256565b8085602001511015611525576040517f08c379a000000000000000000000000000000000000000000000000000000000815260040161151c906143d2565b60405180910390fd5b6115636040518060400160405280600581526020017f6166623131000000000000000000000000000000000000000000000000000000815250612256565b60008186602001516115759190614001565b90506115b56040518060400160405280600581526020017f6166623132000000000000000000000000000000000000000000000000000000815250612256565b61160487600001518260028054906101000a900473ffffffffffffffffffffffffffffffffffffffff1673ffffffffffffffffffffffffffffffffffffffff1661231b9092919063ffffffff16565b6116426040518060400160405280600581526020017f6166623133000000000000000000000000000000000000000000000000000000815250612256565b85604001518660200151036116eb57600460009054906101000a900473ffffffffffffffffffffffffffffffffffffffff1673ffffffffffffffffffffffffffffffffffffffff166342842e0e3088600001518c6040518463ffffffff1660e01b81526004016116b4939291906143f2565b600060405180830381600087803b1580156116ce57600080fd5b505af11580156116e2573d6000803e3d6000fd5b5050505061188c565b6000866040015187602001516117019190614001565b9050600060016000630feee81e60e01b7bffffffffffffffffffffffffffffffffffffffffffffffffffffffff19167bffffffffffffffffffffffffffffffffffffffffffffffffffffffff1916815260200190815260200160002060009054906101000a900473ffffffffffffffffffffffffffffffffffffffff1673ffffffffffffffffffffffffffffffffffffffff1688600001518c848b606001516040516024016117b39493929190614429565b604051602081830303815290604052630feee81e60e01b6020820180517bffffffffffffffffffffffffffffffffffffffffffffffffffffffff838183161783525050505060405161180591906144df565b600060405180830381855af49150503d8060008114611840576040519150601f19603f3d011682016040523d82523d6000602084013e611845565b606091505b5050905080611889576040517f08c379a000000000000000000000000000000000000000000000000000000000815260040161188090614542565b60405180910390fd5b50505b505050505050505050565b61189f6120ad565b600073ffffffffffffffffffffffffffffffffffffffff168173ffffffffffffffffffffffffffffffffffffffff160361190e576040517f08c379a0000000000000000000000000000000000000000000000000000000008152600401611905906145d4565b60405180910390fd5b6119178161212b565b50565b600c6301e1338061192b9190614107565b81565b6000670de0b6b3a76400007fffffffffffffffffffffffffffffffffffffffffffffffffffffffffffffffff6119649190614107565b8211156119a857816040517f1cd951a700000000000000000000000000000000000000000000000000000000815260040161199f9190613a49565b60405180910390fd5b670de0b6b3a764000082029050919050565b60006119e76119e26119cb856123a1565b670de0b6b3a76400006119dd866123a1565b6123ab565b6124c5565b905092915050565b60006119fa826123a1565b611a03846123a1565b1115905092915050565b60006301e133808260a00151600c611a259190614138565b611a2f9190614107565b9050919050565b6000670de0b6b3a76400007f8000000000000000000000000000000000000000000000000000000000000000611a6c91906145fe565b821215611ab057816040517f99474eeb000000000000000000000000000000000000000000000000000000008152600401611aa79190614677565b60405180910390fd5b670de0b6b3a76400007f7fffffffffffffffffffffffffffffffffffffffffffffffffffffffffffffff611ae491906145fe565b821315611b2857816040517f9d581091000000000000000000000000000000000000000000000000000000008152600401611b1f9190614677565b60405180910390fd5b670de0b6b3a764000082029050919050565b6000611b60611b48836124cf565b611b51856124cf565b611b5b9190614692565b6124d9565b905092915050565b6000611b8e611b76836123a1565b611b7f856123a1565b611b899190614352565b6124c5565b905092915050565b6000808290507f7fffffffffffffffffffffffffffffffffffffffffffffffffffffffffffffff811115611c0157826040517ff4618684000000000000000000000000000000000000000000000000000000008152600401611bf89190613acc565b60405180910390fd5b80915050919050565b600080611c16846124cf565b90506000611c23846124cf565b905060008203611c4f5760008114611c3c576000611c46565b670de0b6b3a76400005b92505050611cc2565b670de0b6b3a76400008203611c7057670de0b6b3a764000092505050611cc2565b60008103611c8a57670de0b6b3a764000092505050611cc2565b670de0b6b3a76400008103611ca3578492505050611cc2565b611cbd611cb8611cb2876124e3565b86611cc8565b612676565b925050505b92915050565b600080611cd4846124cf565b90506000611ce1846124cf565b90507f8000000000000000000000000000000000000000000000000000000000000000821480611d3057507f800000000000000000000000000000000000000000000000000000000000000081145b15611d67576040517fa6070c2500000000000000000000000000000000000000000000000000000000815260040160405180910390fd5b60008060008412611d785783611d7d565b836000035b915060008312611d8d5782611d92565b826000035b90506000611da08383612794565b90507f7fffffffffffffffffffffffffffffffffffffffffffffffffffffffffffffff811115611e095787876040517f120b5b43000000000000000000000000000000000000000000000000000000008152600401611e00929190614706565b60405180910390fd5b60007fffffffffffffffffffffffffffffffffffffffffffffffffffffffffffffffff858718139050611e4a81611e435782600003611e45565b825b6124d9565b965050505050505092915050565b6000808290506000811215611ea457826040517fbba41a15000000000000000000000000000000000000000000000000000000008152600401611e9b919061472f565b60405180910390fd5b80915050919050565b6000670de0b6b3a764000082611ec39190614107565b9050919050565b600080601060008481526020019081526020016000206040518060e00160405290816000820160009054906101000a900473ffffffffffffffffffffffffffffffffffffffff1673ffffffffffffffffffffffffffffffffffffffff1673ffffffffffffffffffffffffffffffffffffffff168152602001600182015481526020016002820154815260200160038201548152602001600482015481526020016005820154815260200160068201548152505090506000611f8a8261287e565b90506000600c6301e133808460a00151611fa49190614107565b611fae9190614138565b905080821115611fc45760019350505050611fda565b611fce8383610692565b83608001511193505050505b919050565b600080611feb8361287e565b905060008190505b60008111156120835760006120088583610692565b905060006120228660018561201d9190614001565b610692565b905081866080015111801561203b575080866080015111155b1561206e57600c6301e133806120519190614107565b8361205c9190614138565b866060015161206b9190614352565b94505b5050808061207b9061474a565b915050611ff3565b5050919050565b6000808273ffffffffffffffffffffffffffffffffffffffff163b119050919050565b6120b56128d3565b73ffffffffffffffffffffffffffffffffffffffff166120d3610c83565b73ffffffffffffffffffffffffffffffffffffffff1614612129576040517f08c379a0000000000000000000000000000000000000000000000000000000008152600401612120906147bf565b60405180910390fd5b565b60008060009054906101000a900473ffffffffffffffffffffffffffffffffffffffff169050816000806101000a81548173ffffffffffffffffffffffffffffffffffffffff021916908373ffffffffffffffffffffffffffffffffffffffff1602179055508173ffffffffffffffffffffffffffffffffffffffff168173ffffffffffffffffffffffffffffffffffffffff167f8be0079c531659141344cd1fd0a4f28419497f9722a3daafe3b4186f6b6457e060405160405180910390a35050565b60006121fe83600001836128db565b60001c905092915050565b600061221782600001612906565b9050919050565b600061224f61224a61222f84612917565b61223c856080015161192e565b6122ef90919063ffffffff16565b611ead565b9050919050565b6122ec8160405160240161226a9190614823565b6040516020818303038152906040527f41304fac000000000000000000000000000000000000000000000000000000007bffffffffffffffffffffffffffffffffffffffffffffffffffffffff19166020820180517bffffffffffffffffffffffffffffffffffffffffffffffffffffffff8381831617835250505050612947565b50565b600061231361230e612300856123a1565b612309856123a1565b612794565b6124c5565b905092915050565b61239c8363a9059cbb60e01b848460405160240161233a929190614845565b604051602081830303815290604052907bffffffffffffffffffffffffffffffffffffffffffffffffffffffff19166020820180517bffffffffffffffffffffffffffffffffffffffffffffffffffffffff8381831617835250505050612970565b505050565b6000819050919050565b60008060008019858709858702925082811083820303915050600081036123e6578382816123dc576123db6140d8565b5b04925050506124be565b83811061242e578585856040517f63a057780000000000000000000000000000000000000000000000000000000081526004016124259392919061486e565b60405180910390fd5b60008486880990508281118203915080830392506000600186190186169050600081870496508185049450600182836000030401905080840285179450600060028860030218905080880260020381029050808802600203810290508088026002038102905080880260020381029050808802600203810290508088026002038102905080860296505050505050505b9392505050565b6000819050919050565b6000819050919050565b6000819050919050565b6000806124ef836124cf565b90506000811361253657826040517f059b101b00000000000000000000000000000000000000000000000000000000815260040161252d919061472f565b60405180910390fd5b6000670de0b6b3a764000082126125505760019050612596565b7fffffffffffffffffffffffffffffffffffffffffffffffffffffffffffffffff9050816ec097ce7bc90715b34b9f100000000081612592576125916140d8565b5b0591505b60006125b9670de0b6b3a764000084816125b3576125b26140d8565b5b05612a37565b90506000670de0b6b3a76400008202905060008285901d9050670de0b6b3a764000081036125f8576125ec8483026124d9565b95505050505050612671565b6000671bc16d674ec80000905060006706f05b59d3b2000090505b600081131561265957670de0b6b3a764000083840281612636576126356140d8565b5b05925081831261264d578084019350600183901d92505b600181901d9050612613565b508483029250612668836124d9565b96505050505050505b919050565b600080612682836124cf565b90506000811215612709577ffffffffffffffffffffffffffffffffffffffffffffffffcc22e87f6eb468eeb8112156126bf57600091505061278f565b6127026126de6126d96126d4846000036124d9565b612676565b6124cf565b6ec097ce7bc90715b34b9f1000000000816126fc576126fb6140d8565b5b056124d9565b915061278d565b680a688906bd8affffff81131561275757826040517f0360d02800000000000000000000000000000000000000000000000000000000815260040161274e919061472f565b60405180910390fd5b6000670de0b6b3a7640000604083901b81612775576127746140d8565b5b05905061278961278482612ae0565b6124d9565b9250505b505b919050565b60008060008019848609848602925082811083820303915050600081036127d757670de0b6b3a764000082816127cd576127cc6140d8565b5b0492505050612878565b670de0b6b3a764000081106128255784846040517f5173648d00000000000000000000000000000000000000000000000000000000815260040161281c9291906148a5565b60405180910390fd5b6000670de0b6b3a764000085870990507faccb18165bd6fe31ae1cf318dc5b51eee0e1ba569b88cd74c1773b91fac106696001620400008060000304018483118403026204000083860304170293505050505b92915050565b600080600c6301e133806128929190614107565b8360600151426128a29190614001565b6128ac9190614107565b905060006128b984611a0d565b90508082116128c857816128ca565b805b92505050919050565b600033905090565b60008260000182815481106128f3576128f261426f565b5b9060005260206000200154905092915050565b600081600001805490509050919050565b600061294061292d61292884613440565b61192e565b83602001516122ef90919063ffffffff16565b9050919050565b60008151905060006a636f6e736f6c652e6c6f679050602083016000808483855afa5050505050565b60006129d2826040518060400160405280602081526020017f5361666545524332303a206c6f772d6c6576656c2063616c6c206661696c65648152508573ffffffffffffffffffffffffffffffffffffffff166134599092919063ffffffff16565b9050600081511115612a3257808060200190518101906129f291906148fa565b612a31576040517f08c379a0000000000000000000000000000000000000000000000000000000008152600401612a2890614999565b60405180910390fd5b5b505050565b60006fffffffffffffffffffffffffffffffff821160071b82811c925080821791505067ffffffffffffffff821160061b82811c925080821791505063ffffffff821160051b82811c925080821791505061ffff821160041b82811c925080821791505060ff821160031b82811c9250808217915050600f821160021b82811c92508082179150506003821160011b82811c925080821791505060018211808217915050919050565b6000778000000000000000000000000000000000000000000000009050600067ff0000000000000083161115612c4157600067800000000000000083161115612b3657604068016a09e667f3bcc9098202901c90505b600067400000000000000083161115612b5c5760406801306fe0a31b7152df8202901c90505b600067200000000000000083161115612b825760406801172b83c7d517adce8202901c90505b600067100000000000000083161115612ba857604068010b5586cf9890f62a8202901c90505b600067080000000000000083161115612bce5760406801059b0d31585743ae8202901c90505b600067040000000000000083161115612bf4576040680102c9a3e778060ee78202901c90505b600067020000000000000083161115612c1a57604068010163da9fb33356d88202901c90505b600067010000000000000083161115612c40576040680100b1afa5abcbed618202901c90505b5b600066ff00000000000083161115612d7c576000668000000000000083161115612c7857604068010058c86da1c09ea28202901c90505b6000664000000000000083161115612c9d5760406801002c605e2e8cec508202901c90505b6000662000000000000083161115612cc2576040680100162f3904051fa18202901c90505b6000661000000000000083161115612ce75760406801000b175effdc76ba8202901c90505b6000660800000000000083161115612d0c576040680100058ba01fb9f96d8202901c90505b6000660400000000000083161115612d3157604068010002c5cc37da94928202901c90505b6000660200000000000083161115612d565760406801000162e525ee05478202901c90505b6000660100000000000083161115612d7b57604068010000b17255775c048202901c90505b5b600065ff000000000083161115612eae5760006580000000000083161115612db15760406801000058b91b5bc9ae8202901c90505b60006540000000000083161115612dd5576040680100002c5c89d5ec6d8202901c90505b60006520000000000083161115612df957604068010000162e43f4f8318202901c90505b60006510000000000083161115612e1d576040680100000b1721bcfc9a8202901c90505b60006508000000000083161115612e4157604068010000058b90cf1e6e8202901c90505b60006504000000000083161115612e655760406801000002c5c863b73f8202901c90505b60006502000000000083161115612e89576040680100000162e430e5a28202901c90505b60006501000000000083161115612ead5760406801000000b1721835518202901c90505b5b600064ff0000000083161115612fd757600064800000000083161115612ee1576040680100000058b90c0b498202901c90505b600064400000000083161115612f0457604068010000002c5c8601cc8202901c90505b600064200000000083161115612f275760406801000000162e42fff08202901c90505b600064100000000083161115612f4a57604068010000000b17217fbb8202901c90505b600064080000000083161115612f6d5760406801000000058b90bfce8202901c90505b600064040000000083161115612f90576040680100000002c5c85fe38202901c90505b600064020000000083161115612fb357604068010000000162e42ff18202901c90505b600064010000000083161115612fd6576040680100000000b17217f88202901c90505b5b600063ff000000831611156130f757600063800000008316111561300857604068010000000058b90bfc8202901c90505b600063400000008316111561302a5760406801000000002c5c85fe8202901c90505b600063200000008316111561304c576040680100000000162e42ff8202901c90505b600063100000008316111561306e5760406801000000000b17217f8202901c90505b6000630800000083161115613090576040680100000000058b90c08202901c90505b60006304000000831611156130b257604068010000000002c5c8608202901c90505b60006302000000831611156130d45760406801000000000162e4308202901c90505b60006301000000831611156130f657604068010000000000b172188202901c90505b5b600062ff00008316111561320e57600062800000831611156131265760406801000000000058b90c8202901c90505b60006240000083161115613147576040680100000000002c5c868202901c90505b6000622000008316111561316857604068010000000000162e438202901c90505b60006210000083161115613189576040680100000000000b17218202901c90505b600062080000831611156131aa57604068010000000000058b918202901c90505b600062040000831611156131cb5760406801000000000002c5c88202901c90505b600062020000831611156131ec576040680100000000000162e48202901c90505b6000620100008316111561320d5760406801000000000000b1728202901c90505b5b600061ff008316111561331c5760006180008316111561323b576040680100000000000058b98202901c90505b60006140008316111561325b57604068010000000000002c5d8202901c90505b60006120008316111561327b5760406801000000000000162e8202901c90505b60006110008316111561329b57604068010000000000000b178202901c90505b6000610800831611156132bb5760406801000000000000058c8202901c90505b6000610400831611156132db576040680100000000000002c68202901c90505b6000610200831611156132fb576040680100000000000001638202901c90505b60006101008316111561331b576040680100000000000000b18202901c90505b5b600060ff83161115613421576000608083161115613347576040680100000000000000598202901c90505b60006040831611156133665760406801000000000000002c8202901c90505b6000602083161115613385576040680100000000000000168202901c90505b60006010831611156133a45760406801000000000000000b8202901c90505b60006008831611156133c3576040680100000000000000068202901c90505b60006004831611156133e2576040680100000000000000038202901c90505b6000600283161115613401576040680100000000000000018202901c90505b6000600183161115613420576040680100000000000000018202901c90505b5b670de0b6b3a764000081029050604082901c60bf0381901c9050919050565b60008160c00151426134529190614001565b9050919050565b60606134688484600085613471565b90509392505050565b6060824710156134b6576040517f08c379a00000000000000000000000000000000000000000000000000000000081526004016134ad90614a2b565b60405180910390fd5b6000808673ffffffffffffffffffffffffffffffffffffffff1685876040516134df91906144df565b60006040518083038185875af1925050503d806000811461351c576040519150601f19603f3d011682016040523d82523d6000602084013e613521565b606091505b50915091506135328783838761353e565b92505050949350505050565b606083156135a0576000835103613598576135588561208a565b613597576040517f08c379a000000000000000000000000000000000000000000000000000000000815260040161358e90614a97565b60405180910390fd5b5b8290506135ab565b6135aa83836135b3565b5b949350505050565b6000825111156135c65781518083602001fd5b806040517f08c379a00000000000000000000000000000000000000000000000000000000081526004016135fa9190614823565b60405180910390fd5b6040518060e00160405280600073ffffffffffffffffffffffffffffffffffffffff1681526020016000815260200160008152602001600081526020016000815260200160008152602001600081525090565b6000604051905090565b600080fd5b600080fd5b600080fd5b6000601f19601f8301169050919050565b7f4e487b7100000000000000000000000000000000000000000000000000000000600052604160045260246000fd5b6136b88261366f565b810181811067ffffffffffffffff821117156136d7576136d6613680565b5b80604052505050565b60006136ea613656565b90506136f682826136af565b919050565b600073ffffffffffffffffffffffffffffffffffffffff82169050919050565b6000613726826136fb565b9050919050565b6137368161371b565b811461374157600080fd5b50565b6000813590506137538161372d565b92915050565b6000819050919050565b61376c81613759565b811461377757600080fd5b50565b60008135905061378981613763565b92915050565b6000608082840312156137a5576137a461366a565b5b6137af60806136e0565b905060006137bf84828501613744565b60008301525060206137d38482850161377a565b60208301525060406137e78482850161377a565b60408301525060606137fb8482850161377a565b60608301525092915050565b60006080828403121561381d5761381c613660565b5b600061382b8482850161378f565b91505092915050565b60008115159050919050565b61384981613834565b82525050565b60006020820190506138646000830184613840565b92915050565b60007fffffffff0000000000000000000000000000000000000000000000000000000082169050919050565b61389f8161386a565b81146138aa57600080fd5b50565b6000813590506138bc81613896565b92915050565b6000602082840312156138d8576138d7613660565b5b60006138e6848285016138ad565b91505092915050565b6138f88161371b565b82525050565b600060208201905061391360008301846138ef565b92915050565b61392281613759565b811461392d57600080fd5b50565b60008135905061393f81613919565b92915050565b600060e0828403121561395b5761395a61366a565b5b61396560e06136e0565b9050600061397584828501613744565b600083015250602061398984828501613930565b602083015250604061399d84828501613930565b60408301525060606139b18482850161377a565b60608301525060806139c58482850161377a565b60808301525060a06139d98482850161377a565b60a08301525060c06139ed8482850161377a565b60c08301525092915050565b6000806101008385031215613a1157613a10613660565b5b6000613a1f85828601613945565b92505060e0613a308582860161377a565b9150509250929050565b613a4381613759565b82525050565b6000602082019050613a5e6000830184613a3a565b92915050565b600060208284031215613a7a57613a79613660565b5b6000613a888482850161377a565b91505092915050565b6000819050919050565b6000613ab6613ab1613aac84613759565b613a91565b613759565b9050919050565b613ac681613a9b565b82525050565b6000602082019050613ae16000830184613abd565b92915050565b7f4e487b7100000000000000000000000000000000000000000000000000000000600052602160045260246000fd5b60048110613b2757613b26613ae7565b5b50565b6000819050613b3882613b16565b919050565b6000613b4882613b2a565b9050919050565b613b5881613b3d565b82525050565b6000602082019050613b736000830184613b4f565b92915050565b600081519050919050565b600082825260208201905092915050565b6000819050602082019050919050565b613bae8161371b565b82525050565b613bbd81613759565b82525050565b608082016000820151613bd96000850182613ba5565b506020820151613bec6020850182613bb4565b506040820151613bff6040850182613bb4565b506060820151613c126060850182613bb4565b50505050565b6000613c248383613bc3565b60808301905092915050565b6000602082019050919050565b6000613c4882613b79565b613c528185613b84565b9350613c5d83613b95565b8060005b83811015613c8e578151613c758882613c18565b9750613c8083613c30565b925050600181019050613c61565b5085935050505092915050565b60006020820190508181036000830152613cb58184613c3d565b905092915050565b6000613cc88261371b565b9050919050565b613cd881613cbd565b8114613ce357600080fd5b50565b600081359050613cf581613ccf565b92915050565b6000613d068261371b565b9050919050565b613d1681613cfb565b8114613d2157600080fd5b50565b600081359050613d3381613d0d565b92915050565b60008060408385031215613d5057613d4f613660565b5b6000613d5e85828601613ce6565b9250506020613d6f85828601613d24565b9150509250929050565b600060e082019050613d8e600083018a6138ef565b613d9b6020830189613abd565b613da86040830188613abd565b613db56060830187613a3a565b613dc26080830186613a3a565b613dcf60a0830185613a3a565b613ddc60c0830184613a3a565b98975050505050505050565b613df181613a9b565b82525050565b60e082016000820151613e0d6000850182613ba5565b506020820151613e206020850182613de8565b506040820151613e336040850182613de8565b506060820151613e466060850182613bb4565b506080820151613e596080850182613bb4565b5060a0820151613e6c60a0850182613bb4565b5060c0820151613e7f60c0850182613bb4565b50505050565b600060e082019050613e9a6000830184613df7565b92915050565b600080fd5b600080fd5b600080fd5b60008083601f840112613ec557613ec4613ea0565b5b8235905067ffffffffffffffff811115613ee257613ee1613ea5565b5b602083019150836020820283011115613efe57613efd613eaa565b5b9250929050565b600080600060408486031215613f1e57613f1d613660565b5b600084013567ffffffffffffffff811115613f3c57613f3b613665565b5b613f4886828701613eaf565b93509350506020613f5b86828701613744565b9150509250925092565b60008060408385031215613f7c57613f7b613660565b5b6000613f8a8582860161377a565b9250506020613f9b8582860161377a565b9150509250929050565b600060208284031215613fbb57613fba613660565b5b6000613fc984828501613744565b91505092915050565b7f4e487b7100000000000000000000000000000000000000000000000000000000600052601160045260246000fd5b600061400c82613759565b915061401783613759565b925082820390508181111561402f5761402e613fd2565b5b92915050565b600082825260208201905092915050565b7f6d6f6e7468206d757374206265203c3d206c6f616e4d61784475726174696f6e60008201527f4d6f6e7468730000000000000000000000000000000000000000000000000000602082015250565b60006140a2602683614035565b91506140ad82614046565b604082019050919050565b600060208201905081810360008301526140d181614095565b9050919050565b7f4e487b7100000000000000000000000000000000000000000000000000000000600052601260045260246000fd5b600061411282613759565b915061411d83613759565b92508261412d5761412c6140d8565b5b828204905092915050565b600061414382613759565b915061414e83613759565b925082820261415c81613759565b9150828204841483151761417357614172613fd2565b5b5092915050565b7f496e697469616c697a61626c653a20636f6e747261637420697320616c72656160008201527f647920696e697469616c697a6564000000000000000000000000000000000000602082015250565b60006141d6602e83614035565b91506141e18261417a565b604082019050919050565b60006020820190508181036000830152614205816141c9565b9050919050565b6000819050919050565b600060ff82169050919050565b600061423e6142396142348461420c565b613a91565b614216565b9050919050565b61424e81614223565b82525050565b60006020820190506142696000830184614245565b92915050565b7f4e487b7100000000000000000000000000000000000000000000000000000000600052603260045260246000fd5b60006142a982613759565b91507fffffffffffffffffffffffffffffffffffffffffffffffffffffffffffffffff82036142db576142da613fd2565b5b600182019050919050565b7f737461747573206e6f7420666f7265636c6f73757261626c6500000000000000600082015250565b600061431c601983614035565b9150614327826142e6565b602082019050919050565b6000602082019050818103600083015261434b8161430f565b9050919050565b600061435d82613759565b915061436883613759565b92508282019050808211156143805761437f613fd2565b5b92915050565b7f70726f706572747956616c756520646f65736e277420636f7665722064656274600082015250565b60006143bc602083614035565b91506143c782614386565b602082019050919050565b600060208201905081810360008301526143eb816143af565b9050919050565b600060608201905061440760008301866138ef565b61441460208301856138ef565b6144216040830184613a3a565b949350505050565b600060808201905061443e60008301876138ef565b61444b6020830186613a3a565b6144586040830185613a3a565b6144656060830184613a3a565b95945050505050565b600081519050919050565b600081905092915050565b60005b838110156144a2578082015181840152602081019050614487565b60008484015250505050565b60006144b98261446e565b6144c38185614479565b93506144d3818560208601614484565b80840191505092915050565b60006144eb82846144ae565b915081905092915050565b7f73746172744c6f616e2064656c656761746543616c6c206661696c6564000000600082015250565b600061452c601d83614035565b9150614537826144f6565b602082019050919050565b6000602082019050818103600083015261455b8161451f565b9050919050565b7f4f776e61626c653a206e6577206f776e657220697320746865207a65726f206160008201527f6464726573730000000000000000000000000000000000000000000000000000602082015250565b60006145be602683614035565b91506145c982614562565b604082019050919050565b600060208201905081810360008301526145ed816145b1565b9050919050565b6000819050919050565b6000614609826145f4565b9150614614836145f4565b925082614624576146236140d8565b5b600160000383147f80000000000000000000000000000000000000000000000000000000000000008314161561465d5761465c613fd2565b5b828205905092915050565b614671816145f4565b82525050565b600060208201905061468c6000830184614668565b92915050565b600061469d826145f4565b91506146a8836145f4565b92508282039050818112600084121682821360008512151617156146cf576146ce613fd2565b5b92915050565b60006146f06146eb6146e6846145f4565b613a91565b6145f4565b9050919050565b614700816146d5565b82525050565b600060408201905061471b60008301856146f7565b61472860208301846146f7565b9392505050565b600060208201905061474460008301846146f7565b92915050565b600061475582613759565b91506000820361476857614767613fd2565b5b600182039050919050565b7f4f776e61626c653a2063616c6c6572206973206e6f7420746865206f776e6572600082015250565b60006147a9602083614035565b91506147b482614773565b602082019050919050565b600060208201905081810360008301526147d88161479c565b9050919050565b600081519050919050565b60006147f5826147df565b6147ff8185614035565b935061480f818560208601614484565b6148188161366f565b840191505092915050565b6000602082019050818103600083015261483d81846147ea565b905092915050565b600060408201905061485a60008301856138ef565b6148676020830184613a3a565b9392505050565b60006060820190506148836000830186613a3a565b6148906020830185613a3a565b61489d6040830184613a3a565b949350505050565b60006040820190506148ba6000830185613a3a565b6148c76020830184613a3a565b9392505050565b6148d781613834565b81146148e257600080fd5b50565b6000815190506148f4816148ce565b92915050565b6000602082840312156149105761490f613660565b5b600061491e848285016148e5565b91505092915050565b7f5361666545524332303a204552433230206f7065726174696f6e20646964206e60008201527f6f74207375636365656400000000000000000000000000000000000000000000602082015250565b6000614983602a83614035565b915061498e82614927565b604082019050919050565b600060208201905081810360008301526149b281614976565b9050919050565b7f416464726573733a20696e73756666696369656e742062616c616e636520666f60008201527f722063616c6c0000000000000000000000000000000000000000000000000000602082015250565b6000614a15602683614035565b9150614a20826149b9565b604082019050919050565b60006020820190508181036000830152614a4481614a08565b9050919050565b7f416464726573733a2063616c6c20746f206e6f6e2d636f6e7472616374000000600082015250565b6000614a81601d83614035565b9150614a8c82614a4b565b602082019050919050565b60006020820190508181036000830152614ab081614a74565b905091905056fea2646970667358221220fdb7d7f1a7a7594cbb59987f1275a388d6d6ae676d9f96b9ae9d87555eec51df64736f6c63430008130033",
  "linkReferences": {},
  "deployedLinkReferences": {}
}