{
  "_format": "hh-sol-artifact-1",
  "contractName": "AcceptForeclosurable",
  "sourceName": "contracts/protocol/auctions/AcceptForeclosurable.sol",
  "abi": [
    {
      "inputs": [
        {
          "internalType": "uint256",
          "name": "x",
          "type": "uint256"
        },
        {
          "internalType": "uint256",
          "name": "y",
          "type": "uint256"
        }
      ],
      "name": "PRBMath_MulDiv18_Overflow",
      "type": "error"
    },
    {
      "inputs": [
        {
          "internalType": "uint256",
          "name": "x",
          "type": "uint256"
        },
        {
          "internalType": "uint256",
          "name": "y",
          "type": "uint256"
        },
        {
          "internalType": "uint256",
          "name": "denominator",
          "type": "uint256"
        }
      ],
      "name": "PRBMath_MulDiv_Overflow",
      "type": "error"
    },
    {
      "inputs": [
        {
          "internalType": "int256",
          "name": "x",
          "type": "int256"
        }
      ],
      "name": "PRBMath_SD59x18_Convert_Overflow",
      "type": "error"
    },
    {
      "inputs": [
        {
          "internalType": "int256",
          "name": "x",
          "type": "int256"
        }
      ],
      "name": "PRBMath_SD59x18_Convert_Underflow",
      "type": "error"
    },
    {
      "inputs": [
        {
          "internalType": "SD59x18",
          "name": "x",
          "type": "int256"
        }
      ],
      "name": "PRBMath_SD59x18_Exp2_InputTooBig",
      "type": "error"
    },
    {
      "inputs": [
        {
          "internalType": "SD59x18",
          "name": "x",
          "type": "int256"
        }
      ],
      "name": "PRBMath_SD59x18_IntoUD60x18_Underflow",
      "type": "error"
    },
    {
      "inputs": [
        {
          "internalType": "SD59x18",
          "name": "x",
          "type": "int256"
        }
      ],
      "name": "PRBMath_SD59x18_Log_InputTooSmall",
      "type": "error"
    },
    {
      "inputs": [],
      "name": "PRBMath_SD59x18_Mul_InputTooSmall",
      "type": "error"
    },
    {
      "inputs": [
        {
          "internalType": "SD59x18",
          "name": "x",
          "type": "int256"
        },
        {
          "internalType": "SD59x18",
          "name": "y",
          "type": "int256"
        }
      ],
      "name": "PRBMath_SD59x18_Mul_Overflow",
      "type": "error"
    },
    {
      "inputs": [
        {
          "internalType": "uint256",
          "name": "x",
          "type": "uint256"
        }
      ],
      "name": "PRBMath_UD60x18_Convert_Overflow",
      "type": "error"
    },
    {
      "inputs": [
        {
          "internalType": "UD60x18",
          "name": "x",
          "type": "uint256"
        }
      ],
      "name": "PRBMath_UD60x18_IntoSD59x18_Overflow",
      "type": "error"
    },
    {
      "anonymous": false,
      "inputs": [
        {
          "indexed": false,
          "internalType": "uint8",
          "name": "version",
          "type": "uint8"
        }
      ],
      "name": "Initialized",
      "type": "event"
    },
    {
      "anonymous": false,
      "inputs": [
        {
          "indexed": true,
          "internalType": "address",
          "name": "previousOwner",
          "type": "address"
        },
        {
          "indexed": true,
          "internalType": "address",
          "name": "newOwner",
          "type": "address"
        }
      ],
      "name": "OwnershipTransferred",
      "type": "event"
    },
    {
      "inputs": [
        {
          "internalType": "uint256",
          "name": "",
          "type": "uint256"
        }
      ],
      "name": "_loans",
      "outputs": [
        {
          "internalType": "address",
          "name": "borrower",
          "type": "address"
        },
        {
          "internalType": "UD60x18",
          "name": "ratePerSecond",
          "type": "uint256"
        },
        {
          "internalType": "UD60x18",
          "name": "paymentPerSecond",
          "type": "uint256"
        },
        {
          "internalType": "uint256",
          "name": "startTime",
          "type": "uint256"
        },
        {
          "internalType": "uint256",
          "name": "unpaidPrincipal",
          "type": "uint256"
        },
        {
          "internalType": "uint256",
          "name": "maxDurationSeconds",
          "type": "uint256"
        },
        {
          "internalType": "uint256",
          "name": "lastPaymentTime",
          "type": "uint256"
        }
      ],
      "stateMutability": "view",
      "type": "function"
    },
    {
      "inputs": [
        {
          "internalType": "uint256",
          "name": "tokenId",
          "type": "uint256"
        },
        {
          "internalType": "uint256",
          "name": "bidIdx",
          "type": "uint256"
        }
      ],
      "name": "acceptForeclosurableBid",
      "outputs": [],
      "stateMutability": "nonpayable",
      "type": "function"
    },
    {
      "inputs": [
        {
          "internalType": "uint256",
          "name": "tokenId",
          "type": "uint256"
        }
      ],
      "name": "accruedInterest",
      "outputs": [
        {
          "internalType": "uint256",
          "name": "",
          "type": "uint256"
        }
      ],
      "stateMutability": "view",
      "type": "function"
    },
    {
      "inputs": [],
      "name": "availableLiquidity",
      "outputs": [
        {
          "internalType": "uint256",
          "name": "",
          "type": "uint256"
        }
      ],
      "stateMutability": "view",
      "type": "function"
    },
    {
      "inputs": [
        {
          "components": [
            {
              "internalType": "address",
              "name": "bidder",
              "type": "address"
            },
            {
              "internalType": "uint256",
              "name": "propertyValue",
              "type": "uint256"
            },
            {
              "internalType": "uint256",
              "name": "downPayment",
              "type": "uint256"
            },
            {
              "internalType": "uint256",
              "name": "maxDurationMonths",
              "type": "uint256"
            }
          ],
          "internalType": "struct IState.Bid",
          "name": "bid",
          "type": "tuple"
        }
      ],
      "name": "bidActionable",
      "outputs": [
        {
          "internalType": "bool",
          "name": "",
          "type": "bool"
        }
      ],
      "stateMutability": "view",
      "type": "function"
    },
    {
      "inputs": [
        {
          "internalType": "uint256",
          "name": "tokenId",
          "type": "uint256"
        }
      ],
      "name": "bids",
      "outputs": [
        {
          "components": [
            {
              "internalType": "address",
              "name": "bidder",
              "type": "address"
            },
            {
              "internalType": "uint256",
              "name": "propertyValue",
              "type": "uint256"
            },
            {
              "internalType": "uint256",
              "name": "downPayment",
              "type": "uint256"
            },
            {
              "internalType": "uint256",
              "name": "maxDurationMonths",
              "type": "uint256"
            }
          ],
          "internalType": "struct IState.Bid[]",
          "name": "",
          "type": "tuple[]"
        }
      ],
      "stateMutability": "view",
      "type": "function"
    },
    {
      "inputs": [],
      "name": "defaultFeeSpread",
      "outputs": [
        {
          "internalType": "UD60x18",
          "name": "",
          "type": "uint256"
        }
      ],
      "stateMutability": "view",
      "type": "function"
    },
    {
      "inputs": [
        {
          "internalType": "contract IERC20",
          "name": "_USDC",
          "type": "address"
        },
        {
          "internalType": "contract tUsdc",
          "name": "_tUSDC",
          "type": "address"
        },
        {
          "internalType": "contract TangibleNft",
          "name": "_prosperaNftContract",
          "type": "address"
        }
      ],
      "name": "initialize",
      "outputs": [],
      "stateMutability": "nonpayable",
      "type": "function"
    },
    {
      "inputs": [
        {
          "components": [
            {
              "internalType": "address",
              "name": "bidder",
              "type": "address"
            },
            {
              "internalType": "uint256",
              "name": "propertyValue",
              "type": "uint256"
            },
            {
              "internalType": "uint256",
              "name": "downPayment",
              "type": "uint256"
            },
            {
              "internalType": "uint256",
              "name": "maxDurationMonths",
              "type": "uint256"
            }
          ],
          "internalType": "struct IState.Bid",
          "name": "_bid",
          "type": "tuple"
        }
      ],
      "name": "loanBidActionable",
      "outputs": [
        {
          "internalType": "bool",
          "name": "",
          "type": "bool"
        }
      ],
      "stateMutability": "view",
      "type": "function"
    },
    {
      "inputs": [
        {
          "internalType": "uint256",
          "name": "tokenId",
          "type": "uint256"
        }
      ],
      "name": "loans",
      "outputs": [
        {
          "components": [
            {
              "internalType": "address",
              "name": "borrower",
              "type": "address"
            },
            {
              "internalType": "UD60x18",
              "name": "ratePerSecond",
              "type": "uint256"
            },
            {
              "internalType": "UD60x18",
              "name": "paymentPerSecond",
              "type": "uint256"
            },
            {
              "internalType": "uint256",
              "name": "startTime",
              "type": "uint256"
            },
            {
              "internalType": "uint256",
              "name": "unpaidPrincipal",
              "type": "uint256"
            },
            {
              "internalType": "uint256",
              "name": "maxDurationSeconds",
              "type": "uint256"
            },
            {
              "internalType": "uint256",
              "name": "lastPaymentTime",
              "type": "uint256"
            }
          ],
          "internalType": "struct IState.Loan",
          "name": "",
          "type": "tuple"
        }
      ],
      "stateMutability": "view",
      "type": "function"
    },
    {
      "inputs": [
        {
          "internalType": "uint256",
          "name": "idx",
          "type": "uint256"
        }
      ],
      "name": "loansTokenIdsAt",
      "outputs": [
        {
          "internalType": "uint256",
          "name": "tokenId",
          "type": "uint256"
        }
      ],
      "stateMutability": "view",
      "type": "function"
    },
    {
      "inputs": [],
      "name": "loansTokenIdsLength",
      "outputs": [
        {
          "internalType": "uint256",
          "name": "",
          "type": "uint256"
        }
      ],
      "stateMutability": "view",
      "type": "function"
    },
    {
      "inputs": [
        {
          "internalType": "bytes4",
          "name": "",
          "type": "bytes4"
        }
      ],
      "name": "logicTargets",
      "outputs": [
        {
          "internalType": "address",
          "name": "",
          "type": "address"
        }
      ],
      "stateMutability": "view",
      "type": "function"
    },
    {
      "inputs": [],
      "name": "maxDurationMonthsCap",
      "outputs": [
        {
          "internalType": "uint256",
          "name": "",
          "type": "uint256"
        }
      ],
      "stateMutability": "view",
      "type": "function"
    },
    {
      "inputs": [],
      "name": "maxLtv",
      "outputs": [
        {
          "internalType": "UD60x18",
          "name": "",
          "type": "uint256"
        }
      ],
      "stateMutability": "view",
      "type": "function"
    },
    {
      "inputs": [],
      "name": "monthSeconds",
      "outputs": [
        {
          "internalType": "uint256",
          "name": "",
          "type": "uint256"
        }
      ],
      "stateMutability": "view",
      "type": "function"
    },
    {
      "inputs": [],
      "name": "optimalUtilization",
      "outputs": [
        {
          "internalType": "UD60x18",
          "name": "",
          "type": "uint256"
        }
      ],
      "stateMutability": "view",
      "type": "function"
    },
    {
      "inputs": [],
      "name": "owner",
      "outputs": [
        {
          "internalType": "address",
          "name": "",
          "type": "address"
        }
      ],
      "stateMutability": "view",
      "type": "function"
    },
    {
      "inputs": [
        {
          "components": [
            {
              "internalType": "address",
              "name": "borrower",
              "type": "address"
            },
            {
              "internalType": "UD60x18",
              "name": "ratePerSecond",
              "type": "uint256"
            },
            {
              "internalType": "UD60x18",
              "name": "paymentPerSecond",
              "type": "uint256"
            },
            {
              "internalType": "uint256",
              "name": "startTime",
              "type": "uint256"
            },
            {
              "internalType": "uint256",
              "name": "unpaidPrincipal",
              "type": "uint256"
            },
            {
              "internalType": "uint256",
              "name": "maxDurationSeconds",
              "type": "uint256"
            },
            {
              "internalType": "uint256",
              "name": "lastPaymentTime",
              "type": "uint256"
            }
          ],
          "internalType": "struct IState.Loan",
          "name": "loan",
          "type": "tuple"
        },
        {
          "internalType": "uint256",
          "name": "month",
          "type": "uint256"
        }
      ],
      "name": "principalCap",
      "outputs": [
        {
          "internalType": "uint256",
          "name": "cap",
          "type": "uint256"
        }
      ],
      "stateMutability": "pure",
      "type": "function"
    },
    {
      "inputs": [],
      "name": "redemptionFeeSpread",
      "outputs": [
        {
          "internalType": "UD60x18",
          "name": "",
          "type": "uint256"
        }
      ],
      "stateMutability": "view",
      "type": "function"
    },
    {
      "inputs": [],
      "name": "renounceOwnership",
      "outputs": [],
      "stateMutability": "nonpayable",
      "type": "function"
    },
    {
      "inputs": [
        {
          "internalType": "bytes4[]",
          "name": "selectorsArr",
          "type": "bytes4[]"
        },
        {
          "internalType": "address",
          "name": "target",
          "type": "address"
        }
      ],
      "name": "setSelectorsTarget",
      "outputs": [],
      "stateMutability": "nonpayable",
      "type": "function"
    },
    {
      "inputs": [
        {
          "internalType": "uint256",
          "name": "tokenId",
          "type": "uint256"
        }
      ],
      "name": "status",
      "outputs": [
        {
          "internalType": "enum IState.Status",
          "name": "",
          "type": "uint8"
        }
      ],
      "stateMutability": "view",
      "type": "function"
    },
    {
      "inputs": [
        {
          "internalType": "uint256",
          "name": "tokenId",
          "type": "uint256"
        }
      ],
      "name": "tokenIdBidsLength",
      "outputs": [
        {
          "internalType": "uint256",
          "name": "",
          "type": "uint256"
        }
      ],
      "stateMutability": "view",
      "type": "function"
    },
    {
      "inputs": [],
      "name": "totalDeposits",
      "outputs": [
        {
          "internalType": "uint256",
          "name": "",
          "type": "uint256"
        }
      ],
      "stateMutability": "view",
      "type": "function"
    },
    {
      "inputs": [],
      "name": "totalPrincipal",
      "outputs": [
        {
          "internalType": "uint256",
          "name": "",
          "type": "uint256"
        }
      ],
      "stateMutability": "view",
      "type": "function"
    },
    {
      "inputs": [
        {
          "internalType": "address",
          "name": "newOwner",
          "type": "address"
        }
      ],
      "name": "transferOwnership",
      "outputs": [],
      "stateMutability": "nonpayable",
      "type": "function"
    },
    {
      "inputs": [],
      "name": "yearMonths",
      "outputs": [
        {
          "internalType": "uint256",
          "name": "",
          "type": "uint256"
        }
      ],
      "stateMutability": "view",
      "type": "function"
    },
    {
      "inputs": [],
      "name": "yearSeconds",
      "outputs": [
        {
          "internalType": "uint256",
          "name": "",
          "type": "uint256"
        }
      ],
      "stateMutability": "view",
      "type": "function"
    }
  ],
  "bytecode": "0x60806040526200003b6200001a60646200022960201b60201c565b6200002c605a6200022960201b60201c565b620002ba60201b90919060201c565b600755620000756200005460646200022960201b60201c565b6200006660046200022960201b60201c565b620002ba60201b90919060201c565b600855620000af6200008e60646200022960201b60201c565b620000a060036200022960201b60201c565b620002ba60201b90919060201c565b600955620000c460096200022960201b60201c565b600a55620000fe620000dd60646200022960201b60201c565b620000ef60016200022960201b60201c565b620002ba60201b90919060201c565b600b55620001386200011760646200022960201b60201c565b6200012960026200022960201b60201c565b620002ba60201b90919060201c565b600c55620001726200015160646200022960201b60201c565b6200016360036200022960201b60201c565b620002ba60201b90919060201c565b600d55620001ac6200018b60646200022960201b60201c565b6200019d60046200022960201b60201c565b620002ba60201b90919060201c565b600e55623b5380601455620001ed620001cc60646200022960201b60201c565b620001de60326200022960201b60201c565b620002ba60201b90919060201c565b60155560786016553480156200020257600080fd5b5062000223620002176200030f60201b60201c565b6200031760201b60201c565b620005ed565b6000670de0b6b3a76400007fffffffffffffffffffffffffffffffffffffffffffffffffffffffffffffffff6200026191906200054a565b821115620002a857816040517f1cd951a70000000000000000000000000000000000000000000000000000000081526004016200029f919062000593565b60405180910390fd5b670de0b6b3a764000082029050919050565b600062000307620002fb620002d585620003db60201b60201c565b670de0b6b3a7640000620002ef86620003db60201b60201c565b620003e560201b60201c565b6200050760201b60201c565b905092915050565b600033905090565b60008060009054906101000a900473ffffffffffffffffffffffffffffffffffffffff169050816000806101000a81548173ffffffffffffffffffffffffffffffffffffffff021916908373ffffffffffffffffffffffffffffffffffffffff1602179055508173ffffffffffffffffffffffffffffffffffffffff168173ffffffffffffffffffffffffffffffffffffffff167f8be0079c531659141344cd1fd0a4f28419497f9722a3daafe3b4186f6b6457e060405160405180910390a35050565b6000819050919050565b600080600080198587098587029250828110838203039150506000810362000425578382816200041a57620004196200051b565b5b049250505062000500565b83811062000470578585856040517f63a057780000000000000000000000000000000000000000000000000000000081526004016200046793929190620005b0565b60405180910390fd5b60008486880990508281118203915080830392506000600186190186169050600081870496508185049450600182836000030401905080840285179450600060028860030218905080880260020381029050808802600203810290508088026002038102905080880260020381029050808802600203810290508088026002038102905080860296505050505050505b9392505050565b6000819050919050565b6000819050919050565b7f4e487b7100000000000000000000000000000000000000000000000000000000600052601260045260246000fd5b6000620005578262000511565b9150620005648362000511565b9250826200057757620005766200051b565b5b828204905092915050565b6200058d8162000511565b82525050565b6000602082019050620005aa600083018462000582565b92915050565b6000606082019050620005c7600083018662000582565b620005d6602083018562000582565b620005e5604083018462000582565b949350505050565b61479780620005fd6000396000f3fe608060405234801561001057600080fd5b50600436106101cf5760003560e01c80637d88209711610104578063bcff3e3b116100a2578063e343504411610071578063e343504414610578578063e77afe5e14610594578063f2fde38b146105b0578063ff9ad6df146105cc576101cf565b8063bcff3e3b146104c6578063bd5c569b146104f6578063c0c53b8b1461052c578063e1ec3c6814610548576101cf565b80638da5cb5b116100de5780638da5cb5b1461043c578063a0024c2f1461045a578063a54cab1c1461048a578063ab01f7e1146104a8576101cf565b80637d882097146103e2578063812cf0181461040057806387ae0dbe1461041e576101cf565b80634423c5f1116101715780636290cd1c1161014b5780636290cd1c1461036c578063715018a61461038a578063743753591461039457806374bdf96a146103b2576101cf565b80634423c5f1146103005780634abb3003146103305780634b1533b21461034e576101cf565b80632da10923116101ad5780632da10923146102645780633a12c6da146102945780633ca36db6146102b257806342d21ef7146102d0576101cf565b80630a9cc0b6146101d457806317548b79146102045780631cc03c8714610234575b600080fd5b6101ee60048036038101906101e99190613460565b6105ea565b6040516101fb91906134a8565b60405180910390f35b61021e6004803603810190610219919061351b565b61065f565b60405161022b9190613557565b60405180910390f35b61024e60048036038101906102499190613652565b610692565b60405161025b91906136a2565b60405180910390f35b61027e600480360381019061027991906136bd565b6107f4565b60405161028b91906136a2565b60405180910390f35b61029c610814565b6040516102a99190613725565b60405180910390f35b6102ba61081a565b6040516102c79190613725565b60405180910390f35b6102ea60048036038101906102e591906136bd565b610824565b6040516102f791906137b7565b60405180910390f35b61031a600480360381019061031591906136bd565b61096b565b60405161032791906138f4565b60405180910390f35b610338610a51565b6040516103459190613725565b60405180910390f35b610356610a5b565b60405161036391906136a2565b60405180910390f35b610374610a61565b6040516103819190613725565b60405180910390f35b610392610a67565b005b61039c610a7b565b6040516103a991906136a2565b60405180910390f35b6103cc60048036038101906103c791906136bd565b610a92565b6040516103d991906136a2565b60405180910390f35b6103ea610aaf565b6040516103f791906136a2565b60405180910390f35b610408610ab5565b60405161041591906136a2565b60405180910390f35b610426610aba565b60405161043391906136a2565b60405180910390f35b610444610ac2565b6040516104519190613557565b60405180910390f35b610474600480360381019061046f9190613460565b610aeb565b60405161048191906134a8565b60405180910390f35b610492610b0f565b60405161049f91906136a2565b60405180910390f35b6104b0610b15565b6040516104bd91906136a2565b60405180910390f35b6104e060048036038101906104db91906136bd565b610b26565b6040516104ed91906136a2565b60405180910390f35b610510600480360381019061050b91906136bd565b610be7565b6040516105239796959493929190613916565b60405180910390f35b61054660048036038101906105419190613a3f565b610c49565b005b610562600480360381019061055d91906136bd565b610e4b565b60405161056f9190613b2f565b60405180910390f35b610592600480360381019061058d9190613baf565b610f0a565b005b6105ae60048036038101906105a99190613c0f565b610ff0565b005b6105ca60048036038101906105c59190613c4f565b6115b2565b005b6105d4611635565b6040516105e191906136a2565b60405180910390f35b600080826040015183602001516106019190613cab565b9050600061062c6106158560200151611649565b61061e84611649565b6116d590919063ffffffff16565b90506106436015548261170a90919063ffffffff16565b80156106565750610652610a7b565b8211155b92505050919050565b60016020528060005260406000206000915054906101000a900473ffffffffffffffffffffffffffffffffffffffff1681565b600061069d83611728565b8211156106df576040517f08c379a00000000000000000000000000000000000000000000000000000000081526004016106d690613d62565b60405180910390fd5b6000600c6301e133806106f29190613db1565b836106fd9190613de2565b9050600061074361070e6001611751565b61073561071e8860a00151611751565b61072786611751565b61185590919063ffffffff16565b61185590919063ffffffff16565b9050600061079c610784836107766107718a602001516107636001611649565b61188390919063ffffffff16565b6118b1565b61192590919063ffffffff16565b61078e6001611751565b61185590919063ffffffff16565b905060006107c76107c2836107b48a604001516118b1565b6119e390919063ffffffff16565b611b73565b90506107e86107e38860200151836116d590919063ffffffff16565b611bc8565b94505050505092915050565b6000600f6000838152602001908152602001600020805490509050919050565b60155481565b6000600d54905090565b600080601060008481526020019081526020016000206040518060e00160405290816000820160009054906101000a900473ffffffffffffffffffffffffffffffffffffffff1673ffffffffffffffffffffffffffffffffffffffff1673ffffffffffffffffffffffffffffffffffffffff16815260200160018201548152602001600282015481526020016003820154815260200160048201548152602001600582015481526020016006820154815250509050600073ffffffffffffffffffffffffffffffffffffffff16816000015173ffffffffffffffffffffffffffffffffffffffff160361091b576000915050610966565b61092483611be5565b1561096057600061093482611cfa565b4261093f9190613cab565b9050601454811161095557600292505050610966565b600392505050610966565b60019150505b919050565b6060600f6000838152602001908152602001600020805480602002602001604051908101604052809291908181526020016000905b82821015610a4657838290600052602060002090600402016040518060800160405290816000820160009054906101000a900473ffffffffffffffffffffffffffffffffffffffff1673ffffffffffffffffffffffffffffffffffffffff1673ffffffffffffffffffffffffffffffffffffffff1681526020016001820154815260200160028201548152602001600382015481525050815260200190600101906109a0565b505050509050919050565b6000600e54905090565b60055481565b60075481565b610a6f611da5565b610a796000611e23565b565b6000600554600654610a8d9190613cab565b905090565b6000610aa8826011611ee790919063ffffffff16565b9050919050565b60065481565b600c81565b6301e1338081565b60008060009054906101000a900473ffffffffffffffffffffffffffffffffffffffff16905090565b6000816040015182602001511480610b085750610b07826105ea565b5b9050919050565b60165481565b6000610b216011611f01565b905090565b6000610be0601060008481526020019081526020016000206040518060e00160405290816000820160009054906101000a900473ffffffffffffffffffffffffffffffffffffffff1673ffffffffffffffffffffffffffffffffffffffff1673ffffffffffffffffffffffffffffffffffffffff1681526020016001820154815260200160028201548152602001600382015481526020016004820154815260200160058201548152602001600682015481525050611f16565b9050919050565b60106020528060005260406000206000915090508060000160009054906101000a900473ffffffffffffffffffffffffffffffffffffffff16908060010154908060020154908060030154908060040154908060050154908060060154905087565b6000600260019054906101000a900460ff16159050808015610c7d57506001600260009054906101000a900460ff1660ff16105b80610cac5750610c8c30611f4e565b158015610cab57506001600260009054906101000a900460ff1660ff16145b5b610ceb576040517f08c379a0000000000000000000000000000000000000000000000000000000008152600401610ce290613e96565b60405180910390fd5b6001600260006101000a81548160ff021916908360ff1602179055508015610d29576001600260016101000a81548160ff0219169083151502179055505b836002806101000a81548173ffffffffffffffffffffffffffffffffffffffff021916908373ffffffffffffffffffffffffffffffffffffffff16021790555082600360006101000a81548173ffffffffffffffffffffffffffffffffffffffff021916908373ffffffffffffffffffffffffffffffffffffffff16021790555081600460006101000a81548173ffffffffffffffffffffffffffffffffffffffff021916908373ffffffffffffffffffffffffffffffffffffffff1602179055508015610e45576000600260016101000a81548160ff0219169083151502179055507f7f26b83ff96e1f2b6a682f133852f6798a09c465da95921460cefb38474024986001604051610e3c9190613efe565b60405180910390a15b50505050565b610e5361325c565b601060008381526020019081526020016000206040518060e00160405290816000820160009054906101000a900473ffffffffffffffffffffffffffffffffffffffff1673ffffffffffffffffffffffffffffffffffffffff1673ffffffffffffffffffffffffffffffffffffffff16815260200160018201548152602001600282015481526020016003820154815260200160048201548152602001600582015481526020016006820154815250509050919050565b610f12611da5565b60005b83839050811015610fea578160016000868685818110610f3857610f37613f19565b5b9050602002016020810190610f4d919061351b565b7bffffffffffffffffffffffffffffffffffffffffffffffffffffffff19167bffffffffffffffffffffffffffffffffffffffffffffffffffffffff1916815260200190815260200160002060006101000a81548173ffffffffffffffffffffffffffffffffffffffff021916908373ffffffffffffffffffffffffffffffffffffffff1602179055508080610fe290613f48565b915050610f15565b50505050565b6000601060008481526020019081526020016000206040518060e00160405290816000820160009054906101000a900473ffffffffffffffffffffffffffffffffffffffff1673ffffffffffffffffffffffffffffffffffffffff1673ffffffffffffffffffffffffffffffffffffffff168152602001600182015481526020016002820154815260200160038201548152602001600482015481526020016005820154815260200160068201548152505090506003808111156110b7576110b6613740565b5b6110c084610824565b60038111156110d2576110d1613740565b5b14611112576040517f08c379a000000000000000000000000000000000000000000000000000000000815260040161110990613fdc565b60405180910390fd5b6000600f6000858152602001908152602001600020838154811061113957611138613f19565b5b90600052602060002090600402016040518060800160405290816000820160009054906101000a900473ffffffffffffffffffffffffffffffffffffffff1673ffffffffffffffffffffffffffffffffffffffff1673ffffffffffffffffffffffffffffffffffffffff1681526020016001820154815260200160028201548152602001600382015481525050905060006111f36111ee600b546111e08560200151611649565b611f7190919063ffffffff16565b611bc8565b9050600061122061121b600e5461120d8660200151611649565b611f7190919063ffffffff16565b611bc8565b9050808261122e9190613ffc565b6013600082825461123f9190613ffc565b92505081905550600061125187610b26565b90508460800151600560008282546112699190613cab565b9250508190555080600660008282546112829190613ffc565b925050819055506000828483886080015161129d9190613ffc565b6112a79190613ffc565b6112b19190613ffc565b905080856020015110156112fa576040517f08c379a00000000000000000000000000000000000000000000000000000000081526004016112f19061407c565b60405180910390fd5b600081866020015161130c9190613cab565b905061135d87600001518260028054906101000a900473ffffffffffffffffffffffffffffffffffffffff1673ffffffffffffffffffffffffffffffffffffffff16611f9d9092919063ffffffff16565b856040015186602001510361140657600460009054906101000a900473ffffffffffffffffffffffffffffffffffffffff1673ffffffffffffffffffffffffffffffffffffffff166342842e0e3088600001518c6040518463ffffffff1660e01b81526004016113cf9392919061409c565b600060405180830381600087803b1580156113e957600080fd5b505af11580156113fd573d6000803e3d6000fd5b505050506115a7565b60008660400151876020015161141c9190613cab565b9050600060016000630feee81e60e01b7bffffffffffffffffffffffffffffffffffffffffffffffffffffffff19167bffffffffffffffffffffffffffffffffffffffffffffffffffffffff1916815260200190815260200160002060009054906101000a900473ffffffffffffffffffffffffffffffffffffffff1673ffffffffffffffffffffffffffffffffffffffff1688600001518c848b606001516040516024016114ce94939291906140d3565b604051602081830303815290604052630feee81e60e01b6020820180517bffffffffffffffffffffffffffffffffffffffffffffffffffffffff83818316178352505050506040516115209190614189565b600060405180830381855af49150503d806000811461155b576040519150601f19603f3d011682016040523d82523d6000602084013e611560565b606091505b50509050806115a4576040517f08c379a000000000000000000000000000000000000000000000000000000000815260040161159b906141ec565b60405180910390fd5b50505b505050505050505050565b6115ba611da5565b600073ffffffffffffffffffffffffffffffffffffffff168173ffffffffffffffffffffffffffffffffffffffff1603611629576040517f08c379a00000000000000000000000000000000000000000000000000000000081526004016116209061427e565b60405180910390fd5b61163281611e23565b50565b600c6301e133806116469190613db1565b81565b6000670de0b6b3a76400007fffffffffffffffffffffffffffffffffffffffffffffffffffffffffffffffff61167f9190613db1565b8211156116c357816040517f1cd951a70000000000000000000000000000000000000000000000000000000081526004016116ba91906136a2565b60405180910390fd5b670de0b6b3a764000082029050919050565b60006117026116fd6116e685612023565b670de0b6b3a76400006116f886612023565b61202d565b612147565b905092915050565b600061171582612023565b61171e84612023565b1115905092915050565b60006301e133808260a00151600c6117409190613de2565b61174a9190613db1565b9050919050565b6000670de0b6b3a76400007f800000000000000000000000000000000000000000000000000000000000000061178791906142a8565b8212156117cb57816040517f99474eeb0000000000000000000000000000000000000000000000000000000081526004016117c29190614321565b60405180910390fd5b670de0b6b3a76400007f7fffffffffffffffffffffffffffffffffffffffffffffffffffffffffffffff6117ff91906142a8565b82131561184357816040517f9d58109100000000000000000000000000000000000000000000000000000000815260040161183a9190614321565b60405180910390fd5b670de0b6b3a764000082029050919050565b600061187b61186383612151565b61186c85612151565b611876919061433c565b61215b565b905092915050565b60006118a961189183612023565b61189a85612023565b6118a49190613ffc565b612147565b905092915050565b6000808290507f7fffffffffffffffffffffffffffffffffffffffffffffffffffffffffffffff81111561191c57826040517ff46186840000000000000000000000000000000000000000000000000000000081526004016119139190613725565b60405180910390fd5b80915050919050565b60008061193184612151565b9050600061193e84612151565b90506000820361196a5760008114611957576000611961565b670de0b6b3a76400005b925050506119dd565b670de0b6b3a7640000820361198b57670de0b6b3a7640000925050506119dd565b600081036119a557670de0b6b3a7640000925050506119dd565b670de0b6b3a764000081036119be5784925050506119dd565b6119d86119d36119cd87612165565b866119e3565b6122f8565b925050505b92915050565b6000806119ef84612151565b905060006119fc84612151565b90507f8000000000000000000000000000000000000000000000000000000000000000821480611a4b57507f800000000000000000000000000000000000000000000000000000000000000081145b15611a82576040517fa6070c2500000000000000000000000000000000000000000000000000000000815260040160405180910390fd5b60008060008412611a935783611a98565b836000035b915060008312611aa85782611aad565b826000035b90506000611abb8383612416565b90507f7fffffffffffffffffffffffffffffffffffffffffffffffffffffffffffffff811115611b245787876040517f120b5b43000000000000000000000000000000000000000000000000000000008152600401611b1b9291906143b0565b60405180910390fd5b60007fffffffffffffffffffffffffffffffffffffffffffffffffffffffffffffffff858718139050611b6581611b5e5782600003611b60565b825b61215b565b965050505050505092915050565b6000808290506000811215611bbf57826040517fbba41a15000000000000000000000000000000000000000000000000000000008152600401611bb691906143d9565b60405180910390fd5b80915050919050565b6000670de0b6b3a764000082611bde9190613db1565b9050919050565b600080601060008481526020019081526020016000206040518060e00160405290816000820160009054906101000a900473ffffffffffffffffffffffffffffffffffffffff1673ffffffffffffffffffffffffffffffffffffffff1673ffffffffffffffffffffffffffffffffffffffff168152602001600182015481526020016002820154815260200160038201548152602001600482015481526020016005820154815260200160068201548152505090506000611ca582612500565b90506000600c6301e133808460a00151611cbf9190613db1565b611cc99190613de2565b905080821115611cdf5760019350505050611cf5565b611ce98383610692565b83608001511193505050505b919050565b600080611d0683612500565b905060008190505b6000811115611d9e576000611d238583610692565b90506000611d3d86600185611d389190613cab565b610692565b9050818660800151118015611d56575080866080015111155b15611d8957600c6301e13380611d6c9190613db1565b83611d779190613de2565b8660600151611d869190613ffc565b94505b50508080611d96906143f4565b915050611d0e565b5050919050565b611dad612555565b73ffffffffffffffffffffffffffffffffffffffff16611dcb610ac2565b73ffffffffffffffffffffffffffffffffffffffff1614611e21576040517f08c379a0000000000000000000000000000000000000000000000000000000008152600401611e1890614469565b60405180910390fd5b565b60008060009054906101000a900473ffffffffffffffffffffffffffffffffffffffff169050816000806101000a81548173ffffffffffffffffffffffffffffffffffffffff021916908373ffffffffffffffffffffffffffffffffffffffff1602179055508173ffffffffffffffffffffffffffffffffffffffff168173ffffffffffffffffffffffffffffffffffffffff167f8be0079c531659141344cd1fd0a4f28419497f9722a3daafe3b4186f6b6457e060405160405180910390a35050565b6000611ef6836000018361255d565b60001c905092915050565b6000611f0f82600001612588565b9050919050565b6000611f47611f42611f2784612599565b611f348560800151611649565b611f7190919063ffffffff16565b611bc8565b9050919050565b6000808273ffffffffffffffffffffffffffffffffffffffff163b119050919050565b6000611f95611f90611f8285612023565b611f8b85612023565b612416565b612147565b905092915050565b61201e8363a9059cbb60e01b8484604051602401611fbc929190614489565b604051602081830303815290604052907bffffffffffffffffffffffffffffffffffffffffffffffffffffffff19166020820180517bffffffffffffffffffffffffffffffffffffffffffffffffffffffff83818316178352505050506125c9565b505050565b6000819050919050565b60008060008019858709858702925082811083820303915050600081036120685783828161205e5761205d613d82565b5b0492505050612140565b8381106120b0578585856040517f63a057780000000000000000000000000000000000000000000000000000000081526004016120a7939291906144b2565b60405180910390fd5b60008486880990508281118203915080830392506000600186190186169050600081870496508185049450600182836000030401905080840285179450600060028860030218905080880260020381029050808802600203810290508088026002038102905080880260020381029050808802600203810290508088026002038102905080860296505050505050505b9392505050565b6000819050919050565b6000819050919050565b6000819050919050565b60008061217183612151565b9050600081136121b857826040517f059b101b0000000000000000000000000000000000000000000000000000000081526004016121af91906143d9565b60405180910390fd5b6000670de0b6b3a764000082126121d25760019050612218565b7fffffffffffffffffffffffffffffffffffffffffffffffffffffffffffffffff9050816ec097ce7bc90715b34b9f10000000008161221457612213613d82565b5b0591505b600061223b670de0b6b3a7640000848161223557612234613d82565b5b05612690565b90506000670de0b6b3a76400008202905060008285901d9050670de0b6b3a7640000810361227a5761226e84830261215b565b955050505050506122f3565b6000671bc16d674ec80000905060006706f05b59d3b2000090505b60008113156122db57670de0b6b3a7640000838402816122b8576122b7613d82565b5b0592508183126122cf578084019350600183901d92505b600181901d9050612295565b5084830292506122ea8361215b565b96505050505050505b919050565b60008061230483612151565b9050600081121561238b577ffffffffffffffffffffffffffffffffffffffffffffffffcc22e87f6eb468eeb811215612341576000915050612411565b61238461236061235b6123568460000361215b565b6122f8565b612151565b6ec097ce7bc90715b34b9f10000000008161237e5761237d613d82565b5b0561215b565b915061240f565b680a688906bd8affffff8113156123d957826040517f0360d0280000000000000000000000000000000000000000000000000000000081526004016123d091906143d9565b60405180910390fd5b6000670de0b6b3a7640000604083901b816123f7576123f6613d82565b5b05905061240b61240682612739565b61215b565b9250505b505b919050565b600080600080198486098486029250828110838203039150506000810361245957670de0b6b3a7640000828161244f5761244e613d82565b5b04925050506124fa565b670de0b6b3a764000081106124a75784846040517f5173648d00000000000000000000000000000000000000000000000000000000815260040161249e9291906144e9565b60405180910390fd5b6000670de0b6b3a764000085870990507faccb18165bd6fe31ae1cf318dc5b51eee0e1ba569b88cd74c1773b91fac106696001620400008060000304018483118403026204000083860304170293505050505b92915050565b600080600c6301e133806125149190613db1565b8360600151426125249190613cab565b61252e9190613db1565b9050600061253b84611728565b905080821161254a578161254c565b805b92505050919050565b600033905090565b600082600001828154811061257557612574613f19565b5b9060005260206000200154905092915050565b600081600001805490509050919050565b60006125c26125af6125aa84613099565b611649565b8360200151611f7190919063ffffffff16565b9050919050565b600061262b826040518060400160405280602081526020017f5361666545524332303a206c6f772d6c6576656c2063616c6c206661696c65648152508573ffffffffffffffffffffffffffffffffffffffff166130b29092919063ffffffff16565b905060008151111561268b578080602001905181019061264b919061453e565b61268a576040517f08c379a0000000000000000000000000000000000000000000000000000000008152600401612681906145dd565b60405180910390fd5b5b505050565b60006fffffffffffffffffffffffffffffffff821160071b82811c925080821791505067ffffffffffffffff821160061b82811c925080821791505063ffffffff821160051b82811c925080821791505061ffff821160041b82811c925080821791505060ff821160031b82811c9250808217915050600f821160021b82811c92508082179150506003821160011b82811c925080821791505060018211808217915050919050565b6000778000000000000000000000000000000000000000000000009050600067ff000000000000008316111561289a5760006780000000000000008316111561278f57604068016a09e667f3bcc9098202901c90505b6000674000000000000000831611156127b55760406801306fe0a31b7152df8202901c90505b6000672000000000000000831611156127db5760406801172b83c7d517adce8202901c90505b60006710000000000000008316111561280157604068010b5586cf9890f62a8202901c90505b6000670800000000000000831611156128275760406801059b0d31585743ae8202901c90505b60006704000000000000008316111561284d576040680102c9a3e778060ee78202901c90505b60006702000000000000008316111561287357604068010163da9fb33356d88202901c90505b600067010000000000000083161115612899576040680100b1afa5abcbed618202901c90505b5b600066ff000000000000831611156129d55760006680000000000000831611156128d157604068010058c86da1c09ea28202901c90505b60006640000000000000831611156128f65760406801002c605e2e8cec508202901c90505b600066200000000000008316111561291b576040680100162f3904051fa18202901c90505b60006610000000000000831611156129405760406801000b175effdc76ba8202901c90505b6000660800000000000083161115612965576040680100058ba01fb9f96d8202901c90505b600066040000000000008316111561298a57604068010002c5cc37da94928202901c90505b60006602000000000000831611156129af5760406801000162e525ee05478202901c90505b60006601000000000000831611156129d457604068010000b17255775c048202901c90505b5b600065ff000000000083161115612b075760006580000000000083161115612a0a5760406801000058b91b5bc9ae8202901c90505b60006540000000000083161115612a2e576040680100002c5c89d5ec6d8202901c90505b60006520000000000083161115612a5257604068010000162e43f4f8318202901c90505b60006510000000000083161115612a76576040680100000b1721bcfc9a8202901c90505b60006508000000000083161115612a9a57604068010000058b90cf1e6e8202901c90505b60006504000000000083161115612abe5760406801000002c5c863b73f8202901c90505b60006502000000000083161115612ae2576040680100000162e430e5a28202901c90505b60006501000000000083161115612b065760406801000000b1721835518202901c90505b5b600064ff0000000083161115612c3057600064800000000083161115612b3a576040680100000058b90c0b498202901c90505b600064400000000083161115612b5d57604068010000002c5c8601cc8202901c90505b600064200000000083161115612b805760406801000000162e42fff08202901c90505b600064100000000083161115612ba357604068010000000b17217fbb8202901c90505b600064080000000083161115612bc65760406801000000058b90bfce8202901c90505b600064040000000083161115612be9576040680100000002c5c85fe38202901c90505b600064020000000083161115612c0c57604068010000000162e42ff18202901c90505b600064010000000083161115612c2f576040680100000000b17217f88202901c90505b5b600063ff00000083161115612d50576000638000000083161115612c6157604068010000000058b90bfc8202901c90505b6000634000000083161115612c835760406801000000002c5c85fe8202901c90505b6000632000000083161115612ca5576040680100000000162e42ff8202901c90505b6000631000000083161115612cc75760406801000000000b17217f8202901c90505b6000630800000083161115612ce9576040680100000000058b90c08202901c90505b6000630400000083161115612d0b57604068010000000002c5c8608202901c90505b6000630200000083161115612d2d5760406801000000000162e4308202901c90505b6000630100000083161115612d4f57604068010000000000b172188202901c90505b5b600062ff000083161115612e675760006280000083161115612d7f5760406801000000000058b90c8202901c90505b60006240000083161115612da0576040680100000000002c5c868202901c90505b60006220000083161115612dc157604068010000000000162e438202901c90505b60006210000083161115612de2576040680100000000000b17218202901c90505b60006208000083161115612e0357604068010000000000058b918202901c90505b60006204000083161115612e245760406801000000000002c5c88202901c90505b60006202000083161115612e45576040680100000000000162e48202901c90505b60006201000083161115612e665760406801000000000000b1728202901c90505b5b600061ff0083161115612f7557600061800083161115612e94576040680100000000000058b98202901c90505b600061400083161115612eb457604068010000000000002c5d8202901c90505b600061200083161115612ed45760406801000000000000162e8202901c90505b600061100083161115612ef457604068010000000000000b178202901c90505b600061080083161115612f145760406801000000000000058c8202901c90505b600061040083161115612f34576040680100000000000002c68202901c90505b600061020083161115612f54576040680100000000000001638202901c90505b600061010083161115612f74576040680100000000000000b18202901c90505b5b600060ff8316111561307a576000608083161115612fa0576040680100000000000000598202901c90505b6000604083161115612fbf5760406801000000000000002c8202901c90505b6000602083161115612fde576040680100000000000000168202901c90505b6000601083161115612ffd5760406801000000000000000b8202901c90505b600060088316111561301c576040680100000000000000068202901c90505b600060048316111561303b576040680100000000000000038202901c90505b600060028316111561305a576040680100000000000000018202901c90505b6000600183161115613079576040680100000000000000018202901c90505b5b670de0b6b3a764000081029050604082901c60bf0381901c9050919050565b60008160c00151426130ab9190613cab565b9050919050565b60606130c184846000856130ca565b90509392505050565b60608247101561310f576040517f08c379a00000000000000000000000000000000000000000000000000000000081526004016131069061466f565b60405180910390fd5b6000808673ffffffffffffffffffffffffffffffffffffffff1685876040516131389190614189565b60006040518083038185875af1925050503d8060008114613175576040519150601f19603f3d011682016040523d82523d6000602084013e61317a565b606091505b509150915061318b87838387613197565b92505050949350505050565b606083156131f95760008351036131f1576131b185611f4e565b6131f0576040517f08c379a00000000000000000000000000000000000000000000000000000000081526004016131e7906146db565b60405180910390fd5b5b829050613204565b613203838361320c565b5b949350505050565b60008251111561321f5781518083602001fd5b806040517f08c379a0000000000000000000000000000000000000000000000000000000008152600401613253919061473f565b60405180910390fd5b6040518060e00160405280600073ffffffffffffffffffffffffffffffffffffffff1681526020016000815260200160008152602001600081526020016000815260200160008152602001600081525090565b6000604051905090565b600080fd5b600080fd5b600080fd5b6000601f19601f8301169050919050565b7f4e487b7100000000000000000000000000000000000000000000000000000000600052604160045260246000fd5b613311826132c8565b810181811067ffffffffffffffff821117156133305761332f6132d9565b5b80604052505050565b60006133436132af565b905061334f8282613308565b919050565b600073ffffffffffffffffffffffffffffffffffffffff82169050919050565b600061337f82613354565b9050919050565b61338f81613374565b811461339a57600080fd5b50565b6000813590506133ac81613386565b92915050565b6000819050919050565b6133c5816133b2565b81146133d057600080fd5b50565b6000813590506133e2816133bc565b92915050565b6000608082840312156133fe576133fd6132c3565b5b6134086080613339565b905060006134188482850161339d565b600083015250602061342c848285016133d3565b6020830152506040613440848285016133d3565b6040830152506060613454848285016133d3565b60608301525092915050565b600060808284031215613476576134756132b9565b5b6000613484848285016133e8565b91505092915050565b60008115159050919050565b6134a28161348d565b82525050565b60006020820190506134bd6000830184613499565b92915050565b60007fffffffff0000000000000000000000000000000000000000000000000000000082169050919050565b6134f8816134c3565b811461350357600080fd5b50565b600081359050613515816134ef565b92915050565b600060208284031215613531576135306132b9565b5b600061353f84828501613506565b91505092915050565b61355181613374565b82525050565b600060208201905061356c6000830184613548565b92915050565b61357b816133b2565b811461358657600080fd5b50565b60008135905061359881613572565b92915050565b600060e082840312156135b4576135b36132c3565b5b6135be60e0613339565b905060006135ce8482850161339d565b60008301525060206135e284828501613589565b60208301525060406135f684828501613589565b604083015250606061360a848285016133d3565b606083015250608061361e848285016133d3565b60808301525060a0613632848285016133d3565b60a08301525060c0613646848285016133d3565b60c08301525092915050565b600080610100838503121561366a576136696132b9565b5b60006136788582860161359e565b92505060e0613689858286016133d3565b9150509250929050565b61369c816133b2565b82525050565b60006020820190506136b76000830184613693565b92915050565b6000602082840312156136d3576136d26132b9565b5b60006136e1848285016133d3565b91505092915050565b6000819050919050565b600061370f61370a613705846133b2565b6136ea565b6133b2565b9050919050565b61371f816136f4565b82525050565b600060208201905061373a6000830184613716565b92915050565b7f4e487b7100000000000000000000000000000000000000000000000000000000600052602160045260246000fd5b600481106137805761377f613740565b5b50565b60008190506137918261376f565b919050565b60006137a182613783565b9050919050565b6137b181613796565b82525050565b60006020820190506137cc60008301846137a8565b92915050565b600081519050919050565b600082825260208201905092915050565b6000819050602082019050919050565b61380781613374565b82525050565b613816816133b2565b82525050565b60808201600082015161383260008501826137fe565b506020820151613845602085018261380d565b506040820151613858604085018261380d565b50606082015161386b606085018261380d565b50505050565b600061387d838361381c565b60808301905092915050565b6000602082019050919050565b60006138a1826137d2565b6138ab81856137dd565b93506138b6836137ee565b8060005b838110156138e75781516138ce8882613871565b97506138d983613889565b9250506001810190506138ba565b5085935050505092915050565b6000602082019050818103600083015261390e8184613896565b905092915050565b600060e08201905061392b600083018a613548565b6139386020830189613716565b6139456040830188613716565b6139526060830187613693565b61395f6080830186613693565b61396c60a0830185613693565b61397960c0830184613693565b98975050505050505050565b600061399082613374565b9050919050565b6139a081613985565b81146139ab57600080fd5b50565b6000813590506139bd81613997565b92915050565b60006139ce82613374565b9050919050565b6139de816139c3565b81146139e957600080fd5b50565b6000813590506139fb816139d5565b92915050565b6000613a0c82613374565b9050919050565b613a1c81613a01565b8114613a2757600080fd5b50565b600081359050613a3981613a13565b92915050565b600080600060608486031215613a5857613a576132b9565b5b6000613a66868287016139ae565b9350506020613a77868287016139ec565b9250506040613a8886828701613a2a565b9150509250925092565b613a9b816136f4565b82525050565b60e082016000820151613ab760008501826137fe565b506020820151613aca6020850182613a92565b506040820151613add6040850182613a92565b506060820151613af0606085018261380d565b506080820151613b03608085018261380d565b5060a0820151613b1660a085018261380d565b5060c0820151613b2960c085018261380d565b50505050565b600060e082019050613b446000830184613aa1565b92915050565b600080fd5b600080fd5b600080fd5b60008083601f840112613b6f57613b6e613b4a565b5b8235905067ffffffffffffffff811115613b8c57613b8b613b4f565b5b602083019150836020820283011115613ba857613ba7613b54565b5b9250929050565b600080600060408486031215613bc857613bc76132b9565b5b600084013567ffffffffffffffff811115613be657613be56132be565b5b613bf286828701613b59565b93509350506020613c058682870161339d565b9150509250925092565b60008060408385031215613c2657613c256132b9565b5b6000613c34858286016133d3565b9250506020613c45858286016133d3565b9150509250929050565b600060208284031215613c6557613c646132b9565b5b6000613c738482850161339d565b91505092915050565b7f4e487b7100000000000000000000000000000000000000000000000000000000600052601160045260246000fd5b6000613cb6826133b2565b9150613cc1836133b2565b9250828203905081811115613cd957613cd8613c7c565b5b92915050565b600082825260208201905092915050565b7f6d6f6e7468206d757374206265203c3d206c6f616e4d61784475726174696f6e60008201527f4d6f6e7468730000000000000000000000000000000000000000000000000000602082015250565b6000613d4c602683613cdf565b9150613d5782613cf0565b604082019050919050565b60006020820190508181036000830152613d7b81613d3f565b9050919050565b7f4e487b7100000000000000000000000000000000000000000000000000000000600052601260045260246000fd5b6000613dbc826133b2565b9150613dc7836133b2565b925082613dd757613dd6613d82565b5b828204905092915050565b6000613ded826133b2565b9150613df8836133b2565b9250828202613e06816133b2565b91508282048414831517613e1d57613e1c613c7c565b5b5092915050565b7f496e697469616c697a61626c653a20636f6e747261637420697320616c72656160008201527f647920696e697469616c697a6564000000000000000000000000000000000000602082015250565b6000613e80602e83613cdf565b9150613e8b82613e24565b604082019050919050565b60006020820190508181036000830152613eaf81613e73565b9050919050565b6000819050919050565b600060ff82169050919050565b6000613ee8613ee3613ede84613eb6565b6136ea565b613ec0565b9050919050565b613ef881613ecd565b82525050565b6000602082019050613f136000830184613eef565b92915050565b7f4e487b7100000000000000000000000000000000000000000000000000000000600052603260045260246000fd5b6000613f53826133b2565b91507fffffffffffffffffffffffffffffffffffffffffffffffffffffffffffffffff8203613f8557613f84613c7c565b5b600182019050919050565b7f737461747573206e6f7420666f7265636c6f73757261626c6500000000000000600082015250565b6000613fc6601983613cdf565b9150613fd182613f90565b602082019050919050565b60006020820190508181036000830152613ff581613fb9565b9050919050565b6000614007826133b2565b9150614012836133b2565b925082820190508082111561402a57614029613c7c565b5b92915050565b7f70726f706572747956616c756520646f65736e277420636f7665722064656274600082015250565b6000614066602083613cdf565b915061407182614030565b602082019050919050565b6000602082019050818103600083015261409581614059565b9050919050565b60006060820190506140b16000830186613548565b6140be6020830185613548565b6140cb6040830184613693565b949350505050565b60006080820190506140e86000830187613548565b6140f56020830186613693565b6141026040830185613693565b61410f6060830184613693565b95945050505050565b600081519050919050565b600081905092915050565b60005b8381101561414c578082015181840152602081019050614131565b60008484015250505050565b600061416382614118565b61416d8185614123565b935061417d81856020860161412e565b80840191505092915050565b60006141958284614158565b915081905092915050565b7f73746172744c6f616e2064656c656761746543616c6c206661696c6564000000600082015250565b60006141d6601d83613cdf565b91506141e1826141a0565b602082019050919050565b60006020820190508181036000830152614205816141c9565b9050919050565b7f4f776e61626c653a206e6577206f776e657220697320746865207a65726f206160008201527f6464726573730000000000000000000000000000000000000000000000000000602082015250565b6000614268602683613cdf565b91506142738261420c565b604082019050919050565b600060208201905081810360008301526142978161425b565b9050919050565b6000819050919050565b60006142b38261429e565b91506142be8361429e565b9250826142ce576142cd613d82565b5b600160000383147f80000000000000000000000000000000000000000000000000000000000000008314161561430757614306613c7c565b5b828205905092915050565b61431b8161429e565b82525050565b60006020820190506143366000830184614312565b92915050565b60006143478261429e565b91506143528361429e565b925082820390508181126000841216828213600085121516171561437957614378613c7c565b5b92915050565b600061439a6143956143908461429e565b6136ea565b61429e565b9050919050565b6143aa8161437f565b82525050565b60006040820190506143c560008301856143a1565b6143d260208301846143a1565b9392505050565b60006020820190506143ee60008301846143a1565b92915050565b60006143ff826133b2565b91506000820361441257614411613c7c565b5b600182039050919050565b7f4f776e61626c653a2063616c6c6572206973206e6f7420746865206f776e6572600082015250565b6000614453602083613cdf565b915061445e8261441d565b602082019050919050565b6000602082019050818103600083015261448281614446565b9050919050565b600060408201905061449e6000830185613548565b6144ab6020830184613693565b9392505050565b60006060820190506144c76000830186613693565b6144d46020830185613693565b6144e16040830184613693565b949350505050565b60006040820190506144fe6000830185613693565b61450b6020830184613693565b9392505050565b61451b8161348d565b811461452657600080fd5b50565b60008151905061453881614512565b92915050565b600060208284031215614554576145536132b9565b5b600061456284828501614529565b91505092915050565b7f5361666545524332303a204552433230206f7065726174696f6e20646964206e60008201527f6f74207375636365656400000000000000000000000000000000000000000000602082015250565b60006145c7602a83613cdf565b91506145d28261456b565b604082019050919050565b600060208201905081810360008301526145f6816145ba565b9050919050565b7f416464726573733a20696e73756666696369656e742062616c616e636520666f60008201527f722063616c6c0000000000000000000000000000000000000000000000000000602082015250565b6000614659602683613cdf565b9150614664826145fd565b604082019050919050565b600060208201905081810360008301526146888161464c565b9050919050565b7f416464726573733a2063616c6c20746f206e6f6e2d636f6e7472616374000000600082015250565b60006146c5601d83613cdf565b91506146d08261468f565b602082019050919050565b600060208201905081810360008301526146f4816146b8565b9050919050565b600081519050919050565b6000614711826146fb565b61471b8185613cdf565b935061472b81856020860161412e565b614734816132c8565b840191505092915050565b600060208201905081810360008301526147598184614706565b90509291505056fea26469706673582212208927415836c2760d131b9fb3a169ef59514d9303a0bb2963c11400704e457ba564736f6c63430008130033",
  "linkReferences": {},
  "deployedLinkReferences": {}
}