{
  "_format": "hh-sol-artifact-1",
  "contractName": "Automation",
  "sourceName": "contracts/protocol/borrowing/automation/Automation.sol",
  "abi": [
    {
      "inputs": [
        {
          "internalType": "uint256",
          "name": "x",
          "type": "uint256"
        },
        {
          "internalType": "uint256",
          "name": "y",
          "type": "uint256"
        }
      ],
      "name": "PRBMath_MulDiv18_Overflow",
      "type": "error"
    },
    {
      "inputs": [
        {
          "internalType": "uint256",
          "name": "x",
          "type": "uint256"
        },
        {
          "internalType": "uint256",
          "name": "y",
          "type": "uint256"
        },
        {
          "internalType": "uint256",
          "name": "denominator",
          "type": "uint256"
        }
      ],
      "name": "PRBMath_MulDiv_Overflow",
      "type": "error"
    },
    {
      "inputs": [
        {
          "internalType": "int256",
          "name": "x",
          "type": "int256"
        }
      ],
      "name": "PRBMath_SD59x18_Convert_Overflow",
      "type": "error"
    },
    {
      "inputs": [
        {
          "internalType": "int256",
          "name": "x",
          "type": "int256"
        }
      ],
      "name": "PRBMath_SD59x18_Convert_Underflow",
      "type": "error"
    },
    {
      "inputs": [
        {
          "internalType": "SD59x18",
          "name": "x",
          "type": "int256"
        }
      ],
      "name": "PRBMath_SD59x18_Exp2_InputTooBig",
      "type": "error"
    },
    {
      "inputs": [
        {
          "internalType": "SD59x18",
          "name": "x",
          "type": "int256"
        }
      ],
      "name": "PRBMath_SD59x18_IntoUD60x18_Underflow",
      "type": "error"
    },
    {
      "inputs": [
        {
          "internalType": "SD59x18",
          "name": "x",
          "type": "int256"
        }
      ],
      "name": "PRBMath_SD59x18_Log_InputTooSmall",
      "type": "error"
    },
    {
      "inputs": [],
      "name": "PRBMath_SD59x18_Mul_InputTooSmall",
      "type": "error"
    },
    {
      "inputs": [
        {
          "internalType": "SD59x18",
          "name": "x",
          "type": "int256"
        },
        {
          "internalType": "SD59x18",
          "name": "y",
          "type": "int256"
        }
      ],
      "name": "PRBMath_SD59x18_Mul_Overflow",
      "type": "error"
    },
    {
      "inputs": [
        {
          "internalType": "uint256",
          "name": "x",
          "type": "uint256"
        }
      ],
      "name": "PRBMath_UD60x18_Convert_Overflow",
      "type": "error"
    },
    {
      "inputs": [
        {
          "internalType": "UD60x18",
          "name": "x",
          "type": "uint256"
        }
      ],
      "name": "PRBMath_UD60x18_IntoSD59x18_Overflow",
      "type": "error"
    },
    {
      "anonymous": false,
      "inputs": [
        {
          "indexed": false,
          "internalType": "uint8",
          "name": "version",
          "type": "uint8"
        }
      ],
      "name": "Initialized",
      "type": "event"
    },
    {
      "anonymous": false,
      "inputs": [
        {
          "indexed": true,
          "internalType": "address",
          "name": "previousOwner",
          "type": "address"
        },
        {
          "indexed": true,
          "internalType": "address",
          "name": "newOwner",
          "type": "address"
        }
      ],
      "name": "OwnershipTransferred",
      "type": "event"
    },
    {
      "inputs": [
        {
          "internalType": "uint256",
          "name": "",
          "type": "uint256"
        }
      ],
      "name": "_loans",
      "outputs": [
        {
          "internalType": "address",
          "name": "borrower",
          "type": "address"
        },
        {
          "internalType": "UD60x18",
          "name": "ratePerSecond",
          "type": "uint256"
        },
        {
          "internalType": "UD60x18",
          "name": "paymentPerSecond",
          "type": "uint256"
        },
        {
          "internalType": "uint256",
          "name": "startTime",
          "type": "uint256"
        },
        {
          "internalType": "uint256",
          "name": "unpaidPrincipal",
          "type": "uint256"
        },
        {
          "internalType": "uint256",
          "name": "maxDurationSeconds",
          "type": "uint256"
        },
        {
          "internalType": "uint256",
          "name": "lastPaymentTime",
          "type": "uint256"
        }
      ],
      "stateMutability": "view",
      "type": "function"
    },
    {
      "inputs": [
        {
          "internalType": "uint256",
          "name": "tokenId",
          "type": "uint256"
        }
      ],
      "name": "accruedInterest",
      "outputs": [
        {
          "internalType": "uint256",
          "name": "",
          "type": "uint256"
        }
      ],
      "stateMutability": "view",
      "type": "function"
    },
    {
      "inputs": [],
      "name": "availableLiquidity",
      "outputs": [
        {
          "internalType": "uint256",
          "name": "",
          "type": "uint256"
        }
      ],
      "stateMutability": "view",
      "type": "function"
    },
    {
      "inputs": [
        {
          "components": [
            {
              "internalType": "address",
              "name": "bidder",
              "type": "address"
            },
            {
              "internalType": "uint256",
              "name": "propertyValue",
              "type": "uint256"
            },
            {
              "internalType": "uint256",
              "name": "downPayment",
              "type": "uint256"
            },
            {
              "internalType": "uint256",
              "name": "maxDurationMonths",
              "type": "uint256"
            }
          ],
          "internalType": "struct IState.Bid",
          "name": "bid",
          "type": "tuple"
        }
      ],
      "name": "bidActionable",
      "outputs": [
        {
          "internalType": "bool",
          "name": "",
          "type": "bool"
        }
      ],
      "stateMutability": "view",
      "type": "function"
    },
    {
      "inputs": [
        {
          "internalType": "uint256",
          "name": "tokenId",
          "type": "uint256"
        }
      ],
      "name": "bids",
      "outputs": [
        {
          "components": [
            {
              "internalType": "address",
              "name": "bidder",
              "type": "address"
            },
            {
              "internalType": "uint256",
              "name": "propertyValue",
              "type": "uint256"
            },
            {
              "internalType": "uint256",
              "name": "downPayment",
              "type": "uint256"
            },
            {
              "internalType": "uint256",
              "name": "maxDurationMonths",
              "type": "uint256"
            }
          ],
          "internalType": "struct IState.Bid[]",
          "name": "",
          "type": "tuple[]"
        }
      ],
      "stateMutability": "view",
      "type": "function"
    },
    {
      "inputs": [
        {
          "internalType": "uint256",
          "name": "principal",
          "type": "uint256"
        },
        {
          "internalType": "UD60x18",
          "name": "ratePerSecond",
          "type": "uint256"
        },
        {
          "internalType": "uint256",
          "name": "maxDurationSeconds",
          "type": "uint256"
        }
      ],
      "name": "calculatePaymentPerSecond",
      "outputs": [
        {
          "internalType": "UD60x18",
          "name": "paymentPerSecond",
          "type": "uint256"
        }
      ],
      "stateMutability": "pure",
      "type": "function"
    },
    {
      "inputs": [
        {
          "internalType": "bytes",
          "name": "",
          "type": "bytes"
        }
      ],
      "name": "checkUpkeep",
      "outputs": [
        {
          "internalType": "bool",
          "name": "upkeepNeeded",
          "type": "bool"
        },
        {
          "internalType": "bytes",
          "name": "performData",
          "type": "bytes"
        }
      ],
      "stateMutability": "view",
      "type": "function"
    },
    {
      "inputs": [],
      "name": "defaultFeeSpread",
      "outputs": [
        {
          "internalType": "UD60x18",
          "name": "",
          "type": "uint256"
        }
      ],
      "stateMutability": "view",
      "type": "function"
    },
    {
      "inputs": [
        {
          "internalType": "uint256",
          "name": "tokenId",
          "type": "uint256"
        }
      ],
      "name": "findHighestActionableBidIdx",
      "outputs": [
        {
          "internalType": "uint256",
          "name": "highestActionableIdx",
          "type": "uint256"
        }
      ],
      "stateMutability": "view",
      "type": "function"
    },
    {
      "inputs": [
        {
          "internalType": "contract tUsdc",
          "name": "_tUSDC",
          "type": "address"
        },
        {
          "internalType": "contract TangibleNft",
          "name": "_prosperaNftContract",
          "type": "address"
        }
      ],
      "name": "initialize",
      "outputs": [],
      "stateMutability": "nonpayable",
      "type": "function"
    },
    {
      "inputs": [],
      "name": "lenderApy",
      "outputs": [
        {
          "internalType": "UD60x18",
          "name": "",
          "type": "uint256"
        }
      ],
      "stateMutability": "view",
      "type": "function"
    },
    {
      "inputs": [
        {
          "components": [
            {
              "internalType": "address",
              "name": "bidder",
              "type": "address"
            },
            {
              "internalType": "uint256",
              "name": "propertyValue",
              "type": "uint256"
            },
            {
              "internalType": "uint256",
              "name": "downPayment",
              "type": "uint256"
            },
            {
              "internalType": "uint256",
              "name": "maxDurationMonths",
              "type": "uint256"
            }
          ],
          "internalType": "struct IState.Bid",
          "name": "_bid",
          "type": "tuple"
        }
      ],
      "name": "loanBidActionable",
      "outputs": [
        {
          "internalType": "bool",
          "name": "",
          "type": "bool"
        }
      ],
      "stateMutability": "view",
      "type": "function"
    },
    {
      "inputs": [
        {
          "internalType": "uint256",
          "name": "tokenId",
          "type": "uint256"
        }
      ],
      "name": "loans",
      "outputs": [
        {
          "components": [
            {
              "internalType": "address",
              "name": "borrower",
              "type": "address"
            },
            {
              "internalType": "UD60x18",
              "name": "ratePerSecond",
              "type": "uint256"
            },
            {
              "internalType": "UD60x18",
              "name": "paymentPerSecond",
              "type": "uint256"
            },
            {
              "internalType": "uint256",
              "name": "startTime",
              "type": "uint256"
            },
            {
              "internalType": "uint256",
              "name": "unpaidPrincipal",
              "type": "uint256"
            },
            {
              "internalType": "uint256",
              "name": "maxDurationSeconds",
              "type": "uint256"
            },
            {
              "internalType": "uint256",
              "name": "lastPaymentTime",
              "type": "uint256"
            }
          ],
          "internalType": "struct IState.Loan",
          "name": "",
          "type": "tuple"
        }
      ],
      "stateMutability": "view",
      "type": "function"
    },
    {
      "inputs": [
        {
          "internalType": "uint256",
          "name": "idx",
          "type": "uint256"
        }
      ],
      "name": "loansTokenIdsAt",
      "outputs": [
        {
          "internalType": "uint256",
          "name": "tokenId",
          "type": "uint256"
        }
      ],
      "stateMutability": "view",
      "type": "function"
    },
    {
      "inputs": [],
      "name": "loansTokenIdsLength",
      "outputs": [
        {
          "internalType": "uint256",
          "name": "",
          "type": "uint256"
        }
      ],
      "stateMutability": "view",
      "type": "function"
    },
    {
      "inputs": [
        {
          "internalType": "bytes4",
          "name": "",
          "type": "bytes4"
        }
      ],
      "name": "logicTargets",
      "outputs": [
        {
          "internalType": "address",
          "name": "",
          "type": "address"
        }
      ],
      "stateMutability": "view",
      "type": "function"
    },
    {
      "inputs": [],
      "name": "maxDurationMonthsCap",
      "outputs": [
        {
          "internalType": "uint256",
          "name": "",
          "type": "uint256"
        }
      ],
      "stateMutability": "view",
      "type": "function"
    },
    {
      "inputs": [],
      "name": "maxLtv",
      "outputs": [
        {
          "internalType": "UD60x18",
          "name": "",
          "type": "uint256"
        }
      ],
      "stateMutability": "view",
      "type": "function"
    },
    {
      "inputs": [],
      "name": "monthSeconds",
      "outputs": [
        {
          "internalType": "uint256",
          "name": "",
          "type": "uint256"
        }
      ],
      "stateMutability": "view",
      "type": "function"
    },
    {
      "inputs": [],
      "name": "optimalUtilization",
      "outputs": [
        {
          "internalType": "UD60x18",
          "name": "",
          "type": "uint256"
        }
      ],
      "stateMutability": "view",
      "type": "function"
    },
    {
      "inputs": [],
      "name": "owner",
      "outputs": [
        {
          "internalType": "address",
          "name": "",
          "type": "address"
        }
      ],
      "stateMutability": "view",
      "type": "function"
    },
    {
      "inputs": [
        {
          "internalType": "uint256",
          "name": "tokenId",
          "type": "uint256"
        },
        {
          "internalType": "uint256",
          "name": "payment",
          "type": "uint256"
        }
      ],
      "name": "payLoan",
      "outputs": [],
      "stateMutability": "nonpayable",
      "type": "function"
    },
    {
      "inputs": [
        {
          "internalType": "bytes",
          "name": "performData",
          "type": "bytes"
        }
      ],
      "name": "performUpkeep",
      "outputs": [],
      "stateMutability": "nonpayable",
      "type": "function"
    },
    {
      "inputs": [
        {
          "components": [
            {
              "internalType": "address",
              "name": "borrower",
              "type": "address"
            },
            {
              "internalType": "UD60x18",
              "name": "ratePerSecond",
              "type": "uint256"
            },
            {
              "internalType": "UD60x18",
              "name": "paymentPerSecond",
              "type": "uint256"
            },
            {
              "internalType": "uint256",
              "name": "startTime",
              "type": "uint256"
            },
            {
              "internalType": "uint256",
              "name": "unpaidPrincipal",
              "type": "uint256"
            },
            {
              "internalType": "uint256",
              "name": "maxDurationSeconds",
              "type": "uint256"
            },
            {
              "internalType": "uint256",
              "name": "lastPaymentTime",
              "type": "uint256"
            }
          ],
          "internalType": "struct IState.Loan",
          "name": "loan",
          "type": "tuple"
        },
        {
          "internalType": "uint256",
          "name": "month",
          "type": "uint256"
        }
      ],
      "name": "principalCap",
      "outputs": [
        {
          "internalType": "uint256",
          "name": "cap",
          "type": "uint256"
        }
      ],
      "stateMutability": "pure",
      "type": "function"
    },
    {
      "inputs": [
        {
          "internalType": "uint256",
          "name": "tokenId",
          "type": "uint256"
        }
      ],
      "name": "redeemLoan",
      "outputs": [],
      "stateMutability": "nonpayable",
      "type": "function"
    },
    {
      "inputs": [],
      "name": "redemptionFeeSpread",
      "outputs": [
        {
          "internalType": "UD60x18",
          "name": "",
          "type": "uint256"
        }
      ],
      "stateMutability": "view",
      "type": "function"
    },
    {
      "inputs": [],
      "name": "renounceOwnership",
      "outputs": [],
      "stateMutability": "nonpayable",
      "type": "function"
    },
    {
      "inputs": [
        {
          "internalType": "bytes4[]",
          "name": "selectorsArr",
          "type": "bytes4[]"
        },
        {
          "internalType": "address",
          "name": "target",
          "type": "address"
        }
      ],
      "name": "setSelectorsTarget",
      "outputs": [],
      "stateMutability": "nonpayable",
      "type": "function"
    },
    {
      "inputs": [
        {
          "internalType": "address",
          "name": "borrower",
          "type": "address"
        },
        {
          "internalType": "uint256",
          "name": "tokenId",
          "type": "uint256"
        },
        {
          "internalType": "uint256",
          "name": "principal",
          "type": "uint256"
        },
        {
          "internalType": "uint256",
          "name": "maxDurationMonths",
          "type": "uint256"
        }
      ],
      "name": "startLoan",
      "outputs": [],
      "stateMutability": "nonpayable",
      "type": "function"
    },
    {
      "inputs": [
        {
          "internalType": "uint256",
          "name": "tokenId",
          "type": "uint256"
        }
      ],
      "name": "status",
      "outputs": [
        {
          "internalType": "enum IState.Status",
          "name": "",
          "type": "uint8"
        }
      ],
      "stateMutability": "view",
      "type": "function"
    },
    {
      "inputs": [
        {
          "internalType": "uint256",
          "name": "tokenId",
          "type": "uint256"
        }
      ],
      "name": "tokenIdBidsLength",
      "outputs": [
        {
          "internalType": "uint256",
          "name": "",
          "type": "uint256"
        }
      ],
      "stateMutability": "view",
      "type": "function"
    },
    {
      "inputs": [],
      "name": "totalDeposits",
      "outputs": [
        {
          "internalType": "uint256",
          "name": "",
          "type": "uint256"
        }
      ],
      "stateMutability": "view",
      "type": "function"
    },
    {
      "inputs": [],
      "name": "totalPrincipal",
      "outputs": [
        {
          "internalType": "uint256",
          "name": "",
          "type": "uint256"
        }
      ],
      "stateMutability": "view",
      "type": "function"
    },
    {
      "inputs": [
        {
          "internalType": "address",
          "name": "newOwner",
          "type": "address"
        }
      ],
      "name": "transferOwnership",
      "outputs": [],
      "stateMutability": "nonpayable",
      "type": "function"
    },
    {
      "inputs": [],
      "name": "utilization",
      "outputs": [
        {
          "internalType": "UD60x18",
          "name": "",
          "type": "uint256"
        }
      ],
      "stateMutability": "view",
      "type": "function"
    },
    {
      "inputs": [],
      "name": "yearMonths",
      "outputs": [
        {
          "internalType": "uint256",
          "name": "",
          "type": "uint256"
        }
      ],
      "stateMutability": "view",
      "type": "function"
    },
    {
      "inputs": [],
      "name": "yearSeconds",
      "outputs": [
        {
          "internalType": "uint256",
          "name": "",
          "type": "uint256"
        }
      ],
      "stateMutability": "view",
      "type": "function"
    }
  ],
  "bytecode": "0x608060405273a0b86991c6218b36c1d19d4a2e9eb0ce3606eb486002806101000a81548173ffffffffffffffffffffffffffffffffffffffff021916908373ffffffffffffffffffffffffffffffffffffffff1602179055506200008f6200006e60646200027d60201b60201c565b62000080605a6200027d60201b60201c565b6200030e60201b90919060201c565b600755620000c9620000a860646200027d60201b60201c565b620000ba60046200027d60201b60201c565b6200030e60201b90919060201c565b60085562000103620000e260646200027d60201b60201c565b620000f460036200027d60201b60201c565b6200030e60201b90919060201c565b6009556200011860096200027d60201b60201c565b600a55620001526200013160646200027d60201b60201c565b6200014360016200027d60201b60201c565b6200030e60201b90919060201c565b600b556200018c6200016b60646200027d60201b60201c565b6200017d60026200027d60201b60201c565b6200030e60201b90919060201c565b600c55620001c6620001a560646200027d60201b60201c565b620001b760036200027d60201b60201c565b6200030e60201b90919060201c565b600d5562000200620001df60646200027d60201b60201c565b620001f160046200027d60201b60201c565b6200030e60201b90919060201c565b600e55623b5380601455620002416200022060646200027d60201b60201c565b6200023260326200027d60201b60201c565b6200030e60201b90919060201c565b60155560786016553480156200025657600080fd5b50620002776200026b6200036360201b60201c565b6200036b60201b60201c565b62000641565b6000670de0b6b3a76400007fffffffffffffffffffffffffffffffffffffffffffffffffffffffffffffffff620002b591906200059e565b821115620002fc57816040517f1cd951a7000000000000000000000000000000000000000000000000000000008152600401620002f39190620005e7565b60405180910390fd5b670de0b6b3a764000082029050919050565b60006200035b6200034f62000329856200042f60201b60201c565b670de0b6b3a764000062000343866200042f60201b60201c565b6200043960201b60201c565b6200055b60201b60201c565b905092915050565b600033905090565b60008060009054906101000a900473ffffffffffffffffffffffffffffffffffffffff169050816000806101000a81548173ffffffffffffffffffffffffffffffffffffffff021916908373ffffffffffffffffffffffffffffffffffffffff1602179055508173ffffffffffffffffffffffffffffffffffffffff168173ffffffffffffffffffffffffffffffffffffffff167f8be0079c531659141344cd1fd0a4f28419497f9722a3daafe3b4186f6b6457e060405160405180910390a35050565b6000819050919050565b600080600080198587098587029250828110838203039150506000810362000479578382816200046e576200046d6200056f565b5b049250505062000554565b838110620004c4578585856040517f63a05778000000000000000000000000000000000000000000000000000000008152600401620004bb9392919062000604565b60405180910390fd5b60008486880990508281118203915080830392506000600186190186169050600081870496508185049450600182836000030401905080840285179450600060028860030218905080880260020381029050808802600203810290508088026002038102905080880260020381029050808802600203810290508088026002038102905080860296505050505050505b9392505050565b6000819050919050565b6000819050919050565b7f4e487b7100000000000000000000000000000000000000000000000000000000600052601260045260246000fd5b6000620005ab8262000565565b9150620005b88362000565565b925082620005cb57620005ca6200056f565b5b828204905092915050565b620005e18162000565565b82525050565b6000602082019050620005fe6000830184620005d6565b92915050565b60006060820190506200061b6000830186620005d6565b6200062a6020830185620005d6565b620006396040830184620005d6565b949350505050565b6155fc80620006516000396000f3fe608060405234801561001057600080fd5b50600436106102275760003560e01c806374bdf96a11610130578063a54cab1c116100b8578063e1ec3c681161007c578063e1ec3c68146106bf578063e3435044146106ef578063ea21cd921461070b578063f2fde38b14610729578063ff9ad6df1461074557610227565b8063a54cab1c146105ed578063ab01f7e11461060b578063bb4f283414610629578063bcff3e3b14610659578063bd5c569b1461068957610227565b806389306e61116100ff57806389306e61146105355780638da5cb5b1461055157806394f8d2531461056f578063958cd8d21461058d578063a0024c2f146105bd57610227565b806374bdf96a146104ab5780637d882097146104db578063812cf018146104f957806387ae0dbe1461051757610227565b80634585e33b116101b35780636290cd1c116101825780636290cd1c1461041857806367ffc6aa146104365780636e04ff0d14610452578063715018a614610483578063743753591461048d57610227565b80634585e33b146103a4578063485cc955146103c05780634abb3003146103dc5780634b1533b2146103fa57610227565b80632da10923116101fa5780632da10923146102d85780633a12c6da146103085780633ca36db61461032657806342d21ef7146103445780634423c5f11461037457610227565b80630a9cc0b61461022c5780630feee81e1461025c57806317548b79146102785780631cc03c87146102a8575b600080fd5b61024660048036038101906102419190613fcd565b610763565b6040516102539190614015565b60405180910390f35b61027660048036038101906102719190614030565b6107d8565b005b610292600480360381019061028d91906140ef565b610c3c565b60405161029f919061412b565b60405180910390f35b6102c260048036038101906102bd9190614226565b610c6f565b6040516102cf9190614276565b60405180910390f35b6102f260048036038101906102ed9190614291565b610dd1565b6040516102ff9190614276565b60405180910390f35b610310610df1565b60405161031d91906142f9565b60405180910390f35b61032e610df7565b60405161033b91906142f9565b60405180910390f35b61035e60048036038101906103599190614291565b610e01565b60405161036b919061438b565b60405180910390f35b61038e60048036038101906103899190614291565b610f48565b60405161039b91906144c8565b60405180910390f35b6103be60048036038101906103b9919061454f565b61102e565b005b6103da60048036038101906103d59190614618565b6111c7565b005b6103e4611388565b6040516103f191906142f9565b60405180910390f35b610402611392565b60405161040f9190614276565b60405180910390f35b610420611398565b60405161042d91906142f9565b60405180910390f35b610450600480360381019061044b9190614291565b61139e565b005b61046c6004803603810190610467919061454f565b611532565b60405161047a9291906146d7565b60405180910390f35b61048b6115ed565b005b610495611601565b6040516104a29190614276565b60405180910390f35b6104c560048036038101906104c09190614291565b611618565b6040516104d29190614276565b60405180910390f35b6104e3611635565b6040516104f09190614276565b60405180910390f35b61050161163b565b60405161050e9190614276565b60405180910390f35b61051f611640565b60405161052c9190614276565b60405180910390f35b61054f600480360381019061054a9190614707565b611648565b005b6105596117fb565b604051610566919061412b565b60405180910390f35b610577611824565b60405161058491906142f9565b60405180910390f35b6105a760048036038101906105a29190614291565b611829565b6040516105b49190614276565b60405180910390f35b6105d760048036038101906105d29190613fcd565b611990565b6040516105e49190614015565b60405180910390f35b6105f56119b4565b6040516106029190614276565b60405180910390f35b6106136119ba565b6040516106209190614276565b60405180910390f35b610643600480360381019061063e9190614747565b6119cb565b60405161065091906142f9565b60405180910390f35b610673600480360381019061066e9190614291565b611a62565b6040516106809190614276565b60405180910390f35b6106a3600480360381019061069e9190614291565b611b23565b6040516106b6979695949392919061479a565b60405180910390f35b6106d960048036038101906106d49190614291565b611b85565b6040516106e691906148a6565b60405180910390f35b61070960048036038101906107049190614917565b611c44565b005b610713611d2a565b60405161072091906142f9565b60405180910390f35b610743600480360381019061073e9190614977565b611d86565b005b61074d611e09565b60405161075a9190614276565b60405180910390f35b6000808260400151836020015161077a91906149d3565b905060006107a561078e8560200151611e1d565b61079784611e1d565b611ea990919063ffffffff16565b90506107bc60155482611ede90919063ffffffff16565b80156107cf57506107cb611601565b8211155b92505050919050565b3073ffffffffffffffffffffffffffffffffffffffff16600460009054906101000a900473ffffffffffffffffffffffffffffffffffffffff1673ffffffffffffffffffffffffffffffffffffffff16636352211e856040518263ffffffff1660e01b815260040161084a9190614276565b602060405180830381865afa158015610867573d6000803e3d6000fd5b505050506040513d601f19601f8201168201806040525081019061088b9190614a1c565b73ffffffffffffffffffffffffffffffffffffffff16146108e1576040517f08c379a00000000000000000000000000000000000000000000000000000000081526004016108d890614aa6565b60405180910390fd5b60008060016000631e27d1de60e01b7bffffffffffffffffffffffffffffffffffffffffffffffffffffffff19167bffffffffffffffffffffffffffffffffffffffffffffffffffffffff1916815260200190815260200160002060009054906101000a900473ffffffffffffffffffffffffffffffffffffffff1673ffffffffffffffffffffffffffffffffffffffff1661097b611d2a565b60405160240161098b91906142f9565b604051602081830303815290604052631e27d1de60e01b6020820180517bffffffffffffffffffffffffffffffffffffffffffffffffffffffff83818316178352505050506040516109dd9190614b02565b6000604051808303816000865af19150503d8060008114610a1a576040519150601f19603f3d011682016040523d82523d6000602084013e610a1f565b606091505b509150915081610a64576040517f08c379a0000000000000000000000000000000000000000000000000000000008152600401610a5b90614b8b565b60405180910390fd5b600081806020019051810190610a7a9190614bc0565b90506000600c6301e13380610a8f9190614c1c565b85610a9a9190614c4d565b90506000610aa98784846119cb565b9050610ac7610ab86000611e1d565b82611efc90919063ffffffff16565b610ad457610ad3614c8f565b5b6000610af9610af4610ae585611e1d565b84611f1990919063ffffffff16565b611f45565b9050878111610b0b57610b0a614c8f565b5b6040518060e001604052808b73ffffffffffffffffffffffffffffffffffffffff16815260200185815260200183815260200142815260200189815260200184815260200142815250601060008b815260200190815260200160002060008201518160000160006101000a81548173ffffffffffffffffffffffffffffffffffffffff021916908373ffffffffffffffffffffffffffffffffffffffff1602179055506020820151816001015560408201518160020155606082015181600301556080820151816004015560a0820151816005015560c082015181600601559050508760056000828254610bff9190614cbe565b925050819055506006546005541115610c1b57610c1a614c8f565b5b610c2f896011611f6290919063ffffffff16565b5050505050505050505050565b60016020528060005260406000206000915054906101000a900473ffffffffffffffffffffffffffffffffffffffff1681565b6000610c7a83611f7c565b821115610cbc576040517f08c379a0000000000000000000000000000000000000000000000000000000008152600401610cb390614d64565b60405180910390fd5b6000600c6301e13380610ccf9190614c1c565b83610cda9190614c4d565b90506000610d20610ceb6001611fa5565b610d12610cfb8860a00151611fa5565b610d0486611fa5565b6120a990919063ffffffff16565b6120a990919063ffffffff16565b90506000610d79610d6183610d53610d4e8a60200151610d406001611e1d565b6120d790919063ffffffff16565b612105565b61217990919063ffffffff16565b610d6b6001611fa5565b6120a990919063ffffffff16565b90506000610da4610d9f83610d918a60400151612105565b61223790919063ffffffff16565b6123c7565b9050610dc5610dc0886020015183611ea990919063ffffffff16565b611f45565b94505050505092915050565b6000600f6000838152602001908152602001600020805490509050919050565b60155481565b6000600d54905090565b600080601060008481526020019081526020016000206040518060e00160405290816000820160009054906101000a900473ffffffffffffffffffffffffffffffffffffffff1673ffffffffffffffffffffffffffffffffffffffff1673ffffffffffffffffffffffffffffffffffffffff16815260200160018201548152602001600282015481526020016003820154815260200160048201548152602001600582015481526020016006820154815250509050600073ffffffffffffffffffffffffffffffffffffffff16816000015173ffffffffffffffffffffffffffffffffffffffff1603610ef8576000915050610f43565b610f018361241c565b15610f3d576000610f1182612531565b42610f1c91906149d3565b90506014548111610f3257600292505050610f43565b600392505050610f43565b60019150505b919050565b6060600f6000838152602001908152602001600020805480602002602001604051908101604052809291908181526020016000905b8282101561102357838290600052602060002090600402016040518060800160405290816000820160009054906101000a900473ffffffffffffffffffffffffffffffffffffffff1673ffffffffffffffffffffffffffffffffffffffff1673ffffffffffffffffffffffffffffffffffffffff168152602001600182015481526020016002820154815260200160038201548152505081526020019060010190610f7d565b505050509050919050565b60008083838101906110409190614707565b915091506000600160006302e9d5e460e01b7bffffffffffffffffffffffffffffffffffffffffffffffffffffffff19167bffffffffffffffffffffffffffffffffffffffffffffffffffffffff1916815260200190815260200160002060009054906101000a900473ffffffffffffffffffffffffffffffffffffffff1673ffffffffffffffffffffffffffffffffffffffff1683836040516024016110e8929190614d84565b6040516020818303038152906040526302e9d5e460e01b6020820180517bffffffffffffffffffffffffffffffffffffffffffffffffffffffff838183161783525050505060405161113a9190614b02565b6000604051808303816000865af19150503d8060008114611177576040519150601f19603f3d011682016040523d82523d6000602084013e61117c565b606091505b50509050806111c0576040517f08c379a00000000000000000000000000000000000000000000000000000000081526004016111b790614df9565b60405180910390fd5b5050505050565b6000600260019054906101000a900460ff161590508080156111fb57506001600260009054906101000a900460ff1660ff16105b8061122a575061120a306125dc565b15801561122957506001600260009054906101000a900460ff1660ff16145b5b611269576040517f08c379a000000000000000000000000000000000000000000000000000000000815260040161126090614e8b565b60405180910390fd5b6001600260006101000a81548160ff021916908360ff16021790555080156112a7576001600260016101000a81548160ff0219169083151502179055505b82600360006101000a81548173ffffffffffffffffffffffffffffffffffffffff021916908373ffffffffffffffffffffffffffffffffffffffff16021790555081600460006101000a81548173ffffffffffffffffffffffffffffffffffffffff021916908373ffffffffffffffffffffffffffffffffffffffff1602179055508015611383576000600260016101000a81548160ff0219169083151502179055507f7f26b83ff96e1f2b6a682f133852f6798a09c465da95921460cefb3847402498600160405161137a9190614ef3565b60405180910390a15b505050565b6000600e54905090565b60055481565b60075481565b600260038111156113b2576113b1614314565b5b6113bb82610e01565b60038111156113cd576113cc614314565b5b1461140d576040517f08c379a000000000000000000000000000000000000000000000000000000000815260040161140490614f5a565b60405180910390fd5b6000601060008381526020019081526020016000209050600061142f83611a62565b905060008183600401546114439190614cbe565b9050600061146c611467600d5461145985611e1d565b611f1990919063ffffffff16565b611f45565b90506114c63330838561147f9190614cbe565b60028054906101000a900473ffffffffffffffffffffffffffffffffffffffff1673ffffffffffffffffffffffffffffffffffffffff166125ff909392919063ffffffff16565b8360040154600560008282546114dc91906149d3565b9250508190555082600660008282546114f59190614cbe565b9250508190555061152b848560000160009054906101000a900473ffffffffffffffffffffffffffffffffffffffff1687612688565b5050505050565b6000606060005b6115436011612777565b8110156115e557600061156082601161278c90919063ffffffff16565b905060038081111561157557611574614314565b5b61157e82610e01565b60038111156115905761158f614314565b5b036115d15760006115a082611829565b90506001945081816040516020016115b9929190614d84565b604051602081830303815290604052935050506115e5565b5080806115dd90614f7a565b915050611539565b509250929050565b6115f56127a6565b6115ff6000612824565b565b600060055460065461161391906149d3565b905090565b600061162e82601161278c90919063ffffffff16565b9050919050565b60065481565b600c81565b6301e1338081565b6001600381111561165c5761165b614314565b5b61166583610e01565b600381111561167757611676614314565b5b146116b7576040517f08c379a00000000000000000000000000000000000000000000000000000000081526004016116ae9061500e565b60405180910390fd5b60006116c283611a62565b905060006010600085815260200190815260200160002090508181600401546116eb9190614cbe565b831115611705578181600401546117029190614cbe565b92505b61175233308560028054906101000a900473ffffffffffffffffffffffffffffffffffffffff1673ffffffffffffffffffffffffffffffffffffffff166125ff909392919063ffffffff16565b6000828461176091906149d3565b90508082600401600082825461177691906149d3565b92505081905550428260060181905550806005600082825461179891906149d3565b9250508190555082600660008282546117b19190614cbe565b9250508190555060008260040154036117f4576117f3828360000160009054906101000a900473ffffffffffffffffffffffffffffffffffffffff1687612688565b5b5050505050565b60008060009054906101000a900473ffffffffffffffffffffffffffffffffffffffff16905090565b600090565b600080600f6000848152602001908152602001600020805480602002602001604051908101604052809291908181526020016000905b8282101561190557838290600052602060002090600402016040518060800160405290816000820160009054906101000a900473ffffffffffffffffffffffffffffffffffffffff1673ffffffffffffffffffffffffffffffffffffffff1673ffffffffffffffffffffffffffffffffffffffff16815260200160018201548152602001600282015481526020016003820154815250508152602001906001019061185f565b50505050905060005b815181101561198957600082828151811061192c5761192b61502e565b5b602002602001015190508284815181106119495761194861502e565b5b602002602001015160200151816020015111801561196c575061196b81611990565b5b15611975578193505b50808061198190614f7a565b91505061190e565b5050919050565b60008160400151826020015114806119ad57506119ac82610763565b5b9050919050565b60165481565b60006119c66011612777565b905090565b6000806119fc836119ee866119e06001611e1d565b6120d790919063ffffffff16565b6128e890919063ffffffff16565b9050611a58611a1d611a0e6001611e1d565b8361296990919063ffffffff16565b611a4a83611a3c88611a2e8b611e1d565b611f1990919063ffffffff16565b611f1990919063ffffffff16565b611ea990919063ffffffff16565b9150509392505050565b6000611b1c601060008481526020019081526020016000206040518060e00160405290816000820160009054906101000a900473ffffffffffffffffffffffffffffffffffffffff1673ffffffffffffffffffffffffffffffffffffffff1673ffffffffffffffffffffffffffffffffffffffff1681526020016001820154815260200160028201548152602001600382015481526020016004820154815260200160058201548152602001600682015481525050612997565b9050919050565b60106020528060005260406000206000915090508060000160009054906101000a900473ffffffffffffffffffffffffffffffffffffffff16908060010154908060020154908060030154908060040154908060050154908060060154905087565b611b8d613dc9565b601060008381526020019081526020016000206040518060e00160405290816000820160009054906101000a900473ffffffffffffffffffffffffffffffffffffffff1673ffffffffffffffffffffffffffffffffffffffff1673ffffffffffffffffffffffffffffffffffffffff16815260200160018201548152602001600282015481526020016003820154815260200160048201548152602001600582015481526020016006820154815250509050919050565b611c4c6127a6565b60005b83839050811015611d24578160016000868685818110611c7257611c7161502e565b5b9050602002016020810190611c8791906140ef565b7bffffffffffffffffffffffffffffffffffffffffffffffffffffffff19167bffffffffffffffffffffffffffffffffffffffffffffffffffffffff1916815260200190815260200160002060006101000a81548173ffffffffffffffffffffffffffffffffffffffff021916908373ffffffffffffffffffffffffffffffffffffffff1602179055508080611d1c90614f7a565b915050611c4f565b50505050565b60008060065403611d5957600060055414611d4857611d47614c8f565b5b611d526000611e1d565b9050611d83565b611d80611d67600654611e1d565b611d72600554611e1d565b611ea990919063ffffffff16565b90505b90565b611d8e6127a6565b600073ffffffffffffffffffffffffffffffffffffffff168173ffffffffffffffffffffffffffffffffffffffff1603611dfd576040517f08c379a0000000000000000000000000000000000000000000000000000000008152600401611df4906150cf565b60405180910390fd5b611e0681612824565b50565b600c6301e13380611e1a9190614c1c565b81565b6000670de0b6b3a76400007fffffffffffffffffffffffffffffffffffffffffffffffffffffffffffffffff611e539190614c1c565b821115611e9757816040517f1cd951a7000000000000000000000000000000000000000000000000000000008152600401611e8e9190614276565b60405180910390fd5b670de0b6b3a764000082029050919050565b6000611ed6611ed1611eba856129cf565b670de0b6b3a7640000611ecc866129cf565b6129d9565b612af3565b905092915050565b6000611ee9826129cf565b611ef2846129cf565b1115905092915050565b6000611f07826129cf565b611f10846129cf565b11905092915050565b6000611f3d611f38611f2a856129cf565b611f33856129cf565b612afd565b612af3565b905092915050565b6000670de0b6b3a764000082611f5b9190614c1c565b9050919050565b6000611f74836000018360001b612be7565b905092915050565b60006301e133808260a00151600c611f949190614c4d565b611f9e9190614c1c565b9050919050565b6000670de0b6b3a76400007f8000000000000000000000000000000000000000000000000000000000000000611fdb91906150f9565b82121561201f57816040517f99474eeb0000000000000000000000000000000000000000000000000000000081526004016120169190615172565b60405180910390fd5b670de0b6b3a76400007f7fffffffffffffffffffffffffffffffffffffffffffffffffffffffffffffff61205391906150f9565b82131561209757816040517f9d58109100000000000000000000000000000000000000000000000000000000815260040161208e9190615172565b60405180910390fd5b670de0b6b3a764000082029050919050565b60006120cf6120b783612c57565b6120c085612c57565b6120ca919061518d565b612c61565b905092915050565b60006120fd6120e5836129cf565b6120ee856129cf565b6120f89190614cbe565b612af3565b905092915050565b6000808290507f7fffffffffffffffffffffffffffffffffffffffffffffffffffffffffffffff81111561217057826040517ff461868400000000000000000000000000000000000000000000000000000000815260040161216791906142f9565b60405180910390fd5b80915050919050565b60008061218584612c57565b9050600061219284612c57565b9050600082036121be57600081146121ab5760006121b5565b670de0b6b3a76400005b92505050612231565b670de0b6b3a764000082036121df57670de0b6b3a764000092505050612231565b600081036121f957670de0b6b3a764000092505050612231565b670de0b6b3a76400008103612212578492505050612231565b61222c61222761222187612c6b565b86612237565b612dfe565b925050505b92915050565b60008061224384612c57565b9050600061225084612c57565b90507f800000000000000000000000000000000000000000000000000000000000000082148061229f57507f800000000000000000000000000000000000000000000000000000000000000081145b156122d6576040517fa6070c2500000000000000000000000000000000000000000000000000000000815260040160405180910390fd5b600080600084126122e757836122ec565b836000035b9150600083126122fc5782612301565b826000035b9050600061230f8383612afd565b90507f7fffffffffffffffffffffffffffffffffffffffffffffffffffffffffffffff8111156123785787876040517f120b5b4300000000000000000000000000000000000000000000000000000000815260040161236f929190615201565b60405180910390fd5b60007fffffffffffffffffffffffffffffffffffffffffffffffffffffffffffffffff8587181390506123b9816123b257826000036123b4565b825b612c61565b965050505050505092915050565b600080829050600081121561241357826040517fbba41a1500000000000000000000000000000000000000000000000000000000815260040161240a919061522a565b60405180910390fd5b80915050919050565b600080601060008481526020019081526020016000206040518060e00160405290816000820160009054906101000a900473ffffffffffffffffffffffffffffffffffffffff1673ffffffffffffffffffffffffffffffffffffffff1673ffffffffffffffffffffffffffffffffffffffff1681526020016001820154815260200160028201548152602001600382015481526020016004820154815260200160058201548152602001600682015481525050905060006124dc82612f1c565b90506000600c6301e133808460a001516124f69190614c1c565b6125009190614c4d565b905080821115612516576001935050505061252c565b6125208383610c6f565b83608001511193505050505b919050565b60008061253d83612f1c565b905060008190505b60008111156125d557600061255a8583610c6f565b905060006125748660018561256f91906149d3565b610c6f565b905081866080015111801561258d575080866080015111155b156125c057600c6301e133806125a39190614c1c565b836125ae9190614c4d565b86606001516125bd9190614cbe565b94505b505080806125cd90615245565b915050612545565b5050919050565b6000808273ffffffffffffffffffffffffffffffffffffffff163b119050919050565b612682846323b872dd60e01b8585856040516024016126209392919061526e565b604051602081830303815290604052907bffffffffffffffffffffffffffffffffffffffffffffffffffffffff19166020820180517bffffffffffffffffffffffffffffffffffffffffffffffffffffffff8381831617835250505050612f71565b50505050565b600460009054906101000a900473ffffffffffffffffffffffffffffffffffffffff1673ffffffffffffffffffffffffffffffffffffffff166342842e0e3084846040518463ffffffff1660e01b81526004016126e79392919061526e565b600060405180830381600087803b15801561270157600080fd5b505af1158015612715573d6000803e3d6000fd5b5050505060008360000160006101000a81548173ffffffffffffffffffffffffffffffffffffffff021916908373ffffffffffffffffffffffffffffffffffffffff16021790555061277181601161303890919063ffffffff16565b50505050565b600061278582600001613052565b9050919050565b600061279b8360000183613063565b60001c905092915050565b6127ae61308e565b73ffffffffffffffffffffffffffffffffffffffff166127cc6117fb565b73ffffffffffffffffffffffffffffffffffffffff1614612822576040517f08c379a0000000000000000000000000000000000000000000000000000000008152600401612819906152f1565b60405180910390fd5b565b60008060009054906101000a900473ffffffffffffffffffffffffffffffffffffffff169050816000806101000a81548173ffffffffffffffffffffffffffffffffffffffff021916908373ffffffffffffffffffffffffffffffffffffffff1602179055508173ffffffffffffffffffffffffffffffffffffffff168173ffffffffffffffffffffffffffffffffffffffff167f8be0079c531659141344cd1fd0a4f28419497f9722a3daafe3b4186f6b6457e060405160405180910390a35050565b6000806128f4846129cf565b9050600080600185161161291057670de0b6b3a7640000612912565b815b9050600184901c93505b60008411156129565761292f8283612afd565b9150600060018516111561294a576129478183612afd565b90505b600184901c935061291c565b61295f81612af3565b9250505092915050565b600061298f612977836129cf565b612980856129cf565b61298a91906149d3565b612af3565b905092915050565b60006129c86129c36129a884613096565b6129b58560800151611e1d565b611f1990919063ffffffff16565b611f45565b9050919050565b6000819050919050565b6000806000801985870985870292508281108382030391505060008103612a1457838281612a0a57612a09614bed565b5b0492505050612aec565b838110612a5c578585856040517f63a05778000000000000000000000000000000000000000000000000000000008152600401612a5393929190615311565b60405180910390fd5b60008486880990508281118203915080830392506000600186190186169050600081870496508185049450600182836000030401905080840285179450600060028860030218905080880260020381029050808802600203810290508088026002038102905080880260020381029050808802600203810290508088026002038102905080860296505050505050505b9392505050565b6000819050919050565b6000806000801984860984860292508281108382030391505060008103612b4057670de0b6b3a76400008281612b3657612b35614bed565b5b0492505050612be1565b670de0b6b3a76400008110612b8e5784846040517f5173648d000000000000000000000000000000000000000000000000000000008152600401612b85929190614d84565b60405180910390fd5b6000670de0b6b3a764000085870990507faccb18165bd6fe31ae1cf318dc5b51eee0e1ba569b88cd74c1773b91fac106696001620400008060000304018483118403026204000083860304170293505050505b92915050565b6000612bf383836130c6565b612c4c578260000182908060018154018082558091505060019003906000526020600020016000909190919091505582600001805490508360010160008481526020019081526020016000208190555060019050612c51565b600090505b92915050565b6000819050919050565b6000819050919050565b600080612c7783612c57565b905060008113612cbe57826040517f059b101b000000000000000000000000000000000000000000000000000000008152600401612cb5919061522a565b60405180910390fd5b6000670de0b6b3a76400008212612cd85760019050612d1e565b7fffffffffffffffffffffffffffffffffffffffffffffffffffffffffffffffff9050816ec097ce7bc90715b34b9f100000000081612d1a57612d19614bed565b5b0591505b6000612d41670de0b6b3a76400008481612d3b57612d3a614bed565b5b056130e9565b90506000670de0b6b3a76400008202905060008285901d9050670de0b6b3a76400008103612d8057612d74848302612c61565b95505050505050612df9565b6000671bc16d674ec80000905060006706f05b59d3b2000090505b6000811315612de157670de0b6b3a764000083840281612dbe57612dbd614bed565b5b059250818312612dd5578084019350600183901d92505b600181901d9050612d9b565b508483029250612df083612c61565b96505050505050505b919050565b600080612e0a83612c57565b90506000811215612e91577ffffffffffffffffffffffffffffffffffffffffffffffffcc22e87f6eb468eeb811215612e47576000915050612f17565b612e8a612e66612e61612e5c84600003612c61565b612dfe565b612c57565b6ec097ce7bc90715b34b9f100000000081612e8457612e83614bed565b5b05612c61565b9150612f15565b680a688906bd8affffff811315612edf57826040517f0360d028000000000000000000000000000000000000000000000000000000008152600401612ed6919061522a565b60405180910390fd5b6000670de0b6b3a7640000604083901b81612efd57612efc614bed565b5b059050612f11612f0c82613192565b612c61565b9250505b505b919050565b600080600c6301e13380612f309190614c1c565b836060015142612f4091906149d3565b612f4a9190614c1c565b90506000612f5784611f7c565b9050808211612f665781612f68565b805b92505050919050565b6000612fd3826040518060400160405280602081526020017f5361666545524332303a206c6f772d6c6576656c2063616c6c206661696c65648152508573ffffffffffffffffffffffffffffffffffffffff16613af29092919063ffffffff16565b90506000815111156130335780806020019051810190612ff39190615374565b613032576040517f08c379a000000000000000000000000000000000000000000000000000000000815260040161302990615413565b60405180910390fd5b5b505050565b600061304a836000018360001b613b0a565b905092915050565b600081600001805490509050919050565b600082600001828154811061307b5761307a61502e565b5b9060005260206000200154905092915050565b600033905090565b60006130bf6130ac6130a784613c1e565b611e1d565b8360200151611f1990919063ffffffff16565b9050919050565b600080836001016000848152602001908152602001600020541415905092915050565b60006fffffffffffffffffffffffffffffffff821160071b82811c925080821791505067ffffffffffffffff821160061b82811c925080821791505063ffffffff821160051b82811c925080821791505061ffff821160041b82811c925080821791505060ff821160031b82811c9250808217915050600f821160021b82811c92508082179150506003821160011b82811c925080821791505060018211808217915050919050565b6000778000000000000000000000000000000000000000000000009050600067ff00000000000000831611156132f3576000678000000000000000831611156131e857604068016a09e667f3bcc9098202901c90505b60006740000000000000008316111561320e5760406801306fe0a31b7152df8202901c90505b6000672000000000000000831611156132345760406801172b83c7d517adce8202901c90505b60006710000000000000008316111561325a57604068010b5586cf9890f62a8202901c90505b6000670800000000000000831611156132805760406801059b0d31585743ae8202901c90505b6000670400000000000000831611156132a6576040680102c9a3e778060ee78202901c90505b6000670200000000000000831611156132cc57604068010163da9fb33356d88202901c90505b6000670100000000000000831611156132f2576040680100b1afa5abcbed618202901c90505b5b600066ff0000000000008316111561342e57600066800000000000008316111561332a57604068010058c86da1c09ea28202901c90505b600066400000000000008316111561334f5760406801002c605e2e8cec508202901c90505b6000662000000000000083161115613374576040680100162f3904051fa18202901c90505b60006610000000000000831611156133995760406801000b175effdc76ba8202901c90505b60006608000000000000831611156133be576040680100058ba01fb9f96d8202901c90505b60006604000000000000831611156133e357604068010002c5cc37da94928202901c90505b60006602000000000000831611156134085760406801000162e525ee05478202901c90505b600066010000000000008316111561342d57604068010000b17255775c048202901c90505b5b600065ff00000000008316111561356057600065800000000000831611156134635760406801000058b91b5bc9ae8202901c90505b60006540000000000083161115613487576040680100002c5c89d5ec6d8202901c90505b600065200000000000831611156134ab57604068010000162e43f4f8318202901c90505b600065100000000000831611156134cf576040680100000b1721bcfc9a8202901c90505b600065080000000000831611156134f357604068010000058b90cf1e6e8202901c90505b600065040000000000831611156135175760406801000002c5c863b73f8202901c90505b6000650200000000008316111561353b576040680100000162e430e5a28202901c90505b6000650100000000008316111561355f5760406801000000b1721835518202901c90505b5b600064ff000000008316111561368957600064800000000083161115613593576040680100000058b90c0b498202901c90505b6000644000000000831611156135b657604068010000002c5c8601cc8202901c90505b6000642000000000831611156135d95760406801000000162e42fff08202901c90505b6000641000000000831611156135fc57604068010000000b17217fbb8202901c90505b60006408000000008316111561361f5760406801000000058b90bfce8202901c90505b600064040000000083161115613642576040680100000002c5c85fe38202901c90505b60006402000000008316111561366557604068010000000162e42ff18202901c90505b600064010000000083161115613688576040680100000000b17217f88202901c90505b5b600063ff000000831611156137a95760006380000000831611156136ba57604068010000000058b90bfc8202901c90505b60006340000000831611156136dc5760406801000000002c5c85fe8202901c90505b60006320000000831611156136fe576040680100000000162e42ff8202901c90505b60006310000000831611156137205760406801000000000b17217f8202901c90505b6000630800000083161115613742576040680100000000058b90c08202901c90505b600063040000008316111561376457604068010000000002c5c8608202901c90505b60006302000000831611156137865760406801000000000162e4308202901c90505b60006301000000831611156137a857604068010000000000b172188202901c90505b5b600062ff0000831611156138c057600062800000831611156137d85760406801000000000058b90c8202901c90505b600062400000831611156137f9576040680100000000002c5c868202901c90505b6000622000008316111561381a57604068010000000000162e438202901c90505b6000621000008316111561383b576040680100000000000b17218202901c90505b6000620800008316111561385c57604068010000000000058b918202901c90505b6000620400008316111561387d5760406801000000000002c5c88202901c90505b6000620200008316111561389e576040680100000000000162e48202901c90505b600062010000831611156138bf5760406801000000000000b1728202901c90505b5b600061ff00831611156139ce576000618000831611156138ed576040680100000000000058b98202901c90505b60006140008316111561390d57604068010000000000002c5d8202901c90505b60006120008316111561392d5760406801000000000000162e8202901c90505b60006110008316111561394d57604068010000000000000b178202901c90505b60006108008316111561396d5760406801000000000000058c8202901c90505b60006104008316111561398d576040680100000000000002c68202901c90505b6000610200831611156139ad576040680100000000000001638202901c90505b6000610100831611156139cd576040680100000000000000b18202901c90505b5b600060ff83161115613ad35760006080831611156139f9576040680100000000000000598202901c90505b6000604083161115613a185760406801000000000000002c8202901c90505b6000602083161115613a37576040680100000000000000168202901c90505b6000601083161115613a565760406801000000000000000b8202901c90505b6000600883161115613a75576040680100000000000000068202901c90505b6000600483161115613a94576040680100000000000000038202901c90505b6000600283161115613ab3576040680100000000000000018202901c90505b6000600183161115613ad2576040680100000000000000018202901c90505b5b670de0b6b3a764000081029050604082901c60bf0381901c9050919050565b6060613b018484600085613c37565b90509392505050565b60008083600101600084815260200190815260200160002054905060008114613c12576000600182613b3c91906149d3565b9050600060018660000180549050613b5491906149d3565b9050818114613bc3576000866000018281548110613b7557613b7461502e565b5b9060005260206000200154905080876000018481548110613b9957613b9861502e565b5b90600052602060002001819055508387600101600083815260200190815260200160002081905550505b85600001805480613bd757613bd6615433565b5b600190038181906000526020600020016000905590558560010160008681526020019081526020016000206000905560019350505050613c18565b60009150505b92915050565b60008160c0015142613c3091906149d3565b9050919050565b606082471015613c7c576040517f08c379a0000000000000000000000000000000000000000000000000000000008152600401613c73906154d4565b60405180910390fd5b6000808673ffffffffffffffffffffffffffffffffffffffff168587604051613ca59190614b02565b60006040518083038185875af1925050503d8060008114613ce2576040519150601f19603f3d011682016040523d82523d6000602084013e613ce7565b606091505b5091509150613cf887838387613d04565b92505050949350505050565b60608315613d66576000835103613d5e57613d1e856125dc565b613d5d576040517f08c379a0000000000000000000000000000000000000000000000000000000008152600401613d5490615540565b60405180910390fd5b5b829050613d71565b613d708383613d79565b5b949350505050565b600082511115613d8c5781518083602001fd5b806040517f08c379a0000000000000000000000000000000000000000000000000000000008152600401613dc091906155a4565b60405180910390fd5b6040518060e00160405280600073ffffffffffffffffffffffffffffffffffffffff1681526020016000815260200160008152602001600081526020016000815260200160008152602001600081525090565b6000604051905090565b600080fd5b600080fd5b600080fd5b6000601f19601f8301169050919050565b7f4e487b7100000000000000000000000000000000000000000000000000000000600052604160045260246000fd5b613e7e82613e35565b810181811067ffffffffffffffff82111715613e9d57613e9c613e46565b5b80604052505050565b6000613eb0613e1c565b9050613ebc8282613e75565b919050565b600073ffffffffffffffffffffffffffffffffffffffff82169050919050565b6000613eec82613ec1565b9050919050565b613efc81613ee1565b8114613f0757600080fd5b50565b600081359050613f1981613ef3565b92915050565b6000819050919050565b613f3281613f1f565b8114613f3d57600080fd5b50565b600081359050613f4f81613f29565b92915050565b600060808284031215613f6b57613f6a613e30565b5b613f756080613ea6565b90506000613f8584828501613f0a565b6000830152506020613f9984828501613f40565b6020830152506040613fad84828501613f40565b6040830152506060613fc184828501613f40565b60608301525092915050565b600060808284031215613fe357613fe2613e26565b5b6000613ff184828501613f55565b91505092915050565b60008115159050919050565b61400f81613ffa565b82525050565b600060208201905061402a6000830184614006565b92915050565b6000806000806080858703121561404a57614049613e26565b5b600061405887828801613f0a565b945050602061406987828801613f40565b935050604061407a87828801613f40565b925050606061408b87828801613f40565b91505092959194509250565b60007fffffffff0000000000000000000000000000000000000000000000000000000082169050919050565b6140cc81614097565b81146140d757600080fd5b50565b6000813590506140e9816140c3565b92915050565b60006020828403121561410557614104613e26565b5b6000614113848285016140da565b91505092915050565b61412581613ee1565b82525050565b6000602082019050614140600083018461411c565b92915050565b61414f81613f1f565b811461415a57600080fd5b50565b60008135905061416c81614146565b92915050565b600060e0828403121561418857614187613e30565b5b61419260e0613ea6565b905060006141a284828501613f0a565b60008301525060206141b68482850161415d565b60208301525060406141ca8482850161415d565b60408301525060606141de84828501613f40565b60608301525060806141f284828501613f40565b60808301525060a061420684828501613f40565b60a08301525060c061421a84828501613f40565b60c08301525092915050565b600080610100838503121561423e5761423d613e26565b5b600061424c85828601614172565b92505060e061425d85828601613f40565b9150509250929050565b61427081613f1f565b82525050565b600060208201905061428b6000830184614267565b92915050565b6000602082840312156142a7576142a6613e26565b5b60006142b584828501613f40565b91505092915050565b6000819050919050565b60006142e36142de6142d984613f1f565b6142be565b613f1f565b9050919050565b6142f3816142c8565b82525050565b600060208201905061430e60008301846142ea565b92915050565b7f4e487b7100000000000000000000000000000000000000000000000000000000600052602160045260246000fd5b6004811061435457614353614314565b5b50565b600081905061436582614343565b919050565b600061437582614357565b9050919050565b6143858161436a565b82525050565b60006020820190506143a0600083018461437c565b92915050565b600081519050919050565b600082825260208201905092915050565b6000819050602082019050919050565b6143db81613ee1565b82525050565b6143ea81613f1f565b82525050565b60808201600082015161440660008501826143d2565b50602082015161441960208501826143e1565b50604082015161442c60408501826143e1565b50606082015161443f60608501826143e1565b50505050565b600061445183836143f0565b60808301905092915050565b6000602082019050919050565b6000614475826143a6565b61447f81856143b1565b935061448a836143c2565b8060005b838110156144bb5781516144a28882614445565b97506144ad8361445d565b92505060018101905061448e565b5085935050505092915050565b600060208201905081810360008301526144e2818461446a565b905092915050565b600080fd5b600080fd5b600080fd5b60008083601f84011261450f5761450e6144ea565b5b8235905067ffffffffffffffff81111561452c5761452b6144ef565b5b602083019150836001820283011115614548576145476144f4565b5b9250929050565b6000806020838503121561456657614565613e26565b5b600083013567ffffffffffffffff81111561458457614583613e2b565b5b614590858286016144f9565b92509250509250929050565b60006145a782613ee1565b9050919050565b6145b78161459c565b81146145c257600080fd5b50565b6000813590506145d4816145ae565b92915050565b60006145e582613ee1565b9050919050565b6145f5816145da565b811461460057600080fd5b50565b600081359050614612816145ec565b92915050565b6000806040838503121561462f5761462e613e26565b5b600061463d858286016145c5565b925050602061464e85828601614603565b9150509250929050565b600081519050919050565b600082825260208201905092915050565b60005b83811015614692578082015181840152602081019050614677565b60008484015250505050565b60006146a982614658565b6146b38185614663565b93506146c3818560208601614674565b6146cc81613e35565b840191505092915050565b60006040820190506146ec6000830185614006565b81810360208301526146fe818461469e565b90509392505050565b6000806040838503121561471e5761471d613e26565b5b600061472c85828601613f40565b925050602061473d85828601613f40565b9150509250929050565b6000806000606084860312156147605761475f613e26565b5b600061476e86828701613f40565b935050602061477f8682870161415d565b925050604061479086828701613f40565b9150509250925092565b600060e0820190506147af600083018a61411c565b6147bc60208301896142ea565b6147c960408301886142ea565b6147d66060830187614267565b6147e36080830186614267565b6147f060a0830185614267565b6147fd60c0830184614267565b98975050505050505050565b614812816142c8565b82525050565b60e08201600082015161482e60008501826143d2565b5060208201516148416020850182614809565b5060408201516148546040850182614809565b50606082015161486760608501826143e1565b50608082015161487a60808501826143e1565b5060a082015161488d60a08501826143e1565b5060c08201516148a060c08501826143e1565b50505050565b600060e0820190506148bb6000830184614818565b92915050565b60008083601f8401126148d7576148d66144ea565b5b8235905067ffffffffffffffff8111156148f4576148f36144ef565b5b6020830191508360208202830111156149105761490f6144f4565b5b9250929050565b6000806000604084860312156149305761492f613e26565b5b600084013567ffffffffffffffff81111561494e5761494d613e2b565b5b61495a868287016148c1565b9350935050602061496d86828701613f0a565b9150509250925092565b60006020828403121561498d5761498c613e26565b5b600061499b84828501613f0a565b91505092915050565b7f4e487b7100000000000000000000000000000000000000000000000000000000600052601160045260246000fd5b60006149de82613f1f565b91506149e983613f1f565b9250828203905081811115614a0157614a006149a4565b5b92915050565b600081519050614a1681613ef3565b92915050565b600060208284031215614a3257614a31613e26565b5b6000614a4084828501614a07565b91505092915050565b600082825260208201905092915050565b7f756e617574686f72697a65640000000000000000000000000000000000000000600082015250565b6000614a90600c83614a49565b9150614a9b82614a5a565b602082019050919050565b60006020820190508181036000830152614abf81614a83565b9050919050565b600081905092915050565b6000614adc82614658565b614ae68185614ac6565b9350614af6818560208601614674565b80840191505092915050565b6000614b0e8284614ad1565b915081905092915050565b7f636f756c646e27742067657420626f72726f776572526174655065725365636f60008201527f6e64000000000000000000000000000000000000000000000000000000000000602082015250565b6000614b75602283614a49565b9150614b8082614b19565b604082019050919050565b60006020820190508181036000830152614ba481614b68565b9050919050565b600081519050614bba81614146565b92915050565b600060208284031215614bd657614bd5613e26565b5b6000614be484828501614bab565b91505092915050565b7f4e487b7100000000000000000000000000000000000000000000000000000000600052601260045260246000fd5b6000614c2782613f1f565b9150614c3283613f1f565b925082614c4257614c41614bed565b5b828204905092915050565b6000614c5882613f1f565b9150614c6383613f1f565b9250828202614c7181613f1f565b91508282048414831517614c8857614c876149a4565b5b5092915050565b7f4e487b7100000000000000000000000000000000000000000000000000000000600052600160045260246000fd5b6000614cc982613f1f565b9150614cd483613f1f565b9250828201905080821115614cec57614ceb6149a4565b5b92915050565b7f6d6f6e7468206d757374206265203c3d206c6f616e4d61784475726174696f6e60008201527f4d6f6e7468730000000000000000000000000000000000000000000000000000602082015250565b6000614d4e602683614a49565b9150614d5982614cf2565b604082019050919050565b60006020820190508181036000830152614d7d81614d41565b9050919050565b6000604082019050614d996000830185614267565b614da66020830184614267565b9392505050565b7f6163636570744269642063616c6c206661696c65640000000000000000000000600082015250565b6000614de3601583614a49565b9150614dee82614dad565b602082019050919050565b60006020820190508181036000830152614e1281614dd6565b9050919050565b7f496e697469616c697a61626c653a20636f6e747261637420697320616c72656160008201527f647920696e697469616c697a6564000000000000000000000000000000000000602082015250565b6000614e75602e83614a49565b9150614e8082614e19565b604082019050919050565b60006020820190508181036000830152614ea481614e68565b9050919050565b6000819050919050565b600060ff82169050919050565b6000614edd614ed8614ed384614eab565b6142be565b614eb5565b9050919050565b614eed81614ec2565b82525050565b6000602082019050614f086000830184614ee4565b92915050565b7f6e6f2064656661756c7400000000000000000000000000000000000000000000600082015250565b6000614f44600a83614a49565b9150614f4f82614f0e565b602082019050919050565b60006020820190508181036000830152614f7381614f37565b9050919050565b6000614f8582613f1f565b91507fffffffffffffffffffffffffffffffffffffffffffffffffffffffffffffffff8203614fb757614fb66149a4565b5b600182019050919050565b7f6e667420686173206e6f20616374697665206d6f727467616765000000000000600082015250565b6000614ff8601a83614a49565b915061500382614fc2565b602082019050919050565b6000602082019050818103600083015261502781614feb565b9050919050565b7f4e487b7100000000000000000000000000000000000000000000000000000000600052603260045260246000fd5b7f4f776e61626c653a206e6577206f776e657220697320746865207a65726f206160008201527f6464726573730000000000000000000000000000000000000000000000000000602082015250565b60006150b9602683614a49565b91506150c48261505d565b604082019050919050565b600060208201905081810360008301526150e8816150ac565b9050919050565b6000819050919050565b6000615104826150ef565b915061510f836150ef565b92508261511f5761511e614bed565b5b600160000383147f800000000000000000000000000000000000000000000000000000000000000083141615615158576151576149a4565b5b828205905092915050565b61516c816150ef565b82525050565b60006020820190506151876000830184615163565b92915050565b6000615198826150ef565b91506151a3836150ef565b92508282039050818112600084121682821360008512151617156151ca576151c96149a4565b5b92915050565b60006151eb6151e66151e1846150ef565b6142be565b6150ef565b9050919050565b6151fb816151d0565b82525050565b600060408201905061521660008301856151f2565b61522360208301846151f2565b9392505050565b600060208201905061523f60008301846151f2565b92915050565b600061525082613f1f565b915060008203615263576152626149a4565b5b600182039050919050565b6000606082019050615283600083018661411c565b615290602083018561411c565b61529d6040830184614267565b949350505050565b7f4f776e61626c653a2063616c6c6572206973206e6f7420746865206f776e6572600082015250565b60006152db602083614a49565b91506152e6826152a5565b602082019050919050565b6000602082019050818103600083015261530a816152ce565b9050919050565b60006060820190506153266000830186614267565b6153336020830185614267565b6153406040830184614267565b949350505050565b61535181613ffa565b811461535c57600080fd5b50565b60008151905061536e81615348565b92915050565b60006020828403121561538a57615389613e26565b5b60006153988482850161535f565b91505092915050565b7f5361666545524332303a204552433230206f7065726174696f6e20646964206e60008201527f6f74207375636365656400000000000000000000000000000000000000000000602082015250565b60006153fd602a83614a49565b9150615408826153a1565b604082019050919050565b6000602082019050818103600083015261542c816153f0565b9050919050565b7f4e487b7100000000000000000000000000000000000000000000000000000000600052603160045260246000fd5b7f416464726573733a20696e73756666696369656e742062616c616e636520666f60008201527f722063616c6c0000000000000000000000000000000000000000000000000000602082015250565b60006154be602683614a49565b91506154c982615462565b604082019050919050565b600060208201905081810360008301526154ed816154b1565b9050919050565b7f416464726573733a2063616c6c20746f206e6f6e2d636f6e7472616374000000600082015250565b600061552a601d83614a49565b9150615535826154f4565b602082019050919050565b600060208201905081810360008301526155598161551d565b9050919050565b600081519050919050565b600061557682615560565b6155808185614a49565b9350615590818560208601614674565b61559981613e35565b840191505092915050565b600060208201905081810360008301526155be818461556b565b90509291505056fea264697066735822122037eacc82b1bbc7f87cb3a2c8433f044920c433cdd5f639c8d2f97fa6912ef87564736f6c63430008130033",
  "linkReferences": {},
  "deployedLinkReferences": {}
}