{
  "_format": "hh-sol-artifact-1",
  "contractName": "Automation",
  "sourceName": "contracts/protocol/borrowing/automation/Automation.sol",
  "abi": [
    {
      "inputs": [
        {
          "internalType": "uint256",
          "name": "x",
          "type": "uint256"
        },
        {
          "internalType": "uint256",
          "name": "y",
          "type": "uint256"
        }
      ],
      "name": "PRBMath_MulDiv18_Overflow",
      "type": "error"
    },
    {
      "inputs": [
        {
          "internalType": "uint256",
          "name": "x",
          "type": "uint256"
        },
        {
          "internalType": "uint256",
          "name": "y",
          "type": "uint256"
        },
        {
          "internalType": "uint256",
          "name": "denominator",
          "type": "uint256"
        }
      ],
      "name": "PRBMath_MulDiv_Overflow",
      "type": "error"
    },
    {
      "inputs": [
        {
          "internalType": "int256",
          "name": "x",
          "type": "int256"
        }
      ],
      "name": "PRBMath_SD59x18_Convert_Overflow",
      "type": "error"
    },
    {
      "inputs": [
        {
          "internalType": "int256",
          "name": "x",
          "type": "int256"
        }
      ],
      "name": "PRBMath_SD59x18_Convert_Underflow",
      "type": "error"
    },
    {
      "inputs": [
        {
          "internalType": "SD59x18",
          "name": "x",
          "type": "int256"
        }
      ],
      "name": "PRBMath_SD59x18_Exp2_InputTooBig",
      "type": "error"
    },
    {
      "inputs": [
        {
          "internalType": "SD59x18",
          "name": "x",
          "type": "int256"
        }
      ],
      "name": "PRBMath_SD59x18_IntoUD60x18_Underflow",
      "type": "error"
    },
    {
      "inputs": [
        {
          "internalType": "SD59x18",
          "name": "x",
          "type": "int256"
        }
      ],
      "name": "PRBMath_SD59x18_Log_InputTooSmall",
      "type": "error"
    },
    {
      "inputs": [],
      "name": "PRBMath_SD59x18_Mul_InputTooSmall",
      "type": "error"
    },
    {
      "inputs": [
        {
          "internalType": "SD59x18",
          "name": "x",
          "type": "int256"
        },
        {
          "internalType": "SD59x18",
          "name": "y",
          "type": "int256"
        }
      ],
      "name": "PRBMath_SD59x18_Mul_Overflow",
      "type": "error"
    },
    {
      "inputs": [
        {
          "internalType": "uint256",
          "name": "x",
          "type": "uint256"
        }
      ],
      "name": "PRBMath_UD60x18_Convert_Overflow",
      "type": "error"
    },
    {
      "inputs": [
        {
          "internalType": "UD60x18",
          "name": "x",
          "type": "uint256"
        }
      ],
      "name": "PRBMath_UD60x18_IntoSD59x18_Overflow",
      "type": "error"
    },
    {
      "anonymous": false,
      "inputs": [
        {
          "indexed": false,
          "internalType": "uint8",
          "name": "version",
          "type": "uint8"
        }
      ],
      "name": "Initialized",
      "type": "event"
    },
    {
      "anonymous": false,
      "inputs": [
        {
          "indexed": true,
          "internalType": "address",
          "name": "previousOwner",
          "type": "address"
        },
        {
          "indexed": true,
          "internalType": "address",
          "name": "newOwner",
          "type": "address"
        }
      ],
      "name": "OwnershipTransferred",
      "type": "event"
    },
    {
      "inputs": [
        {
          "internalType": "uint256",
          "name": "",
          "type": "uint256"
        }
      ],
      "name": "_loans",
      "outputs": [
        {
          "internalType": "address",
          "name": "borrower",
          "type": "address"
        },
        {
          "internalType": "UD60x18",
          "name": "ratePerSecond",
          "type": "uint256"
        },
        {
          "internalType": "UD60x18",
          "name": "paymentPerSecond",
          "type": "uint256"
        },
        {
          "internalType": "uint256",
          "name": "startTime",
          "type": "uint256"
        },
        {
          "internalType": "uint256",
          "name": "unpaidPrincipal",
          "type": "uint256"
        },
        {
          "internalType": "uint256",
          "name": "maxDurationSeconds",
          "type": "uint256"
        },
        {
          "internalType": "uint256",
          "name": "lastPaymentTime",
          "type": "uint256"
        }
      ],
      "stateMutability": "view",
      "type": "function"
    },
    {
      "inputs": [
        {
          "internalType": "uint256",
          "name": "tokenId",
          "type": "uint256"
        }
      ],
      "name": "accruedInterest",
      "outputs": [
        {
          "internalType": "uint256",
          "name": "",
          "type": "uint256"
        }
      ],
      "stateMutability": "view",
      "type": "function"
    },
    {
      "inputs": [],
      "name": "availableLiquidity",
      "outputs": [
        {
          "internalType": "uint256",
          "name": "",
          "type": "uint256"
        }
      ],
      "stateMutability": "view",
      "type": "function"
    },
    {
      "inputs": [
        {
          "components": [
            {
              "internalType": "address",
              "name": "bidder",
              "type": "address"
            },
            {
              "internalType": "uint256",
              "name": "propertyValue",
              "type": "uint256"
            },
            {
              "internalType": "uint256",
              "name": "downPayment",
              "type": "uint256"
            },
            {
              "internalType": "uint256",
              "name": "maxDurationMonths",
              "type": "uint256"
            }
          ],
          "internalType": "struct IState.Bid",
          "name": "bid",
          "type": "tuple"
        }
      ],
      "name": "bidActionable",
      "outputs": [
        {
          "internalType": "bool",
          "name": "",
          "type": "bool"
        }
      ],
      "stateMutability": "view",
      "type": "function"
    },
    {
      "inputs": [
        {
          "internalType": "uint256",
          "name": "tokenId",
          "type": "uint256"
        }
      ],
      "name": "bids",
      "outputs": [
        {
          "components": [
            {
              "internalType": "address",
              "name": "bidder",
              "type": "address"
            },
            {
              "internalType": "uint256",
              "name": "propertyValue",
              "type": "uint256"
            },
            {
              "internalType": "uint256",
              "name": "downPayment",
              "type": "uint256"
            },
            {
              "internalType": "uint256",
              "name": "maxDurationMonths",
              "type": "uint256"
            }
          ],
          "internalType": "struct IState.Bid[]",
          "name": "",
          "type": "tuple[]"
        }
      ],
      "stateMutability": "view",
      "type": "function"
    },
    {
      "inputs": [
        {
          "internalType": "uint256",
          "name": "principal",
          "type": "uint256"
        },
        {
          "internalType": "UD60x18",
          "name": "ratePerSecond",
          "type": "uint256"
        },
        {
          "internalType": "uint256",
          "name": "maxDurationSeconds",
          "type": "uint256"
        }
      ],
      "name": "calculatePaymentPerSecond",
      "outputs": [
        {
          "internalType": "UD60x18",
          "name": "paymentPerSecond",
          "type": "uint256"
        }
      ],
      "stateMutability": "pure",
      "type": "function"
    },
    {
      "inputs": [
        {
          "internalType": "bytes",
          "name": "",
          "type": "bytes"
        }
      ],
      "name": "checkUpkeep",
      "outputs": [
        {
          "internalType": "bool",
          "name": "upkeepNeeded",
          "type": "bool"
        },
        {
          "internalType": "bytes",
          "name": "performData",
          "type": "bytes"
        }
      ],
      "stateMutability": "view",
      "type": "function"
    },
    {
      "inputs": [],
      "name": "defaultFeeSpread",
      "outputs": [
        {
          "internalType": "UD60x18",
          "name": "",
          "type": "uint256"
        }
      ],
      "stateMutability": "view",
      "type": "function"
    },
    {
      "inputs": [
        {
          "internalType": "uint256",
          "name": "tokenId",
          "type": "uint256"
        }
      ],
      "name": "findHighestActionableBidIdx",
      "outputs": [
        {
          "internalType": "uint256",
          "name": "highestActionableIdx",
          "type": "uint256"
        }
      ],
      "stateMutability": "view",
      "type": "function"
    },
    {
      "inputs": [
        {
          "internalType": "contract IERC20",
          "name": "_USDC",
          "type": "address"
        },
        {
          "internalType": "contract tUsdc",
          "name": "_tUSDC",
          "type": "address"
        },
        {
          "internalType": "contract TangibleNft",
          "name": "_prosperaNftContract",
          "type": "address"
        }
      ],
      "name": "initialize",
      "outputs": [],
      "stateMutability": "nonpayable",
      "type": "function"
    },
    {
      "inputs": [],
      "name": "lenderApy",
      "outputs": [
        {
          "internalType": "UD60x18",
          "name": "",
          "type": "uint256"
        }
      ],
      "stateMutability": "view",
      "type": "function"
    },
    {
      "inputs": [
        {
          "components": [
            {
              "internalType": "address",
              "name": "bidder",
              "type": "address"
            },
            {
              "internalType": "uint256",
              "name": "propertyValue",
              "type": "uint256"
            },
            {
              "internalType": "uint256",
              "name": "downPayment",
              "type": "uint256"
            },
            {
              "internalType": "uint256",
              "name": "maxDurationMonths",
              "type": "uint256"
            }
          ],
          "internalType": "struct IState.Bid",
          "name": "_bid",
          "type": "tuple"
        }
      ],
      "name": "loanBidActionable",
      "outputs": [
        {
          "internalType": "bool",
          "name": "",
          "type": "bool"
        }
      ],
      "stateMutability": "view",
      "type": "function"
    },
    {
      "inputs": [
        {
          "internalType": "uint256",
          "name": "tokenId",
          "type": "uint256"
        }
      ],
      "name": "loans",
      "outputs": [
        {
          "components": [
            {
              "internalType": "address",
              "name": "borrower",
              "type": "address"
            },
            {
              "internalType": "UD60x18",
              "name": "ratePerSecond",
              "type": "uint256"
            },
            {
              "internalType": "UD60x18",
              "name": "paymentPerSecond",
              "type": "uint256"
            },
            {
              "internalType": "uint256",
              "name": "startTime",
              "type": "uint256"
            },
            {
              "internalType": "uint256",
              "name": "unpaidPrincipal",
              "type": "uint256"
            },
            {
              "internalType": "uint256",
              "name": "maxDurationSeconds",
              "type": "uint256"
            },
            {
              "internalType": "uint256",
              "name": "lastPaymentTime",
              "type": "uint256"
            }
          ],
          "internalType": "struct IState.Loan",
          "name": "",
          "type": "tuple"
        }
      ],
      "stateMutability": "view",
      "type": "function"
    },
    {
      "inputs": [
        {
          "internalType": "uint256",
          "name": "idx",
          "type": "uint256"
        }
      ],
      "name": "loansTokenIdsAt",
      "outputs": [
        {
          "internalType": "uint256",
          "name": "tokenId",
          "type": "uint256"
        }
      ],
      "stateMutability": "view",
      "type": "function"
    },
    {
      "inputs": [],
      "name": "loansTokenIdsLength",
      "outputs": [
        {
          "internalType": "uint256",
          "name": "",
          "type": "uint256"
        }
      ],
      "stateMutability": "view",
      "type": "function"
    },
    {
      "inputs": [
        {
          "internalType": "bytes4",
          "name": "",
          "type": "bytes4"
        }
      ],
      "name": "logicTargets",
      "outputs": [
        {
          "internalType": "address",
          "name": "",
          "type": "address"
        }
      ],
      "stateMutability": "view",
      "type": "function"
    },
    {
      "inputs": [],
      "name": "maxDurationMonthsCap",
      "outputs": [
        {
          "internalType": "uint256",
          "name": "",
          "type": "uint256"
        }
      ],
      "stateMutability": "view",
      "type": "function"
    },
    {
      "inputs": [],
      "name": "maxLtv",
      "outputs": [
        {
          "internalType": "UD60x18",
          "name": "",
          "type": "uint256"
        }
      ],
      "stateMutability": "view",
      "type": "function"
    },
    {
      "inputs": [],
      "name": "monthSeconds",
      "outputs": [
        {
          "internalType": "uint256",
          "name": "",
          "type": "uint256"
        }
      ],
      "stateMutability": "view",
      "type": "function"
    },
    {
      "inputs": [],
      "name": "optimalUtilization",
      "outputs": [
        {
          "internalType": "UD60x18",
          "name": "",
          "type": "uint256"
        }
      ],
      "stateMutability": "view",
      "type": "function"
    },
    {
      "inputs": [],
      "name": "owner",
      "outputs": [
        {
          "internalType": "address",
          "name": "",
          "type": "address"
        }
      ],
      "stateMutability": "view",
      "type": "function"
    },
    {
      "inputs": [
        {
          "internalType": "uint256",
          "name": "tokenId",
          "type": "uint256"
        },
        {
          "internalType": "uint256",
          "name": "payment",
          "type": "uint256"
        }
      ],
      "name": "payLoan",
      "outputs": [],
      "stateMutability": "nonpayable",
      "type": "function"
    },
    {
      "inputs": [
        {
          "internalType": "bytes",
          "name": "performData",
          "type": "bytes"
        }
      ],
      "name": "performUpkeep",
      "outputs": [],
      "stateMutability": "nonpayable",
      "type": "function"
    },
    {
      "inputs": [
        {
          "components": [
            {
              "internalType": "address",
              "name": "borrower",
              "type": "address"
            },
            {
              "internalType": "UD60x18",
              "name": "ratePerSecond",
              "type": "uint256"
            },
            {
              "internalType": "UD60x18",
              "name": "paymentPerSecond",
              "type": "uint256"
            },
            {
              "internalType": "uint256",
              "name": "startTime",
              "type": "uint256"
            },
            {
              "internalType": "uint256",
              "name": "unpaidPrincipal",
              "type": "uint256"
            },
            {
              "internalType": "uint256",
              "name": "maxDurationSeconds",
              "type": "uint256"
            },
            {
              "internalType": "uint256",
              "name": "lastPaymentTime",
              "type": "uint256"
            }
          ],
          "internalType": "struct IState.Loan",
          "name": "loan",
          "type": "tuple"
        },
        {
          "internalType": "uint256",
          "name": "month",
          "type": "uint256"
        }
      ],
      "name": "principalCap",
      "outputs": [
        {
          "internalType": "uint256",
          "name": "cap",
          "type": "uint256"
        }
      ],
      "stateMutability": "pure",
      "type": "function"
    },
    {
      "inputs": [
        {
          "internalType": "uint256",
          "name": "tokenId",
          "type": "uint256"
        }
      ],
      "name": "redeemLoan",
      "outputs": [],
      "stateMutability": "nonpayable",
      "type": "function"
    },
    {
      "inputs": [],
      "name": "redemptionFeeSpread",
      "outputs": [
        {
          "internalType": "UD60x18",
          "name": "",
          "type": "uint256"
        }
      ],
      "stateMutability": "view",
      "type": "function"
    },
    {
      "inputs": [],
      "name": "renounceOwnership",
      "outputs": [],
      "stateMutability": "nonpayable",
      "type": "function"
    },
    {
      "inputs": [
        {
          "internalType": "bytes4[]",
          "name": "selectorsArr",
          "type": "bytes4[]"
        },
        {
          "internalType": "address",
          "name": "target",
          "type": "address"
        }
      ],
      "name": "setSelectorsTarget",
      "outputs": [],
      "stateMutability": "nonpayable",
      "type": "function"
    },
    {
      "inputs": [
        {
          "internalType": "address",
          "name": "borrower",
          "type": "address"
        },
        {
          "internalType": "uint256",
          "name": "tokenId",
          "type": "uint256"
        },
        {
          "internalType": "uint256",
          "name": "principal",
          "type": "uint256"
        },
        {
          "internalType": "uint256",
          "name": "maxDurationMonths",
          "type": "uint256"
        }
      ],
      "name": "startLoan",
      "outputs": [],
      "stateMutability": "nonpayable",
      "type": "function"
    },
    {
      "inputs": [
        {
          "internalType": "uint256",
          "name": "tokenId",
          "type": "uint256"
        }
      ],
      "name": "status",
      "outputs": [
        {
          "internalType": "enum IState.Status",
          "name": "",
          "type": "uint8"
        }
      ],
      "stateMutability": "view",
      "type": "function"
    },
    {
      "inputs": [
        {
          "internalType": "uint256",
          "name": "tokenId",
          "type": "uint256"
        }
      ],
      "name": "tokenIdBidsLength",
      "outputs": [
        {
          "internalType": "uint256",
          "name": "",
          "type": "uint256"
        }
      ],
      "stateMutability": "view",
      "type": "function"
    },
    {
      "inputs": [],
      "name": "totalDeposits",
      "outputs": [
        {
          "internalType": "uint256",
          "name": "",
          "type": "uint256"
        }
      ],
      "stateMutability": "view",
      "type": "function"
    },
    {
      "inputs": [],
      "name": "totalPrincipal",
      "outputs": [
        {
          "internalType": "uint256",
          "name": "",
          "type": "uint256"
        }
      ],
      "stateMutability": "view",
      "type": "function"
    },
    {
      "inputs": [
        {
          "internalType": "address",
          "name": "newOwner",
          "type": "address"
        }
      ],
      "name": "transferOwnership",
      "outputs": [],
      "stateMutability": "nonpayable",
      "type": "function"
    },
    {
      "inputs": [],
      "name": "utilization",
      "outputs": [
        {
          "internalType": "UD60x18",
          "name": "",
          "type": "uint256"
        }
      ],
      "stateMutability": "view",
      "type": "function"
    },
    {
      "inputs": [],
      "name": "yearMonths",
      "outputs": [
        {
          "internalType": "uint256",
          "name": "",
          "type": "uint256"
        }
      ],
      "stateMutability": "view",
      "type": "function"
    },
    {
      "inputs": [],
      "name": "yearSeconds",
      "outputs": [
        {
          "internalType": "uint256",
          "name": "",
          "type": "uint256"
        }
      ],
      "stateMutability": "view",
      "type": "function"
    }
  ],
  "bytecode": "0x60806040526200003b6200001a60646200022960201b60201c565b6200002c605a6200022960201b60201c565b620002ba60201b90919060201c565b600755620000756200005460646200022960201b60201c565b6200006660046200022960201b60201c565b620002ba60201b90919060201c565b600855620000af6200008e60646200022960201b60201c565b620000a060036200022960201b60201c565b620002ba60201b90919060201c565b600955620000c460096200022960201b60201c565b600a55620000fe620000dd60646200022960201b60201c565b620000ef60016200022960201b60201c565b620002ba60201b90919060201c565b600b55620001386200011760646200022960201b60201c565b6200012960026200022960201b60201c565b620002ba60201b90919060201c565b600c55620001726200015160646200022960201b60201c565b6200016360036200022960201b60201c565b620002ba60201b90919060201c565b600d55620001ac6200018b60646200022960201b60201c565b6200019d60046200022960201b60201c565b620002ba60201b90919060201c565b600e55623b5380601455620001ed620001cc60646200022960201b60201c565b620001de60326200022960201b60201c565b620002ba60201b90919060201c565b60155560786016553480156200020257600080fd5b5062000223620002176200030f60201b60201c565b6200031760201b60201c565b620005ed565b6000670de0b6b3a76400007fffffffffffffffffffffffffffffffffffffffffffffffffffffffffffffffff6200026191906200054a565b821115620002a857816040517f1cd951a70000000000000000000000000000000000000000000000000000000081526004016200029f919062000593565b60405180910390fd5b670de0b6b3a764000082029050919050565b600062000307620002fb620002d585620003db60201b60201c565b670de0b6b3a7640000620002ef86620003db60201b60201c565b620003e560201b60201c565b6200050760201b60201c565b905092915050565b600033905090565b60008060009054906101000a900473ffffffffffffffffffffffffffffffffffffffff169050816000806101000a81548173ffffffffffffffffffffffffffffffffffffffff021916908373ffffffffffffffffffffffffffffffffffffffff1602179055508173ffffffffffffffffffffffffffffffffffffffff168173ffffffffffffffffffffffffffffffffffffffff167f8be0079c531659141344cd1fd0a4f28419497f9722a3daafe3b4186f6b6457e060405160405180910390a35050565b6000819050919050565b600080600080198587098587029250828110838203039150506000810362000425578382816200041a57620004196200051b565b5b049250505062000500565b83811062000470578585856040517f63a057780000000000000000000000000000000000000000000000000000000081526004016200046793929190620005b0565b60405180910390fd5b60008486880990508281118203915080830392506000600186190186169050600081870496508185049450600182836000030401905080840285179450600060028860030218905080880260020381029050808802600203810290508088026002038102905080880260020381029050808802600203810290508088026002038102905080860296505050505050505b9392505050565b6000819050919050565b6000819050919050565b7f4e487b7100000000000000000000000000000000000000000000000000000000600052601260045260246000fd5b6000620005578262000511565b9150620005648362000511565b9250826200057757620005766200051b565b5b828204905092915050565b6200058d8162000511565b82525050565b6000602082019050620005aa600083018462000582565b92915050565b6000606082019050620005c7600083018662000582565b620005d6602083018562000582565b620005e5604083018462000582565b949350505050565b61568e80620005fd6000396000f3fe608060405234801561001057600080fd5b50600436106102275760003560e01c80637d88209711610130578063ab01f7e1116100b8578063e1ec3c681161007c578063e1ec3c68146106bf578063e3435044146106ef578063ea21cd921461070b578063f2fde38b14610729578063ff9ad6df1461074557610227565b8063ab01f7e1146105ef578063bb4f28341461060d578063bcff3e3b1461063d578063bd5c569b1461066d578063c0c53b8b146106a357610227565b80638da5cb5b116100ff5780638da5cb5b1461053557806394f8d25314610553578063958cd8d214610571578063a0024c2f146105a1578063a54cab1c146105d157610227565b80637d882097146104bf578063812cf018146104dd57806387ae0dbe146104fb57806389306e611461051957610227565b80634585e33b116101b357806367ffc6aa1161018257806367ffc6aa1461041a5780636e04ff0d14610436578063715018a614610467578063743753591461047157806374bdf96a1461048f57610227565b80634585e33b146103a45780634abb3003146103c05780634b1533b2146103de5780636290cd1c146103fc57610227565b80632da10923116101fa5780632da10923146102d85780633a12c6da146103085780633ca36db61461032657806342d21ef7146103445780634423c5f11461037457610227565b80630a9cc0b61461022c5780630feee81e1461025c57806317548b79146102785780631cc03c87146102a8575b600080fd5b6102466004803603810190610241919061400e565b610763565b6040516102539190614056565b60405180910390f35b61027660048036038101906102719190614071565b6107d8565b005b610292600480360381019061028d9190614130565b610c3c565b60405161029f919061416c565b60405180910390f35b6102c260048036038101906102bd9190614267565b610c6f565b6040516102cf91906142b7565b60405180910390f35b6102f260048036038101906102ed91906142d2565b610dd1565b6040516102ff91906142b7565b60405180910390f35b610310610df1565b60405161031d919061433a565b60405180910390f35b61032e610df7565b60405161033b919061433a565b60405180910390f35b61035e600480360381019061035991906142d2565b610e01565b60405161036b91906143cc565b60405180910390f35b61038e600480360381019061038991906142d2565b610f48565b60405161039b9190614509565b60405180910390f35b6103be60048036038101906103b99190614590565b61102e565b005b6103c86111c7565b6040516103d5919061433a565b60405180910390f35b6103e66111d1565b6040516103f391906142b7565b60405180910390f35b6104046111d7565b604051610411919061433a565b60405180910390f35b610434600480360381019061042f91906142d2565b6111dd565b005b610450600480360381019061044b9190614590565b611371565b60405161045e92919061465c565b60405180910390f35b61046f61142c565b005b610479611440565b60405161048691906142b7565b60405180910390f35b6104a960048036038101906104a491906142d2565b611457565b6040516104b691906142b7565b60405180910390f35b6104c7611474565b6040516104d491906142b7565b60405180910390f35b6104e561147a565b6040516104f291906142b7565b60405180910390f35b61050361147f565b60405161051091906142b7565b60405180910390f35b610533600480360381019061052e919061468c565b611487565b005b61053d61163a565b60405161054a919061416c565b60405180910390f35b61055b611663565b604051610568919061433a565b60405180910390f35b61058b600480360381019061058691906142d2565b611668565b60405161059891906142b7565b60405180910390f35b6105bb60048036038101906105b6919061400e565b6117cf565b6040516105c89190614056565b60405180910390f35b6105d96117f3565b6040516105e691906142b7565b60405180910390f35b6105f76117f9565b60405161060491906142b7565b60405180910390f35b610627600480360381019061062291906146cc565b61180a565b604051610634919061433a565b60405180910390f35b610657600480360381019061065291906142d2565b6118a1565b60405161066491906142b7565b60405180910390f35b610687600480360381019061068291906142d2565b611962565b60405161069a979695949392919061471f565b60405180910390f35b6106bd60048036038101906106b89190614848565b6119c4565b005b6106d960048036038101906106d491906142d2565b611bc6565b6040516106e69190614938565b60405180910390f35b610709600480360381019061070491906149a9565b611c85565b005b610713611d6b565b604051610720919061433a565b60405180910390f35b610743600480360381019061073e9190614a09565b611dc7565b005b61074d611e4a565b60405161075a91906142b7565b60405180910390f35b6000808260400151836020015161077a9190614a65565b905060006107a561078e8560200151611e5e565b61079784611e5e565b611eea90919063ffffffff16565b90506107bc60155482611f1f90919063ffffffff16565b80156107cf57506107cb611440565b8211155b92505050919050565b3073ffffffffffffffffffffffffffffffffffffffff16600460009054906101000a900473ffffffffffffffffffffffffffffffffffffffff1673ffffffffffffffffffffffffffffffffffffffff16636352211e856040518263ffffffff1660e01b815260040161084a91906142b7565b602060405180830381865afa158015610867573d6000803e3d6000fd5b505050506040513d601f19601f8201168201806040525081019061088b9190614aae565b73ffffffffffffffffffffffffffffffffffffffff16146108e1576040517f08c379a00000000000000000000000000000000000000000000000000000000081526004016108d890614b38565b60405180910390fd5b60008060016000631e27d1de60e01b7bffffffffffffffffffffffffffffffffffffffffffffffffffffffff19167bffffffffffffffffffffffffffffffffffffffffffffffffffffffff1916815260200190815260200160002060009054906101000a900473ffffffffffffffffffffffffffffffffffffffff1673ffffffffffffffffffffffffffffffffffffffff1661097b611d6b565b60405160240161098b919061433a565b604051602081830303815290604052631e27d1de60e01b6020820180517bffffffffffffffffffffffffffffffffffffffffffffffffffffffff83818316178352505050506040516109dd9190614b94565b6000604051808303816000865af19150503d8060008114610a1a576040519150601f19603f3d011682016040523d82523d6000602084013e610a1f565b606091505b509150915081610a64576040517f08c379a0000000000000000000000000000000000000000000000000000000008152600401610a5b90614c1d565b60405180910390fd5b600081806020019051810190610a7a9190614c52565b90506000600c6301e13380610a8f9190614cae565b85610a9a9190614cdf565b90506000610aa987848461180a565b9050610ac7610ab86000611e5e565b82611f3d90919063ffffffff16565b610ad457610ad3614d21565b5b6000610af9610af4610ae585611e5e565b84611f5a90919063ffffffff16565b611f86565b9050878111610b0b57610b0a614d21565b5b6040518060e001604052808b73ffffffffffffffffffffffffffffffffffffffff16815260200185815260200183815260200142815260200189815260200184815260200142815250601060008b815260200190815260200160002060008201518160000160006101000a81548173ffffffffffffffffffffffffffffffffffffffff021916908373ffffffffffffffffffffffffffffffffffffffff1602179055506020820151816001015560408201518160020155606082015181600301556080820151816004015560a0820151816005015560c082015181600601559050508760056000828254610bff9190614d50565b925050819055506006546005541115610c1b57610c1a614d21565b5b610c2f896011611fa390919063ffffffff16565b5050505050505050505050565b60016020528060005260406000206000915054906101000a900473ffffffffffffffffffffffffffffffffffffffff1681565b6000610c7a83611fbd565b821115610cbc576040517f08c379a0000000000000000000000000000000000000000000000000000000008152600401610cb390614df6565b60405180910390fd5b6000600c6301e13380610ccf9190614cae565b83610cda9190614cdf565b90506000610d20610ceb6001611fe6565b610d12610cfb8860a00151611fe6565b610d0486611fe6565b6120ea90919063ffffffff16565b6120ea90919063ffffffff16565b90506000610d79610d6183610d53610d4e8a60200151610d406001611e5e565b61211890919063ffffffff16565b612146565b6121ba90919063ffffffff16565b610d6b6001611fe6565b6120ea90919063ffffffff16565b90506000610da4610d9f83610d918a60400151612146565b61227890919063ffffffff16565b612408565b9050610dc5610dc0886020015183611eea90919063ffffffff16565b611f86565b94505050505092915050565b6000600f6000838152602001908152602001600020805490509050919050565b60155481565b6000600d54905090565b600080601060008481526020019081526020016000206040518060e00160405290816000820160009054906101000a900473ffffffffffffffffffffffffffffffffffffffff1673ffffffffffffffffffffffffffffffffffffffff1673ffffffffffffffffffffffffffffffffffffffff16815260200160018201548152602001600282015481526020016003820154815260200160048201548152602001600582015481526020016006820154815250509050600073ffffffffffffffffffffffffffffffffffffffff16816000015173ffffffffffffffffffffffffffffffffffffffff1603610ef8576000915050610f43565b610f018361245d565b15610f3d576000610f1182612572565b42610f1c9190614a65565b90506014548111610f3257600292505050610f43565b600392505050610f43565b60019150505b919050565b6060600f6000838152602001908152602001600020805480602002602001604051908101604052809291908181526020016000905b8282101561102357838290600052602060002090600402016040518060800160405290816000820160009054906101000a900473ffffffffffffffffffffffffffffffffffffffff1673ffffffffffffffffffffffffffffffffffffffff1673ffffffffffffffffffffffffffffffffffffffff168152602001600182015481526020016002820154815260200160038201548152505081526020019060010190610f7d565b505050509050919050565b6000808383810190611040919061468c565b915091506000600160006302e9d5e460e01b7bffffffffffffffffffffffffffffffffffffffffffffffffffffffff19167bffffffffffffffffffffffffffffffffffffffffffffffffffffffff1916815260200190815260200160002060009054906101000a900473ffffffffffffffffffffffffffffffffffffffff1673ffffffffffffffffffffffffffffffffffffffff1683836040516024016110e8929190614e16565b6040516020818303038152906040526302e9d5e460e01b6020820180517bffffffffffffffffffffffffffffffffffffffffffffffffffffffff838183161783525050505060405161113a9190614b94565b6000604051808303816000865af19150503d8060008114611177576040519150601f19603f3d011682016040523d82523d6000602084013e61117c565b606091505b50509050806111c0576040517f08c379a00000000000000000000000000000000000000000000000000000000081526004016111b790614e8b565b60405180910390fd5b5050505050565b6000600e54905090565b60055481565b60075481565b600260038111156111f1576111f0614355565b5b6111fa82610e01565b600381111561120c5761120b614355565b5b1461124c576040517f08c379a000000000000000000000000000000000000000000000000000000000815260040161124390614ef7565b60405180910390fd5b6000601060008381526020019081526020016000209050600061126e836118a1565b905060008183600401546112829190614d50565b905060006112ab6112a6600d5461129885611e5e565b611f5a90919063ffffffff16565b611f86565b9050611305333083856112be9190614d50565b60028054906101000a900473ffffffffffffffffffffffffffffffffffffffff1673ffffffffffffffffffffffffffffffffffffffff1661261d909392919063ffffffff16565b83600401546005600082825461131b9190614a65565b9250508190555082600660008282546113349190614d50565b9250508190555061136a848560000160009054906101000a900473ffffffffffffffffffffffffffffffffffffffff16876126a6565b5050505050565b6000606060005b6113826011612795565b81101561142457600061139f8260116127aa90919063ffffffff16565b90506003808111156113b4576113b3614355565b5b6113bd82610e01565b60038111156113cf576113ce614355565b5b036114105760006113df82611668565b90506001945081816040516020016113f8929190614e16565b60405160208183030381529060405293505050611424565b50808061141c90614f17565b915050611378565b509250929050565b6114346127c4565b61143e6000612842565b565b60006005546006546114529190614a65565b905090565b600061146d8260116127aa90919063ffffffff16565b9050919050565b60065481565b600c81565b6301e1338081565b6001600381111561149b5761149a614355565b5b6114a483610e01565b60038111156114b6576114b5614355565b5b146114f6576040517f08c379a00000000000000000000000000000000000000000000000000000000081526004016114ed90614fab565b60405180910390fd5b6000611501836118a1565b9050600060106000858152602001908152602001600020905081816004015461152a9190614d50565b831115611544578181600401546115419190614d50565b92505b61159133308560028054906101000a900473ffffffffffffffffffffffffffffffffffffffff1673ffffffffffffffffffffffffffffffffffffffff1661261d909392919063ffffffff16565b6000828461159f9190614a65565b9050808260040160008282546115b59190614a65565b9250508190555042826006018190555080600560008282546115d79190614a65565b9250508190555082600660008282546115f09190614d50565b92505081905550600082600401540361163357611632828360000160009054906101000a900473ffffffffffffffffffffffffffffffffffffffff16876126a6565b5b5050505050565b60008060009054906101000a900473ffffffffffffffffffffffffffffffffffffffff16905090565b600090565b600080600f6000848152602001908152602001600020805480602002602001604051908101604052809291908181526020016000905b8282101561174457838290600052602060002090600402016040518060800160405290816000820160009054906101000a900473ffffffffffffffffffffffffffffffffffffffff1673ffffffffffffffffffffffffffffffffffffffff1673ffffffffffffffffffffffffffffffffffffffff16815260200160018201548152602001600282015481526020016003820154815250508152602001906001019061169e565b50505050905060005b81518110156117c857600082828151811061176b5761176a614fcb565b5b6020026020010151905082848151811061178857611787614fcb565b5b60200260200101516020015181602001511180156117ab57506117aa816117cf565b5b156117b4578193505b5080806117c090614f17565b91505061174d565b5050919050565b60008160400151826020015114806117ec57506117eb82610763565b5b9050919050565b60165481565b60006118056011612795565b905090565b60008061183b8361182d8661181f6001611e5e565b61211890919063ffffffff16565b61290690919063ffffffff16565b905061189761185c61184d6001611e5e565b8361298790919063ffffffff16565b6118898361187b8861186d8b611e5e565b611f5a90919063ffffffff16565b611f5a90919063ffffffff16565b611eea90919063ffffffff16565b9150509392505050565b600061195b601060008481526020019081526020016000206040518060e00160405290816000820160009054906101000a900473ffffffffffffffffffffffffffffffffffffffff1673ffffffffffffffffffffffffffffffffffffffff1673ffffffffffffffffffffffffffffffffffffffff16815260200160018201548152602001600282015481526020016003820154815260200160048201548152602001600582015481526020016006820154815250506129b5565b9050919050565b60106020528060005260406000206000915090508060000160009054906101000a900473ffffffffffffffffffffffffffffffffffffffff16908060010154908060020154908060030154908060040154908060050154908060060154905087565b6000600260019054906101000a900460ff161590508080156119f857506001600260009054906101000a900460ff1660ff16105b80611a275750611a07306129ed565b158015611a2657506001600260009054906101000a900460ff1660ff16145b5b611a66576040517f08c379a0000000000000000000000000000000000000000000000000000000008152600401611a5d9061506c565b60405180910390fd5b6001600260006101000a81548160ff021916908360ff1602179055508015611aa4576001600260016101000a81548160ff0219169083151502179055505b836002806101000a81548173ffffffffffffffffffffffffffffffffffffffff021916908373ffffffffffffffffffffffffffffffffffffffff16021790555082600360006101000a81548173ffffffffffffffffffffffffffffffffffffffff021916908373ffffffffffffffffffffffffffffffffffffffff16021790555081600460006101000a81548173ffffffffffffffffffffffffffffffffffffffff021916908373ffffffffffffffffffffffffffffffffffffffff1602179055508015611bc0576000600260016101000a81548160ff0219169083151502179055507f7f26b83ff96e1f2b6a682f133852f6798a09c465da95921460cefb38474024986001604051611bb791906150d4565b60405180910390a15b50505050565b611bce613e0a565b601060008381526020019081526020016000206040518060e00160405290816000820160009054906101000a900473ffffffffffffffffffffffffffffffffffffffff1673ffffffffffffffffffffffffffffffffffffffff1673ffffffffffffffffffffffffffffffffffffffff16815260200160018201548152602001600282015481526020016003820154815260200160048201548152602001600582015481526020016006820154815250509050919050565b611c8d6127c4565b60005b83839050811015611d65578160016000868685818110611cb357611cb2614fcb565b5b9050602002016020810190611cc89190614130565b7bffffffffffffffffffffffffffffffffffffffffffffffffffffffff19167bffffffffffffffffffffffffffffffffffffffffffffffffffffffff1916815260200190815260200160002060006101000a81548173ffffffffffffffffffffffffffffffffffffffff021916908373ffffffffffffffffffffffffffffffffffffffff1602179055508080611d5d90614f17565b915050611c90565b50505050565b60008060065403611d9a57600060055414611d8957611d88614d21565b5b611d936000611e5e565b9050611dc4565b611dc1611da8600654611e5e565b611db3600554611e5e565b611eea90919063ffffffff16565b90505b90565b611dcf6127c4565b600073ffffffffffffffffffffffffffffffffffffffff168173ffffffffffffffffffffffffffffffffffffffff1603611e3e576040517f08c379a0000000000000000000000000000000000000000000000000000000008152600401611e3590615161565b60405180910390fd5b611e4781612842565b50565b600c6301e13380611e5b9190614cae565b81565b6000670de0b6b3a76400007fffffffffffffffffffffffffffffffffffffffffffffffffffffffffffffffff611e949190614cae565b821115611ed857816040517f1cd951a7000000000000000000000000000000000000000000000000000000008152600401611ecf91906142b7565b60405180910390fd5b670de0b6b3a764000082029050919050565b6000611f17611f12611efb85612a10565b670de0b6b3a7640000611f0d86612a10565b612a1a565b612b34565b905092915050565b6000611f2a82612a10565b611f3384612a10565b1115905092915050565b6000611f4882612a10565b611f5184612a10565b11905092915050565b6000611f7e611f79611f6b85612a10565b611f7485612a10565b612b3e565b612b34565b905092915050565b6000670de0b6b3a764000082611f9c9190614cae565b9050919050565b6000611fb5836000018360001b612c28565b905092915050565b60006301e133808260a00151600c611fd59190614cdf565b611fdf9190614cae565b9050919050565b6000670de0b6b3a76400007f800000000000000000000000000000000000000000000000000000000000000061201c919061518b565b82121561206057816040517f99474eeb0000000000000000000000000000000000000000000000000000000081526004016120579190615204565b60405180910390fd5b670de0b6b3a76400007f7fffffffffffffffffffffffffffffffffffffffffffffffffffffffffffffff612094919061518b565b8213156120d857816040517f9d5810910000000000000000000000000000000000000000000000000000000081526004016120cf9190615204565b60405180910390fd5b670de0b6b3a764000082029050919050565b60006121106120f883612c98565b61210185612c98565b61210b919061521f565b612ca2565b905092915050565b600061213e61212683612a10565b61212f85612a10565b6121399190614d50565b612b34565b905092915050565b6000808290507f7fffffffffffffffffffffffffffffffffffffffffffffffffffffffffffffff8111156121b157826040517ff46186840000000000000000000000000000000000000000000000000000000081526004016121a8919061433a565b60405180910390fd5b80915050919050565b6000806121c684612c98565b905060006121d384612c98565b9050600082036121ff57600081146121ec5760006121f6565b670de0b6b3a76400005b92505050612272565b670de0b6b3a7640000820361222057670de0b6b3a764000092505050612272565b6000810361223a57670de0b6b3a764000092505050612272565b670de0b6b3a76400008103612253578492505050612272565b61226d61226861226287612cac565b86612278565b612e3f565b925050505b92915050565b60008061228484612c98565b9050600061229184612c98565b90507f80000000000000000000000000000000000000000000000000000000000000008214806122e057507f800000000000000000000000000000000000000000000000000000000000000081145b15612317576040517fa6070c2500000000000000000000000000000000000000000000000000000000815260040160405180910390fd5b60008060008412612328578361232d565b836000035b91506000831261233d5782612342565b826000035b905060006123508383612b3e565b90507f7fffffffffffffffffffffffffffffffffffffffffffffffffffffffffffffff8111156123b95787876040517f120b5b430000000000000000000000000000000000000000000000000000000081526004016123b0929190615293565b60405180910390fd5b60007fffffffffffffffffffffffffffffffffffffffffffffffffffffffffffffffff8587181390506123fa816123f357826000036123f5565b825b612ca2565b965050505050505092915050565b600080829050600081121561245457826040517fbba41a1500000000000000000000000000000000000000000000000000000000815260040161244b91906152bc565b60405180910390fd5b80915050919050565b600080601060008481526020019081526020016000206040518060e00160405290816000820160009054906101000a900473ffffffffffffffffffffffffffffffffffffffff1673ffffffffffffffffffffffffffffffffffffffff1673ffffffffffffffffffffffffffffffffffffffff16815260200160018201548152602001600282015481526020016003820154815260200160048201548152602001600582015481526020016006820154815250509050600061251d82612f5d565b90506000600c6301e133808460a001516125379190614cae565b6125419190614cdf565b905080821115612557576001935050505061256d565b6125618383610c6f565b83608001511193505050505b919050565b60008061257e83612f5d565b905060008190505b600081111561261657600061259b8583610c6f565b905060006125b5866001856125b09190614a65565b610c6f565b90508186608001511180156125ce575080866080015111155b1561260157600c6301e133806125e49190614cae565b836125ef9190614cdf565b86606001516125fe9190614d50565b94505b5050808061260e906152d7565b915050612586565b5050919050565b6126a0846323b872dd60e01b85858560405160240161263e93929190615300565b604051602081830303815290604052907bffffffffffffffffffffffffffffffffffffffffffffffffffffffff19166020820180517bffffffffffffffffffffffffffffffffffffffffffffffffffffffff8381831617835250505050612fb2565b50505050565b600460009054906101000a900473ffffffffffffffffffffffffffffffffffffffff1673ffffffffffffffffffffffffffffffffffffffff166342842e0e3084846040518463ffffffff1660e01b815260040161270593929190615300565b600060405180830381600087803b15801561271f57600080fd5b505af1158015612733573d6000803e3d6000fd5b5050505060008360000160006101000a81548173ffffffffffffffffffffffffffffffffffffffff021916908373ffffffffffffffffffffffffffffffffffffffff16021790555061278f81601161307990919063ffffffff16565b50505050565b60006127a382600001613093565b9050919050565b60006127b983600001836130a4565b60001c905092915050565b6127cc6130cf565b73ffffffffffffffffffffffffffffffffffffffff166127ea61163a565b73ffffffffffffffffffffffffffffffffffffffff1614612840576040517f08c379a000000000000000000000000000000000000000000000000000000000815260040161283790615383565b60405180910390fd5b565b60008060009054906101000a900473ffffffffffffffffffffffffffffffffffffffff169050816000806101000a81548173ffffffffffffffffffffffffffffffffffffffff021916908373ffffffffffffffffffffffffffffffffffffffff1602179055508173ffffffffffffffffffffffffffffffffffffffff168173ffffffffffffffffffffffffffffffffffffffff167f8be0079c531659141344cd1fd0a4f28419497f9722a3daafe3b4186f6b6457e060405160405180910390a35050565b60008061291284612a10565b9050600080600185161161292e57670de0b6b3a7640000612930565b815b9050600184901c93505b60008411156129745761294d8283612b3e565b91506000600185161115612968576129658183612b3e565b90505b600184901c935061293a565b61297d81612b34565b9250505092915050565b60006129ad61299583612a10565b61299e85612a10565b6129a89190614a65565b612b34565b905092915050565b60006129e66129e16129c6846130d7565b6129d38560800151611e5e565b611f5a90919063ffffffff16565b611f86565b9050919050565b6000808273ffffffffffffffffffffffffffffffffffffffff163b119050919050565b6000819050919050565b6000806000801985870985870292508281108382030391505060008103612a5557838281612a4b57612a4a614c7f565b5b0492505050612b2d565b838110612a9d578585856040517f63a05778000000000000000000000000000000000000000000000000000000008152600401612a94939291906153a3565b60405180910390fd5b60008486880990508281118203915080830392506000600186190186169050600081870496508185049450600182836000030401905080840285179450600060028860030218905080880260020381029050808802600203810290508088026002038102905080880260020381029050808802600203810290508088026002038102905080860296505050505050505b9392505050565b6000819050919050565b6000806000801984860984860292508281108382030391505060008103612b8157670de0b6b3a76400008281612b7757612b76614c7f565b5b0492505050612c22565b670de0b6b3a76400008110612bcf5784846040517f5173648d000000000000000000000000000000000000000000000000000000008152600401612bc6929190614e16565b60405180910390fd5b6000670de0b6b3a764000085870990507faccb18165bd6fe31ae1cf318dc5b51eee0e1ba569b88cd74c1773b91fac106696001620400008060000304018483118403026204000083860304170293505050505b92915050565b6000612c348383613107565b612c8d578260000182908060018154018082558091505060019003906000526020600020016000909190919091505582600001805490508360010160008481526020019081526020016000208190555060019050612c92565b600090505b92915050565b6000819050919050565b6000819050919050565b600080612cb883612c98565b905060008113612cff57826040517f059b101b000000000000000000000000000000000000000000000000000000008152600401612cf691906152bc565b60405180910390fd5b6000670de0b6b3a76400008212612d195760019050612d5f565b7fffffffffffffffffffffffffffffffffffffffffffffffffffffffffffffffff9050816ec097ce7bc90715b34b9f100000000081612d5b57612d5a614c7f565b5b0591505b6000612d82670de0b6b3a76400008481612d7c57612d7b614c7f565b5b0561312a565b90506000670de0b6b3a76400008202905060008285901d9050670de0b6b3a76400008103612dc157612db5848302612ca2565b95505050505050612e3a565b6000671bc16d674ec80000905060006706f05b59d3b2000090505b6000811315612e2257670de0b6b3a764000083840281612dff57612dfe614c7f565b5b059250818312612e16578084019350600183901d92505b600181901d9050612ddc565b508483029250612e3183612ca2565b96505050505050505b919050565b600080612e4b83612c98565b90506000811215612ed2577ffffffffffffffffffffffffffffffffffffffffffffffffcc22e87f6eb468eeb811215612e88576000915050612f58565b612ecb612ea7612ea2612e9d84600003612ca2565b612e3f565b612c98565b6ec097ce7bc90715b34b9f100000000081612ec557612ec4614c7f565b5b05612ca2565b9150612f56565b680a688906bd8affffff811315612f2057826040517f0360d028000000000000000000000000000000000000000000000000000000008152600401612f1791906152bc565b60405180910390fd5b6000670de0b6b3a7640000604083901b81612f3e57612f3d614c7f565b5b059050612f52612f4d826131d3565b612ca2565b9250505b505b919050565b600080600c6301e13380612f719190614cae565b836060015142612f819190614a65565b612f8b9190614cae565b90506000612f9884611fbd565b9050808211612fa75781612fa9565b805b92505050919050565b6000613014826040518060400160405280602081526020017f5361666545524332303a206c6f772d6c6576656c2063616c6c206661696c65648152508573ffffffffffffffffffffffffffffffffffffffff16613b339092919063ffffffff16565b905060008151111561307457808060200190518101906130349190615406565b613073576040517f08c379a000000000000000000000000000000000000000000000000000000000815260040161306a906154a5565b60405180910390fd5b5b505050565b600061308b836000018360001b613b4b565b905092915050565b600081600001805490509050919050565b60008260000182815481106130bc576130bb614fcb565b5b9060005260206000200154905092915050565b600033905090565b60006131006130ed6130e884613c5f565b611e5e565b8360200151611f5a90919063ffffffff16565b9050919050565b600080836001016000848152602001908152602001600020541415905092915050565b60006fffffffffffffffffffffffffffffffff821160071b82811c925080821791505067ffffffffffffffff821160061b82811c925080821791505063ffffffff821160051b82811c925080821791505061ffff821160041b82811c925080821791505060ff821160031b82811c9250808217915050600f821160021b82811c92508082179150506003821160011b82811c925080821791505060018211808217915050919050565b6000778000000000000000000000000000000000000000000000009050600067ff00000000000000831611156133345760006780000000000000008316111561322957604068016a09e667f3bcc9098202901c90505b60006740000000000000008316111561324f5760406801306fe0a31b7152df8202901c90505b6000672000000000000000831611156132755760406801172b83c7d517adce8202901c90505b60006710000000000000008316111561329b57604068010b5586cf9890f62a8202901c90505b6000670800000000000000831611156132c15760406801059b0d31585743ae8202901c90505b6000670400000000000000831611156132e7576040680102c9a3e778060ee78202901c90505b60006702000000000000008316111561330d57604068010163da9fb33356d88202901c90505b600067010000000000000083161115613333576040680100b1afa5abcbed618202901c90505b5b600066ff0000000000008316111561346f57600066800000000000008316111561336b57604068010058c86da1c09ea28202901c90505b60006640000000000000831611156133905760406801002c605e2e8cec508202901c90505b60006620000000000000831611156133b5576040680100162f3904051fa18202901c90505b60006610000000000000831611156133da5760406801000b175effdc76ba8202901c90505b60006608000000000000831611156133ff576040680100058ba01fb9f96d8202901c90505b600066040000000000008316111561342457604068010002c5cc37da94928202901c90505b60006602000000000000831611156134495760406801000162e525ee05478202901c90505b600066010000000000008316111561346e57604068010000b17255775c048202901c90505b5b600065ff0000000000831611156135a157600065800000000000831611156134a45760406801000058b91b5bc9ae8202901c90505b600065400000000000831611156134c8576040680100002c5c89d5ec6d8202901c90505b600065200000000000831611156134ec57604068010000162e43f4f8318202901c90505b60006510000000000083161115613510576040680100000b1721bcfc9a8202901c90505b6000650800000000008316111561353457604068010000058b90cf1e6e8202901c90505b600065040000000000831611156135585760406801000002c5c863b73f8202901c90505b6000650200000000008316111561357c576040680100000162e430e5a28202901c90505b600065010000000000831611156135a05760406801000000b1721835518202901c90505b5b600064ff00000000831611156136ca576000648000000000831611156135d4576040680100000058b90c0b498202901c90505b6000644000000000831611156135f757604068010000002c5c8601cc8202901c90505b60006420000000008316111561361a5760406801000000162e42fff08202901c90505b60006410000000008316111561363d57604068010000000b17217fbb8202901c90505b6000640800000000831611156136605760406801000000058b90bfce8202901c90505b600064040000000083161115613683576040680100000002c5c85fe38202901c90505b6000640200000000831611156136a657604068010000000162e42ff18202901c90505b6000640100000000831611156136c9576040680100000000b17217f88202901c90505b5b600063ff000000831611156137ea5760006380000000831611156136fb57604068010000000058b90bfc8202901c90505b600063400000008316111561371d5760406801000000002c5c85fe8202901c90505b600063200000008316111561373f576040680100000000162e42ff8202901c90505b60006310000000831611156137615760406801000000000b17217f8202901c90505b6000630800000083161115613783576040680100000000058b90c08202901c90505b60006304000000831611156137a557604068010000000002c5c8608202901c90505b60006302000000831611156137c75760406801000000000162e4308202901c90505b60006301000000831611156137e957604068010000000000b172188202901c90505b5b600062ff00008316111561390157600062800000831611156138195760406801000000000058b90c8202901c90505b6000624000008316111561383a576040680100000000002c5c868202901c90505b6000622000008316111561385b57604068010000000000162e438202901c90505b6000621000008316111561387c576040680100000000000b17218202901c90505b6000620800008316111561389d57604068010000000000058b918202901c90505b600062040000831611156138be5760406801000000000002c5c88202901c90505b600062020000831611156138df576040680100000000000162e48202901c90505b600062010000831611156139005760406801000000000000b1728202901c90505b5b600061ff0083161115613a0f5760006180008316111561392e576040680100000000000058b98202901c90505b60006140008316111561394e57604068010000000000002c5d8202901c90505b60006120008316111561396e5760406801000000000000162e8202901c90505b60006110008316111561398e57604068010000000000000b178202901c90505b6000610800831611156139ae5760406801000000000000058c8202901c90505b6000610400831611156139ce576040680100000000000002c68202901c90505b6000610200831611156139ee576040680100000000000001638202901c90505b600061010083161115613a0e576040680100000000000000b18202901c90505b5b600060ff83161115613b14576000608083161115613a3a576040680100000000000000598202901c90505b6000604083161115613a595760406801000000000000002c8202901c90505b6000602083161115613a78576040680100000000000000168202901c90505b6000601083161115613a975760406801000000000000000b8202901c90505b6000600883161115613ab6576040680100000000000000068202901c90505b6000600483161115613ad5576040680100000000000000038202901c90505b6000600283161115613af4576040680100000000000000018202901c90505b6000600183161115613b13576040680100000000000000018202901c90505b5b670de0b6b3a764000081029050604082901c60bf0381901c9050919050565b6060613b428484600085613c78565b90509392505050565b60008083600101600084815260200190815260200160002054905060008114613c53576000600182613b7d9190614a65565b9050600060018660000180549050613b959190614a65565b9050818114613c04576000866000018281548110613bb657613bb5614fcb565b5b9060005260206000200154905080876000018481548110613bda57613bd9614fcb565b5b90600052602060002001819055508387600101600083815260200190815260200160002081905550505b85600001805480613c1857613c176154c5565b5b600190038181906000526020600020016000905590558560010160008681526020019081526020016000206000905560019350505050613c59565b60009150505b92915050565b60008160c0015142613c719190614a65565b9050919050565b606082471015613cbd576040517f08c379a0000000000000000000000000000000000000000000000000000000008152600401613cb490615566565b60405180910390fd5b6000808673ffffffffffffffffffffffffffffffffffffffff168587604051613ce69190614b94565b60006040518083038185875af1925050503d8060008114613d23576040519150601f19603f3d011682016040523d82523d6000602084013e613d28565b606091505b5091509150613d3987838387613d45565b92505050949350505050565b60608315613da7576000835103613d9f57613d5f856129ed565b613d9e576040517f08c379a0000000000000000000000000000000000000000000000000000000008152600401613d95906155d2565b60405180910390fd5b5b829050613db2565b613db18383613dba565b5b949350505050565b600082511115613dcd5781518083602001fd5b806040517f08c379a0000000000000000000000000000000000000000000000000000000008152600401613e019190615636565b60405180910390fd5b6040518060e00160405280600073ffffffffffffffffffffffffffffffffffffffff1681526020016000815260200160008152602001600081526020016000815260200160008152602001600081525090565b6000604051905090565b600080fd5b600080fd5b600080fd5b6000601f19601f8301169050919050565b7f4e487b7100000000000000000000000000000000000000000000000000000000600052604160045260246000fd5b613ebf82613e76565b810181811067ffffffffffffffff82111715613ede57613edd613e87565b5b80604052505050565b6000613ef1613e5d565b9050613efd8282613eb6565b919050565b600073ffffffffffffffffffffffffffffffffffffffff82169050919050565b6000613f2d82613f02565b9050919050565b613f3d81613f22565b8114613f4857600080fd5b50565b600081359050613f5a81613f34565b92915050565b6000819050919050565b613f7381613f60565b8114613f7e57600080fd5b50565b600081359050613f9081613f6a565b92915050565b600060808284031215613fac57613fab613e71565b5b613fb66080613ee7565b90506000613fc684828501613f4b565b6000830152506020613fda84828501613f81565b6020830152506040613fee84828501613f81565b604083015250606061400284828501613f81565b60608301525092915050565b60006080828403121561402457614023613e67565b5b600061403284828501613f96565b91505092915050565b60008115159050919050565b6140508161403b565b82525050565b600060208201905061406b6000830184614047565b92915050565b6000806000806080858703121561408b5761408a613e67565b5b600061409987828801613f4b565b94505060206140aa87828801613f81565b93505060406140bb87828801613f81565b92505060606140cc87828801613f81565b91505092959194509250565b60007fffffffff0000000000000000000000000000000000000000000000000000000082169050919050565b61410d816140d8565b811461411857600080fd5b50565b60008135905061412a81614104565b92915050565b60006020828403121561414657614145613e67565b5b60006141548482850161411b565b91505092915050565b61416681613f22565b82525050565b6000602082019050614181600083018461415d565b92915050565b61419081613f60565b811461419b57600080fd5b50565b6000813590506141ad81614187565b92915050565b600060e082840312156141c9576141c8613e71565b5b6141d360e0613ee7565b905060006141e384828501613f4b565b60008301525060206141f78482850161419e565b602083015250604061420b8482850161419e565b604083015250606061421f84828501613f81565b606083015250608061423384828501613f81565b60808301525060a061424784828501613f81565b60a08301525060c061425b84828501613f81565b60c08301525092915050565b600080610100838503121561427f5761427e613e67565b5b600061428d858286016141b3565b92505060e061429e85828601613f81565b9150509250929050565b6142b181613f60565b82525050565b60006020820190506142cc60008301846142a8565b92915050565b6000602082840312156142e8576142e7613e67565b5b60006142f684828501613f81565b91505092915050565b6000819050919050565b600061432461431f61431a84613f60565b6142ff565b613f60565b9050919050565b61433481614309565b82525050565b600060208201905061434f600083018461432b565b92915050565b7f4e487b7100000000000000000000000000000000000000000000000000000000600052602160045260246000fd5b6004811061439557614394614355565b5b50565b60008190506143a682614384565b919050565b60006143b682614398565b9050919050565b6143c6816143ab565b82525050565b60006020820190506143e160008301846143bd565b92915050565b600081519050919050565b600082825260208201905092915050565b6000819050602082019050919050565b61441c81613f22565b82525050565b61442b81613f60565b82525050565b6080820160008201516144476000850182614413565b50602082015161445a6020850182614422565b50604082015161446d6040850182614422565b5060608201516144806060850182614422565b50505050565b60006144928383614431565b60808301905092915050565b6000602082019050919050565b60006144b6826143e7565b6144c081856143f2565b93506144cb83614403565b8060005b838110156144fc5781516144e38882614486565b97506144ee8361449e565b9250506001810190506144cf565b5085935050505092915050565b6000602082019050818103600083015261452381846144ab565b905092915050565b600080fd5b600080fd5b600080fd5b60008083601f8401126145505761454f61452b565b5b8235905067ffffffffffffffff81111561456d5761456c614530565b5b60208301915083600182028301111561458957614588614535565b5b9250929050565b600080602083850312156145a7576145a6613e67565b5b600083013567ffffffffffffffff8111156145c5576145c4613e6c565b5b6145d18582860161453a565b92509250509250929050565b600081519050919050565b600082825260208201905092915050565b60005b838110156146175780820151818401526020810190506145fc565b60008484015250505050565b600061462e826145dd565b61463881856145e8565b93506146488185602086016145f9565b61465181613e76565b840191505092915050565b60006040820190506146716000830185614047565b81810360208301526146838184614623565b90509392505050565b600080604083850312156146a3576146a2613e67565b5b60006146b185828601613f81565b92505060206146c285828601613f81565b9150509250929050565b6000806000606084860312156146e5576146e4613e67565b5b60006146f386828701613f81565b93505060206147048682870161419e565b925050604061471586828701613f81565b9150509250925092565b600060e082019050614734600083018a61415d565b614741602083018961432b565b61474e604083018861432b565b61475b60608301876142a8565b61476860808301866142a8565b61477560a08301856142a8565b61478260c08301846142a8565b98975050505050505050565b600061479982613f22565b9050919050565b6147a98161478e565b81146147b457600080fd5b50565b6000813590506147c6816147a0565b92915050565b60006147d782613f22565b9050919050565b6147e7816147cc565b81146147f257600080fd5b50565b600081359050614804816147de565b92915050565b600061481582613f22565b9050919050565b6148258161480a565b811461483057600080fd5b50565b6000813590506148428161481c565b92915050565b60008060006060848603121561486157614860613e67565b5b600061486f868287016147b7565b9350506020614880868287016147f5565b925050604061489186828701614833565b9150509250925092565b6148a481614309565b82525050565b60e0820160008201516148c06000850182614413565b5060208201516148d3602085018261489b565b5060408201516148e6604085018261489b565b5060608201516148f96060850182614422565b50608082015161490c6080850182614422565b5060a082015161491f60a0850182614422565b5060c082015161493260c0850182614422565b50505050565b600060e08201905061494d60008301846148aa565b92915050565b60008083601f8401126149695761496861452b565b5b8235905067ffffffffffffffff81111561498657614985614530565b5b6020830191508360208202830111156149a2576149a1614535565b5b9250929050565b6000806000604084860312156149c2576149c1613e67565b5b600084013567ffffffffffffffff8111156149e0576149df613e6c565b5b6149ec86828701614953565b935093505060206149ff86828701613f4b565b9150509250925092565b600060208284031215614a1f57614a1e613e67565b5b6000614a2d84828501613f4b565b91505092915050565b7f4e487b7100000000000000000000000000000000000000000000000000000000600052601160045260246000fd5b6000614a7082613f60565b9150614a7b83613f60565b9250828203905081811115614a9357614a92614a36565b5b92915050565b600081519050614aa881613f34565b92915050565b600060208284031215614ac457614ac3613e67565b5b6000614ad284828501614a99565b91505092915050565b600082825260208201905092915050565b7f756e617574686f72697a65640000000000000000000000000000000000000000600082015250565b6000614b22600c83614adb565b9150614b2d82614aec565b602082019050919050565b60006020820190508181036000830152614b5181614b15565b9050919050565b600081905092915050565b6000614b6e826145dd565b614b788185614b58565b9350614b888185602086016145f9565b80840191505092915050565b6000614ba08284614b63565b915081905092915050565b7f636f756c646e27742067657420626f72726f776572526174655065725365636f60008201527f6e64000000000000000000000000000000000000000000000000000000000000602082015250565b6000614c07602283614adb565b9150614c1282614bab565b604082019050919050565b60006020820190508181036000830152614c3681614bfa565b9050919050565b600081519050614c4c81614187565b92915050565b600060208284031215614c6857614c67613e67565b5b6000614c7684828501614c3d565b91505092915050565b7f4e487b7100000000000000000000000000000000000000000000000000000000600052601260045260246000fd5b6000614cb982613f60565b9150614cc483613f60565b925082614cd457614cd3614c7f565b5b828204905092915050565b6000614cea82613f60565b9150614cf583613f60565b9250828202614d0381613f60565b91508282048414831517614d1a57614d19614a36565b5b5092915050565b7f4e487b7100000000000000000000000000000000000000000000000000000000600052600160045260246000fd5b6000614d5b82613f60565b9150614d6683613f60565b9250828201905080821115614d7e57614d7d614a36565b5b92915050565b7f6d6f6e7468206d757374206265203c3d206c6f616e4d61784475726174696f6e60008201527f4d6f6e7468730000000000000000000000000000000000000000000000000000602082015250565b6000614de0602683614adb565b9150614deb82614d84565b604082019050919050565b60006020820190508181036000830152614e0f81614dd3565b9050919050565b6000604082019050614e2b60008301856142a8565b614e3860208301846142a8565b9392505050565b7f6163636570744269642063616c6c206661696c65640000000000000000000000600082015250565b6000614e75601583614adb565b9150614e8082614e3f565b602082019050919050565b60006020820190508181036000830152614ea481614e68565b9050919050565b7f6e6f2064656661756c7400000000000000000000000000000000000000000000600082015250565b6000614ee1600a83614adb565b9150614eec82614eab565b602082019050919050565b60006020820190508181036000830152614f1081614ed4565b9050919050565b6000614f2282613f60565b91507fffffffffffffffffffffffffffffffffffffffffffffffffffffffffffffffff8203614f5457614f53614a36565b5b600182019050919050565b7f6e667420686173206e6f20616374697665206d6f727467616765000000000000600082015250565b6000614f95601a83614adb565b9150614fa082614f5f565b602082019050919050565b60006020820190508181036000830152614fc481614f88565b9050919050565b7f4e487b7100000000000000000000000000000000000000000000000000000000600052603260045260246000fd5b7f496e697469616c697a61626c653a20636f6e747261637420697320616c72656160008201527f647920696e697469616c697a6564000000000000000000000000000000000000602082015250565b6000615056602e83614adb565b915061506182614ffa565b604082019050919050565b6000602082019050818103600083015261508581615049565b9050919050565b6000819050919050565b600060ff82169050919050565b60006150be6150b96150b48461508c565b6142ff565b615096565b9050919050565b6150ce816150a3565b82525050565b60006020820190506150e960008301846150c5565b92915050565b7f4f776e61626c653a206e6577206f776e657220697320746865207a65726f206160008201527f6464726573730000000000000000000000000000000000000000000000000000602082015250565b600061514b602683614adb565b9150615156826150ef565b604082019050919050565b6000602082019050818103600083015261517a8161513e565b9050919050565b6000819050919050565b600061519682615181565b91506151a183615181565b9250826151b1576151b0614c7f565b5b600160000383147f8000000000000000000000000000000000000000000000000000000000000000831416156151ea576151e9614a36565b5b828205905092915050565b6151fe81615181565b82525050565b600060208201905061521960008301846151f5565b92915050565b600061522a82615181565b915061523583615181565b925082820390508181126000841216828213600085121516171561525c5761525b614a36565b5b92915050565b600061527d61527861527384615181565b6142ff565b615181565b9050919050565b61528d81615262565b82525050565b60006040820190506152a86000830185615284565b6152b56020830184615284565b9392505050565b60006020820190506152d16000830184615284565b92915050565b60006152e282613f60565b9150600082036152f5576152f4614a36565b5b600182039050919050565b6000606082019050615315600083018661415d565b615322602083018561415d565b61532f60408301846142a8565b949350505050565b7f4f776e61626c653a2063616c6c6572206973206e6f7420746865206f776e6572600082015250565b600061536d602083614adb565b915061537882615337565b602082019050919050565b6000602082019050818103600083015261539c81615360565b9050919050565b60006060820190506153b860008301866142a8565b6153c560208301856142a8565b6153d260408301846142a8565b949350505050565b6153e38161403b565b81146153ee57600080fd5b50565b600081519050615400816153da565b92915050565b60006020828403121561541c5761541b613e67565b5b600061542a848285016153f1565b91505092915050565b7f5361666545524332303a204552433230206f7065726174696f6e20646964206e60008201527f6f74207375636365656400000000000000000000000000000000000000000000602082015250565b600061548f602a83614adb565b915061549a82615433565b604082019050919050565b600060208201905081810360008301526154be81615482565b9050919050565b7f4e487b7100000000000000000000000000000000000000000000000000000000600052603160045260246000fd5b7f416464726573733a20696e73756666696369656e742062616c616e636520666f60008201527f722063616c6c0000000000000000000000000000000000000000000000000000602082015250565b6000615550602683614adb565b915061555b826154f4565b604082019050919050565b6000602082019050818103600083015261557f81615543565b9050919050565b7f416464726573733a2063616c6c20746f206e6f6e2d636f6e7472616374000000600082015250565b60006155bc601d83614adb565b91506155c782615586565b602082019050919050565b600060208201905081810360008301526155eb816155af565b9050919050565b600081519050919050565b6000615608826155f2565b6156128185614adb565b93506156228185602086016145f9565b61562b81613e76565b840191505092915050565b6000602082019050818103600083015261565081846155fd565b90509291505056fea2646970667358221220ebcf6cd8a69ee694ce92ef5ac9f53ee0e36b40c0d6b9d03dfe83d8e6c08ea9d564736f6c63430008130033",
  "linkReferences": {},
  "deployedLinkReferences": {}
}