{
  "_format": "hh-sol-artifact-1",
  "contractName": "Lending",
  "sourceName": "contracts/protocol/lending/Lending.sol",
  "abi": [
    {
      "inputs": [
        {
          "internalType": "uint256",
          "name": "x",
          "type": "uint256"
        },
        {
          "internalType": "uint256",
          "name": "y",
          "type": "uint256"
        }
      ],
      "name": "PRBMath_MulDiv18_Overflow",
      "type": "error"
    },
    {
      "inputs": [
        {
          "internalType": "uint256",
          "name": "x",
          "type": "uint256"
        },
        {
          "internalType": "uint256",
          "name": "y",
          "type": "uint256"
        },
        {
          "internalType": "uint256",
          "name": "denominator",
          "type": "uint256"
        }
      ],
      "name": "PRBMath_MulDiv_Overflow",
      "type": "error"
    },
    {
      "inputs": [
        {
          "internalType": "int256",
          "name": "x",
          "type": "int256"
        }
      ],
      "name": "PRBMath_SD59x18_Convert_Overflow",
      "type": "error"
    },
    {
      "inputs": [
        {
          "internalType": "int256",
          "name": "x",
          "type": "int256"
        }
      ],
      "name": "PRBMath_SD59x18_Convert_Underflow",
      "type": "error"
    },
    {
      "inputs": [
        {
          "internalType": "SD59x18",
          "name": "x",
          "type": "int256"
        }
      ],
      "name": "PRBMath_SD59x18_Exp2_InputTooBig",
      "type": "error"
    },
    {
      "inputs": [
        {
          "internalType": "SD59x18",
          "name": "x",
          "type": "int256"
        }
      ],
      "name": "PRBMath_SD59x18_IntoUD60x18_Underflow",
      "type": "error"
    },
    {
      "inputs": [
        {
          "internalType": "SD59x18",
          "name": "x",
          "type": "int256"
        }
      ],
      "name": "PRBMath_SD59x18_Log_InputTooSmall",
      "type": "error"
    },
    {
      "inputs": [],
      "name": "PRBMath_SD59x18_Mul_InputTooSmall",
      "type": "error"
    },
    {
      "inputs": [
        {
          "internalType": "SD59x18",
          "name": "x",
          "type": "int256"
        },
        {
          "internalType": "SD59x18",
          "name": "y",
          "type": "int256"
        }
      ],
      "name": "PRBMath_SD59x18_Mul_Overflow",
      "type": "error"
    },
    {
      "inputs": [
        {
          "internalType": "uint256",
          "name": "x",
          "type": "uint256"
        }
      ],
      "name": "PRBMath_UD60x18_Convert_Overflow",
      "type": "error"
    },
    {
      "inputs": [
        {
          "internalType": "UD60x18",
          "name": "x",
          "type": "uint256"
        }
      ],
      "name": "PRBMath_UD60x18_IntoSD59x18_Overflow",
      "type": "error"
    },
    {
      "anonymous": false,
      "inputs": [
        {
          "indexed": false,
          "internalType": "uint8",
          "name": "version",
          "type": "uint8"
        }
      ],
      "name": "Initialized",
      "type": "event"
    },
    {
      "anonymous": false,
      "inputs": [
        {
          "indexed": true,
          "internalType": "address",
          "name": "previousOwner",
          "type": "address"
        },
        {
          "indexed": true,
          "internalType": "address",
          "name": "newOwner",
          "type": "address"
        }
      ],
      "name": "OwnershipTransferred",
      "type": "event"
    },
    {
      "inputs": [
        {
          "internalType": "uint256",
          "name": "",
          "type": "uint256"
        }
      ],
      "name": "_loans",
      "outputs": [
        {
          "internalType": "address",
          "name": "borrower",
          "type": "address"
        },
        {
          "internalType": "UD60x18",
          "name": "ratePerSecond",
          "type": "uint256"
        },
        {
          "internalType": "UD60x18",
          "name": "paymentPerSecond",
          "type": "uint256"
        },
        {
          "internalType": "uint256",
          "name": "startTime",
          "type": "uint256"
        },
        {
          "internalType": "uint256",
          "name": "unpaidPrincipal",
          "type": "uint256"
        },
        {
          "internalType": "uint256",
          "name": "maxDurationSeconds",
          "type": "uint256"
        },
        {
          "internalType": "uint256",
          "name": "lastPaymentTime",
          "type": "uint256"
        }
      ],
      "stateMutability": "view",
      "type": "function"
    },
    {
      "inputs": [
        {
          "internalType": "uint256",
          "name": "tokenId",
          "type": "uint256"
        }
      ],
      "name": "accruedInterest",
      "outputs": [
        {
          "internalType": "uint256",
          "name": "",
          "type": "uint256"
        }
      ],
      "stateMutability": "view",
      "type": "function"
    },
    {
      "inputs": [],
      "name": "availableLiquidity",
      "outputs": [
        {
          "internalType": "uint256",
          "name": "",
          "type": "uint256"
        }
      ],
      "stateMutability": "view",
      "type": "function"
    },
    {
      "inputs": [
        {
          "components": [
            {
              "internalType": "address",
              "name": "bidder",
              "type": "address"
            },
            {
              "internalType": "uint256",
              "name": "propertyValue",
              "type": "uint256"
            },
            {
              "internalType": "uint256",
              "name": "downPayment",
              "type": "uint256"
            },
            {
              "internalType": "uint256",
              "name": "maxDurationMonths",
              "type": "uint256"
            }
          ],
          "internalType": "struct IState.Bid",
          "name": "bid",
          "type": "tuple"
        }
      ],
      "name": "bidActionable",
      "outputs": [
        {
          "internalType": "bool",
          "name": "",
          "type": "bool"
        }
      ],
      "stateMutability": "view",
      "type": "function"
    },
    {
      "inputs": [
        {
          "internalType": "uint256",
          "name": "tokenId",
          "type": "uint256"
        }
      ],
      "name": "bids",
      "outputs": [
        {
          "components": [
            {
              "internalType": "address",
              "name": "bidder",
              "type": "address"
            },
            {
              "internalType": "uint256",
              "name": "propertyValue",
              "type": "uint256"
            },
            {
              "internalType": "uint256",
              "name": "downPayment",
              "type": "uint256"
            },
            {
              "internalType": "uint256",
              "name": "maxDurationMonths",
              "type": "uint256"
            }
          ],
          "internalType": "struct IState.Bid[]",
          "name": "",
          "type": "tuple[]"
        }
      ],
      "stateMutability": "view",
      "type": "function"
    },
    {
      "inputs": [],
      "name": "defaultFeeSpread",
      "outputs": [
        {
          "internalType": "UD60x18",
          "name": "",
          "type": "uint256"
        }
      ],
      "stateMutability": "view",
      "type": "function"
    },
    {
      "inputs": [
        {
          "internalType": "uint256",
          "name": "usdc",
          "type": "uint256"
        }
      ],
      "name": "deposit",
      "outputs": [],
      "stateMutability": "nonpayable",
      "type": "function"
    },
    {
      "inputs": [
        {
          "internalType": "contract tUsdc",
          "name": "_tUSDC",
          "type": "address"
        },
        {
          "internalType": "contract TangibleNft",
          "name": "_prosperaNftContract",
          "type": "address"
        }
      ],
      "name": "initialize",
      "outputs": [],
      "stateMutability": "nonpayable",
      "type": "function"
    },
    {
      "inputs": [
        {
          "components": [
            {
              "internalType": "address",
              "name": "bidder",
              "type": "address"
            },
            {
              "internalType": "uint256",
              "name": "propertyValue",
              "type": "uint256"
            },
            {
              "internalType": "uint256",
              "name": "downPayment",
              "type": "uint256"
            },
            {
              "internalType": "uint256",
              "name": "maxDurationMonths",
              "type": "uint256"
            }
          ],
          "internalType": "struct IState.Bid",
          "name": "_bid",
          "type": "tuple"
        }
      ],
      "name": "loanBidActionable",
      "outputs": [
        {
          "internalType": "bool",
          "name": "",
          "type": "bool"
        }
      ],
      "stateMutability": "view",
      "type": "function"
    },
    {
      "inputs": [
        {
          "internalType": "uint256",
          "name": "tokenId",
          "type": "uint256"
        }
      ],
      "name": "loans",
      "outputs": [
        {
          "components": [
            {
              "internalType": "address",
              "name": "borrower",
              "type": "address"
            },
            {
              "internalType": "UD60x18",
              "name": "ratePerSecond",
              "type": "uint256"
            },
            {
              "internalType": "UD60x18",
              "name": "paymentPerSecond",
              "type": "uint256"
            },
            {
              "internalType": "uint256",
              "name": "startTime",
              "type": "uint256"
            },
            {
              "internalType": "uint256",
              "name": "unpaidPrincipal",
              "type": "uint256"
            },
            {
              "internalType": "uint256",
              "name": "maxDurationSeconds",
              "type": "uint256"
            },
            {
              "internalType": "uint256",
              "name": "lastPaymentTime",
              "type": "uint256"
            }
          ],
          "internalType": "struct IState.Loan",
          "name": "",
          "type": "tuple"
        }
      ],
      "stateMutability": "view",
      "type": "function"
    },
    {
      "inputs": [
        {
          "internalType": "uint256",
          "name": "idx",
          "type": "uint256"
        }
      ],
      "name": "loansTokenIdsAt",
      "outputs": [
        {
          "internalType": "uint256",
          "name": "tokenId",
          "type": "uint256"
        }
      ],
      "stateMutability": "view",
      "type": "function"
    },
    {
      "inputs": [],
      "name": "loansTokenIdsLength",
      "outputs": [
        {
          "internalType": "uint256",
          "name": "",
          "type": "uint256"
        }
      ],
      "stateMutability": "view",
      "type": "function"
    },
    {
      "inputs": [
        {
          "internalType": "bytes4",
          "name": "",
          "type": "bytes4"
        }
      ],
      "name": "logicTargets",
      "outputs": [
        {
          "internalType": "address",
          "name": "",
          "type": "address"
        }
      ],
      "stateMutability": "view",
      "type": "function"
    },
    {
      "inputs": [],
      "name": "maxDurationMonthsCap",
      "outputs": [
        {
          "internalType": "uint256",
          "name": "",
          "type": "uint256"
        }
      ],
      "stateMutability": "view",
      "type": "function"
    },
    {
      "inputs": [],
      "name": "maxLtv",
      "outputs": [
        {
          "internalType": "UD60x18",
          "name": "",
          "type": "uint256"
        }
      ],
      "stateMutability": "view",
      "type": "function"
    },
    {
      "inputs": [],
      "name": "monthSeconds",
      "outputs": [
        {
          "internalType": "uint256",
          "name": "",
          "type": "uint256"
        }
      ],
      "stateMutability": "view",
      "type": "function"
    },
    {
      "inputs": [],
      "name": "optimalUtilization",
      "outputs": [
        {
          "internalType": "UD60x18",
          "name": "",
          "type": "uint256"
        }
      ],
      "stateMutability": "view",
      "type": "function"
    },
    {
      "inputs": [],
      "name": "owner",
      "outputs": [
        {
          "internalType": "address",
          "name": "",
          "type": "address"
        }
      ],
      "stateMutability": "view",
      "type": "function"
    },
    {
      "inputs": [
        {
          "components": [
            {
              "internalType": "address",
              "name": "borrower",
              "type": "address"
            },
            {
              "internalType": "UD60x18",
              "name": "ratePerSecond",
              "type": "uint256"
            },
            {
              "internalType": "UD60x18",
              "name": "paymentPerSecond",
              "type": "uint256"
            },
            {
              "internalType": "uint256",
              "name": "startTime",
              "type": "uint256"
            },
            {
              "internalType": "uint256",
              "name": "unpaidPrincipal",
              "type": "uint256"
            },
            {
              "internalType": "uint256",
              "name": "maxDurationSeconds",
              "type": "uint256"
            },
            {
              "internalType": "uint256",
              "name": "lastPaymentTime",
              "type": "uint256"
            }
          ],
          "internalType": "struct IState.Loan",
          "name": "loan",
          "type": "tuple"
        },
        {
          "internalType": "uint256",
          "name": "month",
          "type": "uint256"
        }
      ],
      "name": "principalCap",
      "outputs": [
        {
          "internalType": "uint256",
          "name": "cap",
          "type": "uint256"
        }
      ],
      "stateMutability": "pure",
      "type": "function"
    },
    {
      "inputs": [],
      "name": "redemptionFeeSpread",
      "outputs": [
        {
          "internalType": "UD60x18",
          "name": "",
          "type": "uint256"
        }
      ],
      "stateMutability": "view",
      "type": "function"
    },
    {
      "inputs": [],
      "name": "renounceOwnership",
      "outputs": [],
      "stateMutability": "nonpayable",
      "type": "function"
    },
    {
      "inputs": [
        {
          "internalType": "bytes4[]",
          "name": "selectorsArr",
          "type": "bytes4[]"
        },
        {
          "internalType": "address",
          "name": "target",
          "type": "address"
        }
      ],
      "name": "setSelectorsTarget",
      "outputs": [],
      "stateMutability": "nonpayable",
      "type": "function"
    },
    {
      "inputs": [
        {
          "internalType": "uint256",
          "name": "tokenId",
          "type": "uint256"
        }
      ],
      "name": "status",
      "outputs": [
        {
          "internalType": "enum IState.Status",
          "name": "",
          "type": "uint8"
        }
      ],
      "stateMutability": "view",
      "type": "function"
    },
    {
      "inputs": [
        {
          "internalType": "uint256",
          "name": "tUsdcAmount",
          "type": "uint256"
        }
      ],
      "name": "tUsdcToUsdc",
      "outputs": [
        {
          "internalType": "uint256",
          "name": "usdcAmount",
          "type": "uint256"
        }
      ],
      "stateMutability": "view",
      "type": "function"
    },
    {
      "inputs": [
        {
          "internalType": "uint256",
          "name": "tokenId",
          "type": "uint256"
        }
      ],
      "name": "tokenIdBidsLength",
      "outputs": [
        {
          "internalType": "uint256",
          "name": "",
          "type": "uint256"
        }
      ],
      "stateMutability": "view",
      "type": "function"
    },
    {
      "inputs": [],
      "name": "totalDeposits",
      "outputs": [
        {
          "internalType": "uint256",
          "name": "",
          "type": "uint256"
        }
      ],
      "stateMutability": "view",
      "type": "function"
    },
    {
      "inputs": [],
      "name": "totalPrincipal",
      "outputs": [
        {
          "internalType": "uint256",
          "name": "",
          "type": "uint256"
        }
      ],
      "stateMutability": "view",
      "type": "function"
    },
    {
      "inputs": [
        {
          "internalType": "address",
          "name": "newOwner",
          "type": "address"
        }
      ],
      "name": "transferOwnership",
      "outputs": [],
      "stateMutability": "nonpayable",
      "type": "function"
    },
    {
      "inputs": [
        {
          "internalType": "uint256",
          "name": "usdcAmount",
          "type": "uint256"
        }
      ],
      "name": "usdcToTUsdc",
      "outputs": [
        {
          "internalType": "uint256",
          "name": "tUsdcAmount",
          "type": "uint256"
        }
      ],
      "stateMutability": "view",
      "type": "function"
    },
    {
      "inputs": [
        {
          "internalType": "uint256",
          "name": "usdc",
          "type": "uint256"
        }
      ],
      "name": "withdraw",
      "outputs": [],
      "stateMutability": "nonpayable",
      "type": "function"
    },
    {
      "inputs": [],
      "name": "yearMonths",
      "outputs": [
        {
          "internalType": "uint256",
          "name": "",
          "type": "uint256"
        }
      ],
      "stateMutability": "view",
      "type": "function"
    },
    {
      "inputs": [],
      "name": "yearSeconds",
      "outputs": [
        {
          "internalType": "uint256",
          "name": "",
          "type": "uint256"
        }
      ],
      "stateMutability": "view",
      "type": "function"
    }
  ],
  "bytecode": "0x608060405273a0b86991c6218b36c1d19d4a2e9eb0ce3606eb486002806101000a81548173ffffffffffffffffffffffffffffffffffffffff021916908373ffffffffffffffffffffffffffffffffffffffff1602179055506200008f6200006e60646200027d60201b60201c565b62000080605a6200027d60201b60201c565b6200030e60201b90919060201c565b600755620000c9620000a860646200027d60201b60201c565b620000ba60046200027d60201b60201c565b6200030e60201b90919060201c565b60085562000103620000e260646200027d60201b60201c565b620000f460036200027d60201b60201c565b6200030e60201b90919060201c565b6009556200011860096200027d60201b60201c565b600a55620001526200013160646200027d60201b60201c565b6200014360016200027d60201b60201c565b6200030e60201b90919060201c565b600b556200018c6200016b60646200027d60201b60201c565b6200017d60026200027d60201b60201c565b6200030e60201b90919060201c565b600c55620001c6620001a560646200027d60201b60201c565b620001b760036200027d60201b60201c565b6200030e60201b90919060201c565b600d5562000200620001df60646200027d60201b60201c565b620001f160046200027d60201b60201c565b6200030e60201b90919060201c565b600e55623b5380601455620002416200022060646200027d60201b60201c565b6200023260326200027d60201b60201c565b6200030e60201b90919060201c565b60155560786016553480156200025657600080fd5b50620002776200026b6200036360201b60201c565b6200036b60201b60201c565b62000641565b6000670de0b6b3a76400007fffffffffffffffffffffffffffffffffffffffffffffffffffffffffffffffff620002b591906200059e565b821115620002fc57816040517f1cd951a7000000000000000000000000000000000000000000000000000000008152600401620002f39190620005e7565b60405180910390fd5b670de0b6b3a764000082029050919050565b60006200035b6200034f62000329856200042f60201b60201c565b670de0b6b3a764000062000343866200042f60201b60201c565b6200043960201b60201c565b6200055b60201b60201c565b905092915050565b600033905090565b60008060009054906101000a900473ffffffffffffffffffffffffffffffffffffffff169050816000806101000a81548173ffffffffffffffffffffffffffffffffffffffff021916908373ffffffffffffffffffffffffffffffffffffffff1602179055508173ffffffffffffffffffffffffffffffffffffffff168173ffffffffffffffffffffffffffffffffffffffff167f8be0079c531659141344cd1fd0a4f28419497f9722a3daafe3b4186f6b6457e060405160405180910390a35050565b6000819050919050565b600080600080198587098587029250828110838203039150506000810362000479578382816200046e576200046d6200056f565b5b049250505062000554565b838110620004c4578585856040517f63a05778000000000000000000000000000000000000000000000000000000008152600401620004bb9392919062000604565b60405180910390fd5b60008486880990508281118203915080830392506000600186190186169050600081870496508185049450600182836000030401905080840285179450600060028860030218905080880260020381029050808802600203810290508088026002038102905080880260020381029050808802600203810290508088026002038102905080860296505050505050505b9392505050565b6000819050919050565b6000819050919050565b7f4e487b7100000000000000000000000000000000000000000000000000000000600052601260045260246000fd5b6000620005ab8262000565565b9150620005b88362000565565b925082620005cb57620005ca6200056f565b5b828204905092915050565b620005e18162000565565b82525050565b6000602082019050620005fe6000830184620005d6565b92915050565b60006060820190506200061b6000830186620005d6565b6200062a6020830185620005d6565b620006396040830184620005d6565b949350505050565b6145d380620006516000396000f3fe608060405234801561001057600080fd5b50600436106101f05760003560e01c806374bdf96a1161010f578063b6b55f25116100a2578063e343504411610071578063e343504414610601578063edb679fe1461061d578063f2fde38b1461064d578063ff9ad6df14610669576101f0565b8063b6b55f251461054f578063bcff3e3b1461056b578063bd5c569b1461059b578063e1ec3c68146105d1576101f0565b80638da5cb5b116100de5780638da5cb5b146104c5578063a0024c2f146104e3578063a54cab1c14610513578063ab01f7e114610531576101f0565b806374bdf96a1461043b5780637d8820971461046b578063812cf0181461048957806387ae0dbe146104a7576101f0565b80634423c5f1116101875780636290cd1c116101565780636290cd1c146103c55780636a7804a4146103e3578063715018a614610413578063743753591461041d576101f0565b80634423c5f11461033d578063485cc9551461036d5780634abb3003146103895780634b1533b2146103a7576101f0565b80632e1a7d4d116101c35780632e1a7d4d146102b55780633a12c6da146102d15780633ca36db6146102ef57806342d21ef71461030d576101f0565b80630a9cc0b6146101f557806317548b79146102255780631cc03c87146102555780632da1092314610285575b600080fd5b61020f600480360381019061020a9190613382565b610687565b60405161021c91906133ca565b60405180910390f35b61023f600480360381019061023a919061343d565b6106fc565b60405161024c9190613479565b60405180910390f35b61026f600480360381019061026a9190613574565b61072f565b60405161027c91906135c4565b60405180910390f35b61029f600480360381019061029a91906135df565b610891565b6040516102ac91906135c4565b60405180910390f35b6102cf60048036038101906102ca91906135df565b6108b1565b005b6102d96109fc565b6040516102e69190613647565b60405180910390f35b6102f7610a02565b6040516103049190613647565b60405180910390f35b610327600480360381019061032291906135df565b610a0c565b60405161033491906136d9565b60405180910390f35b610357600480360381019061035291906135df565b610b53565b6040516103649190613816565b60405180910390f35b610387600480360381019061038291906138b4565b610c39565b005b610391610dfa565b60405161039e9190613647565b60405180910390f35b6103af610e04565b6040516103bc91906135c4565b60405180910390f35b6103cd610e0a565b6040516103da9190613647565b60405180910390f35b6103fd60048036038101906103f891906135df565b610e10565b60405161040a91906135c4565b60405180910390f35b61041b610ee7565b005b610425610efb565b60405161043291906135c4565b60405180910390f35b610455600480360381019061045091906135df565b610f12565b60405161046291906135c4565b60405180910390f35b610473610f2f565b60405161048091906135c4565b60405180910390f35b610491610f35565b60405161049e91906135c4565b60405180910390f35b6104af610f3a565b6040516104bc91906135c4565b60405180910390f35b6104cd610f42565b6040516104da9190613479565b60405180910390f35b6104fd60048036038101906104f89190613382565b610f6b565b60405161050a91906133ca565b60405180910390f35b61051b610f8f565b60405161052891906135c4565b60405180910390f35b610539610f95565b60405161054691906135c4565b60405180910390f35b610569600480360381019061056491906135df565b610fa6565b005b610585600480360381019061058091906135df565b6110ac565b60405161059291906135c4565b60405180910390f35b6105b560048036038101906105b091906135df565b61116d565b6040516105c897969594939291906138f4565b60405180910390f35b6105eb60048036038101906105e691906135df565b6111cf565b6040516105f89190613a00565b60405180910390f35b61061b60048036038101906106169190613a80565b61128e565b005b610637600480360381019061063291906135df565b611374565b60405161064491906135c4565b60405180910390f35b61066760048036038101906106629190613ae0565b61144b565b005b6106716114ce565b60405161067e91906135c4565b60405180910390f35b6000808260400151836020015161069e9190613b3c565b905060006106c96106b285602001516114e2565b6106bb846114e2565b61156e90919063ffffffff16565b90506106e0601554826115a390919063ffffffff16565b80156106f357506106ef610efb565b8211155b92505050919050565b60016020528060005260406000206000915054906101000a900473ffffffffffffffffffffffffffffffffffffffff1681565b600061073a836115c1565b82111561077c576040517f08c379a000000000000000000000000000000000000000000000000000000000815260040161077390613bf3565b60405180910390fd5b6000600c6301e1338061078f9190613c42565b8361079a9190613c73565b905060006107e06107ab60016115ea565b6107d26107bb8860a001516115ea565b6107c4866115ea565b6116ee90919063ffffffff16565b6116ee90919063ffffffff16565b905060006108396108218361081361080e8a6020015161080060016114e2565b61171c90919063ffffffff16565b61174a565b6117be90919063ffffffff16565b61082b60016115ea565b6116ee90919063ffffffff16565b9050600061086461085f836108518a6040015161174a565b61187c90919063ffffffff16565b611a0c565b905061088561088088602001518361156e90919063ffffffff16565b611a61565b94505050505092915050565b6000600f6000838152602001908152602001600020805490509050919050565b60006108bc82610e10565b9050600360009054906101000a900473ffffffffffffffffffffffffffffffffffffffff1673ffffffffffffffffffffffffffffffffffffffff1663fc673c4f33836040518363ffffffff1660e01b815260040161091b929190613cec565b600060405180830381600087803b15801561093557600080fd5b505af1158015610949573d6000803e3d6000fd5b50505050816006600082825461095f9190613b3c565b9250508190555060065460055411156109ad576040517f08c379a00000000000000000000000000000000000000000000000000000000081526004016109a490613d87565b60405180910390fd5b6109f8338360028054906101000a900473ffffffffffffffffffffffffffffffffffffffff1673ffffffffffffffffffffffffffffffffffffffff16611a7e9092919063ffffffff16565b5050565b60155481565b6000600d54905090565b600080601060008481526020019081526020016000206040518060e00160405290816000820160009054906101000a900473ffffffffffffffffffffffffffffffffffffffff1673ffffffffffffffffffffffffffffffffffffffff1673ffffffffffffffffffffffffffffffffffffffff16815260200160018201548152602001600282015481526020016003820154815260200160048201548152602001600582015481526020016006820154815250509050600073ffffffffffffffffffffffffffffffffffffffff16816000015173ffffffffffffffffffffffffffffffffffffffff1603610b03576000915050610b4e565b610b0c83611b04565b15610b48576000610b1c82611c19565b42610b279190613b3c565b90506014548111610b3d57600292505050610b4e565b600392505050610b4e565b60019150505b919050565b6060600f6000838152602001908152602001600020805480602002602001604051908101604052809291908181526020016000905b82821015610c2e57838290600052602060002090600402016040518060800160405290816000820160009054906101000a900473ffffffffffffffffffffffffffffffffffffffff1673ffffffffffffffffffffffffffffffffffffffff1673ffffffffffffffffffffffffffffffffffffffff168152602001600182015481526020016002820154815260200160038201548152505081526020019060010190610b88565b505050509050919050565b6000600260019054906101000a900460ff16159050808015610c6d57506001600260009054906101000a900460ff1660ff16105b80610c9c5750610c7c30611cc4565b158015610c9b57506001600260009054906101000a900460ff1660ff16145b5b610cdb576040517f08c379a0000000000000000000000000000000000000000000000000000000008152600401610cd290613e19565b60405180910390fd5b6001600260006101000a81548160ff021916908360ff1602179055508015610d19576001600260016101000a81548160ff0219169083151502179055505b82600360006101000a81548173ffffffffffffffffffffffffffffffffffffffff021916908373ffffffffffffffffffffffffffffffffffffffff16021790555081600460006101000a81548173ffffffffffffffffffffffffffffffffffffffff021916908373ffffffffffffffffffffffffffffffffffffffff1602179055508015610df5576000600260016101000a81548160ff0219169083151502179055507f7f26b83ff96e1f2b6a682f133852f6798a09c465da95921460cefb38474024986001604051610dec9190613e81565b60405180910390a15b505050565b6000600e54905090565b60055481565b60075481565b600080600360009054906101000a900473ffffffffffffffffffffffffffffffffffffffff1673ffffffffffffffffffffffffffffffffffffffff166318160ddd6040518163ffffffff1660e01b8152600401602060405180830381865afa158015610e80573d6000803e3d6000fd5b505050506040513d601f19601f82011682018060405250810190610ea49190613eb1565b90506000811480610eb757506000600654145b15610ec55782915050610ee2565b6006548184610ed49190613c73565b610ede9190613c42565b9150505b919050565b610eef611ce7565b610ef96000611d65565b565b6000600554600654610f0d9190613b3c565b905090565b6000610f28826011611e2990919063ffffffff16565b9050919050565b60065481565b600c81565b6301e1338081565b60008060009054906101000a900473ffffffffffffffffffffffffffffffffffffffff16905090565b6000816040015182602001511480610f885750610f8782610687565b5b9050919050565b60165481565b6000610fa16011611e43565b905090565b610ff333308360028054906101000a900473ffffffffffffffffffffffffffffffffffffffff1673ffffffffffffffffffffffffffffffffffffffff16611e58909392919063ffffffff16565b80600660008282546110059190613ede565b92505081905550600061101782610e10565b9050600360009054906101000a900473ffffffffffffffffffffffffffffffffffffffff1673ffffffffffffffffffffffffffffffffffffffff166319c08fb833836040518363ffffffff1660e01b8152600401611076929190613f12565b600060405180830381600087803b15801561109057600080fd5b505af11580156110a4573d6000803e3d6000fd5b505050505050565b6000611166601060008481526020019081526020016000206040518060e00160405290816000820160009054906101000a900473ffffffffffffffffffffffffffffffffffffffff1673ffffffffffffffffffffffffffffffffffffffff1673ffffffffffffffffffffffffffffffffffffffff1681526020016001820154815260200160028201548152602001600382015481526020016004820154815260200160058201548152602001600682015481525050611ee1565b9050919050565b60106020528060005260406000206000915090508060000160009054906101000a900473ffffffffffffffffffffffffffffffffffffffff16908060010154908060020154908060030154908060040154908060050154908060060154905087565b6111d761317e565b601060008381526020019081526020016000206040518060e00160405290816000820160009054906101000a900473ffffffffffffffffffffffffffffffffffffffff1673ffffffffffffffffffffffffffffffffffffffff1673ffffffffffffffffffffffffffffffffffffffff16815260200160018201548152602001600282015481526020016003820154815260200160048201548152602001600582015481526020016006820154815250509050919050565b611296611ce7565b60005b8383905081101561136e5781600160008686858181106112bc576112bb613f3b565b5b90506020020160208101906112d1919061343d565b7bffffffffffffffffffffffffffffffffffffffffffffffffffffffff19167bffffffffffffffffffffffffffffffffffffffffffffffffffffffff1916815260200190815260200160002060006101000a81548173ffffffffffffffffffffffffffffffffffffffff021916908373ffffffffffffffffffffffffffffffffffffffff160217905550808061136690613f6a565b915050611299565b50505050565b600080600360009054906101000a900473ffffffffffffffffffffffffffffffffffffffff1673ffffffffffffffffffffffffffffffffffffffff166318160ddd6040518163ffffffff1660e01b8152600401602060405180830381865afa1580156113e4573d6000803e3d6000fd5b505050506040513d601f19601f820116820180604052508101906114089190613eb1565b9050600081148061141b57506000600654145b156114295782915050611446565b80600654846114389190613c73565b6114429190613c42565b9150505b919050565b611453611ce7565b600073ffffffffffffffffffffffffffffffffffffffff168173ffffffffffffffffffffffffffffffffffffffff16036114c2576040517f08c379a00000000000000000000000000000000000000000000000000000000081526004016114b990614024565b60405180910390fd5b6114cb81611d65565b50565b600c6301e133806114df9190613c42565b81565b6000670de0b6b3a76400007fffffffffffffffffffffffffffffffffffffffffffffffffffffffffffffffff6115189190613c42565b82111561155c57816040517f1cd951a700000000000000000000000000000000000000000000000000000000815260040161155391906135c4565b60405180910390fd5b670de0b6b3a764000082029050919050565b600061159b61159661157f85611f19565b670de0b6b3a764000061159186611f19565b611f23565b61203d565b905092915050565b60006115ae82611f19565b6115b784611f19565b1115905092915050565b60006301e133808260a00151600c6115d99190613c73565b6115e39190613c42565b9050919050565b6000670de0b6b3a76400007f8000000000000000000000000000000000000000000000000000000000000000611620919061404e565b82121561166457816040517f99474eeb00000000000000000000000000000000000000000000000000000000815260040161165b91906140c7565b60405180910390fd5b670de0b6b3a76400007f7fffffffffffffffffffffffffffffffffffffffffffffffffffffffffffffff611698919061404e565b8213156116dc57816040517f9d5810910000000000000000000000000000000000000000000000000000000081526004016116d391906140c7565b60405180910390fd5b670de0b6b3a764000082029050919050565b60006117146116fc83612047565b61170585612047565b61170f91906140e2565b612051565b905092915050565b600061174261172a83611f19565b61173385611f19565b61173d9190613ede565b61203d565b905092915050565b6000808290507f7fffffffffffffffffffffffffffffffffffffffffffffffffffffffffffffff8111156117b557826040517ff46186840000000000000000000000000000000000000000000000000000000081526004016117ac9190613647565b60405180910390fd5b80915050919050565b6000806117ca84612047565b905060006117d784612047565b90506000820361180357600081146117f05760006117fa565b670de0b6b3a76400005b92505050611876565b670de0b6b3a7640000820361182457670de0b6b3a764000092505050611876565b6000810361183e57670de0b6b3a764000092505050611876565b670de0b6b3a76400008103611857578492505050611876565b61187161186c6118668761205b565b8661187c565b6121ee565b925050505b92915050565b60008061188884612047565b9050600061189584612047565b90507f80000000000000000000000000000000000000000000000000000000000000008214806118e457507f800000000000000000000000000000000000000000000000000000000000000081145b1561191b576040517fa6070c2500000000000000000000000000000000000000000000000000000000815260040160405180910390fd5b6000806000841261192c5783611931565b836000035b9150600083126119415782611946565b826000035b90506000611954838361230c565b90507f7fffffffffffffffffffffffffffffffffffffffffffffffffffffffffffffff8111156119bd5787876040517f120b5b430000000000000000000000000000000000000000000000000000000081526004016119b4929190614156565b60405180910390fd5b60007fffffffffffffffffffffffffffffffffffffffffffffffffffffffffffffffff8587181390506119fe816119f757826000036119f9565b825b612051565b965050505050505092915050565b6000808290506000811215611a5857826040517fbba41a15000000000000000000000000000000000000000000000000000000008152600401611a4f919061417f565b60405180910390fd5b80915050919050565b6000670de0b6b3a764000082611a779190613c42565b9050919050565b611aff8363a9059cbb60e01b8484604051602401611a9d929190613f12565b604051602081830303815290604052907bffffffffffffffffffffffffffffffffffffffffffffffffffffffff19166020820180517bffffffffffffffffffffffffffffffffffffffffffffffffffffffff83818316178352505050506123f6565b505050565b600080601060008481526020019081526020016000206040518060e00160405290816000820160009054906101000a900473ffffffffffffffffffffffffffffffffffffffff1673ffffffffffffffffffffffffffffffffffffffff1673ffffffffffffffffffffffffffffffffffffffff168152602001600182015481526020016002820154815260200160038201548152602001600482015481526020016005820154815260200160068201548152505090506000611bc4826124bd565b90506000600c6301e133808460a00151611bde9190613c42565b611be89190613c73565b905080821115611bfe5760019350505050611c14565b611c08838361072f565b83608001511193505050505b919050565b600080611c25836124bd565b905060008190505b6000811115611cbd576000611c42858361072f565b90506000611c5c86600185611c579190613b3c565b61072f565b9050818660800151118015611c75575080866080015111155b15611ca857600c6301e13380611c8b9190613c42565b83611c969190613c73565b8660600151611ca59190613ede565b94505b50508080611cb59061419a565b915050611c2d565b5050919050565b6000808273ffffffffffffffffffffffffffffffffffffffff163b119050919050565b611cef612512565b73ffffffffffffffffffffffffffffffffffffffff16611d0d610f42565b73ffffffffffffffffffffffffffffffffffffffff1614611d63576040517f08c379a0000000000000000000000000000000000000000000000000000000008152600401611d5a9061420f565b60405180910390fd5b565b60008060009054906101000a900473ffffffffffffffffffffffffffffffffffffffff169050816000806101000a81548173ffffffffffffffffffffffffffffffffffffffff021916908373ffffffffffffffffffffffffffffffffffffffff1602179055508173ffffffffffffffffffffffffffffffffffffffff168173ffffffffffffffffffffffffffffffffffffffff167f8be0079c531659141344cd1fd0a4f28419497f9722a3daafe3b4186f6b6457e060405160405180910390a35050565b6000611e38836000018361251a565b60001c905092915050565b6000611e5182600001612545565b9050919050565b611edb846323b872dd60e01b858585604051602401611e799392919061422f565b604051602081830303815290604052907bffffffffffffffffffffffffffffffffffffffffffffffffffffffff19166020820180517bffffffffffffffffffffffffffffffffffffffffffffffffffffffff83818316178352505050506123f6565b50505050565b6000611f12611f0d611ef284612556565b611eff85608001516114e2565b61258690919063ffffffff16565b611a61565b9050919050565b6000819050919050565b6000806000801985870985870292508281108382030391505060008103611f5e57838281611f5457611f53613c13565b5b0492505050612036565b838110611fa6578585856040517f63a05778000000000000000000000000000000000000000000000000000000008152600401611f9d93929190614266565b60405180910390fd5b60008486880990508281118203915080830392506000600186190186169050600081870496508185049450600182836000030401905080840285179450600060028860030218905080880260020381029050808802600203810290508088026002038102905080880260020381029050808802600203810290508088026002038102905080860296505050505050505b9392505050565b6000819050919050565b6000819050919050565b6000819050919050565b60008061206783612047565b9050600081136120ae57826040517f059b101b0000000000000000000000000000000000000000000000000000000081526004016120a5919061417f565b60405180910390fd5b6000670de0b6b3a764000082126120c8576001905061210e565b7fffffffffffffffffffffffffffffffffffffffffffffffffffffffffffffffff9050816ec097ce7bc90715b34b9f10000000008161210a57612109613c13565b5b0591505b6000612131670de0b6b3a7640000848161212b5761212a613c13565b5b056125b2565b90506000670de0b6b3a76400008202905060008285901d9050670de0b6b3a7640000810361217057612164848302612051565b955050505050506121e9565b6000671bc16d674ec80000905060006706f05b59d3b2000090505b60008113156121d157670de0b6b3a7640000838402816121ae576121ad613c13565b5b0592508183126121c5578084019350600183901d92505b600181901d905061218b565b5084830292506121e083612051565b96505050505050505b919050565b6000806121fa83612047565b90506000811215612281577ffffffffffffffffffffffffffffffffffffffffffffffffcc22e87f6eb468eeb811215612237576000915050612307565b61227a61225661225161224c84600003612051565b6121ee565b612047565b6ec097ce7bc90715b34b9f10000000008161227457612273613c13565b5b05612051565b9150612305565b680a688906bd8affffff8113156122cf57826040517f0360d0280000000000000000000000000000000000000000000000000000000081526004016122c6919061417f565b60405180910390fd5b6000670de0b6b3a7640000604083901b816122ed576122ec613c13565b5b0590506123016122fc8261265b565b612051565b9250505b505b919050565b600080600080198486098486029250828110838203039150506000810361234f57670de0b6b3a7640000828161234557612344613c13565b5b04925050506123f0565b670de0b6b3a7640000811061239d5784846040517f5173648d00000000000000000000000000000000000000000000000000000000815260040161239492919061429d565b60405180910390fd5b6000670de0b6b3a764000085870990507faccb18165bd6fe31ae1cf318dc5b51eee0e1ba569b88cd74c1773b91fac106696001620400008060000304018483118403026204000083860304170293505050505b92915050565b6000612458826040518060400160405280602081526020017f5361666545524332303a206c6f772d6c6576656c2063616c6c206661696c65648152508573ffffffffffffffffffffffffffffffffffffffff16612fbb9092919063ffffffff16565b90506000815111156124b8578080602001905181019061247891906142f2565b6124b7576040517f08c379a00000000000000000000000000000000000000000000000000000000081526004016124ae90614391565b60405180910390fd5b5b505050565b600080600c6301e133806124d19190613c42565b8360600151426124e19190613b3c565b6124eb9190613c42565b905060006124f8846115c1565b90508082116125075781612509565b805b92505050919050565b600033905090565b600082600001828154811061253257612531613f3b565b5b9060005260206000200154905092915050565b600081600001805490509050919050565b600061257f61256c61256784612fd3565b6114e2565b836020015161258690919063ffffffff16565b9050919050565b60006125aa6125a561259785611f19565b6125a085611f19565b61230c565b61203d565b905092915050565b60006fffffffffffffffffffffffffffffffff821160071b82811c925080821791505067ffffffffffffffff821160061b82811c925080821791505063ffffffff821160051b82811c925080821791505061ffff821160041b82811c925080821791505060ff821160031b82811c9250808217915050600f821160021b82811c92508082179150506003821160011b82811c925080821791505060018211808217915050919050565b6000778000000000000000000000000000000000000000000000009050600067ff00000000000000831611156127bc576000678000000000000000831611156126b157604068016a09e667f3bcc9098202901c90505b6000674000000000000000831611156126d75760406801306fe0a31b7152df8202901c90505b6000672000000000000000831611156126fd5760406801172b83c7d517adce8202901c90505b60006710000000000000008316111561272357604068010b5586cf9890f62a8202901c90505b6000670800000000000000831611156127495760406801059b0d31585743ae8202901c90505b60006704000000000000008316111561276f576040680102c9a3e778060ee78202901c90505b60006702000000000000008316111561279557604068010163da9fb33356d88202901c90505b6000670100000000000000831611156127bb576040680100b1afa5abcbed618202901c90505b5b600066ff000000000000831611156128f75760006680000000000000831611156127f357604068010058c86da1c09ea28202901c90505b60006640000000000000831611156128185760406801002c605e2e8cec508202901c90505b600066200000000000008316111561283d576040680100162f3904051fa18202901c90505b60006610000000000000831611156128625760406801000b175effdc76ba8202901c90505b6000660800000000000083161115612887576040680100058ba01fb9f96d8202901c90505b60006604000000000000831611156128ac57604068010002c5cc37da94928202901c90505b60006602000000000000831611156128d15760406801000162e525ee05478202901c90505b60006601000000000000831611156128f657604068010000b17255775c048202901c90505b5b600065ff000000000083161115612a29576000658000000000008316111561292c5760406801000058b91b5bc9ae8202901c90505b60006540000000000083161115612950576040680100002c5c89d5ec6d8202901c90505b6000652000000000008316111561297457604068010000162e43f4f8318202901c90505b60006510000000000083161115612998576040680100000b1721bcfc9a8202901c90505b600065080000000000831611156129bc57604068010000058b90cf1e6e8202901c90505b600065040000000000831611156129e05760406801000002c5c863b73f8202901c90505b60006502000000000083161115612a04576040680100000162e430e5a28202901c90505b60006501000000000083161115612a285760406801000000b1721835518202901c90505b5b600064ff0000000083161115612b5257600064800000000083161115612a5c576040680100000058b90c0b498202901c90505b600064400000000083161115612a7f57604068010000002c5c8601cc8202901c90505b600064200000000083161115612aa25760406801000000162e42fff08202901c90505b600064100000000083161115612ac557604068010000000b17217fbb8202901c90505b600064080000000083161115612ae85760406801000000058b90bfce8202901c90505b600064040000000083161115612b0b576040680100000002c5c85fe38202901c90505b600064020000000083161115612b2e57604068010000000162e42ff18202901c90505b600064010000000083161115612b51576040680100000000b17217f88202901c90505b5b600063ff00000083161115612c72576000638000000083161115612b8357604068010000000058b90bfc8202901c90505b6000634000000083161115612ba55760406801000000002c5c85fe8202901c90505b6000632000000083161115612bc7576040680100000000162e42ff8202901c90505b6000631000000083161115612be95760406801000000000b17217f8202901c90505b6000630800000083161115612c0b576040680100000000058b90c08202901c90505b6000630400000083161115612c2d57604068010000000002c5c8608202901c90505b6000630200000083161115612c4f5760406801000000000162e4308202901c90505b6000630100000083161115612c7157604068010000000000b172188202901c90505b5b600062ff000083161115612d895760006280000083161115612ca15760406801000000000058b90c8202901c90505b60006240000083161115612cc2576040680100000000002c5c868202901c90505b60006220000083161115612ce357604068010000000000162e438202901c90505b60006210000083161115612d04576040680100000000000b17218202901c90505b60006208000083161115612d2557604068010000000000058b918202901c90505b60006204000083161115612d465760406801000000000002c5c88202901c90505b60006202000083161115612d67576040680100000000000162e48202901c90505b60006201000083161115612d885760406801000000000000b1728202901c90505b5b600061ff0083161115612e9757600061800083161115612db6576040680100000000000058b98202901c90505b600061400083161115612dd657604068010000000000002c5d8202901c90505b600061200083161115612df65760406801000000000000162e8202901c90505b600061100083161115612e1657604068010000000000000b178202901c90505b600061080083161115612e365760406801000000000000058c8202901c90505b600061040083161115612e56576040680100000000000002c68202901c90505b600061020083161115612e76576040680100000000000001638202901c90505b600061010083161115612e96576040680100000000000000b18202901c90505b5b600060ff83161115612f9c576000608083161115612ec2576040680100000000000000598202901c90505b6000604083161115612ee15760406801000000000000002c8202901c90505b6000602083161115612f00576040680100000000000000168202901c90505b6000601083161115612f1f5760406801000000000000000b8202901c90505b6000600883161115612f3e576040680100000000000000068202901c90505b6000600483161115612f5d576040680100000000000000038202901c90505b6000600283161115612f7c576040680100000000000000018202901c90505b6000600183161115612f9b576040680100000000000000018202901c90505b5b670de0b6b3a764000081029050604082901c60bf0381901c9050919050565b6060612fca8484600085612fec565b90509392505050565b60008160c0015142612fe59190613b3c565b9050919050565b606082471015613031576040517f08c379a000000000000000000000000000000000000000000000000000000000815260040161302890614423565b60405180910390fd5b6000808673ffffffffffffffffffffffffffffffffffffffff16858760405161305a91906144b4565b60006040518083038185875af1925050503d8060008114613097576040519150601f19603f3d011682016040523d82523d6000602084013e61309c565b606091505b50915091506130ad878383876130b9565b92505050949350505050565b6060831561311b576000835103613113576130d385611cc4565b613112576040517f08c379a000000000000000000000000000000000000000000000000000000000815260040161310990614517565b60405180910390fd5b5b829050613126565b613125838361312e565b5b949350505050565b6000825111156131415781518083602001fd5b806040517f08c379a0000000000000000000000000000000000000000000000000000000008152600401613175919061457b565b60405180910390fd5b6040518060e00160405280600073ffffffffffffffffffffffffffffffffffffffff1681526020016000815260200160008152602001600081526020016000815260200160008152602001600081525090565b6000604051905090565b600080fd5b600080fd5b600080fd5b6000601f19601f8301169050919050565b7f4e487b7100000000000000000000000000000000000000000000000000000000600052604160045260246000fd5b613233826131ea565b810181811067ffffffffffffffff82111715613252576132516131fb565b5b80604052505050565b60006132656131d1565b9050613271828261322a565b919050565b600073ffffffffffffffffffffffffffffffffffffffff82169050919050565b60006132a182613276565b9050919050565b6132b181613296565b81146132bc57600080fd5b50565b6000813590506132ce816132a8565b92915050565b6000819050919050565b6132e7816132d4565b81146132f257600080fd5b50565b600081359050613304816132de565b92915050565b6000608082840312156133205761331f6131e5565b5b61332a608061325b565b9050600061333a848285016132bf565b600083015250602061334e848285016132f5565b6020830152506040613362848285016132f5565b6040830152506060613376848285016132f5565b60608301525092915050565b600060808284031215613398576133976131db565b5b60006133a68482850161330a565b91505092915050565b60008115159050919050565b6133c4816133af565b82525050565b60006020820190506133df60008301846133bb565b92915050565b60007fffffffff0000000000000000000000000000000000000000000000000000000082169050919050565b61341a816133e5565b811461342557600080fd5b50565b60008135905061343781613411565b92915050565b600060208284031215613453576134526131db565b5b600061346184828501613428565b91505092915050565b61347381613296565b82525050565b600060208201905061348e600083018461346a565b92915050565b61349d816132d4565b81146134a857600080fd5b50565b6000813590506134ba81613494565b92915050565b600060e082840312156134d6576134d56131e5565b5b6134e060e061325b565b905060006134f0848285016132bf565b6000830152506020613504848285016134ab565b6020830152506040613518848285016134ab565b604083015250606061352c848285016132f5565b6060830152506080613540848285016132f5565b60808301525060a0613554848285016132f5565b60a08301525060c0613568848285016132f5565b60c08301525092915050565b600080610100838503121561358c5761358b6131db565b5b600061359a858286016134c0565b92505060e06135ab858286016132f5565b9150509250929050565b6135be816132d4565b82525050565b60006020820190506135d960008301846135b5565b92915050565b6000602082840312156135f5576135f46131db565b5b6000613603848285016132f5565b91505092915050565b6000819050919050565b600061363161362c613627846132d4565b61360c565b6132d4565b9050919050565b61364181613616565b82525050565b600060208201905061365c6000830184613638565b92915050565b7f4e487b7100000000000000000000000000000000000000000000000000000000600052602160045260246000fd5b600481106136a2576136a1613662565b5b50565b60008190506136b382613691565b919050565b60006136c3826136a5565b9050919050565b6136d3816136b8565b82525050565b60006020820190506136ee60008301846136ca565b92915050565b600081519050919050565b600082825260208201905092915050565b6000819050602082019050919050565b61372981613296565b82525050565b613738816132d4565b82525050565b6080820160008201516137546000850182613720565b506020820151613767602085018261372f565b50604082015161377a604085018261372f565b50606082015161378d606085018261372f565b50505050565b600061379f838361373e565b60808301905092915050565b6000602082019050919050565b60006137c3826136f4565b6137cd81856136ff565b93506137d883613710565b8060005b838110156138095781516137f08882613793565b97506137fb836137ab565b9250506001810190506137dc565b5085935050505092915050565b6000602082019050818103600083015261383081846137b8565b905092915050565b600061384382613296565b9050919050565b61385381613838565b811461385e57600080fd5b50565b6000813590506138708161384a565b92915050565b600061388182613296565b9050919050565b61389181613876565b811461389c57600080fd5b50565b6000813590506138ae81613888565b92915050565b600080604083850312156138cb576138ca6131db565b5b60006138d985828601613861565b92505060206138ea8582860161389f565b9150509250929050565b600060e082019050613909600083018a61346a565b6139166020830189613638565b6139236040830188613638565b61393060608301876135b5565b61393d60808301866135b5565b61394a60a08301856135b5565b61395760c08301846135b5565b98975050505050505050565b61396c81613616565b82525050565b60e0820160008201516139886000850182613720565b50602082015161399b6020850182613963565b5060408201516139ae6040850182613963565b5060608201516139c1606085018261372f565b5060808201516139d4608085018261372f565b5060a08201516139e760a085018261372f565b5060c08201516139fa60c085018261372f565b50505050565b600060e082019050613a156000830184613972565b92915050565b600080fd5b600080fd5b600080fd5b60008083601f840112613a4057613a3f613a1b565b5b8235905067ffffffffffffffff811115613a5d57613a5c613a20565b5b602083019150836020820283011115613a7957613a78613a25565b5b9250929050565b600080600060408486031215613a9957613a986131db565b5b600084013567ffffffffffffffff811115613ab757613ab66131e0565b5b613ac386828701613a2a565b93509350506020613ad6868287016132bf565b9150509250925092565b600060208284031215613af657613af56131db565b5b6000613b04848285016132bf565b91505092915050565b7f4e487b7100000000000000000000000000000000000000000000000000000000600052601160045260246000fd5b6000613b47826132d4565b9150613b52836132d4565b9250828203905081811115613b6a57613b69613b0d565b5b92915050565b600082825260208201905092915050565b7f6d6f6e7468206d757374206265203c3d206c6f616e4d61784475726174696f6e60008201527f4d6f6e7468730000000000000000000000000000000000000000000000000000602082015250565b6000613bdd602683613b70565b9150613be882613b81565b604082019050919050565b60006020820190508181036000830152613c0c81613bd0565b9050919050565b7f4e487b7100000000000000000000000000000000000000000000000000000000600052601260045260246000fd5b6000613c4d826132d4565b9150613c58836132d4565b925082613c6857613c67613c13565b5b828204905092915050565b6000613c7e826132d4565b9150613c89836132d4565b9250828202613c97816132d4565b91508282048414831517613cae57613cad613b0d565b5b5092915050565b600082825260208201905092915050565b50565b6000613cd6600083613cb5565b9150613ce182613cc6565b600082019050919050565b6000608082019050613d01600083018561346a565b613d0e60208301846135b5565b8181036040830152613d1f81613cc9565b90508181036060830152613d3281613cc9565b90509392505050565b7f7574696c697a6174696f6e2063616e2774206578636565642031303025000000600082015250565b6000613d71601d83613b70565b9150613d7c82613d3b565b602082019050919050565b60006020820190508181036000830152613da081613d64565b9050919050565b7f496e697469616c697a61626c653a20636f6e747261637420697320616c72656160008201527f647920696e697469616c697a6564000000000000000000000000000000000000602082015250565b6000613e03602e83613b70565b9150613e0e82613da7565b604082019050919050565b60006020820190508181036000830152613e3281613df6565b9050919050565b6000819050919050565b600060ff82169050919050565b6000613e6b613e66613e6184613e39565b61360c565b613e43565b9050919050565b613e7b81613e50565b82525050565b6000602082019050613e966000830184613e72565b92915050565b600081519050613eab816132de565b92915050565b600060208284031215613ec757613ec66131db565b5b6000613ed584828501613e9c565b91505092915050565b6000613ee9826132d4565b9150613ef4836132d4565b9250828201905080821115613f0c57613f0b613b0d565b5b92915050565b6000604082019050613f27600083018561346a565b613f3460208301846135b5565b9392505050565b7f4e487b7100000000000000000000000000000000000000000000000000000000600052603260045260246000fd5b6000613f75826132d4565b91507fffffffffffffffffffffffffffffffffffffffffffffffffffffffffffffffff8203613fa757613fa6613b0d565b5b600182019050919050565b7f4f776e61626c653a206e6577206f776e657220697320746865207a65726f206160008201527f6464726573730000000000000000000000000000000000000000000000000000602082015250565b600061400e602683613b70565b915061401982613fb2565b604082019050919050565b6000602082019050818103600083015261403d81614001565b9050919050565b6000819050919050565b600061405982614044565b915061406483614044565b92508261407457614073613c13565b5b600160000383147f8000000000000000000000000000000000000000000000000000000000000000831416156140ad576140ac613b0d565b5b828205905092915050565b6140c181614044565b82525050565b60006020820190506140dc60008301846140b8565b92915050565b60006140ed82614044565b91506140f883614044565b925082820390508181126000841216828213600085121516171561411f5761411e613b0d565b5b92915050565b600061414061413b61413684614044565b61360c565b614044565b9050919050565b61415081614125565b82525050565b600060408201905061416b6000830185614147565b6141786020830184614147565b9392505050565b60006020820190506141946000830184614147565b92915050565b60006141a5826132d4565b9150600082036141b8576141b7613b0d565b5b600182039050919050565b7f4f776e61626c653a2063616c6c6572206973206e6f7420746865206f776e6572600082015250565b60006141f9602083613b70565b9150614204826141c3565b602082019050919050565b60006020820190508181036000830152614228816141ec565b9050919050565b6000606082019050614244600083018661346a565b614251602083018561346a565b61425e60408301846135b5565b949350505050565b600060608201905061427b60008301866135b5565b61428860208301856135b5565b61429560408301846135b5565b949350505050565b60006040820190506142b260008301856135b5565b6142bf60208301846135b5565b9392505050565b6142cf816133af565b81146142da57600080fd5b50565b6000815190506142ec816142c6565b92915050565b600060208284031215614308576143076131db565b5b6000614316848285016142dd565b91505092915050565b7f5361666545524332303a204552433230206f7065726174696f6e20646964206e60008201527f6f74207375636365656400000000000000000000000000000000000000000000602082015250565b600061437b602a83613b70565b91506143868261431f565b604082019050919050565b600060208201905081810360008301526143aa8161436e565b9050919050565b7f416464726573733a20696e73756666696369656e742062616c616e636520666f60008201527f722063616c6c0000000000000000000000000000000000000000000000000000602082015250565b600061440d602683613b70565b9150614418826143b1565b604082019050919050565b6000602082019050818103600083015261443c81614400565b9050919050565b600081519050919050565b600081905092915050565b60005b8381101561447757808201518184015260208101905061445c565b60008484015250505050565b600061448e82614443565b614498818561444e565b93506144a8818560208601614459565b80840191505092915050565b60006144c08284614483565b915081905092915050565b7f416464726573733a2063616c6c20746f206e6f6e2d636f6e7472616374000000600082015250565b6000614501601d83613b70565b915061450c826144cb565b602082019050919050565b60006020820190508181036000830152614530816144f4565b9050919050565b600081519050919050565b600061454d82614537565b6145578185613b70565b9350614567818560208601614459565b614570816131ea565b840191505092915050565b600060208201905081810360008301526145958184614542565b90509291505056fea264697066735822122072bee36dc6b9cf3dc98d2facb395bc75d88dfb5da45ab669331c824bc3f3cb4a64736f6c63430008130033",
  "linkReferences": {},
  "deployedLinkReferences": {}
}