{
  "_format": "hh-sol-artifact-1",
  "contractName": "Lending",
  "sourceName": "contracts/protocol/lending/Lending.sol",
  "abi": [
    {
      "inputs": [
        {
          "internalType": "uint256",
          "name": "x",
          "type": "uint256"
        },
        {
          "internalType": "uint256",
          "name": "y",
          "type": "uint256"
        }
      ],
      "name": "PRBMath_MulDiv18_Overflow",
      "type": "error"
    },
    {
      "inputs": [
        {
          "internalType": "uint256",
          "name": "x",
          "type": "uint256"
        },
        {
          "internalType": "uint256",
          "name": "y",
          "type": "uint256"
        },
        {
          "internalType": "uint256",
          "name": "denominator",
          "type": "uint256"
        }
      ],
      "name": "PRBMath_MulDiv_Overflow",
      "type": "error"
    },
    {
      "inputs": [
        {
          "internalType": "int256",
          "name": "x",
          "type": "int256"
        }
      ],
      "name": "PRBMath_SD59x18_Convert_Overflow",
      "type": "error"
    },
    {
      "inputs": [
        {
          "internalType": "int256",
          "name": "x",
          "type": "int256"
        }
      ],
      "name": "PRBMath_SD59x18_Convert_Underflow",
      "type": "error"
    },
    {
      "inputs": [
        {
          "internalType": "SD59x18",
          "name": "x",
          "type": "int256"
        }
      ],
      "name": "PRBMath_SD59x18_Exp2_InputTooBig",
      "type": "error"
    },
    {
      "inputs": [
        {
          "internalType": "SD59x18",
          "name": "x",
          "type": "int256"
        }
      ],
      "name": "PRBMath_SD59x18_IntoUD60x18_Underflow",
      "type": "error"
    },
    {
      "inputs": [
        {
          "internalType": "SD59x18",
          "name": "x",
          "type": "int256"
        }
      ],
      "name": "PRBMath_SD59x18_Log_InputTooSmall",
      "type": "error"
    },
    {
      "inputs": [],
      "name": "PRBMath_SD59x18_Mul_InputTooSmall",
      "type": "error"
    },
    {
      "inputs": [
        {
          "internalType": "SD59x18",
          "name": "x",
          "type": "int256"
        },
        {
          "internalType": "SD59x18",
          "name": "y",
          "type": "int256"
        }
      ],
      "name": "PRBMath_SD59x18_Mul_Overflow",
      "type": "error"
    },
    {
      "inputs": [
        {
          "internalType": "uint256",
          "name": "x",
          "type": "uint256"
        }
      ],
      "name": "PRBMath_UD60x18_Convert_Overflow",
      "type": "error"
    },
    {
      "inputs": [
        {
          "internalType": "UD60x18",
          "name": "x",
          "type": "uint256"
        }
      ],
      "name": "PRBMath_UD60x18_IntoSD59x18_Overflow",
      "type": "error"
    },
    {
      "anonymous": false,
      "inputs": [
        {
          "indexed": false,
          "internalType": "uint8",
          "name": "version",
          "type": "uint8"
        }
      ],
      "name": "Initialized",
      "type": "event"
    },
    {
      "anonymous": false,
      "inputs": [
        {
          "indexed": true,
          "internalType": "address",
          "name": "previousOwner",
          "type": "address"
        },
        {
          "indexed": true,
          "internalType": "address",
          "name": "newOwner",
          "type": "address"
        }
      ],
      "name": "OwnershipTransferred",
      "type": "event"
    },
    {
      "inputs": [
        {
          "internalType": "uint256",
          "name": "",
          "type": "uint256"
        }
      ],
      "name": "_loans",
      "outputs": [
        {
          "internalType": "address",
          "name": "borrower",
          "type": "address"
        },
        {
          "internalType": "UD60x18",
          "name": "ratePerSecond",
          "type": "uint256"
        },
        {
          "internalType": "UD60x18",
          "name": "paymentPerSecond",
          "type": "uint256"
        },
        {
          "internalType": "uint256",
          "name": "startTime",
          "type": "uint256"
        },
        {
          "internalType": "uint256",
          "name": "unpaidPrincipal",
          "type": "uint256"
        },
        {
          "internalType": "uint256",
          "name": "maxDurationSeconds",
          "type": "uint256"
        },
        {
          "internalType": "uint256",
          "name": "lastPaymentTime",
          "type": "uint256"
        }
      ],
      "stateMutability": "view",
      "type": "function"
    },
    {
      "inputs": [
        {
          "internalType": "uint256",
          "name": "tokenId",
          "type": "uint256"
        }
      ],
      "name": "accruedInterest",
      "outputs": [
        {
          "internalType": "uint256",
          "name": "",
          "type": "uint256"
        }
      ],
      "stateMutability": "view",
      "type": "function"
    },
    {
      "inputs": [],
      "name": "availableLiquidity",
      "outputs": [
        {
          "internalType": "uint256",
          "name": "",
          "type": "uint256"
        }
      ],
      "stateMutability": "view",
      "type": "function"
    },
    {
      "inputs": [
        {
          "components": [
            {
              "internalType": "address",
              "name": "bidder",
              "type": "address"
            },
            {
              "internalType": "uint256",
              "name": "propertyValue",
              "type": "uint256"
            },
            {
              "internalType": "uint256",
              "name": "downPayment",
              "type": "uint256"
            },
            {
              "internalType": "uint256",
              "name": "maxDurationMonths",
              "type": "uint256"
            }
          ],
          "internalType": "struct IState.Bid",
          "name": "bid",
          "type": "tuple"
        }
      ],
      "name": "bidActionable",
      "outputs": [
        {
          "internalType": "bool",
          "name": "",
          "type": "bool"
        }
      ],
      "stateMutability": "view",
      "type": "function"
    },
    {
      "inputs": [
        {
          "internalType": "uint256",
          "name": "tokenId",
          "type": "uint256"
        }
      ],
      "name": "bids",
      "outputs": [
        {
          "components": [
            {
              "internalType": "address",
              "name": "bidder",
              "type": "address"
            },
            {
              "internalType": "uint256",
              "name": "propertyValue",
              "type": "uint256"
            },
            {
              "internalType": "uint256",
              "name": "downPayment",
              "type": "uint256"
            },
            {
              "internalType": "uint256",
              "name": "maxDurationMonths",
              "type": "uint256"
            }
          ],
          "internalType": "struct IState.Bid[]",
          "name": "",
          "type": "tuple[]"
        }
      ],
      "stateMutability": "view",
      "type": "function"
    },
    {
      "inputs": [],
      "name": "defaultFeeSpread",
      "outputs": [
        {
          "internalType": "UD60x18",
          "name": "",
          "type": "uint256"
        }
      ],
      "stateMutability": "view",
      "type": "function"
    },
    {
      "inputs": [
        {
          "internalType": "uint256",
          "name": "usdc",
          "type": "uint256"
        }
      ],
      "name": "deposit",
      "outputs": [],
      "stateMutability": "nonpayable",
      "type": "function"
    },
    {
      "inputs": [
        {
          "internalType": "contract IERC20",
          "name": "_USDC",
          "type": "address"
        },
        {
          "internalType": "contract tUsdc",
          "name": "_tUSDC",
          "type": "address"
        },
        {
          "internalType": "contract TangibleNft",
          "name": "_prosperaNftContract",
          "type": "address"
        }
      ],
      "name": "initialize",
      "outputs": [],
      "stateMutability": "nonpayable",
      "type": "function"
    },
    {
      "inputs": [
        {
          "components": [
            {
              "internalType": "address",
              "name": "bidder",
              "type": "address"
            },
            {
              "internalType": "uint256",
              "name": "propertyValue",
              "type": "uint256"
            },
            {
              "internalType": "uint256",
              "name": "downPayment",
              "type": "uint256"
            },
            {
              "internalType": "uint256",
              "name": "maxDurationMonths",
              "type": "uint256"
            }
          ],
          "internalType": "struct IState.Bid",
          "name": "_bid",
          "type": "tuple"
        }
      ],
      "name": "loanBidActionable",
      "outputs": [
        {
          "internalType": "bool",
          "name": "",
          "type": "bool"
        }
      ],
      "stateMutability": "view",
      "type": "function"
    },
    {
      "inputs": [
        {
          "internalType": "uint256",
          "name": "tokenId",
          "type": "uint256"
        }
      ],
      "name": "loans",
      "outputs": [
        {
          "components": [
            {
              "internalType": "address",
              "name": "borrower",
              "type": "address"
            },
            {
              "internalType": "UD60x18",
              "name": "ratePerSecond",
              "type": "uint256"
            },
            {
              "internalType": "UD60x18",
              "name": "paymentPerSecond",
              "type": "uint256"
            },
            {
              "internalType": "uint256",
              "name": "startTime",
              "type": "uint256"
            },
            {
              "internalType": "uint256",
              "name": "unpaidPrincipal",
              "type": "uint256"
            },
            {
              "internalType": "uint256",
              "name": "maxDurationSeconds",
              "type": "uint256"
            },
            {
              "internalType": "uint256",
              "name": "lastPaymentTime",
              "type": "uint256"
            }
          ],
          "internalType": "struct IState.Loan",
          "name": "",
          "type": "tuple"
        }
      ],
      "stateMutability": "view",
      "type": "function"
    },
    {
      "inputs": [
        {
          "internalType": "uint256",
          "name": "idx",
          "type": "uint256"
        }
      ],
      "name": "loansTokenIdsAt",
      "outputs": [
        {
          "internalType": "uint256",
          "name": "tokenId",
          "type": "uint256"
        }
      ],
      "stateMutability": "view",
      "type": "function"
    },
    {
      "inputs": [],
      "name": "loansTokenIdsLength",
      "outputs": [
        {
          "internalType": "uint256",
          "name": "",
          "type": "uint256"
        }
      ],
      "stateMutability": "view",
      "type": "function"
    },
    {
      "inputs": [
        {
          "internalType": "bytes4",
          "name": "",
          "type": "bytes4"
        }
      ],
      "name": "logicTargets",
      "outputs": [
        {
          "internalType": "address",
          "name": "",
          "type": "address"
        }
      ],
      "stateMutability": "view",
      "type": "function"
    },
    {
      "inputs": [],
      "name": "maxDurationMonthsCap",
      "outputs": [
        {
          "internalType": "uint256",
          "name": "",
          "type": "uint256"
        }
      ],
      "stateMutability": "view",
      "type": "function"
    },
    {
      "inputs": [],
      "name": "maxLtv",
      "outputs": [
        {
          "internalType": "UD60x18",
          "name": "",
          "type": "uint256"
        }
      ],
      "stateMutability": "view",
      "type": "function"
    },
    {
      "inputs": [],
      "name": "monthSeconds",
      "outputs": [
        {
          "internalType": "uint256",
          "name": "",
          "type": "uint256"
        }
      ],
      "stateMutability": "view",
      "type": "function"
    },
    {
      "inputs": [],
      "name": "optimalUtilization",
      "outputs": [
        {
          "internalType": "UD60x18",
          "name": "",
          "type": "uint256"
        }
      ],
      "stateMutability": "view",
      "type": "function"
    },
    {
      "inputs": [],
      "name": "owner",
      "outputs": [
        {
          "internalType": "address",
          "name": "",
          "type": "address"
        }
      ],
      "stateMutability": "view",
      "type": "function"
    },
    {
      "inputs": [
        {
          "components": [
            {
              "internalType": "address",
              "name": "borrower",
              "type": "address"
            },
            {
              "internalType": "UD60x18",
              "name": "ratePerSecond",
              "type": "uint256"
            },
            {
              "internalType": "UD60x18",
              "name": "paymentPerSecond",
              "type": "uint256"
            },
            {
              "internalType": "uint256",
              "name": "startTime",
              "type": "uint256"
            },
            {
              "internalType": "uint256",
              "name": "unpaidPrincipal",
              "type": "uint256"
            },
            {
              "internalType": "uint256",
              "name": "maxDurationSeconds",
              "type": "uint256"
            },
            {
              "internalType": "uint256",
              "name": "lastPaymentTime",
              "type": "uint256"
            }
          ],
          "internalType": "struct IState.Loan",
          "name": "loan",
          "type": "tuple"
        },
        {
          "internalType": "uint256",
          "name": "month",
          "type": "uint256"
        }
      ],
      "name": "principalCap",
      "outputs": [
        {
          "internalType": "uint256",
          "name": "cap",
          "type": "uint256"
        }
      ],
      "stateMutability": "pure",
      "type": "function"
    },
    {
      "inputs": [],
      "name": "redemptionFeeSpread",
      "outputs": [
        {
          "internalType": "UD60x18",
          "name": "",
          "type": "uint256"
        }
      ],
      "stateMutability": "view",
      "type": "function"
    },
    {
      "inputs": [],
      "name": "renounceOwnership",
      "outputs": [],
      "stateMutability": "nonpayable",
      "type": "function"
    },
    {
      "inputs": [
        {
          "internalType": "bytes4[]",
          "name": "selectorsArr",
          "type": "bytes4[]"
        },
        {
          "internalType": "address",
          "name": "target",
          "type": "address"
        }
      ],
      "name": "setSelectorsTarget",
      "outputs": [],
      "stateMutability": "nonpayable",
      "type": "function"
    },
    {
      "inputs": [
        {
          "internalType": "uint256",
          "name": "tokenId",
          "type": "uint256"
        }
      ],
      "name": "status",
      "outputs": [
        {
          "internalType": "enum IState.Status",
          "name": "",
          "type": "uint8"
        }
      ],
      "stateMutability": "view",
      "type": "function"
    },
    {
      "inputs": [
        {
          "internalType": "uint256",
          "name": "tUsdcAmount",
          "type": "uint256"
        }
      ],
      "name": "tUsdcToUsdc",
      "outputs": [
        {
          "internalType": "uint256",
          "name": "usdcAmount",
          "type": "uint256"
        }
      ],
      "stateMutability": "view",
      "type": "function"
    },
    {
      "inputs": [
        {
          "internalType": "uint256",
          "name": "tokenId",
          "type": "uint256"
        }
      ],
      "name": "tokenIdBidsLength",
      "outputs": [
        {
          "internalType": "uint256",
          "name": "",
          "type": "uint256"
        }
      ],
      "stateMutability": "view",
      "type": "function"
    },
    {
      "inputs": [],
      "name": "totalDeposits",
      "outputs": [
        {
          "internalType": "uint256",
          "name": "",
          "type": "uint256"
        }
      ],
      "stateMutability": "view",
      "type": "function"
    },
    {
      "inputs": [],
      "name": "totalPrincipal",
      "outputs": [
        {
          "internalType": "uint256",
          "name": "",
          "type": "uint256"
        }
      ],
      "stateMutability": "view",
      "type": "function"
    },
    {
      "inputs": [
        {
          "internalType": "address",
          "name": "newOwner",
          "type": "address"
        }
      ],
      "name": "transferOwnership",
      "outputs": [],
      "stateMutability": "nonpayable",
      "type": "function"
    },
    {
      "inputs": [
        {
          "internalType": "uint256",
          "name": "usdcAmount",
          "type": "uint256"
        }
      ],
      "name": "usdcToTUsdc",
      "outputs": [
        {
          "internalType": "uint256",
          "name": "tUsdcAmount",
          "type": "uint256"
        }
      ],
      "stateMutability": "view",
      "type": "function"
    },
    {
      "inputs": [
        {
          "internalType": "uint256",
          "name": "usdc",
          "type": "uint256"
        }
      ],
      "name": "withdraw",
      "outputs": [],
      "stateMutability": "nonpayable",
      "type": "function"
    },
    {
      "inputs": [],
      "name": "yearMonths",
      "outputs": [
        {
          "internalType": "uint256",
          "name": "",
          "type": "uint256"
        }
      ],
      "stateMutability": "view",
      "type": "function"
    },
    {
      "inputs": [],
      "name": "yearSeconds",
      "outputs": [
        {
          "internalType": "uint256",
          "name": "",
          "type": "uint256"
        }
      ],
      "stateMutability": "view",
      "type": "function"
    }
  ],
  "bytecode": "0x60806040526200003b6200001a60646200022960201b60201c565b6200002c605a6200022960201b60201c565b620002ba60201b90919060201c565b600755620000756200005460646200022960201b60201c565b6200006660046200022960201b60201c565b620002ba60201b90919060201c565b600855620000af6200008e60646200022960201b60201c565b620000a060036200022960201b60201c565b620002ba60201b90919060201c565b600955620000c460096200022960201b60201c565b600a55620000fe620000dd60646200022960201b60201c565b620000ef60016200022960201b60201c565b620002ba60201b90919060201c565b600b55620001386200011760646200022960201b60201c565b6200012960026200022960201b60201c565b620002ba60201b90919060201c565b600c55620001726200015160646200022960201b60201c565b6200016360036200022960201b60201c565b620002ba60201b90919060201c565b600d55620001ac6200018b60646200022960201b60201c565b6200019d60046200022960201b60201c565b620002ba60201b90919060201c565b600e55623b5380601455620001ed620001cc60646200022960201b60201c565b620001de60326200022960201b60201c565b620002ba60201b90919060201c565b60155560786016553480156200020257600080fd5b5062000223620002176200030f60201b60201c565b6200031760201b60201c565b620005ed565b6000670de0b6b3a76400007fffffffffffffffffffffffffffffffffffffffffffffffffffffffffffffffff6200026191906200054a565b821115620002a857816040517f1cd951a70000000000000000000000000000000000000000000000000000000081526004016200029f919062000593565b60405180910390fd5b670de0b6b3a764000082029050919050565b600062000307620002fb620002d585620003db60201b60201c565b670de0b6b3a7640000620002ef86620003db60201b60201c565b620003e560201b60201c565b6200050760201b60201c565b905092915050565b600033905090565b60008060009054906101000a900473ffffffffffffffffffffffffffffffffffffffff169050816000806101000a81548173ffffffffffffffffffffffffffffffffffffffff021916908373ffffffffffffffffffffffffffffffffffffffff1602179055508173ffffffffffffffffffffffffffffffffffffffff168173ffffffffffffffffffffffffffffffffffffffff167f8be0079c531659141344cd1fd0a4f28419497f9722a3daafe3b4186f6b6457e060405160405180910390a35050565b6000819050919050565b600080600080198587098587029250828110838203039150506000810362000425578382816200041a57620004196200051b565b5b049250505062000500565b83811062000470578585856040517f63a057780000000000000000000000000000000000000000000000000000000081526004016200046793929190620005b0565b60405180910390fd5b60008486880990508281118203915080830392506000600186190186169050600081870496508185049450600182836000030401905080840285179450600060028860030218905080880260020381029050808802600203810290508088026002038102905080880260020381029050808802600203810290508088026002038102905080860296505050505050505b9392505050565b6000819050919050565b6000819050919050565b7f4e487b7100000000000000000000000000000000000000000000000000000000600052601260045260246000fd5b6000620005578262000511565b9150620005648362000511565b9250826200057757620005766200051b565b5b828204905092915050565b6200058d8162000511565b82525050565b6000602082019050620005aa600083018462000582565b92915050565b6000606082019050620005c7600083018662000582565b620005d6602083018562000582565b620005e5604083018462000582565b949350505050565b61466580620005fd6000396000f3fe608060405234801561001057600080fd5b50600436106101f05760003560e01c80637d8820971161010f578063bcff3e3b116100a2578063e343504411610071578063e343504414610601578063edb679fe1461061d578063f2fde38b1461064d578063ff9ad6df14610669576101f0565b8063bcff3e3b1461054f578063bd5c569b1461057f578063c0c53b8b146105b5578063e1ec3c68146105d1576101f0565b8063a0024c2f116100de578063a0024c2f146104c7578063a54cab1c146104f7578063ab01f7e114610515578063b6b55f2514610533576101f0565b80637d8820971461044f578063812cf0181461046d57806387ae0dbe1461048b5780638da5cb5b146104a9576101f0565b80634423c5f1116101875780636a7804a4116101565780636a7804a4146103c7578063715018a6146103f7578063743753591461040157806374bdf96a1461041f576101f0565b80634423c5f11461033d5780634abb30031461036d5780634b1533b21461038b5780636290cd1c146103a9576101f0565b80632e1a7d4d116101c35780632e1a7d4d146102b55780633a12c6da146102d15780633ca36db6146102ef57806342d21ef71461030d576101f0565b80630a9cc0b6146101f557806317548b79146102255780631cc03c87146102555780632da1092314610285575b600080fd5b61020f600480360381019061020a91906133c3565b610687565b60405161021c919061340b565b60405180910390f35b61023f600480360381019061023a919061347e565b6106fc565b60405161024c91906134ba565b60405180910390f35b61026f600480360381019061026a91906135b5565b61072f565b60405161027c9190613605565b60405180910390f35b61029f600480360381019061029a9190613620565b610891565b6040516102ac9190613605565b60405180910390f35b6102cf60048036038101906102ca9190613620565b6108b1565b005b6102d96109fc565b6040516102e69190613688565b60405180910390f35b6102f7610a02565b6040516103049190613688565b60405180910390f35b61032760048036038101906103229190613620565b610a0c565b604051610334919061371a565b60405180910390f35b61035760048036038101906103529190613620565b610b53565b6040516103649190613857565b60405180910390f35b610375610c39565b6040516103829190613688565b60405180910390f35b610393610c43565b6040516103a09190613605565b60405180910390f35b6103b1610c49565b6040516103be9190613688565b60405180910390f35b6103e160048036038101906103dc9190613620565b610c4f565b6040516103ee9190613605565b60405180910390f35b6103ff610d26565b005b610409610d3a565b6040516104169190613605565b60405180910390f35b61043960048036038101906104349190613620565b610d51565b6040516104469190613605565b60405180910390f35b610457610d6e565b6040516104649190613605565b60405180910390f35b610475610d74565b6040516104829190613605565b60405180910390f35b610493610d79565b6040516104a09190613605565b60405180910390f35b6104b1610d81565b6040516104be91906134ba565b60405180910390f35b6104e160048036038101906104dc91906133c3565b610daa565b6040516104ee919061340b565b60405180910390f35b6104ff610dce565b60405161050c9190613605565b60405180910390f35b61051d610dd4565b60405161052a9190613605565b60405180910390f35b61054d60048036038101906105489190613620565b610de5565b005b61056960048036038101906105649190613620565b610eeb565b6040516105769190613605565b60405180910390f35b61059960048036038101906105949190613620565b610fac565b6040516105ac9796959493929190613879565b60405180910390f35b6105cf60048036038101906105ca91906139a2565b61100e565b005b6105eb60048036038101906105e69190613620565b611210565b6040516105f89190613a92565b60405180910390f35b61061b60048036038101906106169190613b12565b6112cf565b005b61063760048036038101906106329190613620565b6113b5565b6040516106449190613605565b60405180910390f35b61066760048036038101906106629190613b72565b61148c565b005b61067161150f565b60405161067e9190613605565b60405180910390f35b6000808260400151836020015161069e9190613bce565b905060006106c96106b28560200151611523565b6106bb84611523565b6115af90919063ffffffff16565b90506106e0601554826115e490919063ffffffff16565b80156106f357506106ef610d3a565b8211155b92505050919050565b60016020528060005260406000206000915054906101000a900473ffffffffffffffffffffffffffffffffffffffff1681565b600061073a83611602565b82111561077c576040517f08c379a000000000000000000000000000000000000000000000000000000000815260040161077390613c85565b60405180910390fd5b6000600c6301e1338061078f9190613cd4565b8361079a9190613d05565b905060006107e06107ab600161162b565b6107d26107bb8860a0015161162b565b6107c48661162b565b61172f90919063ffffffff16565b61172f90919063ffffffff16565b905060006108396108218361081361080e8a602001516108006001611523565b61175d90919063ffffffff16565b61178b565b6117ff90919063ffffffff16565b61082b600161162b565b61172f90919063ffffffff16565b9050600061086461085f836108518a6040015161178b565b6118bd90919063ffffffff16565b611a4d565b90506108856108808860200151836115af90919063ffffffff16565b611aa2565b94505050505092915050565b6000600f6000838152602001908152602001600020805490509050919050565b60006108bc82610c4f565b9050600360009054906101000a900473ffffffffffffffffffffffffffffffffffffffff1673ffffffffffffffffffffffffffffffffffffffff1663fc673c4f33836040518363ffffffff1660e01b815260040161091b929190613d7e565b600060405180830381600087803b15801561093557600080fd5b505af1158015610949573d6000803e3d6000fd5b50505050816006600082825461095f9190613bce565b9250508190555060065460055411156109ad576040517f08c379a00000000000000000000000000000000000000000000000000000000081526004016109a490613e19565b60405180910390fd5b6109f8338360028054906101000a900473ffffffffffffffffffffffffffffffffffffffff1673ffffffffffffffffffffffffffffffffffffffff16611abf9092919063ffffffff16565b5050565b60155481565b6000600d54905090565b600080601060008481526020019081526020016000206040518060e00160405290816000820160009054906101000a900473ffffffffffffffffffffffffffffffffffffffff1673ffffffffffffffffffffffffffffffffffffffff1673ffffffffffffffffffffffffffffffffffffffff16815260200160018201548152602001600282015481526020016003820154815260200160048201548152602001600582015481526020016006820154815250509050600073ffffffffffffffffffffffffffffffffffffffff16816000015173ffffffffffffffffffffffffffffffffffffffff1603610b03576000915050610b4e565b610b0c83611b45565b15610b48576000610b1c82611c5a565b42610b279190613bce565b90506014548111610b3d57600292505050610b4e565b600392505050610b4e565b60019150505b919050565b6060600f6000838152602001908152602001600020805480602002602001604051908101604052809291908181526020016000905b82821015610c2e57838290600052602060002090600402016040518060800160405290816000820160009054906101000a900473ffffffffffffffffffffffffffffffffffffffff1673ffffffffffffffffffffffffffffffffffffffff1673ffffffffffffffffffffffffffffffffffffffff168152602001600182015481526020016002820154815260200160038201548152505081526020019060010190610b88565b505050509050919050565b6000600e54905090565b60055481565b60075481565b600080600360009054906101000a900473ffffffffffffffffffffffffffffffffffffffff1673ffffffffffffffffffffffffffffffffffffffff166318160ddd6040518163ffffffff1660e01b8152600401602060405180830381865afa158015610cbf573d6000803e3d6000fd5b505050506040513d601f19601f82011682018060405250810190610ce39190613e4e565b90506000811480610cf657506000600654145b15610d045782915050610d21565b6006548184610d139190613d05565b610d1d9190613cd4565b9150505b919050565b610d2e611d05565b610d386000611d83565b565b6000600554600654610d4c9190613bce565b905090565b6000610d67826011611e4790919063ffffffff16565b9050919050565b60065481565b600c81565b6301e1338081565b60008060009054906101000a900473ffffffffffffffffffffffffffffffffffffffff16905090565b6000816040015182602001511480610dc75750610dc682610687565b5b9050919050565b60165481565b6000610de06011611e61565b905090565b610e3233308360028054906101000a900473ffffffffffffffffffffffffffffffffffffffff1673ffffffffffffffffffffffffffffffffffffffff16611e76909392919063ffffffff16565b8060066000828254610e449190613e7b565b925050819055506000610e5682610c4f565b9050600360009054906101000a900473ffffffffffffffffffffffffffffffffffffffff1673ffffffffffffffffffffffffffffffffffffffff166319c08fb833836040518363ffffffff1660e01b8152600401610eb5929190613eaf565b600060405180830381600087803b158015610ecf57600080fd5b505af1158015610ee3573d6000803e3d6000fd5b505050505050565b6000610fa5601060008481526020019081526020016000206040518060e00160405290816000820160009054906101000a900473ffffffffffffffffffffffffffffffffffffffff1673ffffffffffffffffffffffffffffffffffffffff1673ffffffffffffffffffffffffffffffffffffffff1681526020016001820154815260200160028201548152602001600382015481526020016004820154815260200160058201548152602001600682015481525050611eff565b9050919050565b60106020528060005260406000206000915090508060000160009054906101000a900473ffffffffffffffffffffffffffffffffffffffff16908060010154908060020154908060030154908060040154908060050154908060060154905087565b6000600260019054906101000a900460ff1615905080801561104257506001600260009054906101000a900460ff1660ff16105b80611071575061105130611f37565b15801561107057506001600260009054906101000a900460ff1660ff16145b5b6110b0576040517f08c379a00000000000000000000000000000000000000000000000000000000081526004016110a790613f4a565b60405180910390fd5b6001600260006101000a81548160ff021916908360ff16021790555080156110ee576001600260016101000a81548160ff0219169083151502179055505b836002806101000a81548173ffffffffffffffffffffffffffffffffffffffff021916908373ffffffffffffffffffffffffffffffffffffffff16021790555082600360006101000a81548173ffffffffffffffffffffffffffffffffffffffff021916908373ffffffffffffffffffffffffffffffffffffffff16021790555081600460006101000a81548173ffffffffffffffffffffffffffffffffffffffff021916908373ffffffffffffffffffffffffffffffffffffffff160217905550801561120a576000600260016101000a81548160ff0219169083151502179055507f7f26b83ff96e1f2b6a682f133852f6798a09c465da95921460cefb384740249860016040516112019190613fb2565b60405180910390a15b50505050565b6112186131bf565b601060008381526020019081526020016000206040518060e00160405290816000820160009054906101000a900473ffffffffffffffffffffffffffffffffffffffff1673ffffffffffffffffffffffffffffffffffffffff1673ffffffffffffffffffffffffffffffffffffffff16815260200160018201548152602001600282015481526020016003820154815260200160048201548152602001600582015481526020016006820154815250509050919050565b6112d7611d05565b60005b838390508110156113af5781600160008686858181106112fd576112fc613fcd565b5b9050602002016020810190611312919061347e565b7bffffffffffffffffffffffffffffffffffffffffffffffffffffffff19167bffffffffffffffffffffffffffffffffffffffffffffffffffffffff1916815260200190815260200160002060006101000a81548173ffffffffffffffffffffffffffffffffffffffff021916908373ffffffffffffffffffffffffffffffffffffffff16021790555080806113a790613ffc565b9150506112da565b50505050565b600080600360009054906101000a900473ffffffffffffffffffffffffffffffffffffffff1673ffffffffffffffffffffffffffffffffffffffff166318160ddd6040518163ffffffff1660e01b8152600401602060405180830381865afa158015611425573d6000803e3d6000fd5b505050506040513d601f19601f820116820180604052508101906114499190613e4e565b9050600081148061145c57506000600654145b1561146a5782915050611487565b80600654846114799190613d05565b6114839190613cd4565b9150505b919050565b611494611d05565b600073ffffffffffffffffffffffffffffffffffffffff168173ffffffffffffffffffffffffffffffffffffffff1603611503576040517f08c379a00000000000000000000000000000000000000000000000000000000081526004016114fa906140b6565b60405180910390fd5b61150c81611d83565b50565b600c6301e133806115209190613cd4565b81565b6000670de0b6b3a76400007fffffffffffffffffffffffffffffffffffffffffffffffffffffffffffffffff6115599190613cd4565b82111561159d57816040517f1cd951a70000000000000000000000000000000000000000000000000000000081526004016115949190613605565b60405180910390fd5b670de0b6b3a764000082029050919050565b60006115dc6115d76115c085611f5a565b670de0b6b3a76400006115d286611f5a565b611f64565b61207e565b905092915050565b60006115ef82611f5a565b6115f884611f5a565b1115905092915050565b60006301e133808260a00151600c61161a9190613d05565b6116249190613cd4565b9050919050565b6000670de0b6b3a76400007f800000000000000000000000000000000000000000000000000000000000000061166191906140e0565b8212156116a557816040517f99474eeb00000000000000000000000000000000000000000000000000000000815260040161169c9190614159565b60405180910390fd5b670de0b6b3a76400007f7fffffffffffffffffffffffffffffffffffffffffffffffffffffffffffffff6116d991906140e0565b82131561171d57816040517f9d5810910000000000000000000000000000000000000000000000000000000081526004016117149190614159565b60405180910390fd5b670de0b6b3a764000082029050919050565b600061175561173d83612088565b61174685612088565b6117509190614174565b612092565b905092915050565b600061178361176b83611f5a565b61177485611f5a565b61177e9190613e7b565b61207e565b905092915050565b6000808290507f7fffffffffffffffffffffffffffffffffffffffffffffffffffffffffffffff8111156117f657826040517ff46186840000000000000000000000000000000000000000000000000000000081526004016117ed9190613688565b60405180910390fd5b80915050919050565b60008061180b84612088565b9050600061181884612088565b905060008203611844576000811461183157600061183b565b670de0b6b3a76400005b925050506118b7565b670de0b6b3a7640000820361186557670de0b6b3a7640000925050506118b7565b6000810361187f57670de0b6b3a7640000925050506118b7565b670de0b6b3a764000081036118985784925050506118b7565b6118b26118ad6118a78761209c565b866118bd565b61222f565b925050505b92915050565b6000806118c984612088565b905060006118d684612088565b90507f800000000000000000000000000000000000000000000000000000000000000082148061192557507f800000000000000000000000000000000000000000000000000000000000000081145b1561195c576040517fa6070c2500000000000000000000000000000000000000000000000000000000815260040160405180910390fd5b6000806000841261196d5783611972565b836000035b9150600083126119825782611987565b826000035b90506000611995838361234d565b90507f7fffffffffffffffffffffffffffffffffffffffffffffffffffffffffffffff8111156119fe5787876040517f120b5b430000000000000000000000000000000000000000000000000000000081526004016119f59291906141e8565b60405180910390fd5b60007fffffffffffffffffffffffffffffffffffffffffffffffffffffffffffffffff858718139050611a3f81611a385782600003611a3a565b825b612092565b965050505050505092915050565b6000808290506000811215611a9957826040517fbba41a15000000000000000000000000000000000000000000000000000000008152600401611a909190614211565b60405180910390fd5b80915050919050565b6000670de0b6b3a764000082611ab89190613cd4565b9050919050565b611b408363a9059cbb60e01b8484604051602401611ade929190613eaf565b604051602081830303815290604052907bffffffffffffffffffffffffffffffffffffffffffffffffffffffff19166020820180517bffffffffffffffffffffffffffffffffffffffffffffffffffffffff8381831617835250505050612437565b505050565b600080601060008481526020019081526020016000206040518060e00160405290816000820160009054906101000a900473ffffffffffffffffffffffffffffffffffffffff1673ffffffffffffffffffffffffffffffffffffffff1673ffffffffffffffffffffffffffffffffffffffff168152602001600182015481526020016002820154815260200160038201548152602001600482015481526020016005820154815260200160068201548152505090506000611c05826124fe565b90506000600c6301e133808460a00151611c1f9190613cd4565b611c299190613d05565b905080821115611c3f5760019350505050611c55565b611c49838361072f565b83608001511193505050505b919050565b600080611c66836124fe565b905060008190505b6000811115611cfe576000611c83858361072f565b90506000611c9d86600185611c989190613bce565b61072f565b9050818660800151118015611cb6575080866080015111155b15611ce957600c6301e13380611ccc9190613cd4565b83611cd79190613d05565b8660600151611ce69190613e7b565b94505b50508080611cf69061422c565b915050611c6e565b5050919050565b611d0d612553565b73ffffffffffffffffffffffffffffffffffffffff16611d2b610d81565b73ffffffffffffffffffffffffffffffffffffffff1614611d81576040517f08c379a0000000000000000000000000000000000000000000000000000000008152600401611d78906142a1565b60405180910390fd5b565b60008060009054906101000a900473ffffffffffffffffffffffffffffffffffffffff169050816000806101000a81548173ffffffffffffffffffffffffffffffffffffffff021916908373ffffffffffffffffffffffffffffffffffffffff1602179055508173ffffffffffffffffffffffffffffffffffffffff168173ffffffffffffffffffffffffffffffffffffffff167f8be0079c531659141344cd1fd0a4f28419497f9722a3daafe3b4186f6b6457e060405160405180910390a35050565b6000611e56836000018361255b565b60001c905092915050565b6000611e6f82600001612586565b9050919050565b611ef9846323b872dd60e01b858585604051602401611e97939291906142c1565b604051602081830303815290604052907bffffffffffffffffffffffffffffffffffffffffffffffffffffffff19166020820180517bffffffffffffffffffffffffffffffffffffffffffffffffffffffff8381831617835250505050612437565b50505050565b6000611f30611f2b611f1084612597565b611f1d8560800151611523565b6125c790919063ffffffff16565b611aa2565b9050919050565b6000808273ffffffffffffffffffffffffffffffffffffffff163b119050919050565b6000819050919050565b6000806000801985870985870292508281108382030391505060008103611f9f57838281611f9557611f94613ca5565b5b0492505050612077565b838110611fe7578585856040517f63a05778000000000000000000000000000000000000000000000000000000008152600401611fde939291906142f8565b60405180910390fd5b60008486880990508281118203915080830392506000600186190186169050600081870496508185049450600182836000030401905080840285179450600060028860030218905080880260020381029050808802600203810290508088026002038102905080880260020381029050808802600203810290508088026002038102905080860296505050505050505b9392505050565b6000819050919050565b6000819050919050565b6000819050919050565b6000806120a883612088565b9050600081136120ef57826040517f059b101b0000000000000000000000000000000000000000000000000000000081526004016120e69190614211565b60405180910390fd5b6000670de0b6b3a76400008212612109576001905061214f565b7fffffffffffffffffffffffffffffffffffffffffffffffffffffffffffffffff9050816ec097ce7bc90715b34b9f10000000008161214b5761214a613ca5565b5b0591505b6000612172670de0b6b3a7640000848161216c5761216b613ca5565b5b056125f3565b90506000670de0b6b3a76400008202905060008285901d9050670de0b6b3a764000081036121b1576121a5848302612092565b9550505050505061222a565b6000671bc16d674ec80000905060006706f05b59d3b2000090505b600081131561221257670de0b6b3a7640000838402816121ef576121ee613ca5565b5b059250818312612206578084019350600183901d92505b600181901d90506121cc565b50848302925061222183612092565b96505050505050505b919050565b60008061223b83612088565b905060008112156122c2577ffffffffffffffffffffffffffffffffffffffffffffffffcc22e87f6eb468eeb811215612278576000915050612348565b6122bb61229761229261228d84600003612092565b61222f565b612088565b6ec097ce7bc90715b34b9f1000000000816122b5576122b4613ca5565b5b05612092565b9150612346565b680a688906bd8affffff81131561231057826040517f0360d0280000000000000000000000000000000000000000000000000000000081526004016123079190614211565b60405180910390fd5b6000670de0b6b3a7640000604083901b8161232e5761232d613ca5565b5b05905061234261233d8261269c565b612092565b9250505b505b919050565b600080600080198486098486029250828110838203039150506000810361239057670de0b6b3a7640000828161238657612385613ca5565b5b0492505050612431565b670de0b6b3a764000081106123de5784846040517f5173648d0000000000000000000000000000000000000000000000000000000081526004016123d592919061432f565b60405180910390fd5b6000670de0b6b3a764000085870990507faccb18165bd6fe31ae1cf318dc5b51eee0e1ba569b88cd74c1773b91fac106696001620400008060000304018483118403026204000083860304170293505050505b92915050565b6000612499826040518060400160405280602081526020017f5361666545524332303a206c6f772d6c6576656c2063616c6c206661696c65648152508573ffffffffffffffffffffffffffffffffffffffff16612ffc9092919063ffffffff16565b90506000815111156124f957808060200190518101906124b99190614384565b6124f8576040517f08c379a00000000000000000000000000000000000000000000000000000000081526004016124ef90614423565b60405180910390fd5b5b505050565b600080600c6301e133806125129190613cd4565b8360600151426125229190613bce565b61252c9190613cd4565b9050600061253984611602565b9050808211612548578161254a565b805b92505050919050565b600033905090565b600082600001828154811061257357612572613fcd565b5b9060005260206000200154905092915050565b600081600001805490509050919050565b60006125c06125ad6125a884613014565b611523565b83602001516125c790919063ffffffff16565b9050919050565b60006125eb6125e66125d885611f5a565b6125e185611f5a565b61234d565b61207e565b905092915050565b60006fffffffffffffffffffffffffffffffff821160071b82811c925080821791505067ffffffffffffffff821160061b82811c925080821791505063ffffffff821160051b82811c925080821791505061ffff821160041b82811c925080821791505060ff821160031b82811c9250808217915050600f821160021b82811c92508082179150506003821160011b82811c925080821791505060018211808217915050919050565b6000778000000000000000000000000000000000000000000000009050600067ff00000000000000831611156127fd576000678000000000000000831611156126f257604068016a09e667f3bcc9098202901c90505b6000674000000000000000831611156127185760406801306fe0a31b7152df8202901c90505b60006720000000000000008316111561273e5760406801172b83c7d517adce8202901c90505b60006710000000000000008316111561276457604068010b5586cf9890f62a8202901c90505b60006708000000000000008316111561278a5760406801059b0d31585743ae8202901c90505b6000670400000000000000831611156127b0576040680102c9a3e778060ee78202901c90505b6000670200000000000000831611156127d657604068010163da9fb33356d88202901c90505b6000670100000000000000831611156127fc576040680100b1afa5abcbed618202901c90505b5b600066ff0000000000008316111561293857600066800000000000008316111561283457604068010058c86da1c09ea28202901c90505b60006640000000000000831611156128595760406801002c605e2e8cec508202901c90505b600066200000000000008316111561287e576040680100162f3904051fa18202901c90505b60006610000000000000831611156128a35760406801000b175effdc76ba8202901c90505b60006608000000000000831611156128c8576040680100058ba01fb9f96d8202901c90505b60006604000000000000831611156128ed57604068010002c5cc37da94928202901c90505b60006602000000000000831611156129125760406801000162e525ee05478202901c90505b600066010000000000008316111561293757604068010000b17255775c048202901c90505b5b600065ff000000000083161115612a6a576000658000000000008316111561296d5760406801000058b91b5bc9ae8202901c90505b60006540000000000083161115612991576040680100002c5c89d5ec6d8202901c90505b600065200000000000831611156129b557604068010000162e43f4f8318202901c90505b600065100000000000831611156129d9576040680100000b1721bcfc9a8202901c90505b600065080000000000831611156129fd57604068010000058b90cf1e6e8202901c90505b60006504000000000083161115612a215760406801000002c5c863b73f8202901c90505b60006502000000000083161115612a45576040680100000162e430e5a28202901c90505b60006501000000000083161115612a695760406801000000b1721835518202901c90505b5b600064ff0000000083161115612b9357600064800000000083161115612a9d576040680100000058b90c0b498202901c90505b600064400000000083161115612ac057604068010000002c5c8601cc8202901c90505b600064200000000083161115612ae35760406801000000162e42fff08202901c90505b600064100000000083161115612b0657604068010000000b17217fbb8202901c90505b600064080000000083161115612b295760406801000000058b90bfce8202901c90505b600064040000000083161115612b4c576040680100000002c5c85fe38202901c90505b600064020000000083161115612b6f57604068010000000162e42ff18202901c90505b600064010000000083161115612b92576040680100000000b17217f88202901c90505b5b600063ff00000083161115612cb3576000638000000083161115612bc457604068010000000058b90bfc8202901c90505b6000634000000083161115612be65760406801000000002c5c85fe8202901c90505b6000632000000083161115612c08576040680100000000162e42ff8202901c90505b6000631000000083161115612c2a5760406801000000000b17217f8202901c90505b6000630800000083161115612c4c576040680100000000058b90c08202901c90505b6000630400000083161115612c6e57604068010000000002c5c8608202901c90505b6000630200000083161115612c905760406801000000000162e4308202901c90505b6000630100000083161115612cb257604068010000000000b172188202901c90505b5b600062ff000083161115612dca5760006280000083161115612ce25760406801000000000058b90c8202901c90505b60006240000083161115612d03576040680100000000002c5c868202901c90505b60006220000083161115612d2457604068010000000000162e438202901c90505b60006210000083161115612d45576040680100000000000b17218202901c90505b60006208000083161115612d6657604068010000000000058b918202901c90505b60006204000083161115612d875760406801000000000002c5c88202901c90505b60006202000083161115612da8576040680100000000000162e48202901c90505b60006201000083161115612dc95760406801000000000000b1728202901c90505b5b600061ff0083161115612ed857600061800083161115612df7576040680100000000000058b98202901c90505b600061400083161115612e1757604068010000000000002c5d8202901c90505b600061200083161115612e375760406801000000000000162e8202901c90505b600061100083161115612e5757604068010000000000000b178202901c90505b600061080083161115612e775760406801000000000000058c8202901c90505b600061040083161115612e97576040680100000000000002c68202901c90505b600061020083161115612eb7576040680100000000000001638202901c90505b600061010083161115612ed7576040680100000000000000b18202901c90505b5b600060ff83161115612fdd576000608083161115612f03576040680100000000000000598202901c90505b6000604083161115612f225760406801000000000000002c8202901c90505b6000602083161115612f41576040680100000000000000168202901c90505b6000601083161115612f605760406801000000000000000b8202901c90505b6000600883161115612f7f576040680100000000000000068202901c90505b6000600483161115612f9e576040680100000000000000038202901c90505b6000600283161115612fbd576040680100000000000000018202901c90505b6000600183161115612fdc576040680100000000000000018202901c90505b5b670de0b6b3a764000081029050604082901c60bf0381901c9050919050565b606061300b848460008561302d565b90509392505050565b60008160c00151426130269190613bce565b9050919050565b606082471015613072576040517f08c379a0000000000000000000000000000000000000000000000000000000008152600401613069906144b5565b60405180910390fd5b6000808673ffffffffffffffffffffffffffffffffffffffff16858760405161309b9190614546565b60006040518083038185875af1925050503d80600081146130d8576040519150601f19603f3d011682016040523d82523d6000602084013e6130dd565b606091505b50915091506130ee878383876130fa565b92505050949350505050565b6060831561315c5760008351036131545761311485611f37565b613153576040517f08c379a000000000000000000000000000000000000000000000000000000000815260040161314a906145a9565b60405180910390fd5b5b829050613167565b613166838361316f565b5b949350505050565b6000825111156131825781518083602001fd5b806040517f08c379a00000000000000000000000000000000000000000000000000000000081526004016131b6919061460d565b60405180910390fd5b6040518060e00160405280600073ffffffffffffffffffffffffffffffffffffffff1681526020016000815260200160008152602001600081526020016000815260200160008152602001600081525090565b6000604051905090565b600080fd5b600080fd5b600080fd5b6000601f19601f8301169050919050565b7f4e487b7100000000000000000000000000000000000000000000000000000000600052604160045260246000fd5b6132748261322b565b810181811067ffffffffffffffff821117156132935761329261323c565b5b80604052505050565b60006132a6613212565b90506132b2828261326b565b919050565b600073ffffffffffffffffffffffffffffffffffffffff82169050919050565b60006132e2826132b7565b9050919050565b6132f2816132d7565b81146132fd57600080fd5b50565b60008135905061330f816132e9565b92915050565b6000819050919050565b61332881613315565b811461333357600080fd5b50565b6000813590506133458161331f565b92915050565b60006080828403121561336157613360613226565b5b61336b608061329c565b9050600061337b84828501613300565b600083015250602061338f84828501613336565b60208301525060406133a384828501613336565b60408301525060606133b784828501613336565b60608301525092915050565b6000608082840312156133d9576133d861321c565b5b60006133e78482850161334b565b91505092915050565b60008115159050919050565b613405816133f0565b82525050565b600060208201905061342060008301846133fc565b92915050565b60007fffffffff0000000000000000000000000000000000000000000000000000000082169050919050565b61345b81613426565b811461346657600080fd5b50565b60008135905061347881613452565b92915050565b6000602082840312156134945761349361321c565b5b60006134a284828501613469565b91505092915050565b6134b4816132d7565b82525050565b60006020820190506134cf60008301846134ab565b92915050565b6134de81613315565b81146134e957600080fd5b50565b6000813590506134fb816134d5565b92915050565b600060e0828403121561351757613516613226565b5b61352160e061329c565b9050600061353184828501613300565b6000830152506020613545848285016134ec565b6020830152506040613559848285016134ec565b604083015250606061356d84828501613336565b606083015250608061358184828501613336565b60808301525060a061359584828501613336565b60a08301525060c06135a984828501613336565b60c08301525092915050565b60008061010083850312156135cd576135cc61321c565b5b60006135db85828601613501565b92505060e06135ec85828601613336565b9150509250929050565b6135ff81613315565b82525050565b600060208201905061361a60008301846135f6565b92915050565b6000602082840312156136365761363561321c565b5b600061364484828501613336565b91505092915050565b6000819050919050565b600061367261366d61366884613315565b61364d565b613315565b9050919050565b61368281613657565b82525050565b600060208201905061369d6000830184613679565b92915050565b7f4e487b7100000000000000000000000000000000000000000000000000000000600052602160045260246000fd5b600481106136e3576136e26136a3565b5b50565b60008190506136f4826136d2565b919050565b6000613704826136e6565b9050919050565b613714816136f9565b82525050565b600060208201905061372f600083018461370b565b92915050565b600081519050919050565b600082825260208201905092915050565b6000819050602082019050919050565b61376a816132d7565b82525050565b61377981613315565b82525050565b6080820160008201516137956000850182613761565b5060208201516137a86020850182613770565b5060408201516137bb6040850182613770565b5060608201516137ce6060850182613770565b50505050565b60006137e0838361377f565b60808301905092915050565b6000602082019050919050565b600061380482613735565b61380e8185613740565b935061381983613751565b8060005b8381101561384a57815161383188826137d4565b975061383c836137ec565b92505060018101905061381d565b5085935050505092915050565b6000602082019050818103600083015261387181846137f9565b905092915050565b600060e08201905061388e600083018a6134ab565b61389b6020830189613679565b6138a86040830188613679565b6138b560608301876135f6565b6138c260808301866135f6565b6138cf60a08301856135f6565b6138dc60c08301846135f6565b98975050505050505050565b60006138f3826132d7565b9050919050565b613903816138e8565b811461390e57600080fd5b50565b600081359050613920816138fa565b92915050565b6000613931826132d7565b9050919050565b61394181613926565b811461394c57600080fd5b50565b60008135905061395e81613938565b92915050565b600061396f826132d7565b9050919050565b61397f81613964565b811461398a57600080fd5b50565b60008135905061399c81613976565b92915050565b6000806000606084860312156139bb576139ba61321c565b5b60006139c986828701613911565b93505060206139da8682870161394f565b92505060406139eb8682870161398d565b9150509250925092565b6139fe81613657565b82525050565b60e082016000820151613a1a6000850182613761565b506020820151613a2d60208501826139f5565b506040820151613a4060408501826139f5565b506060820151613a536060850182613770565b506080820151613a666080850182613770565b5060a0820151613a7960a0850182613770565b5060c0820151613a8c60c0850182613770565b50505050565b600060e082019050613aa76000830184613a04565b92915050565b600080fd5b600080fd5b600080fd5b60008083601f840112613ad257613ad1613aad565b5b8235905067ffffffffffffffff811115613aef57613aee613ab2565b5b602083019150836020820283011115613b0b57613b0a613ab7565b5b9250929050565b600080600060408486031215613b2b57613b2a61321c565b5b600084013567ffffffffffffffff811115613b4957613b48613221565b5b613b5586828701613abc565b93509350506020613b6886828701613300565b9150509250925092565b600060208284031215613b8857613b8761321c565b5b6000613b9684828501613300565b91505092915050565b7f4e487b7100000000000000000000000000000000000000000000000000000000600052601160045260246000fd5b6000613bd982613315565b9150613be483613315565b9250828203905081811115613bfc57613bfb613b9f565b5b92915050565b600082825260208201905092915050565b7f6d6f6e7468206d757374206265203c3d206c6f616e4d61784475726174696f6e60008201527f4d6f6e7468730000000000000000000000000000000000000000000000000000602082015250565b6000613c6f602683613c02565b9150613c7a82613c13565b604082019050919050565b60006020820190508181036000830152613c9e81613c62565b9050919050565b7f4e487b7100000000000000000000000000000000000000000000000000000000600052601260045260246000fd5b6000613cdf82613315565b9150613cea83613315565b925082613cfa57613cf9613ca5565b5b828204905092915050565b6000613d1082613315565b9150613d1b83613315565b9250828202613d2981613315565b91508282048414831517613d4057613d3f613b9f565b5b5092915050565b600082825260208201905092915050565b50565b6000613d68600083613d47565b9150613d7382613d58565b600082019050919050565b6000608082019050613d9360008301856134ab565b613da060208301846135f6565b8181036040830152613db181613d5b565b90508181036060830152613dc481613d5b565b90509392505050565b7f7574696c697a6174696f6e2063616e2774206578636565642031303025000000600082015250565b6000613e03601d83613c02565b9150613e0e82613dcd565b602082019050919050565b60006020820190508181036000830152613e3281613df6565b9050919050565b600081519050613e488161331f565b92915050565b600060208284031215613e6457613e6361321c565b5b6000613e7284828501613e39565b91505092915050565b6000613e8682613315565b9150613e9183613315565b9250828201905080821115613ea957613ea8613b9f565b5b92915050565b6000604082019050613ec460008301856134ab565b613ed160208301846135f6565b9392505050565b7f496e697469616c697a61626c653a20636f6e747261637420697320616c72656160008201527f647920696e697469616c697a6564000000000000000000000000000000000000602082015250565b6000613f34602e83613c02565b9150613f3f82613ed8565b604082019050919050565b60006020820190508181036000830152613f6381613f27565b9050919050565b6000819050919050565b600060ff82169050919050565b6000613f9c613f97613f9284613f6a565b61364d565b613f74565b9050919050565b613fac81613f81565b82525050565b6000602082019050613fc76000830184613fa3565b92915050565b7f4e487b7100000000000000000000000000000000000000000000000000000000600052603260045260246000fd5b600061400782613315565b91507fffffffffffffffffffffffffffffffffffffffffffffffffffffffffffffffff820361403957614038613b9f565b5b600182019050919050565b7f4f776e61626c653a206e6577206f776e657220697320746865207a65726f206160008201527f6464726573730000000000000000000000000000000000000000000000000000602082015250565b60006140a0602683613c02565b91506140ab82614044565b604082019050919050565b600060208201905081810360008301526140cf81614093565b9050919050565b6000819050919050565b60006140eb826140d6565b91506140f6836140d6565b92508261410657614105613ca5565b5b600160000383147f80000000000000000000000000000000000000000000000000000000000000008314161561413f5761413e613b9f565b5b828205905092915050565b614153816140d6565b82525050565b600060208201905061416e600083018461414a565b92915050565b600061417f826140d6565b915061418a836140d6565b92508282039050818112600084121682821360008512151617156141b1576141b0613b9f565b5b92915050565b60006141d26141cd6141c8846140d6565b61364d565b6140d6565b9050919050565b6141e2816141b7565b82525050565b60006040820190506141fd60008301856141d9565b61420a60208301846141d9565b9392505050565b600060208201905061422660008301846141d9565b92915050565b600061423782613315565b91506000820361424a57614249613b9f565b5b600182039050919050565b7f4f776e61626c653a2063616c6c6572206973206e6f7420746865206f776e6572600082015250565b600061428b602083613c02565b915061429682614255565b602082019050919050565b600060208201905081810360008301526142ba8161427e565b9050919050565b60006060820190506142d660008301866134ab565b6142e360208301856134ab565b6142f060408301846135f6565b949350505050565b600060608201905061430d60008301866135f6565b61431a60208301856135f6565b61432760408301846135f6565b949350505050565b600060408201905061434460008301856135f6565b61435160208301846135f6565b9392505050565b614361816133f0565b811461436c57600080fd5b50565b60008151905061437e81614358565b92915050565b60006020828403121561439a5761439961321c565b5b60006143a88482850161436f565b91505092915050565b7f5361666545524332303a204552433230206f7065726174696f6e20646964206e60008201527f6f74207375636365656400000000000000000000000000000000000000000000602082015250565b600061440d602a83613c02565b9150614418826143b1565b604082019050919050565b6000602082019050818103600083015261443c81614400565b9050919050565b7f416464726573733a20696e73756666696369656e742062616c616e636520666f60008201527f722063616c6c0000000000000000000000000000000000000000000000000000602082015250565b600061449f602683613c02565b91506144aa82614443565b604082019050919050565b600060208201905081810360008301526144ce81614492565b9050919050565b600081519050919050565b600081905092915050565b60005b838110156145095780820151818401526020810190506144ee565b60008484015250505050565b6000614520826144d5565b61452a81856144e0565b935061453a8185602086016144eb565b80840191505092915050565b60006145528284614515565b915081905092915050565b7f416464726573733a2063616c6c20746f206e6f6e2d636f6e7472616374000000600082015250565b6000614593601d83613c02565b915061459e8261455d565b602082019050919050565b600060208201905081810360008301526145c281614586565b9050919050565b600081519050919050565b60006145df826145c9565b6145e98185613c02565b93506145f98185602086016144eb565b6146028161322b565b840191505092915050565b6000602082019050818103600083015261462781846145d4565b90509291505056fea2646970667358221220490c0b8c0fa2b078dc30766210211699f5e9299f04ae897a9b5e34331273395364736f6c63430008130033",
  "linkReferences": {},
  "deployedLinkReferences": {}
}