{
  "_format": "hh-sol-artifact-1",
  "contractName": "Auctions",
  "sourceName": "contracts/protocol/auctions/Auctions.sol",
  "abi": [
    {
      "inputs": [
        {
          "internalType": "uint256",
          "name": "x",
          "type": "uint256"
        },
        {
          "internalType": "uint256",
          "name": "y",
          "type": "uint256"
        }
      ],
      "name": "PRBMath_MulDiv18_Overflow",
      "type": "error"
    },
    {
      "inputs": [
        {
          "internalType": "uint256",
          "name": "x",
          "type": "uint256"
        },
        {
          "internalType": "uint256",
          "name": "y",
          "type": "uint256"
        },
        {
          "internalType": "uint256",
          "name": "denominator",
          "type": "uint256"
        }
      ],
      "name": "PRBMath_MulDiv_Overflow",
      "type": "error"
    },
    {
      "inputs": [
        {
          "internalType": "int256",
          "name": "x",
          "type": "int256"
        }
      ],
      "name": "PRBMath_SD59x18_Convert_Overflow",
      "type": "error"
    },
    {
      "inputs": [
        {
          "internalType": "int256",
          "name": "x",
          "type": "int256"
        }
      ],
      "name": "PRBMath_SD59x18_Convert_Underflow",
      "type": "error"
    },
    {
      "inputs": [
        {
          "internalType": "SD59x18",
          "name": "x",
          "type": "int256"
        }
      ],
      "name": "PRBMath_SD59x18_Exp2_InputTooBig",
      "type": "error"
    },
    {
      "inputs": [
        {
          "internalType": "SD59x18",
          "name": "x",
          "type": "int256"
        }
      ],
      "name": "PRBMath_SD59x18_IntoUD60x18_Underflow",
      "type": "error"
    },
    {
      "inputs": [
        {
          "internalType": "SD59x18",
          "name": "x",
          "type": "int256"
        }
      ],
      "name": "PRBMath_SD59x18_Log_InputTooSmall",
      "type": "error"
    },
    {
      "inputs": [],
      "name": "PRBMath_SD59x18_Mul_InputTooSmall",
      "type": "error"
    },
    {
      "inputs": [
        {
          "internalType": "SD59x18",
          "name": "x",
          "type": "int256"
        },
        {
          "internalType": "SD59x18",
          "name": "y",
          "type": "int256"
        }
      ],
      "name": "PRBMath_SD59x18_Mul_Overflow",
      "type": "error"
    },
    {
      "inputs": [
        {
          "internalType": "uint256",
          "name": "x",
          "type": "uint256"
        }
      ],
      "name": "PRBMath_UD60x18_Convert_Overflow",
      "type": "error"
    },
    {
      "inputs": [
        {
          "internalType": "UD60x18",
          "name": "x",
          "type": "uint256"
        }
      ],
      "name": "PRBMath_UD60x18_IntoSD59x18_Overflow",
      "type": "error"
    },
    {
      "anonymous": false,
      "inputs": [
        {
          "indexed": false,
          "internalType": "uint8",
          "name": "version",
          "type": "uint8"
        }
      ],
      "name": "Initialized",
      "type": "event"
    },
    {
      "anonymous": false,
      "inputs": [
        {
          "indexed": true,
          "internalType": "address",
          "name": "previousOwner",
          "type": "address"
        },
        {
          "indexed": true,
          "internalType": "address",
          "name": "newOwner",
          "type": "address"
        }
      ],
      "name": "OwnershipTransferred",
      "type": "event"
    },
    {
      "inputs": [
        {
          "internalType": "uint256",
          "name": "",
          "type": "uint256"
        }
      ],
      "name": "_loans",
      "outputs": [
        {
          "internalType": "address",
          "name": "borrower",
          "type": "address"
        },
        {
          "internalType": "UD60x18",
          "name": "ratePerSecond",
          "type": "uint256"
        },
        {
          "internalType": "UD60x18",
          "name": "paymentPerSecond",
          "type": "uint256"
        },
        {
          "internalType": "uint256",
          "name": "startTime",
          "type": "uint256"
        },
        {
          "internalType": "uint256",
          "name": "unpaidPrincipal",
          "type": "uint256"
        },
        {
          "internalType": "uint256",
          "name": "maxDurationSeconds",
          "type": "uint256"
        },
        {
          "internalType": "uint256",
          "name": "lastPaymentTime",
          "type": "uint256"
        }
      ],
      "stateMutability": "view",
      "type": "function"
    },
    {
      "inputs": [
        {
          "internalType": "uint256",
          "name": "tokenId",
          "type": "uint256"
        },
        {
          "internalType": "uint256",
          "name": "bidIdx",
          "type": "uint256"
        }
      ],
      "name": "acceptBid",
      "outputs": [],
      "stateMutability": "nonpayable",
      "type": "function"
    },
    {
      "inputs": [
        {
          "internalType": "uint256",
          "name": "tokenId",
          "type": "uint256"
        }
      ],
      "name": "accruedInterest",
      "outputs": [
        {
          "internalType": "uint256",
          "name": "",
          "type": "uint256"
        }
      ],
      "stateMutability": "view",
      "type": "function"
    },
    {
      "inputs": [],
      "name": "availableLiquidity",
      "outputs": [
        {
          "internalType": "uint256",
          "name": "",
          "type": "uint256"
        }
      ],
      "stateMutability": "view",
      "type": "function"
    },
    {
      "inputs": [
        {
          "internalType": "uint256",
          "name": "tokenId",
          "type": "uint256"
        },
        {
          "internalType": "uint256",
          "name": "propertyValue",
          "type": "uint256"
        },
        {
          "internalType": "uint256",
          "name": "downPayment",
          "type": "uint256"
        },
        {
          "internalType": "uint256",
          "name": "maxDurationMonths",
          "type": "uint256"
        }
      ],
      "name": "bid",
      "outputs": [],
      "stateMutability": "nonpayable",
      "type": "function"
    },
    {
      "inputs": [
        {
          "components": [
            {
              "internalType": "address",
              "name": "bidder",
              "type": "address"
            },
            {
              "internalType": "uint256",
              "name": "propertyValue",
              "type": "uint256"
            },
            {
              "internalType": "uint256",
              "name": "downPayment",
              "type": "uint256"
            },
            {
              "internalType": "uint256",
              "name": "maxDurationMonths",
              "type": "uint256"
            }
          ],
          "internalType": "struct IState.Bid",
          "name": "bid",
          "type": "tuple"
        }
      ],
      "name": "bidActionable",
      "outputs": [
        {
          "internalType": "bool",
          "name": "",
          "type": "bool"
        }
      ],
      "stateMutability": "view",
      "type": "function"
    },
    {
      "inputs": [
        {
          "internalType": "uint256",
          "name": "tokenId",
          "type": "uint256"
        }
      ],
      "name": "bids",
      "outputs": [
        {
          "components": [
            {
              "internalType": "address",
              "name": "bidder",
              "type": "address"
            },
            {
              "internalType": "uint256",
              "name": "propertyValue",
              "type": "uint256"
            },
            {
              "internalType": "uint256",
              "name": "downPayment",
              "type": "uint256"
            },
            {
              "internalType": "uint256",
              "name": "maxDurationMonths",
              "type": "uint256"
            }
          ],
          "internalType": "struct IState.Bid[]",
          "name": "",
          "type": "tuple[]"
        }
      ],
      "stateMutability": "view",
      "type": "function"
    },
    {
      "inputs": [
        {
          "internalType": "uint256",
          "name": "tokenId",
          "type": "uint256"
        },
        {
          "internalType": "uint256",
          "name": "bidIdx",
          "type": "uint256"
        }
      ],
      "name": "cancelBid",
      "outputs": [],
      "stateMutability": "nonpayable",
      "type": "function"
    },
    {
      "inputs": [],
      "name": "defaultFeeSpread",
      "outputs": [
        {
          "internalType": "UD60x18",
          "name": "",
          "type": "uint256"
        }
      ],
      "stateMutability": "view",
      "type": "function"
    },
    {
      "inputs": [
        {
          "internalType": "contract tUsdc",
          "name": "_tUSDC",
          "type": "address"
        },
        {
          "internalType": "contract TangibleNft",
          "name": "_prosperaNftContract",
          "type": "address"
        }
      ],
      "name": "initialize",
      "outputs": [],
      "stateMutability": "nonpayable",
      "type": "function"
    },
    {
      "inputs": [
        {
          "components": [
            {
              "internalType": "address",
              "name": "bidder",
              "type": "address"
            },
            {
              "internalType": "uint256",
              "name": "propertyValue",
              "type": "uint256"
            },
            {
              "internalType": "uint256",
              "name": "downPayment",
              "type": "uint256"
            },
            {
              "internalType": "uint256",
              "name": "maxDurationMonths",
              "type": "uint256"
            }
          ],
          "internalType": "struct IState.Bid",
          "name": "_bid",
          "type": "tuple"
        }
      ],
      "name": "loanBidActionable",
      "outputs": [
        {
          "internalType": "bool",
          "name": "",
          "type": "bool"
        }
      ],
      "stateMutability": "view",
      "type": "function"
    },
    {
      "inputs": [
        {
          "internalType": "uint256",
          "name": "tokenId",
          "type": "uint256"
        }
      ],
      "name": "loans",
      "outputs": [
        {
          "components": [
            {
              "internalType": "address",
              "name": "borrower",
              "type": "address"
            },
            {
              "internalType": "UD60x18",
              "name": "ratePerSecond",
              "type": "uint256"
            },
            {
              "internalType": "UD60x18",
              "name": "paymentPerSecond",
              "type": "uint256"
            },
            {
              "internalType": "uint256",
              "name": "startTime",
              "type": "uint256"
            },
            {
              "internalType": "uint256",
              "name": "unpaidPrincipal",
              "type": "uint256"
            },
            {
              "internalType": "uint256",
              "name": "maxDurationSeconds",
              "type": "uint256"
            },
            {
              "internalType": "uint256",
              "name": "lastPaymentTime",
              "type": "uint256"
            }
          ],
          "internalType": "struct IState.Loan",
          "name": "",
          "type": "tuple"
        }
      ],
      "stateMutability": "view",
      "type": "function"
    },
    {
      "inputs": [
        {
          "internalType": "uint256",
          "name": "idx",
          "type": "uint256"
        }
      ],
      "name": "loansTokenIdsAt",
      "outputs": [
        {
          "internalType": "uint256",
          "name": "tokenId",
          "type": "uint256"
        }
      ],
      "stateMutability": "view",
      "type": "function"
    },
    {
      "inputs": [],
      "name": "loansTokenIdsLength",
      "outputs": [
        {
          "internalType": "uint256",
          "name": "",
          "type": "uint256"
        }
      ],
      "stateMutability": "view",
      "type": "function"
    },
    {
      "inputs": [
        {
          "internalType": "bytes4",
          "name": "",
          "type": "bytes4"
        }
      ],
      "name": "logicTargets",
      "outputs": [
        {
          "internalType": "address",
          "name": "",
          "type": "address"
        }
      ],
      "stateMutability": "view",
      "type": "function"
    },
    {
      "inputs": [],
      "name": "maxDurationMonthsCap",
      "outputs": [
        {
          "internalType": "uint256",
          "name": "",
          "type": "uint256"
        }
      ],
      "stateMutability": "view",
      "type": "function"
    },
    {
      "inputs": [],
      "name": "maxLtv",
      "outputs": [
        {
          "internalType": "UD60x18",
          "name": "",
          "type": "uint256"
        }
      ],
      "stateMutability": "view",
      "type": "function"
    },
    {
      "inputs": [],
      "name": "monthSeconds",
      "outputs": [
        {
          "internalType": "uint256",
          "name": "",
          "type": "uint256"
        }
      ],
      "stateMutability": "view",
      "type": "function"
    },
    {
      "inputs": [],
      "name": "optimalUtilization",
      "outputs": [
        {
          "internalType": "UD60x18",
          "name": "",
          "type": "uint256"
        }
      ],
      "stateMutability": "view",
      "type": "function"
    },
    {
      "inputs": [],
      "name": "owner",
      "outputs": [
        {
          "internalType": "address",
          "name": "",
          "type": "address"
        }
      ],
      "stateMutability": "view",
      "type": "function"
    },
    {
      "inputs": [
        {
          "components": [
            {
              "internalType": "address",
              "name": "borrower",
              "type": "address"
            },
            {
              "internalType": "UD60x18",
              "name": "ratePerSecond",
              "type": "uint256"
            },
            {
              "internalType": "UD60x18",
              "name": "paymentPerSecond",
              "type": "uint256"
            },
            {
              "internalType": "uint256",
              "name": "startTime",
              "type": "uint256"
            },
            {
              "internalType": "uint256",
              "name": "unpaidPrincipal",
              "type": "uint256"
            },
            {
              "internalType": "uint256",
              "name": "maxDurationSeconds",
              "type": "uint256"
            },
            {
              "internalType": "uint256",
              "name": "lastPaymentTime",
              "type": "uint256"
            }
          ],
          "internalType": "struct IState.Loan",
          "name": "loan",
          "type": "tuple"
        },
        {
          "internalType": "uint256",
          "name": "month",
          "type": "uint256"
        }
      ],
      "name": "principalCap",
      "outputs": [
        {
          "internalType": "uint256",
          "name": "cap",
          "type": "uint256"
        }
      ],
      "stateMutability": "pure",
      "type": "function"
    },
    {
      "inputs": [],
      "name": "redemptionFeeSpread",
      "outputs": [
        {
          "internalType": "UD60x18",
          "name": "",
          "type": "uint256"
        }
      ],
      "stateMutability": "view",
      "type": "function"
    },
    {
      "inputs": [],
      "name": "renounceOwnership",
      "outputs": [],
      "stateMutability": "nonpayable",
      "type": "function"
    },
    {
      "inputs": [
        {
          "internalType": "bytes4[]",
          "name": "selectorsArr",
          "type": "bytes4[]"
        },
        {
          "internalType": "address",
          "name": "target",
          "type": "address"
        }
      ],
      "name": "setSelectorsTarget",
      "outputs": [],
      "stateMutability": "nonpayable",
      "type": "function"
    },
    {
      "inputs": [
        {
          "internalType": "uint256",
          "name": "tokenId",
          "type": "uint256"
        }
      ],
      "name": "status",
      "outputs": [
        {
          "internalType": "enum IState.Status",
          "name": "",
          "type": "uint8"
        }
      ],
      "stateMutability": "view",
      "type": "function"
    },
    {
      "inputs": [
        {
          "internalType": "uint256",
          "name": "tokenId",
          "type": "uint256"
        }
      ],
      "name": "tokenIdBidsLength",
      "outputs": [
        {
          "internalType": "uint256",
          "name": "",
          "type": "uint256"
        }
      ],
      "stateMutability": "view",
      "type": "function"
    },
    {
      "inputs": [],
      "name": "totalDeposits",
      "outputs": [
        {
          "internalType": "uint256",
          "name": "",
          "type": "uint256"
        }
      ],
      "stateMutability": "view",
      "type": "function"
    },
    {
      "inputs": [],
      "name": "totalPrincipal",
      "outputs": [
        {
          "internalType": "uint256",
          "name": "",
          "type": "uint256"
        }
      ],
      "stateMutability": "view",
      "type": "function"
    },
    {
      "inputs": [
        {
          "internalType": "address",
          "name": "newOwner",
          "type": "address"
        }
      ],
      "name": "transferOwnership",
      "outputs": [],
      "stateMutability": "nonpayable",
      "type": "function"
    },
    {
      "inputs": [],
      "name": "yearMonths",
      "outputs": [
        {
          "internalType": "uint256",
          "name": "",
          "type": "uint256"
        }
      ],
      "stateMutability": "view",
      "type": "function"
    },
    {
      "inputs": [],
      "name": "yearSeconds",
      "outputs": [
        {
          "internalType": "uint256",
          "name": "",
          "type": "uint256"
        }
      ],
      "stateMutability": "view",
      "type": "function"
    }
  ],
  "bytecode": "0x608060405273a0b86991c6218b36c1d19d4a2e9eb0ce3606eb486002806101000a81548173ffffffffffffffffffffffffffffffffffffffff021916908373ffffffffffffffffffffffffffffffffffffffff1602179055506200008f6200006e60646200027d60201b60201c565b62000080605a6200027d60201b60201c565b6200030e60201b90919060201c565b600755620000c9620000a860646200027d60201b60201c565b620000ba60046200027d60201b60201c565b6200030e60201b90919060201c565b60085562000103620000e260646200027d60201b60201c565b620000f460036200027d60201b60201c565b6200030e60201b90919060201c565b6009556200011860096200027d60201b60201c565b600a55620001526200013160646200027d60201b60201c565b6200014360016200027d60201b60201c565b6200030e60201b90919060201c565b600b556200018c6200016b60646200027d60201b60201c565b6200017d60026200027d60201b60201c565b6200030e60201b90919060201c565b600c55620001c6620001a560646200027d60201b60201c565b620001b760036200027d60201b60201c565b6200030e60201b90919060201c565b600d5562000200620001df60646200027d60201b60201c565b620001f160046200027d60201b60201c565b6200030e60201b90919060201c565b600e55623b5380601455620002416200022060646200027d60201b60201c565b6200023260326200027d60201b60201c565b6200030e60201b90919060201c565b60155560786016553480156200025657600080fd5b50620002776200026b6200036360201b60201c565b6200036b60201b60201c565b62000641565b6000670de0b6b3a76400007fffffffffffffffffffffffffffffffffffffffffffffffffffffffffffffffff620002b591906200059e565b821115620002fc57816040517f1cd951a7000000000000000000000000000000000000000000000000000000008152600401620002f39190620005e7565b60405180910390fd5b670de0b6b3a764000082029050919050565b60006200035b6200034f62000329856200042f60201b60201c565b670de0b6b3a764000062000343866200042f60201b60201c565b6200043960201b60201c565b6200055b60201b60201c565b905092915050565b600033905090565b60008060009054906101000a900473ffffffffffffffffffffffffffffffffffffffff169050816000806101000a81548173ffffffffffffffffffffffffffffffffffffffff021916908373ffffffffffffffffffffffffffffffffffffffff1602179055508173ffffffffffffffffffffffffffffffffffffffff168173ffffffffffffffffffffffffffffffffffffffff167f8be0079c531659141344cd1fd0a4f28419497f9722a3daafe3b4186f6b6457e060405160405180910390a35050565b6000819050919050565b600080600080198587098587029250828110838203039150506000810362000479578382816200046e576200046d6200056f565b5b049250505062000554565b838110620004c4578585856040517f63a05778000000000000000000000000000000000000000000000000000000008152600401620004bb9392919062000604565b60405180910390fd5b60008486880990508281118203915080830392506000600186190186169050600081870496508185049450600182836000030401905080840285179450600060028860030218905080880260020381029050808802600203810290508088026002038102905080880260020381029050808802600203810290508088026002038102905080860296505050505050505b9392505050565b6000819050919050565b6000819050919050565b7f4e487b7100000000000000000000000000000000000000000000000000000000600052601260045260246000fd5b6000620005ab8262000565565b9150620005b88362000565565b925082620005cb57620005ca6200056f565b5b828204905092915050565b620005e18162000565565b82525050565b6000602082019050620005fe6000830184620005d6565b92915050565b60006060820190506200061b6000830186620005d6565b6200062a6020830185620005d6565b620006396040830184620005d6565b949350505050565b61586b80620006516000396000f3fe608060405234801561001057600080fd5b50600436106101e55760003560e01c8063715018a61161010f578063a54cab1c116100a2578063e1ec3c6811610071578063e1ec3c68146105b2578063e3435044146105e2578063f2fde38b146105fe578063ff9ad6df1461061a576101e5565b8063a54cab1c14610510578063ab01f7e11461052e578063bcff3e3b1461054c578063bd5c569b1461057c576101e5565b8063812cf018116100de578063812cf0181461048657806387ae0dbe146104a45780638da5cb5b146104c2578063a0024c2f146104e0576101e5565b8063715018a614610410578063743753591461041a57806374bdf96a146104385780637d88209714610468576101e5565b80633ca36db6116101875780634abb3003116101565780634abb30031461039a5780634b1533b2146103b85780634b393605146103d65780636290cd1c146103f2576101e5565b80633ca36db61461030057806342d21ef71461031e5780634423c5f11461034e578063485cc9551461037e576101e5565b80631cc03c87116101c35780631cc03c87146102665780632da109231461029657806334e40b2e146102c65780633a12c6da146102e2576101e5565b806302e9d5e4146101ea5780630a9cc0b61461020657806317548b7914610236575b600080fd5b61020460048036038101906101ff9190614021565b610638565b005b610220600480360381019061021b91906141c8565b610f8e565b60405161022d9190614210565b60405180910390f35b610250600480360381019061024b9190614283565b611003565b60405161025d91906142bf565b60405180910390f35b610280600480360381019061027b91906143ba565b611036565b60405161028d919061440a565b60405180910390f35b6102b060048036038101906102ab9190614425565b611198565b6040516102bd919061440a565b60405180910390f35b6102e060048036038101906102db9190614452565b6111b8565b005b6102ea6114ec565b6040516102f791906144f4565b60405180910390f35b6103086114f2565b60405161031591906144f4565b60405180910390f35b61033860048036038101906103339190614425565b6114fc565b6040516103459190614586565b60405180910390f35b61036860048036038101906103639190614425565b611643565b60405161037591906146c3565b60405180910390f35b61039860048036038101906103939190614761565b611729565b005b6103a26118ea565b6040516103af91906144f4565b60405180910390f35b6103c06118f4565b6040516103cd919061440a565b60405180910390f35b6103f060048036038101906103eb9190614021565b6118fa565b005b6103fa611c28565b60405161040791906144f4565b60405180910390f35b610418611c2e565b005b610422611c42565b60405161042f919061440a565b60405180910390f35b610452600480360381019061044d9190614425565b611c59565b60405161045f919061440a565b60405180910390f35b610470611c76565b60405161047d919061440a565b60405180910390f35b61048e611c7c565b60405161049b919061440a565b60405180910390f35b6104ac611c81565b6040516104b9919061440a565b60405180910390f35b6104ca611c89565b6040516104d791906142bf565b60405180910390f35b6104fa60048036038101906104f591906141c8565b611cb2565b6040516105079190614210565b60405180910390f35b610518611cd6565b604051610525919061440a565b60405180910390f35b610536611cdc565b604051610543919061440a565b60405180910390f35b61056660048036038101906105619190614425565b611ced565b604051610573919061440a565b60405180910390f35b61059660048036038101906105919190614425565b611dae565b6040516105a997969594939291906147a1565b60405180910390f35b6105cc60048036038101906105c79190614425565b611e10565b6040516105d991906148ad565b60405180910390f35b6105fc60048036038101906105f7919061492d565b611ecf565b005b6106186004803603810190610613919061498d565b611fb5565b005b610622612038565b60405161062f919061440a565b60405180910390f35b6106506040518060200160405280600081525061204c565b61068e6040518060400160405280600c81526020017f6163636570744269642e2e2e000000000000000000000000000000000000000081525061204c565b6000600f6000848152602001908152602001600020905061074d8183815481106106bb576106ba6149ba565b5b90600052602060002090600402016040518060800160405290816000820160009054906101000a900473ffffffffffffffffffffffffffffffffffffffff1673ffffffffffffffffffffffffffffffffffffffff1673ffffffffffffffffffffffffffffffffffffffff1681526020016001820154815260200160028201548152602001600382015481525050611cb2565b61078c576040517f08c379a000000000000000000000000000000000000000000000000000000000815260040161078390614a46565b60405180910390fd5b6000610797846114fc565b9050600060038111156107ad576107ac61450f565b5b8160038111156107c0576107bf61450f565b5b03610983576108036040518060400160405280600481526020017f6e6f6e650000000000000000000000000000000000000000000000000000000081525061204c565b6000600160006383bd0c7a60e01b7bffffffffffffffffffffffffffffffffffffffffffffffffffffffff19167bffffffffffffffffffffffffffffffffffffffffffffffffffffffff1916815260200190815260200160002060009054906101000a900473ffffffffffffffffffffffffffffffffffffffff1673ffffffffffffffffffffffffffffffffffffffff1685856040516024016108a7929190614a66565b6040516020818303038152906040526383bd0c7a60e01b6020820180517bffffffffffffffffffffffffffffffffffffffffffffffffffffffff83818316178352505050506040516108f99190614b00565b600060405180830381855af49150503d8060008114610934576040519150601f19603f3d011682016040523d82523d6000602084013e610939565b606091505b505090508061097d576040517f08c379a000000000000000000000000000000000000000000000000000000000815260040161097490614b63565b60405180910390fd5b50610f7e565b600160038111156109975761099661450f565b5b8160038111156109aa576109a961450f565b5b03610b6d576109ed6040518060400160405280600881526020017f6d6f72746761676500000000000000000000000000000000000000000000000081525061204c565b60006001600063dfdabc1960e01b7bffffffffffffffffffffffffffffffffffffffffffffffffffffffff19167bffffffffffffffffffffffffffffffffffffffffffffffffffffffff1916815260200190815260200160002060009054906101000a900473ffffffffffffffffffffffffffffffffffffffff1673ffffffffffffffffffffffffffffffffffffffff168585604051602401610a91929190614a66565b60405160208183030381529060405263dfdabc1960e01b6020820180517bffffffffffffffffffffffffffffffffffffffffffffffffffffffff8381831617835250505050604051610ae39190614b00565b600060405180830381855af49150503d8060008114610b1e576040519150601f19603f3d011682016040523d82523d6000602084013e610b23565b606091505b5050905080610b67576040517f08c379a0000000000000000000000000000000000000000000000000000000008152600401610b5e90614bcf565b60405180910390fd5b50610f7d565b60026003811115610b8157610b8061450f565b5b816003811115610b9457610b9361450f565b5b03610d5757610bd76040518060400160405280600781526020017f64656661756c740000000000000000000000000000000000000000000000000081525061204c565b60006001600063ca03eb7360e01b7bffffffffffffffffffffffffffffffffffffffffffffffffffffffff19167bffffffffffffffffffffffffffffffffffffffffffffffffffffffff1916815260200190815260200160002060009054906101000a900473ffffffffffffffffffffffffffffffffffffffff1673ffffffffffffffffffffffffffffffffffffffff168585604051602401610c7b929190614a66565b60405160208183030381529060405263ca03eb7360e01b6020820180517bffffffffffffffffffffffffffffffffffffffffffffffffffffffff8381831617835250505050604051610ccd9190614b00565b600060405180830381855af49150503d8060008114610d08576040519150601f19603f3d011682016040523d82523d6000602084013e610d0d565b606091505b5050905080610d51576040517f08c379a0000000000000000000000000000000000000000000000000000000008152600401610d4890614c3b565b60405180910390fd5b50610f7c565b600380811115610d6a57610d6961450f565b5b816003811115610d7d57610d7c61450f565b5b03610f4057610dc06040518060400160405280600e81526020017f666f7265636c6f73757261626c6500000000000000000000000000000000000081525061204c565b60006001600063e77afe5e60e01b7bffffffffffffffffffffffffffffffffffffffffffffffffffffffff19167bffffffffffffffffffffffffffffffffffffffffffffffffffffffff1916815260200190815260200160002060009054906101000a900473ffffffffffffffffffffffffffffffffffffffff1673ffffffffffffffffffffffffffffffffffffffff168585604051602401610e64929190614a66565b60405160208183030381529060405263e77afe5e60e01b6020820180517bffffffffffffffffffffffffffffffffffffffffffffffffffffffff8381831617835250505050604051610eb69190614b00565b600060405180830381855af49150503d8060008114610ef1576040519150601f19603f3d011682016040523d82523d6000602084013e610ef6565b606091505b5050905080610f3a576040517f08c379a0000000000000000000000000000000000000000000000000000000008152600401610f3190614ccd565b60405180910390fd5b50610f7b565b6040517f08c379a0000000000000000000000000000000000000000000000000000000008152600401610f7290614d39565b60405180910390fd5b5b5b5b610f8882846120e5565b50505050565b60008082604001518360200151610fa59190614d88565b90506000610fd0610fb98560200151612291565b610fc284612291565b61231d90919063ffffffff16565b9050610fe76015548261235290919063ffffffff16565b8015610ffa5750610ff6611c42565b8211155b92505050919050565b60016020528060005260406000206000915054906101000a900473ffffffffffffffffffffffffffffffffffffffff1681565b600061104183612370565b821115611083576040517f08c379a000000000000000000000000000000000000000000000000000000000815260040161107a90614e2e565b60405180910390fd5b6000600c6301e133806110969190614e7d565b836110a19190614eae565b905060006110e76110b26001612399565b6110d96110c28860a00151612399565b6110cb86612399565b61249d90919063ffffffff16565b61249d90919063ffffffff16565b905060006111406111288361111a6111158a602001516111076001612291565b6124cb90919063ffffffff16565b6124f9565b61256d90919063ffffffff16565b6111326001612399565b61249d90919063ffffffff16565b9050600061116b611166836111588a604001516124f9565b61262b90919063ffffffff16565b6127bb565b905061118c61118788602001518361231d90919063ffffffff16565b612810565b94505050505092915050565b6000600f6000838152602001908152602001600020805490509050919050565b600460009054906101000a900473ffffffffffffffffffffffffffffffffffffffff1673ffffffffffffffffffffffffffffffffffffffff166329cb364f336040518263ffffffff1660e01b815260040161121391906142bf565b602060405180830381865afa158015611230573d6000803e3d6000fd5b505050506040513d601f19601f820116820180604052508101906112549190614f1c565b611293576040517f08c379a000000000000000000000000000000000000000000000000000000000815260040161128a90614f95565b60405180910390fd5b828211156112d6576040517f08c379a00000000000000000000000000000000000000000000000000000000081526004016112cd90615027565b60405180910390fd5b600181101580156112e957506016548111155b611328576040517f08c379a000000000000000000000000000000000000000000000000000000000815260040161131f90615093565b60405180910390fd5b600061136861135061133986612291565b61134286612291565b61231d90919063ffffffff16565b61135a6001612291565b61282d90919063ffffffff16565b905061137f6015548261235290919063ffffffff16565b6113be576040517f08c379a00000000000000000000000000000000000000000000000000000000081526004016113b5906150ff565b60405180910390fd5b61140b33308560028054906101000a900473ffffffffffffffffffffffffffffffffffffffff1673ffffffffffffffffffffffffffffffffffffffff1661285b909392919063ffffffff16565b600f600086815260200190815260200160002060405180608001604052803373ffffffffffffffffffffffffffffffffffffffff16815260200186815260200185815260200184815250908060018154018082558091505060019003906000526020600020906004020160009091909190915060008201518160000160006101000a81548173ffffffffffffffffffffffffffffffffffffffff021916908373ffffffffffffffffffffffffffffffffffffffff16021790555060208201518160010155604082015181600201556060820151816003015550505050505050565b60155481565b6000600d54905090565b600080601060008481526020019081526020016000206040518060e00160405290816000820160009054906101000a900473ffffffffffffffffffffffffffffffffffffffff1673ffffffffffffffffffffffffffffffffffffffff1673ffffffffffffffffffffffffffffffffffffffff16815260200160018201548152602001600282015481526020016003820154815260200160048201548152602001600582015481526020016006820154815250509050600073ffffffffffffffffffffffffffffffffffffffff16816000015173ffffffffffffffffffffffffffffffffffffffff16036115f357600091505061163e565b6115fc836128e4565b1561163857600061160c826129f9565b426116179190614d88565b9050601454811161162d5760029250505061163e565b60039250505061163e565b60019150505b919050565b6060600f6000838152602001908152602001600020805480602002602001604051908101604052809291908181526020016000905b8282101561171e57838290600052602060002090600402016040518060800160405290816000820160009054906101000a900473ffffffffffffffffffffffffffffffffffffffff1673ffffffffffffffffffffffffffffffffffffffff1673ffffffffffffffffffffffffffffffffffffffff168152602001600182015481526020016002820154815260200160038201548152505081526020019060010190611678565b505050509050919050565b6000600260019054906101000a900460ff1615905080801561175d57506001600260009054906101000a900460ff1660ff16105b8061178c575061176c30612aa4565b15801561178b57506001600260009054906101000a900460ff1660ff16145b5b6117cb576040517f08c379a00000000000000000000000000000000000000000000000000000000081526004016117c290615191565b60405180910390fd5b6001600260006101000a81548160ff021916908360ff1602179055508015611809576001600260016101000a81548160ff0219169083151502179055505b82600360006101000a81548173ffffffffffffffffffffffffffffffffffffffff021916908373ffffffffffffffffffffffffffffffffffffffff16021790555081600460006101000a81548173ffffffffffffffffffffffffffffffffffffffff021916908373ffffffffffffffffffffffffffffffffffffffff16021790555080156118e5576000600260016101000a81548160ff0219169083151502179055507f7f26b83ff96e1f2b6a682f133852f6798a09c465da95921460cefb384740249860016040516118dc91906151f9565b60405180910390a15b505050565b6000600e54905090565b60055481565b6000600f600084815260200190815260200160002090506000818381548110611926576119256149ba565b5b90600052602060002090600402016040518060800160405290816000820160009054906101000a900473ffffffffffffffffffffffffffffffffffffffff1673ffffffffffffffffffffffffffffffffffffffff1673ffffffffffffffffffffffffffffffffffffffff16815260200160018201548152602001600282015481526020016003820154815250509050806000015173ffffffffffffffffffffffffffffffffffffffff163373ffffffffffffffffffffffffffffffffffffffff1614611a27576040517f08c379a0000000000000000000000000000000000000000000000000000000008152600401611a1e90615260565b60405180910390fd5b60008260018480549050611a3b9190614d88565b81548110611a4c57611a4b6149ba565b5b90600052602060002090600402016040518060800160405290816000820160009054906101000a900473ffffffffffffffffffffffffffffffffffffffff1673ffffffffffffffffffffffffffffffffffffffff1673ffffffffffffffffffffffffffffffffffffffff1681526020016001820154815260200160028201548152602001600382015481525050905080838581548110611aef57611aee6149ba565b5b906000526020600020906004020160008201518160000160006101000a81548173ffffffffffffffffffffffffffffffffffffffff021916908373ffffffffffffffffffffffffffffffffffffffff16021790555060208201518160010155604082015181600201556060820151816003015590505082805480611b7657611b75615280565b5b6001900381819060005260206000209060040201600080820160006101000a81549073ffffffffffffffffffffffffffffffffffffffff021916905560018201600090556002820160009055600382016000905550509055611c218260000151836040015160028054906101000a900473ffffffffffffffffffffffffffffffffffffffff1673ffffffffffffffffffffffffffffffffffffffff16612ac79092919063ffffffff16565b5050505050565b60075481565b611c36612b4d565b611c406000612bcb565b565b6000600554600654611c549190614d88565b905090565b6000611c6f826011612c8f90919063ffffffff16565b9050919050565b60065481565b600c81565b6301e1338081565b60008060009054906101000a900473ffffffffffffffffffffffffffffffffffffffff16905090565b6000816040015182602001511480611ccf5750611cce82610f8e565b5b9050919050565b60165481565b6000611ce86011612ca9565b905090565b6000611da7601060008481526020019081526020016000206040518060e00160405290816000820160009054906101000a900473ffffffffffffffffffffffffffffffffffffffff1673ffffffffffffffffffffffffffffffffffffffff1673ffffffffffffffffffffffffffffffffffffffff1681526020016001820154815260200160028201548152602001600382015481526020016004820154815260200160058201548152602001600682015481525050612cbe565b9050919050565b60106020528060005260406000206000915090508060000160009054906101000a900473ffffffffffffffffffffffffffffffffffffffff16908060010154908060020154908060030154908060040154908060050154908060060154905087565b611e18613f84565b601060008381526020019081526020016000206040518060e00160405290816000820160009054906101000a900473ffffffffffffffffffffffffffffffffffffffff1673ffffffffffffffffffffffffffffffffffffffff1673ffffffffffffffffffffffffffffffffffffffff16815260200160018201548152602001600282015481526020016003820154815260200160048201548152602001600582015481526020016006820154815250509050919050565b611ed7612b4d565b60005b83839050811015611faf578160016000868685818110611efd57611efc6149ba565b5b9050602002016020810190611f129190614283565b7bffffffffffffffffffffffffffffffffffffffffffffffffffffffff19167bffffffffffffffffffffffffffffffffffffffffffffffffffffffff1916815260200190815260200160002060006101000a81548173ffffffffffffffffffffffffffffffffffffffff021916908373ffffffffffffffffffffffffffffffffffffffff1602179055508080611fa7906152af565b915050611eda565b50505050565b611fbd612b4d565b600073ffffffffffffffffffffffffffffffffffffffff168173ffffffffffffffffffffffffffffffffffffffff160361202c576040517f08c379a000000000000000000000000000000000000000000000000000000000815260040161202390615369565b60405180910390fd5b61203581612bcb565b50565b600c6301e133806120499190614e7d565b81565b6120e28160405160240161206091906153cd565b6040516020818303038152906040527f41304fac000000000000000000000000000000000000000000000000000000007bffffffffffffffffffffffffffffffffffffffffffffffffffffffff19166020820180517bffffffffffffffffffffffffffffffffffffffffffffffffffffffff8381831617835250505050612cf6565b50565b600082600184805490506120f99190614d88565b8154811061210a576121096149ba565b5b90600052602060002090600402016040518060800160405290816000820160009054906101000a900473ffffffffffffffffffffffffffffffffffffffff1673ffffffffffffffffffffffffffffffffffffffff1673ffffffffffffffffffffffffffffffffffffffff16815260200160018201548152602001600282015481526020016003820154815250509050808383815481106121ad576121ac6149ba565b5b906000526020600020906004020160008201518160000160006101000a81548173ffffffffffffffffffffffffffffffffffffffff021916908373ffffffffffffffffffffffffffffffffffffffff1602179055506020820151816001015560408201518160020155606082015181600301559050508280548061223457612233615280565b5b6001900381819060005260206000209060040201600080820160006101000a81549073ffffffffffffffffffffffffffffffffffffffff021916905560018201600090556002820160009055600382016000905550509055505050565b6000670de0b6b3a76400007fffffffffffffffffffffffffffffffffffffffffffffffffffffffffffffffff6122c79190614e7d565b82111561230b57816040517f1cd951a7000000000000000000000000000000000000000000000000000000008152600401612302919061440a565b60405180910390fd5b670de0b6b3a764000082029050919050565b600061234a61234561232e85612d1f565b670de0b6b3a764000061234086612d1f565b612d29565b612e43565b905092915050565b600061235d82612d1f565b61236684612d1f565b1115905092915050565b60006301e133808260a00151600c6123889190614eae565b6123929190614e7d565b9050919050565b6000670de0b6b3a76400007f80000000000000000000000000000000000000000000000000000000000000006123cf91906153f9565b82121561241357816040517f99474eeb00000000000000000000000000000000000000000000000000000000815260040161240a9190615472565b60405180910390fd5b670de0b6b3a76400007f7fffffffffffffffffffffffffffffffffffffffffffffffffffffffffffffff61244791906153f9565b82131561248b57816040517f9d5810910000000000000000000000000000000000000000000000000000000081526004016124829190615472565b60405180910390fd5b670de0b6b3a764000082029050919050565b60006124c36124ab83612e4d565b6124b485612e4d565b6124be919061548d565b612e57565b905092915050565b60006124f16124d983612d1f565b6124e285612d1f565b6124ec91906154d0565b612e43565b905092915050565b6000808290507f7fffffffffffffffffffffffffffffffffffffffffffffffffffffffffffffff81111561256457826040517ff461868400000000000000000000000000000000000000000000000000000000815260040161255b91906144f4565b60405180910390fd5b80915050919050565b60008061257984612e4d565b9050600061258684612e4d565b9050600082036125b2576000811461259f5760006125a9565b670de0b6b3a76400005b92505050612625565b670de0b6b3a764000082036125d357670de0b6b3a764000092505050612625565b600081036125ed57670de0b6b3a764000092505050612625565b670de0b6b3a76400008103612606578492505050612625565b61262061261b61261587612e61565b8661262b565b612ff4565b925050505b92915050565b60008061263784612e4d565b9050600061264484612e4d565b90507f800000000000000000000000000000000000000000000000000000000000000082148061269357507f800000000000000000000000000000000000000000000000000000000000000081145b156126ca576040517fa6070c2500000000000000000000000000000000000000000000000000000000815260040160405180910390fd5b600080600084126126db57836126e0565b836000035b9150600083126126f057826126f5565b826000035b905060006127038383613112565b90507f7fffffffffffffffffffffffffffffffffffffffffffffffffffffffffffffff81111561276c5787876040517f120b5b43000000000000000000000000000000000000000000000000000000008152600401612763929190615535565b60405180910390fd5b60007fffffffffffffffffffffffffffffffffffffffffffffffffffffffffffffffff8587181390506127ad816127a657826000036127a8565b825b612e57565b965050505050505092915050565b600080829050600081121561280757826040517fbba41a150000000000000000000000000000000000000000000000000000000081526004016127fe919061555e565b60405180910390fd5b80915050919050565b6000670de0b6b3a7640000826128269190614e7d565b9050919050565b600061285361283b83612d1f565b61284485612d1f565b61284e9190614d88565b612e43565b905092915050565b6128de846323b872dd60e01b85858560405160240161287c93929190615579565b604051602081830303815290604052907bffffffffffffffffffffffffffffffffffffffffffffffffffffffff19166020820180517bffffffffffffffffffffffffffffffffffffffffffffffffffffffff83818316178352505050506131fc565b50505050565b600080601060008481526020019081526020016000206040518060e00160405290816000820160009054906101000a900473ffffffffffffffffffffffffffffffffffffffff1673ffffffffffffffffffffffffffffffffffffffff1673ffffffffffffffffffffffffffffffffffffffff1681526020016001820154815260200160028201548152602001600382015481526020016004820154815260200160058201548152602001600682015481525050905060006129a4826132c3565b90506000600c6301e133808460a001516129be9190614e7d565b6129c89190614eae565b9050808211156129de57600193505050506129f4565b6129e88383611036565b83608001511193505050505b919050565b600080612a05836132c3565b905060008190505b6000811115612a9d576000612a228583611036565b90506000612a3c86600185612a379190614d88565b611036565b9050818660800151118015612a55575080866080015111155b15612a8857600c6301e13380612a6b9190614e7d565b83612a769190614eae565b8660600151612a8591906154d0565b94505b50508080612a95906155b0565b915050612a0d565b5050919050565b6000808273ffffffffffffffffffffffffffffffffffffffff163b119050919050565b612b488363a9059cbb60e01b8484604051602401612ae69291906155d9565b604051602081830303815290604052907bffffffffffffffffffffffffffffffffffffffffffffffffffffffff19166020820180517bffffffffffffffffffffffffffffffffffffffffffffffffffffffff83818316178352505050506131fc565b505050565b612b55613318565b73ffffffffffffffffffffffffffffffffffffffff16612b73611c89565b73ffffffffffffffffffffffffffffffffffffffff1614612bc9576040517f08c379a0000000000000000000000000000000000000000000000000000000008152600401612bc09061564e565b60405180910390fd5b565b60008060009054906101000a900473ffffffffffffffffffffffffffffffffffffffff169050816000806101000a81548173ffffffffffffffffffffffffffffffffffffffff021916908373ffffffffffffffffffffffffffffffffffffffff1602179055508173ffffffffffffffffffffffffffffffffffffffff168173ffffffffffffffffffffffffffffffffffffffff167f8be0079c531659141344cd1fd0a4f28419497f9722a3daafe3b4186f6b6457e060405160405180910390a35050565b6000612c9e8360000183613320565b60001c905092915050565b6000612cb78260000161334b565b9050919050565b6000612cef612cea612ccf8461335c565b612cdc8560800151612291565b61338c90919063ffffffff16565b612810565b9050919050565b60008151905060006a636f6e736f6c652e6c6f679050602083016000808483855afa5050505050565b6000819050919050565b6000806000801985870985870292508281108382030391505060008103612d6457838281612d5a57612d59614e4e565b5b0492505050612e3c565b838110612dac578585856040517f63a05778000000000000000000000000000000000000000000000000000000008152600401612da39392919061566e565b60405180910390fd5b60008486880990508281118203915080830392506000600186190186169050600081870496508185049450600182836000030401905080840285179450600060028860030218905080880260020381029050808802600203810290508088026002038102905080880260020381029050808802600203810290508088026002038102905080860296505050505050505b9392505050565b6000819050919050565b6000819050919050565b6000819050919050565b600080612e6d83612e4d565b905060008113612eb457826040517f059b101b000000000000000000000000000000000000000000000000000000008152600401612eab919061555e565b60405180910390fd5b6000670de0b6b3a76400008212612ece5760019050612f14565b7fffffffffffffffffffffffffffffffffffffffffffffffffffffffffffffffff9050816ec097ce7bc90715b34b9f100000000081612f1057612f0f614e4e565b5b0591505b6000612f37670de0b6b3a76400008481612f3157612f30614e4e565b5b056133b8565b90506000670de0b6b3a76400008202905060008285901d9050670de0b6b3a76400008103612f7657612f6a848302612e57565b95505050505050612fef565b6000671bc16d674ec80000905060006706f05b59d3b2000090505b6000811315612fd757670de0b6b3a764000083840281612fb457612fb3614e4e565b5b059250818312612fcb578084019350600183901d92505b600181901d9050612f91565b508483029250612fe683612e57565b96505050505050505b919050565b60008061300083612e4d565b90506000811215613087577ffffffffffffffffffffffffffffffffffffffffffffffffcc22e87f6eb468eeb81121561303d57600091505061310d565b61308061305c61305761305284600003612e57565b612ff4565b612e4d565b6ec097ce7bc90715b34b9f10000000008161307a57613079614e4e565b5b05612e57565b915061310b565b680a688906bd8affffff8113156130d557826040517f0360d0280000000000000000000000000000000000000000000000000000000081526004016130cc919061555e565b60405180910390fd5b6000670de0b6b3a7640000604083901b816130f3576130f2614e4e565b5b05905061310761310282613461565b612e57565b9250505b505b919050565b600080600080198486098486029250828110838203039150506000810361315557670de0b6b3a7640000828161314b5761314a614e4e565b5b04925050506131f6565b670de0b6b3a764000081106131a35784846040517f5173648d00000000000000000000000000000000000000000000000000000000815260040161319a929190614a66565b60405180910390fd5b6000670de0b6b3a764000085870990507faccb18165bd6fe31ae1cf318dc5b51eee0e1ba569b88cd74c1773b91fac106696001620400008060000304018483118403026204000083860304170293505050505b92915050565b600061325e826040518060400160405280602081526020017f5361666545524332303a206c6f772d6c6576656c2063616c6c206661696c65648152508573ffffffffffffffffffffffffffffffffffffffff16613dc19092919063ffffffff16565b90506000815111156132be578080602001905181019061327e9190614f1c565b6132bd576040517f08c379a00000000000000000000000000000000000000000000000000000000081526004016132b490615717565b60405180910390fd5b5b505050565b600080600c6301e133806132d79190614e7d565b8360600151426132e79190614d88565b6132f19190614e7d565b905060006132fe84612370565b905080821161330d578161330f565b805b92505050919050565b600033905090565b6000826000018281548110613338576133376149ba565b5b9060005260206000200154905092915050565b600081600001805490509050919050565b600061338561337261336d84613dd9565b612291565b836020015161338c90919063ffffffff16565b9050919050565b60006133b06133ab61339d85612d1f565b6133a685612d1f565b613112565b612e43565b905092915050565b60006fffffffffffffffffffffffffffffffff821160071b82811c925080821791505067ffffffffffffffff821160061b82811c925080821791505063ffffffff821160051b82811c925080821791505061ffff821160041b82811c925080821791505060ff821160031b82811c9250808217915050600f821160021b82811c92508082179150506003821160011b82811c925080821791505060018211808217915050919050565b6000778000000000000000000000000000000000000000000000009050600067ff00000000000000831611156135c2576000678000000000000000831611156134b757604068016a09e667f3bcc9098202901c90505b6000674000000000000000831611156134dd5760406801306fe0a31b7152df8202901c90505b6000672000000000000000831611156135035760406801172b83c7d517adce8202901c90505b60006710000000000000008316111561352957604068010b5586cf9890f62a8202901c90505b60006708000000000000008316111561354f5760406801059b0d31585743ae8202901c90505b600067040000000000000083161115613575576040680102c9a3e778060ee78202901c90505b60006702000000000000008316111561359b57604068010163da9fb33356d88202901c90505b6000670100000000000000831611156135c1576040680100b1afa5abcbed618202901c90505b5b600066ff000000000000831611156136fd5760006680000000000000831611156135f957604068010058c86da1c09ea28202901c90505b600066400000000000008316111561361e5760406801002c605e2e8cec508202901c90505b6000662000000000000083161115613643576040680100162f3904051fa18202901c90505b60006610000000000000831611156136685760406801000b175effdc76ba8202901c90505b600066080000000000008316111561368d576040680100058ba01fb9f96d8202901c90505b60006604000000000000831611156136b257604068010002c5cc37da94928202901c90505b60006602000000000000831611156136d75760406801000162e525ee05478202901c90505b60006601000000000000831611156136fc57604068010000b17255775c048202901c90505b5b600065ff00000000008316111561382f57600065800000000000831611156137325760406801000058b91b5bc9ae8202901c90505b60006540000000000083161115613756576040680100002c5c89d5ec6d8202901c90505b6000652000000000008316111561377a57604068010000162e43f4f8318202901c90505b6000651000000000008316111561379e576040680100000b1721bcfc9a8202901c90505b600065080000000000831611156137c257604068010000058b90cf1e6e8202901c90505b600065040000000000831611156137e65760406801000002c5c863b73f8202901c90505b6000650200000000008316111561380a576040680100000162e430e5a28202901c90505b6000650100000000008316111561382e5760406801000000b1721835518202901c90505b5b600064ff000000008316111561395857600064800000000083161115613862576040680100000058b90c0b498202901c90505b60006440000000008316111561388557604068010000002c5c8601cc8202901c90505b6000642000000000831611156138a85760406801000000162e42fff08202901c90505b6000641000000000831611156138cb57604068010000000b17217fbb8202901c90505b6000640800000000831611156138ee5760406801000000058b90bfce8202901c90505b600064040000000083161115613911576040680100000002c5c85fe38202901c90505b60006402000000008316111561393457604068010000000162e42ff18202901c90505b600064010000000083161115613957576040680100000000b17217f88202901c90505b5b600063ff00000083161115613a7857600063800000008316111561398957604068010000000058b90bfc8202901c90505b60006340000000831611156139ab5760406801000000002c5c85fe8202901c90505b60006320000000831611156139cd576040680100000000162e42ff8202901c90505b60006310000000831611156139ef5760406801000000000b17217f8202901c90505b6000630800000083161115613a11576040680100000000058b90c08202901c90505b6000630400000083161115613a3357604068010000000002c5c8608202901c90505b6000630200000083161115613a555760406801000000000162e4308202901c90505b6000630100000083161115613a7757604068010000000000b172188202901c90505b5b600062ff000083161115613b8f5760006280000083161115613aa75760406801000000000058b90c8202901c90505b60006240000083161115613ac8576040680100000000002c5c868202901c90505b60006220000083161115613ae957604068010000000000162e438202901c90505b60006210000083161115613b0a576040680100000000000b17218202901c90505b60006208000083161115613b2b57604068010000000000058b918202901c90505b60006204000083161115613b4c5760406801000000000002c5c88202901c90505b60006202000083161115613b6d576040680100000000000162e48202901c90505b60006201000083161115613b8e5760406801000000000000b1728202901c90505b5b600061ff0083161115613c9d57600061800083161115613bbc576040680100000000000058b98202901c90505b600061400083161115613bdc57604068010000000000002c5d8202901c90505b600061200083161115613bfc5760406801000000000000162e8202901c90505b600061100083161115613c1c57604068010000000000000b178202901c90505b600061080083161115613c3c5760406801000000000000058c8202901c90505b600061040083161115613c5c576040680100000000000002c68202901c90505b600061020083161115613c7c576040680100000000000001638202901c90505b600061010083161115613c9c576040680100000000000000b18202901c90505b5b600060ff83161115613da2576000608083161115613cc8576040680100000000000000598202901c90505b6000604083161115613ce75760406801000000000000002c8202901c90505b6000602083161115613d06576040680100000000000000168202901c90505b6000601083161115613d255760406801000000000000000b8202901c90505b6000600883161115613d44576040680100000000000000068202901c90505b6000600483161115613d63576040680100000000000000038202901c90505b6000600283161115613d82576040680100000000000000018202901c90505b6000600183161115613da1576040680100000000000000018202901c90505b5b670de0b6b3a764000081029050604082901c60bf0381901c9050919050565b6060613dd08484600085613df2565b90509392505050565b60008160c0015142613deb9190614d88565b9050919050565b606082471015613e37576040517f08c379a0000000000000000000000000000000000000000000000000000000008152600401613e2e906157a9565b60405180910390fd5b6000808673ffffffffffffffffffffffffffffffffffffffff168587604051613e609190614b00565b60006040518083038185875af1925050503d8060008114613e9d576040519150601f19603f3d011682016040523d82523d6000602084013e613ea2565b606091505b5091509150613eb387838387613ebf565b92505050949350505050565b60608315613f21576000835103613f1957613ed985612aa4565b613f18576040517f08c379a0000000000000000000000000000000000000000000000000000000008152600401613f0f90615815565b60405180910390fd5b5b829050613f2c565b613f2b8383613f34565b5b949350505050565b600082511115613f475781518083602001fd5b806040517f08c379a0000000000000000000000000000000000000000000000000000000008152600401613f7b91906153cd565b60405180910390fd5b6040518060e00160405280600073ffffffffffffffffffffffffffffffffffffffff1681526020016000815260200160008152602001600081526020016000815260200160008152602001600081525090565b6000604051905090565b600080fd5b600080fd5b6000819050919050565b613ffe81613feb565b811461400957600080fd5b50565b60008135905061401b81613ff5565b92915050565b6000806040838503121561403857614037613fe1565b5b60006140468582860161400c565b92505060206140578582860161400c565b9150509250929050565b600080fd5b6000601f19601f8301169050919050565b7f4e487b7100000000000000000000000000000000000000000000000000000000600052604160045260246000fd5b6140af82614066565b810181811067ffffffffffffffff821117156140ce576140cd614077565b5b80604052505050565b60006140e1613fd7565b90506140ed82826140a6565b919050565b600073ffffffffffffffffffffffffffffffffffffffff82169050919050565b600061411d826140f2565b9050919050565b61412d81614112565b811461413857600080fd5b50565b60008135905061414a81614124565b92915050565b60006080828403121561416657614165614061565b5b61417060806140d7565b905060006141808482850161413b565b60008301525060206141948482850161400c565b60208301525060406141a88482850161400c565b60408301525060606141bc8482850161400c565b60608301525092915050565b6000608082840312156141de576141dd613fe1565b5b60006141ec84828501614150565b91505092915050565b60008115159050919050565b61420a816141f5565b82525050565b60006020820190506142256000830184614201565b92915050565b60007fffffffff0000000000000000000000000000000000000000000000000000000082169050919050565b6142608161422b565b811461426b57600080fd5b50565b60008135905061427d81614257565b92915050565b60006020828403121561429957614298613fe1565b5b60006142a78482850161426e565b91505092915050565b6142b981614112565b82525050565b60006020820190506142d460008301846142b0565b92915050565b6142e381613feb565b81146142ee57600080fd5b50565b600081359050614300816142da565b92915050565b600060e0828403121561431c5761431b614061565b5b61432660e06140d7565b905060006143368482850161413b565b600083015250602061434a848285016142f1565b602083015250604061435e848285016142f1565b60408301525060606143728482850161400c565b60608301525060806143868482850161400c565b60808301525060a061439a8482850161400c565b60a08301525060c06143ae8482850161400c565b60c08301525092915050565b60008061010083850312156143d2576143d1613fe1565b5b60006143e085828601614306565b92505060e06143f18582860161400c565b9150509250929050565b61440481613feb565b82525050565b600060208201905061441f60008301846143fb565b92915050565b60006020828403121561443b5761443a613fe1565b5b60006144498482850161400c565b91505092915050565b6000806000806080858703121561446c5761446b613fe1565b5b600061447a8782880161400c565b945050602061448b8782880161400c565b935050604061449c8782880161400c565b92505060606144ad8782880161400c565b91505092959194509250565b6000819050919050565b60006144de6144d96144d484613feb565b6144b9565b613feb565b9050919050565b6144ee816144c3565b82525050565b600060208201905061450960008301846144e5565b92915050565b7f4e487b7100000000000000000000000000000000000000000000000000000000600052602160045260246000fd5b6004811061454f5761454e61450f565b5b50565b60008190506145608261453e565b919050565b600061457082614552565b9050919050565b61458081614565565b82525050565b600060208201905061459b6000830184614577565b92915050565b600081519050919050565b600082825260208201905092915050565b6000819050602082019050919050565b6145d681614112565b82525050565b6145e581613feb565b82525050565b60808201600082015161460160008501826145cd565b50602082015161461460208501826145dc565b50604082015161462760408501826145dc565b50606082015161463a60608501826145dc565b50505050565b600061464c83836145eb565b60808301905092915050565b6000602082019050919050565b6000614670826145a1565b61467a81856145ac565b9350614685836145bd565b8060005b838110156146b657815161469d8882614640565b97506146a883614658565b925050600181019050614689565b5085935050505092915050565b600060208201905081810360008301526146dd8184614665565b905092915050565b60006146f082614112565b9050919050565b614700816146e5565b811461470b57600080fd5b50565b60008135905061471d816146f7565b92915050565b600061472e82614112565b9050919050565b61473e81614723565b811461474957600080fd5b50565b60008135905061475b81614735565b92915050565b6000806040838503121561477857614777613fe1565b5b60006147868582860161470e565b92505060206147978582860161474c565b9150509250929050565b600060e0820190506147b6600083018a6142b0565b6147c360208301896144e5565b6147d060408301886144e5565b6147dd60608301876143fb565b6147ea60808301866143fb565b6147f760a08301856143fb565b61480460c08301846143fb565b98975050505050505050565b614819816144c3565b82525050565b60e08201600082015161483560008501826145cd565b5060208201516148486020850182614810565b50604082015161485b6040850182614810565b50606082015161486e60608501826145dc565b50608082015161488160808501826145dc565b5060a082015161489460a08501826145dc565b5060c08201516148a760c08501826145dc565b50505050565b600060e0820190506148c2600083018461481f565b92915050565b600080fd5b600080fd5b600080fd5b60008083601f8401126148ed576148ec6148c8565b5b8235905067ffffffffffffffff81111561490a576149096148cd565b5b602083019150836020820283011115614926576149256148d2565b5b9250929050565b60008060006040848603121561494657614945613fe1565b5b600084013567ffffffffffffffff81111561496457614963613fe6565b5b614970868287016148d7565b935093505060206149838682870161413b565b9150509250925092565b6000602082840312156149a3576149a2613fe1565b5b60006149b18482850161413b565b91505092915050565b7f4e487b7100000000000000000000000000000000000000000000000000000000600052603260045260246000fd5b600082825260208201905092915050565b7f626964206e6f7420616374696f6e61626c650000000000000000000000000000600082015250565b6000614a306012836149e9565b9150614a3b826149fa565b602082019050919050565b60006020820190508181036000830152614a5f81614a23565b9050919050565b6000604082019050614a7b60008301856143fb565b614a8860208301846143fb565b9392505050565b600081519050919050565b600081905092915050565b60005b83811015614ac3578082015181840152602081019050614aa8565b60008484015250505050565b6000614ada82614a8f565b614ae48185614a9a565b9350614af4818560208601614aa5565b80840191505092915050565b6000614b0c8284614acf565b915081905092915050565b7f6163636570744e6f6e6542696428292063616c6c206661696c65640000000000600082015250565b6000614b4d601b836149e9565b9150614b5882614b17565b602082019050919050565b60006020820190508181036000830152614b7c81614b40565b9050919050565b7f6163636570744d6f72746761676542696428292063616c6c206661696c656400600082015250565b6000614bb9601f836149e9565b9150614bc482614b83565b602082019050919050565b60006020820190508181036000830152614be881614bac565b9050919050565b7f61636365707444656661756c7442696428292063616c6c206661696c65640000600082015250565b6000614c25601e836149e9565b9150614c3082614bef565b602082019050919050565b60006020820190508181036000830152614c5481614c18565b9050919050565b7f616363657074466f7265636c6f73757261626c6542696428292063616c6c206660008201527f61696c6564000000000000000000000000000000000000000000000000000000602082015250565b6000614cb76025836149e9565b9150614cc282614c5b565b604082019050919050565b60006020820190508181036000830152614ce681614caa565b9050919050565b7f696e76616c696420737461747573000000000000000000000000000000000000600082015250565b6000614d23600e836149e9565b9150614d2e82614ced565b602082019050919050565b60006020820190508181036000830152614d5281614d16565b9050919050565b7f4e487b7100000000000000000000000000000000000000000000000000000000600052601160045260246000fd5b6000614d9382613feb565b9150614d9e83613feb565b9250828203905081811115614db657614db5614d59565b5b92915050565b7f6d6f6e7468206d757374206265203c3d206c6f616e4d61784475726174696f6e60008201527f4d6f6e7468730000000000000000000000000000000000000000000000000000602082015250565b6000614e186026836149e9565b9150614e2382614dbc565b604082019050919050565b60006020820190508181036000830152614e4781614e0b565b9050919050565b7f4e487b7100000000000000000000000000000000000000000000000000000000600052601260045260246000fd5b6000614e8882613feb565b9150614e9383613feb565b925082614ea357614ea2614e4e565b5b828204905092915050565b6000614eb982613feb565b9150614ec483613feb565b9250828202614ed281613feb565b91508282048414831517614ee957614ee8614d59565b5b5092915050565b614ef9816141f5565b8114614f0457600080fd5b50565b600081519050614f1681614ef0565b92915050565b600060208284031215614f3257614f31613fe1565b5b6000614f4084828501614f07565b91505092915050565b7f6f6e6c7920655265736964656e74732063616e20626964000000000000000000600082015250565b6000614f7f6017836149e9565b9150614f8a82614f49565b602082019050919050565b60006020820190508181036000830152614fae81614f72565b9050919050565b7f646f776e5061796d656e742063616e6e6f74206578636565642070726f70657260008201527f747956616c756500000000000000000000000000000000000000000000000000602082015250565b60006150116027836149e9565b915061501c82614fb5565b604082019050919050565b6000602082019050818103600083015261504081615004565b9050919050565b7f756e616c6c6f776564206d61784475726174696f6e4d6f6e7468730000000000600082015250565b600061507d601b836149e9565b915061508882615047565b602082019050919050565b600060208201905081810360008301526150ac81615070565b9050919050565b7f6c74762063616e6e6f7420657863656564206d61784c74760000000000000000600082015250565b60006150e96018836149e9565b91506150f4826150b3565b602082019050919050565b60006020820190508181036000830152615118816150dc565b9050919050565b7f496e697469616c697a61626c653a20636f6e747261637420697320616c72656160008201527f647920696e697469616c697a6564000000000000000000000000000000000000602082015250565b600061517b602e836149e9565b91506151868261511f565b604082019050919050565b600060208201905081810360008301526151aa8161516e565b9050919050565b6000819050919050565b600060ff82169050919050565b60006151e36151de6151d9846151b1565b6144b9565b6151bb565b9050919050565b6151f3816151c8565b82525050565b600060208201905061520e60008301846151ea565b92915050565b7f6f6e6c79206269646465722063616e2072656d6f766520686973206269640000600082015250565b600061524a601e836149e9565b915061525582615214565b602082019050919050565b600060208201905081810360008301526152798161523d565b9050919050565b7f4e487b7100000000000000000000000000000000000000000000000000000000600052603160045260246000fd5b60006152ba82613feb565b91507fffffffffffffffffffffffffffffffffffffffffffffffffffffffffffffffff82036152ec576152eb614d59565b5b600182019050919050565b7f4f776e61626c653a206e6577206f776e657220697320746865207a65726f206160008201527f6464726573730000000000000000000000000000000000000000000000000000602082015250565b60006153536026836149e9565b915061535e826152f7565b604082019050919050565b6000602082019050818103600083015261538281615346565b9050919050565b600081519050919050565b600061539f82615389565b6153a981856149e9565b93506153b9818560208601614aa5565b6153c281614066565b840191505092915050565b600060208201905081810360008301526153e78184615394565b905092915050565b6000819050919050565b6000615404826153ef565b915061540f836153ef565b92508261541f5761541e614e4e565b5b600160000383147f80000000000000000000000000000000000000000000000000000000000000008314161561545857615457614d59565b5b828205905092915050565b61546c816153ef565b82525050565b60006020820190506154876000830184615463565b92915050565b6000615498826153ef565b91506154a3836153ef565b92508282039050818112600084121682821360008512151617156154ca576154c9614d59565b5b92915050565b60006154db82613feb565b91506154e683613feb565b92508282019050808211156154fe576154fd614d59565b5b92915050565b600061551f61551a615515846153ef565b6144b9565b6153ef565b9050919050565b61552f81615504565b82525050565b600060408201905061554a6000830185615526565b6155576020830184615526565b9392505050565b60006020820190506155736000830184615526565b92915050565b600060608201905061558e60008301866142b0565b61559b60208301856142b0565b6155a860408301846143fb565b949350505050565b60006155bb82613feb565b9150600082036155ce576155cd614d59565b5b600182039050919050565b60006040820190506155ee60008301856142b0565b6155fb60208301846143fb565b9392505050565b7f4f776e61626c653a2063616c6c6572206973206e6f7420746865206f776e6572600082015250565b60006156386020836149e9565b915061564382615602565b602082019050919050565b600060208201905081810360008301526156678161562b565b9050919050565b600060608201905061568360008301866143fb565b61569060208301856143fb565b61569d60408301846143fb565b949350505050565b7f5361666545524332303a204552433230206f7065726174696f6e20646964206e60008201527f6f74207375636365656400000000000000000000000000000000000000000000602082015250565b6000615701602a836149e9565b915061570c826156a5565b604082019050919050565b60006020820190508181036000830152615730816156f4565b9050919050565b7f416464726573733a20696e73756666696369656e742062616c616e636520666f60008201527f722063616c6c0000000000000000000000000000000000000000000000000000602082015250565b60006157936026836149e9565b915061579e82615737565b604082019050919050565b600060208201905081810360008301526157c281615786565b9050919050565b7f416464726573733a2063616c6c20746f206e6f6e2d636f6e7472616374000000600082015250565b60006157ff601d836149e9565b915061580a826157c9565b602082019050919050565b6000602082019050818103600083015261582e816157f2565b905091905056fea26469706673582212203fed5c6e57ad0341ee2bf6bbc471b256c6d15f8f02801f22447a61210158513464736f6c63430008130033",
  "linkReferences": {},
  "deployedLinkReferences": {}
}