{
  "_format": "hh-sol-artifact-1",
  "contractName": "Auctions",
  "sourceName": "contracts/protocol/auctions/Auctions.sol",
  "abi": [
    {
      "inputs": [
        {
          "internalType": "uint256",
          "name": "x",
          "type": "uint256"
        },
        {
          "internalType": "uint256",
          "name": "y",
          "type": "uint256"
        }
      ],
      "name": "PRBMath_MulDiv18_Overflow",
      "type": "error"
    },
    {
      "inputs": [
        {
          "internalType": "uint256",
          "name": "x",
          "type": "uint256"
        },
        {
          "internalType": "uint256",
          "name": "y",
          "type": "uint256"
        },
        {
          "internalType": "uint256",
          "name": "denominator",
          "type": "uint256"
        }
      ],
      "name": "PRBMath_MulDiv_Overflow",
      "type": "error"
    },
    {
      "inputs": [
        {
          "internalType": "int256",
          "name": "x",
          "type": "int256"
        }
      ],
      "name": "PRBMath_SD59x18_Convert_Overflow",
      "type": "error"
    },
    {
      "inputs": [
        {
          "internalType": "int256",
          "name": "x",
          "type": "int256"
        }
      ],
      "name": "PRBMath_SD59x18_Convert_Underflow",
      "type": "error"
    },
    {
      "inputs": [
        {
          "internalType": "SD59x18",
          "name": "x",
          "type": "int256"
        }
      ],
      "name": "PRBMath_SD59x18_Exp2_InputTooBig",
      "type": "error"
    },
    {
      "inputs": [
        {
          "internalType": "SD59x18",
          "name": "x",
          "type": "int256"
        }
      ],
      "name": "PRBMath_SD59x18_IntoUD60x18_Underflow",
      "type": "error"
    },
    {
      "inputs": [
        {
          "internalType": "SD59x18",
          "name": "x",
          "type": "int256"
        }
      ],
      "name": "PRBMath_SD59x18_Log_InputTooSmall",
      "type": "error"
    },
    {
      "inputs": [],
      "name": "PRBMath_SD59x18_Mul_InputTooSmall",
      "type": "error"
    },
    {
      "inputs": [
        {
          "internalType": "SD59x18",
          "name": "x",
          "type": "int256"
        },
        {
          "internalType": "SD59x18",
          "name": "y",
          "type": "int256"
        }
      ],
      "name": "PRBMath_SD59x18_Mul_Overflow",
      "type": "error"
    },
    {
      "inputs": [
        {
          "internalType": "uint256",
          "name": "x",
          "type": "uint256"
        }
      ],
      "name": "PRBMath_UD60x18_Convert_Overflow",
      "type": "error"
    },
    {
      "inputs": [
        {
          "internalType": "UD60x18",
          "name": "x",
          "type": "uint256"
        }
      ],
      "name": "PRBMath_UD60x18_IntoSD59x18_Overflow",
      "type": "error"
    },
    {
      "anonymous": false,
      "inputs": [
        {
          "indexed": false,
          "internalType": "uint8",
          "name": "version",
          "type": "uint8"
        }
      ],
      "name": "Initialized",
      "type": "event"
    },
    {
      "anonymous": false,
      "inputs": [
        {
          "indexed": true,
          "internalType": "address",
          "name": "previousOwner",
          "type": "address"
        },
        {
          "indexed": true,
          "internalType": "address",
          "name": "newOwner",
          "type": "address"
        }
      ],
      "name": "OwnershipTransferred",
      "type": "event"
    },
    {
      "inputs": [
        {
          "internalType": "uint256",
          "name": "",
          "type": "uint256"
        }
      ],
      "name": "_loans",
      "outputs": [
        {
          "internalType": "address",
          "name": "borrower",
          "type": "address"
        },
        {
          "internalType": "UD60x18",
          "name": "ratePerSecond",
          "type": "uint256"
        },
        {
          "internalType": "UD60x18",
          "name": "paymentPerSecond",
          "type": "uint256"
        },
        {
          "internalType": "uint256",
          "name": "startTime",
          "type": "uint256"
        },
        {
          "internalType": "uint256",
          "name": "unpaidPrincipal",
          "type": "uint256"
        },
        {
          "internalType": "uint256",
          "name": "maxDurationSeconds",
          "type": "uint256"
        },
        {
          "internalType": "uint256",
          "name": "lastPaymentTime",
          "type": "uint256"
        }
      ],
      "stateMutability": "view",
      "type": "function"
    },
    {
      "inputs": [
        {
          "internalType": "uint256",
          "name": "tokenId",
          "type": "uint256"
        },
        {
          "internalType": "uint256",
          "name": "bidIdx",
          "type": "uint256"
        }
      ],
      "name": "acceptBid",
      "outputs": [],
      "stateMutability": "nonpayable",
      "type": "function"
    },
    {
      "inputs": [
        {
          "internalType": "uint256",
          "name": "tokenId",
          "type": "uint256"
        }
      ],
      "name": "accruedInterest",
      "outputs": [
        {
          "internalType": "uint256",
          "name": "",
          "type": "uint256"
        }
      ],
      "stateMutability": "view",
      "type": "function"
    },
    {
      "inputs": [],
      "name": "availableLiquidity",
      "outputs": [
        {
          "internalType": "uint256",
          "name": "",
          "type": "uint256"
        }
      ],
      "stateMutability": "view",
      "type": "function"
    },
    {
      "inputs": [
        {
          "internalType": "uint256",
          "name": "tokenId",
          "type": "uint256"
        },
        {
          "internalType": "uint256",
          "name": "propertyValue",
          "type": "uint256"
        },
        {
          "internalType": "uint256",
          "name": "downPayment",
          "type": "uint256"
        },
        {
          "internalType": "uint256",
          "name": "maxDurationMonths",
          "type": "uint256"
        }
      ],
      "name": "bid",
      "outputs": [],
      "stateMutability": "nonpayable",
      "type": "function"
    },
    {
      "inputs": [
        {
          "components": [
            {
              "internalType": "address",
              "name": "bidder",
              "type": "address"
            },
            {
              "internalType": "uint256",
              "name": "propertyValue",
              "type": "uint256"
            },
            {
              "internalType": "uint256",
              "name": "downPayment",
              "type": "uint256"
            },
            {
              "internalType": "uint256",
              "name": "maxDurationMonths",
              "type": "uint256"
            }
          ],
          "internalType": "struct IState.Bid",
          "name": "bid",
          "type": "tuple"
        }
      ],
      "name": "bidActionable",
      "outputs": [
        {
          "internalType": "bool",
          "name": "",
          "type": "bool"
        }
      ],
      "stateMutability": "view",
      "type": "function"
    },
    {
      "inputs": [
        {
          "internalType": "uint256",
          "name": "tokenId",
          "type": "uint256"
        }
      ],
      "name": "bids",
      "outputs": [
        {
          "components": [
            {
              "internalType": "address",
              "name": "bidder",
              "type": "address"
            },
            {
              "internalType": "uint256",
              "name": "propertyValue",
              "type": "uint256"
            },
            {
              "internalType": "uint256",
              "name": "downPayment",
              "type": "uint256"
            },
            {
              "internalType": "uint256",
              "name": "maxDurationMonths",
              "type": "uint256"
            }
          ],
          "internalType": "struct IState.Bid[]",
          "name": "",
          "type": "tuple[]"
        }
      ],
      "stateMutability": "view",
      "type": "function"
    },
    {
      "inputs": [
        {
          "internalType": "uint256",
          "name": "tokenId",
          "type": "uint256"
        },
        {
          "internalType": "uint256",
          "name": "bidIdx",
          "type": "uint256"
        }
      ],
      "name": "cancelBid",
      "outputs": [],
      "stateMutability": "nonpayable",
      "type": "function"
    },
    {
      "inputs": [],
      "name": "defaultFeeSpread",
      "outputs": [
        {
          "internalType": "UD60x18",
          "name": "",
          "type": "uint256"
        }
      ],
      "stateMutability": "view",
      "type": "function"
    },
    {
      "inputs": [
        {
          "internalType": "contract IERC20",
          "name": "_USDC",
          "type": "address"
        },
        {
          "internalType": "contract tUsdc",
          "name": "_tUSDC",
          "type": "address"
        },
        {
          "internalType": "contract TangibleNft",
          "name": "_prosperaNftContract",
          "type": "address"
        }
      ],
      "name": "initialize",
      "outputs": [],
      "stateMutability": "nonpayable",
      "type": "function"
    },
    {
      "inputs": [
        {
          "components": [
            {
              "internalType": "address",
              "name": "bidder",
              "type": "address"
            },
            {
              "internalType": "uint256",
              "name": "propertyValue",
              "type": "uint256"
            },
            {
              "internalType": "uint256",
              "name": "downPayment",
              "type": "uint256"
            },
            {
              "internalType": "uint256",
              "name": "maxDurationMonths",
              "type": "uint256"
            }
          ],
          "internalType": "struct IState.Bid",
          "name": "_bid",
          "type": "tuple"
        }
      ],
      "name": "loanBidActionable",
      "outputs": [
        {
          "internalType": "bool",
          "name": "",
          "type": "bool"
        }
      ],
      "stateMutability": "view",
      "type": "function"
    },
    {
      "inputs": [
        {
          "internalType": "uint256",
          "name": "tokenId",
          "type": "uint256"
        }
      ],
      "name": "loans",
      "outputs": [
        {
          "components": [
            {
              "internalType": "address",
              "name": "borrower",
              "type": "address"
            },
            {
              "internalType": "UD60x18",
              "name": "ratePerSecond",
              "type": "uint256"
            },
            {
              "internalType": "UD60x18",
              "name": "paymentPerSecond",
              "type": "uint256"
            },
            {
              "internalType": "uint256",
              "name": "startTime",
              "type": "uint256"
            },
            {
              "internalType": "uint256",
              "name": "unpaidPrincipal",
              "type": "uint256"
            },
            {
              "internalType": "uint256",
              "name": "maxDurationSeconds",
              "type": "uint256"
            },
            {
              "internalType": "uint256",
              "name": "lastPaymentTime",
              "type": "uint256"
            }
          ],
          "internalType": "struct IState.Loan",
          "name": "",
          "type": "tuple"
        }
      ],
      "stateMutability": "view",
      "type": "function"
    },
    {
      "inputs": [
        {
          "internalType": "uint256",
          "name": "idx",
          "type": "uint256"
        }
      ],
      "name": "loansTokenIdsAt",
      "outputs": [
        {
          "internalType": "uint256",
          "name": "tokenId",
          "type": "uint256"
        }
      ],
      "stateMutability": "view",
      "type": "function"
    },
    {
      "inputs": [],
      "name": "loansTokenIdsLength",
      "outputs": [
        {
          "internalType": "uint256",
          "name": "",
          "type": "uint256"
        }
      ],
      "stateMutability": "view",
      "type": "function"
    },
    {
      "inputs": [
        {
          "internalType": "bytes4",
          "name": "",
          "type": "bytes4"
        }
      ],
      "name": "logicTargets",
      "outputs": [
        {
          "internalType": "address",
          "name": "",
          "type": "address"
        }
      ],
      "stateMutability": "view",
      "type": "function"
    },
    {
      "inputs": [],
      "name": "maxDurationMonthsCap",
      "outputs": [
        {
          "internalType": "uint256",
          "name": "",
          "type": "uint256"
        }
      ],
      "stateMutability": "view",
      "type": "function"
    },
    {
      "inputs": [],
      "name": "maxLtv",
      "outputs": [
        {
          "internalType": "UD60x18",
          "name": "",
          "type": "uint256"
        }
      ],
      "stateMutability": "view",
      "type": "function"
    },
    {
      "inputs": [],
      "name": "monthSeconds",
      "outputs": [
        {
          "internalType": "uint256",
          "name": "",
          "type": "uint256"
        }
      ],
      "stateMutability": "view",
      "type": "function"
    },
    {
      "inputs": [],
      "name": "optimalUtilization",
      "outputs": [
        {
          "internalType": "UD60x18",
          "name": "",
          "type": "uint256"
        }
      ],
      "stateMutability": "view",
      "type": "function"
    },
    {
      "inputs": [],
      "name": "owner",
      "outputs": [
        {
          "internalType": "address",
          "name": "",
          "type": "address"
        }
      ],
      "stateMutability": "view",
      "type": "function"
    },
    {
      "inputs": [
        {
          "components": [
            {
              "internalType": "address",
              "name": "borrower",
              "type": "address"
            },
            {
              "internalType": "UD60x18",
              "name": "ratePerSecond",
              "type": "uint256"
            },
            {
              "internalType": "UD60x18",
              "name": "paymentPerSecond",
              "type": "uint256"
            },
            {
              "internalType": "uint256",
              "name": "startTime",
              "type": "uint256"
            },
            {
              "internalType": "uint256",
              "name": "unpaidPrincipal",
              "type": "uint256"
            },
            {
              "internalType": "uint256",
              "name": "maxDurationSeconds",
              "type": "uint256"
            },
            {
              "internalType": "uint256",
              "name": "lastPaymentTime",
              "type": "uint256"
            }
          ],
          "internalType": "struct IState.Loan",
          "name": "loan",
          "type": "tuple"
        },
        {
          "internalType": "uint256",
          "name": "month",
          "type": "uint256"
        }
      ],
      "name": "principalCap",
      "outputs": [
        {
          "internalType": "uint256",
          "name": "cap",
          "type": "uint256"
        }
      ],
      "stateMutability": "pure",
      "type": "function"
    },
    {
      "inputs": [],
      "name": "redemptionFeeSpread",
      "outputs": [
        {
          "internalType": "UD60x18",
          "name": "",
          "type": "uint256"
        }
      ],
      "stateMutability": "view",
      "type": "function"
    },
    {
      "inputs": [],
      "name": "renounceOwnership",
      "outputs": [],
      "stateMutability": "nonpayable",
      "type": "function"
    },
    {
      "inputs": [
        {
          "internalType": "bytes4[]",
          "name": "selectorsArr",
          "type": "bytes4[]"
        },
        {
          "internalType": "address",
          "name": "target",
          "type": "address"
        }
      ],
      "name": "setSelectorsTarget",
      "outputs": [],
      "stateMutability": "nonpayable",
      "type": "function"
    },
    {
      "inputs": [
        {
          "internalType": "uint256",
          "name": "tokenId",
          "type": "uint256"
        }
      ],
      "name": "status",
      "outputs": [
        {
          "internalType": "enum IState.Status",
          "name": "",
          "type": "uint8"
        }
      ],
      "stateMutability": "view",
      "type": "function"
    },
    {
      "inputs": [
        {
          "internalType": "uint256",
          "name": "tokenId",
          "type": "uint256"
        }
      ],
      "name": "tokenIdBidsLength",
      "outputs": [
        {
          "internalType": "uint256",
          "name": "",
          "type": "uint256"
        }
      ],
      "stateMutability": "view",
      "type": "function"
    },
    {
      "inputs": [],
      "name": "totalDeposits",
      "outputs": [
        {
          "internalType": "uint256",
          "name": "",
          "type": "uint256"
        }
      ],
      "stateMutability": "view",
      "type": "function"
    },
    {
      "inputs": [],
      "name": "totalPrincipal",
      "outputs": [
        {
          "internalType": "uint256",
          "name": "",
          "type": "uint256"
        }
      ],
      "stateMutability": "view",
      "type": "function"
    },
    {
      "inputs": [
        {
          "internalType": "address",
          "name": "newOwner",
          "type": "address"
        }
      ],
      "name": "transferOwnership",
      "outputs": [],
      "stateMutability": "nonpayable",
      "type": "function"
    },
    {
      "inputs": [],
      "name": "yearMonths",
      "outputs": [
        {
          "internalType": "uint256",
          "name": "",
          "type": "uint256"
        }
      ],
      "stateMutability": "view",
      "type": "function"
    },
    {
      "inputs": [],
      "name": "yearSeconds",
      "outputs": [
        {
          "internalType": "uint256",
          "name": "",
          "type": "uint256"
        }
      ],
      "stateMutability": "view",
      "type": "function"
    }
  ],
  "bytecode": "0x60806040526200003b6200001a60646200022960201b60201c565b6200002c605a6200022960201b60201c565b620002ba60201b90919060201c565b600755620000756200005460646200022960201b60201c565b6200006660046200022960201b60201c565b620002ba60201b90919060201c565b600855620000af6200008e60646200022960201b60201c565b620000a060036200022960201b60201c565b620002ba60201b90919060201c565b600955620000c460096200022960201b60201c565b600a55620000fe620000dd60646200022960201b60201c565b620000ef60016200022960201b60201c565b620002ba60201b90919060201c565b600b55620001386200011760646200022960201b60201c565b6200012960026200022960201b60201c565b620002ba60201b90919060201c565b600c55620001726200015160646200022960201b60201c565b6200016360036200022960201b60201c565b620002ba60201b90919060201c565b600d55620001ac6200018b60646200022960201b60201c565b6200019d60046200022960201b60201c565b620002ba60201b90919060201c565b600e55623b5380601455620001ed620001cc60646200022960201b60201c565b620001de60326200022960201b60201c565b620002ba60201b90919060201c565b60155560786016553480156200020257600080fd5b5062000223620002176200030f60201b60201c565b6200031760201b60201c565b620005ed565b6000670de0b6b3a76400007fffffffffffffffffffffffffffffffffffffffffffffffffffffffffffffffff6200026191906200054a565b821115620002a857816040517f1cd951a70000000000000000000000000000000000000000000000000000000081526004016200029f919062000593565b60405180910390fd5b670de0b6b3a764000082029050919050565b600062000307620002fb620002d585620003db60201b60201c565b670de0b6b3a7640000620002ef86620003db60201b60201c565b620003e560201b60201c565b6200050760201b60201c565b905092915050565b600033905090565b60008060009054906101000a900473ffffffffffffffffffffffffffffffffffffffff169050816000806101000a81548173ffffffffffffffffffffffffffffffffffffffff021916908373ffffffffffffffffffffffffffffffffffffffff1602179055508173ffffffffffffffffffffffffffffffffffffffff168173ffffffffffffffffffffffffffffffffffffffff167f8be0079c531659141344cd1fd0a4f28419497f9722a3daafe3b4186f6b6457e060405160405180910390a35050565b6000819050919050565b600080600080198587098587029250828110838203039150506000810362000425578382816200041a57620004196200051b565b5b049250505062000500565b83811062000470578585856040517f63a057780000000000000000000000000000000000000000000000000000000081526004016200046793929190620005b0565b60405180910390fd5b60008486880990508281118203915080830392506000600186190186169050600081870496508185049450600182836000030401905080840285179450600060028860030218905080880260020381029050808802600203810290508088026002038102905080880260020381029050808802600203810290508088026002038102905080860296505050505050505b9392505050565b6000819050919050565b6000819050919050565b7f4e487b7100000000000000000000000000000000000000000000000000000000600052601260045260246000fd5b6000620005578262000511565b9150620005648362000511565b9250826200057757620005766200051b565b5b828204905092915050565b6200058d8162000511565b82525050565b6000602082019050620005aa600083018462000582565b92915050565b6000606082019050620005c7600083018662000582565b620005d6602083018562000582565b620005e5604083018462000582565b949350505050565b6156ed80620005fd6000396000f3fe608060405234801561001057600080fd5b50600436106101e55760003560e01c8063743753591161010f578063ab01f7e1116100a2578063e1ec3c6811610071578063e1ec3c68146105b2578063e3435044146105e2578063f2fde38b146105fe578063ff9ad6df1461061a576101e5565b8063ab01f7e114610512578063bcff3e3b14610530578063bd5c569b14610560578063c0c53b8b14610596576101e5565b806387ae0dbe116100de57806387ae0dbe146104885780638da5cb5b146104a6578063a0024c2f146104c4578063a54cab1c146104f4576101e5565b806374375359146103fe57806374bdf96a1461041c5780637d8820971461044c578063812cf0181461046a576101e5565b80633ca36db6116101875780634b1533b2116101565780634b1533b21461039c5780634b393605146103ba5780636290cd1c146103d6578063715018a6146103f4576101e5565b80633ca36db61461030057806342d21ef71461031e5780634423c5f11461034e5780634abb30031461037e576101e5565b80631cc03c87116101c35780631cc03c87146102665780632da109231461029657806334e40b2e146102c65780633a12c6da146102e2576101e5565b806302e9d5e4146101ea5780630a9cc0b61461020657806317548b7914610236575b600080fd5b61020460048036038101906101ff9190613e52565b610638565b005b610220600480360381019061021b9190613ff9565b610e40565b60405161022d9190614041565b60405180910390f35b610250600480360381019061024b91906140b4565b610eb5565b60405161025d91906140f0565b60405180910390f35b610280600480360381019061027b91906141eb565b610ee8565b60405161028d919061423b565b60405180910390f35b6102b060048036038101906102ab9190614256565b61104a565b6040516102bd919061423b565b60405180910390f35b6102e060048036038101906102db9190614283565b61106a565b005b6102ea61139e565b6040516102f79190614325565b60405180910390f35b6103086113a4565b6040516103159190614325565b60405180910390f35b61033860048036038101906103339190614256565b6113ae565b60405161034591906143b7565b60405180910390f35b61036860048036038101906103639190614256565b6114f5565b60405161037591906144f4565b60405180910390f35b6103866115db565b6040516103939190614325565b60405180910390f35b6103a46115e5565b6040516103b1919061423b565b60405180910390f35b6103d460048036038101906103cf9190613e52565b6115eb565b005b6103de611919565b6040516103eb9190614325565b60405180910390f35b6103fc61191f565b005b610406611933565b604051610413919061423b565b60405180910390f35b61043660048036038101906104319190614256565b61194a565b604051610443919061423b565b60405180910390f35b610454611967565b604051610461919061423b565b60405180910390f35b61047261196d565b60405161047f919061423b565b60405180910390f35b610490611972565b60405161049d919061423b565b60405180910390f35b6104ae61197a565b6040516104bb91906140f0565b60405180910390f35b6104de60048036038101906104d99190613ff9565b6119a3565b6040516104eb9190614041565b60405180910390f35b6104fc6119c7565b604051610509919061423b565b60405180910390f35b61051a6119cd565b604051610527919061423b565b60405180910390f35b61054a60048036038101906105459190614256565b6119de565b604051610557919061423b565b60405180910390f35b61057a60048036038101906105759190614256565b611a9f565b60405161058d9796959493929190614516565b60405180910390f35b6105b060048036038101906105ab919061463f565b611b01565b005b6105cc60048036038101906105c79190614256565b611d03565b6040516105d9919061472f565b60405180910390f35b6105fc60048036038101906105f791906147af565b611dc2565b005b6106186004803603810190610613919061480f565b611ea8565b005b610622611f2b565b60405161062f919061423b565b60405180910390f35b6000600f600084815260200190815260200160002090506106f78183815481106106655761066461483c565b5b90600052602060002090600402016040518060800160405290816000820160009054906101000a900473ffffffffffffffffffffffffffffffffffffffff1673ffffffffffffffffffffffffffffffffffffffff1673ffffffffffffffffffffffffffffffffffffffff16815260200160018201548152602001600282015481526020016003820154815250506119a3565b610736576040517f08c379a000000000000000000000000000000000000000000000000000000000815260040161072d906148c8565b60405180910390fd5b6000610741846113ae565b90506000600381111561075757610756614340565b5b81600381111561076a57610769614340565b5b036108ef576000600160006383bd0c7a60e01b7bffffffffffffffffffffffffffffffffffffffffffffffffffffffff19167bffffffffffffffffffffffffffffffffffffffffffffffffffffffff1916815260200190815260200160002060009054906101000a900473ffffffffffffffffffffffffffffffffffffffff1673ffffffffffffffffffffffffffffffffffffffff1685856040516024016108139291906148e8565b6040516020818303038152906040526383bd0c7a60e01b6020820180517bffffffffffffffffffffffffffffffffffffffffffffffffffffffff83818316178352505050506040516108659190614982565b600060405180830381855af49150503d80600081146108a0576040519150601f19603f3d011682016040523d82523d6000602084013e6108a5565b606091505b50509050806108e9576040517f08c379a00000000000000000000000000000000000000000000000000000000081526004016108e0906149e5565b60405180910390fd5b50610e30565b6001600381111561090357610902614340565b5b81600381111561091657610915614340565b5b03610a9b5760006001600063dfdabc1960e01b7bffffffffffffffffffffffffffffffffffffffffffffffffffffffff19167bffffffffffffffffffffffffffffffffffffffffffffffffffffffff1916815260200190815260200160002060009054906101000a900473ffffffffffffffffffffffffffffffffffffffff1673ffffffffffffffffffffffffffffffffffffffff1685856040516024016109bf9291906148e8565b60405160208183030381529060405263dfdabc1960e01b6020820180517bffffffffffffffffffffffffffffffffffffffffffffffffffffffff8381831617835250505050604051610a119190614982565b600060405180830381855af49150503d8060008114610a4c576040519150601f19603f3d011682016040523d82523d6000602084013e610a51565b606091505b5050905080610a95576040517f08c379a0000000000000000000000000000000000000000000000000000000008152600401610a8c90614a51565b60405180910390fd5b50610e2f565b60026003811115610aaf57610aae614340565b5b816003811115610ac257610ac1614340565b5b03610c475760006001600063ca03eb7360e01b7bffffffffffffffffffffffffffffffffffffffffffffffffffffffff19167bffffffffffffffffffffffffffffffffffffffffffffffffffffffff1916815260200190815260200160002060009054906101000a900473ffffffffffffffffffffffffffffffffffffffff1673ffffffffffffffffffffffffffffffffffffffff168585604051602401610b6b9291906148e8565b60405160208183030381529060405263ca03eb7360e01b6020820180517bffffffffffffffffffffffffffffffffffffffffffffffffffffffff8381831617835250505050604051610bbd9190614982565b600060405180830381855af49150503d8060008114610bf8576040519150601f19603f3d011682016040523d82523d6000602084013e610bfd565b606091505b5050905080610c41576040517f08c379a0000000000000000000000000000000000000000000000000000000008152600401610c3890614abd565b60405180910390fd5b50610e2e565b600380811115610c5a57610c59614340565b5b816003811115610c6d57610c6c614340565b5b03610df25760006001600063e77afe5e60e01b7bffffffffffffffffffffffffffffffffffffffffffffffffffffffff19167bffffffffffffffffffffffffffffffffffffffffffffffffffffffff1916815260200190815260200160002060009054906101000a900473ffffffffffffffffffffffffffffffffffffffff1673ffffffffffffffffffffffffffffffffffffffff168585604051602401610d169291906148e8565b60405160208183030381529060405263e77afe5e60e01b6020820180517bffffffffffffffffffffffffffffffffffffffffffffffffffffffff8381831617835250505050604051610d689190614982565b600060405180830381855af49150503d8060008114610da3576040519150601f19603f3d011682016040523d82523d6000602084013e610da8565b606091505b5050905080610dec576040517f08c379a0000000000000000000000000000000000000000000000000000000008152600401610de390614b4f565b60405180910390fd5b50610e2d565b6040517f08c379a0000000000000000000000000000000000000000000000000000000008152600401610e2490614bbb565b60405180910390fd5b5b5b5b610e3a8284611f3f565b50505050565b60008082604001518360200151610e579190614c0a565b90506000610e82610e6b85602001516120eb565b610e74846120eb565b61217790919063ffffffff16565b9050610e99601554826121ac90919063ffffffff16565b8015610eac5750610ea8611933565b8211155b92505050919050565b60016020528060005260406000206000915054906101000a900473ffffffffffffffffffffffffffffffffffffffff1681565b6000610ef3836121ca565b821115610f35576040517f08c379a0000000000000000000000000000000000000000000000000000000008152600401610f2c90614cb0565b60405180910390fd5b6000600c6301e13380610f489190614cff565b83610f539190614d30565b90506000610f99610f6460016121f3565b610f8b610f748860a001516121f3565b610f7d866121f3565b6122f790919063ffffffff16565b6122f790919063ffffffff16565b90506000610ff2610fda83610fcc610fc78a60200151610fb960016120eb565b61232590919063ffffffff16565b612353565b6123c790919063ffffffff16565b610fe460016121f3565b6122f790919063ffffffff16565b9050600061101d6110188361100a8a60400151612353565b61248590919063ffffffff16565b612615565b905061103e61103988602001518361217790919063ffffffff16565b61266a565b94505050505092915050565b6000600f6000838152602001908152602001600020805490509050919050565b600460009054906101000a900473ffffffffffffffffffffffffffffffffffffffff1673ffffffffffffffffffffffffffffffffffffffff166329cb364f336040518263ffffffff1660e01b81526004016110c591906140f0565b602060405180830381865afa1580156110e2573d6000803e3d6000fd5b505050506040513d601f19601f820116820180604052508101906111069190614d9e565b611145576040517f08c379a000000000000000000000000000000000000000000000000000000000815260040161113c90614e17565b60405180910390fd5b82821115611188576040517f08c379a000000000000000000000000000000000000000000000000000000000815260040161117f90614ea9565b60405180910390fd5b6001811015801561119b57506016548111155b6111da576040517f08c379a00000000000000000000000000000000000000000000000000000000081526004016111d190614f15565b60405180910390fd5b600061121a6112026111eb866120eb565b6111f4866120eb565b61217790919063ffffffff16565b61120c60016120eb565b61268790919063ffffffff16565b9050611231601554826121ac90919063ffffffff16565b611270576040517f08c379a000000000000000000000000000000000000000000000000000000000815260040161126790614f81565b60405180910390fd5b6112bd33308560028054906101000a900473ffffffffffffffffffffffffffffffffffffffff1673ffffffffffffffffffffffffffffffffffffffff166126b5909392919063ffffffff16565b600f600086815260200190815260200160002060405180608001604052803373ffffffffffffffffffffffffffffffffffffffff16815260200186815260200185815260200184815250908060018154018082558091505060019003906000526020600020906004020160009091909190915060008201518160000160006101000a81548173ffffffffffffffffffffffffffffffffffffffff021916908373ffffffffffffffffffffffffffffffffffffffff16021790555060208201518160010155604082015181600201556060820151816003015550505050505050565b60155481565b6000600d54905090565b600080601060008481526020019081526020016000206040518060e00160405290816000820160009054906101000a900473ffffffffffffffffffffffffffffffffffffffff1673ffffffffffffffffffffffffffffffffffffffff1673ffffffffffffffffffffffffffffffffffffffff16815260200160018201548152602001600282015481526020016003820154815260200160048201548152602001600582015481526020016006820154815250509050600073ffffffffffffffffffffffffffffffffffffffff16816000015173ffffffffffffffffffffffffffffffffffffffff16036114a55760009150506114f0565b6114ae8361273e565b156114ea5760006114be82612853565b426114c99190614c0a565b905060145481116114df576002925050506114f0565b6003925050506114f0565b60019150505b919050565b6060600f6000838152602001908152602001600020805480602002602001604051908101604052809291908181526020016000905b828210156115d057838290600052602060002090600402016040518060800160405290816000820160009054906101000a900473ffffffffffffffffffffffffffffffffffffffff1673ffffffffffffffffffffffffffffffffffffffff1673ffffffffffffffffffffffffffffffffffffffff16815260200160018201548152602001600282015481526020016003820154815250508152602001906001019061152a565b505050509050919050565b6000600e54905090565b60055481565b6000600f6000848152602001908152602001600020905060008183815481106116175761161661483c565b5b90600052602060002090600402016040518060800160405290816000820160009054906101000a900473ffffffffffffffffffffffffffffffffffffffff1673ffffffffffffffffffffffffffffffffffffffff1673ffffffffffffffffffffffffffffffffffffffff16815260200160018201548152602001600282015481526020016003820154815250509050806000015173ffffffffffffffffffffffffffffffffffffffff163373ffffffffffffffffffffffffffffffffffffffff1614611718576040517f08c379a000000000000000000000000000000000000000000000000000000000815260040161170f90614fed565b60405180910390fd5b6000826001848054905061172c9190614c0a565b8154811061173d5761173c61483c565b5b90600052602060002090600402016040518060800160405290816000820160009054906101000a900473ffffffffffffffffffffffffffffffffffffffff1673ffffffffffffffffffffffffffffffffffffffff1673ffffffffffffffffffffffffffffffffffffffff16815260200160018201548152602001600282015481526020016003820154815250509050808385815481106117e0576117df61483c565b5b906000526020600020906004020160008201518160000160006101000a81548173ffffffffffffffffffffffffffffffffffffffff021916908373ffffffffffffffffffffffffffffffffffffffff160217905550602082015181600101556040820151816002015560608201518160030155905050828054806118675761186661500d565b5b6001900381819060005260206000209060040201600080820160006101000a81549073ffffffffffffffffffffffffffffffffffffffff0219169055600182016000905560028201600090556003820160009055505090556119128260000151836040015160028054906101000a900473ffffffffffffffffffffffffffffffffffffffff1673ffffffffffffffffffffffffffffffffffffffff166128fe9092919063ffffffff16565b5050505050565b60075481565b611927612984565b6119316000612a02565b565b60006005546006546119459190614c0a565b905090565b6000611960826011612ac690919063ffffffff16565b9050919050565b60065481565b600c81565b6301e1338081565b60008060009054906101000a900473ffffffffffffffffffffffffffffffffffffffff16905090565b60008160400151826020015114806119c057506119bf82610e40565b5b9050919050565b60165481565b60006119d96011612ae0565b905090565b6000611a98601060008481526020019081526020016000206040518060e00160405290816000820160009054906101000a900473ffffffffffffffffffffffffffffffffffffffff1673ffffffffffffffffffffffffffffffffffffffff1673ffffffffffffffffffffffffffffffffffffffff1681526020016001820154815260200160028201548152602001600382015481526020016004820154815260200160058201548152602001600682015481525050612af5565b9050919050565b60106020528060005260406000206000915090508060000160009054906101000a900473ffffffffffffffffffffffffffffffffffffffff16908060010154908060020154908060030154908060040154908060050154908060060154905087565b6000600260019054906101000a900460ff16159050808015611b3557506001600260009054906101000a900460ff1660ff16105b80611b645750611b4430612b2d565b158015611b6357506001600260009054906101000a900460ff1660ff16145b5b611ba3576040517f08c379a0000000000000000000000000000000000000000000000000000000008152600401611b9a906150ae565b60405180910390fd5b6001600260006101000a81548160ff021916908360ff1602179055508015611be1576001600260016101000a81548160ff0219169083151502179055505b836002806101000a81548173ffffffffffffffffffffffffffffffffffffffff021916908373ffffffffffffffffffffffffffffffffffffffff16021790555082600360006101000a81548173ffffffffffffffffffffffffffffffffffffffff021916908373ffffffffffffffffffffffffffffffffffffffff16021790555081600460006101000a81548173ffffffffffffffffffffffffffffffffffffffff021916908373ffffffffffffffffffffffffffffffffffffffff1602179055508015611cfd576000600260016101000a81548160ff0219169083151502179055507f7f26b83ff96e1f2b6a682f133852f6798a09c465da95921460cefb38474024986001604051611cf49190615116565b60405180910390a15b50505050565b611d0b613db5565b601060008381526020019081526020016000206040518060e00160405290816000820160009054906101000a900473ffffffffffffffffffffffffffffffffffffffff1673ffffffffffffffffffffffffffffffffffffffff1673ffffffffffffffffffffffffffffffffffffffff16815260200160018201548152602001600282015481526020016003820154815260200160048201548152602001600582015481526020016006820154815250509050919050565b611dca612984565b60005b83839050811015611ea2578160016000868685818110611df057611def61483c565b5b9050602002016020810190611e0591906140b4565b7bffffffffffffffffffffffffffffffffffffffffffffffffffffffff19167bffffffffffffffffffffffffffffffffffffffffffffffffffffffff1916815260200190815260200160002060006101000a81548173ffffffffffffffffffffffffffffffffffffffff021916908373ffffffffffffffffffffffffffffffffffffffff1602179055508080611e9a90615131565b915050611dcd565b50505050565b611eb0612984565b600073ffffffffffffffffffffffffffffffffffffffff168173ffffffffffffffffffffffffffffffffffffffff1603611f1f576040517f08c379a0000000000000000000000000000000000000000000000000000000008152600401611f16906151eb565b60405180910390fd5b611f2881612a02565b50565b600c6301e13380611f3c9190614cff565b81565b60008260018480549050611f539190614c0a565b81548110611f6457611f6361483c565b5b90600052602060002090600402016040518060800160405290816000820160009054906101000a900473ffffffffffffffffffffffffffffffffffffffff1673ffffffffffffffffffffffffffffffffffffffff1673ffffffffffffffffffffffffffffffffffffffff16815260200160018201548152602001600282015481526020016003820154815250509050808383815481106120075761200661483c565b5b906000526020600020906004020160008201518160000160006101000a81548173ffffffffffffffffffffffffffffffffffffffff021916908373ffffffffffffffffffffffffffffffffffffffff1602179055506020820151816001015560408201518160020155606082015181600301559050508280548061208e5761208d61500d565b5b6001900381819060005260206000209060040201600080820160006101000a81549073ffffffffffffffffffffffffffffffffffffffff021916905560018201600090556002820160009055600382016000905550509055505050565b6000670de0b6b3a76400007fffffffffffffffffffffffffffffffffffffffffffffffffffffffffffffffff6121219190614cff565b82111561216557816040517f1cd951a700000000000000000000000000000000000000000000000000000000815260040161215c919061423b565b60405180910390fd5b670de0b6b3a764000082029050919050565b60006121a461219f61218885612b50565b670de0b6b3a764000061219a86612b50565b612b5a565b612c74565b905092915050565b60006121b782612b50565b6121c084612b50565b1115905092915050565b60006301e133808260a00151600c6121e29190614d30565b6121ec9190614cff565b9050919050565b6000670de0b6b3a76400007f80000000000000000000000000000000000000000000000000000000000000006122299190615215565b82121561226d57816040517f99474eeb000000000000000000000000000000000000000000000000000000008152600401612264919061528e565b60405180910390fd5b670de0b6b3a76400007f7fffffffffffffffffffffffffffffffffffffffffffffffffffffffffffffff6122a19190615215565b8213156122e557816040517f9d5810910000000000000000000000000000000000000000000000000000000081526004016122dc919061528e565b60405180910390fd5b670de0b6b3a764000082029050919050565b600061231d61230583612c7e565b61230e85612c7e565b61231891906152a9565b612c88565b905092915050565b600061234b61233383612b50565b61233c85612b50565b61234691906152ec565b612c74565b905092915050565b6000808290507f7fffffffffffffffffffffffffffffffffffffffffffffffffffffffffffffff8111156123be57826040517ff46186840000000000000000000000000000000000000000000000000000000081526004016123b59190614325565b60405180910390fd5b80915050919050565b6000806123d384612c7e565b905060006123e084612c7e565b90506000820361240c57600081146123f9576000612403565b670de0b6b3a76400005b9250505061247f565b670de0b6b3a7640000820361242d57670de0b6b3a76400009250505061247f565b6000810361244757670de0b6b3a76400009250505061247f565b670de0b6b3a7640000810361246057849250505061247f565b61247a61247561246f87612c92565b86612485565b612e25565b925050505b92915050565b60008061249184612c7e565b9050600061249e84612c7e565b90507f80000000000000000000000000000000000000000000000000000000000000008214806124ed57507f800000000000000000000000000000000000000000000000000000000000000081145b15612524576040517fa6070c2500000000000000000000000000000000000000000000000000000000815260040160405180910390fd5b60008060008412612535578361253a565b836000035b91506000831261254a578261254f565b826000035b9050600061255d8383612f43565b90507f7fffffffffffffffffffffffffffffffffffffffffffffffffffffffffffffff8111156125c65787876040517f120b5b430000000000000000000000000000000000000000000000000000000081526004016125bd929190615351565b60405180910390fd5b60007fffffffffffffffffffffffffffffffffffffffffffffffffffffffffffffffff858718139050612607816126005782600003612602565b825b612c88565b965050505050505092915050565b600080829050600081121561266157826040517fbba41a15000000000000000000000000000000000000000000000000000000008152600401612658919061537a565b60405180910390fd5b80915050919050565b6000670de0b6b3a7640000826126809190614cff565b9050919050565b60006126ad61269583612b50565b61269e85612b50565b6126a89190614c0a565b612c74565b905092915050565b612738846323b872dd60e01b8585856040516024016126d693929190615395565b604051602081830303815290604052907bffffffffffffffffffffffffffffffffffffffffffffffffffffffff19166020820180517bffffffffffffffffffffffffffffffffffffffffffffffffffffffff838183161783525050505061302d565b50505050565b600080601060008481526020019081526020016000206040518060e00160405290816000820160009054906101000a900473ffffffffffffffffffffffffffffffffffffffff1673ffffffffffffffffffffffffffffffffffffffff1673ffffffffffffffffffffffffffffffffffffffff1681526020016001820154815260200160028201548152602001600382015481526020016004820154815260200160058201548152602001600682015481525050905060006127fe826130f4565b90506000600c6301e133808460a001516128189190614cff565b6128229190614d30565b905080821115612838576001935050505061284e565b6128428383610ee8565b83608001511193505050505b919050565b60008061285f836130f4565b905060008190505b60008111156128f757600061287c8583610ee8565b90506000612896866001856128919190614c0a565b610ee8565b90508186608001511180156128af575080866080015111155b156128e257600c6301e133806128c59190614cff565b836128d09190614d30565b86606001516128df91906152ec565b94505b505080806128ef906153cc565b915050612867565b5050919050565b61297f8363a9059cbb60e01b848460405160240161291d9291906153f5565b604051602081830303815290604052907bffffffffffffffffffffffffffffffffffffffffffffffffffffffff19166020820180517bffffffffffffffffffffffffffffffffffffffffffffffffffffffff838183161783525050505061302d565b505050565b61298c613149565b73ffffffffffffffffffffffffffffffffffffffff166129aa61197a565b73ffffffffffffffffffffffffffffffffffffffff1614612a00576040517f08c379a00000000000000000000000000000000000000000000000000000000081526004016129f79061546a565b60405180910390fd5b565b60008060009054906101000a900473ffffffffffffffffffffffffffffffffffffffff169050816000806101000a81548173ffffffffffffffffffffffffffffffffffffffff021916908373ffffffffffffffffffffffffffffffffffffffff1602179055508173ffffffffffffffffffffffffffffffffffffffff168173ffffffffffffffffffffffffffffffffffffffff167f8be0079c531659141344cd1fd0a4f28419497f9722a3daafe3b4186f6b6457e060405160405180910390a35050565b6000612ad58360000183613151565b60001c905092915050565b6000612aee8260000161317c565b9050919050565b6000612b26612b21612b068461318d565b612b1385608001516120eb565b6131bd90919063ffffffff16565b61266a565b9050919050565b6000808273ffffffffffffffffffffffffffffffffffffffff163b119050919050565b6000819050919050565b6000806000801985870985870292508281108382030391505060008103612b9557838281612b8b57612b8a614cd0565b5b0492505050612c6d565b838110612bdd578585856040517f63a05778000000000000000000000000000000000000000000000000000000008152600401612bd49392919061548a565b60405180910390fd5b60008486880990508281118203915080830392506000600186190186169050600081870496508185049450600182836000030401905080840285179450600060028860030218905080880260020381029050808802600203810290508088026002038102905080880260020381029050808802600203810290508088026002038102905080860296505050505050505b9392505050565b6000819050919050565b6000819050919050565b6000819050919050565b600080612c9e83612c7e565b905060008113612ce557826040517f059b101b000000000000000000000000000000000000000000000000000000008152600401612cdc919061537a565b60405180910390fd5b6000670de0b6b3a76400008212612cff5760019050612d45565b7fffffffffffffffffffffffffffffffffffffffffffffffffffffffffffffffff9050816ec097ce7bc90715b34b9f100000000081612d4157612d40614cd0565b5b0591505b6000612d68670de0b6b3a76400008481612d6257612d61614cd0565b5b056131e9565b90506000670de0b6b3a76400008202905060008285901d9050670de0b6b3a76400008103612da757612d9b848302612c88565b95505050505050612e20565b6000671bc16d674ec80000905060006706f05b59d3b2000090505b6000811315612e0857670de0b6b3a764000083840281612de557612de4614cd0565b5b059250818312612dfc578084019350600183901d92505b600181901d9050612dc2565b508483029250612e1783612c88565b96505050505050505b919050565b600080612e3183612c7e565b90506000811215612eb8577ffffffffffffffffffffffffffffffffffffffffffffffffcc22e87f6eb468eeb811215612e6e576000915050612f3e565b612eb1612e8d612e88612e8384600003612c88565b612e25565b612c7e565b6ec097ce7bc90715b34b9f100000000081612eab57612eaa614cd0565b5b05612c88565b9150612f3c565b680a688906bd8affffff811315612f0657826040517f0360d028000000000000000000000000000000000000000000000000000000008152600401612efd919061537a565b60405180910390fd5b6000670de0b6b3a7640000604083901b81612f2457612f23614cd0565b5b059050612f38612f3382613292565b612c88565b9250505b505b919050565b6000806000801984860984860292508281108382030391505060008103612f8657670de0b6b3a76400008281612f7c57612f7b614cd0565b5b0492505050613027565b670de0b6b3a76400008110612fd45784846040517f5173648d000000000000000000000000000000000000000000000000000000008152600401612fcb9291906148e8565b60405180910390fd5b6000670de0b6b3a764000085870990507faccb18165bd6fe31ae1cf318dc5b51eee0e1ba569b88cd74c1773b91fac106696001620400008060000304018483118403026204000083860304170293505050505b92915050565b600061308f826040518060400160405280602081526020017f5361666545524332303a206c6f772d6c6576656c2063616c6c206661696c65648152508573ffffffffffffffffffffffffffffffffffffffff16613bf29092919063ffffffff16565b90506000815111156130ef57808060200190518101906130af9190614d9e565b6130ee576040517f08c379a00000000000000000000000000000000000000000000000000000000081526004016130e590615533565b60405180910390fd5b5b505050565b600080600c6301e133806131089190614cff565b8360600151426131189190614c0a565b6131229190614cff565b9050600061312f846121ca565b905080821161313e5781613140565b805b92505050919050565b600033905090565b60008260000182815481106131695761316861483c565b5b9060005260206000200154905092915050565b600081600001805490509050919050565b60006131b66131a361319e84613c0a565b6120eb565b83602001516131bd90919063ffffffff16565b9050919050565b60006131e16131dc6131ce85612b50565b6131d785612b50565b612f43565b612c74565b905092915050565b60006fffffffffffffffffffffffffffffffff821160071b82811c925080821791505067ffffffffffffffff821160061b82811c925080821791505063ffffffff821160051b82811c925080821791505061ffff821160041b82811c925080821791505060ff821160031b82811c9250808217915050600f821160021b82811c92508082179150506003821160011b82811c925080821791505060018211808217915050919050565b6000778000000000000000000000000000000000000000000000009050600067ff00000000000000831611156133f3576000678000000000000000831611156132e857604068016a09e667f3bcc9098202901c90505b60006740000000000000008316111561330e5760406801306fe0a31b7152df8202901c90505b6000672000000000000000831611156133345760406801172b83c7d517adce8202901c90505b60006710000000000000008316111561335a57604068010b5586cf9890f62a8202901c90505b6000670800000000000000831611156133805760406801059b0d31585743ae8202901c90505b6000670400000000000000831611156133a6576040680102c9a3e778060ee78202901c90505b6000670200000000000000831611156133cc57604068010163da9fb33356d88202901c90505b6000670100000000000000831611156133f2576040680100b1afa5abcbed618202901c90505b5b600066ff0000000000008316111561352e57600066800000000000008316111561342a57604068010058c86da1c09ea28202901c90505b600066400000000000008316111561344f5760406801002c605e2e8cec508202901c90505b6000662000000000000083161115613474576040680100162f3904051fa18202901c90505b60006610000000000000831611156134995760406801000b175effdc76ba8202901c90505b60006608000000000000831611156134be576040680100058ba01fb9f96d8202901c90505b60006604000000000000831611156134e357604068010002c5cc37da94928202901c90505b60006602000000000000831611156135085760406801000162e525ee05478202901c90505b600066010000000000008316111561352d57604068010000b17255775c048202901c90505b5b600065ff00000000008316111561366057600065800000000000831611156135635760406801000058b91b5bc9ae8202901c90505b60006540000000000083161115613587576040680100002c5c89d5ec6d8202901c90505b600065200000000000831611156135ab57604068010000162e43f4f8318202901c90505b600065100000000000831611156135cf576040680100000b1721bcfc9a8202901c90505b600065080000000000831611156135f357604068010000058b90cf1e6e8202901c90505b600065040000000000831611156136175760406801000002c5c863b73f8202901c90505b6000650200000000008316111561363b576040680100000162e430e5a28202901c90505b6000650100000000008316111561365f5760406801000000b1721835518202901c90505b5b600064ff000000008316111561378957600064800000000083161115613693576040680100000058b90c0b498202901c90505b6000644000000000831611156136b657604068010000002c5c8601cc8202901c90505b6000642000000000831611156136d95760406801000000162e42fff08202901c90505b6000641000000000831611156136fc57604068010000000b17217fbb8202901c90505b60006408000000008316111561371f5760406801000000058b90bfce8202901c90505b600064040000000083161115613742576040680100000002c5c85fe38202901c90505b60006402000000008316111561376557604068010000000162e42ff18202901c90505b600064010000000083161115613788576040680100000000b17217f88202901c90505b5b600063ff000000831611156138a95760006380000000831611156137ba57604068010000000058b90bfc8202901c90505b60006340000000831611156137dc5760406801000000002c5c85fe8202901c90505b60006320000000831611156137fe576040680100000000162e42ff8202901c90505b60006310000000831611156138205760406801000000000b17217f8202901c90505b6000630800000083161115613842576040680100000000058b90c08202901c90505b600063040000008316111561386457604068010000000002c5c8608202901c90505b60006302000000831611156138865760406801000000000162e4308202901c90505b60006301000000831611156138a857604068010000000000b172188202901c90505b5b600062ff0000831611156139c057600062800000831611156138d85760406801000000000058b90c8202901c90505b600062400000831611156138f9576040680100000000002c5c868202901c90505b6000622000008316111561391a57604068010000000000162e438202901c90505b6000621000008316111561393b576040680100000000000b17218202901c90505b6000620800008316111561395c57604068010000000000058b918202901c90505b6000620400008316111561397d5760406801000000000002c5c88202901c90505b6000620200008316111561399e576040680100000000000162e48202901c90505b600062010000831611156139bf5760406801000000000000b1728202901c90505b5b600061ff0083161115613ace576000618000831611156139ed576040680100000000000058b98202901c90505b600061400083161115613a0d57604068010000000000002c5d8202901c90505b600061200083161115613a2d5760406801000000000000162e8202901c90505b600061100083161115613a4d57604068010000000000000b178202901c90505b600061080083161115613a6d5760406801000000000000058c8202901c90505b600061040083161115613a8d576040680100000000000002c68202901c90505b600061020083161115613aad576040680100000000000001638202901c90505b600061010083161115613acd576040680100000000000000b18202901c90505b5b600060ff83161115613bd3576000608083161115613af9576040680100000000000000598202901c90505b6000604083161115613b185760406801000000000000002c8202901c90505b6000602083161115613b37576040680100000000000000168202901c90505b6000601083161115613b565760406801000000000000000b8202901c90505b6000600883161115613b75576040680100000000000000068202901c90505b6000600483161115613b94576040680100000000000000038202901c90505b6000600283161115613bb3576040680100000000000000018202901c90505b6000600183161115613bd2576040680100000000000000018202901c90505b5b670de0b6b3a764000081029050604082901c60bf0381901c9050919050565b6060613c018484600085613c23565b90509392505050565b60008160c0015142613c1c9190614c0a565b9050919050565b606082471015613c68576040517f08c379a0000000000000000000000000000000000000000000000000000000008152600401613c5f906155c5565b60405180910390fd5b6000808673ffffffffffffffffffffffffffffffffffffffff168587604051613c919190614982565b60006040518083038185875af1925050503d8060008114613cce576040519150601f19603f3d011682016040523d82523d6000602084013e613cd3565b606091505b5091509150613ce487838387613cf0565b92505050949350505050565b60608315613d52576000835103613d4a57613d0a85612b2d565b613d49576040517f08c379a0000000000000000000000000000000000000000000000000000000008152600401613d4090615631565b60405180910390fd5b5b829050613d5d565b613d5c8383613d65565b5b949350505050565b600082511115613d785781518083602001fd5b806040517f08c379a0000000000000000000000000000000000000000000000000000000008152600401613dac9190615695565b60405180910390fd5b6040518060e00160405280600073ffffffffffffffffffffffffffffffffffffffff1681526020016000815260200160008152602001600081526020016000815260200160008152602001600081525090565b6000604051905090565b600080fd5b600080fd5b6000819050919050565b613e2f81613e1c565b8114613e3a57600080fd5b50565b600081359050613e4c81613e26565b92915050565b60008060408385031215613e6957613e68613e12565b5b6000613e7785828601613e3d565b9250506020613e8885828601613e3d565b9150509250929050565b600080fd5b6000601f19601f8301169050919050565b7f4e487b7100000000000000000000000000000000000000000000000000000000600052604160045260246000fd5b613ee082613e97565b810181811067ffffffffffffffff82111715613eff57613efe613ea8565b5b80604052505050565b6000613f12613e08565b9050613f1e8282613ed7565b919050565b600073ffffffffffffffffffffffffffffffffffffffff82169050919050565b6000613f4e82613f23565b9050919050565b613f5e81613f43565b8114613f6957600080fd5b50565b600081359050613f7b81613f55565b92915050565b600060808284031215613f9757613f96613e92565b5b613fa16080613f08565b90506000613fb184828501613f6c565b6000830152506020613fc584828501613e3d565b6020830152506040613fd984828501613e3d565b6040830152506060613fed84828501613e3d565b60608301525092915050565b60006080828403121561400f5761400e613e12565b5b600061401d84828501613f81565b91505092915050565b60008115159050919050565b61403b81614026565b82525050565b60006020820190506140566000830184614032565b92915050565b60007fffffffff0000000000000000000000000000000000000000000000000000000082169050919050565b6140918161405c565b811461409c57600080fd5b50565b6000813590506140ae81614088565b92915050565b6000602082840312156140ca576140c9613e12565b5b60006140d88482850161409f565b91505092915050565b6140ea81613f43565b82525050565b600060208201905061410560008301846140e1565b92915050565b61411481613e1c565b811461411f57600080fd5b50565b6000813590506141318161410b565b92915050565b600060e0828403121561414d5761414c613e92565b5b61415760e0613f08565b9050600061416784828501613f6c565b600083015250602061417b84828501614122565b602083015250604061418f84828501614122565b60408301525060606141a384828501613e3d565b60608301525060806141b784828501613e3d565b60808301525060a06141cb84828501613e3d565b60a08301525060c06141df84828501613e3d565b60c08301525092915050565b600080610100838503121561420357614202613e12565b5b600061421185828601614137565b92505060e061422285828601613e3d565b9150509250929050565b61423581613e1c565b82525050565b6000602082019050614250600083018461422c565b92915050565b60006020828403121561426c5761426b613e12565b5b600061427a84828501613e3d565b91505092915050565b6000806000806080858703121561429d5761429c613e12565b5b60006142ab87828801613e3d565b94505060206142bc87828801613e3d565b93505060406142cd87828801613e3d565b92505060606142de87828801613e3d565b91505092959194509250565b6000819050919050565b600061430f61430a61430584613e1c565b6142ea565b613e1c565b9050919050565b61431f816142f4565b82525050565b600060208201905061433a6000830184614316565b92915050565b7f4e487b7100000000000000000000000000000000000000000000000000000000600052602160045260246000fd5b600481106143805761437f614340565b5b50565b60008190506143918261436f565b919050565b60006143a182614383565b9050919050565b6143b181614396565b82525050565b60006020820190506143cc60008301846143a8565b92915050565b600081519050919050565b600082825260208201905092915050565b6000819050602082019050919050565b61440781613f43565b82525050565b61441681613e1c565b82525050565b60808201600082015161443260008501826143fe565b506020820151614445602085018261440d565b506040820151614458604085018261440d565b50606082015161446b606085018261440d565b50505050565b600061447d838361441c565b60808301905092915050565b6000602082019050919050565b60006144a1826143d2565b6144ab81856143dd565b93506144b6836143ee565b8060005b838110156144e75781516144ce8882614471565b97506144d983614489565b9250506001810190506144ba565b5085935050505092915050565b6000602082019050818103600083015261450e8184614496565b905092915050565b600060e08201905061452b600083018a6140e1565b6145386020830189614316565b6145456040830188614316565b614552606083018761422c565b61455f608083018661422c565b61456c60a083018561422c565b61457960c083018461422c565b98975050505050505050565b600061459082613f43565b9050919050565b6145a081614585565b81146145ab57600080fd5b50565b6000813590506145bd81614597565b92915050565b60006145ce82613f43565b9050919050565b6145de816145c3565b81146145e957600080fd5b50565b6000813590506145fb816145d5565b92915050565b600061460c82613f43565b9050919050565b61461c81614601565b811461462757600080fd5b50565b60008135905061463981614613565b92915050565b60008060006060848603121561465857614657613e12565b5b6000614666868287016145ae565b9350506020614677868287016145ec565b92505060406146888682870161462a565b9150509250925092565b61469b816142f4565b82525050565b60e0820160008201516146b760008501826143fe565b5060208201516146ca6020850182614692565b5060408201516146dd6040850182614692565b5060608201516146f0606085018261440d565b506080820151614703608085018261440d565b5060a082015161471660a085018261440d565b5060c082015161472960c085018261440d565b50505050565b600060e08201905061474460008301846146a1565b92915050565b600080fd5b600080fd5b600080fd5b60008083601f84011261476f5761476e61474a565b5b8235905067ffffffffffffffff81111561478c5761478b61474f565b5b6020830191508360208202830111156147a8576147a7614754565b5b9250929050565b6000806000604084860312156147c8576147c7613e12565b5b600084013567ffffffffffffffff8111156147e6576147e5613e17565b5b6147f286828701614759565b9350935050602061480586828701613f6c565b9150509250925092565b60006020828403121561482557614824613e12565b5b600061483384828501613f6c565b91505092915050565b7f4e487b7100000000000000000000000000000000000000000000000000000000600052603260045260246000fd5b600082825260208201905092915050565b7f626964206e6f7420616374696f6e61626c650000000000000000000000000000600082015250565b60006148b260128361486b565b91506148bd8261487c565b602082019050919050565b600060208201905081810360008301526148e1816148a5565b9050919050565b60006040820190506148fd600083018561422c565b61490a602083018461422c565b9392505050565b600081519050919050565b600081905092915050565b60005b8381101561494557808201518184015260208101905061492a565b60008484015250505050565b600061495c82614911565b614966818561491c565b9350614976818560208601614927565b80840191505092915050565b600061498e8284614951565b915081905092915050565b7f6163636570744e6f6e6542696428292063616c6c206661696c65640000000000600082015250565b60006149cf601b8361486b565b91506149da82614999565b602082019050919050565b600060208201905081810360008301526149fe816149c2565b9050919050565b7f6163636570744d6f72746761676542696428292063616c6c206661696c656400600082015250565b6000614a3b601f8361486b565b9150614a4682614a05565b602082019050919050565b60006020820190508181036000830152614a6a81614a2e565b9050919050565b7f61636365707444656661756c7442696428292063616c6c206661696c65640000600082015250565b6000614aa7601e8361486b565b9150614ab282614a71565b602082019050919050565b60006020820190508181036000830152614ad681614a9a565b9050919050565b7f616363657074466f7265636c6f73757261626c6542696428292063616c6c206660008201527f61696c6564000000000000000000000000000000000000000000000000000000602082015250565b6000614b3960258361486b565b9150614b4482614add565b604082019050919050565b60006020820190508181036000830152614b6881614b2c565b9050919050565b7f696e76616c696420737461747573000000000000000000000000000000000000600082015250565b6000614ba5600e8361486b565b9150614bb082614b6f565b602082019050919050565b60006020820190508181036000830152614bd481614b98565b9050919050565b7f4e487b7100000000000000000000000000000000000000000000000000000000600052601160045260246000fd5b6000614c1582613e1c565b9150614c2083613e1c565b9250828203905081811115614c3857614c37614bdb565b5b92915050565b7f6d6f6e7468206d757374206265203c3d206c6f616e4d61784475726174696f6e60008201527f4d6f6e7468730000000000000000000000000000000000000000000000000000602082015250565b6000614c9a60268361486b565b9150614ca582614c3e565b604082019050919050565b60006020820190508181036000830152614cc981614c8d565b9050919050565b7f4e487b7100000000000000000000000000000000000000000000000000000000600052601260045260246000fd5b6000614d0a82613e1c565b9150614d1583613e1c565b925082614d2557614d24614cd0565b5b828204905092915050565b6000614d3b82613e1c565b9150614d4683613e1c565b9250828202614d5481613e1c565b91508282048414831517614d6b57614d6a614bdb565b5b5092915050565b614d7b81614026565b8114614d8657600080fd5b50565b600081519050614d9881614d72565b92915050565b600060208284031215614db457614db3613e12565b5b6000614dc284828501614d89565b91505092915050565b7f6f6e6c7920655265736964656e74732063616e20626964000000000000000000600082015250565b6000614e0160178361486b565b9150614e0c82614dcb565b602082019050919050565b60006020820190508181036000830152614e3081614df4565b9050919050565b7f646f776e5061796d656e742063616e6e6f74206578636565642070726f70657260008201527f747956616c756500000000000000000000000000000000000000000000000000602082015250565b6000614e9360278361486b565b9150614e9e82614e37565b604082019050919050565b60006020820190508181036000830152614ec281614e86565b9050919050565b7f756e616c6c6f776564206d61784475726174696f6e4d6f6e7468730000000000600082015250565b6000614eff601b8361486b565b9150614f0a82614ec9565b602082019050919050565b60006020820190508181036000830152614f2e81614ef2565b9050919050565b7f6c74762063616e6e6f7420657863656564206d61784c74760000000000000000600082015250565b6000614f6b60188361486b565b9150614f7682614f35565b602082019050919050565b60006020820190508181036000830152614f9a81614f5e565b9050919050565b7f6f6e6c79206269646465722063616e2072656d6f766520686973206269640000600082015250565b6000614fd7601e8361486b565b9150614fe282614fa1565b602082019050919050565b6000602082019050818103600083015261500681614fca565b9050919050565b7f4e487b7100000000000000000000000000000000000000000000000000000000600052603160045260246000fd5b7f496e697469616c697a61626c653a20636f6e747261637420697320616c72656160008201527f647920696e697469616c697a6564000000000000000000000000000000000000602082015250565b6000615098602e8361486b565b91506150a38261503c565b604082019050919050565b600060208201905081810360008301526150c78161508b565b9050919050565b6000819050919050565b600060ff82169050919050565b60006151006150fb6150f6846150ce565b6142ea565b6150d8565b9050919050565b615110816150e5565b82525050565b600060208201905061512b6000830184615107565b92915050565b600061513c82613e1c565b91507fffffffffffffffffffffffffffffffffffffffffffffffffffffffffffffffff820361516e5761516d614bdb565b5b600182019050919050565b7f4f776e61626c653a206e6577206f776e657220697320746865207a65726f206160008201527f6464726573730000000000000000000000000000000000000000000000000000602082015250565b60006151d560268361486b565b91506151e082615179565b604082019050919050565b60006020820190508181036000830152615204816151c8565b9050919050565b6000819050919050565b60006152208261520b565b915061522b8361520b565b92508261523b5761523a614cd0565b5b600160000383147f80000000000000000000000000000000000000000000000000000000000000008314161561527457615273614bdb565b5b828205905092915050565b6152888161520b565b82525050565b60006020820190506152a3600083018461527f565b92915050565b60006152b48261520b565b91506152bf8361520b565b92508282039050818112600084121682821360008512151617156152e6576152e5614bdb565b5b92915050565b60006152f782613e1c565b915061530283613e1c565b925082820190508082111561531a57615319614bdb565b5b92915050565b600061533b6153366153318461520b565b6142ea565b61520b565b9050919050565b61534b81615320565b82525050565b60006040820190506153666000830185615342565b6153736020830184615342565b9392505050565b600060208201905061538f6000830184615342565b92915050565b60006060820190506153aa60008301866140e1565b6153b760208301856140e1565b6153c4604083018461422c565b949350505050565b60006153d782613e1c565b9150600082036153ea576153e9614bdb565b5b600182039050919050565b600060408201905061540a60008301856140e1565b615417602083018461422c565b9392505050565b7f4f776e61626c653a2063616c6c6572206973206e6f7420746865206f776e6572600082015250565b600061545460208361486b565b915061545f8261541e565b602082019050919050565b6000602082019050818103600083015261548381615447565b9050919050565b600060608201905061549f600083018661422c565b6154ac602083018561422c565b6154b9604083018461422c565b949350505050565b7f5361666545524332303a204552433230206f7065726174696f6e20646964206e60008201527f6f74207375636365656400000000000000000000000000000000000000000000602082015250565b600061551d602a8361486b565b9150615528826154c1565b604082019050919050565b6000602082019050818103600083015261554c81615510565b9050919050565b7f416464726573733a20696e73756666696369656e742062616c616e636520666f60008201527f722063616c6c0000000000000000000000000000000000000000000000000000602082015250565b60006155af60268361486b565b91506155ba82615553565b604082019050919050565b600060208201905081810360008301526155de816155a2565b9050919050565b7f416464726573733a2063616c6c20746f206e6f6e2d636f6e7472616374000000600082015250565b600061561b601d8361486b565b9150615626826155e5565b602082019050919050565b6000602082019050818103600083015261564a8161560e565b9050919050565b600081519050919050565b600061566782615651565b615671818561486b565b9350615681818560208601614927565b61568a81613e97565b840191505092915050565b600060208201905081810360008301526156af818461565c565b90509291505056fea2646970667358221220c5254ca3a859454f2f0ca90c9c1fd1e874bb0cddc33cf33dee29a7c9903265e164736f6c63430008130033",
  "linkReferences": {},
  "deployedLinkReferences": {}
}