{
  "_format": "hh-sol-artifact-1",
  "contractName": "Auctions",
  "sourceName": "contracts/protocol/auctions/Auctions.sol",
  "abi": [
    {
      "inputs": [
        {
          "internalType": "uint256",
          "name": "x",
          "type": "uint256"
        },
        {
          "internalType": "uint256",
          "name": "y",
          "type": "uint256"
        }
      ],
      "name": "PRBMath_MulDiv18_Overflow",
      "type": "error"
    },
    {
      "inputs": [
        {
          "internalType": "uint256",
          "name": "x",
          "type": "uint256"
        },
        {
          "internalType": "uint256",
          "name": "y",
          "type": "uint256"
        },
        {
          "internalType": "uint256",
          "name": "denominator",
          "type": "uint256"
        }
      ],
      "name": "PRBMath_MulDiv_Overflow",
      "type": "error"
    },
    {
      "inputs": [
        {
          "internalType": "int256",
          "name": "x",
          "type": "int256"
        }
      ],
      "name": "PRBMath_SD59x18_Convert_Overflow",
      "type": "error"
    },
    {
      "inputs": [
        {
          "internalType": "int256",
          "name": "x",
          "type": "int256"
        }
      ],
      "name": "PRBMath_SD59x18_Convert_Underflow",
      "type": "error"
    },
    {
      "inputs": [
        {
          "internalType": "SD59x18",
          "name": "x",
          "type": "int256"
        }
      ],
      "name": "PRBMath_SD59x18_Exp2_InputTooBig",
      "type": "error"
    },
    {
      "inputs": [
        {
          "internalType": "SD59x18",
          "name": "x",
          "type": "int256"
        }
      ],
      "name": "PRBMath_SD59x18_IntoUD60x18_Underflow",
      "type": "error"
    },
    {
      "inputs": [
        {
          "internalType": "SD59x18",
          "name": "x",
          "type": "int256"
        }
      ],
      "name": "PRBMath_SD59x18_Log_InputTooSmall",
      "type": "error"
    },
    {
      "inputs": [],
      "name": "PRBMath_SD59x18_Mul_InputTooSmall",
      "type": "error"
    },
    {
      "inputs": [
        {
          "internalType": "SD59x18",
          "name": "x",
          "type": "int256"
        },
        {
          "internalType": "SD59x18",
          "name": "y",
          "type": "int256"
        }
      ],
      "name": "PRBMath_SD59x18_Mul_Overflow",
      "type": "error"
    },
    {
      "inputs": [
        {
          "internalType": "uint256",
          "name": "x",
          "type": "uint256"
        }
      ],
      "name": "PRBMath_UD60x18_Convert_Overflow",
      "type": "error"
    },
    {
      "inputs": [
        {
          "internalType": "UD60x18",
          "name": "x",
          "type": "uint256"
        }
      ],
      "name": "PRBMath_UD60x18_IntoSD59x18_Overflow",
      "type": "error"
    },
    {
      "anonymous": false,
      "inputs": [
        {
          "indexed": false,
          "internalType": "uint8",
          "name": "version",
          "type": "uint8"
        }
      ],
      "name": "Initialized",
      "type": "event"
    },
    {
      "anonymous": false,
      "inputs": [
        {
          "indexed": true,
          "internalType": "address",
          "name": "previousOwner",
          "type": "address"
        },
        {
          "indexed": true,
          "internalType": "address",
          "name": "newOwner",
          "type": "address"
        }
      ],
      "name": "OwnershipTransferred",
      "type": "event"
    },
    {
      "inputs": [
        {
          "internalType": "uint256",
          "name": "",
          "type": "uint256"
        }
      ],
      "name": "_loans",
      "outputs": [
        {
          "internalType": "address",
          "name": "borrower",
          "type": "address"
        },
        {
          "internalType": "UD60x18",
          "name": "ratePerSecond",
          "type": "uint256"
        },
        {
          "internalType": "UD60x18",
          "name": "paymentPerSecond",
          "type": "uint256"
        },
        {
          "internalType": "uint256",
          "name": "startTime",
          "type": "uint256"
        },
        {
          "internalType": "uint256",
          "name": "unpaidPrincipal",
          "type": "uint256"
        },
        {
          "internalType": "uint256",
          "name": "maxDurationSeconds",
          "type": "uint256"
        },
        {
          "internalType": "uint256",
          "name": "lastPaymentTime",
          "type": "uint256"
        }
      ],
      "stateMutability": "view",
      "type": "function"
    },
    {
      "inputs": [
        {
          "internalType": "uint256",
          "name": "tokenId",
          "type": "uint256"
        },
        {
          "internalType": "uint256",
          "name": "bidIdx",
          "type": "uint256"
        }
      ],
      "name": "acceptBid",
      "outputs": [],
      "stateMutability": "nonpayable",
      "type": "function"
    },
    {
      "inputs": [
        {
          "internalType": "uint256",
          "name": "tokenId",
          "type": "uint256"
        }
      ],
      "name": "accruedInterest",
      "outputs": [
        {
          "internalType": "uint256",
          "name": "",
          "type": "uint256"
        }
      ],
      "stateMutability": "view",
      "type": "function"
    },
    {
      "inputs": [],
      "name": "availableLiquidity",
      "outputs": [
        {
          "internalType": "uint256",
          "name": "",
          "type": "uint256"
        }
      ],
      "stateMutability": "view",
      "type": "function"
    },
    {
      "inputs": [
        {
          "internalType": "uint256",
          "name": "tokenId",
          "type": "uint256"
        },
        {
          "internalType": "uint256",
          "name": "propertyValue",
          "type": "uint256"
        },
        {
          "internalType": "uint256",
          "name": "downPayment",
          "type": "uint256"
        },
        {
          "internalType": "uint256",
          "name": "maxDurationMonths",
          "type": "uint256"
        }
      ],
      "name": "bid",
      "outputs": [],
      "stateMutability": "nonpayable",
      "type": "function"
    },
    {
      "inputs": [
        {
          "components": [
            {
              "internalType": "address",
              "name": "bidder",
              "type": "address"
            },
            {
              "internalType": "uint256",
              "name": "propertyValue",
              "type": "uint256"
            },
            {
              "internalType": "uint256",
              "name": "downPayment",
              "type": "uint256"
            },
            {
              "internalType": "uint256",
              "name": "maxDurationMonths",
              "type": "uint256"
            }
          ],
          "internalType": "struct IState.Bid",
          "name": "bid",
          "type": "tuple"
        }
      ],
      "name": "bidActionable",
      "outputs": [
        {
          "internalType": "bool",
          "name": "",
          "type": "bool"
        }
      ],
      "stateMutability": "view",
      "type": "function"
    },
    {
      "inputs": [
        {
          "internalType": "uint256",
          "name": "tokenId",
          "type": "uint256"
        }
      ],
      "name": "bids",
      "outputs": [
        {
          "components": [
            {
              "internalType": "address",
              "name": "bidder",
              "type": "address"
            },
            {
              "internalType": "uint256",
              "name": "propertyValue",
              "type": "uint256"
            },
            {
              "internalType": "uint256",
              "name": "downPayment",
              "type": "uint256"
            },
            {
              "internalType": "uint256",
              "name": "maxDurationMonths",
              "type": "uint256"
            }
          ],
          "internalType": "struct IState.Bid[]",
          "name": "",
          "type": "tuple[]"
        }
      ],
      "stateMutability": "view",
      "type": "function"
    },
    {
      "inputs": [
        {
          "internalType": "uint256",
          "name": "tokenId",
          "type": "uint256"
        },
        {
          "internalType": "uint256",
          "name": "bidIdx",
          "type": "uint256"
        }
      ],
      "name": "cancelBid",
      "outputs": [],
      "stateMutability": "nonpayable",
      "type": "function"
    },
    {
      "inputs": [],
      "name": "defaultFeeSpread",
      "outputs": [
        {
          "internalType": "UD60x18",
          "name": "",
          "type": "uint256"
        }
      ],
      "stateMutability": "view",
      "type": "function"
    },
    {
      "inputs": [
        {
          "internalType": "contract tUsdc",
          "name": "_tUSDC",
          "type": "address"
        },
        {
          "internalType": "contract TangibleNft",
          "name": "_prosperaNftContract",
          "type": "address"
        }
      ],
      "name": "initialize",
      "outputs": [],
      "stateMutability": "nonpayable",
      "type": "function"
    },
    {
      "inputs": [
        {
          "components": [
            {
              "internalType": "address",
              "name": "bidder",
              "type": "address"
            },
            {
              "internalType": "uint256",
              "name": "propertyValue",
              "type": "uint256"
            },
            {
              "internalType": "uint256",
              "name": "downPayment",
              "type": "uint256"
            },
            {
              "internalType": "uint256",
              "name": "maxDurationMonths",
              "type": "uint256"
            }
          ],
          "internalType": "struct IState.Bid",
          "name": "_bid",
          "type": "tuple"
        }
      ],
      "name": "loanBidActionable",
      "outputs": [
        {
          "internalType": "bool",
          "name": "",
          "type": "bool"
        }
      ],
      "stateMutability": "view",
      "type": "function"
    },
    {
      "inputs": [
        {
          "internalType": "uint256",
          "name": "tokenId",
          "type": "uint256"
        }
      ],
      "name": "loans",
      "outputs": [
        {
          "components": [
            {
              "internalType": "address",
              "name": "borrower",
              "type": "address"
            },
            {
              "internalType": "UD60x18",
              "name": "ratePerSecond",
              "type": "uint256"
            },
            {
              "internalType": "UD60x18",
              "name": "paymentPerSecond",
              "type": "uint256"
            },
            {
              "internalType": "uint256",
              "name": "startTime",
              "type": "uint256"
            },
            {
              "internalType": "uint256",
              "name": "unpaidPrincipal",
              "type": "uint256"
            },
            {
              "internalType": "uint256",
              "name": "maxDurationSeconds",
              "type": "uint256"
            },
            {
              "internalType": "uint256",
              "name": "lastPaymentTime",
              "type": "uint256"
            }
          ],
          "internalType": "struct IState.Loan",
          "name": "",
          "type": "tuple"
        }
      ],
      "stateMutability": "view",
      "type": "function"
    },
    {
      "inputs": [
        {
          "internalType": "uint256",
          "name": "idx",
          "type": "uint256"
        }
      ],
      "name": "loansTokenIdsAt",
      "outputs": [
        {
          "internalType": "uint256",
          "name": "tokenId",
          "type": "uint256"
        }
      ],
      "stateMutability": "view",
      "type": "function"
    },
    {
      "inputs": [],
      "name": "loansTokenIdsLength",
      "outputs": [
        {
          "internalType": "uint256",
          "name": "",
          "type": "uint256"
        }
      ],
      "stateMutability": "view",
      "type": "function"
    },
    {
      "inputs": [
        {
          "internalType": "bytes4",
          "name": "",
          "type": "bytes4"
        }
      ],
      "name": "logicTargets",
      "outputs": [
        {
          "internalType": "address",
          "name": "",
          "type": "address"
        }
      ],
      "stateMutability": "view",
      "type": "function"
    },
    {
      "inputs": [],
      "name": "maxDurationMonthsCap",
      "outputs": [
        {
          "internalType": "uint256",
          "name": "",
          "type": "uint256"
        }
      ],
      "stateMutability": "view",
      "type": "function"
    },
    {
      "inputs": [],
      "name": "maxLtv",
      "outputs": [
        {
          "internalType": "UD60x18",
          "name": "",
          "type": "uint256"
        }
      ],
      "stateMutability": "view",
      "type": "function"
    },
    {
      "inputs": [],
      "name": "monthSeconds",
      "outputs": [
        {
          "internalType": "uint256",
          "name": "",
          "type": "uint256"
        }
      ],
      "stateMutability": "view",
      "type": "function"
    },
    {
      "inputs": [],
      "name": "optimalUtilization",
      "outputs": [
        {
          "internalType": "UD60x18",
          "name": "",
          "type": "uint256"
        }
      ],
      "stateMutability": "view",
      "type": "function"
    },
    {
      "inputs": [],
      "name": "owner",
      "outputs": [
        {
          "internalType": "address",
          "name": "",
          "type": "address"
        }
      ],
      "stateMutability": "view",
      "type": "function"
    },
    {
      "inputs": [
        {
          "components": [
            {
              "internalType": "address",
              "name": "borrower",
              "type": "address"
            },
            {
              "internalType": "UD60x18",
              "name": "ratePerSecond",
              "type": "uint256"
            },
            {
              "internalType": "UD60x18",
              "name": "paymentPerSecond",
              "type": "uint256"
            },
            {
              "internalType": "uint256",
              "name": "startTime",
              "type": "uint256"
            },
            {
              "internalType": "uint256",
              "name": "unpaidPrincipal",
              "type": "uint256"
            },
            {
              "internalType": "uint256",
              "name": "maxDurationSeconds",
              "type": "uint256"
            },
            {
              "internalType": "uint256",
              "name": "lastPaymentTime",
              "type": "uint256"
            }
          ],
          "internalType": "struct IState.Loan",
          "name": "loan",
          "type": "tuple"
        },
        {
          "internalType": "uint256",
          "name": "month",
          "type": "uint256"
        }
      ],
      "name": "principalCap",
      "outputs": [
        {
          "internalType": "uint256",
          "name": "cap",
          "type": "uint256"
        }
      ],
      "stateMutability": "pure",
      "type": "function"
    },
    {
      "inputs": [],
      "name": "redemptionFeeSpread",
      "outputs": [
        {
          "internalType": "UD60x18",
          "name": "",
          "type": "uint256"
        }
      ],
      "stateMutability": "view",
      "type": "function"
    },
    {
      "inputs": [],
      "name": "renounceOwnership",
      "outputs": [],
      "stateMutability": "nonpayable",
      "type": "function"
    },
    {
      "inputs": [
        {
          "internalType": "bytes4[]",
          "name": "selectorsArr",
          "type": "bytes4[]"
        },
        {
          "internalType": "address",
          "name": "target",
          "type": "address"
        }
      ],
      "name": "setSelectorsTarget",
      "outputs": [],
      "stateMutability": "nonpayable",
      "type": "function"
    },
    {
      "inputs": [
        {
          "internalType": "uint256",
          "name": "tokenId",
          "type": "uint256"
        }
      ],
      "name": "status",
      "outputs": [
        {
          "internalType": "enum IState.Status",
          "name": "",
          "type": "uint8"
        }
      ],
      "stateMutability": "view",
      "type": "function"
    },
    {
      "inputs": [
        {
          "internalType": "uint256",
          "name": "tokenId",
          "type": "uint256"
        }
      ],
      "name": "tokenIdBidsLength",
      "outputs": [
        {
          "internalType": "uint256",
          "name": "",
          "type": "uint256"
        }
      ],
      "stateMutability": "view",
      "type": "function"
    },
    {
      "inputs": [],
      "name": "totalDeposits",
      "outputs": [
        {
          "internalType": "uint256",
          "name": "",
          "type": "uint256"
        }
      ],
      "stateMutability": "view",
      "type": "function"
    },
    {
      "inputs": [],
      "name": "totalPrincipal",
      "outputs": [
        {
          "internalType": "uint256",
          "name": "",
          "type": "uint256"
        }
      ],
      "stateMutability": "view",
      "type": "function"
    },
    {
      "inputs": [
        {
          "internalType": "address",
          "name": "newOwner",
          "type": "address"
        }
      ],
      "name": "transferOwnership",
      "outputs": [],
      "stateMutability": "nonpayable",
      "type": "function"
    },
    {
      "inputs": [],
      "name": "yearMonths",
      "outputs": [
        {
          "internalType": "uint256",
          "name": "",
          "type": "uint256"
        }
      ],
      "stateMutability": "view",
      "type": "function"
    },
    {
      "inputs": [],
      "name": "yearSeconds",
      "outputs": [
        {
          "internalType": "uint256",
          "name": "",
          "type": "uint256"
        }
      ],
      "stateMutability": "view",
      "type": "function"
    }
  ],
  "bytecode": "0x608060405273a0b86991c6218b36c1d19d4a2e9eb0ce3606eb486002806101000a81548173ffffffffffffffffffffffffffffffffffffffff021916908373ffffffffffffffffffffffffffffffffffffffff1602179055506200008f6200006e60646200027d60201b60201c565b62000080605a6200027d60201b60201c565b6200030e60201b90919060201c565b600755620000c9620000a860646200027d60201b60201c565b620000ba60046200027d60201b60201c565b6200030e60201b90919060201c565b60085562000103620000e260646200027d60201b60201c565b620000f460036200027d60201b60201c565b6200030e60201b90919060201c565b6009556200011860096200027d60201b60201c565b600a55620001526200013160646200027d60201b60201c565b6200014360016200027d60201b60201c565b6200030e60201b90919060201c565b600b556200018c6200016b60646200027d60201b60201c565b6200017d60026200027d60201b60201c565b6200030e60201b90919060201c565b600c55620001c6620001a560646200027d60201b60201c565b620001b760036200027d60201b60201c565b6200030e60201b90919060201c565b600d5562000200620001df60646200027d60201b60201c565b620001f160046200027d60201b60201c565b6200030e60201b90919060201c565b600e55623b5380601455620002416200022060646200027d60201b60201c565b6200023260326200027d60201b60201c565b6200030e60201b90919060201c565b60155560786016553480156200025657600080fd5b50620002776200026b6200036360201b60201c565b6200036b60201b60201c565b62000641565b6000670de0b6b3a76400007fffffffffffffffffffffffffffffffffffffffffffffffffffffffffffffffff620002b591906200059e565b821115620002fc57816040517f1cd951a7000000000000000000000000000000000000000000000000000000008152600401620002f39190620005e7565b60405180910390fd5b670de0b6b3a764000082029050919050565b60006200035b6200034f62000329856200042f60201b60201c565b670de0b6b3a764000062000343866200042f60201b60201c565b6200043960201b60201c565b6200055b60201b60201c565b905092915050565b600033905090565b60008060009054906101000a900473ffffffffffffffffffffffffffffffffffffffff169050816000806101000a81548173ffffffffffffffffffffffffffffffffffffffff021916908373ffffffffffffffffffffffffffffffffffffffff1602179055508173ffffffffffffffffffffffffffffffffffffffff168173ffffffffffffffffffffffffffffffffffffffff167f8be0079c531659141344cd1fd0a4f28419497f9722a3daafe3b4186f6b6457e060405160405180910390a35050565b6000819050919050565b600080600080198587098587029250828110838203039150506000810362000479578382816200046e576200046d6200056f565b5b049250505062000554565b838110620004c4578585856040517f63a05778000000000000000000000000000000000000000000000000000000008152600401620004bb9392919062000604565b60405180910390fd5b60008486880990508281118203915080830392506000600186190186169050600081870496508185049450600182836000030401905080840285179450600060028860030218905080880260020381029050808802600203810290508088026002038102905080880260020381029050808802600203810290508088026002038102905080860296505050505050505b9392505050565b6000819050919050565b6000819050919050565b7f4e487b7100000000000000000000000000000000000000000000000000000000600052601260045260246000fd5b6000620005ab8262000565565b9150620005b88362000565565b925082620005cb57620005ca6200056f565b5b828204905092915050565b620005e18162000565565b82525050565b6000602082019050620005fe6000830184620005d6565b92915050565b60006060820190506200061b6000830186620005d6565b6200062a6020830185620005d6565b620006396040830184620005d6565b949350505050565b616bb680620006516000396000f3fe608060405234801561001057600080fd5b50600436106101e55760003560e01c8063715018a61161010f578063a54cab1c116100a2578063e1ec3c6811610071578063e1ec3c68146105b2578063e3435044146105e2578063f2fde38b146105fe578063ff9ad6df1461061a576101e5565b8063a54cab1c14610510578063ab01f7e11461052e578063bcff3e3b1461054c578063bd5c569b1461057c576101e5565b8063812cf018116100de578063812cf0181461048657806387ae0dbe146104a45780638da5cb5b146104c2578063a0024c2f146104e0576101e5565b8063715018a614610410578063743753591461041a57806374bdf96a146104385780637d88209714610468576101e5565b80633ca36db6116101875780634abb3003116101565780634abb30031461039a5780634b1533b2146103b85780634b393605146103d65780636290cd1c146103f2576101e5565b80633ca36db61461030057806342d21ef71461031e5780634423c5f11461034e578063485cc9551461037e576101e5565b80631cc03c87116101c35780631cc03c87146102665780632da109231461029657806334e40b2e146102c65780633a12c6da146102e2576101e5565b806302e9d5e4146101ea5780630a9cc0b61461020657806317548b7914610236575b600080fd5b61020460048036038101906101ff9190615037565b610638565b005b610220600480360381019061021b91906151de565b61087c565b60405161022d9190615226565b60405180910390f35b610250600480360381019061024b9190615299565b6108f1565b60405161025d91906152d5565b60405180910390f35b610280600480360381019061027b91906153d0565b610924565b60405161028d9190615420565b60405180910390f35b6102b060048036038101906102ab919061543b565b610a86565b6040516102bd9190615420565b60405180910390f35b6102e060048036038101906102db9190615468565b610aa6565b005b6102ea610dda565b6040516102f7919061550a565b60405180910390f35b610308610de0565b604051610315919061550a565b60405180910390f35b6103386004803603810190610333919061543b565b610dea565b604051610345919061559c565b60405180910390f35b6103686004803603810190610363919061543b565b610f31565b60405161037591906156d9565b60405180910390f35b61039860048036038101906103939190615777565b611017565b005b6103a26111d8565b6040516103af919061550a565b60405180910390f35b6103c06111e2565b6040516103cd9190615420565b60405180910390f35b6103f060048036038101906103eb9190615037565b6111e8565b005b6103fa611516565b604051610407919061550a565b60405180910390f35b61041861151c565b005b610422611530565b60405161042f9190615420565b60405180910390f35b610452600480360381019061044d919061543b565b611547565b60405161045f9190615420565b60405180910390f35b610470611564565b60405161047d9190615420565b60405180910390f35b61048e61156a565b60405161049b9190615420565b60405180910390f35b6104ac61156f565b6040516104b99190615420565b60405180910390f35b6104ca611577565b6040516104d791906152d5565b60405180910390f35b6104fa60048036038101906104f591906151de565b6115a0565b6040516105079190615226565b60405180910390f35b6105186115c4565b6040516105259190615420565b60405180910390f35b6105366115ca565b6040516105439190615420565b60405180910390f35b6105666004803603810190610561919061543b565b6115db565b6040516105739190615420565b60405180910390f35b6105966004803603810190610591919061543b565b61169c565b6040516105a997969594939291906157b7565b60405180910390f35b6105cc60048036038101906105c7919061543b565b6116fe565b6040516105d991906158c3565b60405180910390f35b6105fc60048036038101906105f79190615943565b6117bd565b005b610618600480360381019061061391906159a3565b6118a3565b005b610622611926565b60405161062f9190615420565b60405180910390f35b6000600f600084815260200190815260200160002090506106f7818381548110610665576106646159d0565b5b90600052602060002090600402016040518060800160405290816000820160009054906101000a900473ffffffffffffffffffffffffffffffffffffffff1673ffffffffffffffffffffffffffffffffffffffff1673ffffffffffffffffffffffffffffffffffffffff16815260200160018201548152602001600282015481526020016003820154815250506115a0565b610736576040517f08c379a000000000000000000000000000000000000000000000000000000000815260040161072d90615a5c565b60405180910390fd5b600061074184610dea565b90506000600381111561075757610756615525565b5b81600381111561076a57610769615525565b5b0361077e57610779848461193a565b61086c565b6001600381111561079257610791615525565b5b8160038111156107a5576107a4615525565b5b036107b9576107b48484611f3c565b61086b565b600260038111156107cd576107cc615525565b5b8160038111156107e0576107df615525565b5b036107f4576107ef848461252d565b61086a565b60038081111561080757610806615525565b5b81600381111561081a57610819615525565b5b0361082e576108298484612b62565b610869565b6040517f08c379a000000000000000000000000000000000000000000000000000000000815260040161086090615ac8565b60405180910390fd5b5b5b5b6108768284613124565b50505050565b600080826040015183602001516108939190615b17565b905060006108be6108a785602001516132d0565b6108b0846132d0565b61335c90919063ffffffff16565b90506108d56015548261339190919063ffffffff16565b80156108e857506108e4611530565b8211155b92505050919050565b60016020528060005260406000206000915054906101000a900473ffffffffffffffffffffffffffffffffffffffff1681565b600061092f836133af565b821115610971576040517f08c379a000000000000000000000000000000000000000000000000000000000815260040161096890615bbd565b60405180910390fd5b6000600c6301e133806109849190615c0c565b8361098f9190615c3d565b905060006109d56109a060016133d8565b6109c76109b08860a001516133d8565b6109b9866133d8565b6134dc90919063ffffffff16565b6134dc90919063ffffffff16565b90506000610a2e610a1683610a08610a038a602001516109f560016132d0565b61350a90919063ffffffff16565b613538565b6135ac90919063ffffffff16565b610a2060016133d8565b6134dc90919063ffffffff16565b90506000610a59610a5483610a468a60400151613538565b61366a90919063ffffffff16565b6137fa565b9050610a7a610a7588602001518361335c90919063ffffffff16565b61384f565b94505050505092915050565b6000600f6000838152602001908152602001600020805490509050919050565b600460009054906101000a900473ffffffffffffffffffffffffffffffffffffffff1673ffffffffffffffffffffffffffffffffffffffff166329cb364f336040518263ffffffff1660e01b8152600401610b0191906152d5565b602060405180830381865afa158015610b1e573d6000803e3d6000fd5b505050506040513d601f19601f82011682018060405250810190610b429190615cab565b610b81576040517f08c379a0000000000000000000000000000000000000000000000000000000008152600401610b7890615d24565b60405180910390fd5b82821115610bc4576040517f08c379a0000000000000000000000000000000000000000000000000000000008152600401610bbb90615db6565b60405180910390fd5b60018110158015610bd757506016548111155b610c16576040517f08c379a0000000000000000000000000000000000000000000000000000000008152600401610c0d90615e22565b60405180910390fd5b6000610c56610c3e610c27866132d0565b610c30866132d0565b61335c90919063ffffffff16565b610c4860016132d0565b61386c90919063ffffffff16565b9050610c6d6015548261339190919063ffffffff16565b610cac576040517f08c379a0000000000000000000000000000000000000000000000000000000008152600401610ca390615e8e565b60405180910390fd5b610cf933308560028054906101000a900473ffffffffffffffffffffffffffffffffffffffff1673ffffffffffffffffffffffffffffffffffffffff1661389a909392919063ffffffff16565b600f600086815260200190815260200160002060405180608001604052803373ffffffffffffffffffffffffffffffffffffffff16815260200186815260200185815260200184815250908060018154018082558091505060019003906000526020600020906004020160009091909190915060008201518160000160006101000a81548173ffffffffffffffffffffffffffffffffffffffff021916908373ffffffffffffffffffffffffffffffffffffffff16021790555060208201518160010155604082015181600201556060820151816003015550505050505050565b60155481565b6000600d54905090565b600080601060008481526020019081526020016000206040518060e00160405290816000820160009054906101000a900473ffffffffffffffffffffffffffffffffffffffff1673ffffffffffffffffffffffffffffffffffffffff1673ffffffffffffffffffffffffffffffffffffffff16815260200160018201548152602001600282015481526020016003820154815260200160048201548152602001600582015481526020016006820154815250509050600073ffffffffffffffffffffffffffffffffffffffff16816000015173ffffffffffffffffffffffffffffffffffffffff1603610ee1576000915050610f2c565b610eea83613923565b15610f26576000610efa82613a38565b42610f059190615b17565b90506014548111610f1b57600292505050610f2c565b600392505050610f2c565b60019150505b919050565b6060600f6000838152602001908152602001600020805480602002602001604051908101604052809291908181526020016000905b8282101561100c57838290600052602060002090600402016040518060800160405290816000820160009054906101000a900473ffffffffffffffffffffffffffffffffffffffff1673ffffffffffffffffffffffffffffffffffffffff1673ffffffffffffffffffffffffffffffffffffffff168152602001600182015481526020016002820154815260200160038201548152505081526020019060010190610f66565b505050509050919050565b6000600260019054906101000a900460ff1615905080801561104b57506001600260009054906101000a900460ff1660ff16105b8061107a575061105a30613ae3565b15801561107957506001600260009054906101000a900460ff1660ff16145b5b6110b9576040517f08c379a00000000000000000000000000000000000000000000000000000000081526004016110b090615f20565b60405180910390fd5b6001600260006101000a81548160ff021916908360ff16021790555080156110f7576001600260016101000a81548160ff0219169083151502179055505b82600360006101000a81548173ffffffffffffffffffffffffffffffffffffffff021916908373ffffffffffffffffffffffffffffffffffffffff16021790555081600460006101000a81548173ffffffffffffffffffffffffffffffffffffffff021916908373ffffffffffffffffffffffffffffffffffffffff16021790555080156111d3576000600260016101000a81548160ff0219169083151502179055507f7f26b83ff96e1f2b6a682f133852f6798a09c465da95921460cefb384740249860016040516111ca9190615f88565b60405180910390a15b505050565b6000600e54905090565b60055481565b6000600f600084815260200190815260200160002090506000818381548110611214576112136159d0565b5b90600052602060002090600402016040518060800160405290816000820160009054906101000a900473ffffffffffffffffffffffffffffffffffffffff1673ffffffffffffffffffffffffffffffffffffffff1673ffffffffffffffffffffffffffffffffffffffff16815260200160018201548152602001600282015481526020016003820154815250509050806000015173ffffffffffffffffffffffffffffffffffffffff163373ffffffffffffffffffffffffffffffffffffffff1614611315576040517f08c379a000000000000000000000000000000000000000000000000000000000815260040161130c90615fef565b60405180910390fd5b600082600184805490506113299190615b17565b8154811061133a576113396159d0565b5b90600052602060002090600402016040518060800160405290816000820160009054906101000a900473ffffffffffffffffffffffffffffffffffffffff1673ffffffffffffffffffffffffffffffffffffffff1673ffffffffffffffffffffffffffffffffffffffff16815260200160018201548152602001600282015481526020016003820154815250509050808385815481106113dd576113dc6159d0565b5b906000526020600020906004020160008201518160000160006101000a81548173ffffffffffffffffffffffffffffffffffffffff021916908373ffffffffffffffffffffffffffffffffffffffff160217905550602082015181600101556040820151816002015560608201518160030155905050828054806114645761146361600f565b5b6001900381819060005260206000209060040201600080820160006101000a81549073ffffffffffffffffffffffffffffffffffffffff02191690556001820160009055600282016000905560038201600090555050905561150f8260000151836040015160028054906101000a900473ffffffffffffffffffffffffffffffffffffffff1673ffffffffffffffffffffffffffffffffffffffff16613b069092919063ffffffff16565b5050505050565b60075481565b611524613b8c565b61152e6000613c0a565b565b60006005546006546115429190615b17565b905090565b600061155d826011613cce90919063ffffffff16565b9050919050565b60065481565b600c81565b6301e1338081565b60008060009054906101000a900473ffffffffffffffffffffffffffffffffffffffff16905090565b60008160400151826020015114806115bd57506115bc8261087c565b5b9050919050565b60165481565b60006115d66011613ce8565b905090565b6000611695601060008481526020019081526020016000206040518060e00160405290816000820160009054906101000a900473ffffffffffffffffffffffffffffffffffffffff1673ffffffffffffffffffffffffffffffffffffffff1673ffffffffffffffffffffffffffffffffffffffff1681526020016001820154815260200160028201548152602001600382015481526020016004820154815260200160058201548152602001600682015481525050613cfd565b9050919050565b60106020528060005260406000206000915090508060000160009054906101000a900473ffffffffffffffffffffffffffffffffffffffff16908060010154908060020154908060030154908060040154908060050154908060060154905087565b611706614f9a565b601060008381526020019081526020016000206040518060e00160405290816000820160009054906101000a900473ffffffffffffffffffffffffffffffffffffffff1673ffffffffffffffffffffffffffffffffffffffff1673ffffffffffffffffffffffffffffffffffffffff16815260200160018201548152602001600282015481526020016003820154815260200160048201548152602001600582015481526020016006820154815250509050919050565b6117c5613b8c565b60005b8383905081101561189d5781600160008686858181106117eb576117ea6159d0565b5b90506020020160208101906118009190615299565b7bffffffffffffffffffffffffffffffffffffffffffffffffffffffff19167bffffffffffffffffffffffffffffffffffffffffffffffffffffffff1916815260200190815260200160002060006101000a81548173ffffffffffffffffffffffffffffffffffffffff021916908373ffffffffffffffffffffffffffffffffffffffff16021790555080806118959061603e565b9150506117c8565b50505050565b6118ab613b8c565b600073ffffffffffffffffffffffffffffffffffffffff168173ffffffffffffffffffffffffffffffffffffffff160361191a576040517f08c379a0000000000000000000000000000000000000000000000000000000008152600401611911906160f8565b60405180910390fd5b61192381613c0a565b50565b600c6301e133806119379190615c0c565b81565b6000600460009054906101000a900473ffffffffffffffffffffffffffffffffffffffff1673ffffffffffffffffffffffffffffffffffffffff16636352211e846040518263ffffffff1660e01b81526004016119979190615420565b602060405180830381865afa1580156119b4573d6000803e3d6000fd5b505050506040513d601f19601f820116820180604052508101906119d8919061612d565b9050600060038111156119ee576119ed615525565b5b6119f784610dea565b6003811115611a0957611a08615525565b5b14611a49576040517f08c379a0000000000000000000000000000000000000000000000000000000008152600401611a40906161a6565b60405180910390fd5b8073ffffffffffffffffffffffffffffffffffffffff163373ffffffffffffffffffffffffffffffffffffffff1614611ab7576040517f08c379a0000000000000000000000000000000000000000000000000000000008152600401611aae90616212565b60405180910390fd5b6000600f60008581526020019081526020016000208381548110611ade57611add6159d0565b5b90600052602060002090600402016040518060800160405290816000820160009054906101000a900473ffffffffffffffffffffffffffffffffffffffff1673ffffffffffffffffffffffffffffffffffffffff1673ffffffffffffffffffffffffffffffffffffffff168152602001600182015481526020016002820154815260200160038201548152505090506000611b98611b93600b54611b8585602001516132d0565b613d3590919063ffffffff16565b61384f565b90508060136000828254611bac9190616232565b925050819055508082602001511015611bfa576040517f08c379a0000000000000000000000000000000000000000000000000000000008152600401611bf1906162d8565b60405180910390fd5b6000818360200151611c0c9190615b17565b9050611c59848260028054906101000a900473ffffffffffffffffffffffffffffffffffffffff1673ffffffffffffffffffffffffffffffffffffffff16613b069092919063ffffffff16565b8260400151836020015103611d0257600460009054906101000a900473ffffffffffffffffffffffffffffffffffffffff1673ffffffffffffffffffffffffffffffffffffffff166342842e0e858560000151896040518463ffffffff1660e01b8152600401611ccb939291906162f8565b600060405180830381600087803b158015611ce557600080fd5b505af1158015611cf9573d6000803e3d6000fd5b50505050611f34565b600460009054906101000a900473ffffffffffffffffffffffffffffffffffffffff1673ffffffffffffffffffffffffffffffffffffffff166342842e0e8530896040518463ffffffff1660e01b8152600401611d61939291906162f8565b600060405180830381600087803b158015611d7b57600080fd5b505af1158015611d8f573d6000803e3d6000fd5b50505050600083604001518460200151611da99190615b17565b9050600060016000630feee81e60e01b7bffffffffffffffffffffffffffffffffffffffffffffffffffffffff19167bffffffffffffffffffffffffffffffffffffffffffffffffffffffff1916815260200190815260200160002060009054906101000a900473ffffffffffffffffffffffffffffffffffffffff1673ffffffffffffffffffffffffffffffffffffffff16856000015189848860600151604051602401611e5b949392919061632f565b604051602081830303815290604052630feee81e60e01b6020820180517bffffffffffffffffffffffffffffffffffffffffffffffffffffffff8381831617835250505050604051611ead91906163e5565b600060405180830381855af49150503d8060008114611ee8576040519150601f19603f3d011682016040523d82523d6000602084013e611eed565b606091505b5050905080611f31576040517f08c379a0000000000000000000000000000000000000000000000000000000008152600401611f2890616448565b60405180910390fd5b50505b505050505050565b6000601060008481526020019081526020016000206040518060e00160405290816000820160009054906101000a900473ffffffffffffffffffffffffffffffffffffffff1673ffffffffffffffffffffffffffffffffffffffff1673ffffffffffffffffffffffffffffffffffffffff168152602001600182015481526020016002820154815260200160038201548152602001600482015481526020016005820154815260200160068201548152505090506001600381111561200457612003615525565b5b61200d84610dea565b600381111561201f5761201e615525565b5b1461205f576040517f08c379a0000000000000000000000000000000000000000000000000000000008152600401612056906164b4565b60405180910390fd5b806000015173ffffffffffffffffffffffffffffffffffffffff163373ffffffffffffffffffffffffffffffffffffffff16146120d1576040517f08c379a00000000000000000000000000000000000000000000000000000000081526004016120c890616520565b60405180910390fd5b6000600f600085815260200190815260200160002083815481106120f8576120f76159d0565b5b90600052602060002090600402016040518060800160405290816000820160009054906101000a900473ffffffffffffffffffffffffffffffffffffffff1673ffffffffffffffffffffffffffffffffffffffff1673ffffffffffffffffffffffffffffffffffffffff1681526020016001820154815260200160028201548152602001600382015481525050905060006121b26121ad600b5461219f85602001516132d0565b613d3590919063ffffffff16565b61384f565b905080601360008282546121c69190616232565b9250508190555060006121d8866115db565b90508360800151600560008282546121f09190615b17565b9250508190555080600660008282546122099190616232565b925050819055506000828286608001516122239190616232565b61222d9190616232565b90508084602001511015612276576040517f08c379a000000000000000000000000000000000000000000000000000000000815260040161226d906165b2565b60405180910390fd5b60008185602001516122889190615b17565b90506122d986600001518260028054906101000a900473ffffffffffffffffffffffffffffffffffffffff1673ffffffffffffffffffffffffffffffffffffffff16613b069092919063ffffffff16565b846040015185602001510361238257600460009054906101000a900473ffffffffffffffffffffffffffffffffffffffff1673ffffffffffffffffffffffffffffffffffffffff166342842e0e3087600001518b6040518463ffffffff1660e01b815260040161234b939291906162f8565b600060405180830381600087803b15801561236557600080fd5b505af1158015612379573d6000803e3d6000fd5b50505050612523565b6000856040015186602001516123989190615b17565b9050600060016000630feee81e60e01b7bffffffffffffffffffffffffffffffffffffffffffffffffffffffff19167bffffffffffffffffffffffffffffffffffffffffffffffffffffffff1916815260200190815260200160002060009054906101000a900473ffffffffffffffffffffffffffffffffffffffff1673ffffffffffffffffffffffffffffffffffffffff1687600001518b848a6060015160405160240161244a949392919061632f565b604051602081830303815290604052630feee81e60e01b6020820180517bffffffffffffffffffffffffffffffffffffffffffffffffffffffff838183161783525050505060405161249c91906163e5565b600060405180830381855af49150503d80600081146124d7576040519150601f19603f3d011682016040523d82523d6000602084013e6124dc565b606091505b5050905080612520576040517f08c379a000000000000000000000000000000000000000000000000000000000815260040161251790616448565b60405180910390fd5b50505b5050505050505050565b6000601060008481526020019081526020016000206040518060e00160405290816000820160009054906101000a900473ffffffffffffffffffffffffffffffffffffffff1673ffffffffffffffffffffffffffffffffffffffff1673ffffffffffffffffffffffffffffffffffffffff16815260200160018201548152602001600282015481526020016003820154815260200160048201548152602001600582015481526020016006820154815250509050600260038111156125f5576125f4615525565b5b6125fe84610dea565b60038111156126105761260f615525565b5b14612650576040517f08c379a00000000000000000000000000000000000000000000000000000000081526004016126479061661e565b60405180910390fd5b806000015173ffffffffffffffffffffffffffffffffffffffff163373ffffffffffffffffffffffffffffffffffffffff16146126c2576040517f08c379a00000000000000000000000000000000000000000000000000000000081526004016126b990616520565b60405180910390fd5b6000600f600085815260200190815260200160002083815481106126e9576126e86159d0565b5b90600052602060002090600402016040518060800160405290816000820160009054906101000a900473ffffffffffffffffffffffffffffffffffffffff1673ffffffffffffffffffffffffffffffffffffffff1673ffffffffffffffffffffffffffffffffffffffff1681526020016001820154815260200160028201548152602001600382015481525050905060006127a361279e600b5461279085602001516132d0565b613d3590919063ffffffff16565b61384f565b905060006127d06127cb600e546127bd86602001516132d0565b613d3590919063ffffffff16565b61384f565b905080826127de9190616232565b601360008282546127ef9190616232565b925050819055506000612801876115db565b90508460800151600560008282546128199190615b17565b9250508190555080600660008282546128329190616232565b925050819055506000828483886080015161284d9190616232565b6128579190616232565b6128619190616232565b905080856020015110156128aa576040517f08c379a00000000000000000000000000000000000000000000000000000000081526004016128a19061668a565b60405180910390fd5b60008186602001516128bc9190615b17565b905061290d87600001518260028054906101000a900473ffffffffffffffffffffffffffffffffffffffff1673ffffffffffffffffffffffffffffffffffffffff16613b069092919063ffffffff16565b85604001518660200151036129b657600460009054906101000a900473ffffffffffffffffffffffffffffffffffffffff1673ffffffffffffffffffffffffffffffffffffffff166342842e0e3088600001518c6040518463ffffffff1660e01b815260040161297f939291906162f8565b600060405180830381600087803b15801561299957600080fd5b505af11580156129ad573d6000803e3d6000fd5b50505050612b57565b6000866040015187602001516129cc9190615b17565b9050600060016000630feee81e60e01b7bffffffffffffffffffffffffffffffffffffffffffffffffffffffff19167bffffffffffffffffffffffffffffffffffffffffffffffffffffffff1916815260200190815260200160002060009054906101000a900473ffffffffffffffffffffffffffffffffffffffff1673ffffffffffffffffffffffffffffffffffffffff1688600001518c848b60600151604051602401612a7e949392919061632f565b604051602081830303815290604052630feee81e60e01b6020820180517bffffffffffffffffffffffffffffffffffffffffffffffffffffffff8381831617835250505050604051612ad091906163e5565b600060405180830381855af49150503d8060008114612b0b576040519150601f19603f3d011682016040523d82523d6000602084013e612b10565b606091505b5050905080612b54576040517f08c379a0000000000000000000000000000000000000000000000000000000008152600401612b4b90616448565b60405180910390fd5b50505b505050505050505050565b6000601060008481526020019081526020016000206040518060e00160405290816000820160009054906101000a900473ffffffffffffffffffffffffffffffffffffffff1673ffffffffffffffffffffffffffffffffffffffff1673ffffffffffffffffffffffffffffffffffffffff16815260200160018201548152602001600282015481526020016003820154815260200160048201548152602001600582015481526020016006820154815250509050600380811115612c2957612c28615525565b5b612c3284610dea565b6003811115612c4457612c43615525565b5b14612c84576040517f08c379a0000000000000000000000000000000000000000000000000000000008152600401612c7b906166f6565b60405180910390fd5b6000600f60008581526020019081526020016000208381548110612cab57612caa6159d0565b5b90600052602060002090600402016040518060800160405290816000820160009054906101000a900473ffffffffffffffffffffffffffffffffffffffff1673ffffffffffffffffffffffffffffffffffffffff1673ffffffffffffffffffffffffffffffffffffffff168152602001600182015481526020016002820154815260200160038201548152505090506000612d65612d60600b54612d5285602001516132d0565b613d3590919063ffffffff16565b61384f565b90506000612d92612d8d600e54612d7f86602001516132d0565b613d3590919063ffffffff16565b61384f565b90508082612da09190616232565b60136000828254612db19190616232565b925050819055506000612dc3876115db565b9050846080015160056000828254612ddb9190615b17565b925050819055508060066000828254612df49190616232565b9250508190555060008284838860800151612e0f9190616232565b612e199190616232565b612e239190616232565b90508085602001511015612e6c576040517f08c379a0000000000000000000000000000000000000000000000000000000008152600401612e639061668a565b60405180910390fd5b6000818660200151612e7e9190615b17565b9050612ecf87600001518260028054906101000a900473ffffffffffffffffffffffffffffffffffffffff1673ffffffffffffffffffffffffffffffffffffffff16613b069092919063ffffffff16565b8560400151866020015103612f7857600460009054906101000a900473ffffffffffffffffffffffffffffffffffffffff1673ffffffffffffffffffffffffffffffffffffffff166342842e0e3088600001518c6040518463ffffffff1660e01b8152600401612f41939291906162f8565b600060405180830381600087803b158015612f5b57600080fd5b505af1158015612f6f573d6000803e3d6000fd5b50505050613119565b600086604001518760200151612f8e9190615b17565b9050600060016000630feee81e60e01b7bffffffffffffffffffffffffffffffffffffffffffffffffffffffff19167bffffffffffffffffffffffffffffffffffffffffffffffffffffffff1916815260200190815260200160002060009054906101000a900473ffffffffffffffffffffffffffffffffffffffff1673ffffffffffffffffffffffffffffffffffffffff1688600001518c848b60600151604051602401613040949392919061632f565b604051602081830303815290604052630feee81e60e01b6020820180517bffffffffffffffffffffffffffffffffffffffffffffffffffffffff838183161783525050505060405161309291906163e5565b600060405180830381855af49150503d80600081146130cd576040519150601f19603f3d011682016040523d82523d6000602084013e6130d2565b606091505b5050905080613116576040517f08c379a000000000000000000000000000000000000000000000000000000000815260040161310d90616448565b60405180910390fd5b50505b505050505050505050565b600082600184805490506131389190615b17565b81548110613149576131486159d0565b5b90600052602060002090600402016040518060800160405290816000820160009054906101000a900473ffffffffffffffffffffffffffffffffffffffff1673ffffffffffffffffffffffffffffffffffffffff1673ffffffffffffffffffffffffffffffffffffffff16815260200160018201548152602001600282015481526020016003820154815250509050808383815481106131ec576131eb6159d0565b5b906000526020600020906004020160008201518160000160006101000a81548173ffffffffffffffffffffffffffffffffffffffff021916908373ffffffffffffffffffffffffffffffffffffffff160217905550602082015181600101556040820151816002015560608201518160030155905050828054806132735761327261600f565b5b6001900381819060005260206000209060040201600080820160006101000a81549073ffffffffffffffffffffffffffffffffffffffff021916905560018201600090556002820160009055600382016000905550509055505050565b6000670de0b6b3a76400007fffffffffffffffffffffffffffffffffffffffffffffffffffffffffffffffff6133069190615c0c565b82111561334a57816040517f1cd951a70000000000000000000000000000000000000000000000000000000081526004016133419190615420565b60405180910390fd5b670de0b6b3a764000082029050919050565b600061338961338461336d85613d61565b670de0b6b3a764000061337f86613d61565b613d6b565b613e85565b905092915050565b600061339c82613d61565b6133a584613d61565b1115905092915050565b60006301e133808260a00151600c6133c79190615c3d565b6133d19190615c0c565b9050919050565b6000670de0b6b3a76400007f800000000000000000000000000000000000000000000000000000000000000061340e9190616720565b82121561345257816040517f99474eeb0000000000000000000000000000000000000000000000000000000081526004016134499190616799565b60405180910390fd5b670de0b6b3a76400007f7fffffffffffffffffffffffffffffffffffffffffffffffffffffffffffffff6134869190616720565b8213156134ca57816040517f9d5810910000000000000000000000000000000000000000000000000000000081526004016134c19190616799565b60405180910390fd5b670de0b6b3a764000082029050919050565b60006135026134ea83613e8f565b6134f385613e8f565b6134fd91906167b4565b613e99565b905092915050565b600061353061351883613d61565b61352185613d61565b61352b9190616232565b613e85565b905092915050565b6000808290507f7fffffffffffffffffffffffffffffffffffffffffffffffffffffffffffffff8111156135a357826040517ff461868400000000000000000000000000000000000000000000000000000000815260040161359a919061550a565b60405180910390fd5b80915050919050565b6000806135b884613e8f565b905060006135c584613e8f565b9050600082036135f157600081146135de5760006135e8565b670de0b6b3a76400005b92505050613664565b670de0b6b3a7640000820361361257670de0b6b3a764000092505050613664565b6000810361362c57670de0b6b3a764000092505050613664565b670de0b6b3a76400008103613645578492505050613664565b61365f61365a61365487613ea3565b8661366a565b614036565b925050505b92915050565b60008061367684613e8f565b9050600061368384613e8f565b90507f80000000000000000000000000000000000000000000000000000000000000008214806136d257507f800000000000000000000000000000000000000000000000000000000000000081145b15613709576040517fa6070c2500000000000000000000000000000000000000000000000000000000815260040160405180910390fd5b6000806000841261371a578361371f565b836000035b91506000831261372f5782613734565b826000035b905060006137428383614154565b90507f7fffffffffffffffffffffffffffffffffffffffffffffffffffffffffffffff8111156137ab5787876040517f120b5b430000000000000000000000000000000000000000000000000000000081526004016137a2929190616828565b60405180910390fd5b60007fffffffffffffffffffffffffffffffffffffffffffffffffffffffffffffffff8587181390506137ec816137e557826000036137e7565b825b613e99565b965050505050505092915050565b600080829050600081121561384657826040517fbba41a1500000000000000000000000000000000000000000000000000000000815260040161383d9190616851565b60405180910390fd5b80915050919050565b6000670de0b6b3a7640000826138659190615c0c565b9050919050565b600061389261387a83613d61565b61388385613d61565b61388d9190615b17565b613e85565b905092915050565b61391d846323b872dd60e01b8585856040516024016138bb939291906162f8565b604051602081830303815290604052907bffffffffffffffffffffffffffffffffffffffffffffffffffffffff19166020820180517bffffffffffffffffffffffffffffffffffffffffffffffffffffffff838183161783525050505061423e565b50505050565b600080601060008481526020019081526020016000206040518060e00160405290816000820160009054906101000a900473ffffffffffffffffffffffffffffffffffffffff1673ffffffffffffffffffffffffffffffffffffffff1673ffffffffffffffffffffffffffffffffffffffff1681526020016001820154815260200160028201548152602001600382015481526020016004820154815260200160058201548152602001600682015481525050905060006139e382614305565b90506000600c6301e133808460a001516139fd9190615c0c565b613a079190615c3d565b905080821115613a1d5760019350505050613a33565b613a278383610924565b83608001511193505050505b919050565b600080613a4483614305565b905060008190505b6000811115613adc576000613a618583610924565b90506000613a7b86600185613a769190615b17565b610924565b9050818660800151118015613a94575080866080015111155b15613ac757600c6301e13380613aaa9190615c0c565b83613ab59190615c3d565b8660600151613ac49190616232565b94505b50508080613ad49061686c565b915050613a4c565b5050919050565b6000808273ffffffffffffffffffffffffffffffffffffffff163b119050919050565b613b878363a9059cbb60e01b8484604051602401613b25929190616895565b604051602081830303815290604052907bffffffffffffffffffffffffffffffffffffffffffffffffffffffff19166020820180517bffffffffffffffffffffffffffffffffffffffffffffffffffffffff838183161783525050505061423e565b505050565b613b9461435a565b73ffffffffffffffffffffffffffffffffffffffff16613bb2611577565b73ffffffffffffffffffffffffffffffffffffffff1614613c08576040517f08c379a0000000000000000000000000000000000000000000000000000000008152600401613bff9061690a565b60405180910390fd5b565b60008060009054906101000a900473ffffffffffffffffffffffffffffffffffffffff169050816000806101000a81548173ffffffffffffffffffffffffffffffffffffffff021916908373ffffffffffffffffffffffffffffffffffffffff1602179055508173ffffffffffffffffffffffffffffffffffffffff168173ffffffffffffffffffffffffffffffffffffffff167f8be0079c531659141344cd1fd0a4f28419497f9722a3daafe3b4186f6b6457e060405160405180910390a35050565b6000613cdd8360000183614362565b60001c905092915050565b6000613cf68260000161438d565b9050919050565b6000613d2e613d29613d0e8461439e565b613d1b85608001516132d0565b613d3590919063ffffffff16565b61384f565b9050919050565b6000613d59613d54613d4685613d61565b613d4f85613d61565b614154565b613e85565b905092915050565b6000819050919050565b6000806000801985870985870292508281108382030391505060008103613da657838281613d9c57613d9b615bdd565b5b0492505050613e7e565b838110613dee578585856040517f63a05778000000000000000000000000000000000000000000000000000000008152600401613de59392919061692a565b60405180910390fd5b60008486880990508281118203915080830392506000600186190186169050600081870496508185049450600182836000030401905080840285179450600060028860030218905080880260020381029050808802600203810290508088026002038102905080880260020381029050808802600203810290508088026002038102905080860296505050505050505b9392505050565b6000819050919050565b6000819050919050565b6000819050919050565b600080613eaf83613e8f565b905060008113613ef657826040517f059b101b000000000000000000000000000000000000000000000000000000008152600401613eed9190616851565b60405180910390fd5b6000670de0b6b3a76400008212613f105760019050613f56565b7fffffffffffffffffffffffffffffffffffffffffffffffffffffffffffffffff9050816ec097ce7bc90715b34b9f100000000081613f5257613f51615bdd565b5b0591505b6000613f79670de0b6b3a76400008481613f7357613f72615bdd565b5b056143ce565b90506000670de0b6b3a76400008202905060008285901d9050670de0b6b3a76400008103613fb857613fac848302613e99565b95505050505050614031565b6000671bc16d674ec80000905060006706f05b59d3b2000090505b600081131561401957670de0b6b3a764000083840281613ff657613ff5615bdd565b5b05925081831261400d578084019350600183901d92505b600181901d9050613fd3565b50848302925061402883613e99565b96505050505050505b919050565b60008061404283613e8f565b905060008112156140c9577ffffffffffffffffffffffffffffffffffffffffffffffffcc22e87f6eb468eeb81121561407f57600091505061414f565b6140c261409e61409961409484600003613e99565b614036565b613e8f565b6ec097ce7bc90715b34b9f1000000000816140bc576140bb615bdd565b5b05613e99565b915061414d565b680a688906bd8affffff81131561411757826040517f0360d02800000000000000000000000000000000000000000000000000000000815260040161410e9190616851565b60405180910390fd5b6000670de0b6b3a7640000604083901b8161413557614134615bdd565b5b05905061414961414482614477565b613e99565b9250505b505b919050565b600080600080198486098486029250828110838203039150506000810361419757670de0b6b3a7640000828161418d5761418c615bdd565b5b0492505050614238565b670de0b6b3a764000081106141e55784846040517f5173648d0000000000000000000000000000000000000000000000000000000081526004016141dc929190616961565b60405180910390fd5b6000670de0b6b3a764000085870990507faccb18165bd6fe31ae1cf318dc5b51eee0e1ba569b88cd74c1773b91fac106696001620400008060000304018483118403026204000083860304170293505050505b92915050565b60006142a0826040518060400160405280602081526020017f5361666545524332303a206c6f772d6c6576656c2063616c6c206661696c65648152508573ffffffffffffffffffffffffffffffffffffffff16614dd79092919063ffffffff16565b905060008151111561430057808060200190518101906142c09190615cab565b6142ff576040517f08c379a00000000000000000000000000000000000000000000000000000000081526004016142f6906169fc565b60405180910390fd5b5b505050565b600080600c6301e133806143199190615c0c565b8360600151426143299190615b17565b6143339190615c0c565b90506000614340846133af565b905080821161434f5781614351565b805b92505050919050565b600033905090565b600082600001828154811061437a576143796159d0565b5b9060005260206000200154905092915050565b600081600001805490509050919050565b60006143c76143b46143af84614def565b6132d0565b8360200151613d3590919063ffffffff16565b9050919050565b60006fffffffffffffffffffffffffffffffff821160071b82811c925080821791505067ffffffffffffffff821160061b82811c925080821791505063ffffffff821160051b82811c925080821791505061ffff821160041b82811c925080821791505060ff821160031b82811c9250808217915050600f821160021b82811c92508082179150506003821160011b82811c925080821791505060018211808217915050919050565b6000778000000000000000000000000000000000000000000000009050600067ff00000000000000831611156145d8576000678000000000000000831611156144cd57604068016a09e667f3bcc9098202901c90505b6000674000000000000000831611156144f35760406801306fe0a31b7152df8202901c90505b6000672000000000000000831611156145195760406801172b83c7d517adce8202901c90505b60006710000000000000008316111561453f57604068010b5586cf9890f62a8202901c90505b6000670800000000000000831611156145655760406801059b0d31585743ae8202901c90505b60006704000000000000008316111561458b576040680102c9a3e778060ee78202901c90505b6000670200000000000000831611156145b157604068010163da9fb33356d88202901c90505b6000670100000000000000831611156145d7576040680100b1afa5abcbed618202901c90505b5b600066ff0000000000008316111561471357600066800000000000008316111561460f57604068010058c86da1c09ea28202901c90505b60006640000000000000831611156146345760406801002c605e2e8cec508202901c90505b6000662000000000000083161115614659576040680100162f3904051fa18202901c90505b600066100000000000008316111561467e5760406801000b175effdc76ba8202901c90505b60006608000000000000831611156146a3576040680100058ba01fb9f96d8202901c90505b60006604000000000000831611156146c857604068010002c5cc37da94928202901c90505b60006602000000000000831611156146ed5760406801000162e525ee05478202901c90505b600066010000000000008316111561471257604068010000b17255775c048202901c90505b5b600065ff00000000008316111561484557600065800000000000831611156147485760406801000058b91b5bc9ae8202901c90505b6000654000000000008316111561476c576040680100002c5c89d5ec6d8202901c90505b6000652000000000008316111561479057604068010000162e43f4f8318202901c90505b600065100000000000831611156147b4576040680100000b1721bcfc9a8202901c90505b600065080000000000831611156147d857604068010000058b90cf1e6e8202901c90505b600065040000000000831611156147fc5760406801000002c5c863b73f8202901c90505b60006502000000000083161115614820576040680100000162e430e5a28202901c90505b600065010000000000831611156148445760406801000000b1721835518202901c90505b5b600064ff000000008316111561496e57600064800000000083161115614878576040680100000058b90c0b498202901c90505b60006440000000008316111561489b57604068010000002c5c8601cc8202901c90505b6000642000000000831611156148be5760406801000000162e42fff08202901c90505b6000641000000000831611156148e157604068010000000b17217fbb8202901c90505b6000640800000000831611156149045760406801000000058b90bfce8202901c90505b600064040000000083161115614927576040680100000002c5c85fe38202901c90505b60006402000000008316111561494a57604068010000000162e42ff18202901c90505b60006401000000008316111561496d576040680100000000b17217f88202901c90505b5b600063ff00000083161115614a8e57600063800000008316111561499f57604068010000000058b90bfc8202901c90505b60006340000000831611156149c15760406801000000002c5c85fe8202901c90505b60006320000000831611156149e3576040680100000000162e42ff8202901c90505b6000631000000083161115614a055760406801000000000b17217f8202901c90505b6000630800000083161115614a27576040680100000000058b90c08202901c90505b6000630400000083161115614a4957604068010000000002c5c8608202901c90505b6000630200000083161115614a6b5760406801000000000162e4308202901c90505b6000630100000083161115614a8d57604068010000000000b172188202901c90505b5b600062ff000083161115614ba55760006280000083161115614abd5760406801000000000058b90c8202901c90505b60006240000083161115614ade576040680100000000002c5c868202901c90505b60006220000083161115614aff57604068010000000000162e438202901c90505b60006210000083161115614b20576040680100000000000b17218202901c90505b60006208000083161115614b4157604068010000000000058b918202901c90505b60006204000083161115614b625760406801000000000002c5c88202901c90505b60006202000083161115614b83576040680100000000000162e48202901c90505b60006201000083161115614ba45760406801000000000000b1728202901c90505b5b600061ff0083161115614cb357600061800083161115614bd2576040680100000000000058b98202901c90505b600061400083161115614bf257604068010000000000002c5d8202901c90505b600061200083161115614c125760406801000000000000162e8202901c90505b600061100083161115614c3257604068010000000000000b178202901c90505b600061080083161115614c525760406801000000000000058c8202901c90505b600061040083161115614c72576040680100000000000002c68202901c90505b600061020083161115614c92576040680100000000000001638202901c90505b600061010083161115614cb2576040680100000000000000b18202901c90505b5b600060ff83161115614db8576000608083161115614cde576040680100000000000000598202901c90505b6000604083161115614cfd5760406801000000000000002c8202901c90505b6000602083161115614d1c576040680100000000000000168202901c90505b6000601083161115614d3b5760406801000000000000000b8202901c90505b6000600883161115614d5a576040680100000000000000068202901c90505b6000600483161115614d79576040680100000000000000038202901c90505b6000600283161115614d98576040680100000000000000018202901c90505b6000600183161115614db7576040680100000000000000018202901c90505b5b670de0b6b3a764000081029050604082901c60bf0381901c9050919050565b6060614de68484600085614e08565b90509392505050565b60008160c0015142614e019190615b17565b9050919050565b606082471015614e4d576040517f08c379a0000000000000000000000000000000000000000000000000000000008152600401614e4490616a8e565b60405180910390fd5b6000808673ffffffffffffffffffffffffffffffffffffffff168587604051614e7691906163e5565b60006040518083038185875af1925050503d8060008114614eb3576040519150601f19603f3d011682016040523d82523d6000602084013e614eb8565b606091505b5091509150614ec987838387614ed5565b92505050949350505050565b60608315614f37576000835103614f2f57614eef85613ae3565b614f2e576040517f08c379a0000000000000000000000000000000000000000000000000000000008152600401614f2590616afa565b60405180910390fd5b5b829050614f42565b614f418383614f4a565b5b949350505050565b600082511115614f5d5781518083602001fd5b806040517f08c379a0000000000000000000000000000000000000000000000000000000008152600401614f919190616b5e565b60405180910390fd5b6040518060e00160405280600073ffffffffffffffffffffffffffffffffffffffff1681526020016000815260200160008152602001600081526020016000815260200160008152602001600081525090565b6000604051905090565b600080fd5b600080fd5b6000819050919050565b61501481615001565b811461501f57600080fd5b50565b6000813590506150318161500b565b92915050565b6000806040838503121561504e5761504d614ff7565b5b600061505c85828601615022565b925050602061506d85828601615022565b9150509250929050565b600080fd5b6000601f19601f8301169050919050565b7f4e487b7100000000000000000000000000000000000000000000000000000000600052604160045260246000fd5b6150c58261507c565b810181811067ffffffffffffffff821117156150e4576150e361508d565b5b80604052505050565b60006150f7614fed565b905061510382826150bc565b919050565b600073ffffffffffffffffffffffffffffffffffffffff82169050919050565b600061513382615108565b9050919050565b61514381615128565b811461514e57600080fd5b50565b6000813590506151608161513a565b92915050565b60006080828403121561517c5761517b615077565b5b61518660806150ed565b9050600061519684828501615151565b60008301525060206151aa84828501615022565b60208301525060406151be84828501615022565b60408301525060606151d284828501615022565b60608301525092915050565b6000608082840312156151f4576151f3614ff7565b5b600061520284828501615166565b91505092915050565b60008115159050919050565b6152208161520b565b82525050565b600060208201905061523b6000830184615217565b92915050565b60007fffffffff0000000000000000000000000000000000000000000000000000000082169050919050565b61527681615241565b811461528157600080fd5b50565b6000813590506152938161526d565b92915050565b6000602082840312156152af576152ae614ff7565b5b60006152bd84828501615284565b91505092915050565b6152cf81615128565b82525050565b60006020820190506152ea60008301846152c6565b92915050565b6152f981615001565b811461530457600080fd5b50565b600081359050615316816152f0565b92915050565b600060e0828403121561533257615331615077565b5b61533c60e06150ed565b9050600061534c84828501615151565b600083015250602061536084828501615307565b602083015250604061537484828501615307565b604083015250606061538884828501615022565b606083015250608061539c84828501615022565b60808301525060a06153b084828501615022565b60a08301525060c06153c484828501615022565b60c08301525092915050565b60008061010083850312156153e8576153e7614ff7565b5b60006153f68582860161531c565b92505060e061540785828601615022565b9150509250929050565b61541a81615001565b82525050565b60006020820190506154356000830184615411565b92915050565b60006020828403121561545157615450614ff7565b5b600061545f84828501615022565b91505092915050565b6000806000806080858703121561548257615481614ff7565b5b600061549087828801615022565b94505060206154a187828801615022565b93505060406154b287828801615022565b92505060606154c387828801615022565b91505092959194509250565b6000819050919050565b60006154f46154ef6154ea84615001565b6154cf565b615001565b9050919050565b615504816154d9565b82525050565b600060208201905061551f60008301846154fb565b92915050565b7f4e487b7100000000000000000000000000000000000000000000000000000000600052602160045260246000fd5b6004811061556557615564615525565b5b50565b600081905061557682615554565b919050565b600061558682615568565b9050919050565b6155968161557b565b82525050565b60006020820190506155b1600083018461558d565b92915050565b600081519050919050565b600082825260208201905092915050565b6000819050602082019050919050565b6155ec81615128565b82525050565b6155fb81615001565b82525050565b60808201600082015161561760008501826155e3565b50602082015161562a60208501826155f2565b50604082015161563d60408501826155f2565b50606082015161565060608501826155f2565b50505050565b60006156628383615601565b60808301905092915050565b6000602082019050919050565b6000615686826155b7565b61569081856155c2565b935061569b836155d3565b8060005b838110156156cc5781516156b38882615656565b97506156be8361566e565b92505060018101905061569f565b5085935050505092915050565b600060208201905081810360008301526156f3818461567b565b905092915050565b600061570682615128565b9050919050565b615716816156fb565b811461572157600080fd5b50565b6000813590506157338161570d565b92915050565b600061574482615128565b9050919050565b61575481615739565b811461575f57600080fd5b50565b6000813590506157718161574b565b92915050565b6000806040838503121561578e5761578d614ff7565b5b600061579c85828601615724565b92505060206157ad85828601615762565b9150509250929050565b600060e0820190506157cc600083018a6152c6565b6157d960208301896154fb565b6157e660408301886154fb565b6157f36060830187615411565b6158006080830186615411565b61580d60a0830185615411565b61581a60c0830184615411565b98975050505050505050565b61582f816154d9565b82525050565b60e08201600082015161584b60008501826155e3565b50602082015161585e6020850182615826565b5060408201516158716040850182615826565b50606082015161588460608501826155f2565b50608082015161589760808501826155f2565b5060a08201516158aa60a08501826155f2565b5060c08201516158bd60c08501826155f2565b50505050565b600060e0820190506158d86000830184615835565b92915050565b600080fd5b600080fd5b600080fd5b60008083601f840112615903576159026158de565b5b8235905067ffffffffffffffff8111156159205761591f6158e3565b5b60208301915083602082028301111561593c5761593b6158e8565b5b9250929050565b60008060006040848603121561595c5761595b614ff7565b5b600084013567ffffffffffffffff81111561597a57615979614ffc565b5b615986868287016158ed565b9350935050602061599986828701615151565b9150509250925092565b6000602082840312156159b9576159b8614ff7565b5b60006159c784828501615151565b91505092915050565b7f4e487b7100000000000000000000000000000000000000000000000000000000600052603260045260246000fd5b600082825260208201905092915050565b7f626964206e6f7420616374696f6e61626c650000000000000000000000000000600082015250565b6000615a466012836159ff565b9150615a5182615a10565b602082019050919050565b60006020820190508181036000830152615a7581615a39565b9050919050565b7f696e76616c696420737461747573000000000000000000000000000000000000600082015250565b6000615ab2600e836159ff565b9150615abd82615a7c565b602082019050919050565b60006020820190508181036000830152615ae181615aa5565b9050919050565b7f4e487b7100000000000000000000000000000000000000000000000000000000600052601160045260246000fd5b6000615b2282615001565b9150615b2d83615001565b9250828203905081811115615b4557615b44615ae8565b5b92915050565b7f6d6f6e7468206d757374206265203c3d206c6f616e4d61784475726174696f6e60008201527f4d6f6e7468730000000000000000000000000000000000000000000000000000602082015250565b6000615ba76026836159ff565b9150615bb282615b4b565b604082019050919050565b60006020820190508181036000830152615bd681615b9a565b9050919050565b7f4e487b7100000000000000000000000000000000000000000000000000000000600052601260045260246000fd5b6000615c1782615001565b9150615c2283615001565b925082615c3257615c31615bdd565b5b828204905092915050565b6000615c4882615001565b9150615c5383615001565b9250828202615c6181615001565b91508282048414831517615c7857615c77615ae8565b5b5092915050565b615c888161520b565b8114615c9357600080fd5b50565b600081519050615ca581615c7f565b92915050565b600060208284031215615cc157615cc0614ff7565b5b6000615ccf84828501615c96565b91505092915050565b7f6f6e6c7920655265736964656e74732063616e20626964000000000000000000600082015250565b6000615d0e6017836159ff565b9150615d1982615cd8565b602082019050919050565b60006020820190508181036000830152615d3d81615d01565b9050919050565b7f646f776e5061796d656e742063616e6e6f74206578636565642070726f70657260008201527f747956616c756500000000000000000000000000000000000000000000000000602082015250565b6000615da06027836159ff565b9150615dab82615d44565b604082019050919050565b60006020820190508181036000830152615dcf81615d93565b9050919050565b7f756e616c6c6f776564206d61784475726174696f6e4d6f6e7468730000000000600082015250565b6000615e0c601b836159ff565b9150615e1782615dd6565b602082019050919050565b60006020820190508181036000830152615e3b81615dff565b9050919050565b7f6c74762063616e6e6f7420657863656564206d61784c74760000000000000000600082015250565b6000615e786018836159ff565b9150615e8382615e42565b602082019050919050565b60006020820190508181036000830152615ea781615e6b565b9050919050565b7f496e697469616c697a61626c653a20636f6e747261637420697320616c72656160008201527f647920696e697469616c697a6564000000000000000000000000000000000000602082015250565b6000615f0a602e836159ff565b9150615f1582615eae565b604082019050919050565b60006020820190508181036000830152615f3981615efd565b9050919050565b6000819050919050565b600060ff82169050919050565b6000615f72615f6d615f6884615f40565b6154cf565b615f4a565b9050919050565b615f8281615f57565b82525050565b6000602082019050615f9d6000830184615f79565b92915050565b7f6f6e6c79206269646465722063616e2072656d6f766520686973206269640000600082015250565b6000615fd9601e836159ff565b9150615fe482615fa3565b602082019050919050565b6000602082019050818103600083015261600881615fcc565b9050919050565b7f4e487b7100000000000000000000000000000000000000000000000000000000600052603160045260246000fd5b600061604982615001565b91507fffffffffffffffffffffffffffffffffffffffffffffffffffffffffffffffff820361607b5761607a615ae8565b5b600182019050919050565b7f4f776e61626c653a206e6577206f776e657220697320746865207a65726f206160008201527f6464726573730000000000000000000000000000000000000000000000000000602082015250565b60006160e26026836159ff565b91506160ed82616086565b604082019050919050565b60006020820190508181036000830152616111816160d5565b9050919050565b6000815190506161278161513a565b92915050565b60006020828403121561614357616142614ff7565b5b600061615184828501616118565b91505092915050565b7f737461747573206e6f74206e6f6e650000000000000000000000000000000000600082015250565b6000616190600f836159ff565b915061619b8261615a565b602082019050919050565b600060208201905081810360008301526161bf81616183565b9050919050565b7f63616c6c6572206e6f74206e66744f776e657200000000000000000000000000600082015250565b60006161fc6013836159ff565b9150616207826161c6565b602082019050919050565b6000602082019050818103600083015261622b816161ef565b9050919050565b600061623d82615001565b915061624883615001565b92508282019050808211156162605761625f615ae8565b5b92915050565b7f70726f706572747956616c756520646f65736e277420636f7665722073616c6560008201527f4665650000000000000000000000000000000000000000000000000000000000602082015250565b60006162c26023836159ff565b91506162cd82616266565b604082019050919050565b600060208201905081810360008301526162f1816162b5565b9050919050565b600060608201905061630d60008301866152c6565b61631a60208301856152c6565b6163276040830184615411565b949350505050565b600060808201905061634460008301876152c6565b6163516020830186615411565b61635e6040830185615411565b61636b6060830184615411565b95945050505050565b600081519050919050565b600081905092915050565b60005b838110156163a857808201518184015260208101905061638d565b60008484015250505050565b60006163bf82616374565b6163c9818561637f565b93506163d981856020860161638a565b80840191505092915050565b60006163f182846163b4565b915081905092915050565b7f73746172744c6f616e2064656c656761746543616c6c206661696c6564000000600082015250565b6000616432601d836159ff565b915061643d826163fc565b602082019050919050565b6000602082019050818103600083015261646181616425565b9050919050565b7f737461747573206e6f74206d6f72746761676500000000000000000000000000600082015250565b600061649e6013836159ff565b91506164a982616468565b602082019050919050565b600060208201905081810360008301526164cd81616491565b9050919050565b7f63616c6c6572206e6f7420626f72726f77657200000000000000000000000000600082015250565b600061650a6013836159ff565b9150616515826164d4565b602082019050919050565b60006020820190508181036000830152616539816164fd565b9050919050565b7f70726f706572747956616c756520646f65736e277420636f766572206465627460008201527f202b206665657300000000000000000000000000000000000000000000000000602082015250565b600061659c6027836159ff565b91506165a782616540565b604082019050919050565b600060208201905081810360008301526165cb8161658f565b9050919050565b7f737461747573206e6f742064656661756c740000000000000000000000000000600082015250565b60006166086012836159ff565b9150616613826165d2565b602082019050919050565b60006020820190508181036000830152616637816165fb565b9050919050565b7f70726f706572747956616c756520646f65736e277420636f7665722064656274600082015250565b60006166746020836159ff565b915061667f8261663e565b602082019050919050565b600060208201905081810360008301526166a381616667565b9050919050565b7f737461747573206e6f7420666f7265636c6f73757261626c6500000000000000600082015250565b60006166e06019836159ff565b91506166eb826166aa565b602082019050919050565b6000602082019050818103600083015261670f816166d3565b9050919050565b6000819050919050565b600061672b82616716565b915061673683616716565b92508261674657616745615bdd565b5b600160000383147f80000000000000000000000000000000000000000000000000000000000000008314161561677f5761677e615ae8565b5b828205905092915050565b61679381616716565b82525050565b60006020820190506167ae600083018461678a565b92915050565b60006167bf82616716565b91506167ca83616716565b92508282039050818112600084121682821360008512151617156167f1576167f0615ae8565b5b92915050565b600061681261680d61680884616716565b6154cf565b616716565b9050919050565b616822816167f7565b82525050565b600060408201905061683d6000830185616819565b61684a6020830184616819565b9392505050565b60006020820190506168666000830184616819565b92915050565b600061687782615001565b91506000820361688a57616889615ae8565b5b600182039050919050565b60006040820190506168aa60008301856152c6565b6168b76020830184615411565b9392505050565b7f4f776e61626c653a2063616c6c6572206973206e6f7420746865206f776e6572600082015250565b60006168f46020836159ff565b91506168ff826168be565b602082019050919050565b60006020820190508181036000830152616923816168e7565b9050919050565b600060608201905061693f6000830186615411565b61694c6020830185615411565b6169596040830184615411565b949350505050565b60006040820190506169766000830185615411565b6169836020830184615411565b9392505050565b7f5361666545524332303a204552433230206f7065726174696f6e20646964206e60008201527f6f74207375636365656400000000000000000000000000000000000000000000602082015250565b60006169e6602a836159ff565b91506169f18261698a565b604082019050919050565b60006020820190508181036000830152616a15816169d9565b9050919050565b7f416464726573733a20696e73756666696369656e742062616c616e636520666f60008201527f722063616c6c0000000000000000000000000000000000000000000000000000602082015250565b6000616a786026836159ff565b9150616a8382616a1c565b604082019050919050565b60006020820190508181036000830152616aa781616a6b565b9050919050565b7f416464726573733a2063616c6c20746f206e6f6e2d636f6e7472616374000000600082015250565b6000616ae4601d836159ff565b9150616aef82616aae565b602082019050919050565b60006020820190508181036000830152616b1381616ad7565b9050919050565b600081519050919050565b6000616b3082616b1a565b616b3a81856159ff565b9350616b4a81856020860161638a565b616b538161507c565b840191505092915050565b60006020820190508181036000830152616b788184616b25565b90509291505056fea2646970667358221220b63fe79e2427ed11904718434359721261934e865af56e78b18b1e7f076035a564736f6c63430008130033",
  "linkReferences": {},
  "deployedLinkReferences": {}
}