{
  "_format": "hh-sol-artifact-1",
  "contractName": "TangibleNft",
  "sourceName": "contracts/tokens/TangibleNft.sol",
  "abi": [
    {
      "inputs": [
        {
          "internalType": "address",
          "name": "_protocol",
          "type": "address"
        }
      ],
      "stateMutability": "nonpayable",
      "type": "constructor"
    },
    {
      "anonymous": false,
      "inputs": [
        {
          "indexed": true,
          "internalType": "address",
          "name": "owner",
          "type": "address"
        },
        {
          "indexed": true,
          "internalType": "address",
          "name": "approved",
          "type": "address"
        },
        {
          "indexed": true,
          "internalType": "uint256",
          "name": "tokenId",
          "type": "uint256"
        }
      ],
      "name": "Approval",
      "type": "event"
    },
    {
      "anonymous": false,
      "inputs": [
        {
          "indexed": true,
          "internalType": "address",
          "name": "owner",
          "type": "address"
        },
        {
          "indexed": true,
          "internalType": "address",
          "name": "operator",
          "type": "address"
        },
        {
          "indexed": false,
          "internalType": "bool",
          "name": "approved",
          "type": "bool"
        }
      ],
      "name": "ApprovalForAll",
      "type": "event"
    },
    {
      "anonymous": false,
      "inputs": [
        {
          "indexed": true,
          "internalType": "address",
          "name": "previousOwner",
          "type": "address"
        },
        {
          "indexed": true,
          "internalType": "address",
          "name": "newOwner",
          "type": "address"
        }
      ],
      "name": "OwnershipTransferred",
      "type": "event"
    },
    {
      "anonymous": false,
      "inputs": [
        {
          "indexed": true,
          "internalType": "address",
          "name": "from",
          "type": "address"
        },
        {
          "indexed": true,
          "internalType": "address",
          "name": "to",
          "type": "address"
        },
        {
          "indexed": true,
          "internalType": "uint256",
          "name": "tokenId",
          "type": "uint256"
        }
      ],
      "name": "Transfer",
      "type": "event"
    },
    {
      "inputs": [
        {
          "internalType": "address",
          "name": "",
          "type": "address"
        }
      ],
      "name": "addressToEResident",
      "outputs": [
        {
          "internalType": "uint256",
          "name": "",
          "type": "uint256"
        }
      ],
      "stateMutability": "view",
      "type": "function"
    },
    {
      "inputs": [
        {
          "internalType": "address",
          "name": "to",
          "type": "address"
        },
        {
          "internalType": "uint256",
          "name": "tokenId",
          "type": "uint256"
        }
      ],
      "name": "approve",
      "outputs": [],
      "stateMutability": "nonpayable",
      "type": "function"
    },
    {
      "inputs": [
        {
          "internalType": "address",
          "name": "owner",
          "type": "address"
        }
      ],
      "name": "balanceOf",
      "outputs": [
        {
          "internalType": "uint256",
          "name": "",
          "type": "uint256"
        }
      ],
      "stateMutability": "view",
      "type": "function"
    },
    {
      "inputs": [
        {
          "internalType": "uint256",
          "name": "",
          "type": "uint256"
        }
      ],
      "name": "eResidentToAddress",
      "outputs": [
        {
          "internalType": "address",
          "name": "",
          "type": "address"
        }
      ],
      "stateMutability": "view",
      "type": "function"
    },
    {
      "inputs": [
        {
          "internalType": "uint256",
          "name": "tokenId",
          "type": "uint256"
        }
      ],
      "name": "getApproved",
      "outputs": [
        {
          "internalType": "address",
          "name": "",
          "type": "address"
        }
      ],
      "stateMutability": "view",
      "type": "function"
    },
    {
      "inputs": [
        {
          "internalType": "address",
          "name": "owner",
          "type": "address"
        },
        {
          "internalType": "address",
          "name": "operator",
          "type": "address"
        }
      ],
      "name": "isApprovedForAll",
      "outputs": [
        {
          "internalType": "bool",
          "name": "",
          "type": "bool"
        }
      ],
      "stateMutability": "view",
      "type": "function"
    },
    {
      "inputs": [
        {
          "internalType": "address",
          "name": "addr",
          "type": "address"
        }
      ],
      "name": "isEResident",
      "outputs": [
        {
          "internalType": "bool",
          "name": "",
          "type": "bool"
        }
      ],
      "stateMutability": "view",
      "type": "function"
    },
    {
      "inputs": [
        {
          "internalType": "address",
          "name": "to",
          "type": "address"
        },
        {
          "internalType": "string",
          "name": "_tokenURI",
          "type": "string"
        }
      ],
      "name": "mint",
      "outputs": [
        {
          "internalType": "uint256",
          "name": "newTokenId",
          "type": "uint256"
        }
      ],
      "stateMutability": "nonpayable",
      "type": "function"
    },
    {
      "inputs": [],
      "name": "name",
      "outputs": [
        {
          "internalType": "string",
          "name": "",
          "type": "string"
        }
      ],
      "stateMutability": "view",
      "type": "function"
    },
    {
      "inputs": [],
      "name": "owner",
      "outputs": [
        {
          "internalType": "address",
          "name": "",
          "type": "address"
        }
      ],
      "stateMutability": "view",
      "type": "function"
    },
    {
      "inputs": [
        {
          "internalType": "uint256",
          "name": "tokenId",
          "type": "uint256"
        }
      ],
      "name": "ownerOf",
      "outputs": [
        {
          "internalType": "address",
          "name": "",
          "type": "address"
        }
      ],
      "stateMutability": "view",
      "type": "function"
    },
    {
      "inputs": [],
      "name": "renounceOwnership",
      "outputs": [],
      "stateMutability": "nonpayable",
      "type": "function"
    },
    {
      "inputs": [
        {
          "internalType": "address",
          "name": "from",
          "type": "address"
        },
        {
          "internalType": "address",
          "name": "to",
          "type": "address"
        },
        {
          "internalType": "uint256",
          "name": "tokenId",
          "type": "uint256"
        }
      ],
      "name": "safeTransferFrom",
      "outputs": [],
      "stateMutability": "nonpayable",
      "type": "function"
    },
    {
      "inputs": [
        {
          "internalType": "address",
          "name": "from",
          "type": "address"
        },
        {
          "internalType": "address",
          "name": "to",
          "type": "address"
        },
        {
          "internalType": "uint256",
          "name": "tokenId",
          "type": "uint256"
        },
        {
          "internalType": "bytes",
          "name": "data",
          "type": "bytes"
        }
      ],
      "name": "safeTransferFrom",
      "outputs": [],
      "stateMutability": "nonpayable",
      "type": "function"
    },
    {
      "inputs": [
        {
          "internalType": "address",
          "name": "operator",
          "type": "address"
        },
        {
          "internalType": "bool",
          "name": "approved",
          "type": "bool"
        }
      ],
      "name": "setApprovalForAll",
      "outputs": [],
      "stateMutability": "nonpayable",
      "type": "function"
    },
    {
      "inputs": [
        {
          "internalType": "bytes4",
          "name": "interfaceId",
          "type": "bytes4"
        }
      ],
      "name": "supportsInterface",
      "outputs": [
        {
          "internalType": "bool",
          "name": "",
          "type": "bool"
        }
      ],
      "stateMutability": "view",
      "type": "function"
    },
    {
      "inputs": [],
      "name": "symbol",
      "outputs": [
        {
          "internalType": "string",
          "name": "",
          "type": "string"
        }
      ],
      "stateMutability": "view",
      "type": "function"
    },
    {
      "inputs": [
        {
          "internalType": "uint256",
          "name": "index",
          "type": "uint256"
        }
      ],
      "name": "tokenByIndex",
      "outputs": [
        {
          "internalType": "uint256",
          "name": "",
          "type": "uint256"
        }
      ],
      "stateMutability": "view",
      "type": "function"
    },
    {
      "inputs": [
        {
          "internalType": "address",
          "name": "owner",
          "type": "address"
        },
        {
          "internalType": "uint256",
          "name": "index",
          "type": "uint256"
        }
      ],
      "name": "tokenOfOwnerByIndex",
      "outputs": [
        {
          "internalType": "uint256",
          "name": "",
          "type": "uint256"
        }
      ],
      "stateMutability": "view",
      "type": "function"
    },
    {
      "inputs": [
        {
          "internalType": "uint256",
          "name": "tokenId",
          "type": "uint256"
        }
      ],
      "name": "tokenURI",
      "outputs": [
        {
          "internalType": "string",
          "name": "",
          "type": "string"
        }
      ],
      "stateMutability": "view",
      "type": "function"
    },
    {
      "inputs": [],
      "name": "totalSupply",
      "outputs": [
        {
          "internalType": "uint256",
          "name": "",
          "type": "uint256"
        }
      ],
      "stateMutability": "view",
      "type": "function"
    },
    {
      "inputs": [
        {
          "internalType": "address",
          "name": "from",
          "type": "address"
        },
        {
          "internalType": "address",
          "name": "to",
          "type": "address"
        },
        {
          "internalType": "uint256",
          "name": "tokenId",
          "type": "uint256"
        }
      ],
      "name": "transferFrom",
      "outputs": [],
      "stateMutability": "nonpayable",
      "type": "function"
    },
    {
      "inputs": [
        {
          "internalType": "address",
          "name": "newOwner",
          "type": "address"
        }
      ],
      "name": "transferOwnership",
      "outputs": [],
      "stateMutability": "nonpayable",
      "type": "function"
    },
    {
      "inputs": [
        {
          "internalType": "uint256",
          "name": "eResident",
          "type": "uint256"
        },
        {
          "internalType": "address",
          "name": "addr",
          "type": "address"
        }
      ],
      "name": "verifyEResident",
      "outputs": [],
      "stateMutability": "nonpayable",
      "type": "function"
    }
  ],
  "bytecode": "0x60806040523480156200001157600080fd5b506040516200430738038062004307833981810160405281019062000037919062000269565b6040518060400160405280601a81526020017f50726f7370657261205265616c2045737461746520546f6b656e0000000000008152506040518060400160405280600881526020017f50524f53504552410000000000000000000000000000000000000000000000008152508160009081620000b4919062000515565b508060019081620000c6919062000515565b505050620000e9620000dd6200013160201b60201c565b6200013960201b60201c565b80600f60006101000a81548173ffffffffffffffffffffffffffffffffffffffff021916908373ffffffffffffffffffffffffffffffffffffffff16021790555050620005fc565b600033905090565b6000600b60009054906101000a900473ffffffffffffffffffffffffffffffffffffffff16905081600b60006101000a81548173ffffffffffffffffffffffffffffffffffffffff021916908373ffffffffffffffffffffffffffffffffffffffff1602179055508173ffffffffffffffffffffffffffffffffffffffff168173ffffffffffffffffffffffffffffffffffffffff167f8be0079c531659141344cd1fd0a4f28419497f9722a3daafe3b4186f6b6457e060405160405180910390a35050565b600080fd5b600073ffffffffffffffffffffffffffffffffffffffff82169050919050565b6000620002318262000204565b9050919050565b620002438162000224565b81146200024f57600080fd5b50565b600081519050620002638162000238565b92915050565b600060208284031215620002825762000281620001ff565b5b6000620002928482850162000252565b91505092915050565b600081519050919050565b7f4e487b7100000000000000000000000000000000000000000000000000000000600052604160045260246000fd5b7f4e487b7100000000000000000000000000000000000000000000000000000000600052602260045260246000fd5b600060028204905060018216806200031d57607f821691505b602082108103620003335762000332620002d5565b5b50919050565b60008190508160005260206000209050919050565b60006020601f8301049050919050565b600082821b905092915050565b6000600883026200039d7fffffffffffffffffffffffffffffffffffffffffffffffffffffffffffffffff826200035e565b620003a986836200035e565b95508019841693508086168417925050509392505050565b6000819050919050565b6000819050919050565b6000620003f6620003f0620003ea84620003c1565b620003cb565b620003c1565b9050919050565b6000819050919050565b6200041283620003d5565b6200042a6200042182620003fd565b8484546200036b565b825550505050565b600090565b6200044162000432565b6200044e81848462000407565b505050565b5b8181101562000476576200046a60008262000437565b60018101905062000454565b5050565b601f821115620004c5576200048f8162000339565b6200049a846200034e565b81016020851015620004aa578190505b620004c2620004b9856200034e565b83018262000453565b50505b505050565b600082821c905092915050565b6000620004ea60001984600802620004ca565b1980831691505092915050565b6000620005058383620004d7565b9150826002028217905092915050565b62000520826200029b565b67ffffffffffffffff8111156200053c576200053b620002a6565b5b62000548825462000304565b620005558282856200047a565b600060209050601f8311600181146200058d576000841562000578578287015190505b620005848582620004f7565b865550620005f4565b601f1984166200059d8662000339565b60005b82811015620005c757848901518255600182019150602085019450602081019050620005a0565b86831015620005e75784890151620005e3601f891682620004d7565b8355505b6001600288020188555050505b505050505050565b613cfb806200060c6000396000f3fe608060405234801561001057600080fd5b50600436106101585760003560e01c80636352211e116100c3578063a22cb4651161007c578063a22cb465146103ff578063b88d4fde1461041b578063c87b56dd14610437578063d0def52114610467578063e985e9c514610497578063f2fde38b146104c757610158565b80636352211e1461032957806370a0823114610359578063715018a6146103895780638da5cb5b1461039357806395d89b41146103b157806397564fc8146103cf57610158565b806323b872dd1161011557806323b872dd1461024557806329cb364f146102615780632f745c59146102915780634082fa69146102c157806342842e0e146102dd5780634f6ccce7146102f957610158565b806301ffc9a71461015d57806306fdde031461018d578063081812fc146101ab578063095ea7b3146101db578063166de3ba146101f757806318160ddd14610227575b600080fd5b6101776004803603810190610172919061267f565b6104e3565b60405161018491906126c7565b60405180910390f35b6101956104f5565b6040516101a29190612772565b60405180910390f35b6101c560048036038101906101c091906127ca565b610587565b6040516101d29190612838565b60405180910390f35b6101f560048036038101906101f0919061287f565b6105cd565b005b610211600480360381019061020c91906128bf565b6106e4565b60405161021e91906128fb565b60405180910390f35b61022f6106fc565b60405161023c91906128fb565b60405180910390f35b61025f600480360381019061025a9190612916565b610709565b005b61027b600480360381019061027691906128bf565b610769565b60405161028891906126c7565b60405180910390f35b6102ab60048036038101906102a6919061287f565b6107b5565b6040516102b891906128fb565b60405180910390f35b6102db60048036038101906102d69190612969565b61085a565b005b6102f760048036038101906102f29190612916565b6109df565b005b610313600480360381019061030e91906127ca565b6109ff565b60405161032091906128fb565b60405180910390f35b610343600480360381019061033e91906127ca565b610a70565b6040516103509190612838565b60405180910390f35b610373600480360381019061036e91906128bf565b610af6565b60405161038091906128fb565b60405180910390f35b610391610bad565b005b61039b610bc1565b6040516103a89190612838565b60405180910390f35b6103b9610beb565b6040516103c69190612772565b60405180910390f35b6103e960048036038101906103e491906127ca565b610c7d565b6040516103f69190612838565b60405180910390f35b610419600480360381019061041491906129d5565b610cb0565b005b61043560048036038101906104309190612b4a565b610cc6565b005b610451600480360381019061044c91906127ca565b610d28565b60405161045e9190612772565b60405180910390f35b610481600480360381019061047c9190612c6e565b610d3a565b60405161048e91906128fb565b60405180910390f35b6104b160048036038101906104ac9190612cca565b610d6c565b6040516104be91906126c7565b60405180910390f35b6104e160048036038101906104dc91906128bf565b610e00565b005b60006104ee82610e83565b9050919050565b60606000805461050490612d39565b80601f016020809104026020016040519081016040528092919081815260200182805461053090612d39565b801561057d5780601f106105525761010080835404028352916020019161057d565b820191906000526020600020905b81548152906001019060200180831161056057829003601f168201915b5050505050905090565b600061059282610efd565b6004600083815260200190815260200160002060009054906101000a900473ffffffffffffffffffffffffffffffffffffffff169050919050565b60006105d882610a70565b90508073ffffffffffffffffffffffffffffffffffffffff168373ffffffffffffffffffffffffffffffffffffffff1603610648576040517f08c379a000000000000000000000000000000000000000000000000000000000815260040161063f90612ddc565b60405180910390fd5b8073ffffffffffffffffffffffffffffffffffffffff16610667610f48565b73ffffffffffffffffffffffffffffffffffffffff161480610696575061069581610690610f48565b610d6c565b5b6106d5576040517f08c379a00000000000000000000000000000000000000000000000000000000081526004016106cc90612e6e565b60405180910390fd5b6106df8383610f50565b505050565b600c6020528060005260406000206000915090505481565b6000600980549050905090565b61071a610714610f48565b82611009565b610759576040517f08c379a000000000000000000000000000000000000000000000000000000000815260040161075090612f00565b60405180910390fd5b61076483838361109e565b505050565b600080600c60008473ffffffffffffffffffffffffffffffffffffffff1673ffffffffffffffffffffffffffffffffffffffff1681526020019081526020016000205414159050919050565b60006107c083610af6565b8210610801576040517f08c379a00000000000000000000000000000000000000000000000000000000081526004016107f890612f92565b60405180910390fd5b600760008473ffffffffffffffffffffffffffffffffffffffff1673ffffffffffffffffffffffffffffffffffffffff168152602001908152602001600020600083815260200190815260200160002054905092915050565b61086381610769565b156108a3576040517f08c379a000000000000000000000000000000000000000000000000000000000815260040161089a90613024565b60405180910390fd5b600073ffffffffffffffffffffffffffffffffffffffff16600d600084815260200190815260200160002060009054906101000a900473ffffffffffffffffffffffffffffffffffffffff1673ffffffffffffffffffffffffffffffffffffffff1614610945576040517f08c379a000000000000000000000000000000000000000000000000000000000815260040161093c906130b6565b60405180910390fd5b81600c60008373ffffffffffffffffffffffffffffffffffffffff1673ffffffffffffffffffffffffffffffffffffffff1681526020019081526020016000208190555080600d600084815260200190815260200160002060006101000a81548173ffffffffffffffffffffffffffffffffffffffff021916908373ffffffffffffffffffffffffffffffffffffffff1602179055505050565b6109fa83838360405180602001604052806000815250610cc6565b505050565b6000610a096106fc565b8210610a4a576040517f08c379a0000000000000000000000000000000000000000000000000000000008152600401610a4190613148565b60405180910390fd5b60098281548110610a5e57610a5d613168565b5b90600052602060002001549050919050565b600080610a7c83611397565b9050600073ffffffffffffffffffffffffffffffffffffffff168173ffffffffffffffffffffffffffffffffffffffff1603610aed576040517f08c379a0000000000000000000000000000000000000000000000000000000008152600401610ae4906131e3565b60405180910390fd5b80915050919050565b60008073ffffffffffffffffffffffffffffffffffffffff168273ffffffffffffffffffffffffffffffffffffffff1603610b66576040517f08c379a0000000000000000000000000000000000000000000000000000000008152600401610b5d90613275565b60405180910390fd5b600360008373ffffffffffffffffffffffffffffffffffffffff1673ffffffffffffffffffffffffffffffffffffffff168152602001908152602001600020549050919050565b610bb56113d4565b610bbf6000611452565b565b6000600b60009054906101000a900473ffffffffffffffffffffffffffffffffffffffff16905090565b606060018054610bfa90612d39565b80601f0160208091040260200160405190810160405280929190818152602001828054610c2690612d39565b8015610c735780601f10610c4857610100808354040283529160200191610c73565b820191906000526020600020905b815481529060010190602001808311610c5657829003601f168201915b5050505050905090565b600d6020528060005260406000206000915054906101000a900473ffffffffffffffffffffffffffffffffffffffff1681565b610cc2610cbb610f48565b8383611518565b5050565b610cd7610cd1610f48565b83611009565b610d16576040517f08c379a0000000000000000000000000000000000000000000000000000000008152600401610d0d90612f00565b60405180910390fd5b610d2284848484611684565b50505050565b6060610d33826116e0565b9050919050565b6000610d46600e6117f2565b9050610d528382611800565b610d5c818361181e565b610d66600e61188b565b92915050565b6000600560008473ffffffffffffffffffffffffffffffffffffffff1673ffffffffffffffffffffffffffffffffffffffff16815260200190815260200160002060008373ffffffffffffffffffffffffffffffffffffffff1673ffffffffffffffffffffffffffffffffffffffff16815260200190815260200160002060009054906101000a900460ff16905092915050565b610e086113d4565b600073ffffffffffffffffffffffffffffffffffffffff168173ffffffffffffffffffffffffffffffffffffffff1603610e77576040517f08c379a0000000000000000000000000000000000000000000000000000000008152600401610e6e90613307565b60405180910390fd5b610e8081611452565b50565b60007f780e9d63000000000000000000000000000000000000000000000000000000007bffffffffffffffffffffffffffffffffffffffffffffffffffffffff1916827bffffffffffffffffffffffffffffffffffffffffffffffffffffffff19161480610ef65750610ef5826118a1565b5b9050919050565b610f0681611983565b610f45576040517f08c379a0000000000000000000000000000000000000000000000000000000008152600401610f3c906131e3565b60405180910390fd5b50565b600033905090565b816004600083815260200190815260200160002060006101000a81548173ffffffffffffffffffffffffffffffffffffffff021916908373ffffffffffffffffffffffffffffffffffffffff160217905550808273ffffffffffffffffffffffffffffffffffffffff16610fc383610a70565b73ffffffffffffffffffffffffffffffffffffffff167f8c5be1e5ebec7d5bd14f71427d1e84f3dd0314c0f7b2291e5b200ac8c7c3b92560405160405180910390a45050565b60008061101583610a70565b90508073ffffffffffffffffffffffffffffffffffffffff168473ffffffffffffffffffffffffffffffffffffffff16148061105757506110568185610d6c565b5b8061109557508373ffffffffffffffffffffffffffffffffffffffff1661107d84610587565b73ffffffffffffffffffffffffffffffffffffffff16145b91505092915050565b8273ffffffffffffffffffffffffffffffffffffffff166110be82610a70565b73ffffffffffffffffffffffffffffffffffffffff1614611114576040517f08c379a000000000000000000000000000000000000000000000000000000000815260040161110b90613399565b60405180910390fd5b600073ffffffffffffffffffffffffffffffffffffffff168273ffffffffffffffffffffffffffffffffffffffff1603611183576040517f08c379a000000000000000000000000000000000000000000000000000000000815260040161117a9061342b565b60405180910390fd5b61119083838360016119c4565b8273ffffffffffffffffffffffffffffffffffffffff166111b082610a70565b73ffffffffffffffffffffffffffffffffffffffff1614611206576040517f08c379a00000000000000000000000000000000000000000000000000000000081526004016111fd90613399565b60405180910390fd5b6004600082815260200190815260200160002060006101000a81549073ffffffffffffffffffffffffffffffffffffffff02191690556001600360008573ffffffffffffffffffffffffffffffffffffffff1673ffffffffffffffffffffffffffffffffffffffff168152602001908152602001600020600082825403925050819055506001600360008473ffffffffffffffffffffffffffffffffffffffff1673ffffffffffffffffffffffffffffffffffffffff16815260200190815260200160002060008282540192505081905550816002600083815260200190815260200160002060006101000a81548173ffffffffffffffffffffffffffffffffffffffff021916908373ffffffffffffffffffffffffffffffffffffffff160217905550808273ffffffffffffffffffffffffffffffffffffffff168473ffffffffffffffffffffffffffffffffffffffff167fddf252ad1be2c89b69c2b068fc378daa952ba7f163c4a11628f55a4df523b3ef60405160405180910390a46113928383836001611a77565b505050565b60006002600083815260200190815260200160002060009054906101000a900473ffffffffffffffffffffffffffffffffffffffff169050919050565b6113dc610f48565b73ffffffffffffffffffffffffffffffffffffffff166113fa610bc1565b73ffffffffffffffffffffffffffffffffffffffff1614611450576040517f08c379a000000000000000000000000000000000000000000000000000000000815260040161144790613497565b60405180910390fd5b565b6000600b60009054906101000a900473ffffffffffffffffffffffffffffffffffffffff16905081600b60006101000a81548173ffffffffffffffffffffffffffffffffffffffff021916908373ffffffffffffffffffffffffffffffffffffffff1602179055508173ffffffffffffffffffffffffffffffffffffffff168173ffffffffffffffffffffffffffffffffffffffff167f8be0079c531659141344cd1fd0a4f28419497f9722a3daafe3b4186f6b6457e060405160405180910390a35050565b8173ffffffffffffffffffffffffffffffffffffffff168373ffffffffffffffffffffffffffffffffffffffff1603611586576040517f08c379a000000000000000000000000000000000000000000000000000000000815260040161157d90613503565b60405180910390fd5b80600560008573ffffffffffffffffffffffffffffffffffffffff1673ffffffffffffffffffffffffffffffffffffffff16815260200190815260200160002060008473ffffffffffffffffffffffffffffffffffffffff1673ffffffffffffffffffffffffffffffffffffffff16815260200190815260200160002060006101000a81548160ff0219169083151502179055508173ffffffffffffffffffffffffffffffffffffffff168373ffffffffffffffffffffffffffffffffffffffff167f17307eab39ab6107e8899845ad3d59bd9653f200f220920489ca2b5937696c318360405161167791906126c7565b60405180910390a3505050565b61168f84848461109e565b61169b84848484611a7d565b6116da576040517f08c379a00000000000000000000000000000000000000000000000000000000081526004016116d190613595565b60405180910390fd5b50505050565b60606116eb82610efd565b600060066000848152602001908152602001600020805461170b90612d39565b80601f016020809104026020016040519081016040528092919081815260200182805461173790612d39565b80156117845780601f1061175957610100808354040283529160200191611784565b820191906000526020600020905b81548152906001019060200180831161176757829003601f168201915b505050505090506000611795611c04565b905060008151036117aa5781925050506117ed565b6000825111156117df5780826040516020016117c79291906135f1565b604051602081830303815290604052925050506117ed565b6117e884611c1b565b925050505b919050565b600081600001549050919050565b61181a828260405180602001604052806000815250611c83565b5050565b61182782611983565b611866576040517f08c379a000000000000000000000000000000000000000000000000000000000815260040161185d90613687565b60405180910390fd5b806006600084815260200190815260200160002090816118869190613853565b505050565b6001816000016000828254019250508190555050565b60007f80ac58cd000000000000000000000000000000000000000000000000000000007bffffffffffffffffffffffffffffffffffffffffffffffffffffffff1916827bffffffffffffffffffffffffffffffffffffffffffffffffffffffff1916148061196c57507f5b5e139f000000000000000000000000000000000000000000000000000000007bffffffffffffffffffffffffffffffffffffffffffffffffffffffff1916827bffffffffffffffffffffffffffffffffffffffffffffffffffffffff1916145b8061197c575061197b82611cde565b5b9050919050565b60008073ffffffffffffffffffffffffffffffffffffffff166119a583611397565b73ffffffffffffffffffffffffffffffffffffffff1614159050919050565b6119cd83610769565b80611a255750600f60009054906101000a900473ffffffffffffffffffffffffffffffffffffffff1673ffffffffffffffffffffffffffffffffffffffff168373ffffffffffffffffffffffffffffffffffffffff16145b611a64576040517f08c379a0000000000000000000000000000000000000000000000000000000008152600401611a5b90613997565b60405180910390fd5b611a718484600084611d48565b50505050565b50505050565b6000611a9e8473ffffffffffffffffffffffffffffffffffffffff16611ea6565b15611bf7578373ffffffffffffffffffffffffffffffffffffffff1663150b7a02611ac7610f48565b8786866040518563ffffffff1660e01b8152600401611ae99493929190613a0c565b6020604051808303816000875af1925050508015611b2557506040513d601f19601f82011682018060405250810190611b229190613a6d565b60015b611ba7573d8060008114611b55576040519150601f19603f3d011682016040523d82523d6000602084013e611b5a565b606091505b506000815103611b9f576040517f08c379a0000000000000000000000000000000000000000000000000000000008152600401611b9690613595565b60405180910390fd5b805181602001fd5b63150b7a0260e01b7bffffffffffffffffffffffffffffffffffffffffffffffffffffffff1916817bffffffffffffffffffffffffffffffffffffffffffffffffffffffff191614915050611bfc565b600190505b949350505050565b606060405180602001604052806000815250905090565b6060611c2682610efd565b6000611c30611c04565b90506000815111611c505760405180602001604052806000815250611c7b565b80611c5a84611ec9565b604051602001611c6b9291906135f1565b6040516020818303038152906040525b915050919050565b611c8d8383611f97565b611c9a6000848484611a7d565b611cd9576040517f08c379a0000000000000000000000000000000000000000000000000000000008152600401611cd090613595565b60405180910390fd5b505050565b60007f01ffc9a7000000000000000000000000000000000000000000000000000000007bffffffffffffffffffffffffffffffffffffffffffffffffffffffff1916827bffffffffffffffffffffffffffffffffffffffffffffffffffffffff1916149050919050565b611d54848484846121b4565b6001811115611d98576040517f08c379a0000000000000000000000000000000000000000000000000000000008152600401611d8f90613b0c565b60405180910390fd5b6000829050600073ffffffffffffffffffffffffffffffffffffffff168573ffffffffffffffffffffffffffffffffffffffff1603611ddf57611dda816121ba565b611e1e565b8373ffffffffffffffffffffffffffffffffffffffff168573ffffffffffffffffffffffffffffffffffffffff1614611e1d57611e1c8582612203565b5b5b600073ffffffffffffffffffffffffffffffffffffffff168473ffffffffffffffffffffffffffffffffffffffff1603611e6057611e5b81612370565b611e9f565b8473ffffffffffffffffffffffffffffffffffffffff168473ffffffffffffffffffffffffffffffffffffffff1614611e9e57611e9d8482612441565b5b5b5050505050565b6000808273ffffffffffffffffffffffffffffffffffffffff163b119050919050565b606060006001611ed8846124c0565b01905060008167ffffffffffffffff811115611ef757611ef6612a1f565b5b6040519080825280601f01601f191660200182016040528015611f295781602001600182028036833780820191505090505b509050600082602001820190505b600115611f8c578080600190039150507f3031323334353637383961626364656600000000000000000000000000000000600a86061a8153600a8581611f8057611f7f613b2c565b5b04945060008503611f37575b819350505050919050565b600073ffffffffffffffffffffffffffffffffffffffff168273ffffffffffffffffffffffffffffffffffffffff1603612006576040517f08c379a0000000000000000000000000000000000000000000000000000000008152600401611ffd90613ba7565b60405180910390fd5b61200f81611983565b1561204f576040517f08c379a000000000000000000000000000000000000000000000000000000000815260040161204690613c13565b60405180910390fd5b61205d6000838360016119c4565b61206681611983565b156120a6576040517f08c379a000000000000000000000000000000000000000000000000000000000815260040161209d90613c13565b60405180910390fd5b6001600360008473ffffffffffffffffffffffffffffffffffffffff1673ffffffffffffffffffffffffffffffffffffffff16815260200190815260200160002060008282540192505081905550816002600083815260200190815260200160002060006101000a81548173ffffffffffffffffffffffffffffffffffffffff021916908373ffffffffffffffffffffffffffffffffffffffff160217905550808273ffffffffffffffffffffffffffffffffffffffff16600073ffffffffffffffffffffffffffffffffffffffff167fddf252ad1be2c89b69c2b068fc378daa952ba7f163c4a11628f55a4df523b3ef60405160405180910390a46121b0600083836001611a77565b5050565b50505050565b600980549050600a600083815260200190815260200160002081905550600981908060018154018082558091505060019003906000526020600020016000909190919091505550565b6000600161221084610af6565b61221a9190613c62565b90506000600860008481526020019081526020016000205490508181146122ff576000600760008673ffffffffffffffffffffffffffffffffffffffff1673ffffffffffffffffffffffffffffffffffffffff168152602001908152602001600020600084815260200190815260200160002054905080600760008773ffffffffffffffffffffffffffffffffffffffff1673ffffffffffffffffffffffffffffffffffffffff168152602001908152602001600020600084815260200190815260200160002081905550816008600083815260200190815260200160002081905550505b6008600084815260200190815260200160002060009055600760008573ffffffffffffffffffffffffffffffffffffffff1673ffffffffffffffffffffffffffffffffffffffff16815260200190815260200160002060008381526020019081526020016000206000905550505050565b600060016009805490506123849190613c62565b90506000600a60008481526020019081526020016000205490506000600983815481106123b4576123b3613168565b5b9060005260206000200154905080600983815481106123d6576123d5613168565b5b906000526020600020018190555081600a600083815260200190815260200160002081905550600a600085815260200190815260200160002060009055600980548061242557612424613c96565b5b6001900381819060005260206000200160009055905550505050565b600061244c83610af6565b905081600760008573ffffffffffffffffffffffffffffffffffffffff1673ffffffffffffffffffffffffffffffffffffffff168152602001908152602001600020600083815260200190815260200160002081905550806008600084815260200190815260200160002081905550505050565b600080600090507a184f03e93ff9f4daa797ed6e38ed64bf6a1f010000000000000000831061251e577a184f03e93ff9f4daa797ed6e38ed64bf6a1f010000000000000000838161251457612513613b2c565b5b0492506040810190505b6d04ee2d6d415b85acef8100000000831061255b576d04ee2d6d415b85acef8100000000838161255157612550613b2c565b5b0492506020810190505b662386f26fc10000831061258a57662386f26fc1000083816125805761257f613b2c565b5b0492506010810190505b6305f5e10083106125b3576305f5e10083816125a9576125a8613b2c565b5b0492506008810190505b61271083106125d85761271083816125ce576125cd613b2c565b5b0492506004810190505b606483106125fb57606483816125f1576125f0613b2c565b5b0492506002810190505b600a831061260a576001810190505b80915050919050565b6000604051905090565b600080fd5b600080fd5b60007fffffffff0000000000000000000000000000000000000000000000000000000082169050919050565b61265c81612627565b811461266757600080fd5b50565b60008135905061267981612653565b92915050565b6000602082840312156126955761269461261d565b5b60006126a38482850161266a565b91505092915050565b60008115159050919050565b6126c1816126ac565b82525050565b60006020820190506126dc60008301846126b8565b92915050565b600081519050919050565b600082825260208201905092915050565b60005b8381101561271c578082015181840152602081019050612701565b60008484015250505050565b6000601f19601f8301169050919050565b6000612744826126e2565b61274e81856126ed565b935061275e8185602086016126fe565b61276781612728565b840191505092915050565b6000602082019050818103600083015261278c8184612739565b905092915050565b6000819050919050565b6127a781612794565b81146127b257600080fd5b50565b6000813590506127c48161279e565b92915050565b6000602082840312156127e0576127df61261d565b5b60006127ee848285016127b5565b91505092915050565b600073ffffffffffffffffffffffffffffffffffffffff82169050919050565b6000612822826127f7565b9050919050565b61283281612817565b82525050565b600060208201905061284d6000830184612829565b92915050565b61285c81612817565b811461286757600080fd5b50565b60008135905061287981612853565b92915050565b600080604083850312156128965761289561261d565b5b60006128a48582860161286a565b92505060206128b5858286016127b5565b9150509250929050565b6000602082840312156128d5576128d461261d565b5b60006128e38482850161286a565b91505092915050565b6128f581612794565b82525050565b600060208201905061291060008301846128ec565b92915050565b60008060006060848603121561292f5761292e61261d565b5b600061293d8682870161286a565b935050602061294e8682870161286a565b925050604061295f868287016127b5565b9150509250925092565b600080604083850312156129805761297f61261d565b5b600061298e858286016127b5565b925050602061299f8582860161286a565b9150509250929050565b6129b2816126ac565b81146129bd57600080fd5b50565b6000813590506129cf816129a9565b92915050565b600080604083850312156129ec576129eb61261d565b5b60006129fa8582860161286a565b9250506020612a0b858286016129c0565b9150509250929050565b600080fd5b600080fd5b7f4e487b7100000000000000000000000000000000000000000000000000000000600052604160045260246000fd5b612a5782612728565b810181811067ffffffffffffffff82111715612a7657612a75612a1f565b5b80604052505050565b6000612a89612613565b9050612a958282612a4e565b919050565b600067ffffffffffffffff821115612ab557612ab4612a1f565b5b612abe82612728565b9050602081019050919050565b82818337600083830152505050565b6000612aed612ae884612a9a565b612a7f565b905082815260208101848484011115612b0957612b08612a1a565b5b612b14848285612acb565b509392505050565b600082601f830112612b3157612b30612a15565b5b8135612b41848260208601612ada565b91505092915050565b60008060008060808587031215612b6457612b6361261d565b5b6000612b728782880161286a565b9450506020612b838782880161286a565b9350506040612b94878288016127b5565b925050606085013567ffffffffffffffff811115612bb557612bb4612622565b5b612bc187828801612b1c565b91505092959194509250565b600067ffffffffffffffff821115612be857612be7612a1f565b5b612bf182612728565b9050602081019050919050565b6000612c11612c0c84612bcd565b612a7f565b905082815260208101848484011115612c2d57612c2c612a1a565b5b612c38848285612acb565b509392505050565b600082601f830112612c5557612c54612a15565b5b8135612c65848260208601612bfe565b91505092915050565b60008060408385031215612c8557612c8461261d565b5b6000612c938582860161286a565b925050602083013567ffffffffffffffff811115612cb457612cb3612622565b5b612cc085828601612c40565b9150509250929050565b60008060408385031215612ce157612ce061261d565b5b6000612cef8582860161286a565b9250506020612d008582860161286a565b9150509250929050565b7f4e487b7100000000000000000000000000000000000000000000000000000000600052602260045260246000fd5b60006002820490506001821680612d5157607f821691505b602082108103612d6457612d63612d0a565b5b50919050565b7f4552433732313a20617070726f76616c20746f2063757272656e74206f776e6560008201527f7200000000000000000000000000000000000000000000000000000000000000602082015250565b6000612dc66021836126ed565b9150612dd182612d6a565b604082019050919050565b60006020820190508181036000830152612df581612db9565b9050919050565b7f4552433732313a20617070726f76652063616c6c6572206973206e6f7420746f60008201527f6b656e206f776e6572206f7220617070726f76656420666f7220616c6c000000602082015250565b6000612e58603d836126ed565b9150612e6382612dfc565b604082019050919050565b60006020820190508181036000830152612e8781612e4b565b9050919050565b7f4552433732313a2063616c6c6572206973206e6f7420746f6b656e206f776e6560008201527f72206f7220617070726f76656400000000000000000000000000000000000000602082015250565b6000612eea602d836126ed565b9150612ef582612e8e565b604082019050919050565b60006020820190508181036000830152612f1981612edd565b9050919050565b7f455243373231456e756d657261626c653a206f776e657220696e646578206f7560008201527f74206f6620626f756e6473000000000000000000000000000000000000000000602082015250565b6000612f7c602b836126ed565b9150612f8782612f20565b604082019050919050565b60006020820190508181036000830152612fab81612f6f565b9050919050565b7f6164647265737320616c7265616479206173736f63696174656420746f20616e60008201527f20655265736964656e7400000000000000000000000000000000000000000000602082015250565b600061300e602a836126ed565b915061301982612fb2565b604082019050919050565b6000602082019050818103600083015261303d81613001565b9050919050565b7f655265736964656e7420616c7265616479206173736f63696174656420746f2060008201527f616e206164647265737300000000000000000000000000000000000000000000602082015250565b60006130a0602a836126ed565b91506130ab82613044565b604082019050919050565b600060208201905081810360008301526130cf81613093565b9050919050565b7f455243373231456e756d657261626c653a20676c6f62616c20696e646578206f60008201527f7574206f6620626f756e64730000000000000000000000000000000000000000602082015250565b6000613132602c836126ed565b915061313d826130d6565b604082019050919050565b6000602082019050818103600083015261316181613125565b9050919050565b7f4e487b7100000000000000000000000000000000000000000000000000000000600052603260045260246000fd5b7f4552433732313a20696e76616c696420746f6b656e2049440000000000000000600082015250565b60006131cd6018836126ed565b91506131d882613197565b602082019050919050565b600060208201905081810360008301526131fc816131c0565b9050919050565b7f4552433732313a2061646472657373207a65726f206973206e6f74206120766160008201527f6c6964206f776e65720000000000000000000000000000000000000000000000602082015250565b600061325f6029836126ed565b915061326a82613203565b604082019050919050565b6000602082019050818103600083015261328e81613252565b9050919050565b7f4f776e61626c653a206e6577206f776e657220697320746865207a65726f206160008201527f6464726573730000000000000000000000000000000000000000000000000000602082015250565b60006132f16026836126ed565b91506132fc82613295565b604082019050919050565b60006020820190508181036000830152613320816132e4565b9050919050565b7f4552433732313a207472616e736665722066726f6d20696e636f72726563742060008201527f6f776e6572000000000000000000000000000000000000000000000000000000602082015250565b60006133836025836126ed565b915061338e82613327565b604082019050919050565b600060208201905081810360008301526133b281613376565b9050919050565b7f4552433732313a207472616e7366657220746f20746865207a65726f2061646460008201527f7265737300000000000000000000000000000000000000000000000000000000602082015250565b60006134156024836126ed565b9150613420826133b9565b604082019050919050565b6000602082019050818103600083015261344481613408565b9050919050565b7f4f776e61626c653a2063616c6c6572206973206e6f7420746865206f776e6572600082015250565b60006134816020836126ed565b915061348c8261344b565b602082019050919050565b600060208201905081810360008301526134b081613474565b9050919050565b7f4552433732313a20617070726f766520746f2063616c6c657200000000000000600082015250565b60006134ed6019836126ed565b91506134f8826134b7565b602082019050919050565b6000602082019050818103600083015261351c816134e0565b9050919050565b7f4552433732313a207472616e7366657220746f206e6f6e20455243373231526560008201527f63656976657220696d706c656d656e7465720000000000000000000000000000602082015250565b600061357f6032836126ed565b915061358a82613523565b604082019050919050565b600060208201905081810360008301526135ae81613572565b9050919050565b600081905092915050565b60006135cb826126e2565b6135d581856135b5565b93506135e58185602086016126fe565b80840191505092915050565b60006135fd82856135c0565b915061360982846135c0565b91508190509392505050565b7f45524337323155524953746f726167653a2055524920736574206f66206e6f6e60008201527f6578697374656e7420746f6b656e000000000000000000000000000000000000602082015250565b6000613671602e836126ed565b915061367c82613615565b604082019050919050565b600060208201905081810360008301526136a081613664565b9050919050565b60008190508160005260206000209050919050565b60006020601f8301049050919050565b600082821b905092915050565b6000600883026137097fffffffffffffffffffffffffffffffffffffffffffffffffffffffffffffffff826136cc565b61371386836136cc565b95508019841693508086168417925050509392505050565b6000819050919050565b600061375061374b61374684612794565b61372b565b612794565b9050919050565b6000819050919050565b61376a83613735565b61377e61377682613757565b8484546136d9565b825550505050565b600090565b613793613786565b61379e818484613761565b505050565b5b818110156137c2576137b760008261378b565b6001810190506137a4565b5050565b601f821115613807576137d8816136a7565b6137e1846136bc565b810160208510156137f0578190505b6138046137fc856136bc565b8301826137a3565b50505b505050565b600082821c905092915050565b600061382a6000198460080261380c565b1980831691505092915050565b60006138438383613819565b9150826002028217905092915050565b61385c826126e2565b67ffffffffffffffff81111561387557613874612a1f565b5b61387f8254612d39565b61388a8282856137c6565b600060209050601f8311600181146138bd57600084156138ab578287015190505b6138b58582613837565b86555061391d565b601f1984166138cb866136a7565b60005b828110156138f3578489015182556001820191506020850194506020810190506138ce565b86831015613910578489015161390c601f891682613819565b8355505b6001600288020188555050505b505050505050565b7f7265636569766572206e6f7420655265736964656e74206f722070726f746f6360008201527f6f6c000000000000000000000000000000000000000000000000000000000000602082015250565b60006139816022836126ed565b915061398c82613925565b604082019050919050565b600060208201905081810360008301526139b081613974565b9050919050565b600081519050919050565b600082825260208201905092915050565b60006139de826139b7565b6139e881856139c2565b93506139f88185602086016126fe565b613a0181612728565b840191505092915050565b6000608082019050613a216000830187612829565b613a2e6020830186612829565b613a3b60408301856128ec565b8181036060830152613a4d81846139d3565b905095945050505050565b600081519050613a6781612653565b92915050565b600060208284031215613a8357613a8261261d565b5b6000613a9184828501613a58565b91505092915050565b7f455243373231456e756d657261626c653a20636f6e736563757469766520747260008201527f616e7366657273206e6f7420737570706f727465640000000000000000000000602082015250565b6000613af66035836126ed565b9150613b0182613a9a565b604082019050919050565b60006020820190508181036000830152613b2581613ae9565b9050919050565b7f4e487b7100000000000000000000000000000000000000000000000000000000600052601260045260246000fd5b7f4552433732313a206d696e7420746f20746865207a65726f2061646472657373600082015250565b6000613b916020836126ed565b9150613b9c82613b5b565b602082019050919050565b60006020820190508181036000830152613bc081613b84565b9050919050565b7f4552433732313a20746f6b656e20616c7265616479206d696e74656400000000600082015250565b6000613bfd601c836126ed565b9150613c0882613bc7565b602082019050919050565b60006020820190508181036000830152613c2c81613bf0565b9050919050565b7f4e487b7100000000000000000000000000000000000000000000000000000000600052601160045260246000fd5b6000613c6d82612794565b9150613c7883612794565b9250828203905081811115613c9057613c8f613c33565b5b92915050565b7f4e487b7100000000000000000000000000000000000000000000000000000000600052603160045260246000fdfea26469706673582212202fe8a6c6d45d781bcb827447cae466d57e1882d6c0dbc1c4809a9fbb0d300f4564736f6c63430008130033",
  "linkReferences": {},
  "deployedLinkReferences": {}
}