{
  "_format": "hh-sol-artifact-1",
  "contractName": "Interest",
  "sourceName": "contracts/protocol/interest/Interest.sol",
  "abi": [
    {
      "inputs": [
        {
          "internalType": "uint256",
          "name": "x",
          "type": "uint256"
        },
        {
          "internalType": "uint256",
          "name": "y",
          "type": "uint256"
        }
      ],
      "name": "PRBMath_MulDiv18_Overflow",
      "type": "error"
    },
    {
      "inputs": [
        {
          "internalType": "uint256",
          "name": "x",
          "type": "uint256"
        },
        {
          "internalType": "uint256",
          "name": "y",
          "type": "uint256"
        },
        {
          "internalType": "uint256",
          "name": "denominator",
          "type": "uint256"
        }
      ],
      "name": "PRBMath_MulDiv_Overflow",
      "type": "error"
    },
    {
      "inputs": [
        {
          "internalType": "int256",
          "name": "x",
          "type": "int256"
        }
      ],
      "name": "PRBMath_SD59x18_Convert_Overflow",
      "type": "error"
    },
    {
      "inputs": [
        {
          "internalType": "int256",
          "name": "x",
          "type": "int256"
        }
      ],
      "name": "PRBMath_SD59x18_Convert_Underflow",
      "type": "error"
    },
    {
      "inputs": [
        {
          "internalType": "SD59x18",
          "name": "x",
          "type": "int256"
        }
      ],
      "name": "PRBMath_SD59x18_Exp2_InputTooBig",
      "type": "error"
    },
    {
      "inputs": [
        {
          "internalType": "SD59x18",
          "name": "x",
          "type": "int256"
        }
      ],
      "name": "PRBMath_SD59x18_IntoUD60x18_Underflow",
      "type": "error"
    },
    {
      "inputs": [
        {
          "internalType": "SD59x18",
          "name": "x",
          "type": "int256"
        }
      ],
      "name": "PRBMath_SD59x18_Log_InputTooSmall",
      "type": "error"
    },
    {
      "inputs": [],
      "name": "PRBMath_SD59x18_Mul_InputTooSmall",
      "type": "error"
    },
    {
      "inputs": [
        {
          "internalType": "SD59x18",
          "name": "x",
          "type": "int256"
        },
        {
          "internalType": "SD59x18",
          "name": "y",
          "type": "int256"
        }
      ],
      "name": "PRBMath_SD59x18_Mul_Overflow",
      "type": "error"
    },
    {
      "inputs": [
        {
          "internalType": "uint256",
          "name": "x",
          "type": "uint256"
        }
      ],
      "name": "PRBMath_UD60x18_Convert_Overflow",
      "type": "error"
    },
    {
      "inputs": [
        {
          "internalType": "UD60x18",
          "name": "x",
          "type": "uint256"
        }
      ],
      "name": "PRBMath_UD60x18_IntoSD59x18_Overflow",
      "type": "error"
    },
    {
      "anonymous": false,
      "inputs": [
        {
          "indexed": false,
          "internalType": "uint8",
          "name": "version",
          "type": "uint8"
        }
      ],
      "name": "Initialized",
      "type": "event"
    },
    {
      "anonymous": false,
      "inputs": [
        {
          "indexed": true,
          "internalType": "address",
          "name": "previousOwner",
          "type": "address"
        },
        {
          "indexed": true,
          "internalType": "address",
          "name": "newOwner",
          "type": "address"
        }
      ],
      "name": "OwnershipTransferred",
      "type": "event"
    },
    {
      "inputs": [
        {
          "internalType": "uint256",
          "name": "",
          "type": "uint256"
        }
      ],
      "name": "_loans",
      "outputs": [
        {
          "internalType": "address",
          "name": "borrower",
          "type": "address"
        },
        {
          "internalType": "UD60x18",
          "name": "ratePerSecond",
          "type": "uint256"
        },
        {
          "internalType": "UD60x18",
          "name": "paymentPerSecond",
          "type": "uint256"
        },
        {
          "internalType": "uint256",
          "name": "startTime",
          "type": "uint256"
        },
        {
          "internalType": "uint256",
          "name": "unpaidPrincipal",
          "type": "uint256"
        },
        {
          "internalType": "uint256",
          "name": "maxDurationSeconds",
          "type": "uint256"
        },
        {
          "internalType": "uint256",
          "name": "lastPaymentTime",
          "type": "uint256"
        }
      ],
      "stateMutability": "view",
      "type": "function"
    },
    {
      "inputs": [
        {
          "internalType": "uint256",
          "name": "tokenId",
          "type": "uint256"
        }
      ],
      "name": "accruedInterest",
      "outputs": [
        {
          "internalType": "uint256",
          "name": "",
          "type": "uint256"
        }
      ],
      "stateMutability": "view",
      "type": "function"
    },
    {
      "inputs": [],
      "name": "availableLiquidity",
      "outputs": [
        {
          "internalType": "uint256",
          "name": "",
          "type": "uint256"
        }
      ],
      "stateMutability": "view",
      "type": "function"
    },
    {
      "inputs": [
        {
          "components": [
            {
              "internalType": "address",
              "name": "bidder",
              "type": "address"
            },
            {
              "internalType": "uint256",
              "name": "propertyValue",
              "type": "uint256"
            },
            {
              "internalType": "uint256",
              "name": "downPayment",
              "type": "uint256"
            },
            {
              "internalType": "uint256",
              "name": "maxDurationMonths",
              "type": "uint256"
            }
          ],
          "internalType": "struct IState.Bid",
          "name": "bid",
          "type": "tuple"
        }
      ],
      "name": "bidActionable",
      "outputs": [
        {
          "internalType": "bool",
          "name": "",
          "type": "bool"
        }
      ],
      "stateMutability": "view",
      "type": "function"
    },
    {
      "inputs": [
        {
          "internalType": "uint256",
          "name": "tokenId",
          "type": "uint256"
        }
      ],
      "name": "bids",
      "outputs": [
        {
          "components": [
            {
              "internalType": "address",
              "name": "bidder",
              "type": "address"
            },
            {
              "internalType": "uint256",
              "name": "propertyValue",
              "type": "uint256"
            },
            {
              "internalType": "uint256",
              "name": "downPayment",
              "type": "uint256"
            },
            {
              "internalType": "uint256",
              "name": "maxDurationMonths",
              "type": "uint256"
            }
          ],
          "internalType": "struct IState.Bid[]",
          "name": "",
          "type": "tuple[]"
        }
      ],
      "stateMutability": "view",
      "type": "function"
    },
    {
      "inputs": [
        {
          "internalType": "UD60x18",
          "name": "utilization",
          "type": "uint256"
        }
      ],
      "name": "borrowerApr",
      "outputs": [
        {
          "internalType": "UD60x18",
          "name": "apr",
          "type": "uint256"
        }
      ],
      "stateMutability": "view",
      "type": "function"
    },
    {
      "inputs": [
        {
          "internalType": "UD60x18",
          "name": "utilization",
          "type": "uint256"
        }
      ],
      "name": "borrowerRatePerSecond",
      "outputs": [
        {
          "internalType": "UD60x18",
          "name": "ratePerSecond",
          "type": "uint256"
        }
      ],
      "stateMutability": "view",
      "type": "function"
    },
    {
      "inputs": [],
      "name": "defaultFeeSpread",
      "outputs": [
        {
          "internalType": "UD60x18",
          "name": "",
          "type": "uint256"
        }
      ],
      "stateMutability": "view",
      "type": "function"
    },
    {
      "inputs": [
        {
          "internalType": "contract IERC20",
          "name": "_USDC",
          "type": "address"
        },
        {
          "internalType": "contract tUsdc",
          "name": "_tUSDC",
          "type": "address"
        },
        {
          "internalType": "contract TangibleNft",
          "name": "_prosperaNftContract",
          "type": "address"
        }
      ],
      "name": "initialize",
      "outputs": [],
      "stateMutability": "nonpayable",
      "type": "function"
    },
    {
      "inputs": [
        {
          "components": [
            {
              "internalType": "address",
              "name": "bidder",
              "type": "address"
            },
            {
              "internalType": "uint256",
              "name": "propertyValue",
              "type": "uint256"
            },
            {
              "internalType": "uint256",
              "name": "downPayment",
              "type": "uint256"
            },
            {
              "internalType": "uint256",
              "name": "maxDurationMonths",
              "type": "uint256"
            }
          ],
          "internalType": "struct IState.Bid",
          "name": "_bid",
          "type": "tuple"
        }
      ],
      "name": "loanBidActionable",
      "outputs": [
        {
          "internalType": "bool",
          "name": "",
          "type": "bool"
        }
      ],
      "stateMutability": "view",
      "type": "function"
    },
    {
      "inputs": [
        {
          "internalType": "uint256",
          "name": "tokenId",
          "type": "uint256"
        }
      ],
      "name": "loans",
      "outputs": [
        {
          "components": [
            {
              "internalType": "address",
              "name": "borrower",
              "type": "address"
            },
            {
              "internalType": "UD60x18",
              "name": "ratePerSecond",
              "type": "uint256"
            },
            {
              "internalType": "UD60x18",
              "name": "paymentPerSecond",
              "type": "uint256"
            },
            {
              "internalType": "uint256",
              "name": "startTime",
              "type": "uint256"
            },
            {
              "internalType": "uint256",
              "name": "unpaidPrincipal",
              "type": "uint256"
            },
            {
              "internalType": "uint256",
              "name": "maxDurationSeconds",
              "type": "uint256"
            },
            {
              "internalType": "uint256",
              "name": "lastPaymentTime",
              "type": "uint256"
            }
          ],
          "internalType": "struct IState.Loan",
          "name": "",
          "type": "tuple"
        }
      ],
      "stateMutability": "view",
      "type": "function"
    },
    {
      "inputs": [
        {
          "internalType": "uint256",
          "name": "idx",
          "type": "uint256"
        }
      ],
      "name": "loansTokenIdsAt",
      "outputs": [
        {
          "internalType": "uint256",
          "name": "tokenId",
          "type": "uint256"
        }
      ],
      "stateMutability": "view",
      "type": "function"
    },
    {
      "inputs": [],
      "name": "loansTokenIdsLength",
      "outputs": [
        {
          "internalType": "uint256",
          "name": "",
          "type": "uint256"
        }
      ],
      "stateMutability": "view",
      "type": "function"
    },
    {
      "inputs": [
        {
          "internalType": "bytes4",
          "name": "",
          "type": "bytes4"
        }
      ],
      "name": "logicTargets",
      "outputs": [
        {
          "internalType": "address",
          "name": "",
          "type": "address"
        }
      ],
      "stateMutability": "view",
      "type": "function"
    },
    {
      "inputs": [],
      "name": "maxDurationMonthsCap",
      "outputs": [
        {
          "internalType": "uint256",
          "name": "",
          "type": "uint256"
        }
      ],
      "stateMutability": "view",
      "type": "function"
    },
    {
      "inputs": [],
      "name": "maxLtv",
      "outputs": [
        {
          "internalType": "UD60x18",
          "name": "",
          "type": "uint256"
        }
      ],
      "stateMutability": "view",
      "type": "function"
    },
    {
      "inputs": [],
      "name": "monthSeconds",
      "outputs": [
        {
          "internalType": "uint256",
          "name": "",
          "type": "uint256"
        }
      ],
      "stateMutability": "view",
      "type": "function"
    },
    {
      "inputs": [],
      "name": "optimalUtilization",
      "outputs": [
        {
          "internalType": "UD60x18",
          "name": "",
          "type": "uint256"
        }
      ],
      "stateMutability": "view",
      "type": "function"
    },
    {
      "inputs": [],
      "name": "owner",
      "outputs": [
        {
          "internalType": "address",
          "name": "",
          "type": "address"
        }
      ],
      "stateMutability": "view",
      "type": "function"
    },
    {
      "inputs": [
        {
          "components": [
            {
              "internalType": "address",
              "name": "borrower",
              "type": "address"
            },
            {
              "internalType": "UD60x18",
              "name": "ratePerSecond",
              "type": "uint256"
            },
            {
              "internalType": "UD60x18",
              "name": "paymentPerSecond",
              "type": "uint256"
            },
            {
              "internalType": "uint256",
              "name": "startTime",
              "type": "uint256"
            },
            {
              "internalType": "uint256",
              "name": "unpaidPrincipal",
              "type": "uint256"
            },
            {
              "internalType": "uint256",
              "name": "maxDurationSeconds",
              "type": "uint256"
            },
            {
              "internalType": "uint256",
              "name": "lastPaymentTime",
              "type": "uint256"
            }
          ],
          "internalType": "struct IState.Loan",
          "name": "loan",
          "type": "tuple"
        },
        {
          "internalType": "uint256",
          "name": "month",
          "type": "uint256"
        }
      ],
      "name": "principalCap",
      "outputs": [
        {
          "internalType": "uint256",
          "name": "cap",
          "type": "uint256"
        }
      ],
      "stateMutability": "pure",
      "type": "function"
    },
    {
      "inputs": [],
      "name": "redemptionFeeSpread",
      "outputs": [
        {
          "internalType": "UD60x18",
          "name": "",
          "type": "uint256"
        }
      ],
      "stateMutability": "view",
      "type": "function"
    },
    {
      "inputs": [],
      "name": "renounceOwnership",
      "outputs": [],
      "stateMutability": "nonpayable",
      "type": "function"
    },
    {
      "inputs": [
        {
          "internalType": "bytes4[]",
          "name": "selectorsArr",
          "type": "bytes4[]"
        },
        {
          "internalType": "address",
          "name": "target",
          "type": "address"
        }
      ],
      "name": "setSelectorsTarget",
      "outputs": [],
      "stateMutability": "nonpayable",
      "type": "function"
    },
    {
      "inputs": [
        {
          "internalType": "uint256",
          "name": "tokenId",
          "type": "uint256"
        }
      ],
      "name": "status",
      "outputs": [
        {
          "internalType": "enum IState.Status",
          "name": "",
          "type": "uint8"
        }
      ],
      "stateMutability": "view",
      "type": "function"
    },
    {
      "inputs": [
        {
          "internalType": "uint256",
          "name": "tokenId",
          "type": "uint256"
        }
      ],
      "name": "tokenIdBidsLength",
      "outputs": [
        {
          "internalType": "uint256",
          "name": "",
          "type": "uint256"
        }
      ],
      "stateMutability": "view",
      "type": "function"
    },
    {
      "inputs": [],
      "name": "totalDeposits",
      "outputs": [
        {
          "internalType": "uint256",
          "name": "",
          "type": "uint256"
        }
      ],
      "stateMutability": "view",
      "type": "function"
    },
    {
      "inputs": [],
      "name": "totalPrincipal",
      "outputs": [
        {
          "internalType": "uint256",
          "name": "",
          "type": "uint256"
        }
      ],
      "stateMutability": "view",
      "type": "function"
    },
    {
      "inputs": [
        {
          "internalType": "address",
          "name": "newOwner",
          "type": "address"
        }
      ],
      "name": "transferOwnership",
      "outputs": [],
      "stateMutability": "nonpayable",
      "type": "function"
    },
    {
      "inputs": [],
      "name": "yearMonths",
      "outputs": [
        {
          "internalType": "uint256",
          "name": "",
          "type": "uint256"
        }
      ],
      "stateMutability": "view",
      "type": "function"
    },
    {
      "inputs": [],
      "name": "yearSeconds",
      "outputs": [
        {
          "internalType": "uint256",
          "name": "",
          "type": "uint256"
        }
      ],
      "stateMutability": "view",
      "type": "function"
    }
  ],
  "bytecode": "0x60806040526200003b6200001a60646200022960201b60201c565b6200002c605a6200022960201b60201c565b620002ba60201b90919060201c565b600755620000756200005460646200022960201b60201c565b6200006660046200022960201b60201c565b620002ba60201b90919060201c565b600855620000af6200008e60646200022960201b60201c565b620000a060036200022960201b60201c565b620002ba60201b90919060201c565b600955620000c460096200022960201b60201c565b600a55620000fe620000dd60646200022960201b60201c565b620000ef60016200022960201b60201c565b620002ba60201b90919060201c565b600b55620001386200011760646200022960201b60201c565b6200012960026200022960201b60201c565b620002ba60201b90919060201c565b600c55620001726200015160646200022960201b60201c565b6200016360036200022960201b60201c565b620002ba60201b90919060201c565b600d55620001ac6200018b60646200022960201b60201c565b6200019d60046200022960201b60201c565b620002ba60201b90919060201c565b600e55623b5380601455620001ed620001cc60646200022960201b60201c565b620001de60326200022960201b60201c565b620002ba60201b90919060201c565b60155560786016553480156200020257600080fd5b5062000223620002176200030f60201b60201c565b6200031760201b60201c565b620005ed565b6000670de0b6b3a76400007fffffffffffffffffffffffffffffffffffffffffffffffffffffffffffffffff6200026191906200054a565b821115620002a857816040517f1cd951a70000000000000000000000000000000000000000000000000000000081526004016200029f919062000593565b60405180910390fd5b670de0b6b3a764000082029050919050565b600062000307620002fb620002d585620003db60201b60201c565b670de0b6b3a7640000620002ef86620003db60201b60201c565b620003e560201b60201c565b6200050760201b60201c565b905092915050565b600033905090565b60008060009054906101000a900473ffffffffffffffffffffffffffffffffffffffff169050816000806101000a81548173ffffffffffffffffffffffffffffffffffffffff021916908373ffffffffffffffffffffffffffffffffffffffff1602179055508173ffffffffffffffffffffffffffffffffffffffff168173ffffffffffffffffffffffffffffffffffffffff167f8be0079c531659141344cd1fd0a4f28419497f9722a3daafe3b4186f6b6457e060405160405180910390a35050565b6000819050919050565b600080600080198587098587029250828110838203039150506000810362000425578382816200041a57620004196200051b565b5b049250505062000500565b83811062000470578585856040517f63a057780000000000000000000000000000000000000000000000000000000081526004016200046793929190620005b0565b60405180910390fd5b60008486880990508281118203915080830392506000600186190186169050600081870496508185049450600182836000030401905080840285179450600060028860030218905080880260020381029050808802600203810290508088026002038102905080880260020381029050808802600203810290508088026002038102905080860296505050505050505b9392505050565b6000819050919050565b6000819050919050565b7f4e487b7100000000000000000000000000000000000000000000000000000000600052601260045260246000fd5b6000620005578262000511565b9150620005648362000511565b9250826200057757620005766200051b565b5b828204905092915050565b6200058d8162000511565b82525050565b6000602082019050620005aa600083018462000582565b92915050565b6000606082019050620005c7600083018662000582565b620005d6602083018562000582565b620005e5604083018462000582565b949350505050565b613e3880620005fd6000396000f3fe608060405234801561001057600080fd5b50600436106101da5760003560e01c806374bdf96a11610104578063ab01f7e1116100a2578063e1ec3c6811610071578063e1ec3c68146105b3578063e3435044146105e3578063f2fde38b146105ff578063ff9ad6df1461061b576101da565b8063ab01f7e114610513578063bcff3e3b14610531578063bd5c569b14610561578063c0c53b8b14610597576101da565b806387ae0dbe116100de57806387ae0dbe146104895780638da5cb5b146104a7578063a0024c2f146104c5578063a54cab1c146104f5576101da565b806374bdf96a1461041d5780637d8820971461044d578063812cf0181461046b576101da565b806342d21ef71161017c5780634cdc3cd81161014b5780634cdc3cd8146103a75780636290cd1c146103d7578063715018a6146103f557806374375359146103ff576101da565b806342d21ef71461030b5780634423c5f11461033b5780634abb30031461036b5780634b1533b214610389576101da565b80631e27d1de116101b85780631e27d1de1461026f5780632da109231461029f5780633a12c6da146102cf5780633ca36db6146102ed576101da565b80630a9cc0b6146101df57806317548b791461020f5780631cc03c871461023f575b600080fd5b6101f960048036038101906101f49190612ecf565b610639565b6040516102069190612f17565b60405180910390f35b61022960048036038101906102249190612f8a565b6106ae565b6040516102369190612fc6565b60405180910390f35b610259600480360381019061025491906130c1565b6106e1565b6040516102669190613111565b60405180910390f35b6102896004803603810190610284919061312c565b610843565b6040516102969190613194565b60405180910390f35b6102b960048036038101906102b491906131af565b610873565b6040516102c69190613111565b60405180910390f35b6102d7610893565b6040516102e49190613194565b60405180910390f35b6102f5610899565b6040516103029190613194565b60405180910390f35b610325600480360381019061032091906131af565b6108a3565b6040516103329190613253565b60405180910390f35b610355600480360381019061035091906131af565b6109ea565b6040516103629190613390565b60405180910390f35b610373610ad0565b6040516103809190613194565b60405180910390f35b610391610ada565b60405161039e9190613111565b60405180910390f35b6103c160048036038101906103bc919061312c565b610ae0565b6040516103ce9190613194565b60405180910390f35b6103df610c93565b6040516103ec9190613194565b60405180910390f35b6103fd610c99565b005b610407610cad565b6040516104149190613111565b60405180910390f35b610437600480360381019061043291906131af565b610cc4565b6040516104449190613111565b60405180910390f35b610455610ce1565b6040516104629190613111565b60405180910390f35b610473610ce7565b6040516104809190613111565b60405180910390f35b610491610cec565b60405161049e9190613111565b60405180910390f35b6104af610cf4565b6040516104bc9190612fc6565b60405180910390f35b6104df60048036038101906104da9190612ecf565b610d1d565b6040516104ec9190612f17565b60405180910390f35b6104fd610d41565b60405161050a9190613111565b60405180910390f35b61051b610d47565b6040516105289190613111565b60405180910390f35b61054b600480360381019061054691906131af565b610d58565b6040516105589190613111565b60405180910390f35b61057b600480360381019061057691906131af565b610e19565b60405161058e97969594939291906133b2565b60405180910390f35b6105b160048036038101906105ac91906134db565b610e7b565b005b6105cd60048036038101906105c891906131af565b61107d565b6040516105da91906135cb565b60405180910390f35b6105fd60048036038101906105f8919061364b565b61113c565b005b610619600480360381019061061491906136ab565b611222565b005b6106236112a5565b6040516106309190613111565b60405180910390f35b600080826040015183602001516106509190613707565b9050600061067b61066485602001516112b9565b61066d846112b9565b61134590919063ffffffff16565b90506106926015548261137a90919063ffffffff16565b80156106a557506106a1610cad565b8211155b92505050919050565b60016020528060005260406000206000915054906101000a900473ffffffffffffffffffffffffffffffffffffffff1681565b60006106ec83611398565b82111561072e576040517f08c379a0000000000000000000000000000000000000000000000000000000008152600401610725906137be565b60405180910390fd5b6000600c6301e13380610741919061380d565b8361074c919061383e565b9050600061079261075d60016113c1565b61078461076d8860a001516113c1565b610776866113c1565b6114c590919063ffffffff16565b6114c590919063ffffffff16565b905060006107eb6107d3836107c56107c08a602001516107b260016112b9565b6114f390919063ffffffff16565b611521565b61159590919063ffffffff16565b6107dd60016113c1565b6114c590919063ffffffff16565b90506000610816610811836108038a60400151611521565b61165390919063ffffffff16565b6117e3565b905061083761083288602001518361134590919063ffffffff16565b611838565b94505050505092915050565b600061086c6108556301e133806112b9565b61085e84610ae0565b61134590919063ffffffff16565b9050919050565b6000600f6000838152602001908152602001600020805490509050919050565b60155481565b6000600d54905090565b600080601060008481526020019081526020016000206040518060e00160405290816000820160009054906101000a900473ffffffffffffffffffffffffffffffffffffffff1673ffffffffffffffffffffffffffffffffffffffff1673ffffffffffffffffffffffffffffffffffffffff16815260200160018201548152602001600282015481526020016003820154815260200160048201548152602001600582015481526020016006820154815250509050600073ffffffffffffffffffffffffffffffffffffffff16816000015173ffffffffffffffffffffffffffffffffffffffff160361099a5760009150506109e5565b6109a383611855565b156109df5760006109b38261196a565b426109be9190613707565b905060145481116109d4576002925050506109e5565b6003925050506109e5565b60019150505b919050565b6060600f6000838152602001908152602001600020805480602002602001604051908101604052809291908181526020016000905b82821015610ac557838290600052602060002090600402016040518060800160405290816000820160009054906101000a900473ffffffffffffffffffffffffffffffffffffffff1673ffffffffffffffffffffffffffffffffffffffff1673ffffffffffffffffffffffffffffffffffffffff168152602001600182015481526020016002820154815260200160038201548152505081526020019060010190610a1f565b505050509050919050565b6000600e54905090565b60055481565b6000610afe610aef60016112b9565b8361137a90919063ffffffff16565b610b0b57610b0a613880565b5b610b206007548361137a90919063ffffffff16565b15610b5557610b4e600954610b4084600854611a1590919063ffffffff16565b6114f390919063ffffffff16565b9050610c3c565b610b6a60075483611a4190919063ffffffff16565b8015610b8e5750610b8d610b7e60016112b9565b83611a5e90919063ffffffff16565b5b15610bde576000610bb2610bad84600a54611a1590919063ffffffff16565b611521565b9050610bd6610bd1610bc2611a7b565b83611aec90919063ffffffff16565b6117e3565b915050610c3b565b610bfa610beb60016112b9565b83611b1a90919063ffffffff16565b15610c3a576040517f08c379a0000000000000000000000000000000000000000000000000000000008152600401610c3190613921565b60405180910390fd5b5b5b610c58610c4960006112b9565b82611a4190919063ffffffff16565b610c6557610c64613880565b5b610c81610c7260016112b9565b82611a5e90919063ffffffff16565b610c8e57610c8d613880565b5b919050565b60075481565b610ca1611b37565b610cab6000611bb5565b565b6000600554600654610cbf9190613707565b905090565b6000610cda826011611c7990919063ffffffff16565b9050919050565b60065481565b600c81565b6301e1338081565b60008060009054906101000a900473ffffffffffffffffffffffffffffffffffffffff16905090565b6000816040015182602001511480610d3a5750610d3982610639565b5b9050919050565b60165481565b6000610d536011611c93565b905090565b6000610e12601060008481526020019081526020016000206040518060e00160405290816000820160009054906101000a900473ffffffffffffffffffffffffffffffffffffffff1673ffffffffffffffffffffffffffffffffffffffff1673ffffffffffffffffffffffffffffffffffffffff1681526020016001820154815260200160028201548152602001600382015481526020016004820154815260200160058201548152602001600682015481525050611ca8565b9050919050565b60106020528060005260406000206000915090508060000160009054906101000a900473ffffffffffffffffffffffffffffffffffffffff16908060010154908060020154908060030154908060040154908060050154908060060154905087565b6000600260019054906101000a900460ff16159050808015610eaf57506001600260009054906101000a900460ff1660ff16105b80610ede5750610ebe30611ce0565b158015610edd57506001600260009054906101000a900460ff1660ff16145b5b610f1d576040517f08c379a0000000000000000000000000000000000000000000000000000000008152600401610f14906139b3565b60405180910390fd5b6001600260006101000a81548160ff021916908360ff1602179055508015610f5b576001600260016101000a81548160ff0219169083151502179055505b836002806101000a81548173ffffffffffffffffffffffffffffffffffffffff021916908373ffffffffffffffffffffffffffffffffffffffff16021790555082600360006101000a81548173ffffffffffffffffffffffffffffffffffffffff021916908373ffffffffffffffffffffffffffffffffffffffff16021790555081600460006101000a81548173ffffffffffffffffffffffffffffffffffffffff021916908373ffffffffffffffffffffffffffffffffffffffff1602179055508015611077576000600260016101000a81548160ff0219169083151502179055507f7f26b83ff96e1f2b6a682f133852f6798a09c465da95921460cefb3847402498600160405161106e9190613a1b565b60405180910390a15b50505050565b611085612ccb565b601060008381526020019081526020016000206040518060e00160405290816000820160009054906101000a900473ffffffffffffffffffffffffffffffffffffffff1673ffffffffffffffffffffffffffffffffffffffff1673ffffffffffffffffffffffffffffffffffffffff16815260200160018201548152602001600282015481526020016003820154815260200160048201548152602001600582015481526020016006820154815250509050919050565b611144611b37565b60005b8383905081101561121c57816001600086868581811061116a57611169613a36565b5b905060200201602081019061117f9190612f8a565b7bffffffffffffffffffffffffffffffffffffffffffffffffffffffff19167bffffffffffffffffffffffffffffffffffffffffffffffffffffffff1916815260200190815260200160002060006101000a81548173ffffffffffffffffffffffffffffffffffffffff021916908373ffffffffffffffffffffffffffffffffffffffff160217905550808061121490613a65565b915050611147565b50505050565b61122a611b37565b600073ffffffffffffffffffffffffffffffffffffffff168173ffffffffffffffffffffffffffffffffffffffff1603611299576040517f08c379a000000000000000000000000000000000000000000000000000000000815260040161129090613b1f565b60405180910390fd5b6112a281611bb5565b50565b600c6301e133806112b6919061380d565b81565b6000670de0b6b3a76400007fffffffffffffffffffffffffffffffffffffffffffffffffffffffffffffffff6112ef919061380d565b82111561133357816040517f1cd951a700000000000000000000000000000000000000000000000000000000815260040161132a9190613111565b60405180910390fd5b670de0b6b3a764000082029050919050565b600061137261136d61135685611d03565b670de0b6b3a764000061136886611d03565b611d0d565b611e27565b905092915050565b600061138582611d03565b61138e84611d03565b1115905092915050565b60006301e133808260a00151600c6113b0919061383e565b6113ba919061380d565b9050919050565b6000670de0b6b3a76400007f80000000000000000000000000000000000000000000000000000000000000006113f79190613b49565b82121561143b57816040517f99474eeb0000000000000000000000000000000000000000000000000000000081526004016114329190613bc2565b60405180910390fd5b670de0b6b3a76400007f7fffffffffffffffffffffffffffffffffffffffffffffffffffffffffffffff61146f9190613b49565b8213156114b357816040517f9d5810910000000000000000000000000000000000000000000000000000000081526004016114aa9190613bc2565b60405180910390fd5b670de0b6b3a764000082029050919050565b60006114eb6114d383611e31565b6114dc85611e31565b6114e69190613bdd565b611e3b565b905092915050565b600061151961150183611d03565b61150a85611d03565b6115149190613c20565b611e27565b905092915050565b6000808290507f7fffffffffffffffffffffffffffffffffffffffffffffffffffffffffffffff81111561158c57826040517ff46186840000000000000000000000000000000000000000000000000000000081526004016115839190613194565b60405180910390fd5b80915050919050565b6000806115a184611e31565b905060006115ae84611e31565b9050600082036115da57600081146115c75760006115d1565b670de0b6b3a76400005b9250505061164d565b670de0b6b3a764000082036115fb57670de0b6b3a76400009250505061164d565b6000810361161557670de0b6b3a76400009250505061164d565b670de0b6b3a7640000810361162e57849250505061164d565b61164861164361163d87611e45565b86611653565b611fd8565b925050505b92915050565b60008061165f84611e31565b9050600061166c84611e31565b90507f80000000000000000000000000000000000000000000000000000000000000008214806116bb57507f800000000000000000000000000000000000000000000000000000000000000081145b156116f2576040517fa6070c2500000000000000000000000000000000000000000000000000000000815260040160405180910390fd5b600080600084126117035783611708565b836000035b915060008312611718578261171d565b826000035b9050600061172b83836120f6565b90507f7fffffffffffffffffffffffffffffffffffffffffffffffffffffffffffffff8111156117945787876040517f120b5b4300000000000000000000000000000000000000000000000000000000815260040161178b929190613c85565b60405180910390fd5b60007fffffffffffffffffffffffffffffffffffffffffffffffffffffffffffffffff8587181390506117d5816117ce57826000036117d0565b825b611e3b565b965050505050505092915050565b600080829050600081121561182f57826040517fbba41a150000000000000000000000000000000000000000000000000000000081526004016118269190613cae565b60405180910390fd5b80915050919050565b6000670de0b6b3a76400008261184e919061380d565b9050919050565b600080601060008481526020019081526020016000206040518060e00160405290816000820160009054906101000a900473ffffffffffffffffffffffffffffffffffffffff1673ffffffffffffffffffffffffffffffffffffffff1673ffffffffffffffffffffffffffffffffffffffff168152602001600182015481526020016002820154815260200160038201548152602001600482015481526020016005820154815260200160068201548152505090506000611915826121e0565b90506000600c6301e133808460a0015161192f919061380d565b611939919061383e565b90508082111561194f5760019350505050611965565b61195983836106e1565b83608001511193505050505b919050565b600080611976836121e0565b905060008190505b6000811115611a0e57600061199385836106e1565b905060006119ad866001856119a89190613707565b6106e1565b90508186608001511180156119c6575080866080015111155b156119f957600c6301e133806119dc919061380d565b836119e7919061383e565b86606001516119f69190613c20565b94505b50508080611a0690613cc9565b91505061197e565b5050919050565b6000611a39611a34611a2685611d03565b611a2f85611d03565b6120f6565b611e27565b905092915050565b6000611a4c82611d03565b611a5584611d03565b11905092915050565b6000611a6982611d03565b611a7284611d03565b10905092915050565b600080611aa5611a8c600a54611521565b611a97600854611521565b6114c590919063ffffffff16565b90506000611ac682611ab8600754611521565b61165390919063ffffffff16565b9050611ae5611ad6600954611521565b82611aec90919063ffffffff16565b9250505090565b6000611b12611afa83611e31565b611b0385611e31565b611b0d9190613cf2565b611e3b565b905092915050565b6000611b2582611d03565b611b2e84611d03565b14905092915050565b611b3f612235565b73ffffffffffffffffffffffffffffffffffffffff16611b5d610cf4565b73ffffffffffffffffffffffffffffffffffffffff1614611bb3576040517f08c379a0000000000000000000000000000000000000000000000000000000008152600401611baa90613d82565b60405180910390fd5b565b60008060009054906101000a900473ffffffffffffffffffffffffffffffffffffffff169050816000806101000a81548173ffffffffffffffffffffffffffffffffffffffff021916908373ffffffffffffffffffffffffffffffffffffffff1602179055508173ffffffffffffffffffffffffffffffffffffffff168173ffffffffffffffffffffffffffffffffffffffff167f8be0079c531659141344cd1fd0a4f28419497f9722a3daafe3b4186f6b6457e060405160405180910390a35050565b6000611c88836000018361223d565b60001c905092915050565b6000611ca182600001612268565b9050919050565b6000611cd9611cd4611cb984612279565b611cc685608001516112b9565b611a1590919063ffffffff16565b611838565b9050919050565b6000808273ffffffffffffffffffffffffffffffffffffffff163b119050919050565b6000819050919050565b6000806000801985870985870292508281108382030391505060008103611d4857838281611d3e57611d3d6137de565b5b0492505050611e20565b838110611d90578585856040517f63a05778000000000000000000000000000000000000000000000000000000008152600401611d8793929190613da2565b60405180910390fd5b60008486880990508281118203915080830392506000600186190186169050600081870496508185049450600182836000030401905080840285179450600060028860030218905080880260020381029050808802600203810290508088026002038102905080880260020381029050808802600203810290508088026002038102905080860296505050505050505b9392505050565b6000819050919050565b6000819050919050565b6000819050919050565b600080611e5183611e31565b905060008113611e9857826040517f059b101b000000000000000000000000000000000000000000000000000000008152600401611e8f9190613cae565b60405180910390fd5b6000670de0b6b3a76400008212611eb25760019050611ef8565b7fffffffffffffffffffffffffffffffffffffffffffffffffffffffffffffffff9050816ec097ce7bc90715b34b9f100000000081611ef457611ef36137de565b5b0591505b6000611f1b670de0b6b3a76400008481611f1557611f146137de565b5b056122a9565b90506000670de0b6b3a76400008202905060008285901d9050670de0b6b3a76400008103611f5a57611f4e848302611e3b565b95505050505050611fd3565b6000671bc16d674ec80000905060006706f05b59d3b2000090505b6000811315611fbb57670de0b6b3a764000083840281611f9857611f976137de565b5b059250818312611faf578084019350600183901d92505b600181901d9050611f75565b508483029250611fca83611e3b565b96505050505050505b919050565b600080611fe483611e31565b9050600081121561206b577ffffffffffffffffffffffffffffffffffffffffffffffffcc22e87f6eb468eeb8112156120215760009150506120f1565b61206461204061203b61203684600003611e3b565b611fd8565b611e31565b6ec097ce7bc90715b34b9f10000000008161205e5761205d6137de565b5b05611e3b565b91506120ef565b680a688906bd8affffff8113156120b957826040517f0360d0280000000000000000000000000000000000000000000000000000000081526004016120b09190613cae565b60405180910390fd5b6000670de0b6b3a7640000604083901b816120d7576120d66137de565b5b0590506120eb6120e682612352565b611e3b565b9250505b505b919050565b600080600080198486098486029250828110838203039150506000810361213957670de0b6b3a7640000828161212f5761212e6137de565b5b04925050506121da565b670de0b6b3a764000081106121875784846040517f5173648d00000000000000000000000000000000000000000000000000000000815260040161217e929190613dd9565b60405180910390fd5b6000670de0b6b3a764000085870990507faccb18165bd6fe31ae1cf318dc5b51eee0e1ba569b88cd74c1773b91fac106696001620400008060000304018483118403026204000083860304170293505050505b92915050565b600080600c6301e133806121f4919061380d565b8360600151426122049190613707565b61220e919061380d565b9050600061221b84611398565b905080821161222a578161222c565b805b92505050919050565b600033905090565b600082600001828154811061225557612254613a36565b5b9060005260206000200154905092915050565b600081600001805490509050919050565b60006122a261228f61228a84612cb2565b6112b9565b8360200151611a1590919063ffffffff16565b9050919050565b60006fffffffffffffffffffffffffffffffff821160071b82811c925080821791505067ffffffffffffffff821160061b82811c925080821791505063ffffffff821160051b82811c925080821791505061ffff821160041b82811c925080821791505060ff821160031b82811c9250808217915050600f821160021b82811c92508082179150506003821160011b82811c925080821791505060018211808217915050919050565b6000778000000000000000000000000000000000000000000000009050600067ff00000000000000831611156124b3576000678000000000000000831611156123a857604068016a09e667f3bcc9098202901c90505b6000674000000000000000831611156123ce5760406801306fe0a31b7152df8202901c90505b6000672000000000000000831611156123f45760406801172b83c7d517adce8202901c90505b60006710000000000000008316111561241a57604068010b5586cf9890f62a8202901c90505b6000670800000000000000831611156124405760406801059b0d31585743ae8202901c90505b600067040000000000000083161115612466576040680102c9a3e778060ee78202901c90505b60006702000000000000008316111561248c57604068010163da9fb33356d88202901c90505b6000670100000000000000831611156124b2576040680100b1afa5abcbed618202901c90505b5b600066ff000000000000831611156125ee5760006680000000000000831611156124ea57604068010058c86da1c09ea28202901c90505b600066400000000000008316111561250f5760406801002c605e2e8cec508202901c90505b6000662000000000000083161115612534576040680100162f3904051fa18202901c90505b60006610000000000000831611156125595760406801000b175effdc76ba8202901c90505b600066080000000000008316111561257e576040680100058ba01fb9f96d8202901c90505b60006604000000000000831611156125a357604068010002c5cc37da94928202901c90505b60006602000000000000831611156125c85760406801000162e525ee05478202901c90505b60006601000000000000831611156125ed57604068010000b17255775c048202901c90505b5b600065ff00000000008316111561272057600065800000000000831611156126235760406801000058b91b5bc9ae8202901c90505b60006540000000000083161115612647576040680100002c5c89d5ec6d8202901c90505b6000652000000000008316111561266b57604068010000162e43f4f8318202901c90505b6000651000000000008316111561268f576040680100000b1721bcfc9a8202901c90505b600065080000000000831611156126b357604068010000058b90cf1e6e8202901c90505b600065040000000000831611156126d75760406801000002c5c863b73f8202901c90505b600065020000000000831611156126fb576040680100000162e430e5a28202901c90505b6000650100000000008316111561271f5760406801000000b1721835518202901c90505b5b600064ff000000008316111561284957600064800000000083161115612753576040680100000058b90c0b498202901c90505b60006440000000008316111561277657604068010000002c5c8601cc8202901c90505b6000642000000000831611156127995760406801000000162e42fff08202901c90505b6000641000000000831611156127bc57604068010000000b17217fbb8202901c90505b6000640800000000831611156127df5760406801000000058b90bfce8202901c90505b600064040000000083161115612802576040680100000002c5c85fe38202901c90505b60006402000000008316111561282557604068010000000162e42ff18202901c90505b600064010000000083161115612848576040680100000000b17217f88202901c90505b5b600063ff0000008316111561296957600063800000008316111561287a57604068010000000058b90bfc8202901c90505b600063400000008316111561289c5760406801000000002c5c85fe8202901c90505b60006320000000831611156128be576040680100000000162e42ff8202901c90505b60006310000000831611156128e05760406801000000000b17217f8202901c90505b6000630800000083161115612902576040680100000000058b90c08202901c90505b600063040000008316111561292457604068010000000002c5c8608202901c90505b60006302000000831611156129465760406801000000000162e4308202901c90505b600063010000008316111561296857604068010000000000b172188202901c90505b5b600062ff000083161115612a8057600062800000831611156129985760406801000000000058b90c8202901c90505b600062400000831611156129b9576040680100000000002c5c868202901c90505b600062200000831611156129da57604068010000000000162e438202901c90505b600062100000831611156129fb576040680100000000000b17218202901c90505b60006208000083161115612a1c57604068010000000000058b918202901c90505b60006204000083161115612a3d5760406801000000000002c5c88202901c90505b60006202000083161115612a5e576040680100000000000162e48202901c90505b60006201000083161115612a7f5760406801000000000000b1728202901c90505b5b600061ff0083161115612b8e57600061800083161115612aad576040680100000000000058b98202901c90505b600061400083161115612acd57604068010000000000002c5d8202901c90505b600061200083161115612aed5760406801000000000000162e8202901c90505b600061100083161115612b0d57604068010000000000000b178202901c90505b600061080083161115612b2d5760406801000000000000058c8202901c90505b600061040083161115612b4d576040680100000000000002c68202901c90505b600061020083161115612b6d576040680100000000000001638202901c90505b600061010083161115612b8d576040680100000000000000b18202901c90505b5b600060ff83161115612c93576000608083161115612bb9576040680100000000000000598202901c90505b6000604083161115612bd85760406801000000000000002c8202901c90505b6000602083161115612bf7576040680100000000000000168202901c90505b6000601083161115612c165760406801000000000000000b8202901c90505b6000600883161115612c35576040680100000000000000068202901c90505b6000600483161115612c54576040680100000000000000038202901c90505b6000600283161115612c73576040680100000000000000018202901c90505b6000600183161115612c92576040680100000000000000018202901c90505b5b670de0b6b3a764000081029050604082901c60bf0381901c9050919050565b60008160c0015142612cc49190613707565b9050919050565b6040518060e00160405280600073ffffffffffffffffffffffffffffffffffffffff1681526020016000815260200160008152602001600081526020016000815260200160008152602001600081525090565b6000604051905090565b600080fd5b600080fd5b600080fd5b6000601f19601f8301169050919050565b7f4e487b7100000000000000000000000000000000000000000000000000000000600052604160045260246000fd5b612d8082612d37565b810181811067ffffffffffffffff82111715612d9f57612d9e612d48565b5b80604052505050565b6000612db2612d1e565b9050612dbe8282612d77565b919050565b600073ffffffffffffffffffffffffffffffffffffffff82169050919050565b6000612dee82612dc3565b9050919050565b612dfe81612de3565b8114612e0957600080fd5b50565b600081359050612e1b81612df5565b92915050565b6000819050919050565b612e3481612e21565b8114612e3f57600080fd5b50565b600081359050612e5181612e2b565b92915050565b600060808284031215612e6d57612e6c612d32565b5b612e776080612da8565b90506000612e8784828501612e0c565b6000830152506020612e9b84828501612e42565b6020830152506040612eaf84828501612e42565b6040830152506060612ec384828501612e42565b60608301525092915050565b600060808284031215612ee557612ee4612d28565b5b6000612ef384828501612e57565b91505092915050565b60008115159050919050565b612f1181612efc565b82525050565b6000602082019050612f2c6000830184612f08565b92915050565b60007fffffffff0000000000000000000000000000000000000000000000000000000082169050919050565b612f6781612f32565b8114612f7257600080fd5b50565b600081359050612f8481612f5e565b92915050565b600060208284031215612fa057612f9f612d28565b5b6000612fae84828501612f75565b91505092915050565b612fc081612de3565b82525050565b6000602082019050612fdb6000830184612fb7565b92915050565b612fea81612e21565b8114612ff557600080fd5b50565b60008135905061300781612fe1565b92915050565b600060e0828403121561302357613022612d32565b5b61302d60e0612da8565b9050600061303d84828501612e0c565b600083015250602061305184828501612ff8565b602083015250604061306584828501612ff8565b604083015250606061307984828501612e42565b606083015250608061308d84828501612e42565b60808301525060a06130a184828501612e42565b60a08301525060c06130b584828501612e42565b60c08301525092915050565b60008061010083850312156130d9576130d8612d28565b5b60006130e78582860161300d565b92505060e06130f885828601612e42565b9150509250929050565b61310b81612e21565b82525050565b60006020820190506131266000830184613102565b92915050565b60006020828403121561314257613141612d28565b5b600061315084828501612ff8565b91505092915050565b6000819050919050565b600061317e61317961317484612e21565b613159565b612e21565b9050919050565b61318e81613163565b82525050565b60006020820190506131a96000830184613185565b92915050565b6000602082840312156131c5576131c4612d28565b5b60006131d384828501612e42565b91505092915050565b7f4e487b7100000000000000000000000000000000000000000000000000000000600052602160045260246000fd5b6004811061321c5761321b6131dc565b5b50565b600081905061322d8261320b565b919050565b600061323d8261321f565b9050919050565b61324d81613232565b82525050565b60006020820190506132686000830184613244565b92915050565b600081519050919050565b600082825260208201905092915050565b6000819050602082019050919050565b6132a381612de3565b82525050565b6132b281612e21565b82525050565b6080820160008201516132ce600085018261329a565b5060208201516132e160208501826132a9565b5060408201516132f460408501826132a9565b50606082015161330760608501826132a9565b50505050565b600061331983836132b8565b60808301905092915050565b6000602082019050919050565b600061333d8261326e565b6133478185613279565b93506133528361328a565b8060005b8381101561338357815161336a888261330d565b975061337583613325565b925050600181019050613356565b5085935050505092915050565b600060208201905081810360008301526133aa8184613332565b905092915050565b600060e0820190506133c7600083018a612fb7565b6133d46020830189613185565b6133e16040830188613185565b6133ee6060830187613102565b6133fb6080830186613102565b61340860a0830185613102565b61341560c0830184613102565b98975050505050505050565b600061342c82612de3565b9050919050565b61343c81613421565b811461344757600080fd5b50565b60008135905061345981613433565b92915050565b600061346a82612de3565b9050919050565b61347a8161345f565b811461348557600080fd5b50565b60008135905061349781613471565b92915050565b60006134a882612de3565b9050919050565b6134b88161349d565b81146134c357600080fd5b50565b6000813590506134d5816134af565b92915050565b6000806000606084860312156134f4576134f3612d28565b5b60006135028682870161344a565b935050602061351386828701613488565b9250506040613524868287016134c6565b9150509250925092565b61353781613163565b82525050565b60e082016000820151613553600085018261329a565b506020820151613566602085018261352e565b506040820151613579604085018261352e565b50606082015161358c60608501826132a9565b50608082015161359f60808501826132a9565b5060a08201516135b260a08501826132a9565b5060c08201516135c560c08501826132a9565b50505050565b600060e0820190506135e0600083018461353d565b92915050565b600080fd5b600080fd5b600080fd5b60008083601f84011261360b5761360a6135e6565b5b8235905067ffffffffffffffff811115613628576136276135eb565b5b602083019150836020820283011115613644576136436135f0565b5b9250929050565b60008060006040848603121561366457613663612d28565b5b600084013567ffffffffffffffff81111561368257613681612d2d565b5b61368e868287016135f5565b935093505060206136a186828701612e0c565b9150509250925092565b6000602082840312156136c1576136c0612d28565b5b60006136cf84828501612e0c565b91505092915050565b7f4e487b7100000000000000000000000000000000000000000000000000000000600052601160045260246000fd5b600061371282612e21565b915061371d83612e21565b9250828203905081811115613735576137346136d8565b5b92915050565b600082825260208201905092915050565b7f6d6f6e7468206d757374206265203c3d206c6f616e4d61784475726174696f6e60008201527f4d6f6e7468730000000000000000000000000000000000000000000000000000602082015250565b60006137a860268361373b565b91506137b38261374c565b604082019050919050565b600060208201905081810360008301526137d78161379b565b9050919050565b7f4e487b7100000000000000000000000000000000000000000000000000000000600052601260045260246000fd5b600061381882612e21565b915061382383612e21565b925082613833576138326137de565b5b828204905092915050565b600061384982612e21565b915061385483612e21565b925082820261386281612e21565b91508282048414831517613879576138786136d8565b5b5092915050565b7f4e487b7100000000000000000000000000000000000000000000000000000000600052600160045260246000fd5b7f6e6f204150522e2063616e2774207374617274206c6f616e206966207574696c60008201527f697a6174696f6e203d2031303025000000000000000000000000000000000000602082015250565b600061390b602e8361373b565b9150613916826138af565b604082019050919050565b6000602082019050818103600083015261393a816138fe565b9050919050565b7f496e697469616c697a61626c653a20636f6e747261637420697320616c72656160008201527f647920696e697469616c697a6564000000000000000000000000000000000000602082015250565b600061399d602e8361373b565b91506139a882613941565b604082019050919050565b600060208201905081810360008301526139cc81613990565b9050919050565b6000819050919050565b600060ff82169050919050565b6000613a05613a006139fb846139d3565b613159565b6139dd565b9050919050565b613a15816139ea565b82525050565b6000602082019050613a306000830184613a0c565b92915050565b7f4e487b7100000000000000000000000000000000000000000000000000000000600052603260045260246000fd5b6000613a7082612e21565b91507fffffffffffffffffffffffffffffffffffffffffffffffffffffffffffffffff8203613aa257613aa16136d8565b5b600182019050919050565b7f4f776e61626c653a206e6577206f776e657220697320746865207a65726f206160008201527f6464726573730000000000000000000000000000000000000000000000000000602082015250565b6000613b0960268361373b565b9150613b1482613aad565b604082019050919050565b60006020820190508181036000830152613b3881613afc565b9050919050565b6000819050919050565b6000613b5482613b3f565b9150613b5f83613b3f565b925082613b6f57613b6e6137de565b5b600160000383147f800000000000000000000000000000000000000000000000000000000000000083141615613ba857613ba76136d8565b5b828205905092915050565b613bbc81613b3f565b82525050565b6000602082019050613bd76000830184613bb3565b92915050565b6000613be882613b3f565b9150613bf383613b3f565b9250828203905081811260008412168282136000851215161715613c1a57613c196136d8565b5b92915050565b6000613c2b82612e21565b9150613c3683612e21565b9250828201905080821115613c4e57613c4d6136d8565b5b92915050565b6000613c6f613c6a613c6584613b3f565b613159565b613b3f565b9050919050565b613c7f81613c54565b82525050565b6000604082019050613c9a6000830185613c76565b613ca76020830184613c76565b9392505050565b6000602082019050613cc36000830184613c76565b92915050565b6000613cd482612e21565b915060008203613ce757613ce66136d8565b5b600182039050919050565b6000613cfd82613b3f565b9150613d0883613b3f565b925082820190508281121560008312168382126000841215161715613d3057613d2f6136d8565b5b92915050565b7f4f776e61626c653a2063616c6c6572206973206e6f7420746865206f776e6572600082015250565b6000613d6c60208361373b565b9150613d7782613d36565b602082019050919050565b60006020820190508181036000830152613d9b81613d5f565b9050919050565b6000606082019050613db76000830186613102565b613dc46020830185613102565b613dd16040830184613102565b949350505050565b6000604082019050613dee6000830185613102565b613dfb6020830184613102565b939250505056fea2646970667358221220cda5811089a50dd3a327a4d2e980bd90ba78253ef79cb3f344618cd43ff93aa564736f6c63430008130033",
  "linkReferences": {},
  "deployedLinkReferences": {}
}