{
  "_format": "hh-sol-artifact-1",
  "contractName": "Interest",
  "sourceName": "contracts/protocol/interest/Interest.sol",
  "abi": [
    {
      "inputs": [
        {
          "internalType": "uint256",
          "name": "x",
          "type": "uint256"
        },
        {
          "internalType": "uint256",
          "name": "y",
          "type": "uint256"
        }
      ],
      "name": "PRBMath_MulDiv18_Overflow",
      "type": "error"
    },
    {
      "inputs": [
        {
          "internalType": "uint256",
          "name": "x",
          "type": "uint256"
        },
        {
          "internalType": "uint256",
          "name": "y",
          "type": "uint256"
        },
        {
          "internalType": "uint256",
          "name": "denominator",
          "type": "uint256"
        }
      ],
      "name": "PRBMath_MulDiv_Overflow",
      "type": "error"
    },
    {
      "inputs": [
        {
          "internalType": "int256",
          "name": "x",
          "type": "int256"
        }
      ],
      "name": "PRBMath_SD59x18_Convert_Overflow",
      "type": "error"
    },
    {
      "inputs": [
        {
          "internalType": "int256",
          "name": "x",
          "type": "int256"
        }
      ],
      "name": "PRBMath_SD59x18_Convert_Underflow",
      "type": "error"
    },
    {
      "inputs": [
        {
          "internalType": "SD59x18",
          "name": "x",
          "type": "int256"
        }
      ],
      "name": "PRBMath_SD59x18_Exp2_InputTooBig",
      "type": "error"
    },
    {
      "inputs": [
        {
          "internalType": "SD59x18",
          "name": "x",
          "type": "int256"
        }
      ],
      "name": "PRBMath_SD59x18_IntoUD60x18_Underflow",
      "type": "error"
    },
    {
      "inputs": [
        {
          "internalType": "SD59x18",
          "name": "x",
          "type": "int256"
        }
      ],
      "name": "PRBMath_SD59x18_Log_InputTooSmall",
      "type": "error"
    },
    {
      "inputs": [],
      "name": "PRBMath_SD59x18_Mul_InputTooSmall",
      "type": "error"
    },
    {
      "inputs": [
        {
          "internalType": "SD59x18",
          "name": "x",
          "type": "int256"
        },
        {
          "internalType": "SD59x18",
          "name": "y",
          "type": "int256"
        }
      ],
      "name": "PRBMath_SD59x18_Mul_Overflow",
      "type": "error"
    },
    {
      "inputs": [
        {
          "internalType": "uint256",
          "name": "x",
          "type": "uint256"
        }
      ],
      "name": "PRBMath_UD60x18_Convert_Overflow",
      "type": "error"
    },
    {
      "inputs": [
        {
          "internalType": "UD60x18",
          "name": "x",
          "type": "uint256"
        }
      ],
      "name": "PRBMath_UD60x18_IntoSD59x18_Overflow",
      "type": "error"
    },
    {
      "anonymous": false,
      "inputs": [
        {
          "indexed": false,
          "internalType": "uint8",
          "name": "version",
          "type": "uint8"
        }
      ],
      "name": "Initialized",
      "type": "event"
    },
    {
      "anonymous": false,
      "inputs": [
        {
          "indexed": true,
          "internalType": "address",
          "name": "previousOwner",
          "type": "address"
        },
        {
          "indexed": true,
          "internalType": "address",
          "name": "newOwner",
          "type": "address"
        }
      ],
      "name": "OwnershipTransferred",
      "type": "event"
    },
    {
      "inputs": [
        {
          "internalType": "uint256",
          "name": "",
          "type": "uint256"
        }
      ],
      "name": "_loans",
      "outputs": [
        {
          "internalType": "address",
          "name": "borrower",
          "type": "address"
        },
        {
          "internalType": "UD60x18",
          "name": "ratePerSecond",
          "type": "uint256"
        },
        {
          "internalType": "UD60x18",
          "name": "paymentPerSecond",
          "type": "uint256"
        },
        {
          "internalType": "uint256",
          "name": "startTime",
          "type": "uint256"
        },
        {
          "internalType": "uint256",
          "name": "unpaidPrincipal",
          "type": "uint256"
        },
        {
          "internalType": "uint256",
          "name": "maxDurationSeconds",
          "type": "uint256"
        },
        {
          "internalType": "uint256",
          "name": "lastPaymentTime",
          "type": "uint256"
        }
      ],
      "stateMutability": "view",
      "type": "function"
    },
    {
      "inputs": [
        {
          "internalType": "uint256",
          "name": "tokenId",
          "type": "uint256"
        }
      ],
      "name": "accruedInterest",
      "outputs": [
        {
          "internalType": "uint256",
          "name": "",
          "type": "uint256"
        }
      ],
      "stateMutability": "view",
      "type": "function"
    },
    {
      "inputs": [],
      "name": "availableLiquidity",
      "outputs": [
        {
          "internalType": "uint256",
          "name": "",
          "type": "uint256"
        }
      ],
      "stateMutability": "view",
      "type": "function"
    },
    {
      "inputs": [
        {
          "components": [
            {
              "internalType": "address",
              "name": "bidder",
              "type": "address"
            },
            {
              "internalType": "uint256",
              "name": "propertyValue",
              "type": "uint256"
            },
            {
              "internalType": "uint256",
              "name": "downPayment",
              "type": "uint256"
            },
            {
              "internalType": "uint256",
              "name": "maxDurationMonths",
              "type": "uint256"
            }
          ],
          "internalType": "struct IState.Bid",
          "name": "bid",
          "type": "tuple"
        }
      ],
      "name": "bidActionable",
      "outputs": [
        {
          "internalType": "bool",
          "name": "",
          "type": "bool"
        }
      ],
      "stateMutability": "view",
      "type": "function"
    },
    {
      "inputs": [
        {
          "internalType": "uint256",
          "name": "tokenId",
          "type": "uint256"
        }
      ],
      "name": "bids",
      "outputs": [
        {
          "components": [
            {
              "internalType": "address",
              "name": "bidder",
              "type": "address"
            },
            {
              "internalType": "uint256",
              "name": "propertyValue",
              "type": "uint256"
            },
            {
              "internalType": "uint256",
              "name": "downPayment",
              "type": "uint256"
            },
            {
              "internalType": "uint256",
              "name": "maxDurationMonths",
              "type": "uint256"
            }
          ],
          "internalType": "struct IState.Bid[]",
          "name": "",
          "type": "tuple[]"
        }
      ],
      "stateMutability": "view",
      "type": "function"
    },
    {
      "inputs": [
        {
          "internalType": "UD60x18",
          "name": "utilization",
          "type": "uint256"
        }
      ],
      "name": "borrowerApr",
      "outputs": [
        {
          "internalType": "UD60x18",
          "name": "apr",
          "type": "uint256"
        }
      ],
      "stateMutability": "view",
      "type": "function"
    },
    {
      "inputs": [
        {
          "internalType": "UD60x18",
          "name": "utilization",
          "type": "uint256"
        }
      ],
      "name": "borrowerRatePerSecond",
      "outputs": [
        {
          "internalType": "UD60x18",
          "name": "ratePerSecond",
          "type": "uint256"
        }
      ],
      "stateMutability": "view",
      "type": "function"
    },
    {
      "inputs": [],
      "name": "defaultFeeSpread",
      "outputs": [
        {
          "internalType": "UD60x18",
          "name": "",
          "type": "uint256"
        }
      ],
      "stateMutability": "view",
      "type": "function"
    },
    {
      "inputs": [
        {
          "internalType": "contract tUsdc",
          "name": "_tUSDC",
          "type": "address"
        },
        {
          "internalType": "contract TangibleNft",
          "name": "_prosperaNftContract",
          "type": "address"
        }
      ],
      "name": "initialize",
      "outputs": [],
      "stateMutability": "nonpayable",
      "type": "function"
    },
    {
      "inputs": [
        {
          "components": [
            {
              "internalType": "address",
              "name": "bidder",
              "type": "address"
            },
            {
              "internalType": "uint256",
              "name": "propertyValue",
              "type": "uint256"
            },
            {
              "internalType": "uint256",
              "name": "downPayment",
              "type": "uint256"
            },
            {
              "internalType": "uint256",
              "name": "maxDurationMonths",
              "type": "uint256"
            }
          ],
          "internalType": "struct IState.Bid",
          "name": "_bid",
          "type": "tuple"
        }
      ],
      "name": "loanBidActionable",
      "outputs": [
        {
          "internalType": "bool",
          "name": "",
          "type": "bool"
        }
      ],
      "stateMutability": "view",
      "type": "function"
    },
    {
      "inputs": [
        {
          "internalType": "uint256",
          "name": "tokenId",
          "type": "uint256"
        }
      ],
      "name": "loans",
      "outputs": [
        {
          "components": [
            {
              "internalType": "address",
              "name": "borrower",
              "type": "address"
            },
            {
              "internalType": "UD60x18",
              "name": "ratePerSecond",
              "type": "uint256"
            },
            {
              "internalType": "UD60x18",
              "name": "paymentPerSecond",
              "type": "uint256"
            },
            {
              "internalType": "uint256",
              "name": "startTime",
              "type": "uint256"
            },
            {
              "internalType": "uint256",
              "name": "unpaidPrincipal",
              "type": "uint256"
            },
            {
              "internalType": "uint256",
              "name": "maxDurationSeconds",
              "type": "uint256"
            },
            {
              "internalType": "uint256",
              "name": "lastPaymentTime",
              "type": "uint256"
            }
          ],
          "internalType": "struct IState.Loan",
          "name": "",
          "type": "tuple"
        }
      ],
      "stateMutability": "view",
      "type": "function"
    },
    {
      "inputs": [
        {
          "internalType": "uint256",
          "name": "idx",
          "type": "uint256"
        }
      ],
      "name": "loansTokenIdsAt",
      "outputs": [
        {
          "internalType": "uint256",
          "name": "tokenId",
          "type": "uint256"
        }
      ],
      "stateMutability": "view",
      "type": "function"
    },
    {
      "inputs": [],
      "name": "loansTokenIdsLength",
      "outputs": [
        {
          "internalType": "uint256",
          "name": "",
          "type": "uint256"
        }
      ],
      "stateMutability": "view",
      "type": "function"
    },
    {
      "inputs": [
        {
          "internalType": "bytes4",
          "name": "",
          "type": "bytes4"
        }
      ],
      "name": "logicTargets",
      "outputs": [
        {
          "internalType": "address",
          "name": "",
          "type": "address"
        }
      ],
      "stateMutability": "view",
      "type": "function"
    },
    {
      "inputs": [],
      "name": "maxDurationMonthsCap",
      "outputs": [
        {
          "internalType": "uint256",
          "name": "",
          "type": "uint256"
        }
      ],
      "stateMutability": "view",
      "type": "function"
    },
    {
      "inputs": [],
      "name": "maxLtv",
      "outputs": [
        {
          "internalType": "UD60x18",
          "name": "",
          "type": "uint256"
        }
      ],
      "stateMutability": "view",
      "type": "function"
    },
    {
      "inputs": [],
      "name": "monthSeconds",
      "outputs": [
        {
          "internalType": "uint256",
          "name": "",
          "type": "uint256"
        }
      ],
      "stateMutability": "view",
      "type": "function"
    },
    {
      "inputs": [],
      "name": "optimalUtilization",
      "outputs": [
        {
          "internalType": "UD60x18",
          "name": "",
          "type": "uint256"
        }
      ],
      "stateMutability": "view",
      "type": "function"
    },
    {
      "inputs": [],
      "name": "owner",
      "outputs": [
        {
          "internalType": "address",
          "name": "",
          "type": "address"
        }
      ],
      "stateMutability": "view",
      "type": "function"
    },
    {
      "inputs": [
        {
          "components": [
            {
              "internalType": "address",
              "name": "borrower",
              "type": "address"
            },
            {
              "internalType": "UD60x18",
              "name": "ratePerSecond",
              "type": "uint256"
            },
            {
              "internalType": "UD60x18",
              "name": "paymentPerSecond",
              "type": "uint256"
            },
            {
              "internalType": "uint256",
              "name": "startTime",
              "type": "uint256"
            },
            {
              "internalType": "uint256",
              "name": "unpaidPrincipal",
              "type": "uint256"
            },
            {
              "internalType": "uint256",
              "name": "maxDurationSeconds",
              "type": "uint256"
            },
            {
              "internalType": "uint256",
              "name": "lastPaymentTime",
              "type": "uint256"
            }
          ],
          "internalType": "struct IState.Loan",
          "name": "loan",
          "type": "tuple"
        },
        {
          "internalType": "uint256",
          "name": "month",
          "type": "uint256"
        }
      ],
      "name": "principalCap",
      "outputs": [
        {
          "internalType": "uint256",
          "name": "cap",
          "type": "uint256"
        }
      ],
      "stateMutability": "pure",
      "type": "function"
    },
    {
      "inputs": [],
      "name": "redemptionFeeSpread",
      "outputs": [
        {
          "internalType": "UD60x18",
          "name": "",
          "type": "uint256"
        }
      ],
      "stateMutability": "view",
      "type": "function"
    },
    {
      "inputs": [],
      "name": "renounceOwnership",
      "outputs": [],
      "stateMutability": "nonpayable",
      "type": "function"
    },
    {
      "inputs": [
        {
          "internalType": "bytes4[]",
          "name": "selectorsArr",
          "type": "bytes4[]"
        },
        {
          "internalType": "address",
          "name": "target",
          "type": "address"
        }
      ],
      "name": "setSelectorsTarget",
      "outputs": [],
      "stateMutability": "nonpayable",
      "type": "function"
    },
    {
      "inputs": [
        {
          "internalType": "uint256",
          "name": "tokenId",
          "type": "uint256"
        }
      ],
      "name": "status",
      "outputs": [
        {
          "internalType": "enum IState.Status",
          "name": "",
          "type": "uint8"
        }
      ],
      "stateMutability": "view",
      "type": "function"
    },
    {
      "inputs": [
        {
          "internalType": "uint256",
          "name": "tokenId",
          "type": "uint256"
        }
      ],
      "name": "tokenIdBidsLength",
      "outputs": [
        {
          "internalType": "uint256",
          "name": "",
          "type": "uint256"
        }
      ],
      "stateMutability": "view",
      "type": "function"
    },
    {
      "inputs": [],
      "name": "totalDeposits",
      "outputs": [
        {
          "internalType": "uint256",
          "name": "",
          "type": "uint256"
        }
      ],
      "stateMutability": "view",
      "type": "function"
    },
    {
      "inputs": [],
      "name": "totalPrincipal",
      "outputs": [
        {
          "internalType": "uint256",
          "name": "",
          "type": "uint256"
        }
      ],
      "stateMutability": "view",
      "type": "function"
    },
    {
      "inputs": [
        {
          "internalType": "address",
          "name": "newOwner",
          "type": "address"
        }
      ],
      "name": "transferOwnership",
      "outputs": [],
      "stateMutability": "nonpayable",
      "type": "function"
    },
    {
      "inputs": [],
      "name": "yearMonths",
      "outputs": [
        {
          "internalType": "uint256",
          "name": "",
          "type": "uint256"
        }
      ],
      "stateMutability": "view",
      "type": "function"
    },
    {
      "inputs": [],
      "name": "yearSeconds",
      "outputs": [
        {
          "internalType": "uint256",
          "name": "",
          "type": "uint256"
        }
      ],
      "stateMutability": "view",
      "type": "function"
    }
  ],
  "bytecode": "0x608060405273a0b86991c6218b36c1d19d4a2e9eb0ce3606eb486002806101000a81548173ffffffffffffffffffffffffffffffffffffffff021916908373ffffffffffffffffffffffffffffffffffffffff1602179055506200008f6200006e60646200027d60201b60201c565b62000080605a6200027d60201b60201c565b6200030e60201b90919060201c565b600755620000c9620000a860646200027d60201b60201c565b620000ba60046200027d60201b60201c565b6200030e60201b90919060201c565b60085562000103620000e260646200027d60201b60201c565b620000f460036200027d60201b60201c565b6200030e60201b90919060201c565b6009556200011860096200027d60201b60201c565b600a55620001526200013160646200027d60201b60201c565b6200014360016200027d60201b60201c565b6200030e60201b90919060201c565b600b556200018c6200016b60646200027d60201b60201c565b6200017d60026200027d60201b60201c565b6200030e60201b90919060201c565b600c55620001c6620001a560646200027d60201b60201c565b620001b760036200027d60201b60201c565b6200030e60201b90919060201c565b600d5562000200620001df60646200027d60201b60201c565b620001f160046200027d60201b60201c565b6200030e60201b90919060201c565b600e55623b5380601455620002416200022060646200027d60201b60201c565b6200023260326200027d60201b60201c565b6200030e60201b90919060201c565b60155560786016553480156200025657600080fd5b50620002776200026b6200036360201b60201c565b6200036b60201b60201c565b62000641565b6000670de0b6b3a76400007fffffffffffffffffffffffffffffffffffffffffffffffffffffffffffffffff620002b591906200059e565b821115620002fc57816040517f1cd951a7000000000000000000000000000000000000000000000000000000008152600401620002f39190620005e7565b60405180910390fd5b670de0b6b3a764000082029050919050565b60006200035b6200034f62000329856200042f60201b60201c565b670de0b6b3a764000062000343866200042f60201b60201c565b6200043960201b60201c565b6200055b60201b60201c565b905092915050565b600033905090565b60008060009054906101000a900473ffffffffffffffffffffffffffffffffffffffff169050816000806101000a81548173ffffffffffffffffffffffffffffffffffffffff021916908373ffffffffffffffffffffffffffffffffffffffff1602179055508173ffffffffffffffffffffffffffffffffffffffff168173ffffffffffffffffffffffffffffffffffffffff167f8be0079c531659141344cd1fd0a4f28419497f9722a3daafe3b4186f6b6457e060405160405180910390a35050565b6000819050919050565b600080600080198587098587029250828110838203039150506000810362000479578382816200046e576200046d6200056f565b5b049250505062000554565b838110620004c4578585856040517f63a05778000000000000000000000000000000000000000000000000000000008152600401620004bb9392919062000604565b60405180910390fd5b60008486880990508281118203915080830392506000600186190186169050600081870496508185049450600182836000030401905080840285179450600060028860030218905080880260020381029050808802600203810290508088026002038102905080880260020381029050808802600203810290508088026002038102905080860296505050505050505b9392505050565b6000819050919050565b6000819050919050565b7f4e487b7100000000000000000000000000000000000000000000000000000000600052601260045260246000fd5b6000620005ab8262000565565b9150620005b88362000565565b925082620005cb57620005ca6200056f565b5b828204905092915050565b620005e18162000565565b82525050565b6000602082019050620005fe6000830184620005d6565b92915050565b60006060820190506200061b6000830186620005d6565b6200062a6020830185620005d6565b620006396040830184620005d6565b949350505050565b613da680620006516000396000f3fe608060405234801561001057600080fd5b50600436106101da5760003560e01c80637437535911610104578063a54cab1c116100a2578063e1ec3c6811610071578063e1ec3c68146105b3578063e3435044146105e3578063f2fde38b146105ff578063ff9ad6df1461061b576101da565b8063a54cab1c14610511578063ab01f7e11461052f578063bcff3e3b1461054d578063bd5c569b1461057d576101da565b8063812cf018116100de578063812cf0181461048757806387ae0dbe146104a55780638da5cb5b146104c3578063a0024c2f146104e1576101da565b8063743753591461041b57806374bdf96a146104395780637d88209714610469576101da565b806342d21ef71161017c5780634b1533b21161014b5780634b1533b2146103a55780634cdc3cd8146103c35780636290cd1c146103f3578063715018a614610411576101da565b806342d21ef71461030b5780634423c5f11461033b578063485cc9551461036b5780634abb300314610387576101da565b80631e27d1de116101b85780631e27d1de1461026f5780632da109231461029f5780633a12c6da146102cf5780633ca36db6146102ed576101da565b80630a9cc0b6146101df57806317548b791461020f5780631cc03c871461023f575b600080fd5b6101f960048036038101906101f49190612e8e565b610639565b6040516102069190612ed6565b60405180910390f35b61022960048036038101906102249190612f49565b6106ae565b6040516102369190612f85565b60405180910390f35b61025960048036038101906102549190613080565b6106e1565b60405161026691906130d0565b60405180910390f35b610289600480360381019061028491906130eb565b610843565b6040516102969190613153565b60405180910390f35b6102b960048036038101906102b4919061316e565b610873565b6040516102c691906130d0565b60405180910390f35b6102d7610893565b6040516102e49190613153565b60405180910390f35b6102f5610899565b6040516103029190613153565b60405180910390f35b6103256004803603810190610320919061316e565b6108a3565b6040516103329190613212565b60405180910390f35b6103556004803603810190610350919061316e565b6109ea565b604051610362919061334f565b60405180910390f35b610385600480360381019061038091906133ed565b610ad0565b005b61038f610c91565b60405161039c9190613153565b60405180910390f35b6103ad610c9b565b6040516103ba91906130d0565b60405180910390f35b6103dd60048036038101906103d891906130eb565b610ca1565b6040516103ea9190613153565b60405180910390f35b6103fb610e54565b6040516104089190613153565b60405180910390f35b610419610e5a565b005b610423610e6e565b60405161043091906130d0565b60405180910390f35b610453600480360381019061044e919061316e565b610e85565b60405161046091906130d0565b60405180910390f35b610471610ea2565b60405161047e91906130d0565b60405180910390f35b61048f610ea8565b60405161049c91906130d0565b60405180910390f35b6104ad610ead565b6040516104ba91906130d0565b60405180910390f35b6104cb610eb5565b6040516104d89190612f85565b60405180910390f35b6104fb60048036038101906104f69190612e8e565b610ede565b6040516105089190612ed6565b60405180910390f35b610519610f02565b60405161052691906130d0565b60405180910390f35b610537610f08565b60405161054491906130d0565b60405180910390f35b6105676004803603810190610562919061316e565b610f19565b60405161057491906130d0565b60405180910390f35b6105976004803603810190610592919061316e565b610fda565b6040516105aa979695949392919061342d565b60405180910390f35b6105cd60048036038101906105c8919061316e565b61103c565b6040516105da9190613539565b60405180910390f35b6105fd60048036038101906105f891906135b9565b6110fb565b005b61061960048036038101906106149190613619565b6111e1565b005b610623611264565b60405161063091906130d0565b60405180910390f35b600080826040015183602001516106509190613675565b9050600061067b6106648560200151611278565b61066d84611278565b61130490919063ffffffff16565b90506106926015548261133990919063ffffffff16565b80156106a557506106a1610e6e565b8211155b92505050919050565b60016020528060005260406000206000915054906101000a900473ffffffffffffffffffffffffffffffffffffffff1681565b60006106ec83611357565b82111561072e576040517f08c379a00000000000000000000000000000000000000000000000000000000081526004016107259061372c565b60405180910390fd5b6000600c6301e13380610741919061377b565b8361074c91906137ac565b9050600061079261075d6001611380565b61078461076d8860a00151611380565b61077686611380565b61148490919063ffffffff16565b61148490919063ffffffff16565b905060006107eb6107d3836107c56107c08a602001516107b26001611278565b6114b290919063ffffffff16565b6114e0565b61155490919063ffffffff16565b6107dd6001611380565b61148490919063ffffffff16565b90506000610816610811836108038a604001516114e0565b61161290919063ffffffff16565b6117a2565b905061083761083288602001518361130490919063ffffffff16565b6117f7565b94505050505092915050565b600061086c6108556301e13380611278565b61085e84610ca1565b61130490919063ffffffff16565b9050919050565b6000600f6000838152602001908152602001600020805490509050919050565b60155481565b6000600d54905090565b600080601060008481526020019081526020016000206040518060e00160405290816000820160009054906101000a900473ffffffffffffffffffffffffffffffffffffffff1673ffffffffffffffffffffffffffffffffffffffff1673ffffffffffffffffffffffffffffffffffffffff16815260200160018201548152602001600282015481526020016003820154815260200160048201548152602001600582015481526020016006820154815250509050600073ffffffffffffffffffffffffffffffffffffffff16816000015173ffffffffffffffffffffffffffffffffffffffff160361099a5760009150506109e5565b6109a383611814565b156109df5760006109b382611929565b426109be9190613675565b905060145481116109d4576002925050506109e5565b6003925050506109e5565b60019150505b919050565b6060600f6000838152602001908152602001600020805480602002602001604051908101604052809291908181526020016000905b82821015610ac557838290600052602060002090600402016040518060800160405290816000820160009054906101000a900473ffffffffffffffffffffffffffffffffffffffff1673ffffffffffffffffffffffffffffffffffffffff1673ffffffffffffffffffffffffffffffffffffffff168152602001600182015481526020016002820154815260200160038201548152505081526020019060010190610a1f565b505050509050919050565b6000600260019054906101000a900460ff16159050808015610b0457506001600260009054906101000a900460ff1660ff16105b80610b335750610b13306119d4565b158015610b3257506001600260009054906101000a900460ff1660ff16145b5b610b72576040517f08c379a0000000000000000000000000000000000000000000000000000000008152600401610b6990613860565b60405180910390fd5b6001600260006101000a81548160ff021916908360ff1602179055508015610bb0576001600260016101000a81548160ff0219169083151502179055505b82600360006101000a81548173ffffffffffffffffffffffffffffffffffffffff021916908373ffffffffffffffffffffffffffffffffffffffff16021790555081600460006101000a81548173ffffffffffffffffffffffffffffffffffffffff021916908373ffffffffffffffffffffffffffffffffffffffff1602179055508015610c8c576000600260016101000a81548160ff0219169083151502179055507f7f26b83ff96e1f2b6a682f133852f6798a09c465da95921460cefb38474024986001604051610c8391906138c8565b60405180910390a15b505050565b6000600e54905090565b60055481565b6000610cbf610cb06001611278565b8361133990919063ffffffff16565b610ccc57610ccb6138e3565b5b610ce16007548361133990919063ffffffff16565b15610d1657610d0f600954610d01846008546119f790919063ffffffff16565b6114b290919063ffffffff16565b9050610dfd565b610d2b60075483611a2390919063ffffffff16565b8015610d4f5750610d4e610d3f6001611278565b83611a4090919063ffffffff16565b5b15610d9f576000610d73610d6e84600a546119f790919063ffffffff16565b6114e0565b9050610d97610d92610d83611a5d565b83611ace90919063ffffffff16565b6117a2565b915050610dfc565b610dbb610dac6001611278565b83611afc90919063ffffffff16565b15610dfb576040517f08c379a0000000000000000000000000000000000000000000000000000000008152600401610df290613984565b60405180910390fd5b5b5b610e19610e0a6000611278565b82611a2390919063ffffffff16565b610e2657610e256138e3565b5b610e42610e336001611278565b82611a4090919063ffffffff16565b610e4f57610e4e6138e3565b5b919050565b60075481565b610e62611b19565b610e6c6000611b97565b565b6000600554600654610e809190613675565b905090565b6000610e9b826011611c5b90919063ffffffff16565b9050919050565b60065481565b600c81565b6301e1338081565b60008060009054906101000a900473ffffffffffffffffffffffffffffffffffffffff16905090565b6000816040015182602001511480610efb5750610efa82610639565b5b9050919050565b60165481565b6000610f146011611c75565b905090565b6000610fd3601060008481526020019081526020016000206040518060e00160405290816000820160009054906101000a900473ffffffffffffffffffffffffffffffffffffffff1673ffffffffffffffffffffffffffffffffffffffff1673ffffffffffffffffffffffffffffffffffffffff1681526020016001820154815260200160028201548152602001600382015481526020016004820154815260200160058201548152602001600682015481525050611c8a565b9050919050565b60106020528060005260406000206000915090508060000160009054906101000a900473ffffffffffffffffffffffffffffffffffffffff16908060010154908060020154908060030154908060040154908060050154908060060154905087565b611044612c8a565b601060008381526020019081526020016000206040518060e00160405290816000820160009054906101000a900473ffffffffffffffffffffffffffffffffffffffff1673ffffffffffffffffffffffffffffffffffffffff1673ffffffffffffffffffffffffffffffffffffffff16815260200160018201548152602001600282015481526020016003820154815260200160048201548152602001600582015481526020016006820154815250509050919050565b611103611b19565b60005b838390508110156111db578160016000868685818110611129576111286139a4565b5b905060200201602081019061113e9190612f49565b7bffffffffffffffffffffffffffffffffffffffffffffffffffffffff19167bffffffffffffffffffffffffffffffffffffffffffffffffffffffff1916815260200190815260200160002060006101000a81548173ffffffffffffffffffffffffffffffffffffffff021916908373ffffffffffffffffffffffffffffffffffffffff16021790555080806111d3906139d3565b915050611106565b50505050565b6111e9611b19565b600073ffffffffffffffffffffffffffffffffffffffff168173ffffffffffffffffffffffffffffffffffffffff1603611258576040517f08c379a000000000000000000000000000000000000000000000000000000000815260040161124f90613a8d565b60405180910390fd5b61126181611b97565b50565b600c6301e13380611275919061377b565b81565b6000670de0b6b3a76400007fffffffffffffffffffffffffffffffffffffffffffffffffffffffffffffffff6112ae919061377b565b8211156112f257816040517f1cd951a70000000000000000000000000000000000000000000000000000000081526004016112e991906130d0565b60405180910390fd5b670de0b6b3a764000082029050919050565b600061133161132c61131585611cc2565b670de0b6b3a764000061132786611cc2565b611ccc565b611de6565b905092915050565b600061134482611cc2565b61134d84611cc2565b1115905092915050565b60006301e133808260a00151600c61136f91906137ac565b611379919061377b565b9050919050565b6000670de0b6b3a76400007f80000000000000000000000000000000000000000000000000000000000000006113b69190613ab7565b8212156113fa57816040517f99474eeb0000000000000000000000000000000000000000000000000000000081526004016113f19190613b30565b60405180910390fd5b670de0b6b3a76400007f7fffffffffffffffffffffffffffffffffffffffffffffffffffffffffffffff61142e9190613ab7565b82131561147257816040517f9d5810910000000000000000000000000000000000000000000000000000000081526004016114699190613b30565b60405180910390fd5b670de0b6b3a764000082029050919050565b60006114aa61149283611df0565b61149b85611df0565b6114a59190613b4b565b611dfa565b905092915050565b60006114d86114c083611cc2565b6114c985611cc2565b6114d39190613b8e565b611de6565b905092915050565b6000808290507f7fffffffffffffffffffffffffffffffffffffffffffffffffffffffffffffff81111561154b57826040517ff46186840000000000000000000000000000000000000000000000000000000081526004016115429190613153565b60405180910390fd5b80915050919050565b60008061156084611df0565b9050600061156d84611df0565b9050600082036115995760008114611586576000611590565b670de0b6b3a76400005b9250505061160c565b670de0b6b3a764000082036115ba57670de0b6b3a76400009250505061160c565b600081036115d457670de0b6b3a76400009250505061160c565b670de0b6b3a764000081036115ed57849250505061160c565b6116076116026115fc87611e04565b86611612565b611f97565b925050505b92915050565b60008061161e84611df0565b9050600061162b84611df0565b90507f800000000000000000000000000000000000000000000000000000000000000082148061167a57507f800000000000000000000000000000000000000000000000000000000000000081145b156116b1576040517fa6070c2500000000000000000000000000000000000000000000000000000000815260040160405180910390fd5b600080600084126116c257836116c7565b836000035b9150600083126116d757826116dc565b826000035b905060006116ea83836120b5565b90507f7fffffffffffffffffffffffffffffffffffffffffffffffffffffffffffffff8111156117535787876040517f120b5b4300000000000000000000000000000000000000000000000000000000815260040161174a929190613bf3565b60405180910390fd5b60007fffffffffffffffffffffffffffffffffffffffffffffffffffffffffffffffff8587181390506117948161178d578260000361178f565b825b611dfa565b965050505050505092915050565b60008082905060008112156117ee57826040517fbba41a150000000000000000000000000000000000000000000000000000000081526004016117e59190613c1c565b60405180910390fd5b80915050919050565b6000670de0b6b3a76400008261180d919061377b565b9050919050565b600080601060008481526020019081526020016000206040518060e00160405290816000820160009054906101000a900473ffffffffffffffffffffffffffffffffffffffff1673ffffffffffffffffffffffffffffffffffffffff1673ffffffffffffffffffffffffffffffffffffffff1681526020016001820154815260200160028201548152602001600382015481526020016004820154815260200160058201548152602001600682015481525050905060006118d48261219f565b90506000600c6301e133808460a001516118ee919061377b565b6118f891906137ac565b90508082111561190e5760019350505050611924565b61191883836106e1565b83608001511193505050505b919050565b6000806119358361219f565b905060008190505b60008111156119cd57600061195285836106e1565b9050600061196c866001856119679190613675565b6106e1565b9050818660800151118015611985575080866080015111155b156119b857600c6301e1338061199b919061377b565b836119a691906137ac565b86606001516119b59190613b8e565b94505b505080806119c590613c37565b91505061193d565b5050919050565b6000808273ffffffffffffffffffffffffffffffffffffffff163b119050919050565b6000611a1b611a16611a0885611cc2565b611a1185611cc2565b6120b5565b611de6565b905092915050565b6000611a2e82611cc2565b611a3784611cc2565b11905092915050565b6000611a4b82611cc2565b611a5484611cc2565b10905092915050565b600080611a87611a6e600a546114e0565b611a796008546114e0565b61148490919063ffffffff16565b90506000611aa882611a9a6007546114e0565b61161290919063ffffffff16565b9050611ac7611ab86009546114e0565b82611ace90919063ffffffff16565b9250505090565b6000611af4611adc83611df0565b611ae585611df0565b611aef9190613c60565b611dfa565b905092915050565b6000611b0782611cc2565b611b1084611cc2565b14905092915050565b611b216121f4565b73ffffffffffffffffffffffffffffffffffffffff16611b3f610eb5565b73ffffffffffffffffffffffffffffffffffffffff1614611b95576040517f08c379a0000000000000000000000000000000000000000000000000000000008152600401611b8c90613cf0565b60405180910390fd5b565b60008060009054906101000a900473ffffffffffffffffffffffffffffffffffffffff169050816000806101000a81548173ffffffffffffffffffffffffffffffffffffffff021916908373ffffffffffffffffffffffffffffffffffffffff1602179055508173ffffffffffffffffffffffffffffffffffffffff168173ffffffffffffffffffffffffffffffffffffffff167f8be0079c531659141344cd1fd0a4f28419497f9722a3daafe3b4186f6b6457e060405160405180910390a35050565b6000611c6a83600001836121fc565b60001c905092915050565b6000611c8382600001612227565b9050919050565b6000611cbb611cb6611c9b84612238565b611ca88560800151611278565b6119f790919063ffffffff16565b6117f7565b9050919050565b6000819050919050565b6000806000801985870985870292508281108382030391505060008103611d0757838281611cfd57611cfc61374c565b5b0492505050611ddf565b838110611d4f578585856040517f63a05778000000000000000000000000000000000000000000000000000000008152600401611d4693929190613d10565b60405180910390fd5b60008486880990508281118203915080830392506000600186190186169050600081870496508185049450600182836000030401905080840285179450600060028860030218905080880260020381029050808802600203810290508088026002038102905080880260020381029050808802600203810290508088026002038102905080860296505050505050505b9392505050565b6000819050919050565b6000819050919050565b6000819050919050565b600080611e1083611df0565b905060008113611e5757826040517f059b101b000000000000000000000000000000000000000000000000000000008152600401611e4e9190613c1c565b60405180910390fd5b6000670de0b6b3a76400008212611e715760019050611eb7565b7fffffffffffffffffffffffffffffffffffffffffffffffffffffffffffffffff9050816ec097ce7bc90715b34b9f100000000081611eb357611eb261374c565b5b0591505b6000611eda670de0b6b3a76400008481611ed457611ed361374c565b5b05612268565b90506000670de0b6b3a76400008202905060008285901d9050670de0b6b3a76400008103611f1957611f0d848302611dfa565b95505050505050611f92565b6000671bc16d674ec80000905060006706f05b59d3b2000090505b6000811315611f7a57670de0b6b3a764000083840281611f5757611f5661374c565b5b059250818312611f6e578084019350600183901d92505b600181901d9050611f34565b508483029250611f8983611dfa565b96505050505050505b919050565b600080611fa383611df0565b9050600081121561202a577ffffffffffffffffffffffffffffffffffffffffffffffffcc22e87f6eb468eeb811215611fe05760009150506120b0565b612023611fff611ffa611ff584600003611dfa565b611f97565b611df0565b6ec097ce7bc90715b34b9f10000000008161201d5761201c61374c565b5b05611dfa565b91506120ae565b680a688906bd8affffff81131561207857826040517f0360d02800000000000000000000000000000000000000000000000000000000815260040161206f9190613c1c565b60405180910390fd5b6000670de0b6b3a7640000604083901b816120965761209561374c565b5b0590506120aa6120a582612311565b611dfa565b9250505b505b919050565b60008060008019848609848602925082811083820303915050600081036120f857670de0b6b3a764000082816120ee576120ed61374c565b5b0492505050612199565b670de0b6b3a764000081106121465784846040517f5173648d00000000000000000000000000000000000000000000000000000000815260040161213d929190613d47565b60405180910390fd5b6000670de0b6b3a764000085870990507faccb18165bd6fe31ae1cf318dc5b51eee0e1ba569b88cd74c1773b91fac106696001620400008060000304018483118403026204000083860304170293505050505b92915050565b600080600c6301e133806121b3919061377b565b8360600151426121c39190613675565b6121cd919061377b565b905060006121da84611357565b90508082116121e957816121eb565b805b92505050919050565b600033905090565b6000826000018281548110612214576122136139a4565b5b9060005260206000200154905092915050565b600081600001805490509050919050565b600061226161224e61224984612c71565b611278565b83602001516119f790919063ffffffff16565b9050919050565b60006fffffffffffffffffffffffffffffffff821160071b82811c925080821791505067ffffffffffffffff821160061b82811c925080821791505063ffffffff821160051b82811c925080821791505061ffff821160041b82811c925080821791505060ff821160031b82811c9250808217915050600f821160021b82811c92508082179150506003821160011b82811c925080821791505060018211808217915050919050565b6000778000000000000000000000000000000000000000000000009050600067ff00000000000000831611156124725760006780000000000000008316111561236757604068016a09e667f3bcc9098202901c90505b60006740000000000000008316111561238d5760406801306fe0a31b7152df8202901c90505b6000672000000000000000831611156123b35760406801172b83c7d517adce8202901c90505b6000671000000000000000831611156123d957604068010b5586cf9890f62a8202901c90505b6000670800000000000000831611156123ff5760406801059b0d31585743ae8202901c90505b600067040000000000000083161115612425576040680102c9a3e778060ee78202901c90505b60006702000000000000008316111561244b57604068010163da9fb33356d88202901c90505b600067010000000000000083161115612471576040680100b1afa5abcbed618202901c90505b5b600066ff000000000000831611156125ad5760006680000000000000831611156124a957604068010058c86da1c09ea28202901c90505b60006640000000000000831611156124ce5760406801002c605e2e8cec508202901c90505b60006620000000000000831611156124f3576040680100162f3904051fa18202901c90505b60006610000000000000831611156125185760406801000b175effdc76ba8202901c90505b600066080000000000008316111561253d576040680100058ba01fb9f96d8202901c90505b600066040000000000008316111561256257604068010002c5cc37da94928202901c90505b60006602000000000000831611156125875760406801000162e525ee05478202901c90505b60006601000000000000831611156125ac57604068010000b17255775c048202901c90505b5b600065ff0000000000831611156126df57600065800000000000831611156125e25760406801000058b91b5bc9ae8202901c90505b60006540000000000083161115612606576040680100002c5c89d5ec6d8202901c90505b6000652000000000008316111561262a57604068010000162e43f4f8318202901c90505b6000651000000000008316111561264e576040680100000b1721bcfc9a8202901c90505b6000650800000000008316111561267257604068010000058b90cf1e6e8202901c90505b600065040000000000831611156126965760406801000002c5c863b73f8202901c90505b600065020000000000831611156126ba576040680100000162e430e5a28202901c90505b600065010000000000831611156126de5760406801000000b1721835518202901c90505b5b600064ff000000008316111561280857600064800000000083161115612712576040680100000058b90c0b498202901c90505b60006440000000008316111561273557604068010000002c5c8601cc8202901c90505b6000642000000000831611156127585760406801000000162e42fff08202901c90505b60006410000000008316111561277b57604068010000000b17217fbb8202901c90505b60006408000000008316111561279e5760406801000000058b90bfce8202901c90505b6000640400000000831611156127c1576040680100000002c5c85fe38202901c90505b6000640200000000831611156127e457604068010000000162e42ff18202901c90505b600064010000000083161115612807576040680100000000b17217f88202901c90505b5b600063ff0000008316111561292857600063800000008316111561283957604068010000000058b90bfc8202901c90505b600063400000008316111561285b5760406801000000002c5c85fe8202901c90505b600063200000008316111561287d576040680100000000162e42ff8202901c90505b600063100000008316111561289f5760406801000000000b17217f8202901c90505b60006308000000831611156128c1576040680100000000058b90c08202901c90505b60006304000000831611156128e357604068010000000002c5c8608202901c90505b60006302000000831611156129055760406801000000000162e4308202901c90505b600063010000008316111561292757604068010000000000b172188202901c90505b5b600062ff000083161115612a3f57600062800000831611156129575760406801000000000058b90c8202901c90505b60006240000083161115612978576040680100000000002c5c868202901c90505b6000622000008316111561299957604068010000000000162e438202901c90505b600062100000831611156129ba576040680100000000000b17218202901c90505b600062080000831611156129db57604068010000000000058b918202901c90505b600062040000831611156129fc5760406801000000000002c5c88202901c90505b60006202000083161115612a1d576040680100000000000162e48202901c90505b60006201000083161115612a3e5760406801000000000000b1728202901c90505b5b600061ff0083161115612b4d57600061800083161115612a6c576040680100000000000058b98202901c90505b600061400083161115612a8c57604068010000000000002c5d8202901c90505b600061200083161115612aac5760406801000000000000162e8202901c90505b600061100083161115612acc57604068010000000000000b178202901c90505b600061080083161115612aec5760406801000000000000058c8202901c90505b600061040083161115612b0c576040680100000000000002c68202901c90505b600061020083161115612b2c576040680100000000000001638202901c90505b600061010083161115612b4c576040680100000000000000b18202901c90505b5b600060ff83161115612c52576000608083161115612b78576040680100000000000000598202901c90505b6000604083161115612b975760406801000000000000002c8202901c90505b6000602083161115612bb6576040680100000000000000168202901c90505b6000601083161115612bd55760406801000000000000000b8202901c90505b6000600883161115612bf4576040680100000000000000068202901c90505b6000600483161115612c13576040680100000000000000038202901c90505b6000600283161115612c32576040680100000000000000018202901c90505b6000600183161115612c51576040680100000000000000018202901c90505b5b670de0b6b3a764000081029050604082901c60bf0381901c9050919050565b60008160c0015142612c839190613675565b9050919050565b6040518060e00160405280600073ffffffffffffffffffffffffffffffffffffffff1681526020016000815260200160008152602001600081526020016000815260200160008152602001600081525090565b6000604051905090565b600080fd5b600080fd5b600080fd5b6000601f19601f8301169050919050565b7f4e487b7100000000000000000000000000000000000000000000000000000000600052604160045260246000fd5b612d3f82612cf6565b810181811067ffffffffffffffff82111715612d5e57612d5d612d07565b5b80604052505050565b6000612d71612cdd565b9050612d7d8282612d36565b919050565b600073ffffffffffffffffffffffffffffffffffffffff82169050919050565b6000612dad82612d82565b9050919050565b612dbd81612da2565b8114612dc857600080fd5b50565b600081359050612dda81612db4565b92915050565b6000819050919050565b612df381612de0565b8114612dfe57600080fd5b50565b600081359050612e1081612dea565b92915050565b600060808284031215612e2c57612e2b612cf1565b5b612e366080612d67565b90506000612e4684828501612dcb565b6000830152506020612e5a84828501612e01565b6020830152506040612e6e84828501612e01565b6040830152506060612e8284828501612e01565b60608301525092915050565b600060808284031215612ea457612ea3612ce7565b5b6000612eb284828501612e16565b91505092915050565b60008115159050919050565b612ed081612ebb565b82525050565b6000602082019050612eeb6000830184612ec7565b92915050565b60007fffffffff0000000000000000000000000000000000000000000000000000000082169050919050565b612f2681612ef1565b8114612f3157600080fd5b50565b600081359050612f4381612f1d565b92915050565b600060208284031215612f5f57612f5e612ce7565b5b6000612f6d84828501612f34565b91505092915050565b612f7f81612da2565b82525050565b6000602082019050612f9a6000830184612f76565b92915050565b612fa981612de0565b8114612fb457600080fd5b50565b600081359050612fc681612fa0565b92915050565b600060e08284031215612fe257612fe1612cf1565b5b612fec60e0612d67565b90506000612ffc84828501612dcb565b600083015250602061301084828501612fb7565b602083015250604061302484828501612fb7565b604083015250606061303884828501612e01565b606083015250608061304c84828501612e01565b60808301525060a061306084828501612e01565b60a08301525060c061307484828501612e01565b60c08301525092915050565b600080610100838503121561309857613097612ce7565b5b60006130a685828601612fcc565b92505060e06130b785828601612e01565b9150509250929050565b6130ca81612de0565b82525050565b60006020820190506130e560008301846130c1565b92915050565b60006020828403121561310157613100612ce7565b5b600061310f84828501612fb7565b91505092915050565b6000819050919050565b600061313d61313861313384612de0565b613118565b612de0565b9050919050565b61314d81613122565b82525050565b60006020820190506131686000830184613144565b92915050565b60006020828403121561318457613183612ce7565b5b600061319284828501612e01565b91505092915050565b7f4e487b7100000000000000000000000000000000000000000000000000000000600052602160045260246000fd5b600481106131db576131da61319b565b5b50565b60008190506131ec826131ca565b919050565b60006131fc826131de565b9050919050565b61320c816131f1565b82525050565b60006020820190506132276000830184613203565b92915050565b600081519050919050565b600082825260208201905092915050565b6000819050602082019050919050565b61326281612da2565b82525050565b61327181612de0565b82525050565b60808201600082015161328d6000850182613259565b5060208201516132a06020850182613268565b5060408201516132b36040850182613268565b5060608201516132c66060850182613268565b50505050565b60006132d88383613277565b60808301905092915050565b6000602082019050919050565b60006132fc8261322d565b6133068185613238565b935061331183613249565b8060005b8381101561334257815161332988826132cc565b9750613334836132e4565b925050600181019050613315565b5085935050505092915050565b6000602082019050818103600083015261336981846132f1565b905092915050565b600061337c82612da2565b9050919050565b61338c81613371565b811461339757600080fd5b50565b6000813590506133a981613383565b92915050565b60006133ba82612da2565b9050919050565b6133ca816133af565b81146133d557600080fd5b50565b6000813590506133e7816133c1565b92915050565b6000806040838503121561340457613403612ce7565b5b60006134128582860161339a565b9250506020613423858286016133d8565b9150509250929050565b600060e082019050613442600083018a612f76565b61344f6020830189613144565b61345c6040830188613144565b61346960608301876130c1565b61347660808301866130c1565b61348360a08301856130c1565b61349060c08301846130c1565b98975050505050505050565b6134a581613122565b82525050565b60e0820160008201516134c16000850182613259565b5060208201516134d4602085018261349c565b5060408201516134e7604085018261349c565b5060608201516134fa6060850182613268565b50608082015161350d6080850182613268565b5060a082015161352060a0850182613268565b5060c082015161353360c0850182613268565b50505050565b600060e08201905061354e60008301846134ab565b92915050565b600080fd5b600080fd5b600080fd5b60008083601f84011261357957613578613554565b5b8235905067ffffffffffffffff81111561359657613595613559565b5b6020830191508360208202830111156135b2576135b161355e565b5b9250929050565b6000806000604084860312156135d2576135d1612ce7565b5b600084013567ffffffffffffffff8111156135f0576135ef612cec565b5b6135fc86828701613563565b9350935050602061360f86828701612dcb565b9150509250925092565b60006020828403121561362f5761362e612ce7565b5b600061363d84828501612dcb565b91505092915050565b7f4e487b7100000000000000000000000000000000000000000000000000000000600052601160045260246000fd5b600061368082612de0565b915061368b83612de0565b92508282039050818111156136a3576136a2613646565b5b92915050565b600082825260208201905092915050565b7f6d6f6e7468206d757374206265203c3d206c6f616e4d61784475726174696f6e60008201527f4d6f6e7468730000000000000000000000000000000000000000000000000000602082015250565b60006137166026836136a9565b9150613721826136ba565b604082019050919050565b6000602082019050818103600083015261374581613709565b9050919050565b7f4e487b7100000000000000000000000000000000000000000000000000000000600052601260045260246000fd5b600061378682612de0565b915061379183612de0565b9250826137a1576137a061374c565b5b828204905092915050565b60006137b782612de0565b91506137c283612de0565b92508282026137d081612de0565b915082820484148315176137e7576137e6613646565b5b5092915050565b7f496e697469616c697a61626c653a20636f6e747261637420697320616c72656160008201527f647920696e697469616c697a6564000000000000000000000000000000000000602082015250565b600061384a602e836136a9565b9150613855826137ee565b604082019050919050565b600060208201905081810360008301526138798161383d565b9050919050565b6000819050919050565b600060ff82169050919050565b60006138b26138ad6138a884613880565b613118565b61388a565b9050919050565b6138c281613897565b82525050565b60006020820190506138dd60008301846138b9565b92915050565b7f4e487b7100000000000000000000000000000000000000000000000000000000600052600160045260246000fd5b7f6e6f204150522e2063616e2774207374617274206c6f616e206966207574696c60008201527f697a6174696f6e203d2031303025000000000000000000000000000000000000602082015250565b600061396e602e836136a9565b915061397982613912565b604082019050919050565b6000602082019050818103600083015261399d81613961565b9050919050565b7f4e487b7100000000000000000000000000000000000000000000000000000000600052603260045260246000fd5b60006139de82612de0565b91507fffffffffffffffffffffffffffffffffffffffffffffffffffffffffffffffff8203613a1057613a0f613646565b5b600182019050919050565b7f4f776e61626c653a206e6577206f776e657220697320746865207a65726f206160008201527f6464726573730000000000000000000000000000000000000000000000000000602082015250565b6000613a776026836136a9565b9150613a8282613a1b565b604082019050919050565b60006020820190508181036000830152613aa681613a6a565b9050919050565b6000819050919050565b6000613ac282613aad565b9150613acd83613aad565b925082613add57613adc61374c565b5b600160000383147f800000000000000000000000000000000000000000000000000000000000000083141615613b1657613b15613646565b5b828205905092915050565b613b2a81613aad565b82525050565b6000602082019050613b456000830184613b21565b92915050565b6000613b5682613aad565b9150613b6183613aad565b9250828203905081811260008412168282136000851215161715613b8857613b87613646565b5b92915050565b6000613b9982612de0565b9150613ba483612de0565b9250828201905080821115613bbc57613bbb613646565b5b92915050565b6000613bdd613bd8613bd384613aad565b613118565b613aad565b9050919050565b613bed81613bc2565b82525050565b6000604082019050613c086000830185613be4565b613c156020830184613be4565b9392505050565b6000602082019050613c316000830184613be4565b92915050565b6000613c4282612de0565b915060008203613c5557613c54613646565b5b600182039050919050565b6000613c6b82613aad565b9150613c7683613aad565b925082820190508281121560008312168382126000841215161715613c9e57613c9d613646565b5b92915050565b7f4f776e61626c653a2063616c6c6572206973206e6f7420746865206f776e6572600082015250565b6000613cda6020836136a9565b9150613ce582613ca4565b602082019050919050565b60006020820190508181036000830152613d0981613ccd565b9050919050565b6000606082019050613d2560008301866130c1565b613d3260208301856130c1565b613d3f60408301846130c1565b949350505050565b6000604082019050613d5c60008301856130c1565b613d6960208301846130c1565b939250505056fea2646970667358221220b596e2e28e4ead60e2dfa56d1dc3d9b99d42b2d5ea9d9f9f5f3d4e2963e6f1e564736f6c63430008130033",
  "linkReferences": {},
  "deployedLinkReferences": {}
}