{
  "_format": "hh-sol-artifact-1",
  "contractName": "AcceptMortgage",
  "sourceName": "contracts/protocol/auctions/AcceptMortgage.sol",
  "abi": [
    {
      "inputs": [
        {
          "internalType": "uint256",
          "name": "x",
          "type": "uint256"
        },
        {
          "internalType": "uint256",
          "name": "y",
          "type": "uint256"
        }
      ],
      "name": "PRBMath_MulDiv18_Overflow",
      "type": "error"
    },
    {
      "inputs": [
        {
          "internalType": "uint256",
          "name": "x",
          "type": "uint256"
        },
        {
          "internalType": "uint256",
          "name": "y",
          "type": "uint256"
        },
        {
          "internalType": "uint256",
          "name": "denominator",
          "type": "uint256"
        }
      ],
      "name": "PRBMath_MulDiv_Overflow",
      "type": "error"
    },
    {
      "inputs": [
        {
          "internalType": "int256",
          "name": "x",
          "type": "int256"
        }
      ],
      "name": "PRBMath_SD59x18_Convert_Overflow",
      "type": "error"
    },
    {
      "inputs": [
        {
          "internalType": "int256",
          "name": "x",
          "type": "int256"
        }
      ],
      "name": "PRBMath_SD59x18_Convert_Underflow",
      "type": "error"
    },
    {
      "inputs": [
        {
          "internalType": "SD59x18",
          "name": "x",
          "type": "int256"
        }
      ],
      "name": "PRBMath_SD59x18_Exp2_InputTooBig",
      "type": "error"
    },
    {
      "inputs": [
        {
          "internalType": "SD59x18",
          "name": "x",
          "type": "int256"
        }
      ],
      "name": "PRBMath_SD59x18_IntoUD60x18_Underflow",
      "type": "error"
    },
    {
      "inputs": [
        {
          "internalType": "SD59x18",
          "name": "x",
          "type": "int256"
        }
      ],
      "name": "PRBMath_SD59x18_Log_InputTooSmall",
      "type": "error"
    },
    {
      "inputs": [],
      "name": "PRBMath_SD59x18_Mul_InputTooSmall",
      "type": "error"
    },
    {
      "inputs": [
        {
          "internalType": "SD59x18",
          "name": "x",
          "type": "int256"
        },
        {
          "internalType": "SD59x18",
          "name": "y",
          "type": "int256"
        }
      ],
      "name": "PRBMath_SD59x18_Mul_Overflow",
      "type": "error"
    },
    {
      "inputs": [
        {
          "internalType": "uint256",
          "name": "x",
          "type": "uint256"
        }
      ],
      "name": "PRBMath_UD60x18_Convert_Overflow",
      "type": "error"
    },
    {
      "inputs": [
        {
          "internalType": "UD60x18",
          "name": "x",
          "type": "uint256"
        }
      ],
      "name": "PRBMath_UD60x18_IntoSD59x18_Overflow",
      "type": "error"
    },
    {
      "anonymous": false,
      "inputs": [
        {
          "indexed": false,
          "internalType": "uint8",
          "name": "version",
          "type": "uint8"
        }
      ],
      "name": "Initialized",
      "type": "event"
    },
    {
      "anonymous": false,
      "inputs": [
        {
          "indexed": true,
          "internalType": "address",
          "name": "previousOwner",
          "type": "address"
        },
        {
          "indexed": true,
          "internalType": "address",
          "name": "newOwner",
          "type": "address"
        }
      ],
      "name": "OwnershipTransferred",
      "type": "event"
    },
    {
      "inputs": [
        {
          "internalType": "uint256",
          "name": "",
          "type": "uint256"
        }
      ],
      "name": "_loans",
      "outputs": [
        {
          "internalType": "address",
          "name": "borrower",
          "type": "address"
        },
        {
          "internalType": "UD60x18",
          "name": "ratePerSecond",
          "type": "uint256"
        },
        {
          "internalType": "UD60x18",
          "name": "paymentPerSecond",
          "type": "uint256"
        },
        {
          "internalType": "uint256",
          "name": "startTime",
          "type": "uint256"
        },
        {
          "internalType": "uint256",
          "name": "unpaidPrincipal",
          "type": "uint256"
        },
        {
          "internalType": "uint256",
          "name": "maxDurationSeconds",
          "type": "uint256"
        },
        {
          "internalType": "uint256",
          "name": "lastPaymentTime",
          "type": "uint256"
        }
      ],
      "stateMutability": "view",
      "type": "function"
    },
    {
      "inputs": [
        {
          "internalType": "uint256",
          "name": "tokenId",
          "type": "uint256"
        },
        {
          "internalType": "uint256",
          "name": "bidIdx",
          "type": "uint256"
        }
      ],
      "name": "acceptMortgageBid",
      "outputs": [],
      "stateMutability": "nonpayable",
      "type": "function"
    },
    {
      "inputs": [
        {
          "internalType": "uint256",
          "name": "tokenId",
          "type": "uint256"
        }
      ],
      "name": "accruedInterest",
      "outputs": [
        {
          "internalType": "uint256",
          "name": "",
          "type": "uint256"
        }
      ],
      "stateMutability": "view",
      "type": "function"
    },
    {
      "inputs": [],
      "name": "availableLiquidity",
      "outputs": [
        {
          "internalType": "uint256",
          "name": "",
          "type": "uint256"
        }
      ],
      "stateMutability": "view",
      "type": "function"
    },
    {
      "inputs": [
        {
          "components": [
            {
              "internalType": "address",
              "name": "bidder",
              "type": "address"
            },
            {
              "internalType": "uint256",
              "name": "propertyValue",
              "type": "uint256"
            },
            {
              "internalType": "uint256",
              "name": "downPayment",
              "type": "uint256"
            },
            {
              "internalType": "uint256",
              "name": "maxDurationMonths",
              "type": "uint256"
            }
          ],
          "internalType": "struct IState.Bid",
          "name": "bid",
          "type": "tuple"
        }
      ],
      "name": "bidActionable",
      "outputs": [
        {
          "internalType": "bool",
          "name": "",
          "type": "bool"
        }
      ],
      "stateMutability": "view",
      "type": "function"
    },
    {
      "inputs": [
        {
          "internalType": "uint256",
          "name": "tokenId",
          "type": "uint256"
        }
      ],
      "name": "bids",
      "outputs": [
        {
          "components": [
            {
              "internalType": "address",
              "name": "bidder",
              "type": "address"
            },
            {
              "internalType": "uint256",
              "name": "propertyValue",
              "type": "uint256"
            },
            {
              "internalType": "uint256",
              "name": "downPayment",
              "type": "uint256"
            },
            {
              "internalType": "uint256",
              "name": "maxDurationMonths",
              "type": "uint256"
            }
          ],
          "internalType": "struct IState.Bid[]",
          "name": "",
          "type": "tuple[]"
        }
      ],
      "stateMutability": "view",
      "type": "function"
    },
    {
      "inputs": [],
      "name": "defaultFeeSpread",
      "outputs": [
        {
          "internalType": "UD60x18",
          "name": "",
          "type": "uint256"
        }
      ],
      "stateMutability": "view",
      "type": "function"
    },
    {
      "inputs": [
        {
          "internalType": "contract IERC20",
          "name": "_USDC",
          "type": "address"
        },
        {
          "internalType": "contract tUsdc",
          "name": "_tUSDC",
          "type": "address"
        },
        {
          "internalType": "contract TangibleNft",
          "name": "_prosperaNftContract",
          "type": "address"
        }
      ],
      "name": "initialize",
      "outputs": [],
      "stateMutability": "nonpayable",
      "type": "function"
    },
    {
      "inputs": [
        {
          "components": [
            {
              "internalType": "address",
              "name": "bidder",
              "type": "address"
            },
            {
              "internalType": "uint256",
              "name": "propertyValue",
              "type": "uint256"
            },
            {
              "internalType": "uint256",
              "name": "downPayment",
              "type": "uint256"
            },
            {
              "internalType": "uint256",
              "name": "maxDurationMonths",
              "type": "uint256"
            }
          ],
          "internalType": "struct IState.Bid",
          "name": "_bid",
          "type": "tuple"
        }
      ],
      "name": "loanBidActionable",
      "outputs": [
        {
          "internalType": "bool",
          "name": "",
          "type": "bool"
        }
      ],
      "stateMutability": "view",
      "type": "function"
    },
    {
      "inputs": [
        {
          "internalType": "uint256",
          "name": "tokenId",
          "type": "uint256"
        }
      ],
      "name": "loans",
      "outputs": [
        {
          "components": [
            {
              "internalType": "address",
              "name": "borrower",
              "type": "address"
            },
            {
              "internalType": "UD60x18",
              "name": "ratePerSecond",
              "type": "uint256"
            },
            {
              "internalType": "UD60x18",
              "name": "paymentPerSecond",
              "type": "uint256"
            },
            {
              "internalType": "uint256",
              "name": "startTime",
              "type": "uint256"
            },
            {
              "internalType": "uint256",
              "name": "unpaidPrincipal",
              "type": "uint256"
            },
            {
              "internalType": "uint256",
              "name": "maxDurationSeconds",
              "type": "uint256"
            },
            {
              "internalType": "uint256",
              "name": "lastPaymentTime",
              "type": "uint256"
            }
          ],
          "internalType": "struct IState.Loan",
          "name": "",
          "type": "tuple"
        }
      ],
      "stateMutability": "view",
      "type": "function"
    },
    {
      "inputs": [
        {
          "internalType": "uint256",
          "name": "idx",
          "type": "uint256"
        }
      ],
      "name": "loansTokenIdsAt",
      "outputs": [
        {
          "internalType": "uint256",
          "name": "tokenId",
          "type": "uint256"
        }
      ],
      "stateMutability": "view",
      "type": "function"
    },
    {
      "inputs": [],
      "name": "loansTokenIdsLength",
      "outputs": [
        {
          "internalType": "uint256",
          "name": "",
          "type": "uint256"
        }
      ],
      "stateMutability": "view",
      "type": "function"
    },
    {
      "inputs": [
        {
          "internalType": "bytes4",
          "name": "",
          "type": "bytes4"
        }
      ],
      "name": "logicTargets",
      "outputs": [
        {
          "internalType": "address",
          "name": "",
          "type": "address"
        }
      ],
      "stateMutability": "view",
      "type": "function"
    },
    {
      "inputs": [],
      "name": "maxDurationMonthsCap",
      "outputs": [
        {
          "internalType": "uint256",
          "name": "",
          "type": "uint256"
        }
      ],
      "stateMutability": "view",
      "type": "function"
    },
    {
      "inputs": [],
      "name": "maxLtv",
      "outputs": [
        {
          "internalType": "UD60x18",
          "name": "",
          "type": "uint256"
        }
      ],
      "stateMutability": "view",
      "type": "function"
    },
    {
      "inputs": [],
      "name": "monthSeconds",
      "outputs": [
        {
          "internalType": "uint256",
          "name": "",
          "type": "uint256"
        }
      ],
      "stateMutability": "view",
      "type": "function"
    },
    {
      "inputs": [],
      "name": "optimalUtilization",
      "outputs": [
        {
          "internalType": "UD60x18",
          "name": "",
          "type": "uint256"
        }
      ],
      "stateMutability": "view",
      "type": "function"
    },
    {
      "inputs": [],
      "name": "owner",
      "outputs": [
        {
          "internalType": "address",
          "name": "",
          "type": "address"
        }
      ],
      "stateMutability": "view",
      "type": "function"
    },
    {
      "inputs": [
        {
          "components": [
            {
              "internalType": "address",
              "name": "borrower",
              "type": "address"
            },
            {
              "internalType": "UD60x18",
              "name": "ratePerSecond",
              "type": "uint256"
            },
            {
              "internalType": "UD60x18",
              "name": "paymentPerSecond",
              "type": "uint256"
            },
            {
              "internalType": "uint256",
              "name": "startTime",
              "type": "uint256"
            },
            {
              "internalType": "uint256",
              "name": "unpaidPrincipal",
              "type": "uint256"
            },
            {
              "internalType": "uint256",
              "name": "maxDurationSeconds",
              "type": "uint256"
            },
            {
              "internalType": "uint256",
              "name": "lastPaymentTime",
              "type": "uint256"
            }
          ],
          "internalType": "struct IState.Loan",
          "name": "loan",
          "type": "tuple"
        },
        {
          "internalType": "uint256",
          "name": "month",
          "type": "uint256"
        }
      ],
      "name": "principalCap",
      "outputs": [
        {
          "internalType": "uint256",
          "name": "cap",
          "type": "uint256"
        }
      ],
      "stateMutability": "pure",
      "type": "function"
    },
    {
      "inputs": [],
      "name": "redemptionFeeSpread",
      "outputs": [
        {
          "internalType": "UD60x18",
          "name": "",
          "type": "uint256"
        }
      ],
      "stateMutability": "view",
      "type": "function"
    },
    {
      "inputs": [],
      "name": "renounceOwnership",
      "outputs": [],
      "stateMutability": "nonpayable",
      "type": "function"
    },
    {
      "inputs": [
        {
          "internalType": "bytes4[]",
          "name": "selectorsArr",
          "type": "bytes4[]"
        },
        {
          "internalType": "address",
          "name": "target",
          "type": "address"
        }
      ],
      "name": "setSelectorsTarget",
      "outputs": [],
      "stateMutability": "nonpayable",
      "type": "function"
    },
    {
      "inputs": [
        {
          "internalType": "uint256",
          "name": "tokenId",
          "type": "uint256"
        }
      ],
      "name": "status",
      "outputs": [
        {
          "internalType": "enum IState.Status",
          "name": "",
          "type": "uint8"
        }
      ],
      "stateMutability": "view",
      "type": "function"
    },
    {
      "inputs": [
        {
          "internalType": "uint256",
          "name": "tokenId",
          "type": "uint256"
        }
      ],
      "name": "tokenIdBidsLength",
      "outputs": [
        {
          "internalType": "uint256",
          "name": "",
          "type": "uint256"
        }
      ],
      "stateMutability": "view",
      "type": "function"
    },
    {
      "inputs": [],
      "name": "totalDeposits",
      "outputs": [
        {
          "internalType": "uint256",
          "name": "",
          "type": "uint256"
        }
      ],
      "stateMutability": "view",
      "type": "function"
    },
    {
      "inputs": [],
      "name": "totalPrincipal",
      "outputs": [
        {
          "internalType": "uint256",
          "name": "",
          "type": "uint256"
        }
      ],
      "stateMutability": "view",
      "type": "function"
    },
    {
      "inputs": [
        {
          "internalType": "address",
          "name": "newOwner",
          "type": "address"
        }
      ],
      "name": "transferOwnership",
      "outputs": [],
      "stateMutability": "nonpayable",
      "type": "function"
    },
    {
      "inputs": [],
      "name": "yearMonths",
      "outputs": [
        {
          "internalType": "uint256",
          "name": "",
          "type": "uint256"
        }
      ],
      "stateMutability": "view",
      "type": "function"
    },
    {
      "inputs": [],
      "name": "yearSeconds",
      "outputs": [
        {
          "internalType": "uint256",
          "name": "",
          "type": "uint256"
        }
      ],
      "stateMutability": "view",
      "type": "function"
    }
  ],
  "bytecode": "0x60806040526200003b6200001a60646200022960201b60201c565b6200002c605a6200022960201b60201c565b620002ba60201b90919060201c565b600755620000756200005460646200022960201b60201c565b6200006660046200022960201b60201c565b620002ba60201b90919060201c565b600855620000af6200008e60646200022960201b60201c565b620000a060036200022960201b60201c565b620002ba60201b90919060201c565b600955620000c460096200022960201b60201c565b600a55620000fe620000dd60646200022960201b60201c565b620000ef60016200022960201b60201c565b620002ba60201b90919060201c565b600b55620001386200011760646200022960201b60201c565b6200012960026200022960201b60201c565b620002ba60201b90919060201c565b600c55620001726200015160646200022960201b60201c565b6200016360036200022960201b60201c565b620002ba60201b90919060201c565b600d55620001ac6200018b60646200022960201b60201c565b6200019d60046200022960201b60201c565b620002ba60201b90919060201c565b600e55623b5380601455620001ed620001cc60646200022960201b60201c565b620001de60326200022960201b60201c565b620002ba60201b90919060201c565b60155560786016553480156200020257600080fd5b5062000223620002176200030f60201b60201c565b6200031760201b60201c565b620005ed565b6000670de0b6b3a76400007fffffffffffffffffffffffffffffffffffffffffffffffffffffffffffffffff6200026191906200054a565b821115620002a857816040517f1cd951a70000000000000000000000000000000000000000000000000000000081526004016200029f919062000593565b60405180910390fd5b670de0b6b3a764000082029050919050565b600062000307620002fb620002d585620003db60201b60201c565b670de0b6b3a7640000620002ef86620003db60201b60201c565b620003e560201b60201c565b6200050760201b60201c565b905092915050565b600033905090565b60008060009054906101000a900473ffffffffffffffffffffffffffffffffffffffff169050816000806101000a81548173ffffffffffffffffffffffffffffffffffffffff021916908373ffffffffffffffffffffffffffffffffffffffff1602179055508173ffffffffffffffffffffffffffffffffffffffff168173ffffffffffffffffffffffffffffffffffffffff167f8be0079c531659141344cd1fd0a4f28419497f9722a3daafe3b4186f6b6457e060405160405180910390a35050565b6000819050919050565b600080600080198587098587029250828110838203039150506000810362000425578382816200041a57620004196200051b565b5b049250505062000500565b83811062000470578585856040517f63a057780000000000000000000000000000000000000000000000000000000081526004016200046793929190620005b0565b60405180910390fd5b60008486880990508281118203915080830392506000600186190186169050600081870496508185049450600182836000030401905080840285179450600060028860030218905080880260020381029050808802600203810290508088026002038102905080880260020381029050808802600203810290508088026002038102905080860296505050505050505b9392505050565b6000819050919050565b6000819050919050565b7f4e487b7100000000000000000000000000000000000000000000000000000000600052601260045260246000fd5b6000620005578262000511565b9150620005648362000511565b9250826200057757620005766200051b565b5b828204905092915050565b6200058d8162000511565b82525050565b6000602082019050620005aa600083018462000582565b92915050565b6000606082019050620005c7600083018662000582565b620005d6602083018562000582565b620005e5604083018462000582565b949350505050565b61485880620005fd6000396000f3fe608060405234801561001057600080fd5b50600436106101cf5760003560e01c80637d88209711610104578063bcff3e3b116100a2578063e1ec3c6811610071578063e1ec3c6814610564578063e343504414610594578063f2fde38b146105b0578063ff9ad6df146105cc576101cf565b8063bcff3e3b146104c6578063bd5c569b146104f6578063c0c53b8b1461052c578063dfdabc1914610548576101cf565b80638da5cb5b116100de5780638da5cb5b1461043c578063a0024c2f1461045a578063a54cab1c1461048a578063ab01f7e1146104a8576101cf565b80637d882097146103e2578063812cf0181461040057806387ae0dbe1461041e576101cf565b80634423c5f1116101715780636290cd1c1161014b5780636290cd1c1461036c578063715018a61461038a578063743753591461039457806374bdf96a146103b2576101cf565b80634423c5f1146103005780634abb3003146103305780634b1533b21461034e576101cf565b80632da10923116101ad5780632da10923146102645780633a12c6da146102945780633ca36db6146102b257806342d21ef7146102d0576101cf565b80630a9cc0b6146101d457806317548b79146102045780631cc03c8714610234575b600080fd5b6101ee60048036038101906101e9919061348f565b6105ea565b6040516101fb91906134d7565b60405180910390f35b61021e6004803603810190610219919061354a565b61065f565b60405161022b9190613586565b60405180910390f35b61024e60048036038101906102499190613681565b610692565b60405161025b91906136d1565b60405180910390f35b61027e600480360381019061027991906136ec565b6107f4565b60405161028b91906136d1565b60405180910390f35b61029c610814565b6040516102a99190613754565b60405180910390f35b6102ba61081a565b6040516102c79190613754565b60405180910390f35b6102ea60048036038101906102e591906136ec565b610824565b6040516102f791906137e6565b60405180910390f35b61031a600480360381019061031591906136ec565b61096b565b6040516103279190613923565b60405180910390f35b610338610a51565b6040516103459190613754565b60405180910390f35b610356610a5b565b60405161036391906136d1565b60405180910390f35b610374610a61565b6040516103819190613754565b60405180910390f35b610392610a67565b005b61039c610a7b565b6040516103a991906136d1565b60405180910390f35b6103cc60048036038101906103c791906136ec565b610a92565b6040516103d991906136d1565b60405180910390f35b6103ea610aaf565b6040516103f791906136d1565b60405180910390f35b610408610ab5565b60405161041591906136d1565b60405180910390f35b610426610aba565b60405161043391906136d1565b60405180910390f35b610444610ac2565b6040516104519190613586565b60405180910390f35b610474600480360381019061046f919061348f565b610aeb565b60405161048191906134d7565b60405180910390f35b610492610b0f565b60405161049f91906136d1565b60405180910390f35b6104b0610b15565b6040516104bd91906136d1565b60405180910390f35b6104e060048036038101906104db91906136ec565b610b26565b6040516104ed91906136d1565b60405180910390f35b610510600480360381019061050b91906136ec565b610be7565b6040516105239796959493929190613945565b60405180910390f35b61054660048036038101906105419190613a6e565b610c49565b005b610562600480360381019061055d9190613ac1565b610e4b565b005b61057e600480360381019061057991906136ec565b61143c565b60405161058b9190613b9e565b60405180910390f35b6105ae60048036038101906105a99190613c1e565b6114fb565b005b6105ca60048036038101906105c59190613c7e565b6115e1565b005b6105d4611664565b6040516105e191906136d1565b60405180910390f35b600080826040015183602001516106019190613cda565b9050600061062c6106158560200151611678565b61061e84611678565b61170490919063ffffffff16565b90506106436015548261173990919063ffffffff16565b80156106565750610652610a7b565b8211155b92505050919050565b60016020528060005260406000206000915054906101000a900473ffffffffffffffffffffffffffffffffffffffff1681565b600061069d83611757565b8211156106df576040517f08c379a00000000000000000000000000000000000000000000000000000000081526004016106d690613d91565b60405180910390fd5b6000600c6301e133806106f29190613de0565b836106fd9190613e11565b9050600061074361070e6001611780565b61073561071e8860a00151611780565b61072786611780565b61188490919063ffffffff16565b61188490919063ffffffff16565b9050600061079c610784836107766107718a602001516107636001611678565b6118b290919063ffffffff16565b6118e0565b61195490919063ffffffff16565b61078e6001611780565b61188490919063ffffffff16565b905060006107c76107c2836107b48a604001516118e0565b611a1290919063ffffffff16565b611ba2565b90506107e86107e388602001518361170490919063ffffffff16565b611bf7565b94505050505092915050565b6000600f6000838152602001908152602001600020805490509050919050565b60155481565b6000600d54905090565b600080601060008481526020019081526020016000206040518060e00160405290816000820160009054906101000a900473ffffffffffffffffffffffffffffffffffffffff1673ffffffffffffffffffffffffffffffffffffffff1673ffffffffffffffffffffffffffffffffffffffff16815260200160018201548152602001600282015481526020016003820154815260200160048201548152602001600582015481526020016006820154815250509050600073ffffffffffffffffffffffffffffffffffffffff16816000015173ffffffffffffffffffffffffffffffffffffffff160361091b576000915050610966565b61092483611c14565b1561096057600061093482611d29565b4261093f9190613cda565b9050601454811161095557600292505050610966565b600392505050610966565b60019150505b919050565b6060600f6000838152602001908152602001600020805480602002602001604051908101604052809291908181526020016000905b82821015610a4657838290600052602060002090600402016040518060800160405290816000820160009054906101000a900473ffffffffffffffffffffffffffffffffffffffff1673ffffffffffffffffffffffffffffffffffffffff1673ffffffffffffffffffffffffffffffffffffffff1681526020016001820154815260200160028201548152602001600382015481525050815260200190600101906109a0565b505050509050919050565b6000600e54905090565b60055481565b60075481565b610a6f611dd4565b610a796000611e52565b565b6000600554600654610a8d9190613cda565b905090565b6000610aa8826011611f1690919063ffffffff16565b9050919050565b60065481565b600c81565b6301e1338081565b60008060009054906101000a900473ffffffffffffffffffffffffffffffffffffffff16905090565b6000816040015182602001511480610b085750610b07826105ea565b5b9050919050565b60165481565b6000610b216011611f30565b905090565b6000610be0601060008481526020019081526020016000206040518060e00160405290816000820160009054906101000a900473ffffffffffffffffffffffffffffffffffffffff1673ffffffffffffffffffffffffffffffffffffffff1673ffffffffffffffffffffffffffffffffffffffff1681526020016001820154815260200160028201548152602001600382015481526020016004820154815260200160058201548152602001600682015481525050611f45565b9050919050565b60106020528060005260406000206000915090508060000160009054906101000a900473ffffffffffffffffffffffffffffffffffffffff16908060010154908060020154908060030154908060040154908060050154908060060154905087565b6000600260019054906101000a900460ff16159050808015610c7d57506001600260009054906101000a900460ff1660ff16105b80610cac5750610c8c30611f7d565b158015610cab57506001600260009054906101000a900460ff1660ff16145b5b610ceb576040517f08c379a0000000000000000000000000000000000000000000000000000000008152600401610ce290613ec5565b60405180910390fd5b6001600260006101000a81548160ff021916908360ff1602179055508015610d29576001600260016101000a81548160ff0219169083151502179055505b836002806101000a81548173ffffffffffffffffffffffffffffffffffffffff021916908373ffffffffffffffffffffffffffffffffffffffff16021790555082600360006101000a81548173ffffffffffffffffffffffffffffffffffffffff021916908373ffffffffffffffffffffffffffffffffffffffff16021790555081600460006101000a81548173ffffffffffffffffffffffffffffffffffffffff021916908373ffffffffffffffffffffffffffffffffffffffff1602179055508015610e45576000600260016101000a81548160ff0219169083151502179055507f7f26b83ff96e1f2b6a682f133852f6798a09c465da95921460cefb38474024986001604051610e3c9190613f2d565b60405180910390a15b50505050565b6000601060008481526020019081526020016000206040518060e00160405290816000820160009054906101000a900473ffffffffffffffffffffffffffffffffffffffff1673ffffffffffffffffffffffffffffffffffffffff1673ffffffffffffffffffffffffffffffffffffffff1681526020016001820154815260200160028201548152602001600382015481526020016004820154815260200160058201548152602001600682015481525050905060016003811115610f1357610f1261376f565b5b610f1c84610824565b6003811115610f2e57610f2d61376f565b5b14610f6e576040517f08c379a0000000000000000000000000000000000000000000000000000000008152600401610f6590613f94565b60405180910390fd5b806000015173ffffffffffffffffffffffffffffffffffffffff163373ffffffffffffffffffffffffffffffffffffffff1614610fe0576040517f08c379a0000000000000000000000000000000000000000000000000000000008152600401610fd790614000565b60405180910390fd5b6000600f6000858152602001908152602001600020838154811061100757611006614020565b5b90600052602060002090600402016040518060800160405290816000820160009054906101000a900473ffffffffffffffffffffffffffffffffffffffff1673ffffffffffffffffffffffffffffffffffffffff1673ffffffffffffffffffffffffffffffffffffffff1681526020016001820154815260200160028201548152602001600382015481525050905060006110c16110bc600b546110ae8560200151611678565b611fa090919063ffffffff16565b611bf7565b905080601360008282546110d5919061404f565b9250508190555060006110e786610b26565b90508360800151600560008282546110ff9190613cda565b925050819055508060066000828254611118919061404f565b92505081905550600082828660800151611132919061404f565b61113c919061404f565b90508084602001511015611185576040517f08c379a000000000000000000000000000000000000000000000000000000000815260040161117c906140f5565b60405180910390fd5b60008185602001516111979190613cda565b90506111e886600001518260028054906101000a900473ffffffffffffffffffffffffffffffffffffffff1673ffffffffffffffffffffffffffffffffffffffff16611fcc9092919063ffffffff16565b846040015185602001510361129157600460009054906101000a900473ffffffffffffffffffffffffffffffffffffffff1673ffffffffffffffffffffffffffffffffffffffff166342842e0e3087600001518b6040518463ffffffff1660e01b815260040161125a93929190614115565b600060405180830381600087803b15801561127457600080fd5b505af1158015611288573d6000803e3d6000fd5b50505050611432565b6000856040015186602001516112a79190613cda565b9050600060016000630feee81e60e01b7bffffffffffffffffffffffffffffffffffffffffffffffffffffffff19167bffffffffffffffffffffffffffffffffffffffffffffffffffffffff1916815260200190815260200160002060009054906101000a900473ffffffffffffffffffffffffffffffffffffffff1673ffffffffffffffffffffffffffffffffffffffff1687600001518b848a60600151604051602401611359949392919061414c565b604051602081830303815290604052630feee81e60e01b6020820180517bffffffffffffffffffffffffffffffffffffffffffffffffffffffff83818316178352505050506040516113ab9190614202565b600060405180830381855af49150503d80600081146113e6576040519150601f19603f3d011682016040523d82523d6000602084013e6113eb565b606091505b505090508061142f576040517f08c379a000000000000000000000000000000000000000000000000000000000815260040161142690614265565b60405180910390fd5b50505b5050505050505050565b61144461328b565b601060008381526020019081526020016000206040518060e00160405290816000820160009054906101000a900473ffffffffffffffffffffffffffffffffffffffff1673ffffffffffffffffffffffffffffffffffffffff1673ffffffffffffffffffffffffffffffffffffffff16815260200160018201548152602001600282015481526020016003820154815260200160048201548152602001600582015481526020016006820154815250509050919050565b611503611dd4565b60005b838390508110156115db57816001600086868581811061152957611528614020565b5b905060200201602081019061153e919061354a565b7bffffffffffffffffffffffffffffffffffffffffffffffffffffffff19167bffffffffffffffffffffffffffffffffffffffffffffffffffffffff1916815260200190815260200160002060006101000a81548173ffffffffffffffffffffffffffffffffffffffff021916908373ffffffffffffffffffffffffffffffffffffffff16021790555080806115d390614285565b915050611506565b50505050565b6115e9611dd4565b600073ffffffffffffffffffffffffffffffffffffffff168173ffffffffffffffffffffffffffffffffffffffff1603611658576040517f08c379a000000000000000000000000000000000000000000000000000000000815260040161164f9061433f565b60405180910390fd5b61166181611e52565b50565b600c6301e133806116759190613de0565b81565b6000670de0b6b3a76400007fffffffffffffffffffffffffffffffffffffffffffffffffffffffffffffffff6116ae9190613de0565b8211156116f257816040517f1cd951a70000000000000000000000000000000000000000000000000000000081526004016116e991906136d1565b60405180910390fd5b670de0b6b3a764000082029050919050565b600061173161172c61171585612052565b670de0b6b3a764000061172786612052565b61205c565b612176565b905092915050565b600061174482612052565b61174d84612052565b1115905092915050565b60006301e133808260a00151600c61176f9190613e11565b6117799190613de0565b9050919050565b6000670de0b6b3a76400007f80000000000000000000000000000000000000000000000000000000000000006117b69190614369565b8212156117fa57816040517f99474eeb0000000000000000000000000000000000000000000000000000000081526004016117f191906143e2565b60405180910390fd5b670de0b6b3a76400007f7fffffffffffffffffffffffffffffffffffffffffffffffffffffffffffffff61182e9190614369565b82131561187257816040517f9d58109100000000000000000000000000000000000000000000000000000000815260040161186991906143e2565b60405180910390fd5b670de0b6b3a764000082029050919050565b60006118aa61189283612180565b61189b85612180565b6118a591906143fd565b61218a565b905092915050565b60006118d86118c083612052565b6118c985612052565b6118d3919061404f565b612176565b905092915050565b6000808290507f7fffffffffffffffffffffffffffffffffffffffffffffffffffffffffffffff81111561194b57826040517ff46186840000000000000000000000000000000000000000000000000000000081526004016119429190613754565b60405180910390fd5b80915050919050565b60008061196084612180565b9050600061196d84612180565b9050600082036119995760008114611986576000611990565b670de0b6b3a76400005b92505050611a0c565b670de0b6b3a764000082036119ba57670de0b6b3a764000092505050611a0c565b600081036119d457670de0b6b3a764000092505050611a0c565b670de0b6b3a764000081036119ed578492505050611a0c565b611a07611a026119fc87612194565b86611a12565b612327565b925050505b92915050565b600080611a1e84612180565b90506000611a2b84612180565b90507f8000000000000000000000000000000000000000000000000000000000000000821480611a7a57507f800000000000000000000000000000000000000000000000000000000000000081145b15611ab1576040517fa6070c2500000000000000000000000000000000000000000000000000000000815260040160405180910390fd5b60008060008412611ac25783611ac7565b836000035b915060008312611ad75782611adc565b826000035b90506000611aea8383612445565b90507f7fffffffffffffffffffffffffffffffffffffffffffffffffffffffffffffff811115611b535787876040517f120b5b43000000000000000000000000000000000000000000000000000000008152600401611b4a929190614471565b60405180910390fd5b60007fffffffffffffffffffffffffffffffffffffffffffffffffffffffffffffffff858718139050611b9481611b8d5782600003611b8f565b825b61218a565b965050505050505092915050565b6000808290506000811215611bee57826040517fbba41a15000000000000000000000000000000000000000000000000000000008152600401611be5919061449a565b60405180910390fd5b80915050919050565b6000670de0b6b3a764000082611c0d9190613de0565b9050919050565b600080601060008481526020019081526020016000206040518060e00160405290816000820160009054906101000a900473ffffffffffffffffffffffffffffffffffffffff1673ffffffffffffffffffffffffffffffffffffffff1673ffffffffffffffffffffffffffffffffffffffff168152602001600182015481526020016002820154815260200160038201548152602001600482015481526020016005820154815260200160068201548152505090506000611cd48261252f565b90506000600c6301e133808460a00151611cee9190613de0565b611cf89190613e11565b905080821115611d0e5760019350505050611d24565b611d188383610692565b83608001511193505050505b919050565b600080611d358361252f565b905060008190505b6000811115611dcd576000611d528583610692565b90506000611d6c86600185611d679190613cda565b610692565b9050818660800151118015611d85575080866080015111155b15611db857600c6301e13380611d9b9190613de0565b83611da69190613e11565b8660600151611db5919061404f565b94505b50508080611dc5906144b5565b915050611d3d565b5050919050565b611ddc612584565b73ffffffffffffffffffffffffffffffffffffffff16611dfa610ac2565b73ffffffffffffffffffffffffffffffffffffffff1614611e50576040517f08c379a0000000000000000000000000000000000000000000000000000000008152600401611e479061452a565b60405180910390fd5b565b60008060009054906101000a900473ffffffffffffffffffffffffffffffffffffffff169050816000806101000a81548173ffffffffffffffffffffffffffffffffffffffff021916908373ffffffffffffffffffffffffffffffffffffffff1602179055508173ffffffffffffffffffffffffffffffffffffffff168173ffffffffffffffffffffffffffffffffffffffff167f8be0079c531659141344cd1fd0a4f28419497f9722a3daafe3b4186f6b6457e060405160405180910390a35050565b6000611f25836000018361258c565b60001c905092915050565b6000611f3e826000016125b7565b9050919050565b6000611f76611f71611f56846125c8565b611f638560800151611678565b611fa090919063ffffffff16565b611bf7565b9050919050565b6000808273ffffffffffffffffffffffffffffffffffffffff163b119050919050565b6000611fc4611fbf611fb185612052565b611fba85612052565b612445565b612176565b905092915050565b61204d8363a9059cbb60e01b8484604051602401611feb92919061454a565b604051602081830303815290604052907bffffffffffffffffffffffffffffffffffffffffffffffffffffffff19166020820180517bffffffffffffffffffffffffffffffffffffffffffffffffffffffff83818316178352505050506125f8565b505050565b6000819050919050565b60008060008019858709858702925082811083820303915050600081036120975783828161208d5761208c613db1565b5b049250505061216f565b8381106120df578585856040517f63a057780000000000000000000000000000000000000000000000000000000081526004016120d693929190614573565b60405180910390fd5b60008486880990508281118203915080830392506000600186190186169050600081870496508185049450600182836000030401905080840285179450600060028860030218905080880260020381029050808802600203810290508088026002038102905080880260020381029050808802600203810290508088026002038102905080860296505050505050505b9392505050565b6000819050919050565b6000819050919050565b6000819050919050565b6000806121a083612180565b9050600081136121e757826040517f059b101b0000000000000000000000000000000000000000000000000000000081526004016121de919061449a565b60405180910390fd5b6000670de0b6b3a764000082126122015760019050612247565b7fffffffffffffffffffffffffffffffffffffffffffffffffffffffffffffffff9050816ec097ce7bc90715b34b9f10000000008161224357612242613db1565b5b0591505b600061226a670de0b6b3a7640000848161226457612263613db1565b5b056126bf565b90506000670de0b6b3a76400008202905060008285901d9050670de0b6b3a764000081036122a95761229d84830261218a565b95505050505050612322565b6000671bc16d674ec80000905060006706f05b59d3b2000090505b600081131561230a57670de0b6b3a7640000838402816122e7576122e6613db1565b5b0592508183126122fe578084019350600183901d92505b600181901d90506122c4565b5084830292506123198361218a565b96505050505050505b919050565b60008061233383612180565b905060008112156123ba577ffffffffffffffffffffffffffffffffffffffffffffffffcc22e87f6eb468eeb811215612370576000915050612440565b6123b361238f61238a6123858460000361218a565b612327565b612180565b6ec097ce7bc90715b34b9f1000000000816123ad576123ac613db1565b5b0561218a565b915061243e565b680a688906bd8affffff81131561240857826040517f0360d0280000000000000000000000000000000000000000000000000000000081526004016123ff919061449a565b60405180910390fd5b6000670de0b6b3a7640000604083901b8161242657612425613db1565b5b05905061243a61243582612768565b61218a565b9250505b505b919050565b600080600080198486098486029250828110838203039150506000810361248857670de0b6b3a7640000828161247e5761247d613db1565b5b0492505050612529565b670de0b6b3a764000081106124d65784846040517f5173648d0000000000000000000000000000000000000000000000000000000081526004016124cd9291906145aa565b60405180910390fd5b6000670de0b6b3a764000085870990507faccb18165bd6fe31ae1cf318dc5b51eee0e1ba569b88cd74c1773b91fac106696001620400008060000304018483118403026204000083860304170293505050505b92915050565b600080600c6301e133806125439190613de0565b8360600151426125539190613cda565b61255d9190613de0565b9050600061256a84611757565b9050808211612579578161257b565b805b92505050919050565b600033905090565b60008260000182815481106125a4576125a3614020565b5b9060005260206000200154905092915050565b600081600001805490509050919050565b60006125f16125de6125d9846130c8565b611678565b8360200151611fa090919063ffffffff16565b9050919050565b600061265a826040518060400160405280602081526020017f5361666545524332303a206c6f772d6c6576656c2063616c6c206661696c65648152508573ffffffffffffffffffffffffffffffffffffffff166130e19092919063ffffffff16565b90506000815111156126ba578080602001905181019061267a91906145ff565b6126b9576040517f08c379a00000000000000000000000000000000000000000000000000000000081526004016126b09061469e565b60405180910390fd5b5b505050565b60006fffffffffffffffffffffffffffffffff821160071b82811c925080821791505067ffffffffffffffff821160061b82811c925080821791505063ffffffff821160051b82811c925080821791505061ffff821160041b82811c925080821791505060ff821160031b82811c9250808217915050600f821160021b82811c92508082179150506003821160011b82811c925080821791505060018211808217915050919050565b6000778000000000000000000000000000000000000000000000009050600067ff00000000000000831611156128c9576000678000000000000000831611156127be57604068016a09e667f3bcc9098202901c90505b6000674000000000000000831611156127e45760406801306fe0a31b7152df8202901c90505b60006720000000000000008316111561280a5760406801172b83c7d517adce8202901c90505b60006710000000000000008316111561283057604068010b5586cf9890f62a8202901c90505b6000670800000000000000831611156128565760406801059b0d31585743ae8202901c90505b60006704000000000000008316111561287c576040680102c9a3e778060ee78202901c90505b6000670200000000000000831611156128a257604068010163da9fb33356d88202901c90505b6000670100000000000000831611156128c8576040680100b1afa5abcbed618202901c90505b5b600066ff00000000000083161115612a0457600066800000000000008316111561290057604068010058c86da1c09ea28202901c90505b60006640000000000000831611156129255760406801002c605e2e8cec508202901c90505b600066200000000000008316111561294a576040680100162f3904051fa18202901c90505b600066100000000000008316111561296f5760406801000b175effdc76ba8202901c90505b6000660800000000000083161115612994576040680100058ba01fb9f96d8202901c90505b60006604000000000000831611156129b957604068010002c5cc37da94928202901c90505b60006602000000000000831611156129de5760406801000162e525ee05478202901c90505b6000660100000000000083161115612a0357604068010000b17255775c048202901c90505b5b600065ff000000000083161115612b365760006580000000000083161115612a395760406801000058b91b5bc9ae8202901c90505b60006540000000000083161115612a5d576040680100002c5c89d5ec6d8202901c90505b60006520000000000083161115612a8157604068010000162e43f4f8318202901c90505b60006510000000000083161115612aa5576040680100000b1721bcfc9a8202901c90505b60006508000000000083161115612ac957604068010000058b90cf1e6e8202901c90505b60006504000000000083161115612aed5760406801000002c5c863b73f8202901c90505b60006502000000000083161115612b11576040680100000162e430e5a28202901c90505b60006501000000000083161115612b355760406801000000b1721835518202901c90505b5b600064ff0000000083161115612c5f57600064800000000083161115612b69576040680100000058b90c0b498202901c90505b600064400000000083161115612b8c57604068010000002c5c8601cc8202901c90505b600064200000000083161115612baf5760406801000000162e42fff08202901c90505b600064100000000083161115612bd257604068010000000b17217fbb8202901c90505b600064080000000083161115612bf55760406801000000058b90bfce8202901c90505b600064040000000083161115612c18576040680100000002c5c85fe38202901c90505b600064020000000083161115612c3b57604068010000000162e42ff18202901c90505b600064010000000083161115612c5e576040680100000000b17217f88202901c90505b5b600063ff00000083161115612d7f576000638000000083161115612c9057604068010000000058b90bfc8202901c90505b6000634000000083161115612cb25760406801000000002c5c85fe8202901c90505b6000632000000083161115612cd4576040680100000000162e42ff8202901c90505b6000631000000083161115612cf65760406801000000000b17217f8202901c90505b6000630800000083161115612d18576040680100000000058b90c08202901c90505b6000630400000083161115612d3a57604068010000000002c5c8608202901c90505b6000630200000083161115612d5c5760406801000000000162e4308202901c90505b6000630100000083161115612d7e57604068010000000000b172188202901c90505b5b600062ff000083161115612e965760006280000083161115612dae5760406801000000000058b90c8202901c90505b60006240000083161115612dcf576040680100000000002c5c868202901c90505b60006220000083161115612df057604068010000000000162e438202901c90505b60006210000083161115612e11576040680100000000000b17218202901c90505b60006208000083161115612e3257604068010000000000058b918202901c90505b60006204000083161115612e535760406801000000000002c5c88202901c90505b60006202000083161115612e74576040680100000000000162e48202901c90505b60006201000083161115612e955760406801000000000000b1728202901c90505b5b600061ff0083161115612fa457600061800083161115612ec3576040680100000000000058b98202901c90505b600061400083161115612ee357604068010000000000002c5d8202901c90505b600061200083161115612f035760406801000000000000162e8202901c90505b600061100083161115612f2357604068010000000000000b178202901c90505b600061080083161115612f435760406801000000000000058c8202901c90505b600061040083161115612f63576040680100000000000002c68202901c90505b600061020083161115612f83576040680100000000000001638202901c90505b600061010083161115612fa3576040680100000000000000b18202901c90505b5b600060ff831611156130a9576000608083161115612fcf576040680100000000000000598202901c90505b6000604083161115612fee5760406801000000000000002c8202901c90505b600060208316111561300d576040680100000000000000168202901c90505b600060108316111561302c5760406801000000000000000b8202901c90505b600060088316111561304b576040680100000000000000068202901c90505b600060048316111561306a576040680100000000000000038202901c90505b6000600283161115613089576040680100000000000000018202901c90505b60006001831611156130a8576040680100000000000000018202901c90505b5b670de0b6b3a764000081029050604082901c60bf0381901c9050919050565b60008160c00151426130da9190613cda565b9050919050565b60606130f084846000856130f9565b90509392505050565b60608247101561313e576040517f08c379a000000000000000000000000000000000000000000000000000000000815260040161313590614730565b60405180910390fd5b6000808673ffffffffffffffffffffffffffffffffffffffff1685876040516131679190614202565b60006040518083038185875af1925050503d80600081146131a4576040519150601f19603f3d011682016040523d82523d6000602084013e6131a9565b606091505b50915091506131ba878383876131c6565b92505050949350505050565b60608315613228576000835103613220576131e085611f7d565b61321f576040517f08c379a00000000000000000000000000000000000000000000000000000000081526004016132169061479c565b60405180910390fd5b5b829050613233565b613232838361323b565b5b949350505050565b60008251111561324e5781518083602001fd5b806040517f08c379a00000000000000000000000000000000000000000000000000000000081526004016132829190614800565b60405180910390fd5b6040518060e00160405280600073ffffffffffffffffffffffffffffffffffffffff1681526020016000815260200160008152602001600081526020016000815260200160008152602001600081525090565b6000604051905090565b600080fd5b600080fd5b600080fd5b6000601f19601f8301169050919050565b7f4e487b7100000000000000000000000000000000000000000000000000000000600052604160045260246000fd5b613340826132f7565b810181811067ffffffffffffffff8211171561335f5761335e613308565b5b80604052505050565b60006133726132de565b905061337e8282613337565b919050565b600073ffffffffffffffffffffffffffffffffffffffff82169050919050565b60006133ae82613383565b9050919050565b6133be816133a3565b81146133c957600080fd5b50565b6000813590506133db816133b5565b92915050565b6000819050919050565b6133f4816133e1565b81146133ff57600080fd5b50565b600081359050613411816133eb565b92915050565b60006080828403121561342d5761342c6132f2565b5b6134376080613368565b90506000613447848285016133cc565b600083015250602061345b84828501613402565b602083015250604061346f84828501613402565b604083015250606061348384828501613402565b60608301525092915050565b6000608082840312156134a5576134a46132e8565b5b60006134b384828501613417565b91505092915050565b60008115159050919050565b6134d1816134bc565b82525050565b60006020820190506134ec60008301846134c8565b92915050565b60007fffffffff0000000000000000000000000000000000000000000000000000000082169050919050565b613527816134f2565b811461353257600080fd5b50565b6000813590506135448161351e565b92915050565b6000602082840312156135605761355f6132e8565b5b600061356e84828501613535565b91505092915050565b613580816133a3565b82525050565b600060208201905061359b6000830184613577565b92915050565b6135aa816133e1565b81146135b557600080fd5b50565b6000813590506135c7816135a1565b92915050565b600060e082840312156135e3576135e26132f2565b5b6135ed60e0613368565b905060006135fd848285016133cc565b6000830152506020613611848285016135b8565b6020830152506040613625848285016135b8565b604083015250606061363984828501613402565b606083015250608061364d84828501613402565b60808301525060a061366184828501613402565b60a08301525060c061367584828501613402565b60c08301525092915050565b6000806101008385031215613699576136986132e8565b5b60006136a7858286016135cd565b92505060e06136b885828601613402565b9150509250929050565b6136cb816133e1565b82525050565b60006020820190506136e660008301846136c2565b92915050565b600060208284031215613702576137016132e8565b5b600061371084828501613402565b91505092915050565b6000819050919050565b600061373e613739613734846133e1565b613719565b6133e1565b9050919050565b61374e81613723565b82525050565b60006020820190506137696000830184613745565b92915050565b7f4e487b7100000000000000000000000000000000000000000000000000000000600052602160045260246000fd5b600481106137af576137ae61376f565b5b50565b60008190506137c08261379e565b919050565b60006137d0826137b2565b9050919050565b6137e0816137c5565b82525050565b60006020820190506137fb60008301846137d7565b92915050565b600081519050919050565b600082825260208201905092915050565b6000819050602082019050919050565b613836816133a3565b82525050565b613845816133e1565b82525050565b608082016000820151613861600085018261382d565b506020820151613874602085018261383c565b506040820151613887604085018261383c565b50606082015161389a606085018261383c565b50505050565b60006138ac838361384b565b60808301905092915050565b6000602082019050919050565b60006138d082613801565b6138da818561380c565b93506138e58361381d565b8060005b838110156139165781516138fd88826138a0565b9750613908836138b8565b9250506001810190506138e9565b5085935050505092915050565b6000602082019050818103600083015261393d81846138c5565b905092915050565b600060e08201905061395a600083018a613577565b6139676020830189613745565b6139746040830188613745565b61398160608301876136c2565b61398e60808301866136c2565b61399b60a08301856136c2565b6139a860c08301846136c2565b98975050505050505050565b60006139bf826133a3565b9050919050565b6139cf816139b4565b81146139da57600080fd5b50565b6000813590506139ec816139c6565b92915050565b60006139fd826133a3565b9050919050565b613a0d816139f2565b8114613a1857600080fd5b50565b600081359050613a2a81613a04565b92915050565b6000613a3b826133a3565b9050919050565b613a4b81613a30565b8114613a5657600080fd5b50565b600081359050613a6881613a42565b92915050565b600080600060608486031215613a8757613a866132e8565b5b6000613a95868287016139dd565b9350506020613aa686828701613a1b565b9250506040613ab786828701613a59565b9150509250925092565b60008060408385031215613ad857613ad76132e8565b5b6000613ae685828601613402565b9250506020613af785828601613402565b9150509250929050565b613b0a81613723565b82525050565b60e082016000820151613b26600085018261382d565b506020820151613b396020850182613b01565b506040820151613b4c6040850182613b01565b506060820151613b5f606085018261383c565b506080820151613b72608085018261383c565b5060a0820151613b8560a085018261383c565b5060c0820151613b9860c085018261383c565b50505050565b600060e082019050613bb36000830184613b10565b92915050565b600080fd5b600080fd5b600080fd5b60008083601f840112613bde57613bdd613bb9565b5b8235905067ffffffffffffffff811115613bfb57613bfa613bbe565b5b602083019150836020820283011115613c1757613c16613bc3565b5b9250929050565b600080600060408486031215613c3757613c366132e8565b5b600084013567ffffffffffffffff811115613c5557613c546132ed565b5b613c6186828701613bc8565b93509350506020613c74868287016133cc565b9150509250925092565b600060208284031215613c9457613c936132e8565b5b6000613ca2848285016133cc565b91505092915050565b7f4e487b7100000000000000000000000000000000000000000000000000000000600052601160045260246000fd5b6000613ce5826133e1565b9150613cf0836133e1565b9250828203905081811115613d0857613d07613cab565b5b92915050565b600082825260208201905092915050565b7f6d6f6e7468206d757374206265203c3d206c6f616e4d61784475726174696f6e60008201527f4d6f6e7468730000000000000000000000000000000000000000000000000000602082015250565b6000613d7b602683613d0e565b9150613d8682613d1f565b604082019050919050565b60006020820190508181036000830152613daa81613d6e565b9050919050565b7f4e487b7100000000000000000000000000000000000000000000000000000000600052601260045260246000fd5b6000613deb826133e1565b9150613df6836133e1565b925082613e0657613e05613db1565b5b828204905092915050565b6000613e1c826133e1565b9150613e27836133e1565b9250828202613e35816133e1565b91508282048414831517613e4c57613e4b613cab565b5b5092915050565b7f496e697469616c697a61626c653a20636f6e747261637420697320616c72656160008201527f647920696e697469616c697a6564000000000000000000000000000000000000602082015250565b6000613eaf602e83613d0e565b9150613eba82613e53565b604082019050919050565b60006020820190508181036000830152613ede81613ea2565b9050919050565b6000819050919050565b600060ff82169050919050565b6000613f17613f12613f0d84613ee5565b613719565b613eef565b9050919050565b613f2781613efc565b82525050565b6000602082019050613f426000830184613f1e565b92915050565b7f737461747573206e6f74206d6f72746761676500000000000000000000000000600082015250565b6000613f7e601383613d0e565b9150613f8982613f48565b602082019050919050565b60006020820190508181036000830152613fad81613f71565b9050919050565b7f63616c6c6572206e6f7420626f72726f77657200000000000000000000000000600082015250565b6000613fea601383613d0e565b9150613ff582613fb4565b602082019050919050565b6000602082019050818103600083015261401981613fdd565b9050919050565b7f4e487b7100000000000000000000000000000000000000000000000000000000600052603260045260246000fd5b600061405a826133e1565b9150614065836133e1565b925082820190508082111561407d5761407c613cab565b5b92915050565b7f70726f706572747956616c756520646f65736e277420636f766572206465627460008201527f202b206665657300000000000000000000000000000000000000000000000000602082015250565b60006140df602783613d0e565b91506140ea82614083565b604082019050919050565b6000602082019050818103600083015261410e816140d2565b9050919050565b600060608201905061412a6000830186613577565b6141376020830185613577565b61414460408301846136c2565b949350505050565b60006080820190506141616000830187613577565b61416e60208301866136c2565b61417b60408301856136c2565b61418860608301846136c2565b95945050505050565b600081519050919050565b600081905092915050565b60005b838110156141c55780820151818401526020810190506141aa565b60008484015250505050565b60006141dc82614191565b6141e6818561419c565b93506141f68185602086016141a7565b80840191505092915050565b600061420e82846141d1565b915081905092915050565b7f73746172744c6f616e2064656c656761746543616c6c206661696c6564000000600082015250565b600061424f601d83613d0e565b915061425a82614219565b602082019050919050565b6000602082019050818103600083015261427e81614242565b9050919050565b6000614290826133e1565b91507fffffffffffffffffffffffffffffffffffffffffffffffffffffffffffffffff82036142c2576142c1613cab565b5b600182019050919050565b7f4f776e61626c653a206e6577206f776e657220697320746865207a65726f206160008201527f6464726573730000000000000000000000000000000000000000000000000000602082015250565b6000614329602683613d0e565b9150614334826142cd565b604082019050919050565b600060208201905081810360008301526143588161431c565b9050919050565b6000819050919050565b60006143748261435f565b915061437f8361435f565b92508261438f5761438e613db1565b5b600160000383147f8000000000000000000000000000000000000000000000000000000000000000831416156143c8576143c7613cab565b5b828205905092915050565b6143dc8161435f565b82525050565b60006020820190506143f760008301846143d3565b92915050565b60006144088261435f565b91506144138361435f565b925082820390508181126000841216828213600085121516171561443a57614439613cab565b5b92915050565b600061445b6144566144518461435f565b613719565b61435f565b9050919050565b61446b81614440565b82525050565b60006040820190506144866000830185614462565b6144936020830184614462565b9392505050565b60006020820190506144af6000830184614462565b92915050565b60006144c0826133e1565b9150600082036144d3576144d2613cab565b5b600182039050919050565b7f4f776e61626c653a2063616c6c6572206973206e6f7420746865206f776e6572600082015250565b6000614514602083613d0e565b915061451f826144de565b602082019050919050565b6000602082019050818103600083015261454381614507565b9050919050565b600060408201905061455f6000830185613577565b61456c60208301846136c2565b9392505050565b600060608201905061458860008301866136c2565b61459560208301856136c2565b6145a260408301846136c2565b949350505050565b60006040820190506145bf60008301856136c2565b6145cc60208301846136c2565b9392505050565b6145dc816134bc565b81146145e757600080fd5b50565b6000815190506145f9816145d3565b92915050565b600060208284031215614615576146146132e8565b5b6000614623848285016145ea565b91505092915050565b7f5361666545524332303a204552433230206f7065726174696f6e20646964206e60008201527f6f74207375636365656400000000000000000000000000000000000000000000602082015250565b6000614688602a83613d0e565b91506146938261462c565b604082019050919050565b600060208201905081810360008301526146b78161467b565b9050919050565b7f416464726573733a20696e73756666696369656e742062616c616e636520666f60008201527f722063616c6c0000000000000000000000000000000000000000000000000000602082015250565b600061471a602683613d0e565b9150614725826146be565b604082019050919050565b600060208201905081810360008301526147498161470d565b9050919050565b7f416464726573733a2063616c6c20746f206e6f6e2d636f6e7472616374000000600082015250565b6000614786601d83613d0e565b915061479182614750565b602082019050919050565b600060208201905081810360008301526147b581614779565b9050919050565b600081519050919050565b60006147d2826147bc565b6147dc8185613d0e565b93506147ec8185602086016141a7565b6147f5816132f7565b840191505092915050565b6000602082019050818103600083015261481a81846147c7565b90509291505056fea26469706673582212204b08bbf7e4fd99833d7df506242be7ac39223b86adb7f920aaba5d5971bcb04564736f6c63430008130033",
  "linkReferences": {},
  "deployedLinkReferences": {}
}