{
  "_format": "hh-sol-artifact-1",
  "contractName": "AcceptMortgage",
  "sourceName": "contracts/protocol/auctions/AcceptMortgage.sol",
  "abi": [
    {
      "inputs": [
        {
          "internalType": "uint256",
          "name": "x",
          "type": "uint256"
        },
        {
          "internalType": "uint256",
          "name": "y",
          "type": "uint256"
        }
      ],
      "name": "PRBMath_MulDiv18_Overflow",
      "type": "error"
    },
    {
      "inputs": [
        {
          "internalType": "uint256",
          "name": "x",
          "type": "uint256"
        },
        {
          "internalType": "uint256",
          "name": "y",
          "type": "uint256"
        },
        {
          "internalType": "uint256",
          "name": "denominator",
          "type": "uint256"
        }
      ],
      "name": "PRBMath_MulDiv_Overflow",
      "type": "error"
    },
    {
      "inputs": [
        {
          "internalType": "int256",
          "name": "x",
          "type": "int256"
        }
      ],
      "name": "PRBMath_SD59x18_Convert_Overflow",
      "type": "error"
    },
    {
      "inputs": [
        {
          "internalType": "int256",
          "name": "x",
          "type": "int256"
        }
      ],
      "name": "PRBMath_SD59x18_Convert_Underflow",
      "type": "error"
    },
    {
      "inputs": [
        {
          "internalType": "SD59x18",
          "name": "x",
          "type": "int256"
        }
      ],
      "name": "PRBMath_SD59x18_Exp2_InputTooBig",
      "type": "error"
    },
    {
      "inputs": [
        {
          "internalType": "SD59x18",
          "name": "x",
          "type": "int256"
        }
      ],
      "name": "PRBMath_SD59x18_IntoUD60x18_Underflow",
      "type": "error"
    },
    {
      "inputs": [
        {
          "internalType": "SD59x18",
          "name": "x",
          "type": "int256"
        }
      ],
      "name": "PRBMath_SD59x18_Log_InputTooSmall",
      "type": "error"
    },
    {
      "inputs": [],
      "name": "PRBMath_SD59x18_Mul_InputTooSmall",
      "type": "error"
    },
    {
      "inputs": [
        {
          "internalType": "SD59x18",
          "name": "x",
          "type": "int256"
        },
        {
          "internalType": "SD59x18",
          "name": "y",
          "type": "int256"
        }
      ],
      "name": "PRBMath_SD59x18_Mul_Overflow",
      "type": "error"
    },
    {
      "inputs": [
        {
          "internalType": "uint256",
          "name": "x",
          "type": "uint256"
        }
      ],
      "name": "PRBMath_UD60x18_Convert_Overflow",
      "type": "error"
    },
    {
      "inputs": [
        {
          "internalType": "UD60x18",
          "name": "x",
          "type": "uint256"
        }
      ],
      "name": "PRBMath_UD60x18_IntoSD59x18_Overflow",
      "type": "error"
    },
    {
      "anonymous": false,
      "inputs": [
        {
          "indexed": false,
          "internalType": "uint8",
          "name": "version",
          "type": "uint8"
        }
      ],
      "name": "Initialized",
      "type": "event"
    },
    {
      "anonymous": false,
      "inputs": [
        {
          "indexed": true,
          "internalType": "address",
          "name": "previousOwner",
          "type": "address"
        },
        {
          "indexed": true,
          "internalType": "address",
          "name": "newOwner",
          "type": "address"
        }
      ],
      "name": "OwnershipTransferred",
      "type": "event"
    },
    {
      "inputs": [
        {
          "internalType": "uint256",
          "name": "",
          "type": "uint256"
        }
      ],
      "name": "_loans",
      "outputs": [
        {
          "internalType": "address",
          "name": "borrower",
          "type": "address"
        },
        {
          "internalType": "UD60x18",
          "name": "ratePerSecond",
          "type": "uint256"
        },
        {
          "internalType": "UD60x18",
          "name": "paymentPerSecond",
          "type": "uint256"
        },
        {
          "internalType": "uint256",
          "name": "startTime",
          "type": "uint256"
        },
        {
          "internalType": "uint256",
          "name": "unpaidPrincipal",
          "type": "uint256"
        },
        {
          "internalType": "uint256",
          "name": "maxDurationSeconds",
          "type": "uint256"
        },
        {
          "internalType": "uint256",
          "name": "lastPaymentTime",
          "type": "uint256"
        }
      ],
      "stateMutability": "view",
      "type": "function"
    },
    {
      "inputs": [
        {
          "internalType": "uint256",
          "name": "tokenId",
          "type": "uint256"
        },
        {
          "internalType": "uint256",
          "name": "bidIdx",
          "type": "uint256"
        }
      ],
      "name": "acceptMortgageBid",
      "outputs": [],
      "stateMutability": "nonpayable",
      "type": "function"
    },
    {
      "inputs": [
        {
          "internalType": "uint256",
          "name": "tokenId",
          "type": "uint256"
        }
      ],
      "name": "accruedInterest",
      "outputs": [
        {
          "internalType": "uint256",
          "name": "",
          "type": "uint256"
        }
      ],
      "stateMutability": "view",
      "type": "function"
    },
    {
      "inputs": [],
      "name": "availableLiquidity",
      "outputs": [
        {
          "internalType": "uint256",
          "name": "",
          "type": "uint256"
        }
      ],
      "stateMutability": "view",
      "type": "function"
    },
    {
      "inputs": [
        {
          "components": [
            {
              "internalType": "address",
              "name": "bidder",
              "type": "address"
            },
            {
              "internalType": "uint256",
              "name": "propertyValue",
              "type": "uint256"
            },
            {
              "internalType": "uint256",
              "name": "downPayment",
              "type": "uint256"
            },
            {
              "internalType": "uint256",
              "name": "maxDurationMonths",
              "type": "uint256"
            }
          ],
          "internalType": "struct IState.Bid",
          "name": "bid",
          "type": "tuple"
        }
      ],
      "name": "bidActionable",
      "outputs": [
        {
          "internalType": "bool",
          "name": "",
          "type": "bool"
        }
      ],
      "stateMutability": "view",
      "type": "function"
    },
    {
      "inputs": [
        {
          "internalType": "uint256",
          "name": "tokenId",
          "type": "uint256"
        }
      ],
      "name": "bids",
      "outputs": [
        {
          "components": [
            {
              "internalType": "address",
              "name": "bidder",
              "type": "address"
            },
            {
              "internalType": "uint256",
              "name": "propertyValue",
              "type": "uint256"
            },
            {
              "internalType": "uint256",
              "name": "downPayment",
              "type": "uint256"
            },
            {
              "internalType": "uint256",
              "name": "maxDurationMonths",
              "type": "uint256"
            }
          ],
          "internalType": "struct IState.Bid[]",
          "name": "",
          "type": "tuple[]"
        }
      ],
      "stateMutability": "view",
      "type": "function"
    },
    {
      "inputs": [],
      "name": "defaultFeeSpread",
      "outputs": [
        {
          "internalType": "UD60x18",
          "name": "",
          "type": "uint256"
        }
      ],
      "stateMutability": "view",
      "type": "function"
    },
    {
      "inputs": [
        {
          "internalType": "contract tUsdc",
          "name": "_tUSDC",
          "type": "address"
        },
        {
          "internalType": "contract TangibleNft",
          "name": "_prosperaNftContract",
          "type": "address"
        }
      ],
      "name": "initialize",
      "outputs": [],
      "stateMutability": "nonpayable",
      "type": "function"
    },
    {
      "inputs": [
        {
          "components": [
            {
              "internalType": "address",
              "name": "bidder",
              "type": "address"
            },
            {
              "internalType": "uint256",
              "name": "propertyValue",
              "type": "uint256"
            },
            {
              "internalType": "uint256",
              "name": "downPayment",
              "type": "uint256"
            },
            {
              "internalType": "uint256",
              "name": "maxDurationMonths",
              "type": "uint256"
            }
          ],
          "internalType": "struct IState.Bid",
          "name": "_bid",
          "type": "tuple"
        }
      ],
      "name": "loanBidActionable",
      "outputs": [
        {
          "internalType": "bool",
          "name": "",
          "type": "bool"
        }
      ],
      "stateMutability": "view",
      "type": "function"
    },
    {
      "inputs": [
        {
          "internalType": "uint256",
          "name": "tokenId",
          "type": "uint256"
        }
      ],
      "name": "loans",
      "outputs": [
        {
          "components": [
            {
              "internalType": "address",
              "name": "borrower",
              "type": "address"
            },
            {
              "internalType": "UD60x18",
              "name": "ratePerSecond",
              "type": "uint256"
            },
            {
              "internalType": "UD60x18",
              "name": "paymentPerSecond",
              "type": "uint256"
            },
            {
              "internalType": "uint256",
              "name": "startTime",
              "type": "uint256"
            },
            {
              "internalType": "uint256",
              "name": "unpaidPrincipal",
              "type": "uint256"
            },
            {
              "internalType": "uint256",
              "name": "maxDurationSeconds",
              "type": "uint256"
            },
            {
              "internalType": "uint256",
              "name": "lastPaymentTime",
              "type": "uint256"
            }
          ],
          "internalType": "struct IState.Loan",
          "name": "",
          "type": "tuple"
        }
      ],
      "stateMutability": "view",
      "type": "function"
    },
    {
      "inputs": [
        {
          "internalType": "uint256",
          "name": "idx",
          "type": "uint256"
        }
      ],
      "name": "loansTokenIdsAt",
      "outputs": [
        {
          "internalType": "uint256",
          "name": "tokenId",
          "type": "uint256"
        }
      ],
      "stateMutability": "view",
      "type": "function"
    },
    {
      "inputs": [],
      "name": "loansTokenIdsLength",
      "outputs": [
        {
          "internalType": "uint256",
          "name": "",
          "type": "uint256"
        }
      ],
      "stateMutability": "view",
      "type": "function"
    },
    {
      "inputs": [
        {
          "internalType": "bytes4",
          "name": "",
          "type": "bytes4"
        }
      ],
      "name": "logicTargets",
      "outputs": [
        {
          "internalType": "address",
          "name": "",
          "type": "address"
        }
      ],
      "stateMutability": "view",
      "type": "function"
    },
    {
      "inputs": [],
      "name": "maxDurationMonthsCap",
      "outputs": [
        {
          "internalType": "uint256",
          "name": "",
          "type": "uint256"
        }
      ],
      "stateMutability": "view",
      "type": "function"
    },
    {
      "inputs": [],
      "name": "maxLtv",
      "outputs": [
        {
          "internalType": "UD60x18",
          "name": "",
          "type": "uint256"
        }
      ],
      "stateMutability": "view",
      "type": "function"
    },
    {
      "inputs": [],
      "name": "monthSeconds",
      "outputs": [
        {
          "internalType": "uint256",
          "name": "",
          "type": "uint256"
        }
      ],
      "stateMutability": "view",
      "type": "function"
    },
    {
      "inputs": [],
      "name": "optimalUtilization",
      "outputs": [
        {
          "internalType": "UD60x18",
          "name": "",
          "type": "uint256"
        }
      ],
      "stateMutability": "view",
      "type": "function"
    },
    {
      "inputs": [],
      "name": "owner",
      "outputs": [
        {
          "internalType": "address",
          "name": "",
          "type": "address"
        }
      ],
      "stateMutability": "view",
      "type": "function"
    },
    {
      "inputs": [
        {
          "components": [
            {
              "internalType": "address",
              "name": "borrower",
              "type": "address"
            },
            {
              "internalType": "UD60x18",
              "name": "ratePerSecond",
              "type": "uint256"
            },
            {
              "internalType": "UD60x18",
              "name": "paymentPerSecond",
              "type": "uint256"
            },
            {
              "internalType": "uint256",
              "name": "startTime",
              "type": "uint256"
            },
            {
              "internalType": "uint256",
              "name": "unpaidPrincipal",
              "type": "uint256"
            },
            {
              "internalType": "uint256",
              "name": "maxDurationSeconds",
              "type": "uint256"
            },
            {
              "internalType": "uint256",
              "name": "lastPaymentTime",
              "type": "uint256"
            }
          ],
          "internalType": "struct IState.Loan",
          "name": "loan",
          "type": "tuple"
        },
        {
          "internalType": "uint256",
          "name": "month",
          "type": "uint256"
        }
      ],
      "name": "principalCap",
      "outputs": [
        {
          "internalType": "uint256",
          "name": "cap",
          "type": "uint256"
        }
      ],
      "stateMutability": "pure",
      "type": "function"
    },
    {
      "inputs": [],
      "name": "redemptionFeeSpread",
      "outputs": [
        {
          "internalType": "UD60x18",
          "name": "",
          "type": "uint256"
        }
      ],
      "stateMutability": "view",
      "type": "function"
    },
    {
      "inputs": [],
      "name": "renounceOwnership",
      "outputs": [],
      "stateMutability": "nonpayable",
      "type": "function"
    },
    {
      "inputs": [
        {
          "internalType": "bytes4[]",
          "name": "selectorsArr",
          "type": "bytes4[]"
        },
        {
          "internalType": "address",
          "name": "target",
          "type": "address"
        }
      ],
      "name": "setSelectorsTarget",
      "outputs": [],
      "stateMutability": "nonpayable",
      "type": "function"
    },
    {
      "inputs": [
        {
          "internalType": "uint256",
          "name": "tokenId",
          "type": "uint256"
        }
      ],
      "name": "status",
      "outputs": [
        {
          "internalType": "enum IState.Status",
          "name": "",
          "type": "uint8"
        }
      ],
      "stateMutability": "view",
      "type": "function"
    },
    {
      "inputs": [
        {
          "internalType": "uint256",
          "name": "tokenId",
          "type": "uint256"
        }
      ],
      "name": "tokenIdBidsLength",
      "outputs": [
        {
          "internalType": "uint256",
          "name": "",
          "type": "uint256"
        }
      ],
      "stateMutability": "view",
      "type": "function"
    },
    {
      "inputs": [],
      "name": "totalDeposits",
      "outputs": [
        {
          "internalType": "uint256",
          "name": "",
          "type": "uint256"
        }
      ],
      "stateMutability": "view",
      "type": "function"
    },
    {
      "inputs": [],
      "name": "totalPrincipal",
      "outputs": [
        {
          "internalType": "uint256",
          "name": "",
          "type": "uint256"
        }
      ],
      "stateMutability": "view",
      "type": "function"
    },
    {
      "inputs": [
        {
          "internalType": "address",
          "name": "newOwner",
          "type": "address"
        }
      ],
      "name": "transferOwnership",
      "outputs": [],
      "stateMutability": "nonpayable",
      "type": "function"
    },
    {
      "inputs": [],
      "name": "yearMonths",
      "outputs": [
        {
          "internalType": "uint256",
          "name": "",
          "type": "uint256"
        }
      ],
      "stateMutability": "view",
      "type": "function"
    },
    {
      "inputs": [],
      "name": "yearSeconds",
      "outputs": [
        {
          "internalType": "uint256",
          "name": "",
          "type": "uint256"
        }
      ],
      "stateMutability": "view",
      "type": "function"
    }
  ],
  "bytecode": "0x608060405273a0b86991c6218b36c1d19d4a2e9eb0ce3606eb486002806101000a81548173ffffffffffffffffffffffffffffffffffffffff021916908373ffffffffffffffffffffffffffffffffffffffff1602179055506200008f6200006e60646200027d60201b60201c565b62000080605a6200027d60201b60201c565b6200030e60201b90919060201c565b600755620000c9620000a860646200027d60201b60201c565b620000ba60046200027d60201b60201c565b6200030e60201b90919060201c565b60085562000103620000e260646200027d60201b60201c565b620000f460036200027d60201b60201c565b6200030e60201b90919060201c565b6009556200011860096200027d60201b60201c565b600a55620001526200013160646200027d60201b60201c565b6200014360016200027d60201b60201c565b6200030e60201b90919060201c565b600b556200018c6200016b60646200027d60201b60201c565b6200017d60026200027d60201b60201c565b6200030e60201b90919060201c565b600c55620001c6620001a560646200027d60201b60201c565b620001b760036200027d60201b60201c565b6200030e60201b90919060201c565b600d5562000200620001df60646200027d60201b60201c565b620001f160046200027d60201b60201c565b6200030e60201b90919060201c565b600e55623b5380601455620002416200022060646200027d60201b60201c565b6200023260326200027d60201b60201c565b6200030e60201b90919060201c565b60155560786016553480156200025657600080fd5b50620002776200026b6200036360201b60201c565b6200036b60201b60201c565b62000641565b6000670de0b6b3a76400007fffffffffffffffffffffffffffffffffffffffffffffffffffffffffffffffff620002b591906200059e565b821115620002fc57816040517f1cd951a7000000000000000000000000000000000000000000000000000000008152600401620002f39190620005e7565b60405180910390fd5b670de0b6b3a764000082029050919050565b60006200035b6200034f62000329856200042f60201b60201c565b670de0b6b3a764000062000343866200042f60201b60201c565b6200043960201b60201c565b6200055b60201b60201c565b905092915050565b600033905090565b60008060009054906101000a900473ffffffffffffffffffffffffffffffffffffffff169050816000806101000a81548173ffffffffffffffffffffffffffffffffffffffff021916908373ffffffffffffffffffffffffffffffffffffffff1602179055508173ffffffffffffffffffffffffffffffffffffffff168173ffffffffffffffffffffffffffffffffffffffff167f8be0079c531659141344cd1fd0a4f28419497f9722a3daafe3b4186f6b6457e060405160405180910390a35050565b6000819050919050565b600080600080198587098587029250828110838203039150506000810362000479578382816200046e576200046d6200056f565b5b049250505062000554565b838110620004c4578585856040517f63a05778000000000000000000000000000000000000000000000000000000008152600401620004bb9392919062000604565b60405180910390fd5b60008486880990508281118203915080830392506000600186190186169050600081870496508185049450600182836000030401905080840285179450600060028860030218905080880260020381029050808802600203810290508088026002038102905080880260020381029050808802600203810290508088026002038102905080860296505050505050505b9392505050565b6000819050919050565b6000819050919050565b7f4e487b7100000000000000000000000000000000000000000000000000000000600052601260045260246000fd5b6000620005ab8262000565565b9150620005b88362000565565b925082620005cb57620005ca6200056f565b5b828204905092915050565b620005e18162000565565b82525050565b6000602082019050620005fe6000830184620005d6565b92915050565b60006060820190506200061b6000830186620005d6565b6200062a6020830185620005d6565b620006396040830184620005d6565b949350505050565b6147c680620006516000396000f3fe608060405234801561001057600080fd5b50600436106101cf5760003560e01c806374bdf96a11610104578063ab01f7e1116100a2578063e1ec3c6811610071578063e1ec3c6814610564578063e343504414610594578063f2fde38b146105b0578063ff9ad6df146105cc576101cf565b8063ab01f7e1146104c4578063bcff3e3b146104e2578063bd5c569b14610512578063dfdabc1914610548576101cf565b806387ae0dbe116100de57806387ae0dbe1461043a5780638da5cb5b14610458578063a0024c2f14610476578063a54cab1c146104a6576101cf565b806374bdf96a146103ce5780637d882097146103fe578063812cf0181461041c576101cf565b80634423c5f1116101715780634b1533b21161014b5780634b1533b21461036a5780636290cd1c14610388578063715018a6146103a657806374375359146103b0576101cf565b80634423c5f114610300578063485cc955146103305780634abb30031461034c576101cf565b80632da10923116101ad5780632da10923146102645780633a12c6da146102945780633ca36db6146102b257806342d21ef7146102d0576101cf565b80630a9cc0b6146101d457806317548b79146102045780631cc03c8714610234575b600080fd5b6101ee60048036038101906101e9919061344e565b6105ea565b6040516101fb9190613496565b60405180910390f35b61021e60048036038101906102199190613509565b61065f565b60405161022b9190613545565b60405180910390f35b61024e60048036038101906102499190613640565b610692565b60405161025b9190613690565b60405180910390f35b61027e600480360381019061027991906136ab565b6107f4565b60405161028b9190613690565b60405180910390f35b61029c610814565b6040516102a99190613713565b60405180910390f35b6102ba61081a565b6040516102c79190613713565b60405180910390f35b6102ea60048036038101906102e591906136ab565b610824565b6040516102f791906137a5565b60405180910390f35b61031a600480360381019061031591906136ab565b61096b565b60405161032791906138e2565b60405180910390f35b61034a60048036038101906103459190613980565b610a51565b005b610354610c12565b6040516103619190613713565b60405180910390f35b610372610c1c565b60405161037f9190613690565b60405180910390f35b610390610c22565b60405161039d9190613713565b60405180910390f35b6103ae610c28565b005b6103b8610c3c565b6040516103c59190613690565b60405180910390f35b6103e860048036038101906103e391906136ab565b610c53565b6040516103f59190613690565b60405180910390f35b610406610c70565b6040516104139190613690565b60405180910390f35b610424610c76565b6040516104319190613690565b60405180910390f35b610442610c7b565b60405161044f9190613690565b60405180910390f35b610460610c83565b60405161046d9190613545565b60405180910390f35b610490600480360381019061048b919061344e565b610cac565b60405161049d9190613496565b60405180910390f35b6104ae610cd0565b6040516104bb9190613690565b60405180910390f35b6104cc610cd6565b6040516104d99190613690565b60405180910390f35b6104fc60048036038101906104f791906136ab565b610ce7565b6040516105099190613690565b60405180910390f35b61052c600480360381019061052791906136ab565b610da8565b60405161053f97969594939291906139c0565b60405180910390f35b610562600480360381019061055d9190613a2f565b610e0a565b005b61057e600480360381019061057991906136ab565b6113fb565b60405161058b9190613b0c565b60405180910390f35b6105ae60048036038101906105a99190613b8c565b6114ba565b005b6105ca60048036038101906105c59190613bec565b6115a0565b005b6105d4611623565b6040516105e19190613690565b60405180910390f35b600080826040015183602001516106019190613c48565b9050600061062c6106158560200151611637565b61061e84611637565b6116c390919063ffffffff16565b9050610643601554826116f890919063ffffffff16565b80156106565750610652610c3c565b8211155b92505050919050565b60016020528060005260406000206000915054906101000a900473ffffffffffffffffffffffffffffffffffffffff1681565b600061069d83611716565b8211156106df576040517f08c379a00000000000000000000000000000000000000000000000000000000081526004016106d690613cff565b60405180910390fd5b6000600c6301e133806106f29190613d4e565b836106fd9190613d7f565b9050600061074361070e600161173f565b61073561071e8860a0015161173f565b6107278661173f565b61184390919063ffffffff16565b61184390919063ffffffff16565b9050600061079c610784836107766107718a602001516107636001611637565b61187190919063ffffffff16565b61189f565b61191390919063ffffffff16565b61078e600161173f565b61184390919063ffffffff16565b905060006107c76107c2836107b48a6040015161189f565b6119d190919063ffffffff16565b611b61565b90506107e86107e38860200151836116c390919063ffffffff16565b611bb6565b94505050505092915050565b6000600f6000838152602001908152602001600020805490509050919050565b60155481565b6000600d54905090565b600080601060008481526020019081526020016000206040518060e00160405290816000820160009054906101000a900473ffffffffffffffffffffffffffffffffffffffff1673ffffffffffffffffffffffffffffffffffffffff1673ffffffffffffffffffffffffffffffffffffffff16815260200160018201548152602001600282015481526020016003820154815260200160048201548152602001600582015481526020016006820154815250509050600073ffffffffffffffffffffffffffffffffffffffff16816000015173ffffffffffffffffffffffffffffffffffffffff160361091b576000915050610966565b61092483611bd3565b1561096057600061093482611ce8565b4261093f9190613c48565b9050601454811161095557600292505050610966565b600392505050610966565b60019150505b919050565b6060600f6000838152602001908152602001600020805480602002602001604051908101604052809291908181526020016000905b82821015610a4657838290600052602060002090600402016040518060800160405290816000820160009054906101000a900473ffffffffffffffffffffffffffffffffffffffff1673ffffffffffffffffffffffffffffffffffffffff1673ffffffffffffffffffffffffffffffffffffffff1681526020016001820154815260200160028201548152602001600382015481525050815260200190600101906109a0565b505050509050919050565b6000600260019054906101000a900460ff16159050808015610a8557506001600260009054906101000a900460ff1660ff16105b80610ab45750610a9430611d93565b158015610ab357506001600260009054906101000a900460ff1660ff16145b5b610af3576040517f08c379a0000000000000000000000000000000000000000000000000000000008152600401610aea90613e33565b60405180910390fd5b6001600260006101000a81548160ff021916908360ff1602179055508015610b31576001600260016101000a81548160ff0219169083151502179055505b82600360006101000a81548173ffffffffffffffffffffffffffffffffffffffff021916908373ffffffffffffffffffffffffffffffffffffffff16021790555081600460006101000a81548173ffffffffffffffffffffffffffffffffffffffff021916908373ffffffffffffffffffffffffffffffffffffffff1602179055508015610c0d576000600260016101000a81548160ff0219169083151502179055507f7f26b83ff96e1f2b6a682f133852f6798a09c465da95921460cefb38474024986001604051610c049190613e9b565b60405180910390a15b505050565b6000600e54905090565b60055481565b60075481565b610c30611db6565b610c3a6000611e34565b565b6000600554600654610c4e9190613c48565b905090565b6000610c69826011611ef890919063ffffffff16565b9050919050565b60065481565b600c81565b6301e1338081565b60008060009054906101000a900473ffffffffffffffffffffffffffffffffffffffff16905090565b6000816040015182602001511480610cc95750610cc8826105ea565b5b9050919050565b60165481565b6000610ce26011611f12565b905090565b6000610da1601060008481526020019081526020016000206040518060e00160405290816000820160009054906101000a900473ffffffffffffffffffffffffffffffffffffffff1673ffffffffffffffffffffffffffffffffffffffff1673ffffffffffffffffffffffffffffffffffffffff1681526020016001820154815260200160028201548152602001600382015481526020016004820154815260200160058201548152602001600682015481525050611f27565b9050919050565b60106020528060005260406000206000915090508060000160009054906101000a900473ffffffffffffffffffffffffffffffffffffffff16908060010154908060020154908060030154908060040154908060050154908060060154905087565b6000601060008481526020019081526020016000206040518060e00160405290816000820160009054906101000a900473ffffffffffffffffffffffffffffffffffffffff1673ffffffffffffffffffffffffffffffffffffffff1673ffffffffffffffffffffffffffffffffffffffff1681526020016001820154815260200160028201548152602001600382015481526020016004820154815260200160058201548152602001600682015481525050905060016003811115610ed257610ed161372e565b5b610edb84610824565b6003811115610eed57610eec61372e565b5b14610f2d576040517f08c379a0000000000000000000000000000000000000000000000000000000008152600401610f2490613f02565b60405180910390fd5b806000015173ffffffffffffffffffffffffffffffffffffffff163373ffffffffffffffffffffffffffffffffffffffff1614610f9f576040517f08c379a0000000000000000000000000000000000000000000000000000000008152600401610f9690613f6e565b60405180910390fd5b6000600f60008581526020019081526020016000208381548110610fc657610fc5613f8e565b5b90600052602060002090600402016040518060800160405290816000820160009054906101000a900473ffffffffffffffffffffffffffffffffffffffff1673ffffffffffffffffffffffffffffffffffffffff1673ffffffffffffffffffffffffffffffffffffffff16815260200160018201548152602001600282015481526020016003820154815250509050600061108061107b600b5461106d8560200151611637565b611f5f90919063ffffffff16565b611bb6565b905080601360008282546110949190613fbd565b9250508190555060006110a686610ce7565b90508360800151600560008282546110be9190613c48565b9250508190555080600660008282546110d79190613fbd565b925050819055506000828286608001516110f19190613fbd565b6110fb9190613fbd565b90508084602001511015611144576040517f08c379a000000000000000000000000000000000000000000000000000000000815260040161113b90614063565b60405180910390fd5b60008185602001516111569190613c48565b90506111a786600001518260028054906101000a900473ffffffffffffffffffffffffffffffffffffffff1673ffffffffffffffffffffffffffffffffffffffff16611f8b9092919063ffffffff16565b846040015185602001510361125057600460009054906101000a900473ffffffffffffffffffffffffffffffffffffffff1673ffffffffffffffffffffffffffffffffffffffff166342842e0e3087600001518b6040518463ffffffff1660e01b815260040161121993929190614083565b600060405180830381600087803b15801561123357600080fd5b505af1158015611247573d6000803e3d6000fd5b505050506113f1565b6000856040015186602001516112669190613c48565b9050600060016000630feee81e60e01b7bffffffffffffffffffffffffffffffffffffffffffffffffffffffff19167bffffffffffffffffffffffffffffffffffffffffffffffffffffffff1916815260200190815260200160002060009054906101000a900473ffffffffffffffffffffffffffffffffffffffff1673ffffffffffffffffffffffffffffffffffffffff1687600001518b848a6060015160405160240161131894939291906140ba565b604051602081830303815290604052630feee81e60e01b6020820180517bffffffffffffffffffffffffffffffffffffffffffffffffffffffff838183161783525050505060405161136a9190614170565b600060405180830381855af49150503d80600081146113a5576040519150601f19603f3d011682016040523d82523d6000602084013e6113aa565b606091505b50509050806113ee576040517f08c379a00000000000000000000000000000000000000000000000000000000081526004016113e5906141d3565b60405180910390fd5b50505b5050505050505050565b61140361324a565b601060008381526020019081526020016000206040518060e00160405290816000820160009054906101000a900473ffffffffffffffffffffffffffffffffffffffff1673ffffffffffffffffffffffffffffffffffffffff1673ffffffffffffffffffffffffffffffffffffffff16815260200160018201548152602001600282015481526020016003820154815260200160048201548152602001600582015481526020016006820154815250509050919050565b6114c2611db6565b60005b8383905081101561159a5781600160008686858181106114e8576114e7613f8e565b5b90506020020160208101906114fd9190613509565b7bffffffffffffffffffffffffffffffffffffffffffffffffffffffff19167bffffffffffffffffffffffffffffffffffffffffffffffffffffffff1916815260200190815260200160002060006101000a81548173ffffffffffffffffffffffffffffffffffffffff021916908373ffffffffffffffffffffffffffffffffffffffff1602179055508080611592906141f3565b9150506114c5565b50505050565b6115a8611db6565b600073ffffffffffffffffffffffffffffffffffffffff168173ffffffffffffffffffffffffffffffffffffffff1603611617576040517f08c379a000000000000000000000000000000000000000000000000000000000815260040161160e906142ad565b60405180910390fd5b61162081611e34565b50565b600c6301e133806116349190613d4e565b81565b6000670de0b6b3a76400007fffffffffffffffffffffffffffffffffffffffffffffffffffffffffffffffff61166d9190613d4e565b8211156116b157816040517f1cd951a70000000000000000000000000000000000000000000000000000000081526004016116a89190613690565b60405180910390fd5b670de0b6b3a764000082029050919050565b60006116f06116eb6116d485612011565b670de0b6b3a76400006116e686612011565b61201b565b612135565b905092915050565b600061170382612011565b61170c84612011565b1115905092915050565b60006301e133808260a00151600c61172e9190613d7f565b6117389190613d4e565b9050919050565b6000670de0b6b3a76400007f800000000000000000000000000000000000000000000000000000000000000061177591906142d7565b8212156117b957816040517f99474eeb0000000000000000000000000000000000000000000000000000000081526004016117b09190614350565b60405180910390fd5b670de0b6b3a76400007f7fffffffffffffffffffffffffffffffffffffffffffffffffffffffffffffff6117ed91906142d7565b82131561183157816040517f9d5810910000000000000000000000000000000000000000000000000000000081526004016118289190614350565b60405180910390fd5b670de0b6b3a764000082029050919050565b60006118696118518361213f565b61185a8561213f565b611864919061436b565b612149565b905092915050565b600061189761187f83612011565b61188885612011565b6118929190613fbd565b612135565b905092915050565b6000808290507f7fffffffffffffffffffffffffffffffffffffffffffffffffffffffffffffff81111561190a57826040517ff46186840000000000000000000000000000000000000000000000000000000081526004016119019190613713565b60405180910390fd5b80915050919050565b60008061191f8461213f565b9050600061192c8461213f565b905060008203611958576000811461194557600061194f565b670de0b6b3a76400005b925050506119cb565b670de0b6b3a7640000820361197957670de0b6b3a7640000925050506119cb565b6000810361199357670de0b6b3a7640000925050506119cb565b670de0b6b3a764000081036119ac5784925050506119cb565b6119c66119c16119bb87612153565b866119d1565b6122e6565b925050505b92915050565b6000806119dd8461213f565b905060006119ea8461213f565b90507f8000000000000000000000000000000000000000000000000000000000000000821480611a3957507f800000000000000000000000000000000000000000000000000000000000000081145b15611a70576040517fa6070c2500000000000000000000000000000000000000000000000000000000815260040160405180910390fd5b60008060008412611a815783611a86565b836000035b915060008312611a965782611a9b565b826000035b90506000611aa98383612404565b90507f7fffffffffffffffffffffffffffffffffffffffffffffffffffffffffffffff811115611b125787876040517f120b5b43000000000000000000000000000000000000000000000000000000008152600401611b099291906143df565b60405180910390fd5b60007fffffffffffffffffffffffffffffffffffffffffffffffffffffffffffffffff858718139050611b5381611b4c5782600003611b4e565b825b612149565b965050505050505092915050565b6000808290506000811215611bad57826040517fbba41a15000000000000000000000000000000000000000000000000000000008152600401611ba49190614408565b60405180910390fd5b80915050919050565b6000670de0b6b3a764000082611bcc9190613d4e565b9050919050565b600080601060008481526020019081526020016000206040518060e00160405290816000820160009054906101000a900473ffffffffffffffffffffffffffffffffffffffff1673ffffffffffffffffffffffffffffffffffffffff1673ffffffffffffffffffffffffffffffffffffffff168152602001600182015481526020016002820154815260200160038201548152602001600482015481526020016005820154815260200160068201548152505090506000611c93826124ee565b90506000600c6301e133808460a00151611cad9190613d4e565b611cb79190613d7f565b905080821115611ccd5760019350505050611ce3565b611cd78383610692565b83608001511193505050505b919050565b600080611cf4836124ee565b905060008190505b6000811115611d8c576000611d118583610692565b90506000611d2b86600185611d269190613c48565b610692565b9050818660800151118015611d44575080866080015111155b15611d7757600c6301e13380611d5a9190613d4e565b83611d659190613d7f565b8660600151611d749190613fbd565b94505b50508080611d8490614423565b915050611cfc565b5050919050565b6000808273ffffffffffffffffffffffffffffffffffffffff163b119050919050565b611dbe612543565b73ffffffffffffffffffffffffffffffffffffffff16611ddc610c83565b73ffffffffffffffffffffffffffffffffffffffff1614611e32576040517f08c379a0000000000000000000000000000000000000000000000000000000008152600401611e2990614498565b60405180910390fd5b565b60008060009054906101000a900473ffffffffffffffffffffffffffffffffffffffff169050816000806101000a81548173ffffffffffffffffffffffffffffffffffffffff021916908373ffffffffffffffffffffffffffffffffffffffff1602179055508173ffffffffffffffffffffffffffffffffffffffff168173ffffffffffffffffffffffffffffffffffffffff167f8be0079c531659141344cd1fd0a4f28419497f9722a3daafe3b4186f6b6457e060405160405180910390a35050565b6000611f07836000018361254b565b60001c905092915050565b6000611f2082600001612576565b9050919050565b6000611f58611f53611f3884612587565b611f458560800151611637565b611f5f90919063ffffffff16565b611bb6565b9050919050565b6000611f83611f7e611f7085612011565b611f7985612011565b612404565b612135565b905092915050565b61200c8363a9059cbb60e01b8484604051602401611faa9291906144b8565b604051602081830303815290604052907bffffffffffffffffffffffffffffffffffffffffffffffffffffffff19166020820180517bffffffffffffffffffffffffffffffffffffffffffffffffffffffff83818316178352505050506125b7565b505050565b6000819050919050565b60008060008019858709858702925082811083820303915050600081036120565783828161204c5761204b613d1f565b5b049250505061212e565b83811061209e578585856040517f63a05778000000000000000000000000000000000000000000000000000000008152600401612095939291906144e1565b60405180910390fd5b60008486880990508281118203915080830392506000600186190186169050600081870496508185049450600182836000030401905080840285179450600060028860030218905080880260020381029050808802600203810290508088026002038102905080880260020381029050808802600203810290508088026002038102905080860296505050505050505b9392505050565b6000819050919050565b6000819050919050565b6000819050919050565b60008061215f8361213f565b9050600081136121a657826040517f059b101b00000000000000000000000000000000000000000000000000000000815260040161219d9190614408565b60405180910390fd5b6000670de0b6b3a764000082126121c05760019050612206565b7fffffffffffffffffffffffffffffffffffffffffffffffffffffffffffffffff9050816ec097ce7bc90715b34b9f10000000008161220257612201613d1f565b5b0591505b6000612229670de0b6b3a7640000848161222357612222613d1f565b5b0561267e565b90506000670de0b6b3a76400008202905060008285901d9050670de0b6b3a764000081036122685761225c848302612149565b955050505050506122e1565b6000671bc16d674ec80000905060006706f05b59d3b2000090505b60008113156122c957670de0b6b3a7640000838402816122a6576122a5613d1f565b5b0592508183126122bd578084019350600183901d92505b600181901d9050612283565b5084830292506122d883612149565b96505050505050505b919050565b6000806122f28361213f565b90506000811215612379577ffffffffffffffffffffffffffffffffffffffffffffffffcc22e87f6eb468eeb81121561232f5760009150506123ff565b61237261234e61234961234484600003612149565b6122e6565b61213f565b6ec097ce7bc90715b34b9f10000000008161236c5761236b613d1f565b5b05612149565b91506123fd565b680a688906bd8affffff8113156123c757826040517f0360d0280000000000000000000000000000000000000000000000000000000081526004016123be9190614408565b60405180910390fd5b6000670de0b6b3a7640000604083901b816123e5576123e4613d1f565b5b0590506123f96123f482612727565b612149565b9250505b505b919050565b600080600080198486098486029250828110838203039150506000810361244757670de0b6b3a7640000828161243d5761243c613d1f565b5b04925050506124e8565b670de0b6b3a764000081106124955784846040517f5173648d00000000000000000000000000000000000000000000000000000000815260040161248c929190614518565b60405180910390fd5b6000670de0b6b3a764000085870990507faccb18165bd6fe31ae1cf318dc5b51eee0e1ba569b88cd74c1773b91fac106696001620400008060000304018483118403026204000083860304170293505050505b92915050565b600080600c6301e133806125029190613d4e565b8360600151426125129190613c48565b61251c9190613d4e565b9050600061252984611716565b9050808211612538578161253a565b805b92505050919050565b600033905090565b600082600001828154811061256357612562613f8e565b5b9060005260206000200154905092915050565b600081600001805490509050919050565b60006125b061259d61259884613087565b611637565b8360200151611f5f90919063ffffffff16565b9050919050565b6000612619826040518060400160405280602081526020017f5361666545524332303a206c6f772d6c6576656c2063616c6c206661696c65648152508573ffffffffffffffffffffffffffffffffffffffff166130a09092919063ffffffff16565b90506000815111156126795780806020019051810190612639919061456d565b612678576040517f08c379a000000000000000000000000000000000000000000000000000000000815260040161266f9061460c565b60405180910390fd5b5b505050565b60006fffffffffffffffffffffffffffffffff821160071b82811c925080821791505067ffffffffffffffff821160061b82811c925080821791505063ffffffff821160051b82811c925080821791505061ffff821160041b82811c925080821791505060ff821160031b82811c9250808217915050600f821160021b82811c92508082179150506003821160011b82811c925080821791505060018211808217915050919050565b6000778000000000000000000000000000000000000000000000009050600067ff00000000000000831611156128885760006780000000000000008316111561277d57604068016a09e667f3bcc9098202901c90505b6000674000000000000000831611156127a35760406801306fe0a31b7152df8202901c90505b6000672000000000000000831611156127c95760406801172b83c7d517adce8202901c90505b6000671000000000000000831611156127ef57604068010b5586cf9890f62a8202901c90505b6000670800000000000000831611156128155760406801059b0d31585743ae8202901c90505b60006704000000000000008316111561283b576040680102c9a3e778060ee78202901c90505b60006702000000000000008316111561286157604068010163da9fb33356d88202901c90505b600067010000000000000083161115612887576040680100b1afa5abcbed618202901c90505b5b600066ff000000000000831611156129c35760006680000000000000831611156128bf57604068010058c86da1c09ea28202901c90505b60006640000000000000831611156128e45760406801002c605e2e8cec508202901c90505b6000662000000000000083161115612909576040680100162f3904051fa18202901c90505b600066100000000000008316111561292e5760406801000b175effdc76ba8202901c90505b6000660800000000000083161115612953576040680100058ba01fb9f96d8202901c90505b600066040000000000008316111561297857604068010002c5cc37da94928202901c90505b600066020000000000008316111561299d5760406801000162e525ee05478202901c90505b60006601000000000000831611156129c257604068010000b17255775c048202901c90505b5b600065ff000000000083161115612af557600065800000000000831611156129f85760406801000058b91b5bc9ae8202901c90505b60006540000000000083161115612a1c576040680100002c5c89d5ec6d8202901c90505b60006520000000000083161115612a4057604068010000162e43f4f8318202901c90505b60006510000000000083161115612a64576040680100000b1721bcfc9a8202901c90505b60006508000000000083161115612a8857604068010000058b90cf1e6e8202901c90505b60006504000000000083161115612aac5760406801000002c5c863b73f8202901c90505b60006502000000000083161115612ad0576040680100000162e430e5a28202901c90505b60006501000000000083161115612af45760406801000000b1721835518202901c90505b5b600064ff0000000083161115612c1e57600064800000000083161115612b28576040680100000058b90c0b498202901c90505b600064400000000083161115612b4b57604068010000002c5c8601cc8202901c90505b600064200000000083161115612b6e5760406801000000162e42fff08202901c90505b600064100000000083161115612b9157604068010000000b17217fbb8202901c90505b600064080000000083161115612bb45760406801000000058b90bfce8202901c90505b600064040000000083161115612bd7576040680100000002c5c85fe38202901c90505b600064020000000083161115612bfa57604068010000000162e42ff18202901c90505b600064010000000083161115612c1d576040680100000000b17217f88202901c90505b5b600063ff00000083161115612d3e576000638000000083161115612c4f57604068010000000058b90bfc8202901c90505b6000634000000083161115612c715760406801000000002c5c85fe8202901c90505b6000632000000083161115612c93576040680100000000162e42ff8202901c90505b6000631000000083161115612cb55760406801000000000b17217f8202901c90505b6000630800000083161115612cd7576040680100000000058b90c08202901c90505b6000630400000083161115612cf957604068010000000002c5c8608202901c90505b6000630200000083161115612d1b5760406801000000000162e4308202901c90505b6000630100000083161115612d3d57604068010000000000b172188202901c90505b5b600062ff000083161115612e555760006280000083161115612d6d5760406801000000000058b90c8202901c90505b60006240000083161115612d8e576040680100000000002c5c868202901c90505b60006220000083161115612daf57604068010000000000162e438202901c90505b60006210000083161115612dd0576040680100000000000b17218202901c90505b60006208000083161115612df157604068010000000000058b918202901c90505b60006204000083161115612e125760406801000000000002c5c88202901c90505b60006202000083161115612e33576040680100000000000162e48202901c90505b60006201000083161115612e545760406801000000000000b1728202901c90505b5b600061ff0083161115612f6357600061800083161115612e82576040680100000000000058b98202901c90505b600061400083161115612ea257604068010000000000002c5d8202901c90505b600061200083161115612ec25760406801000000000000162e8202901c90505b600061100083161115612ee257604068010000000000000b178202901c90505b600061080083161115612f025760406801000000000000058c8202901c90505b600061040083161115612f22576040680100000000000002c68202901c90505b600061020083161115612f42576040680100000000000001638202901c90505b600061010083161115612f62576040680100000000000000b18202901c90505b5b600060ff83161115613068576000608083161115612f8e576040680100000000000000598202901c90505b6000604083161115612fad5760406801000000000000002c8202901c90505b6000602083161115612fcc576040680100000000000000168202901c90505b6000601083161115612feb5760406801000000000000000b8202901c90505b600060088316111561300a576040680100000000000000068202901c90505b6000600483161115613029576040680100000000000000038202901c90505b6000600283161115613048576040680100000000000000018202901c90505b6000600183161115613067576040680100000000000000018202901c90505b5b670de0b6b3a764000081029050604082901c60bf0381901c9050919050565b60008160c00151426130999190613c48565b9050919050565b60606130af84846000856130b8565b90509392505050565b6060824710156130fd576040517f08c379a00000000000000000000000000000000000000000000000000000000081526004016130f49061469e565b60405180910390fd5b6000808673ffffffffffffffffffffffffffffffffffffffff1685876040516131269190614170565b60006040518083038185875af1925050503d8060008114613163576040519150601f19603f3d011682016040523d82523d6000602084013e613168565b606091505b509150915061317987838387613185565b92505050949350505050565b606083156131e75760008351036131df5761319f85611d93565b6131de576040517f08c379a00000000000000000000000000000000000000000000000000000000081526004016131d59061470a565b60405180910390fd5b5b8290506131f2565b6131f183836131fa565b5b949350505050565b60008251111561320d5781518083602001fd5b806040517f08c379a0000000000000000000000000000000000000000000000000000000008152600401613241919061476e565b60405180910390fd5b6040518060e00160405280600073ffffffffffffffffffffffffffffffffffffffff1681526020016000815260200160008152602001600081526020016000815260200160008152602001600081525090565b6000604051905090565b600080fd5b600080fd5b600080fd5b6000601f19601f8301169050919050565b7f4e487b7100000000000000000000000000000000000000000000000000000000600052604160045260246000fd5b6132ff826132b6565b810181811067ffffffffffffffff8211171561331e5761331d6132c7565b5b80604052505050565b600061333161329d565b905061333d82826132f6565b919050565b600073ffffffffffffffffffffffffffffffffffffffff82169050919050565b600061336d82613342565b9050919050565b61337d81613362565b811461338857600080fd5b50565b60008135905061339a81613374565b92915050565b6000819050919050565b6133b3816133a0565b81146133be57600080fd5b50565b6000813590506133d0816133aa565b92915050565b6000608082840312156133ec576133eb6132b1565b5b6133f66080613327565b905060006134068482850161338b565b600083015250602061341a848285016133c1565b602083015250604061342e848285016133c1565b6040830152506060613442848285016133c1565b60608301525092915050565b600060808284031215613464576134636132a7565b5b6000613472848285016133d6565b91505092915050565b60008115159050919050565b6134908161347b565b82525050565b60006020820190506134ab6000830184613487565b92915050565b60007fffffffff0000000000000000000000000000000000000000000000000000000082169050919050565b6134e6816134b1565b81146134f157600080fd5b50565b600081359050613503816134dd565b92915050565b60006020828403121561351f5761351e6132a7565b5b600061352d848285016134f4565b91505092915050565b61353f81613362565b82525050565b600060208201905061355a6000830184613536565b92915050565b613569816133a0565b811461357457600080fd5b50565b60008135905061358681613560565b92915050565b600060e082840312156135a2576135a16132b1565b5b6135ac60e0613327565b905060006135bc8482850161338b565b60008301525060206135d084828501613577565b60208301525060406135e484828501613577565b60408301525060606135f8848285016133c1565b606083015250608061360c848285016133c1565b60808301525060a0613620848285016133c1565b60a08301525060c0613634848285016133c1565b60c08301525092915050565b6000806101008385031215613658576136576132a7565b5b60006136668582860161358c565b92505060e0613677858286016133c1565b9150509250929050565b61368a816133a0565b82525050565b60006020820190506136a56000830184613681565b92915050565b6000602082840312156136c1576136c06132a7565b5b60006136cf848285016133c1565b91505092915050565b6000819050919050565b60006136fd6136f86136f3846133a0565b6136d8565b6133a0565b9050919050565b61370d816136e2565b82525050565b60006020820190506137286000830184613704565b92915050565b7f4e487b7100000000000000000000000000000000000000000000000000000000600052602160045260246000fd5b6004811061376e5761376d61372e565b5b50565b600081905061377f8261375d565b919050565b600061378f82613771565b9050919050565b61379f81613784565b82525050565b60006020820190506137ba6000830184613796565b92915050565b600081519050919050565b600082825260208201905092915050565b6000819050602082019050919050565b6137f581613362565b82525050565b613804816133a0565b82525050565b60808201600082015161382060008501826137ec565b50602082015161383360208501826137fb565b50604082015161384660408501826137fb565b50606082015161385960608501826137fb565b50505050565b600061386b838361380a565b60808301905092915050565b6000602082019050919050565b600061388f826137c0565b61389981856137cb565b93506138a4836137dc565b8060005b838110156138d55781516138bc888261385f565b97506138c783613877565b9250506001810190506138a8565b5085935050505092915050565b600060208201905081810360008301526138fc8184613884565b905092915050565b600061390f82613362565b9050919050565b61391f81613904565b811461392a57600080fd5b50565b60008135905061393c81613916565b92915050565b600061394d82613362565b9050919050565b61395d81613942565b811461396857600080fd5b50565b60008135905061397a81613954565b92915050565b60008060408385031215613997576139966132a7565b5b60006139a58582860161392d565b92505060206139b68582860161396b565b9150509250929050565b600060e0820190506139d5600083018a613536565b6139e26020830189613704565b6139ef6040830188613704565b6139fc6060830187613681565b613a096080830186613681565b613a1660a0830185613681565b613a2360c0830184613681565b98975050505050505050565b60008060408385031215613a4657613a456132a7565b5b6000613a54858286016133c1565b9250506020613a65858286016133c1565b9150509250929050565b613a78816136e2565b82525050565b60e082016000820151613a9460008501826137ec565b506020820151613aa76020850182613a6f565b506040820151613aba6040850182613a6f565b506060820151613acd60608501826137fb565b506080820151613ae060808501826137fb565b5060a0820151613af360a08501826137fb565b5060c0820151613b0660c08501826137fb565b50505050565b600060e082019050613b216000830184613a7e565b92915050565b600080fd5b600080fd5b600080fd5b60008083601f840112613b4c57613b4b613b27565b5b8235905067ffffffffffffffff811115613b6957613b68613b2c565b5b602083019150836020820283011115613b8557613b84613b31565b5b9250929050565b600080600060408486031215613ba557613ba46132a7565b5b600084013567ffffffffffffffff811115613bc357613bc26132ac565b5b613bcf86828701613b36565b93509350506020613be28682870161338b565b9150509250925092565b600060208284031215613c0257613c016132a7565b5b6000613c108482850161338b565b91505092915050565b7f4e487b7100000000000000000000000000000000000000000000000000000000600052601160045260246000fd5b6000613c53826133a0565b9150613c5e836133a0565b9250828203905081811115613c7657613c75613c19565b5b92915050565b600082825260208201905092915050565b7f6d6f6e7468206d757374206265203c3d206c6f616e4d61784475726174696f6e60008201527f4d6f6e7468730000000000000000000000000000000000000000000000000000602082015250565b6000613ce9602683613c7c565b9150613cf482613c8d565b604082019050919050565b60006020820190508181036000830152613d1881613cdc565b9050919050565b7f4e487b7100000000000000000000000000000000000000000000000000000000600052601260045260246000fd5b6000613d59826133a0565b9150613d64836133a0565b925082613d7457613d73613d1f565b5b828204905092915050565b6000613d8a826133a0565b9150613d95836133a0565b9250828202613da3816133a0565b91508282048414831517613dba57613db9613c19565b5b5092915050565b7f496e697469616c697a61626c653a20636f6e747261637420697320616c72656160008201527f647920696e697469616c697a6564000000000000000000000000000000000000602082015250565b6000613e1d602e83613c7c565b9150613e2882613dc1565b604082019050919050565b60006020820190508181036000830152613e4c81613e10565b9050919050565b6000819050919050565b600060ff82169050919050565b6000613e85613e80613e7b84613e53565b6136d8565b613e5d565b9050919050565b613e9581613e6a565b82525050565b6000602082019050613eb06000830184613e8c565b92915050565b7f737461747573206e6f74206d6f72746761676500000000000000000000000000600082015250565b6000613eec601383613c7c565b9150613ef782613eb6565b602082019050919050565b60006020820190508181036000830152613f1b81613edf565b9050919050565b7f63616c6c6572206e6f7420626f72726f77657200000000000000000000000000600082015250565b6000613f58601383613c7c565b9150613f6382613f22565b602082019050919050565b60006020820190508181036000830152613f8781613f4b565b9050919050565b7f4e487b7100000000000000000000000000000000000000000000000000000000600052603260045260246000fd5b6000613fc8826133a0565b9150613fd3836133a0565b9250828201905080821115613feb57613fea613c19565b5b92915050565b7f70726f706572747956616c756520646f65736e277420636f766572206465627460008201527f202b206665657300000000000000000000000000000000000000000000000000602082015250565b600061404d602783613c7c565b915061405882613ff1565b604082019050919050565b6000602082019050818103600083015261407c81614040565b9050919050565b60006060820190506140986000830186613536565b6140a56020830185613536565b6140b26040830184613681565b949350505050565b60006080820190506140cf6000830187613536565b6140dc6020830186613681565b6140e96040830185613681565b6140f66060830184613681565b95945050505050565b600081519050919050565b600081905092915050565b60005b83811015614133578082015181840152602081019050614118565b60008484015250505050565b600061414a826140ff565b614154818561410a565b9350614164818560208601614115565b80840191505092915050565b600061417c828461413f565b915081905092915050565b7f73746172744c6f616e2064656c656761746543616c6c206661696c6564000000600082015250565b60006141bd601d83613c7c565b91506141c882614187565b602082019050919050565b600060208201905081810360008301526141ec816141b0565b9050919050565b60006141fe826133a0565b91507fffffffffffffffffffffffffffffffffffffffffffffffffffffffffffffffff82036142305761422f613c19565b5b600182019050919050565b7f4f776e61626c653a206e6577206f776e657220697320746865207a65726f206160008201527f6464726573730000000000000000000000000000000000000000000000000000602082015250565b6000614297602683613c7c565b91506142a28261423b565b604082019050919050565b600060208201905081810360008301526142c68161428a565b9050919050565b6000819050919050565b60006142e2826142cd565b91506142ed836142cd565b9250826142fd576142fc613d1f565b5b600160000383147f80000000000000000000000000000000000000000000000000000000000000008314161561433657614335613c19565b5b828205905092915050565b61434a816142cd565b82525050565b60006020820190506143656000830184614341565b92915050565b6000614376826142cd565b9150614381836142cd565b92508282039050818112600084121682821360008512151617156143a8576143a7613c19565b5b92915050565b60006143c96143c46143bf846142cd565b6136d8565b6142cd565b9050919050565b6143d9816143ae565b82525050565b60006040820190506143f460008301856143d0565b61440160208301846143d0565b9392505050565b600060208201905061441d60008301846143d0565b92915050565b600061442e826133a0565b91506000820361444157614440613c19565b5b600182039050919050565b7f4f776e61626c653a2063616c6c6572206973206e6f7420746865206f776e6572600082015250565b6000614482602083613c7c565b915061448d8261444c565b602082019050919050565b600060208201905081810360008301526144b181614475565b9050919050565b60006040820190506144cd6000830185613536565b6144da6020830184613681565b9392505050565b60006060820190506144f66000830186613681565b6145036020830185613681565b6145106040830184613681565b949350505050565b600060408201905061452d6000830185613681565b61453a6020830184613681565b9392505050565b61454a8161347b565b811461455557600080fd5b50565b60008151905061456781614541565b92915050565b600060208284031215614583576145826132a7565b5b600061459184828501614558565b91505092915050565b7f5361666545524332303a204552433230206f7065726174696f6e20646964206e60008201527f6f74207375636365656400000000000000000000000000000000000000000000602082015250565b60006145f6602a83613c7c565b91506146018261459a565b604082019050919050565b60006020820190508181036000830152614625816145e9565b9050919050565b7f416464726573733a20696e73756666696369656e742062616c616e636520666f60008201527f722063616c6c0000000000000000000000000000000000000000000000000000602082015250565b6000614688602683613c7c565b91506146938261462c565b604082019050919050565b600060208201905081810360008301526146b78161467b565b9050919050565b7f416464726573733a2063616c6c20746f206e6f6e2d636f6e7472616374000000600082015250565b60006146f4601d83613c7c565b91506146ff826146be565b602082019050919050565b60006020820190508181036000830152614723816146e7565b9050919050565b600081519050919050565b60006147408261472a565b61474a8185613c7c565b935061475a818560208601614115565b614763816132b6565b840191505092915050565b600060208201905081810360008301526147888184614735565b90509291505056fea26469706673582212206e43829164b52d14a1bb8d1a87bf7d1d3fdb9b8255d6f2e93d6caa70bbb5205764736f6c63430008130033",
  "linkReferences": {},
  "deployedLinkReferences": {}
}